Product: MDK-ARM Standard 5.10
Component: ARM Compiler 5.04 update 1 (build 49)
Tool: armlink [5040049]

==============================================================================

Section Cross References

    raw-os.o(.text) refers to cpu.o(.text) for OS_CPU_SR_Save
    raw-os.o(.text) refers to raw-os.o(.data) for .data
    raw-os.o(.text) refers to raw-os.o(.bss) for .bss
    raw-os.o(.text) refers to user_extension.o(.text) for raw_memset
    raw-os.o(.text) refers to port_hook.o(.text) for task_create_hook
    raw-os.o(.text) refers to port.o(.text) for port_stack_init
    fifo.o(.text) refers to cpu.o(.text) for OS_CPU_SR_Save
    fifo.o(.text) refers to user_extension.o(.text) for raw_memcpy
    rsh.o(.text) refers to cpu.o(.text) for OS_CPU_SR_Save
    rsh.o(.text) refers to string.o(.text) for raw_strncmp
    rsh.o(.text) refers to user_extension.o(.text) for raw_memset
    rsh.o(.text) refers to rsh.o(.data) for .data
    rsh.o(.text) refers to rsh.o(.conststring) for .conststring
    rsh.o(.constdata) refers to rsh.o(.conststring) for .conststring
    rsh.o(.constdata) refers to rsh.o(.text) for rsh_help_command
    rsh.o(.data) refers to rsh.o(.constdata) for xHelpCommand
    cpu.o(.text) refers to raw-os.o(.text) for raw_stack_check
    cpu.o(.text) refers to raw-os.o(.data) for raw_task_active
==============================================================================

Removing Unused input sections from the image.

    Removing rsh.o(.text), (472 bytes).
    Removing rsh.o(.constdata), (16 bytes).
    Removing rsh.o(.conststring), (50 bytes).
    Removing rsh.o(.conststring), (173 bytes).
    Removing rsh.o(.data), (20 bytes).
    Removing string.o(.text), (592 bytes).
    Removing sysinit.o(.rev16_text), (4 bytes).
    Removing sysinit.o(.revsh_text), (4 bytes).
    Removing lpc43xx_scu.o(.rev16_text), (4 bytes).
    Removing lpc43xx_scu.o(.revsh_text), (4 bytes).
    Removing lpc43xx_sdram.o(.rev16_text), (4 bytes).
    Removing lpc43xx_sdram.o(.revsh_text), (4 bytes).
    Removing main.o(.rev16_text), (4 bytes).
    Removing main.o(.revsh_text), (4 bytes).
    Removing main.o(.data), (4 bytes).
    Removing board.o(.rev16_text), (4 bytes).
    Removing board.o(.revsh_text), (4 bytes).
    Removing board.o(i.Board_ADC_Init), (2 bytes).
==============================================================================

Image Symbol Table

    Local Symbols

    Symbol Name                              Value     Ov Type        Size  Object(Section)

    ../clib/angel/boardlib.s                 0x00000000   Number         0  boardshut.o ABSOLUTE
    ../clib/angel/boardlib.s                 0x00000000   Number         0  boardinit3.o ABSOLUTE
    ../clib/angel/boardlib.s                 0x00000000   Number         0  boardinit2.o ABSOLUTE
    ../clib/angel/boardlib.s                 0x00000000   Number         0  boardinit1.o ABSOLUTE
    ../clib/angel/dclz77c.s                  0x00000000   Number         0  __dclz77c.o ABSOLUTE
    ../clib/angel/handlers.s                 0x00000000   Number         0  __scatter_zi.o ABSOLUTE
    ../clib/angel/kernel.s                   0x00000000   Number         0  rtexit.o ABSOLUTE
    ../clib/angel/kernel.s                   0x00000000   Number         0  rtentry.o ABSOLUTE
    ../clib/angel/kernel.s                   0x00000000   Number         0  rtentry2.o ABSOLUTE
    ../clib/angel/kernel.s                   0x00000000   Number         0  rtexit2.o ABSOLUTE
    ../clib/angel/kernel.s                   0x00000000   Number         0  rtentry4.o ABSOLUTE
    ../clib/angel/rt.s                       0x00000000   Number         0  rt_raise.o ABSOLUTE
    ../clib/angel/rt.s                       0x00000000   Number         0  rt_div0.o ABSOLUTE
    ../clib/angel/rt.s                       0x00000000   Number         0  aeabi_ldiv0_sigfpe.o ABSOLUTE
    ../clib/angel/rt.s                       0x00000000   Number         0  aeabi_ldiv0.o ABSOLUTE
    ../clib/angel/scatter.s                  0x00000000   Number         0  __scatter.o ABSOLUTE
    ../clib/angel/startup.s                  0x00000000   Number         0  __main.o ABSOLUTE
    ../clib/angel/sys.s                      0x00000000   Number         0  libspace.o ABSOLUTE
    ../clib/angel/sys.s                      0x00000000   Number         0  sys_stackheap_outer.o ABSOLUTE
    ../clib/angel/sys.s                      0x00000000   Number         0  use_no_semi.o ABSOLUTE
    ../clib/angel/sys.s                      0x00000000   Number         0  indicate_semi.o ABSOLUTE
    ../clib/angel/sysapp.c                   0x00000000   Number         0  sys_wrch.o ABSOLUTE
    ../clib/angel/sysapp.c                   0x00000000   Number         0  sys_command.o ABSOLUTE
    ../clib/armsys.c                         0x00000000   Number         0  argv_veneer.o ABSOLUTE
    ../clib/armsys.c                         0x00000000   Number         0  _get_argv_nomalloc.o ABSOLUTE
    ../clib/armsys.c                         0x00000000   Number         0  no_argv.o ABSOLUTE
    ../clib/armsys.c                         0x00000000   Number         0  argv_veneer.o ABSOLUTE
    ../clib/heapalloc.c                      0x00000000   Number         0  hrguard.o ABSOLUTE
    ../clib/heapaux.c                        0x00000000   Number         0  heapauxi.o ABSOLUTE
    ../clib/libinit.s                        0x00000000   Number         0  libshutdown2.o ABSOLUTE
    ../clib/libinit.s                        0x00000000   Number         0  libinit2.o ABSOLUTE
    ../clib/libinit.s                        0x00000000   Number         0  libshutdown.o ABSOLUTE
    ../clib/libinit.s                        0x00000000   Number         0  libinit.o ABSOLUTE
    ../clib/longlong.s                       0x00000000   Number         0  lludivv7m.o ABSOLUTE
    ../clib/memcpset.s                       0x00000000   Number         0  rt_memcpy_w.o ABSOLUTE
    ../clib/memcpset.s                       0x00000000   Number         0  rt_memcpy_v6.o ABSOLUTE
    ../clib/memcpset.s                       0x00000000   Number         0  rt_memclr_w.o ABSOLUTE
    ../clib/printf.c                         0x00000000   Number         0  __printf_flags_ss_wp.o ABSOLUTE
    ../clib/printf.c                         0x00000000   Number         0  __printf_ss_wp.o ABSOLUTE
    ../clib/printf.c                         0x00000000   Number         0  __printf_flags_wp.o ABSOLUTE
    ../clib/printf.c                         0x00000000   Number         0  __printf_wp.o ABSOLUTE
    ../clib/printf.c                         0x00000000   Number         0  __printf_flags_ss.o ABSOLUTE
    ../clib/printf.c                         0x00000000   Number         0  __printf_ss.o ABSOLUTE
    ../clib/printf.c                         0x00000000   Number         0  __printf_flags.o ABSOLUTE
    ../clib/printf.c                         0x00000000   Number         0  _printf_dec.o ABSOLUTE
    ../clib/printf.c                         0x00000000   Number         0  __printf.o ABSOLUTE
    ../clib/printf.c                         0x00000000   Number         0  noretval__2printf.o ABSOLUTE
    ../clib/printf.c                         0x00000000   Number         0  __printf_nopercent.o ABSOLUTE
    ../clib/printf.c                         0x00000000   Number         0  _printf_char_common.o ABSOLUTE
    ../clib/printf.c                         0x00000000   Number         0  __2printf.o ABSOLUTE
    ../clib/printf.c                         0x00000000   Number         0  _printf_char_file.o ABSOLUTE
    ../clib/printf.c                         0x00000000   Number         0  _printf_intcommon.o ABSOLUTE
    ../clib/printf_percent.s                 0x00000000   Number         0  _printf_percent.o ABSOLUTE
    ../clib/printf_percent.s                 0x00000000   Number         0  _printf_d.o ABSOLUTE
    ../clib/printf_percent.s                 0x00000000   Number         0  _printf_percent_end.o ABSOLUTE
    ../clib/signal.c                         0x00000000   Number         0  defsig_general.o ABSOLUTE
    ../clib/signal.c                         0x00000000   Number         0  __raise.o ABSOLUTE
    ../clib/signal.c                         0x00000000   Number         0  defsig_rtred_inner.o ABSOLUTE
    ../clib/signal.c                         0x00000000   Number         0  defsig_exit.o ABSOLUTE
    ../clib/signal.c                         0x00000000   Number         0  defsig_fpe_inner.o ABSOLUTE
    ../clib/signal.c                         0x00000000   Number         0  defsig_other.o ABSOLUTE
    ../clib/signal.c                         0x00000000   Number         0  defsig_segv_inner.o ABSOLUTE
    ../clib/signal.c                         0x00000000   Number         0  defsig_cppl_inner.o ABSOLUTE
    ../clib/signal.c                         0x00000000   Number         0  defsig_pvfn_inner.o ABSOLUTE
    ../clib/signal.c                         0x00000000   Number         0  defsig_stak_inner.o ABSOLUTE
    ../clib/signal.c                         0x00000000   Number         0  defsig_rtmem_formal.o ABSOLUTE
    ../clib/signal.c                         0x00000000   Number         0  defsig_rtmem_outer.o ABSOLUTE
    ../clib/signal.c                         0x00000000   Number         0  defsig_rtmem_inner.o ABSOLUTE
    ../clib/signal.c                         0x00000000   Number         0  defsig_abrt_inner.o ABSOLUTE
    ../clib/signal.c                         0x00000000   Number         0  defsig_fpe_formal.o ABSOLUTE
    ../clib/signal.c                         0x00000000   Number         0  defsig_fpe_outer.o ABSOLUTE
    ../clib/signal.s                         0x00000000   Number         0  defsig.o ABSOLUTE
    ../clib/stdlib.c                         0x00000000   Number         0  exit.o ABSOLUTE
    ../fplib/fpinit.s                        0x00000000   Number         0  fpinit.o ABSOLUTE
    ..\..\..\..\software\common\lpc43xx_scu.c 0x00000000   Number         0  lpc43xx_scu.o ABSOLUTE
    ..\..\..\..\software\common\lpc43xx_sdram.c 0x00000000   Number         0  lpc43xx_sdram.o ABSOLUTE
    ..\..\..\..\software\kernel\port\cpu.asm 0x00000000   Number         0  cpu.o ABSOLUTE
    ..\..\..\..\software\kernel\port\port.c  0x00000000   Number         0  port.o ABSOLUTE
    ..\..\..\..\software\kernel\port\port_hook.c 0x00000000   Number         0  port_hook.o ABSOLUTE
    ..\..\..\..\software\kernel\port\raw_trace_port.c 0x00000000   Number         0  raw_trace_port.o ABSOLUTE
    ..\..\..\..\software\kernel\port\user_extension.c 0x00000000   Number         0  user_extension.o ABSOLUTE
    ..\..\..\..\software\kernel\raw-os\extension\lib\fifo.c 0x00000000   Number         0  fifo.o ABSOLUTE
    ..\..\..\..\software\kernel\raw-os\extension\lib\string.c 0x00000000   Number         0  string.o ABSOLUTE
    ..\..\..\..\software\kernel\raw-os\extension\shell\rsh.c 0x00000000   Number         0  rsh.o ABSOLUTE
    ..\..\..\..\software\kernel\raw-os\raw-os.c 0x00000000   Number         0  raw-os.o ABSOLUTE
    ..\..\board_common\uda1380.c             0x00000000   Number         0  uda1380.o ABSOLUTE
    ..\..\examples\lowpower\main.c           0x00000000   Number         0  main.o ABSOLUTE
    ..\..\startup_code\keil_startup_lpc18xx43xx.s 0x00000000   Number         0  keil_startup_lpc18xx43xx.o ABSOLUTE
    ..\..\startup_code\sysinit.c             0x00000000   Number         0  sysinit.o ABSOLUTE
    ..\\..\\..\\..\\software\\common\\lpc43xx_scu.c 0x00000000   Number         0  lpc43xx_scu.o ABSOLUTE
    ..\\..\\..\\..\\software\\common\\lpc43xx_sdram.c 0x00000000   Number         0  lpc43xx_sdram.o ABSOLUTE
    ..\\..\\board_common\\uda1380.c          0x00000000   Number         0  uda1380.o ABSOLUTE
    ..\\..\\examples\\lowpower\\main.c       0x00000000   Number         0  main.o ABSOLUTE
    ..\\..\\startup_code\\sysinit.c          0x00000000   Number         0  sysinit.o ABSOLUTE
    ..\\chip_common\\fpu_init.c              0x00000000   Number         0  fpu_init.o ABSOLUTE
    ..\chip_common\fpu_init.c                0x00000000   Number         0  fpu_init.o ABSOLUTE
    ..\chip_common\ring_buffer.c             0x00000000   Number         0  ring_buffer.o ABSOLUTE
    board.c                                  0x00000000   Number         0  board.o ABSOLUTE
    board.c                                  0x00000000   Number         0  board.o ABSOLUTE
    board_sysinit.c                          0x00000000   Number         0  board_sysinit.o ABSOLUTE
    board_sysinit.c                          0x00000000   Number         0  board_sysinit.o ABSOLUTE
    chip_18xx_43xx.c                         0x00000000   Number         0  chip_18xx_43xx.o ABSOLUTE
    chip_18xx_43xx.c                         0x00000000   Number         0  chip_18xx_43xx.o ABSOLUTE
    clock_18xx_43xx.c                        0x00000000   Number         0  clock_18xx_43xx.o ABSOLUTE
    clock_18xx_43xx.c                        0x00000000   Number         0  clock_18xx_43xx.o ABSOLUTE
    dc.s                                     0x00000000   Number         0  dc.o ABSOLUTE
    emc_18xx_43xx.c                          0x00000000   Number         0  emc_18xx_43xx.o ABSOLUTE
    emc_18xx_43xx.c                          0x00000000   Number         0  emc_18xx_43xx.o ABSOLUTE
    evrt_18xx_43xx.c                         0x00000000   Number         0  evrt_18xx_43xx.o ABSOLUTE
    evrt_18xx_43xx.c                         0x00000000   Number         0  evrt_18xx_43xx.o ABSOLUTE
    gpio_18xx_43xx.c                         0x00000000   Number         0  gpio_18xx_43xx.o ABSOLUTE
    gpio_18xx_43xx.c                         0x00000000   Number         0  gpio_18xx_43xx.o ABSOLUTE
    i2c_18xx_43xx.c                          0x00000000   Number         0  i2c_18xx_43xx.o ABSOLUTE
    i2c_18xx_43xx.c                          0x00000000   Number         0  i2c_18xx_43xx.o ABSOLUTE
    i2s_18xx_43xx.c                          0x00000000   Number         0  i2s_18xx_43xx.o ABSOLUTE
    i2s_18xx_43xx.c                          0x00000000   Number         0  i2s_18xx_43xx.o ABSOLUTE
    pmc_18xx_43xx.c                          0x00000000   Number         0  pmc_18xx_43xx.o ABSOLUTE
    pmc_18xx_43xx.c                          0x00000000   Number         0  pmc_18xx_43xx.o ABSOLUTE
    rgu_18xx_43xx.c                          0x00000000   Number         0  rgu_18xx_43xx.o ABSOLUTE
    rgu_18xx_43xx.c                          0x00000000   Number         0  rgu_18xx_43xx.o ABSOLUTE
    rtc_18xx_43xx.c                          0x00000000   Number         0  rtc_18xx_43xx.o ABSOLUTE
    rtc_18xx_43xx.c                          0x00000000   Number         0  rtc_18xx_43xx.o ABSOLUTE
    ssp_18xx_43xx.c                          0x00000000   Number         0  ssp_18xx_43xx.o ABSOLUTE
    ssp_18xx_43xx.c                          0x00000000   Number         0  ssp_18xx_43xx.o ABSOLUTE
    sysinit_18xx_43xx.c                      0x00000000   Number         0  sysinit_18xx_43xx.o ABSOLUTE
    sysinit_18xx_43xx.c                      0x00000000   Number         0  sysinit_18xx_43xx.o ABSOLUTE
    uart_18xx_43xx.c                         0x00000000   Number         0  uart_18xx_43xx.o ABSOLUTE
    uart_18xx_43xx.c                         0x00000000   Number         0  uart_18xx_43xx.o ABSOLUTE
    .data                                    0x10000000   Section       88  raw-os.o(.data)
    .data                                    0x10000058   Section     1029  main.o(.data)
    menu                                     0x10000058   Data         742  main.o(.data)
    menu1                                    0x1000033e   Data         150  main.o(.data)
    menu2                                    0x100003d4   Data          31  main.o(.data)
    menu3                                    0x100003f3   Data          38  main.o(.data)
    InitClkStates                            0x10000419   Data          68  main.o(.data)
    .data                                    0x10000460   Section       20  board.o(.data)
    .data                                    0x10000474   Section        4  chip_18xx_43xx.o(.data)
    .data                                    0x10000478   Section        8  clock_18xx_43xx.o(.data)
    audio_usb_pll_freq                       0x10000478   Data           8  clock_18xx_43xx.o(.data)
    .bss                                     0x10000480   Section     4840  raw-os.o(.bss)
    .bss                                     0x10001768   Section     1868  main.o(.bss)
    fifo_buffer                              0x10001e34   Data         128  main.o(.bss)
    .bss                                     0x10001eb4   Section       96  libspace.o(.bss)
    HEAP                                     0x10001f18   Section      256  keil_startup_lpc18xx43xx.o(HEAP)
    Heap_Mem                                 0x10001f18   Data         256  keil_startup_lpc18xx43xx.o(HEAP)
    STACK                                    0x10002018   Section     1536  keil_startup_lpc18xx43xx.o(STACK)
    Stack_Mem                                0x10002018   Data        1536  keil_startup_lpc18xx43xx.o(STACK)
    __initial_sp                             0x10002618   Data           0  keil_startup_lpc18xx43xx.o(STACK)
    RESET                                    0x1a000000   Section      276  keil_startup_lpc18xx43xx.o(RESET)
    !!!main                                  0x1a000114   Section        8  __main.o(!!!main)
    !!!scatter                               0x1a00011c   Section       52  __scatter.o(!!!scatter)
    !!dclz77c                                0x1a000150   Section      100  __dclz77c.o(!!dclz77c)
    !!handler_zi                             0x1a0001b4   Section       28  __scatter_zi.o(!!handler_zi)
    .ARM.Collect$$_printf_percent$$00000000  0x1a0001d0   Section        0  _printf_percent.o(.ARM.Collect$$_printf_percent$$00000000)
    .ARM.Collect$$_printf_percent$$00000009  0x1a0001d0   Section        6  _printf_d.o(.ARM.Collect$$_printf_percent$$00000009)
    .ARM.Collect$$_printf_percent$$00000017  0x1a0001d6   Section        4  _printf_percent_end.o(.ARM.Collect$$_printf_percent$$00000017)
    .ARM.Collect$$libinit$$00000000          0x1a0001da   Section        2  libinit.o(.ARM.Collect$$libinit$$00000000)
    .ARM.Collect$$libinit$$00000001          0x1a0001dc   Section        4  libinit2.o(.ARM.Collect$$libinit$$00000001)
    .ARM.Collect$$libinit$$00000008          0x1a0001e0   Section        0  libinit2.o(.ARM.Collect$$libinit$$00000008)
    .ARM.Collect$$libinit$$0000000A          0x1a0001e0   Section        0  libinit2.o(.ARM.Collect$$libinit$$0000000A)
    .ARM.Collect$$libinit$$0000000C          0x1a0001e0   Section        0  libinit2.o(.ARM.Collect$$libinit$$0000000C)
    .ARM.Collect$$libinit$$0000000F          0x1a0001e0   Section        0  libinit2.o(.ARM.Collect$$libinit$$0000000F)
    .ARM.Collect$$libinit$$00000011          0x1a0001e0   Section        0  libinit2.o(.ARM.Collect$$libinit$$00000011)
    .ARM.Collect$$libinit$$00000013          0x1a0001e0   Section        0  libinit2.o(.ARM.Collect$$libinit$$00000013)
    .ARM.Collect$$libinit$$00000015          0x1a0001e0   Section        0  libinit2.o(.ARM.Collect$$libinit$$00000015)
    .ARM.Collect$$libinit$$00000017          0x1a0001e0   Section        0  libinit2.o(.ARM.Collect$$libinit$$00000017)
    .ARM.Collect$$libinit$$00000019          0x1a0001e0   Section        0  libinit2.o(.ARM.Collect$$libinit$$00000019)
    .ARM.Collect$$libinit$$0000001B          0x1a0001e0   Section        0  libinit2.o(.ARM.Collect$$libinit$$0000001B)
    .ARM.Collect$$libinit$$0000001D          0x1a0001e0   Section        0  libinit2.o(.ARM.Collect$$libinit$$0000001D)
    .ARM.Collect$$libinit$$0000001F          0x1a0001e0   Section        0  libinit2.o(.ARM.Collect$$libinit$$0000001F)
    .ARM.Collect$$libinit$$00000021          0x1a0001e0   Section        0  libinit2.o(.ARM.Collect$$libinit$$00000021)
    .ARM.Collect$$libinit$$00000023          0x1a0001e0   Section        0  libinit2.o(.ARM.Collect$$libinit$$00000023)
    .ARM.Collect$$libinit$$0000002A          0x1a0001e0   Section        0  libinit2.o(.ARM.Collect$$libinit$$0000002A)
    .ARM.Collect$$libinit$$0000002C          0x1a0001e0   Section        0  libinit2.o(.ARM.Collect$$libinit$$0000002C)
    .ARM.Collect$$libinit$$0000002E          0x1a0001e0   Section        0  libinit2.o(.ARM.Collect$$libinit$$0000002E)
    .ARM.Collect$$libinit$$00000030          0x1a0001e0   Section        0  libinit2.o(.ARM.Collect$$libinit$$00000030)
    .ARM.Collect$$libinit$$00000031          0x1a0001e0   Section        2  libinit2.o(.ARM.Collect$$libinit$$00000031)
    .ARM.Collect$$libshutdown$$00000000      0x1a0001e2   Section        2  libshutdown.o(.ARM.Collect$$libshutdown$$00000000)
    .ARM.Collect$$libshutdown$$00000003      0x1a0001e4   Section        0  libshutdown2.o(.ARM.Collect$$libshutdown$$00000003)
    .ARM.Collect$$libshutdown$$00000006      0x1a0001e4   Section        0  libshutdown2.o(.ARM.Collect$$libshutdown$$00000006)
    .ARM.Collect$$libshutdown$$00000009      0x1a0001e4   Section        0  libshutdown2.o(.ARM.Collect$$libshutdown$$00000009)
    .ARM.Collect$$libshutdown$$0000000B      0x1a0001e4   Section        0  libshutdown2.o(.ARM.Collect$$libshutdown$$0000000B)
    .ARM.Collect$$libshutdown$$0000000E      0x1a0001e4   Section        0  libshutdown2.o(.ARM.Collect$$libshutdown$$0000000E)
    .ARM.Collect$$libshutdown$$0000000F      0x1a0001e4   Section        2  libshutdown2.o(.ARM.Collect$$libshutdown$$0000000F)
    .ARM.Collect$$rtentry$$00000000          0x1a0001e6   Section        0  rtentry.o(.ARM.Collect$$rtentry$$00000000)
    .ARM.Collect$$rtentry$$00000002          0x1a0001e6   Section        0  rtentry2.o(.ARM.Collect$$rtentry$$00000002)
    .ARM.Collect$$rtentry$$00000004          0x1a0001e6   Section        6  rtentry4.o(.ARM.Collect$$rtentry$$00000004)
    .ARM.Collect$$rtentry$$00000009          0x1a0001ec   Section        0  rtentry2.o(.ARM.Collect$$rtentry$$00000009)
    .ARM.Collect$$rtentry$$0000000A          0x1a0001ec   Section        4  rtentry2.o(.ARM.Collect$$rtentry$$0000000A)
    .ARM.Collect$$rtentry$$0000000C          0x1a0001f0   Section        0  rtentry2.o(.ARM.Collect$$rtentry$$0000000C)
    .ARM.Collect$$rtentry$$0000000D          0x1a0001f0   Section        8  rtentry2.o(.ARM.Collect$$rtentry$$0000000D)
    .ARM.Collect$$rtexit$$00000000           0x1a0001f8   Section        2  rtexit.o(.ARM.Collect$$rtexit$$00000000)
    .ARM.Collect$$rtexit$$00000002           0x1a0001fa   Section        0  rtexit2.o(.ARM.Collect$$rtexit$$00000002)
    .ARM.Collect$$rtexit$$00000003           0x1a0001fa   Section        4  rtexit2.o(.ARM.Collect$$rtexit$$00000003)
    .ARM.Collect$$rtexit$$00000004           0x1a0001fe   Section        6  rtexit2.o(.ARM.Collect$$rtexit$$00000004)
    .text                                    0x1a000204   Section        0  raw-os.o(.text)
    release_mutex                            0x1a000505   Thumb Code    88  raw-os.o(.text)
    tick_task_process                        0x1a00083d   Thumb Code    28  raw-os.o(.text)
    pend_task_wake_up                        0x1a000a41   Thumb Code    92  raw-os.o(.text)
    int_msg_handler                          0x1a000e73   Thumb Code   138  raw-os.o(.text)
    task_0_post                              0x1a000efd   Thumb Code   120  raw-os.o(.text)
    task_0_tick_handler                      0x1a00109b   Thumb Code    28  raw-os.o(.text)
    task_0_process                           0x1a0010b7   Thumb Code   124  raw-os.o(.text)
    internal_raw_mq_send                     0x1a001fa9   Thumb Code   214  raw-os.o(.text)
    is_list_empty                            0x1a002bef   Thumb Code    14  raw-os.o(.text)
    list_insert                              0x1a002bfd   Thumb Code    14  raw-os.o(.text)
    list_delete                              0x1a002c0b   Thumb Code    12  raw-os.o(.text)
    add_to_priority_list                     0x1a002c17   Thumb Code    28  raw-os.o(.text)
    bit_set                                  0x1a002c33   Thumb Code    20  raw-os.o(.text)
    timer_list_remove                        0x1a002c47   Thumb Code    22  raw-os.o(.text)
    timer_list_priority_insert               0x1a002c5d   Thumb Code    32  raw-os.o(.text)
    raw_byte_pool_search                     0x1a002c7d   Thumb Code   190  raw-os.o(.text)
    .text                                    0x1a002d4c   Section        0  fifo.o(.text)
    internal_fifo_out_peek                   0x1a002deb   Thumb Code    62  fifo.o(.text)
    .text                                    0x1a002ec0   Section      164  cpu.o(.text)
    $v0                                      0x1a002ec0   Number         0  cpu.o(.text)
    .text                                    0x1a002f64   Section        0  port.o(.text)
    .text                                    0x1a0030a8   Section        0  port_hook.o(.text)
    .text                                    0x1a0030b8   Section        0  user_extension.o(.text)
    .text                                    0x1a003140   Section       68  keil_startup_lpc18xx43xx.o(.text)
    $v0                                      0x1a003140   Number         0  keil_startup_lpc18xx43xx.o(.text)
    .text                                    0x1a003184   Section        0  sysinit.o(.text)
    .text                                    0x1a0031a0   Section        0  lpc43xx_scu.o(.text)
    .text                                    0x1a0031b4   Section        0  lpc43xx_sdram.o(.text)
    .text                                    0x1a0035dc   Section        0  main.o(.text)
    PMC_Get_Wakeup_option                    0x1a0035dd   Thumb Code    68  main.o(.text)
    PMC_Pre_SleepPowerDown                   0x1a003621   Thumb Code   116  main.o(.text)
    PMC_Post_Wakeup                          0x1a003695   Thumb Code   162  main.o(.text)
    PMC_PwrState_Handler                     0x1a003737   Thumb Code   348  main.o(.text)
    NVIC_DisableIRQ                          0x1a003bb3   Thumb Code    22  main.o(.text)
    Chip_CREG_SetFlashAcceleration           0x1a003bc9   Thumb Code    42  main.o(.text)
    .text                                    0x1a003ca8   Section        0  noretval__2printf.o(.text)
    .text                                    0x1a003cc0   Section        0  __printf.o(.text)
    .text                                    0x1a003d28   Section        0  _printf_dec.o(.text)
    .text                                    0x1a003d9c   Section        0  heapauxi.o(.text)
    .text                                    0x1a003da2   Section        0  _printf_intcommon.o(.text)
    .text                                    0x1a003e54   Section        0  _printf_char_file.o(.text)
    .text                                    0x1a003e78   Section        0  _printf_char_common.o(.text)
    _printf_input_char                       0x1a003e79   Thumb Code    10  _printf_char_common.o(.text)
    .text                                    0x1a003ea8   Section       74  sys_stackheap_outer.o(.text)
    .text                                    0x1a003ef2   Section        0  exit.o(.text)
    .text                                    0x1a003f00   Section        8  libspace.o(.text)
    i.Board_Debug_Init                       0x1a003f08   Section        0  board.o(i.Board_Debug_Init)
    i.Board_SetupClocking                    0x1a003f38   Section        0  board_sysinit.o(i.Board_SetupClocking)
    i.Board_SetupExtMemory                   0x1a003fec   Section        0  board_sysinit.o(i.Board_SetupExtMemory)
    i.Board_SetupMuxing                      0x1a004058   Section        0  board_sysinit.o(i.Board_SetupMuxing)
    i.Board_SystemInit                       0x1a0040a4   Section        0  board_sysinit.o(i.Board_SystemInit)
    i.Board_UARTGetChar                      0x1a0040b4   Section        0  board.o(i.Board_UARTGetChar)
    i.Board_UARTPutChar                      0x1a0040d4   Section        0  board.o(i.Board_UARTPutChar)
    i.Board_UARTPutSTR                       0x1a0040f4   Section        0  board.o(i.Board_UARTPutSTR)
    i.Board_UART_Init                        0x1a00410c   Section        0  board.o(i.Board_UART_Init)
    i.Chip_Clock_DisableCrystal              0x1a004150   Section        0  clock_18xx_43xx.o(i.Chip_Clock_DisableCrystal)
    i.Chip_Clock_DisableMainPLL              0x1a004164   Section        0  clock_18xx_43xx.o(i.Chip_Clock_DisableMainPLL)
    i.Chip_Clock_DisablePLL                  0x1a004178   Section        0  clock_18xx_43xx.o(i.Chip_Clock_DisablePLL)
    i.Chip_Clock_Enable                      0x1a004194   Section        0  clock_18xx_43xx.o(i.Chip_Clock_Enable)
    i.Chip_Clock_EnableCrystal               0x1a0041cc   Section        0  clock_18xx_43xx.o(i.Chip_Clock_EnableCrystal)
    i.Chip_Clock_EnableOpts                  0x1a004218   Section        0  clock_18xx_43xx.o(i.Chip_Clock_EnableOpts)
    i.Chip_Clock_FindBaseClock               0x1a004254   Section        0  clock_18xx_43xx.o(i.Chip_Clock_FindBaseClock)
    Chip_Clock_FindBaseClock                 0x1a004255   Thumb Code    74  clock_18xx_43xx.o(i.Chip_Clock_FindBaseClock)
    i.Chip_Clock_GetBaseClock                0x1a0042a4   Section        0  clock_18xx_43xx.o(i.Chip_Clock_GetBaseClock)
    i.Chip_Clock_GetBaseClockOpts            0x1a0042c8   Section        0  clock_18xx_43xx.o(i.Chip_Clock_GetBaseClockOpts)
    i.Chip_Clock_GetBaseClocktHz             0x1a0042fc   Section        0  clock_18xx_43xx.o(i.Chip_Clock_GetBaseClocktHz)
    i.Chip_Clock_GetClockInputHz             0x1a004310   Section        0  clock_18xx_43xx.o(i.Chip_Clock_GetClockInputHz)
    i.Chip_Clock_GetDivRate                  0x1a0043e4   Section        0  clock_18xx_43xx.o(i.Chip_Clock_GetDivRate)
    Chip_Clock_GetDivRate                    0x1a0043e5   Thumb Code    40  clock_18xx_43xx.o(i.Chip_Clock_GetDivRate)
    i.Chip_Clock_GetDividerDivisor           0x1a00440c   Section        0  clock_18xx_43xx.o(i.Chip_Clock_GetDividerDivisor)
    i.Chip_Clock_GetDividerSource            0x1a00442c   Section        0  clock_18xx_43xx.o(i.Chip_Clock_GetDividerSource)
    i.Chip_Clock_GetEMCRate                  0x1a00444c   Section        0  clock_18xx_43xx.o(i.Chip_Clock_GetEMCRate)
    i.Chip_Clock_GetMainPLLHz                0x1a00447c   Section        0  clock_18xx_43xx.o(i.Chip_Clock_GetMainPLLHz)
    i.Chip_Clock_GetRate                     0x1a0044f4   Section        0  clock_18xx_43xx.o(i.Chip_Clock_GetRate)
    i.Chip_Clock_RTCEnable                   0x1a00454c   Section        0  clock_18xx_43xx.o(i.Chip_Clock_RTCEnable)
    i.Chip_Clock_SetBaseClock                0x1a004568   Section        0  clock_18xx_43xx.o(i.Chip_Clock_SetBaseClock)
    i.Chip_Clock_SetDivider                  0x1a0045b0   Section        0  clock_18xx_43xx.o(i.Chip_Clock_SetDivider)
    i.Chip_Clock_SetupMainPLLHz              0x1a004600   Section        0  clock_18xx_43xx.o(i.Chip_Clock_SetupMainPLLHz)
    i.Chip_Clock_SetupMainPLLMult            0x1a0046c0   Section        0  clock_18xx_43xx.o(i.Chip_Clock_SetupMainPLLMult)
    i.Chip_Clock_StartPowerDown              0x1a004770   Section        0  clock_18xx_43xx.o(i.Chip_Clock_StartPowerDown)
    i.Chip_Clock_TestMainPLLMultiplier       0x1a004784   Section        0  clock_18xx_43xx.o(i.Chip_Clock_TestMainPLLMultiplier)
    Chip_Clock_TestMainPLLMultiplier         0x1a004785   Thumb Code    26  clock_18xx_43xx.o(i.Chip_Clock_TestMainPLLMultiplier)
    i.Chip_EMC_Dynamic_Init                  0x1a0047a4   Section        0  emc_18xx_43xx.o(i.Chip_EMC_Dynamic_Init)
    i.Chip_EMC_Init                          0x1a0047c0   Section        0  emc_18xx_43xx.o(i.Chip_EMC_Init)
    i.Chip_EMC_Static_Init                   0x1a0047ec   Section        0  emc_18xx_43xx.o(i.Chip_EMC_Static_Init)
    i.Chip_EVRT_ConfigIntSrcActiveType       0x1a004808   Section        0  evrt_18xx_43xx.o(i.Chip_EVRT_ConfigIntSrcActiveType)
    i.Chip_EVRT_Init                         0x1a004898   Section        0  evrt_18xx_43xx.o(i.Chip_EVRT_Init)
    i.Chip_EVRT_IsSourceInterrupting         0x1a0048d4   Section        0  evrt_18xx_43xx.o(i.Chip_EVRT_IsSourceInterrupting)
    i.Chip_EVRT_SetUpIntSrc                  0x1a0048f0   Section        0  evrt_18xx_43xx.o(i.Chip_EVRT_SetUpIntSrc)
    i.Chip_PMC_Set_PwrState                  0x1a004910   Section        0  pmc_18xx_43xx.o(i.Chip_PMC_Set_PwrState)
    i.Chip_PMC_Sleep                         0x1a004928   Section        0  pmc_18xx_43xx.o(i.Chip_PMC_Sleep)
    i.Chip_RTC_AlarmIntConfig                0x1a00492c   Section        0  rtc_18xx_43xx.o(i.Chip_RTC_AlarmIntConfig)
    i.Chip_RTC_CalibCounterCmd               0x1a004950   Section        0  rtc_18xx_43xx.o(i.Chip_RTC_CalibCounterCmd)
    i.Chip_RTC_CntIncrIntConfig              0x1a004974   Section        0  rtc_18xx_43xx.o(i.Chip_RTC_CntIncrIntConfig)
    i.Chip_RTC_DeInit                        0x1a004998   Section        0  rtc_18xx_43xx.o(i.Chip_RTC_DeInit)
    i.Chip_RTC_Enable                        0x1a00499e   Section        0  rtc_18xx_43xx.o(i.Chip_RTC_Enable)
    i.Chip_RTC_Init                          0x1a0049c2   Section        0  rtc_18xx_43xx.o(i.Chip_RTC_Init)
    i.Chip_RTC_ResetClockTickCounter         0x1a0049f8   Section        0  rtc_18xx_43xx.o(i.Chip_RTC_ResetClockTickCounter)
    i.Chip_SCU_PinMuxSet                     0x1a004a24   Section        0  board.o(i.Chip_SCU_PinMuxSet)
    Chip_SCU_PinMuxSet                       0x1a004a25   Thumb Code    12  board.o(i.Chip_SCU_PinMuxSet)
    i.Chip_SCU_SetPinMuxing                  0x1a004a34   Section        0  board_sysinit.o(i.Chip_SCU_SetPinMuxing)
    Chip_SCU_SetPinMuxing                    0x1a004a35   Thumb Code    44  board_sysinit.o(i.Chip_SCU_SetPinMuxing)
    i.Chip_SetupCoreClock                    0x1a004a64   Section        0  sysinit_18xx_43xx.o(i.Chip_SetupCoreClock)
    i.Chip_UART_DisableDivisorAccess         0x1a004b00   Section        0  uart_18xx_43xx.o(i.Chip_UART_DisableDivisorAccess)
    Chip_UART_DisableDivisorAccess           0x1a004b01   Thumb Code    10  uart_18xx_43xx.o(i.Chip_UART_DisableDivisorAccess)
    i.Chip_UART_EnableDivisorAccess          0x1a004b0a   Section        0  uart_18xx_43xx.o(i.Chip_UART_EnableDivisorAccess)
    Chip_UART_EnableDivisorAccess            0x1a004b0b   Thumb Code    10  uart_18xx_43xx.o(i.Chip_UART_EnableDivisorAccess)
    i.Chip_UART_GetClockIndex                0x1a004b14   Section        0  uart_18xx_43xx.o(i.Chip_UART_GetClockIndex)
    Chip_UART_GetClockIndex                  0x1a004b15   Thumb Code    36  uart_18xx_43xx.o(i.Chip_UART_GetClockIndex)
    i.Chip_UART_Init                         0x1a004b44   Section        0  uart_18xx_43xx.o(i.Chip_UART_Init)
    i.Chip_UART_SetBaud                      0x1a004b90   Section        0  uart_18xx_43xx.o(i.Chip_UART_SetBaud)
    i.Chip_UART_SetDivisorLatches            0x1a004bd2   Section        0  uart_18xx_43xx.o(i.Chip_UART_SetDivisorLatches)
    Chip_UART_SetDivisorLatches              0x1a004bd3   Thumb Code     6  uart_18xx_43xx.o(i.Chip_UART_SetDivisorLatches)
    i.SystemCoreClockUpdate                  0x1a004bd8   Section        0  chip_18xx_43xx.o(i.SystemCoreClockUpdate)
    i._sys_exit                              0x1a004bec   Section        0  board.o(i._sys_exit)
    i.convertTimmingParam                    0x1a004bf4   Section        0  emc_18xx_43xx.o(i.convertTimmingParam)
    convertTimmingParam                      0x1a004bf5   Thumb Code    50  emc_18xx_43xx.o(i.convertTimmingParam)
    i.ferror                                 0x1a004c2c   Section        0  board.o(i.ferror)
    i.fpuInit                                0x1a004c34   Section        0  fpu_init.o(i.fpuInit)
    i.fputc                                  0x1a004c84   Section        0  board.o(i.fputc)
    i.getColsLen                             0x1a004c98   Section        0  emc_18xx_43xx.o(i.getColsLen)
    getColsLen                               0x1a004c99   Thumb Code    40  emc_18xx_43xx.o(i.getColsLen)
    i.initDynMem                             0x1a004cc0   Section        0  emc_18xx_43xx.o(i.initDynMem)
    i.initStaticMem                          0x1a004ea8   Section        0  emc_18xx_43xx.o(i.initStaticMem)
    x$fpl$fpinit                             0x1a004f10   Section       10  fpinit.o(x$fpl$fpinit)
    $v0                                      0x1a004f10   Number         0  fpinit.o(x$fpl$fpinit)
    .constdata                               0x1a004f1c   Section       64  board.o(.constdata)
    ledports                                 0x1a004f1c   Data           8  board.o(.constdata)
    ledbits                                  0x1a004f24   Data           8  board.o(.constdata)
    .constdata                               0x1a004f5c   Section      700  board_sysinit.o(.constdata)
    InitClkStates                            0x1a004f5c   Data          16  board_sysinit.o(.constdata)
    spifipinmuxing                           0x1a004f6c   Data          24  board_sysinit.o(.constdata)
    pinmuxing                                0x1a004f84   Data         496  board_sysinit.o(.constdata)
    pinclockmuxing                           0x1a005174   Data          16  board_sysinit.o(.constdata)
    MT48LC4M32_config                        0x1a005184   Data         116  board_sysinit.o(.constdata)
    S29GL64N90_config                        0x1a0051f8   Data          32  board_sysinit.o(.constdata)
    .constdata                               0x1a005218   Section      108  clock_18xx_43xx.o(.constdata)
    periph_to_base                           0x1a005218   Data         108  clock_18xx_43xx.o(.constdata)
    .constdata                               0x1a005284   Section       72  sysinit_18xx_43xx.o(.constdata)
    InitClkStates                            0x1a005284   Data          72  sysinit_18xx_43xx.o(.constdata)
    .conststring                             0x1a0052cc   Section      605  main.o(.conststring)

    Global Symbols

    Symbol Name                              Value     Ov Type        Size  Object(Section)

    BuildAttributes$$THM_ISAv4$E$P$D$K$B$S$7EM$VFPi3$EXTD16$VFPS$VFMA$PE$A:L22UL41UL21$X:L11$S22US41US21$IEEE1$IW$USESV6$~STKCKD$USESV7$~SHL$OSPACE$ROPI$EBA8$UX$STANDARDLIB$REQ8$PRES8$EABIv2 0x00000000   Number         0  anon$$obj.o ABSOLUTE
    __ARM_use_no_argv                        0x00000000   Number         0  main.o ABSOLUTE
    __ARM_exceptions_init                     - Undefined Weak Reference
    __alloca_initialize                       - Undefined Weak Reference
    __cpp_initialize__aeabi_                  - Undefined Weak Reference
    __cxa_finalize                            - Undefined Weak Reference
    __rt_locale                               - Undefined Weak Reference
    __sigvec_lookup                           - Undefined Weak Reference
    _atexit_init                              - Undefined Weak Reference
    _call_atexit_fns                          - Undefined Weak Reference
    _clock_init                               - Undefined Weak Reference
    _fp_trap_init                             - Undefined Weak Reference
    _fp_trap_shutdown                         - Undefined Weak Reference
    _get_lc_collate                           - Undefined Weak Reference
    _get_lc_ctype                             - Undefined Weak Reference
    _get_lc_monetary                          - Undefined Weak Reference
    _get_lc_numeric                           - Undefined Weak Reference
    _get_lc_time                              - Undefined Weak Reference
    _getenv_init                              - Undefined Weak Reference
    _handle_redirection                       - Undefined Weak Reference
    _init_alloc                               - Undefined Weak Reference
    _init_user_alloc                          - Undefined Weak Reference
    _initio                                   - Undefined Weak Reference
    _printf_post_padding                      - Undefined Weak Reference
    _printf_pre_padding                       - Undefined Weak Reference
    _printf_truncate_signed                   - Undefined Weak Reference
    _printf_truncate_unsigned                 - Undefined Weak Reference
    _rand_init                                - Undefined Weak Reference
    _signal_finish                            - Undefined Weak Reference
    _signal_init                              - Undefined Weak Reference
    _terminate_alloc                          - Undefined Weak Reference
    _terminate_user_alloc                     - Undefined Weak Reference
    _terminateio                              - Undefined Weak Reference
    raw_os_active                            0x10000000   Data           1  raw-os.o(.data)
    idle_task_exit                           0x10000001   Data           1  raw-os.o(.data)
    raw_sched_lock                           0x10000002   Data           1  raw-os.o(.data)
    raw_int_nesting                          0x10000003   Data           1  raw-os.o(.data)
    mutex_recursion_levels                   0x10000004   Data           1  raw-os.o(.data)
    mutex_recursion_max_levels               0x10000005   Data           1  raw-os.o(.data)
    task_0_exit                              0x10000006   Data           1  raw-os.o(.data)
    task_0_event_head                        0x10000008   Data           2  raw-os.o(.data)
    task_0_event_end                         0x1000000a   Data           2  raw-os.o(.data)
    task_0_events                            0x1000000c   Data           2  raw-os.o(.data)
    peak_events                              0x1000000e   Data           2  raw-os.o(.data)
    high_ready_obj                           0x10000010   Data           4  raw-os.o(.data)
    raw_task_active                          0x10000014   Data           4  raw-os.o(.data)
    raw_tick_count                           0x10000018   Data           4  raw-os.o(.data)
    raw_timer_count                          0x1000001c   Data           4  raw-os.o(.data)
    raw_timer_ctrl                           0x10000020   Data           4  raw-os.o(.data)
    task_0_event_handler                     0x10000024   Data           4  raw-os.o(.data)
    free_object_int_msg                      0x10000028   Data           4  raw-os.o(.data)
    int_msg_full                             0x1000002c   Data           4  raw-os.o(.data)
    msg_event_handler                        0x10000030   Data           4  raw-os.o(.data)
    raw_idle_count                           0x10000038   Data           8  raw-os.o(.data)
    tick_head                                0x10000040   Data           8  raw-os.o(.data)
    timer_head                               0x10000048   Data           8  raw-os.o(.data)
    raw_task_debug                           0x10000050   Data           8  raw-os.o(.data)
    __stdout                                 0x10000460   Data           4  board.o(.data)
    __stdin                                  0x10000464   Data           4  board.o(.data)
    __stderr                                 0x10000468   Data           4  board.o(.data)
    g_isPenDn                                0x1000046c   Data           4  board.o(.data)
    g_isNewPenDn                             0x10000470   Data           4  board.o(.data)
    SystemCoreClock                          0x10000474   Data           4  chip_18xx_43xx.o(.data)
    raw_ready_queue                          0x10000480   Data         508  raw-os.o(.bss)
    raw_idle_obj                             0x1000067c   Data          92  raw-os.o(.bss)
    idle_stack                               0x100006d8   Data         400  raw-os.o(.bss)
    raw_timer_obj                            0x10000868   Data          92  raw-os.o(.bss)
    timer_task_stack                         0x100008c4   Data         800  raw-os.o(.bss)
    timer_sem                                0x10000be4   Data          24  raw-os.o(.bss)
    timer_mutex                              0x10000bfc   Data          28  raw-os.o(.bss)
    task_0_events_queue                      0x10000c18   Data         384  raw-os.o(.bss)
    raw_task_0_obj                           0x10000d98   Data          92  raw-os.o(.bss)
    task_0_stack                             0x10000df4   Data        1024  raw-os.o(.bss)
    object_int_msg                           0x100011f4   Data         480  raw-os.o(.bss)
    tick_task_obj                            0x100013d4   Data          92  raw-os.o(.bss)
    tick_task_stack                          0x10001430   Data         800  raw-os.o(.bss)
    tick_semaphore_obj                       0x10001750   Data          24  raw-os.o(.bss)
    shell_task_stack                         0x10001768   Data        1600  main.o(.bss)
    shell_task_obj                           0x10001da8   Data          92  main.o(.bss)
    uart_sema                                0x10001e04   Data          24  main.o(.bss)
    uart_fifo                                0x10001e1c   Data          24  main.o(.bss)
    __libspace_start                         0x10001eb4   Data          96  libspace.o(.bss)
    __temporary_stack_top$libspace           0x10001f14   Data           0  libspace.o(.bss)
    __Vectors                                0x1a000000   Data           4  keil_startup_lpc18xx43xx.o(RESET)
    __main                                   0x1a000115   Thumb Code     8  __main.o(!!!main)
    __scatterload                            0x1a00011d   Thumb Code     0  __scatter.o(!!!scatter)
    __scatterload_rt2                        0x1a00011d   Thumb Code    44  __scatter.o(!!!scatter)
    __scatterload_rt2_thumb_only             0x1a00011d   Thumb Code     0  __scatter.o(!!!scatter)
    __scatterload_null                       0x1a00012b   Thumb Code     0  __scatter.o(!!!scatter)
    __decompress                             0x1a000151   Thumb Code   100  __dclz77c.o(!!dclz77c)
    __decompress2                            0x1a000151   Thumb Code     0  __dclz77c.o(!!dclz77c)
    __scatterload_zeroinit                   0x1a0001b5   Thumb Code    28  __scatter_zi.o(!!handler_zi)
    _printf_d                                0x1a0001d1   Thumb Code     0  _printf_d.o(.ARM.Collect$$_printf_percent$$00000009)
    _printf_percent                          0x1a0001d1   Thumb Code     0  _printf_percent.o(.ARM.Collect$$_printf_percent$$00000000)
    _printf_percent_end                      0x1a0001d7   Thumb Code     0  _printf_percent_end.o(.ARM.Collect$$_printf_percent$$00000017)
    __rt_lib_init                            0x1a0001db   Thumb Code     0  libinit.o(.ARM.Collect$$libinit$$00000000)
    __rt_lib_init_fp_1                       0x1a0001dd   Thumb Code     0  libinit2.o(.ARM.Collect$$libinit$$00000001)
    __rt_lib_init_alloca_1                   0x1a0001e1   Thumb Code     0  libinit2.o(.ARM.Collect$$libinit$$0000002C)
    __rt_lib_init_argv_1                     0x1a0001e1   Thumb Code     0  libinit2.o(.ARM.Collect$$libinit$$0000002A)
    __rt_lib_init_atexit_1                   0x1a0001e1   Thumb Code     0  libinit2.o(.ARM.Collect$$libinit$$00000019)
    __rt_lib_init_clock_1                    0x1a0001e1   Thumb Code     0  libinit2.o(.ARM.Collect$$libinit$$0000001F)
    __rt_lib_init_cpp_1                      0x1a0001e1   Thumb Code     0  libinit2.o(.ARM.Collect$$libinit$$00000030)
    __rt_lib_init_exceptions_1               0x1a0001e1   Thumb Code     0  libinit2.o(.ARM.Collect$$libinit$$0000002E)
    __rt_lib_init_fp_trap_1                  0x1a0001e1   Thumb Code     0  libinit2.o(.ARM.Collect$$libinit$$0000001D)
    __rt_lib_init_getenv_1                   0x1a0001e1   Thumb Code     0  libinit2.o(.ARM.Collect$$libinit$$00000021)
    __rt_lib_init_heap_1                     0x1a0001e1   Thumb Code     0  libinit2.o(.ARM.Collect$$libinit$$00000008)
    __rt_lib_init_lc_collate_1               0x1a0001e1   Thumb Code     0  libinit2.o(.ARM.Collect$$libinit$$0000000F)
    __rt_lib_init_lc_ctype_1                 0x1a0001e1   Thumb Code     0  libinit2.o(.ARM.Collect$$libinit$$00000011)
    __rt_lib_init_lc_monetary_1              0x1a0001e1   Thumb Code     0  libinit2.o(.ARM.Collect$$libinit$$00000013)
    __rt_lib_init_lc_numeric_1               0x1a0001e1   Thumb Code     0  libinit2.o(.ARM.Collect$$libinit$$00000015)
    __rt_lib_init_lc_time_1                  0x1a0001e1   Thumb Code     0  libinit2.o(.ARM.Collect$$libinit$$00000017)
    __rt_lib_init_rand_1                     0x1a0001e1   Thumb Code     0  libinit2.o(.ARM.Collect$$libinit$$0000000C)
    __rt_lib_init_return                     0x1a0001e1   Thumb Code     0  libinit2.o(.ARM.Collect$$libinit$$00000031)
    __rt_lib_init_signal_1                   0x1a0001e1   Thumb Code     0  libinit2.o(.ARM.Collect$$libinit$$0000001B)
    __rt_lib_init_stdio_1                    0x1a0001e1   Thumb Code     0  libinit2.o(.ARM.Collect$$libinit$$00000023)
    __rt_lib_init_user_alloc_1               0x1a0001e1   Thumb Code     0  libinit2.o(.ARM.Collect$$libinit$$0000000A)
    __rt_lib_shutdown                        0x1a0001e3   Thumb Code     0  libshutdown.o(.ARM.Collect$$libshutdown$$00000000)
    __rt_lib_shutdown_fp_trap_1              0x1a0001e5   Thumb Code     0  libshutdown2.o(.ARM.Collect$$libshutdown$$00000006)
    __rt_lib_shutdown_heap_1                 0x1a0001e5   Thumb Code     0  libshutdown2.o(.ARM.Collect$$libshutdown$$0000000E)
    __rt_lib_shutdown_return                 0x1a0001e5   Thumb Code     0  libshutdown2.o(.ARM.Collect$$libshutdown$$0000000F)
    __rt_lib_shutdown_signal_1               0x1a0001e5   Thumb Code     0  libshutdown2.o(.ARM.Collect$$libshutdown$$00000009)
    __rt_lib_shutdown_stdio_1                0x1a0001e5   Thumb Code     0  libshutdown2.o(.ARM.Collect$$libshutdown$$00000003)
    __rt_lib_shutdown_user_alloc_1           0x1a0001e5   Thumb Code     0  libshutdown2.o(.ARM.Collect$$libshutdown$$0000000B)
    __rt_entry                               0x1a0001e7   Thumb Code     0  rtentry.o(.ARM.Collect$$rtentry$$00000000)
    __rt_entry_presh_1                       0x1a0001e7   Thumb Code     0  rtentry2.o(.ARM.Collect$$rtentry$$00000002)
    __rt_entry_sh                            0x1a0001e7   Thumb Code     0  rtentry4.o(.ARM.Collect$$rtentry$$00000004)
    __rt_entry_li                            0x1a0001ed   Thumb Code     0  rtentry2.o(.ARM.Collect$$rtentry$$0000000A)
    __rt_entry_postsh_1                      0x1a0001ed   Thumb Code     0  rtentry2.o(.ARM.Collect$$rtentry$$00000009)
    __rt_entry_main                          0x1a0001f1   Thumb Code     0  rtentry2.o(.ARM.Collect$$rtentry$$0000000D)
    __rt_entry_postli_1                      0x1a0001f1   Thumb Code     0  rtentry2.o(.ARM.Collect$$rtentry$$0000000C)
    __rt_exit                                0x1a0001f9   Thumb Code     0  rtexit.o(.ARM.Collect$$rtexit$$00000000)
    __rt_exit_ls                             0x1a0001fb   Thumb Code     0  rtexit2.o(.ARM.Collect$$rtexit$$00000003)
    __rt_exit_prels_1                        0x1a0001fb   Thumb Code     0  rtexit2.o(.ARM.Collect$$rtexit$$00000002)
    __rt_exit_exit                           0x1a0001ff   Thumb Code     0  rtexit2.o(.ARM.Collect$$rtexit$$00000004)
    get_ready_task                           0x1a000205   Thumb Code    24  raw-os.o(.text)
    raw_sched                                0x1a00021d   Thumb Code    48  raw-os.o(.text)
    raw_semaphore_create                     0x1a00024d   Thumb Code    36  raw-os.o(.text)
    raw_task_semaphore_create                0x1a000271   Thumb Code    16  raw-os.o(.text)
    hybrid_int_process                       0x1a000281   Thumb Code   134  raw-os.o(.text)
    tick_list_remove                         0x1a000307   Thumb Code    24  raw-os.o(.text)
    mtx_chg_pri                              0x1a00031f   Thumb Code    76  raw-os.o(.text)
    change_pend_list_priority                0x1a00036b   Thumb Code    32  raw-os.o(.text)
    add_ready_list_end                       0x1a00038b   Thumb Code    38  raw-os.o(.text)
    add_ready_list_head                      0x1a0003b1   Thumb Code    38  raw-os.o(.text)
    bit_search_first_one                     0x1a0003d7   Thumb Code   116  raw-os.o(.text)
    remove_ready_list                        0x1a00044b   Thumb Code    96  raw-os.o(.text)
    change_internal_task_priority            0x1a0004ab   Thumb Code    90  raw-os.o(.text)
    mutex_state_change                       0x1a00055d   Thumb Code    32  raw-os.o(.text)
    add_ready_list                           0x1a00057d   Thumb Code    16  raw-os.o(.text)
    tick_list_update                         0x1a00058d   Thumb Code   254  raw-os.o(.text)
    block_state_post_process                 0x1a00068b   Thumb Code    66  raw-os.o(.text)
    tick_list_insert                         0x1a0006cd   Thumb Code    56  raw-os.o(.text)
    raw_pend_object                          0x1a000705   Thumb Code    88  raw-os.o(.text)
    raw_semaphore_get                        0x1a00075d   Thumb Code   214  raw-os.o(.text)
    raw_task_semaphore_get                   0x1a000833   Thumb Code    10  raw-os.o(.text)
    raw_task_create                          0x1a000859   Thumb Code   434  raw-os.o(.text)
    tick_task_start                          0x1a000a0b   Thumb Code    54  raw-os.o(.text)
    wake_send_msg                            0x1a000a9d   Thumb Code     4  raw-os.o(.text)
    msg_post                                 0x1a000aa1   Thumb Code   278  raw-os.o(.text)
    raw_wake_object                          0x1a000bb7   Thumb Code     2  raw-os.o(.text)
    semaphore_put                            0x1a000bb9   Thumb Code   208  raw-os.o(.text)
    task_resume                              0x1a000c89   Thumb Code   210  raw-os.o(.text)
    task_suspend                             0x1a000d5b   Thumb Code   280  raw-os.o(.text)
    raw_task_0_post                          0x1a000f75   Thumb Code     4  raw-os.o(.text)
    int_msg_post                             0x1a000f79   Thumb Code    80  raw-os.o(.text)
    raw_semaphore_put                        0x1a000fc9   Thumb Code    46  raw-os.o(.text)
    call_timer_task                          0x1a000ff7   Thumb Code    22  raw-os.o(.text)
    move_to_ready_list_end                   0x1a00100d   Thumb Code    30  raw-os.o(.text)
    calculate_time_slice                     0x1a00102b   Thumb Code   108  raw-os.o(.text)
    raw_task_semaphore_put                   0x1a001097   Thumb Code     4  raw-os.o(.text)
    raw_task_0_init                          0x1a001133   Thumb Code    92  raw-os.o(.text)
    raw_mutex_create                         0x1a00118f   Thumb Code    60  raw-os.o(.text)
    raw_mutex_put                            0x1a0011cb   Thumb Code   324  raw-os.o(.text)
    raw_mutex_get                            0x1a00130f   Thumb Code   350  raw-os.o(.text)
    raw_semaphore_set                        0x1a00146d   Thumb Code   146  raw-os.o(.text)
    timer_task                               0x1a0014ff   Thumb Code   166  raw-os.o(.text)
    raw_timer_init                           0x1a0015a5   Thumb Code    66  raw-os.o(.text)
    raw_idle_task                            0x1a0015e7   Thumb Code    30  raw-os.o(.text)
    tick_list_init                           0x1a001605   Thumb Code    10  raw-os.o(.text)
    run_queue_init                           0x1a00160f   Thumb Code    26  raw-os.o(.text)
    raw_os_init                              0x1a001629   Thumb Code   102  raw-os.o(.text)
    raw_os_start                             0x1a00168f   Thumb Code    36  raw-os.o(.text)
    wake_send_msg_size                       0x1a0016b3   Thumb Code     8  raw-os.o(.text)
    delete_pend_obj                          0x1a0016bb   Thumb Code   168  raw-os.o(.text)
    raw_task_stack_check                     0x1a001763   Thumb Code    32  raw-os.o(.text)
    raw_disable_sche                         0x1a001783   Thumb Code    40  raw-os.o(.text)
    raw_enable_sche                          0x1a0017ab   Thumb Code    54  raw-os.o(.text)
    raw_sleep                                0x1a0017e1   Thumb Code   134  raw-os.o(.text)
    raw_time_sleep                           0x1a001867   Thumb Code    78  raw-os.o(.text)
    raw_task_suspend                         0x1a0018b5   Thumb Code    54  raw-os.o(.text)
    raw_task_resume                          0x1a0018eb   Thumb Code    46  raw-os.o(.text)
    chg_pri_mutex                            0x1a001919   Thumb Code   114  raw-os.o(.text)
    raw_task_priority_change                 0x1a00198b   Thumb Code   162  raw-os.o(.text)
    raw_task_free_mutex                      0x1a001a2d   Thumb Code    66  raw-os.o(.text)
    raw_task_delete                          0x1a001a6f   Thumb Code   234  raw-os.o(.text)
    raw_set_task_user_point                  0x1a001b59   Thumb Code    26  raw-os.o(.text)
    raw_get_task_user_point                  0x1a001b73   Thumb Code     8  raw-os.o(.text)
    raw_task_time_slice_change               0x1a001b7b   Thumb Code    80  raw-os.o(.text)
    raw_set_sched_way                        0x1a001bcb   Thumb Code    80  raw-os.o(.text)
    raw_get_sched_way                        0x1a001c1b   Thumb Code    72  raw-os.o(.text)
    raw_task_wait_abort                      0x1a001c63   Thumb Code   206  raw-os.o(.text)
    raw_task_identify                        0x1a001d31   Thumb Code     6  raw-os.o(.text)
    raw_iter_block_task                      0x1a001d37   Thumb Code   102  raw-os.o(.text)
    raw_get_system_global_space              0x1a001d9d   Thumb Code     6  raw-os.o(.text)
    task_0_tick_post                         0x1a001da3   Thumb Code    16  raw-os.o(.text)
    raw_task_0_front_post                    0x1a001db3   Thumb Code     6  raw-os.o(.text)
    raw_block_pool_create                    0x1a001db9   Thumb Code    98  raw-os.o(.text)
    raw_block_allocate                       0x1a001e1b   Thumb Code    70  raw-os.o(.text)
    raw_block_release                        0x1a001e61   Thumb Code    48  raw-os.o(.text)
    raw_byte_pool_create                     0x1a001e91   Thumb Code    78  raw-os.o(.text)
    raw_byte_allocate                        0x1a001edf   Thumb Code    90  raw-os.o(.text)
    raw_byte_release                         0x1a001f39   Thumb Code    76  raw-os.o(.text)
    raw_mq_init                              0x1a001f85   Thumb Code    36  raw-os.o(.text)
    raw_mq_send                              0x1a00207f   Thumb Code     2  raw-os.o(.text)
    raw_mq_receive                           0x1a002081   Thumb Code   298  raw-os.o(.text)
    raw_mqueue_flush                         0x1a0021ab   Thumb Code    78  raw-os.o(.text)
    raw_mqueue_delete                        0x1a0021f9   Thumb Code   102  raw-os.o(.text)
    raw_mqueue_get_information               0x1a00225f   Thumb Code    52  raw-os.o(.text)
    raw_mutex_delete                         0x1a002293   Thumb Code   130  raw-os.o(.text)
    raw_queue_create                         0x1a002315   Thumb Code    58  raw-os.o(.text)
    raw_queue_front_post                     0x1a00234f   Thumb Code    58  raw-os.o(.text)
    raw_queue_end_post                       0x1a002389   Thumb Code    62  raw-os.o(.text)
    raw_queue_post_notify                    0x1a0023c7   Thumb Code    54  raw-os.o(.text)
    raw_queue_all_post                       0x1a0023fd   Thumb Code    50  raw-os.o(.text)
    raw_queue_send_notify                    0x1a00242f   Thumb Code   104  raw-os.o(.text)
    raw_queue_receive                        0x1a002497   Thumb Code   270  raw-os.o(.text)
    raw_queue_full_check                     0x1a0025a5   Thumb Code   114  raw-os.o(.text)
    raw_queue_flush                          0x1a002617   Thumb Code   110  raw-os.o(.text)
    raw_queue_delete                         0x1a002685   Thumb Code   128  raw-os.o(.text)
    raw_queue_get_information                0x1a002705   Thumb Code   140  raw-os.o(.text)
    raw_semaphore_put_notify                 0x1a002791   Thumb Code    52  raw-os.o(.text)
    raw_semaphore_put_all                    0x1a0027c5   Thumb Code    44  raw-os.o(.text)
    raw_semphore_send_notify                 0x1a0027f1   Thumb Code   104  raw-os.o(.text)
    raw_semaphore_delete                     0x1a002859   Thumb Code   128  raw-os.o(.text)
    raw_stack_check                          0x1a0028d9   Thumb Code    56  raw-os.o(.text)
    raw_finish_int                           0x1a002911   Thumb Code    56  raw-os.o(.text)
    raw_time_tick                            0x1a002949   Thumb Code    54  raw-os.o(.text)
    raw_enter_interrupt                      0x1a00297f   Thumb Code    32  raw-os.o(.text)
    raw_system_time_get                      0x1a00299f   Thumb Code     6  raw-os.o(.text)
    raw_system_time_set                      0x1a0029a5   Thumb Code    60  raw-os.o(.text)
    raw_task_semaphore_set                   0x1a0029e1   Thumb Code     6  raw-os.o(.text)
    raw_task_semaphore_delete                0x1a0029e7   Thumb Code     4  raw-os.o(.text)
    raw_timer_activate                       0x1a0029eb   Thumb Code   118  raw-os.o(.text)
    raw_timer_create                         0x1a002a61   Thumb Code    88  raw-os.o(.text)
    raw_timer_change                         0x1a002ab9   Thumb Code    92  raw-os.o(.text)
    raw_timer_deactivate                     0x1a002b15   Thumb Code   100  raw-os.o(.text)
    raw_timer_delete                         0x1a002b79   Thumb Code   118  raw-os.o(.text)
    fifo_init                                0x1a002d4d   Thumb Code    66  fifo.o(.text)
    fifo_in                                  0x1a002d8f   Thumb Code    92  fifo.o(.text)
    fifo_out_peek                            0x1a002e29   Thumb Code    38  fifo.o(.text)
    fifo_out                                 0x1a002e4f   Thumb Code    50  fifo.o(.text)
    fifo_out_all                             0x1a002e81   Thumb Code    62  fifo.o(.text)
    OS_CPU_SR_Save                           0x1a002ec1   Thumb Code     0  cpu.o(.text)
    OS_CPU_SR_Restore                        0x1a002ec9   Thumb Code     0  cpu.o(.text)
    CPU_IntDis                               0x1a002ecf   Thumb Code     0  cpu.o(.text)
    CPU_IntEn                                0x1a002ed3   Thumb Code     0  cpu.o(.text)
    raw_start_first_task                     0x1a002ed7   Thumb Code     0  cpu.o(.text)
    port_task_switch                         0x1a002eff   Thumb Code     0  cpu.o(.text)
    raw_int_switch                           0x1a002f09   Thumb Code     0  cpu.o(.text)
    PendSV_Handler                           0x1a002f13   Thumb Code     0  cpu.o(.text)
    port_stack_init                          0x1a002f65   Thumb Code   324  port.o(.text)
    raw_os_init_hook                         0x1a0030a9   Thumb Code     2  port_hook.o(.text)
    raw_task_delete_hook                     0x1a0030ab   Thumb Code     2  port_hook.o(.text)
    raw_task_abort_hook                      0x1a0030ad   Thumb Code     2  port_hook.o(.text)
    raw_idle_task_hook                       0x1a0030af   Thumb Code     2  port_hook.o(.text)
    raw_task_switch_hook                     0x1a0030b1   Thumb Code     2  port_hook.o(.text)
    raw_tick_hook                            0x1a0030b3   Thumb Code     2  port_hook.o(.text)
    task_create_hook                         0x1a0030b5   Thumb Code     2  port_hook.o(.text)
    raw_idle_coroutine_hook                  0x1a0030b7   Thumb Code     2  port_hook.o(.text)
    raw_memcpy                               0x1a0030b9   Thumb Code    74  user_extension.o(.text)
    raw_memset                               0x1a003103   Thumb Code    62  user_extension.o(.text)
    Reset_Handler                            0x1a003141   Thumb Code     8  keil_startup_lpc18xx43xx.o(.text)
    NMI_Handler                              0x1a003149   Thumb Code     2  keil_startup_lpc18xx43xx.o(.text)
    HardFault_Handler                        0x1a00314b   Thumb Code     2  keil_startup_lpc18xx43xx.o(.text)
    MemManage_Handler                        0x1a00314d   Thumb Code     2  keil_startup_lpc18xx43xx.o(.text)
    BusFault_Handler                         0x1a00314f   Thumb Code     2  keil_startup_lpc18xx43xx.o(.text)
    UsageFault_Handler                       0x1a003151   Thumb Code     2  keil_startup_lpc18xx43xx.o(.text)
    SVC_Handler                              0x1a003153   Thumb Code     2  keil_startup_lpc18xx43xx.o(.text)
    DebugMon_Handler                         0x1a003155   Thumb Code     2  keil_startup_lpc18xx43xx.o(.text)
    UnHandled_Vector                         0x1a00315b   Thumb Code     2  keil_startup_lpc18xx43xx.o(.text)
    ADC0_IRQHandler                          0x1a00315d   Thumb Code     0  keil_startup_lpc18xx43xx.o(.text)
    ADC1_IRQHandler                          0x1a00315d   Thumb Code     0  keil_startup_lpc18xx43xx.o(.text)
    ADCHS_IRQHandler                         0x1a00315d   Thumb Code     0  keil_startup_lpc18xx43xx.o(.text)
    ATIMER_IRQHandler                        0x1a00315d   Thumb Code     0  keil_startup_lpc18xx43xx.o(.text)
    CAN0_IRQHandler                          0x1a00315d   Thumb Code     0  keil_startup_lpc18xx43xx.o(.text)
    CAN1_IRQHandler                          0x1a00315d   Thumb Code     0  keil_startup_lpc18xx43xx.o(.text)
    DAC_IRQHandler                           0x1a00315d   Thumb Code     0  keil_startup_lpc18xx43xx.o(.text)
    DMA_IRQHandler                           0x1a00315d   Thumb Code     0  keil_startup_lpc18xx43xx.o(.text)
    ETH_IRQHandler                           0x1a00315d   Thumb Code     0  keil_startup_lpc18xx43xx.o(.text)
    FLASHEEPROM_IRQHandler                   0x1a00315d   Thumb Code     0  keil_startup_lpc18xx43xx.o(.text)
    GINT0_IRQHandler                         0x1a00315d   Thumb Code     0  keil_startup_lpc18xx43xx.o(.text)
    GINT1_IRQHandler                         0x1a00315d   Thumb Code     0  keil_startup_lpc18xx43xx.o(.text)
    GPIO0_IRQHandler                         0x1a00315d   Thumb Code     0  keil_startup_lpc18xx43xx.o(.text)
    GPIO1_IRQHandler                         0x1a00315d   Thumb Code     0  keil_startup_lpc18xx43xx.o(.text)
    GPIO2_IRQHandler                         0x1a00315d   Thumb Code     0  keil_startup_lpc18xx43xx.o(.text)
    GPIO3_IRQHandler                         0x1a00315d   Thumb Code     0  keil_startup_lpc18xx43xx.o(.text)
    GPIO4_IRQHandler                         0x1a00315d   Thumb Code     0  keil_startup_lpc18xx43xx.o(.text)
    GPIO5_IRQHandler                         0x1a00315d   Thumb Code     0  keil_startup_lpc18xx43xx.o(.text)
    GPIO6_IRQHandler                         0x1a00315d   Thumb Code     0  keil_startup_lpc18xx43xx.o(.text)
    GPIO7_IRQHandler                         0x1a00315d   Thumb Code     0  keil_startup_lpc18xx43xx.o(.text)
    I2C0_IRQHandler                          0x1a00315d   Thumb Code     0  keil_startup_lpc18xx43xx.o(.text)
    I2C1_IRQHandler                          0x1a00315d   Thumb Code     0  keil_startup_lpc18xx43xx.o(.text)
    I2S0_IRQHandler                          0x1a00315d   Thumb Code     0  keil_startup_lpc18xx43xx.o(.text)
    I2S1_IRQHandler                          0x1a00315d   Thumb Code     0  keil_startup_lpc18xx43xx.o(.text)
    LCD_IRQHandler                           0x1a00315d   Thumb Code     0  keil_startup_lpc18xx43xx.o(.text)
    MCPWM_IRQHandler                         0x1a00315d   Thumb Code     0  keil_startup_lpc18xx43xx.o(.text)
    MX_CORE_IRQHandler                       0x1a00315d   Thumb Code     0  keil_startup_lpc18xx43xx.o(.text)
    QEI_IRQHandler                           0x1a00315d   Thumb Code     0  keil_startup_lpc18xx43xx.o(.text)
    RIT_IRQHandler                           0x1a00315d   Thumb Code     0  keil_startup_lpc18xx43xx.o(.text)
    RTC_IRQHandler                           0x1a00315d   Thumb Code     0  keil_startup_lpc18xx43xx.o(.text)
    SCT_IRQHandler                           0x1a00315d   Thumb Code     0  keil_startup_lpc18xx43xx.o(.text)
    SDIO_IRQHandler                          0x1a00315d   Thumb Code     0  keil_startup_lpc18xx43xx.o(.text)
    SGPIO_IRQHandler                         0x1a00315d   Thumb Code     0  keil_startup_lpc18xx43xx.o(.text)
    SPIFI_IRQHandler                         0x1a00315d   Thumb Code     0  keil_startup_lpc18xx43xx.o(.text)
    SPI_IRQHandler                           0x1a00315d   Thumb Code     0  keil_startup_lpc18xx43xx.o(.text)
    SSP0_IRQHandler                          0x1a00315d   Thumb Code     0  keil_startup_lpc18xx43xx.o(.text)
    SSP1_IRQHandler                          0x1a00315d   Thumb Code     0  keil_startup_lpc18xx43xx.o(.text)
    TIMER0_IRQHandler                        0x1a00315d   Thumb Code     0  keil_startup_lpc18xx43xx.o(.text)
    TIMER1_IRQHandler                        0x1a00315d   Thumb Code     0  keil_startup_lpc18xx43xx.o(.text)
    TIMER2_IRQHandler                        0x1a00315d   Thumb Code     0  keil_startup_lpc18xx43xx.o(.text)
    TIMER3_IRQHandler                        0x1a00315d   Thumb Code     0  keil_startup_lpc18xx43xx.o(.text)
    UART0_IRQHandler                         0x1a00315d   Thumb Code     0  keil_startup_lpc18xx43xx.o(.text)
    UART1_IRQHandler                         0x1a00315d   Thumb Code     0  keil_startup_lpc18xx43xx.o(.text)
    UART2_IRQHandler                         0x1a00315d   Thumb Code     0  keil_startup_lpc18xx43xx.o(.text)
    USB0_IRQHandler                          0x1a00315d   Thumb Code     0  keil_startup_lpc18xx43xx.o(.text)
    USB1_IRQHandler                          0x1a00315d   Thumb Code     0  keil_startup_lpc18xx43xx.o(.text)
    WDT_IRQHandler                           0x1a00315d   Thumb Code     0  keil_startup_lpc18xx43xx.o(.text)
    __user_initial_stackheap                 0x1a003161   Thumb Code     0  keil_startup_lpc18xx43xx.o(.text)
    SystemInit                               0x1a003185   Thumb Code    20  sysinit.o(.text)
    scu_pinmux                               0x1a0031a1   Thumb Code    16  lpc43xx_scu.o(.text)
    emc_init                                 0x1a0031b5   Thumb Code   894  lpc43xx_sdram.o(.text)
    sdram_init                               0x1a003533   Thumb Code   142  lpc43xx_sdram.o(.text)
    EVRT_IRQHandler                          0x1a003893   Thumb Code    68  main.o(.text)
    SysTick_Handler                          0x1a0038d7   Thumb Code    18  main.o(.text)
    OS_CPU_SysTickInit                       0x1a0038e9   Thumb Code     4  main.o(.text)
    uart_3_recv                              0x1a0038ed   Thumb Code    76  main.o(.text)
    UART3_IRQHandler                         0x1a003939   Thumb Code    56  main.o(.text)
    shell_task                               0x1a003971   Thumb Code   524  main.o(.text)
    main                                     0x1a003b7d   Thumb Code    54  main.o(.text)
    __2printf                                0x1a003ca9   Thumb Code    20  noretval__2printf.o(.text)
    __printf                                 0x1a003cc1   Thumb Code   104  __printf.o(.text)
    _printf_int_dec                          0x1a003d29   Thumb Code   100  _printf_dec.o(.text)
    __use_two_region_memory                  0x1a003d9d   Thumb Code     2  heapauxi.o(.text)
    __rt_heap_escrow$2region                 0x1a003d9f   Thumb Code     2  heapauxi.o(.text)
    __rt_heap_expand$2region                 0x1a003da1   Thumb Code     2  heapauxi.o(.text)
    _printf_int_common                       0x1a003da3   Thumb Code   178  _printf_intcommon.o(.text)
    _printf_char_file                        0x1a003e55   Thumb Code    32  _printf_char_file.o(.text)
    _printf_char_common                      0x1a003e83   Thumb Code    32  _printf_char_common.o(.text)
    __user_setup_stackheap                   0x1a003ea9   Thumb Code    74  sys_stackheap_outer.o(.text)
    exit                                     0x1a003ef3   Thumb Code    12  exit.o(.text)
    __user_libspace                          0x1a003f01   Thumb Code     8  libspace.o(.text)
    __user_perproc_libspace                  0x1a003f01   Thumb Code     0  libspace.o(.text)
    __user_perthread_libspace                0x1a003f01   Thumb Code     0  libspace.o(.text)
    Board_Debug_Init                         0x1a003f09   Thumb Code    42  board.o(i.Board_Debug_Init)
    Board_SetupClocking                      0x1a003f39   Thumb Code   158  board_sysinit.o(i.Board_SetupClocking)
    Board_SetupExtMemory                     0x1a003fed   Thumb Code    82  board_sysinit.o(i.Board_SetupExtMemory)
    Board_SetupMuxing                        0x1a004059   Thumb Code    58  board_sysinit.o(i.Board_SetupMuxing)
    Board_SystemInit                         0x1a0040a5   Thumb Code    16  board_sysinit.o(i.Board_SystemInit)
    Board_UARTGetChar                        0x1a0040b5   Thumb Code    28  board.o(i.Board_UARTGetChar)
    Board_UARTPutChar                        0x1a0040d5   Thumb Code    26  board.o(i.Board_UARTPutChar)
    Board_UARTPutSTR                         0x1a0040f5   Thumb Code    22  board.o(i.Board_UARTPutSTR)
    Board_UART_Init                          0x1a00410d   Thumb Code    60  board.o(i.Board_UART_Init)
    Chip_Clock_DisableCrystal                0x1a004151   Thumb Code    14  clock_18xx_43xx.o(i.Chip_Clock_DisableCrystal)
    Chip_Clock_DisableMainPLL                0x1a004165   Thumb Code    14  clock_18xx_43xx.o(i.Chip_Clock_DisableMainPLL)
    Chip_Clock_DisablePLL                    0x1a004179   Thumb Code    22  clock_18xx_43xx.o(i.Chip_Clock_DisablePLL)
    Chip_Clock_Enable                        0x1a004195   Thumb Code    46  clock_18xx_43xx.o(i.Chip_Clock_Enable)
    Chip_Clock_EnableCrystal                 0x1a0041cd   Thumb Code    62  clock_18xx_43xx.o(i.Chip_Clock_EnableCrystal)
    Chip_Clock_EnableOpts                    0x1a004219   Thumb Code    52  clock_18xx_43xx.o(i.Chip_Clock_EnableOpts)
    Chip_Clock_GetBaseClock                  0x1a0042a5   Thumb Code    32  clock_18xx_43xx.o(i.Chip_Clock_GetBaseClock)
    Chip_Clock_GetBaseClockOpts              0x1a0042c9   Thumb Code    46  clock_18xx_43xx.o(i.Chip_Clock_GetBaseClockOpts)
    Chip_Clock_GetBaseClocktHz               0x1a0042fd   Thumb Code    18  clock_18xx_43xx.o(i.Chip_Clock_GetBaseClocktHz)
    Chip_Clock_GetClockInputHz               0x1a004311   Thumb Code   182  clock_18xx_43xx.o(i.Chip_Clock_GetClockInputHz)
    Chip_Clock_GetDividerDivisor             0x1a00440d   Thumb Code    18  clock_18xx_43xx.o(i.Chip_Clock_GetDividerDivisor)
    Chip_Clock_GetDividerSource              0x1a00442d   Thumb Code    26  clock_18xx_43xx.o(i.Chip_Clock_GetDividerSource)
    Chip_Clock_GetEMCRate                    0x1a00444d   Thumb Code    38  clock_18xx_43xx.o(i.Chip_Clock_GetEMCRate)
    Chip_Clock_GetMainPLLHz                  0x1a00447d   Thumb Code   110  clock_18xx_43xx.o(i.Chip_Clock_GetMainPLLHz)
    Chip_Clock_GetRate                       0x1a0044f5   Thumb Code    78  clock_18xx_43xx.o(i.Chip_Clock_GetRate)
    Chip_Clock_RTCEnable                     0x1a00454d   Thumb Code    24  clock_18xx_43xx.o(i.Chip_Clock_RTCEnable)
    Chip_Clock_SetBaseClock                  0x1a004569   Thumb Code    64  clock_18xx_43xx.o(i.Chip_Clock_SetBaseClock)
    Chip_Clock_SetDivider                    0x1a0045b1   Thumb Code    64  clock_18xx_43xx.o(i.Chip_Clock_SetDivider)
    Chip_Clock_SetupMainPLLHz                0x1a004601   Thumb Code   190  clock_18xx_43xx.o(i.Chip_Clock_SetupMainPLLHz)
    Chip_Clock_SetupMainPLLMult              0x1a0046c1   Thumb Code   160  clock_18xx_43xx.o(i.Chip_Clock_SetupMainPLLMult)
    Chip_Clock_StartPowerDown                0x1a004771   Thumb Code    12  clock_18xx_43xx.o(i.Chip_Clock_StartPowerDown)
    Chip_EMC_Dynamic_Init                    0x1a0047a5   Thumb Code    22  emc_18xx_43xx.o(i.Chip_EMC_Dynamic_Init)
    Chip_EMC_Init                            0x1a0047c1   Thumb Code    40  emc_18xx_43xx.o(i.Chip_EMC_Init)
    Chip_EMC_Static_Init                     0x1a0047ed   Thumb Code    22  emc_18xx_43xx.o(i.Chip_EMC_Static_Init)
    Chip_EVRT_ConfigIntSrcActiveType         0x1a004809   Thumb Code   138  evrt_18xx_43xx.o(i.Chip_EVRT_ConfigIntSrcActiveType)
    Chip_EVRT_Init                           0x1a004899   Thumb Code    46  evrt_18xx_43xx.o(i.Chip_EVRT_Init)
    Chip_EVRT_IsSourceInterrupting           0x1a0048d5   Thumb Code    22  evrt_18xx_43xx.o(i.Chip_EVRT_IsSourceInterrupting)
    Chip_EVRT_SetUpIntSrc                    0x1a0048f1   Thumb Code    26  evrt_18xx_43xx.o(i.Chip_EVRT_SetUpIntSrc)
    Chip_PMC_Set_PwrState                    0x1a004911   Thumb Code    14  pmc_18xx_43xx.o(i.Chip_PMC_Set_PwrState)
    Chip_PMC_Sleep                           0x1a004929   Thumb Code     4  pmc_18xx_43xx.o(i.Chip_PMC_Sleep)
    Chip_RTC_AlarmIntConfig                  0x1a00492d   Thumb Code    36  rtc_18xx_43xx.o(i.Chip_RTC_AlarmIntConfig)
    Chip_RTC_CalibCounterCmd                 0x1a004951   Thumb Code    36  rtc_18xx_43xx.o(i.Chip_RTC_CalibCounterCmd)
    Chip_RTC_CntIncrIntConfig                0x1a004975   Thumb Code    36  rtc_18xx_43xx.o(i.Chip_RTC_CntIncrIntConfig)
    Chip_RTC_DeInit                          0x1a004999   Thumb Code     6  rtc_18xx_43xx.o(i.Chip_RTC_DeInit)
    Chip_RTC_Enable                          0x1a00499f   Thumb Code    36  rtc_18xx_43xx.o(i.Chip_RTC_Enable)
    Chip_RTC_Init                            0x1a0049c3   Thumb Code    54  rtc_18xx_43xx.o(i.Chip_RTC_Init)
    Chip_RTC_ResetClockTickCounter           0x1a0049f9   Thumb Code    42  rtc_18xx_43xx.o(i.Chip_RTC_ResetClockTickCounter)
    Chip_SetupCoreClock                      0x1a004a65   Thumb Code   138  sysinit_18xx_43xx.o(i.Chip_SetupCoreClock)
    Chip_UART_Init                           0x1a004b45   Thumb Code    72  uart_18xx_43xx.o(i.Chip_UART_Init)
    Chip_UART_SetBaud                        0x1a004b91   Thumb Code    66  uart_18xx_43xx.o(i.Chip_UART_SetBaud)
    SystemCoreClockUpdate                    0x1a004bd9   Thumb Code    14  chip_18xx_43xx.o(i.SystemCoreClockUpdate)
    _sys_exit                                0x1a004bed   Thumb Code     6  board.o(i._sys_exit)
    ferror                                   0x1a004c2d   Thumb Code     8  board.o(i.ferror)
    fpuInit                                  0x1a004c35   Thumb Code    62  fpu_init.o(i.fpuInit)
    fputc                                    0x1a004c85   Thumb Code    20  board.o(i.fputc)
    initDynMem                               0x1a004cc1   Thumb Code   488  emc_18xx_43xx.o(i.initDynMem)
    initStaticMem                            0x1a004ea9   Thumb Code   104  emc_18xx_43xx.o(i.initStaticMem)
    _fp_init                                 0x1a004f11   Thumb Code    10  fpinit.o(x$fpl$fpinit)
    __fplib_config_fpu_vfp                   0x1a004f19   Thumb Code     0  fpinit.o(x$fpl$fpinit)
    __fplib_config_pureend_doubles           0x1a004f19   Thumb Code     0  fpinit.o(x$fpl$fpinit)
    ad_left                                  0x1a004f2c   Data           4  board.o(.constdata)
    ad_top                                   0x1a004f30   Data           4  board.o(.constdata)
    ad_right                                 0x1a004f34   Data           4  board.o(.constdata)
    ad_bottom                                0x1a004f38   Data           4  board.o(.constdata)
    MCB4300_LCD                              0x1a004f3c   Data          22  board.o(.constdata)
    ExtRateIn                                0x1a004f54   Data           4  board.o(.constdata)
    OscRateIn                                0x1a004f58   Data           4  board.o(.constdata)
    Region$$Table$$Base                      0x1a00552c   Number         0  anon$$obj.o(Region$$Table)
    Region$$Table$$Limit                     0x1a00554c   Number         0  anon$$obj.o(Region$$Table)



==============================================================================

Memory Map of the image

  Image Entry point : 0x1a000115

  Load Region LR_IROM1 (Base: 0x1a000000, Size: 0x000059cc, Max: 0x00080000, ABSOLUTE, COMPRESSED[0x000056ec])

    Execution Region RW_IRAM1 (Base: 0x10000000, Size: 0x00002618, Max: 0x00008000, ABSOLUTE, COMPRESSED[0x000001a0])

    Base Addr    Size         Type   Attr      Idx    E Section Name        Object

    0x10000000   0x00000058   Data   RW            3    .data               raw-os.o
    0x10000058   0x00000405   Data   RW          630    .data               main.o
    0x1000045d   0x00000003   PAD
    0x10000460   0x00000014   Data   RW          718    .data               lib_lpc_board_keil_mcb_4357.lib(board.o)
    0x10000474   0x00000004   Data   RW         1237    .data               lib_lpc_chip_43xx.lib(chip_18xx_43xx.o)
    0x10000478   0x00000008   Data   RW         1481    .data               lib_lpc_chip_43xx.lib(clock_18xx_43xx.o)
    0x10000480   0x000012e8   Zero   RW            2    .bss                raw-os.o
    0x10001768   0x0000074c   Zero   RW          628    .bss                main.o
    0x10001eb4   0x00000060   Zero   RW         2811    .bss                c_w.l(libspace.o)
    0x10001f14   0x00000004   PAD
    0x10001f18   0x00000100   Zero   RW          324    HEAP                keil_startup_lpc18xx43xx.o
    0x10002018   0x00000600   Zero   RW          323    STACK               keil_startup_lpc18xx43xx.o


    Execution Region ER_IROM1 (Base: 0x1a000000, Size: 0x0000554c, Max: 0x00080000, ABSOLUTE)

    Base Addr    Size         Type   Attr      Idx    E Section Name        Object

    0x1a000000   0x00000114   Data   RO          325    RESET               keil_startup_lpc18xx43xx.o
    0x1a000114   0x00000008   Code   RO         2761  * !!!main             c_w.l(__main.o)
    0x1a00011c   0x00000034   Code   RO         2936    !!!scatter          c_w.l(__scatter.o)
    0x1a000150   0x00000064   Code   RO         2934    !!dclz77c           c_w.l(__dclz77c.o)
    0x1a0001b4   0x0000001c   Code   RO         2938    !!handler_zi        c_w.l(__scatter_zi.o)
    0x1a0001d0   0x00000000   Code   RO         2754    .ARM.Collect$$_printf_percent$$00000000  c_w.l(_printf_percent.o)
    0x1a0001d0   0x00000006   Code   RO         2753    .ARM.Collect$$_printf_percent$$00000009  c_w.l(_printf_d.o)
    0x1a0001d6   0x00000004   Code   RO         2772    .ARM.Collect$$_printf_percent$$00000017  c_w.l(_printf_percent_end.o)
    0x1a0001da   0x00000002   Code   RO         2809    .ARM.Collect$$libinit$$00000000  c_w.l(libinit.o)
    0x1a0001dc   0x00000004   Code   RO         2821    .ARM.Collect$$libinit$$00000001  c_w.l(libinit2.o)
    0x1a0001e0   0x00000000   Code   RO         2825    .ARM.Collect$$libinit$$00000008  c_w.l(libinit2.o)
    0x1a0001e0   0x00000000   Code   RO         2827    .ARM.Collect$$libinit$$0000000A  c_w.l(libinit2.o)
    0x1a0001e0   0x00000000   Code   RO         2829    .ARM.Collect$$libinit$$0000000C  c_w.l(libinit2.o)
    0x1a0001e0   0x00000000   Code   RO         2832    .ARM.Collect$$libinit$$0000000F  c_w.l(libinit2.o)
    0x1a0001e0   0x00000000   Code   RO         2834    .ARM.Collect$$libinit$$00000011  c_w.l(libinit2.o)
    0x1a0001e0   0x00000000   Code   RO         2836    .ARM.Collect$$libinit$$00000013  c_w.l(libinit2.o)
    0x1a0001e0   0x00000000   Code   RO         2838    .ARM.Collect$$libinit$$00000015  c_w.l(libinit2.o)
    0x1a0001e0   0x00000000   Code   RO         2840    .ARM.Collect$$libinit$$00000017  c_w.l(libinit2.o)
    0x1a0001e0   0x00000000   Code   RO         2842    .ARM.Collect$$libinit$$00000019  c_w.l(libinit2.o)
    0x1a0001e0   0x00000000   Code   RO         2844    .ARM.Collect$$libinit$$0000001B  c_w.l(libinit2.o)
    0x1a0001e0   0x00000000   Code   RO         2846    .ARM.Collect$$libinit$$0000001D  c_w.l(libinit2.o)
    0x1a0001e0   0x00000000   Code   RO         2848    .ARM.Collect$$libinit$$0000001F  c_w.l(libinit2.o)
    0x1a0001e0   0x00000000   Code   RO         2850    .ARM.Collect$$libinit$$00000021  c_w.l(libinit2.o)
    0x1a0001e0   0x00000000   Code   RO         2852    .ARM.Collect$$libinit$$00000023  c_w.l(libinit2.o)
    0x1a0001e0   0x00000000   Code   RO         2856    .ARM.Collect$$libinit$$0000002A  c_w.l(libinit2.o)
    0x1a0001e0   0x00000000   Code   RO         2858    .ARM.Collect$$libinit$$0000002C  c_w.l(libinit2.o)
    0x1a0001e0   0x00000000   Code   RO         2860    .ARM.Collect$$libinit$$0000002E  c_w.l(libinit2.o)
    0x1a0001e0   0x00000000   Code   RO         2862    .ARM.Collect$$libinit$$00000030  c_w.l(libinit2.o)
    0x1a0001e0   0x00000002   Code   RO         2863    .ARM.Collect$$libinit$$00000031  c_w.l(libinit2.o)
    0x1a0001e2   0x00000002   Code   RO         2889    .ARM.Collect$$libshutdown$$00000000  c_w.l(libshutdown.o)
    0x1a0001e4   0x00000000   Code   RO         2919    .ARM.Collect$$libshutdown$$00000003  c_w.l(libshutdown2.o)
    0x1a0001e4   0x00000000   Code   RO         2922    .ARM.Collect$$libshutdown$$00000006  c_w.l(libshutdown2.o)
    0x1a0001e4   0x00000000   Code   RO         2925    .ARM.Collect$$libshutdown$$00000009  c_w.l(libshutdown2.o)
    0x1a0001e4   0x00000000   Code   RO         2927    .ARM.Collect$$libshutdown$$0000000B  c_w.l(libshutdown2.o)
    0x1a0001e4   0x00000000   Code   RO         2930    .ARM.Collect$$libshutdown$$0000000E  c_w.l(libshutdown2.o)
    0x1a0001e4   0x00000002   Code   RO         2931    .ARM.Collect$$libshutdown$$0000000F  c_w.l(libshutdown2.o)
    0x1a0001e6   0x00000000   Code   RO         2763    .ARM.Collect$$rtentry$$00000000  c_w.l(rtentry.o)
    0x1a0001e6   0x00000000   Code   RO         2776    .ARM.Collect$$rtentry$$00000002  c_w.l(rtentry2.o)
    0x1a0001e6   0x00000006   Code   RO         2788    .ARM.Collect$$rtentry$$00000004  c_w.l(rtentry4.o)
    0x1a0001ec   0x00000000   Code   RO         2778    .ARM.Collect$$rtentry$$00000009  c_w.l(rtentry2.o)
    0x1a0001ec   0x00000004   Code   RO         2779    .ARM.Collect$$rtentry$$0000000A  c_w.l(rtentry2.o)
    0x1a0001f0   0x00000000   Code   RO         2781    .ARM.Collect$$rtentry$$0000000C  c_w.l(rtentry2.o)
    0x1a0001f0   0x00000008   Code   RO         2782    .ARM.Collect$$rtentry$$0000000D  c_w.l(rtentry2.o)
    0x1a0001f8   0x00000002   Code   RO         2813    .ARM.Collect$$rtexit$$00000000  c_w.l(rtexit.o)
    0x1a0001fa   0x00000000   Code   RO         2865    .ARM.Collect$$rtexit$$00000002  c_w.l(rtexit2.o)
    0x1a0001fa   0x00000004   Code   RO         2866    .ARM.Collect$$rtexit$$00000003  c_w.l(rtexit2.o)
    0x1a0001fe   0x00000006   Code   RO         2867    .ARM.Collect$$rtexit$$00000004  c_w.l(rtexit2.o)
    0x1a000204   0x00002b48   Code   RO            1    .text               raw-os.o
    0x1a002d4c   0x00000172   Code   RO          183    .text               fifo.o
    0x1a002ebe   0x00000002   PAD
    0x1a002ec0   0x000000a4   Code   RO          277    .text               cpu.o
    0x1a002f64   0x00000144   Code   RO          281    .text               port.o
    0x1a0030a8   0x00000010   Code   RO          293    .text               port_hook.o
    0x1a0030b8   0x00000088   Code   RO          311    .text               user_extension.o
    0x1a003140   0x00000044   Code   RO          326    .text               keil_startup_lpc18xx43xx.o
    0x1a003184   0x0000001c   Code   RO          332    .text               sysinit.o
    0x1a0031a0   0x00000014   Code   RO          558    .text               lpc43xx_scu.o
    0x1a0031b4   0x00000428   Code   RO          601    .text               lpc43xx_sdram.o
    0x1a0035dc   0x000006cc   Code   RO          627    .text               main.o
    0x1a003ca8   0x00000018   Code   RO         2727    .text               c_w.l(noretval__2printf.o)
    0x1a003cc0   0x00000068   Code   RO         2729    .text               c_w.l(__printf.o)
    0x1a003d28   0x00000074   Code   RO         2731    .text               c_w.l(_printf_dec.o)
    0x1a003d9c   0x00000006   Code   RO         2759    .text               c_w.l(heapauxi.o)
    0x1a003da2   0x000000b2   Code   RO         2768    .text               c_w.l(_printf_intcommon.o)
    0x1a003e54   0x00000024   Code   RO         2770    .text               c_w.l(_printf_char_file.o)
    0x1a003e78   0x00000030   Code   RO         2792    .text               c_w.l(_printf_char_common.o)
    0x1a003ea8   0x0000004a   Code   RO         2794    .text               c_w.l(sys_stackheap_outer.o)
    0x1a003ef2   0x0000000c   Code   RO         2798    .text               c_w.l(exit.o)
    0x1a003efe   0x00000002   PAD
    0x1a003f00   0x00000008   Code   RO         2810    .text               c_w.l(libspace.o)
    0x1a003f08   0x00000030   Code   RO          675    i.Board_Debug_Init  lib_lpc_board_keil_mcb_4357.lib(board.o)
    0x1a003f38   0x000000b4   Code   RO         1161    i.Board_SetupClocking  lib_lpc_board_keil_mcb_4357.lib(board_sysinit.o)
    0x1a003fec   0x0000006c   Code   RO         1162    i.Board_SetupExtMemory  lib_lpc_board_keil_mcb_4357.lib(board_sysinit.o)
    0x1a004058   0x0000004c   Code   RO         1163    i.Board_SetupMuxing  lib_lpc_board_keil_mcb_4357.lib(board_sysinit.o)
    0x1a0040a4   0x00000010   Code   RO         1164    i.Board_SystemInit  lib_lpc_board_keil_mcb_4357.lib(board_sysinit.o)
    0x1a0040b4   0x00000020   Code   RO          692    i.Board_UARTGetChar  lib_lpc_board_keil_mcb_4357.lib(board.o)
    0x1a0040d4   0x00000020   Code   RO          693    i.Board_UARTPutChar  lib_lpc_board_keil_mcb_4357.lib(board.o)
    0x1a0040f4   0x00000016   Code   RO          694    i.Board_UARTPutSTR  lib_lpc_board_keil_mcb_4357.lib(board.o)
    0x1a00410a   0x00000002   PAD
    0x1a00410c   0x00000044   Code   RO          695    i.Board_UART_Init   lib_lpc_board_keil_mcb_4357.lib(board.o)
    0x1a004150   0x00000014   Code   RO         1449    i.Chip_Clock_DisableCrystal  lib_lpc_chip_43xx.lib(clock_18xx_43xx.o)
    0x1a004164   0x00000014   Code   RO         1450    i.Chip_Clock_DisableMainPLL  lib_lpc_chip_43xx.lib(clock_18xx_43xx.o)
    0x1a004178   0x0000001c   Code   RO         1451    i.Chip_Clock_DisablePLL  lib_lpc_chip_43xx.lib(clock_18xx_43xx.o)
    0x1a004194   0x00000038   Code   RO         1452    i.Chip_Clock_Enable  lib_lpc_chip_43xx.lib(clock_18xx_43xx.o)
    0x1a0041cc   0x0000004c   Code   RO         1454    i.Chip_Clock_EnableCrystal  lib_lpc_chip_43xx.lib(clock_18xx_43xx.o)
    0x1a004218   0x0000003c   Code   RO         1456    i.Chip_Clock_EnableOpts  lib_lpc_chip_43xx.lib(clock_18xx_43xx.o)
    0x1a004254   0x00000050   Code   RO         1458    i.Chip_Clock_FindBaseClock  lib_lpc_chip_43xx.lib(clock_18xx_43xx.o)
    0x1a0042a4   0x00000024   Code   RO         1459    i.Chip_Clock_GetBaseClock  lib_lpc_chip_43xx.lib(clock_18xx_43xx.o)
    0x1a0042c8   0x00000034   Code   RO         1460    i.Chip_Clock_GetBaseClockOpts  lib_lpc_chip_43xx.lib(clock_18xx_43xx.o)
    0x1a0042fc   0x00000012   Code   RO         1461    i.Chip_Clock_GetBaseClocktHz  lib_lpc_chip_43xx.lib(clock_18xx_43xx.o)
    0x1a00430e   0x00000002   PAD
    0x1a004310   0x000000d4   Code   RO         1462    i.Chip_Clock_GetClockInputHz  lib_lpc_chip_43xx.lib(clock_18xx_43xx.o)
    0x1a0043e4   0x00000028   Code   RO         1463    i.Chip_Clock_GetDivRate  lib_lpc_chip_43xx.lib(clock_18xx_43xx.o)
    0x1a00440c   0x00000020   Code   RO         1464    i.Chip_Clock_GetDividerDivisor  lib_lpc_chip_43xx.lib(clock_18xx_43xx.o)
    0x1a00442c   0x00000020   Code   RO         1465    i.Chip_Clock_GetDividerSource  lib_lpc_chip_43xx.lib(clock_18xx_43xx.o)
    0x1a00444c   0x00000030   Code   RO         1466    i.Chip_Clock_GetEMCRate  lib_lpc_chip_43xx.lib(clock_18xx_43xx.o)
    0x1a00447c   0x00000078   Code   RO         1467    i.Chip_Clock_GetMainPLLHz  lib_lpc_chip_43xx.lib(clock_18xx_43xx.o)
    0x1a0044f4   0x00000058   Code   RO         1469    i.Chip_Clock_GetRate  lib_lpc_chip_43xx.lib(clock_18xx_43xx.o)
    0x1a00454c   0x0000001c   Code   RO         1472    i.Chip_Clock_RTCEnable  lib_lpc_chip_43xx.lib(clock_18xx_43xx.o)
    0x1a004568   0x00000048   Code   RO         1473    i.Chip_Clock_SetBaseClock  lib_lpc_chip_43xx.lib(clock_18xx_43xx.o)
    0x1a0045b0   0x00000050   Code   RO         1474    i.Chip_Clock_SetDivider  lib_lpc_chip_43xx.lib(clock_18xx_43xx.o)
    0x1a004600   0x000000be   Code   RO         1475    i.Chip_Clock_SetupMainPLLHz  lib_lpc_chip_43xx.lib(clock_18xx_43xx.o)
    0x1a0046be   0x00000002   PAD
    0x1a0046c0   0x000000b0   Code   RO         1476    i.Chip_Clock_SetupMainPLLMult  lib_lpc_chip_43xx.lib(clock_18xx_43xx.o)
    0x1a004770   0x00000014   Code   RO         1478    i.Chip_Clock_StartPowerDown  lib_lpc_chip_43xx.lib(clock_18xx_43xx.o)
    0x1a004784   0x00000020   Code   RO         1479    i.Chip_Clock_TestMainPLLMultiplier  lib_lpc_chip_43xx.lib(clock_18xx_43xx.o)
    0x1a0047a4   0x0000001c   Code   RO         2083    i.Chip_EMC_Dynamic_Init  lib_lpc_chip_43xx.lib(emc_18xx_43xx.o)
    0x1a0047c0   0x0000002c   Code   RO         2085    i.Chip_EMC_Init     lib_lpc_chip_43xx.lib(emc_18xx_43xx.o)
    0x1a0047ec   0x0000001c   Code   RO         2088    i.Chip_EMC_Static_Init  lib_lpc_chip_43xx.lib(emc_18xx_43xx.o)
    0x1a004808   0x00000090   Code   RO         1671    i.Chip_EVRT_ConfigIntSrcActiveType  lib_lpc_chip_43xx.lib(evrt_18xx_43xx.o)
    0x1a004898   0x0000003c   Code   RO         1672    i.Chip_EVRT_Init    lib_lpc_chip_43xx.lib(evrt_18xx_43xx.o)
    0x1a0048d4   0x0000001c   Code   RO         1673    i.Chip_EVRT_IsSourceInterrupting  lib_lpc_chip_43xx.lib(evrt_18xx_43xx.o)
    0x1a0048f0   0x00000020   Code   RO         1674    i.Chip_EVRT_SetUpIntSrc  lib_lpc_chip_43xx.lib(evrt_18xx_43xx.o)
    0x1a004910   0x00000018   Code   RO         1709    i.Chip_PMC_Set_PwrState  lib_lpc_chip_43xx.lib(pmc_18xx_43xx.o)
    0x1a004928   0x00000004   Code   RO         1710    i.Chip_PMC_Sleep    lib_lpc_chip_43xx.lib(pmc_18xx_43xx.o)
    0x1a00492c   0x00000024   Code   RO         1735    i.Chip_RTC_AlarmIntConfig  lib_lpc_chip_43xx.lib(rtc_18xx_43xx.o)
    0x1a004950   0x00000024   Code   RO         1736    i.Chip_RTC_CalibCounterCmd  lib_lpc_chip_43xx.lib(rtc_18xx_43xx.o)
    0x1a004974   0x00000024   Code   RO         1737    i.Chip_RTC_CntIncrIntConfig  lib_lpc_chip_43xx.lib(rtc_18xx_43xx.o)
    0x1a004998   0x00000006   Code   RO         1738    i.Chip_RTC_DeInit   lib_lpc_chip_43xx.lib(rtc_18xx_43xx.o)
    0x1a00499e   0x00000024   Code   RO         1741    i.Chip_RTC_Enable   lib_lpc_chip_43xx.lib(rtc_18xx_43xx.o)
    0x1a0049c2   0x00000036   Code   RO         1744    i.Chip_RTC_Init     lib_lpc_chip_43xx.lib(rtc_18xx_43xx.o)
    0x1a0049f8   0x0000002a   Code   RO         1745    i.Chip_RTC_ResetClockTickCounter  lib_lpc_chip_43xx.lib(rtc_18xx_43xx.o)
    0x1a004a22   0x00000002   PAD
    0x1a004a24   0x00000010   Code   RO          701    i.Chip_SCU_PinMuxSet  lib_lpc_board_keil_mcb_4357.lib(board.o)
    0x1a004a34   0x00000030   Code   RO         1165    i.Chip_SCU_SetPinMuxing  lib_lpc_board_keil_mcb_4357.lib(board_sysinit.o)
    0x1a004a64   0x0000009c   Code   RO         2623    i.Chip_SetupCoreClock  lib_lpc_chip_43xx.lib(sysinit_18xx_43xx.o)
    0x1a004b00   0x0000000a   Code   RO         1831    i.Chip_UART_DisableDivisorAccess  lib_lpc_chip_43xx.lib(uart_18xx_43xx.o)
    0x1a004b0a   0x0000000a   Code   RO         1832    i.Chip_UART_EnableDivisorAccess  lib_lpc_chip_43xx.lib(uart_18xx_43xx.o)
    0x1a004b14   0x00000030   Code   RO         1834    i.Chip_UART_GetClockIndex  lib_lpc_chip_43xx.lib(uart_18xx_43xx.o)
    0x1a004b44   0x0000004c   Code   RO         1836    i.Chip_UART_Init    lib_lpc_chip_43xx.lib(uart_18xx_43xx.o)
    0x1a004b90   0x00000042   Code   RO         1848    i.Chip_UART_SetBaud  lib_lpc_chip_43xx.lib(uart_18xx_43xx.o)
    0x1a004bd2   0x00000006   Code   RO         1850    i.Chip_UART_SetDivisorLatches  lib_lpc_chip_43xx.lib(uart_18xx_43xx.o)
    0x1a004bd8   0x00000014   Code   RO         1235    i.SystemCoreClockUpdate  lib_lpc_chip_43xx.lib(chip_18xx_43xx.o)
    0x1a004bec   0x00000006   Code   RO          703    i._sys_exit         lib_lpc_board_keil_mcb_4357.lib(board.o)
    0x1a004bf2   0x00000002   PAD
    0x1a004bf4   0x00000038   Code   RO         2089    i.convertTimmingParam  lib_lpc_chip_43xx.lib(emc_18xx_43xx.o)
    0x1a004c2c   0x00000008   Code   RO          707    i.ferror            lib_lpc_board_keil_mcb_4357.lib(board.o)
    0x1a004c34   0x00000050   Code   RO         1995    i.fpuInit           lib_lpc_chip_43xx.lib(fpu_init.o)
    0x1a004c84   0x00000014   Code   RO          709    i.fputc             lib_lpc_board_keil_mcb_4357.lib(board.o)
    0x1a004c98   0x00000028   Code   RO         2090    i.getColsLen        lib_lpc_chip_43xx.lib(emc_18xx_43xx.o)
    0x1a004cc0   0x000001e8   Code   RO         2091    i.initDynMem        lib_lpc_chip_43xx.lib(emc_18xx_43xx.o)
    0x1a004ea8   0x00000068   Code   RO         2092    i.initStaticMem     lib_lpc_chip_43xx.lib(emc_18xx_43xx.o)
    0x1a004f10   0x0000000a   Code   RO         2877    x$fpl$fpinit        fz_wm.l(fpinit.o)
    0x1a004f1a   0x00000002   PAD
    0x1a004f1c   0x00000040   Data   RO          717    .constdata          lib_lpc_board_keil_mcb_4357.lib(board.o)
    0x1a004f5c   0x000002bc   Data   RO         1166    .constdata          lib_lpc_board_keil_mcb_4357.lib(board_sysinit.o)
    0x1a005218   0x0000006c   Data   RO         1480    .constdata          lib_lpc_chip_43xx.lib(clock_18xx_43xx.o)
    0x1a005284   0x00000048   Data   RO         2627    .constdata          lib_lpc_chip_43xx.lib(sysinit_18xx_43xx.o)
    0x1a0052cc   0x0000025d   Data   RO          629    .conststring        main.o
    0x1a005529   0x00000003   PAD
    0x1a00552c   0x00000020   Data   RO         2932    Region$$Table       anon$$obj.o


==============================================================================

Image component sizes


      Code (inc. data)   RO Data    RW Data    ZI Data      Debug   Object Name

       164         16          0          0          0        392   cpu.o
       370          0          0          0          0       6792   fifo.o
        68         28        276          0       1792        944   keil_startup_lpc18xx43xx.o
        20          4          0          0          0       1009   lpc43xx_scu.o
      1064         28          0          0          0       2074   lpc43xx_sdram.o
      1740        508        605       1029       1868      47440   main.o
       324          0          0          0          0       1398   port.o
        16          0          0          0          0       1767   port_hook.o
     11080        330          0         88       4840      62483   raw-os.o
        28          8          0          0          0       9901   sysinit.o
       136          0          0          0          0       1492   user_extension.o

    ----------------------------------------------------------------------
     15012        922        916       1120       8500     135692   Object Totals
         0          0         32          0          0          0   (incl. Generated)
         2          0          3          3          0          0   (incl. Padding)

    ----------------------------------------------------------------------

      Code (inc. data)   RO Data    RW Data    ZI Data      Debug   Library Member Name

       100          0          0          0          0          0   __dclz77c.o
         8          0          0          0          0         68   __main.o
       104          0          0          0          0         84   __printf.o
        52          8          0          0          0          0   __scatter.o
        28          0          0          0          0          0   __scatter_zi.o
        48          6          0          0          0         96   _printf_char_common.o
        36          4          0          0          0         80   _printf_char_file.o
         6          0          0          0          0          0   _printf_d.o
       116         16          0          0          0         92   _printf_dec.o
       178          0          0          0          0         88   _printf_intcommon.o
         0          0          0          0          0          0   _printf_percent.o
         4          0          0          0          0          0   _printf_percent_end.o
        12          0          0          0          0         72   exit.o
         6          0          0          0          0        152   heapauxi.o
         2          0          0          0          0          0   libinit.o
         6          0          0          0          0          0   libinit2.o
         2          0          0          0          0          0   libshutdown.o
         2          0          0          0          0          0   libshutdown2.o
         8          4          0          0         96         68   libspace.o
        24          4          0          0          0         84   noretval__2printf.o
         0          0          0          0          0          0   rtentry.o
        12          0          0          0          0          0   rtentry2.o
         6          0          0          0          0          0   rtentry4.o
         2          0          0          0          0          0   rtexit.o
        10          0          0          0          0          0   rtexit2.o
        74          0          0          0          0         80   sys_stackheap_outer.o
        10          0          0          0          0        116   fpinit.o
       252         28         64         20          0      33620   board.o
       428         70        700          0          0      11716   board_sysinit.o
        20          6          0          4          0      26742   chip_18xx_43xx.o
      1616        222        108          8          0      16436   clock_18xx_43xx.o
       788         22          0          0          0       5204   emc_18xx_43xx.o
       264         32          0          0          0       2281   evrt_18xx_43xx.o
        80         18          0          0          0       1234   fpu_init.o
        28         10          0          0          0        973   pmc_18xx_43xx.o
       246          0          0          0          0       3990   rtc_18xx_43xx.o
       156         18         72          0          0       1282   sysinit_18xx_43xx.o
       216         16          0          0          0       9189   uart_18xx_43xx.o

    ----------------------------------------------------------------------
      4964        484        944         32        100     113747   Library Totals
        14          0          0          0          4          0   (incl. Padding)

    ----------------------------------------------------------------------

      Code (inc. data)   RO Data    RW Data    ZI Data      Debug   Library Name

       846         42          0          0         96        964   c_w.l
        10          0          0          0          0        116   fz_wm.l
       680         98        764         20          0      45336   lib_lpc_board_keil_mcb_4357.lib
      3414        344        180         12          0      67331   lib_lpc_chip_43xx.lib

    ----------------------------------------------------------------------
      4964        484        944         32        100     113747   Library Totals

    ----------------------------------------------------------------------

==============================================================================


      Code (inc. data)   RO Data    RW Data    ZI Data      Debug   

     19976       1406       1860       1152       8600     241975   Grand Totals
     19976       1406       1860        416       8600     241975   ELF Image Totals (compressed)
     19976       1406       1860        416          0          0   ROM Totals

==============================================================================

    Total RO  Size (Code + RO Data)                21836 (  21.32kB)
    Total RW  Size (RW Data + ZI Data)              9752 (   9.52kB)
    Total ROM Size (Code + RO Data + RW Data)      22252 (  21.73kB)

==============================================================================

