Component: ARM Compiler 5.06 (build 20) Tool: armlink [4d35a3]

==============================================================================

Section Cross References

    raw-os.o(.text) refers to cpu.o(.text) for OS_CPU_SR_Save
    raw-os.o(.text) refers to port_hook.o(.text) for raw_idle_coroutine_hook
    raw-os.o(.text) refers to user_extension.o(.text) for raw_memset
    raw-os.o(.text) refers to port.o(.text) for port_stack_init
    raw-os.o(.text) refers to raw-os.o(.data) for high_ready_obj
    raw-os.o(.text) refers to raw-os.o(.bss) for raw_ready_queue
    raw-os.o(.text) refers to port_error_process.o(.text) for port_system_error_process
    raw-os.o(.text) refers to lludivv7m.o(.text) for __aeabi_uldivmod
    fifo.o(.text) refers to cpu.o(.text) for OS_CPU_SR_Save
    fifo.o(.text) refers to user_extension.o(.text) for raw_memcpy
    rsh.o(.text) refers to cpu.o(.text) for OS_CPU_SR_Save
    rsh.o(.text) refers to string.o(.text) for raw_strncmp
    rsh.o(.text) refers to user_extension.o(.text) for raw_memset
    rsh.o(.text) refers to rsh.o(.data) for current_command_list_point
    rsh.o(.text) refers to rsh.o(.conststring) for .conststring
    rsh.o(.constdata) refers to rsh.o(.conststring) for .conststring
    rsh.o(.constdata) refers to rsh.o(.text) for rsh_help_command
    rsh.o(.data) refers to rsh.o(.constdata) for xHelpCommand
==============================================================================

Removing Unused input sections from the image.

    Removing rsh.o(.text), (608 bytes).
    Removing rsh.o(.constdata), (16 bytes).
    Removing rsh.o(.conststring), (225 bytes).
    Removing rsh.o(.data), (20 bytes).
    Removing string.o(.text), (700 bytes).
    Removing port_extension.o(.text), (52 bytes).
    Removing sysinit.o(.rev16_text), (4 bytes).
    Removing sysinit.o(.revsh_text), (4 bytes).
    Removing lpc43xx_scu.o(.rev16_text), (4 bytes).
    Removing lpc43xx_scu.o(.revsh_text), (4 bytes).
    Removing lpc43xx_sdram.o(.rev16_text), (4 bytes).
    Removing lpc43xx_sdram.o(.revsh_text), (4 bytes).
    Removing lpc43xx_gpio.o(.rev16_text), (4 bytes).
    Removing lpc43xx_gpio.o(.revsh_text), (4 bytes).
    Removing lpc43xx_lcd.o(.rev16_text), (4 bytes).
    Removing lpc43xx_lcd.o(.revsh_text), (4 bytes).
    Removing lpc43xx_lcd.o(.text), (1108 bytes).
    Removing lpc43xx_lcd.o(.data), (12 bytes).
==============================================================================

Image Symbol Table

    Local Symbols

    Symbol Name                              Value     Ov Type        Size  Object(Section)

    ../clib/angel/boardlib.s                 0x00000000   Number         0  boardinit3.o ABSOLUTE
    ../clib/angel/boardlib.s                 0x00000000   Number         0  boardshut.o ABSOLUTE
    ../clib/angel/boardlib.s                 0x00000000   Number         0  boardinit1.o ABSOLUTE
    ../clib/angel/boardlib.s                 0x00000000   Number         0  boardinit2.o ABSOLUTE
    ../clib/angel/handlers.s                 0x00000000   Number         0  __scatter_copy.o ABSOLUTE
    ../clib/angel/handlers.s                 0x00000000   Number         0  __scatter_zi.o ABSOLUTE
    ../clib/angel/kernel.s                   0x00000000   Number         0  rtexit.o ABSOLUTE
    ../clib/angel/kernel.s                   0x00000000   Number         0  __rtentry.o ABSOLUTE
    ../clib/angel/kernel.s                   0x00000000   Number         0  rtexit2.o ABSOLUTE
    ../clib/angel/kernel.s                   0x00000000   Number         0  __rtentry4.o ABSOLUTE
    ../clib/angel/kernel.s                   0x00000000   Number         0  __rtentry2.o ABSOLUTE
    ../clib/angel/rt.s                       0x00000000   Number         0  aeabi_ldiv0_sigfpe.o ABSOLUTE
    ../clib/angel/rt.s                       0x00000000   Number         0  rt_raise.o ABSOLUTE
    ../clib/angel/rt.s                       0x00000000   Number         0  aeabi_ldiv0.o ABSOLUTE
    ../clib/angel/rt.s                       0x00000000   Number         0  rt_div0.o ABSOLUTE
    ../clib/angel/scatter.s                  0x00000000   Number         0  __scatter.o ABSOLUTE
    ../clib/angel/startup.s                  0x00000000   Number         0  __main.o ABSOLUTE
    ../clib/angel/sys.s                      0x00000000   Number         0  libspace.o ABSOLUTE
    ../clib/angel/sys.s                      0x00000000   Number         0  sys_stackheap_outer.o ABSOLUTE
    ../clib/angel/sys.s                      0x00000000   Number         0  use_no_semi.o ABSOLUTE
    ../clib/angel/sys.s                      0x00000000   Number         0  indicate_semi.o ABSOLUTE
    ../clib/angel/sysapp.c                   0x00000000   Number         0  sys_wrch.o ABSOLUTE
    ../clib/angel/sysapp.c                   0x00000000   Number         0  sys_command.o ABSOLUTE
    ../clib/armsys.c                         0x00000000   Number         0  _get_argv_nomalloc.o ABSOLUTE
    ../clib/armsys.c                         0x00000000   Number         0  argv_veneer.o ABSOLUTE
    ../clib/armsys.c                         0x00000000   Number         0  no_argv.o ABSOLUTE
    ../clib/armsys.c                         0x00000000   Number         0  argv_veneer.o ABSOLUTE
    ../clib/heapalloc.c                      0x00000000   Number         0  hrguard.o ABSOLUTE
    ../clib/heapaux.c                        0x00000000   Number         0  heapauxi.o ABSOLUTE
    ../clib/libinit.s                        0x00000000   Number         0  libinit.o ABSOLUTE
    ../clib/libinit.s                        0x00000000   Number         0  libinit2.o ABSOLUTE
    ../clib/libinit.s                        0x00000000   Number         0  libshutdown2.o ABSOLUTE
    ../clib/libinit.s                        0x00000000   Number         0  libshutdown.o ABSOLUTE
    ../clib/longlong.s                       0x00000000   Number         0  lludivv7m.o ABSOLUTE
    ../clib/memcpset.s                       0x00000000   Number         0  rt_memcpy_v6.o ABSOLUTE
    ../clib/memcpset.s                       0x00000000   Number         0  rt_memclr_w.o ABSOLUTE
    ../clib/memcpset.s                       0x00000000   Number         0  rt_memcpy_w.o ABSOLUTE
    ../clib/printf.c                         0x00000000   Number         0  __printf_flags_ss.o ABSOLUTE
    ../clib/printf.c                         0x00000000   Number         0  __printf_ss.o ABSOLUTE
    ../clib/printf.c                         0x00000000   Number         0  __printf_flags.o ABSOLUTE
    ../clib/printf.c                         0x00000000   Number         0  _printf_dec.o ABSOLUTE
    ../clib/printf.c                         0x00000000   Number         0  __printf.o ABSOLUTE
    ../clib/printf.c                         0x00000000   Number         0  __2printf.o ABSOLUTE
    ../clib/printf.c                         0x00000000   Number         0  noretval__2printf.o ABSOLUTE
    ../clib/printf.c                         0x00000000   Number         0  __printf_nopercent.o ABSOLUTE
    ../clib/printf.c                         0x00000000   Number         0  _printf_char_common.o ABSOLUTE
    ../clib/printf.c                         0x00000000   Number         0  _printf_char_file.o ABSOLUTE
    ../clib/printf.c                         0x00000000   Number         0  _printf_intcommon.o ABSOLUTE
    ../clib/printf.c                         0x00000000   Number         0  __printf_flags_ss_wp.o ABSOLUTE
    ../clib/printf.c                         0x00000000   Number         0  __printf_ss_wp.o ABSOLUTE
    ../clib/printf.c                         0x00000000   Number         0  __printf_flags_wp.o ABSOLUTE
    ../clib/printf.c                         0x00000000   Number         0  __printf_wp.o ABSOLUTE
    ../clib/printf_percent.s                 0x00000000   Number         0  _printf_percent_end.o ABSOLUTE
    ../clib/printf_percent.s                 0x00000000   Number         0  _printf_percent.o ABSOLUTE
    ../clib/printf_percent.s                 0x00000000   Number         0  _printf_d.o ABSOLUTE
    ../clib/signal.c                         0x00000000   Number         0  defsig_rtred_inner.o ABSOLUTE
    ../clib/signal.c                         0x00000000   Number         0  defsig_exit.o ABSOLUTE
    ../clib/signal.c                         0x00000000   Number         0  defsig_cppl_inner.o ABSOLUTE
    ../clib/signal.c                         0x00000000   Number         0  defsig_abrt_inner.o ABSOLUTE
    ../clib/signal.c                         0x00000000   Number         0  defsig_other.o ABSOLUTE
    ../clib/signal.c                         0x00000000   Number         0  defsig_rtmem_outer.o ABSOLUTE
    ../clib/signal.c                         0x00000000   Number         0  defsig_pvfn_inner.o ABSOLUTE
    ../clib/signal.c                         0x00000000   Number         0  defsig_fpe_inner.o ABSOLUTE
    ../clib/signal.c                         0x00000000   Number         0  defsig_general.o ABSOLUTE
    ../clib/signal.c                         0x00000000   Number         0  defsig_stak_inner.o ABSOLUTE
    ../clib/signal.c                         0x00000000   Number         0  defsig_rtmem_inner.o ABSOLUTE
    ../clib/signal.c                         0x00000000   Number         0  defsig_rtmem_formal.o ABSOLUTE
    ../clib/signal.c                         0x00000000   Number         0  __raise.o ABSOLUTE
    ../clib/signal.c                         0x00000000   Number         0  defsig_fpe_formal.o ABSOLUTE
    ../clib/signal.c                         0x00000000   Number         0  defsig_fpe_outer.o ABSOLUTE
    ../clib/signal.c                         0x00000000   Number         0  defsig_segv_inner.o ABSOLUTE
    ../clib/signal.s                         0x00000000   Number         0  defsig.o ABSOLUTE
    ../clib/stdlib.c                         0x00000000   Number         0  exit.o ABSOLUTE
    ../fplib/fpinit.s                        0x00000000   Number         0  fpinit.o ABSOLUTE
    ..\..\..\..\software\common\another_touch.c 0x00000000   Number         0  another_touch.o ABSOLUTE
    ..\..\..\..\software\common\lpc43xx_gpio.c 0x00000000   Number         0  lpc43xx_gpio.o ABSOLUTE
    ..\..\..\..\software\common\lpc43xx_lcd.c 0x00000000   Number         0  lpc43xx_lcd.o ABSOLUTE
    ..\..\..\..\software\common\lpc43xx_scu.c 0x00000000   Number         0  lpc43xx_scu.o ABSOLUTE
    ..\..\..\..\software\common\lpc43xx_sdram.c 0x00000000   Number         0  lpc43xx_sdram.o ABSOLUTE
    ..\..\..\..\software\common\lpc43xx_ssp1.c 0x00000000   Number         0  lpc43xx_ssp1.o ABSOLUTE
    ..\..\..\..\software\kernel\port\cpu.asm 0x00000000   Number         0  cpu.o ABSOLUTE
    ..\..\..\..\software\kernel\port\port.c  0x00000000   Number         0  port.o ABSOLUTE
    ..\..\..\..\software\kernel\port\port_error_process.c 0x00000000   Number         0  port_error_process.o ABSOLUTE
    ..\..\..\..\software\kernel\port\port_extension.c 0x00000000   Number         0  port_extension.o ABSOLUTE
    ..\..\..\..\software\kernel\port\port_hook.c 0x00000000   Number         0  port_hook.o ABSOLUTE
    ..\..\..\..\software\kernel\port\raw_trace_port.c 0x00000000   Number         0  raw_trace_port.o ABSOLUTE
    ..\..\..\..\software\kernel\port\user_extension.c 0x00000000   Number         0  user_extension.o ABSOLUTE
    ..\..\..\..\software\kernel\raw-os\extension\lib\fifo.c 0x00000000   Number         0  fifo.o ABSOLUTE
    ..\..\..\..\software\kernel\raw-os\extension\lib\string.c 0x00000000   Number         0  string.o ABSOLUTE
    ..\..\..\..\software\kernel\raw-os\extension\shell\rsh.c 0x00000000   Number         0  rsh.o ABSOLUTE
    ..\..\..\..\software\kernel\raw-os\raw-os.c 0x00000000   Number         0  raw-os.o ABSOLUTE
    ..\..\board_common\uda1380.c             0x00000000   Number         0  uda1380.o ABSOLUTE
    ..\..\examples\touch\main.c              0x00000000   Number         0  main.o ABSOLUTE
    ..\..\startup_code\keil_startup_lpc18xx43xx.s 0x00000000   Number         0  keil_startup_lpc18xx43xx.o ABSOLUTE
    ..\..\startup_code\sysinit.c             0x00000000   Number         0  sysinit.o ABSOLUTE
    ..\\..\\..\\..\\software\\common\\another_touch.c 0x00000000   Number         0  another_touch.o ABSOLUTE
    ..\\..\\..\\..\\software\\common\\lpc43xx_gpio.c 0x00000000   Number         0  lpc43xx_gpio.o ABSOLUTE
    ..\\..\\..\\..\\software\\common\\lpc43xx_lcd.c 0x00000000   Number         0  lpc43xx_lcd.o ABSOLUTE
    ..\\..\\..\\..\\software\\common\\lpc43xx_scu.c 0x00000000   Number         0  lpc43xx_scu.o ABSOLUTE
    ..\\..\\..\\..\\software\\common\\lpc43xx_sdram.c 0x00000000   Number         0  lpc43xx_sdram.o ABSOLUTE
    ..\\..\\..\\..\\software\\common\\lpc43xx_ssp1.c 0x00000000   Number         0  lpc43xx_ssp1.o ABSOLUTE
    ..\\..\\board_common\\uda1380.c          0x00000000   Number         0  uda1380.o ABSOLUTE
    ..\\..\\examples\\touch\\main.c          0x00000000   Number         0  main.o ABSOLUTE
    ..\\..\\startup_code\\sysinit.c          0x00000000   Number         0  sysinit.o ABSOLUTE
    ..\\chip_common\\fpu_init.c              0x00000000   Number         0  fpu_init.o ABSOLUTE
    ..\chip_common\fpu_init.c                0x00000000   Number         0  fpu_init.o ABSOLUTE
    ..\chip_common\ring_buffer.c             0x00000000   Number         0  ring_buffer.o ABSOLUTE
    board.c                                  0x00000000   Number         0  board.o ABSOLUTE
    board.c                                  0x00000000   Number         0  board.o ABSOLUTE
    board_sysinit.c                          0x00000000   Number         0  board_sysinit.o ABSOLUTE
    board_sysinit.c                          0x00000000   Number         0  board_sysinit.o ABSOLUTE
    chip_18xx_43xx.c                         0x00000000   Number         0  chip_18xx_43xx.o ABSOLUTE
    chip_18xx_43xx.c                         0x00000000   Number         0  chip_18xx_43xx.o ABSOLUTE
    clock_18xx_43xx.c                        0x00000000   Number         0  clock_18xx_43xx.o ABSOLUTE
    clock_18xx_43xx.c                        0x00000000   Number         0  clock_18xx_43xx.o ABSOLUTE
    dc.s                                     0x00000000   Number         0  dc.o ABSOLUTE
    emc_18xx_43xx.c                          0x00000000   Number         0  emc_18xx_43xx.o ABSOLUTE
    emc_18xx_43xx.c                          0x00000000   Number         0  emc_18xx_43xx.o ABSOLUTE
    gpio_18xx_43xx.c                         0x00000000   Number         0  gpio_18xx_43xx.o ABSOLUTE
    gpio_18xx_43xx.c                         0x00000000   Number         0  gpio_18xx_43xx.o ABSOLUTE
    i2c_18xx_43xx.c                          0x00000000   Number         0  i2c_18xx_43xx.o ABSOLUTE
    i2c_18xx_43xx.c                          0x00000000   Number         0  i2c_18xx_43xx.o ABSOLUTE
    i2s_18xx_43xx.c                          0x00000000   Number         0  i2s_18xx_43xx.o ABSOLUTE
    i2s_18xx_43xx.c                          0x00000000   Number         0  i2s_18xx_43xx.o ABSOLUTE
    rgu_18xx_43xx.c                          0x00000000   Number         0  rgu_18xx_43xx.o ABSOLUTE
    rgu_18xx_43xx.c                          0x00000000   Number         0  rgu_18xx_43xx.o ABSOLUTE
    ssp_18xx_43xx.c                          0x00000000   Number         0  ssp_18xx_43xx.o ABSOLUTE
    ssp_18xx_43xx.c                          0x00000000   Number         0  ssp_18xx_43xx.o ABSOLUTE
    sysinit_18xx_43xx.c                      0x00000000   Number         0  sysinit_18xx_43xx.o ABSOLUTE
    sysinit_18xx_43xx.c                      0x00000000   Number         0  sysinit_18xx_43xx.o ABSOLUTE
    uart_18xx_43xx.c                         0x00000000   Number         0  uart_18xx_43xx.o ABSOLUTE
    uart_18xx_43xx.c                         0x00000000   Number         0  uart_18xx_43xx.o ABSOLUTE
    .data                                    0x10000000   Section       40  raw-os.o(.data)
    .data                                    0x10000028   Section        8  another_touch.o(.data)
    .data                                    0x10000030   Section       20  board.o(.data)
    .data                                    0x10000044   Section        4  chip_18xx_43xx.o(.data)
    .data                                    0x10000048   Section        8  clock_18xx_43xx.o(.data)
    audio_usb_pll_freq                       0x10000048   Data           8  clock_18xx_43xx.o(.data)
    .bss                                     0x10000050   Section      996  raw-os.o(.bss)
    .bss                                     0x10000434   Section     1900  main.o(.bss)
    fifo_buffer                              0x10000b20   Data         128  main.o(.bss)
    .bss                                     0x10000ba0   Section       92  another_touch.o(.bss)
    ad_buf_x                                 0x10000ba0   Data          32  another_touch.o(.bss)
    ad_buf_y                                 0x10000bc0   Data          32  another_touch.o(.bss)
    .bss                                     0x10000bfc   Section       96  libspace.o(.bss)
    HEAP                                     0x10000c60   Section      256  keil_startup_lpc18xx43xx.o(HEAP)
    Heap_Mem                                 0x10000c60   Data         256  keil_startup_lpc18xx43xx.o(HEAP)
    STACK                                    0x10000d60   Section     1536  keil_startup_lpc18xx43xx.o(STACK)
    Stack_Mem                                0x10000d60   Data        1536  keil_startup_lpc18xx43xx.o(STACK)
    __initial_sp                             0x10001360   Data           0  keil_startup_lpc18xx43xx.o(STACK)
    RESET                                    0x1a000000   Section      276  keil_startup_lpc18xx43xx.o(RESET)
    !!!main                                  0x1a000114   Section        8  __main.o(!!!main)
    !!!scatter                               0x1a00011c   Section       52  __scatter.o(!!!scatter)
    !!handler_copy                           0x1a000150   Section       26  __scatter_copy.o(!!handler_copy)
    !!handler_zi                             0x1a00016c   Section       28  __scatter_zi.o(!!handler_zi)
    .ARM.Collect$$_printf_percent$$00000000  0x1a000188   Section        0  _printf_percent.o(.ARM.Collect$$_printf_percent$$00000000)
    .ARM.Collect$$_printf_percent$$00000009  0x1a000188   Section        6  _printf_d.o(.ARM.Collect$$_printf_percent$$00000009)
    .ARM.Collect$$_printf_percent$$00000017  0x1a00018e   Section        4  _printf_percent_end.o(.ARM.Collect$$_printf_percent$$00000017)
    .ARM.Collect$$libinit$$00000000          0x1a000192   Section        2  libinit.o(.ARM.Collect$$libinit$$00000000)
    .ARM.Collect$$libinit$$00000001          0x1a000194   Section        4  libinit2.o(.ARM.Collect$$libinit$$00000001)
    .ARM.Collect$$libinit$$00000004          0x1a000198   Section        0  libinit2.o(.ARM.Collect$$libinit$$00000004)
    .ARM.Collect$$libinit$$0000000A          0x1a000198   Section        0  libinit2.o(.ARM.Collect$$libinit$$0000000A)
    .ARM.Collect$$libinit$$0000000C          0x1a000198   Section        0  libinit2.o(.ARM.Collect$$libinit$$0000000C)
    .ARM.Collect$$libinit$$0000000E          0x1a000198   Section        0  libinit2.o(.ARM.Collect$$libinit$$0000000E)
    .ARM.Collect$$libinit$$00000011          0x1a000198   Section        0  libinit2.o(.ARM.Collect$$libinit$$00000011)
    .ARM.Collect$$libinit$$00000013          0x1a000198   Section        0  libinit2.o(.ARM.Collect$$libinit$$00000013)
    .ARM.Collect$$libinit$$00000015          0x1a000198   Section        0  libinit2.o(.ARM.Collect$$libinit$$00000015)
    .ARM.Collect$$libinit$$00000017          0x1a000198   Section        0  libinit2.o(.ARM.Collect$$libinit$$00000017)
    .ARM.Collect$$libinit$$00000019          0x1a000198   Section        0  libinit2.o(.ARM.Collect$$libinit$$00000019)
    .ARM.Collect$$libinit$$0000001B          0x1a000198   Section        0  libinit2.o(.ARM.Collect$$libinit$$0000001B)
    .ARM.Collect$$libinit$$0000001D          0x1a000198   Section        0  libinit2.o(.ARM.Collect$$libinit$$0000001D)
    .ARM.Collect$$libinit$$0000001F          0x1a000198   Section        0  libinit2.o(.ARM.Collect$$libinit$$0000001F)
    .ARM.Collect$$libinit$$00000021          0x1a000198   Section        0  libinit2.o(.ARM.Collect$$libinit$$00000021)
    .ARM.Collect$$libinit$$00000023          0x1a000198   Section        0  libinit2.o(.ARM.Collect$$libinit$$00000023)
    .ARM.Collect$$libinit$$00000025          0x1a000198   Section        0  libinit2.o(.ARM.Collect$$libinit$$00000025)
    .ARM.Collect$$libinit$$0000002C          0x1a000198   Section        0  libinit2.o(.ARM.Collect$$libinit$$0000002C)
    .ARM.Collect$$libinit$$0000002E          0x1a000198   Section        0  libinit2.o(.ARM.Collect$$libinit$$0000002E)
    .ARM.Collect$$libinit$$00000030          0x1a000198   Section        0  libinit2.o(.ARM.Collect$$libinit$$00000030)
    .ARM.Collect$$libinit$$00000032          0x1a000198   Section        0  libinit2.o(.ARM.Collect$$libinit$$00000032)
    .ARM.Collect$$libinit$$00000033          0x1a000198   Section        2  libinit2.o(.ARM.Collect$$libinit$$00000033)
    .ARM.Collect$$libshutdown$$00000000      0x1a00019a   Section        2  libshutdown.o(.ARM.Collect$$libshutdown$$00000000)
    .ARM.Collect$$libshutdown$$00000002      0x1a00019c   Section        0  libshutdown2.o(.ARM.Collect$$libshutdown$$00000002)
    .ARM.Collect$$libshutdown$$00000004      0x1a00019c   Section        0  libshutdown2.o(.ARM.Collect$$libshutdown$$00000004)
    .ARM.Collect$$libshutdown$$00000007      0x1a00019c   Section        0  libshutdown2.o(.ARM.Collect$$libshutdown$$00000007)
    .ARM.Collect$$libshutdown$$0000000A      0x1a00019c   Section        0  libshutdown2.o(.ARM.Collect$$libshutdown$$0000000A)
    .ARM.Collect$$libshutdown$$0000000C      0x1a00019c   Section        0  libshutdown2.o(.ARM.Collect$$libshutdown$$0000000C)
    .ARM.Collect$$libshutdown$$0000000F      0x1a00019c   Section        0  libshutdown2.o(.ARM.Collect$$libshutdown$$0000000F)
    .ARM.Collect$$libshutdown$$00000010      0x1a00019c   Section        2  libshutdown2.o(.ARM.Collect$$libshutdown$$00000010)
    .ARM.Collect$$rtentry$$00000000          0x1a00019e   Section        0  __rtentry.o(.ARM.Collect$$rtentry$$00000000)
    .ARM.Collect$$rtentry$$00000002          0x1a00019e   Section        0  __rtentry2.o(.ARM.Collect$$rtentry$$00000002)
    .ARM.Collect$$rtentry$$00000004          0x1a00019e   Section        6  __rtentry4.o(.ARM.Collect$$rtentry$$00000004)
    .ARM.Collect$$rtentry$$00000009          0x1a0001a4   Section        0  __rtentry2.o(.ARM.Collect$$rtentry$$00000009)
    .ARM.Collect$$rtentry$$0000000A          0x1a0001a4   Section        4  __rtentry2.o(.ARM.Collect$$rtentry$$0000000A)
    .ARM.Collect$$rtentry$$0000000C          0x1a0001a8   Section        0  __rtentry2.o(.ARM.Collect$$rtentry$$0000000C)
    .ARM.Collect$$rtentry$$0000000D          0x1a0001a8   Section        8  __rtentry2.o(.ARM.Collect$$rtentry$$0000000D)
    .ARM.Collect$$rtexit$$00000000           0x1a0001b0   Section        2  rtexit.o(.ARM.Collect$$rtexit$$00000000)
    .ARM.Collect$$rtexit$$00000002           0x1a0001b2   Section        0  rtexit2.o(.ARM.Collect$$rtexit$$00000002)
    .ARM.Collect$$rtexit$$00000003           0x1a0001b2   Section        4  rtexit2.o(.ARM.Collect$$rtexit$$00000003)
    .ARM.Collect$$rtexit$$00000004           0x1a0001b6   Section        6  rtexit2.o(.ARM.Collect$$rtexit$$00000004)
    .text                                    0x1a0001bc   Section        0  raw-os.o(.text)
    list_insert                              0x1a0001bd   Thumb Code    14  raw-os.o(.text)
    debug_head_list_init                     0x1a00022b   Thumb Code    58  raw-os.o(.text)
    bit_set                                  0x1a00028f   Thumb Code    26  raw-os.o(.text)
    add_to_priority_list                     0x1a000567   Thumb Code    50  raw-os.o(.text)
    pend_task_wake_up                        0x1a000745   Thumb Code   108  raw-os.o(.text)
    release_mutex                            0x1a000f8b   Thumb Code    32  raw-os.o(.text)
    raw_byte_pool_search                     0x1a0014e1   Thumb Code   254  raw-os.o(.text)
    msg_to_end_buffer                        0x1a0021f5   Thumb Code   104  raw-os.o(.text)
    buffer_to_msg                            0x1a00225d   Thumb Code   108  raw-os.o(.text)
    list_init                                0x1a003121   Thumb Code     6  raw-os.o(.text)
    is_list_empty                            0x1a003127   Thumb Code    16  raw-os.o(.text)
    list_delete                              0x1a003137   Thumb Code    14  raw-os.o(.text)
    .text                                    0x1a003148   Section        0  fifo.o(.text)
    fifo_unused                              0x1a003149   Thumb Code    16  fifo.o(.text)
    is_power_of_2                            0x1a003159   Thumb Code    18  fifo.o(.text)
    fifo_copy_in                             0x1a0031ad   Thumb Code    68  fifo.o(.text)
    kfifo_copy_out                           0x1a00323f   Thumb Code    70  fifo.o(.text)
    internal_fifo_out_peek                   0x1a003285   Thumb Code    40  fifo.o(.text)
    .text                                    0x1a003370   Section      164  cpu.o(.text)
    $v0                                      0x1a003370   Number         0  cpu.o(.text)
    .text                                    0x1a003414   Section        0  port.o(.text)
    .text                                    0x1a0035ce   Section        0  port_hook.o(.text)
    .text                                    0x1a0035e0   Section        0  user_extension.o(.text)
    .text                                    0x1a003680   Section        0  port_error_process.o(.text)
    .text                                    0x1a0036f8   Section       68  keil_startup_lpc18xx43xx.o(.text)
    $v0                                      0x1a0036f8   Number         0  keil_startup_lpc18xx43xx.o(.text)
    .text                                    0x1a00373c   Section        0  sysinit.o(.text)
    .text                                    0x1a003758   Section        0  lpc43xx_scu.o(.text)
    .text                                    0x1a00377c   Section        0  lpc43xx_sdram.o(.text)
    .text                                    0x1a003c2c   Section        0  lpc43xx_gpio.o(.text)
    .text                                    0x1a003c78   Section        0  main.o(.text)
    NVIC_SetPriority                         0x1a003c79   Thumb Code    32  main.o(.text)
    uart_3_irq                               0x1a003d31   Thumb Code    58  main.o(.text)
    uart3_int_init                           0x1a003d7b   Thumb Code    32  main.o(.text)
    NVIC_EnableIRQ                           0x1a003e69   Thumb Code    22  main.o(.text)
    .text                                    0x1a003ee4   Section        0  lpc43xx_ssp1.o(.text)
    .text                                    0x1a003f8c   Section        0  another_touch.o(.text)
    SPI_WriteByte                            0x1a003f8d   Thumb Code    12  another_touch.o(.text)
    InsertSort                               0x1a00402d   Thumb Code    56  another_touch.o(.text)
    __touch_x_y_get                          0x1a004065   Thumb Code    82  another_touch.o(.text)
    .text                                    0x1a004230   Section      238  lludivv7m.o(.text)
    .text                                    0x1a004320   Section        0  noretval__2printf.o(.text)
    .text                                    0x1a004338   Section        0  __printf.o(.text)
    .text                                    0x1a0043a0   Section        0  _printf_dec.o(.text)
    .text                                    0x1a004418   Section        0  heapauxi.o(.text)
    .text                                    0x1a00441e   Section        0  _printf_intcommon.o(.text)
    .text                                    0x1a0044d0   Section        0  _printf_char_file.o(.text)
    .text                                    0x1a0044f4   Section        0  _printf_char_common.o(.text)
    _printf_input_char                       0x1a0044f5   Thumb Code    10  _printf_char_common.o(.text)
    .text                                    0x1a004524   Section       74  sys_stackheap_outer.o(.text)
    .text                                    0x1a00456e   Section        0  exit.o(.text)
    .text                                    0x1a004580   Section        8  libspace.o(.text)
    i.Board_SetupClocking                    0x1a004588   Section        0  board_sysinit.o(i.Board_SetupClocking)
    i.Board_SetupMuxing                      0x1a00463c   Section        0  board_sysinit.o(i.Board_SetupMuxing)
    i.Board_SystemInit                       0x1a004688   Section        0  board_sysinit.o(i.Board_SystemInit)
    i.Board_UARTPutChar                      0x1a004694   Section        0  board.o(i.Board_UARTPutChar)
    i.Board_UART_Init                        0x1a0046b4   Section        0  board.o(i.Board_UART_Init)
    i.Chip_Clock_EnableOpts                  0x1a0046f8   Section        0  clock_18xx_43xx.o(i.Chip_Clock_EnableOpts)
    i.Chip_Clock_FindBaseClock               0x1a004734   Section        0  clock_18xx_43xx.o(i.Chip_Clock_FindBaseClock)
    Chip_Clock_FindBaseClock                 0x1a004735   Thumb Code    74  clock_18xx_43xx.o(i.Chip_Clock_FindBaseClock)
    i.Chip_Clock_GetBaseClock                0x1a004784   Section        0  clock_18xx_43xx.o(i.Chip_Clock_GetBaseClock)
    i.Chip_Clock_GetBaseClocktHz             0x1a0047a8   Section        0  clock_18xx_43xx.o(i.Chip_Clock_GetBaseClocktHz)
    i.Chip_Clock_GetClockInputHz             0x1a0047bc   Section        0  clock_18xx_43xx.o(i.Chip_Clock_GetClockInputHz)
    i.Chip_Clock_GetDivRate                  0x1a004890   Section        0  clock_18xx_43xx.o(i.Chip_Clock_GetDivRate)
    Chip_Clock_GetDivRate                    0x1a004891   Thumb Code    40  clock_18xx_43xx.o(i.Chip_Clock_GetDivRate)
    i.Chip_Clock_GetDividerDivisor           0x1a0048b8   Section        0  clock_18xx_43xx.o(i.Chip_Clock_GetDividerDivisor)
    i.Chip_Clock_GetDividerSource            0x1a0048d8   Section        0  clock_18xx_43xx.o(i.Chip_Clock_GetDividerSource)
    i.Chip_Clock_GetMainPLLHz                0x1a0048f8   Section        0  clock_18xx_43xx.o(i.Chip_Clock_GetMainPLLHz)
    i.Chip_Clock_GetRate                     0x1a004970   Section        0  clock_18xx_43xx.o(i.Chip_Clock_GetRate)
    i.Chip_Clock_SetBaseClock                0x1a0049c8   Section        0  clock_18xx_43xx.o(i.Chip_Clock_SetBaseClock)
    i.Chip_Clock_SetDivider                  0x1a004a10   Section        0  clock_18xx_43xx.o(i.Chip_Clock_SetDivider)
    i.Chip_SCU_PinMuxSet                     0x1a004a60   Section        0  board.o(i.Chip_SCU_PinMuxSet)
    Chip_SCU_PinMuxSet                       0x1a004a61   Thumb Code    12  board.o(i.Chip_SCU_PinMuxSet)
    i.Chip_SCU_SetPinMuxing                  0x1a004a70   Section        0  board_sysinit.o(i.Chip_SCU_SetPinMuxing)
    Chip_SCU_SetPinMuxing                    0x1a004a71   Thumb Code    44  board_sysinit.o(i.Chip_SCU_SetPinMuxing)
    i.Chip_SetupCoreClock                    0x1a004aa0   Section        0  sysinit_18xx_43xx.o(i.Chip_SetupCoreClock)
    i.Chip_UART_DisableDivisorAccess         0x1a004aae   Section        0  uart_18xx_43xx.o(i.Chip_UART_DisableDivisorAccess)
    Chip_UART_DisableDivisorAccess           0x1a004aaf   Thumb Code    10  uart_18xx_43xx.o(i.Chip_UART_DisableDivisorAccess)
    i.Chip_UART_EnableDivisorAccess          0x1a004ab8   Section        0  uart_18xx_43xx.o(i.Chip_UART_EnableDivisorAccess)
    Chip_UART_EnableDivisorAccess            0x1a004ab9   Thumb Code    10  uart_18xx_43xx.o(i.Chip_UART_EnableDivisorAccess)
    i.Chip_UART_GetClockIndex                0x1a004ac4   Section        0  uart_18xx_43xx.o(i.Chip_UART_GetClockIndex)
    Chip_UART_GetClockIndex                  0x1a004ac5   Thumb Code    36  uart_18xx_43xx.o(i.Chip_UART_GetClockIndex)
    i.Chip_UART_Init                         0x1a004af4   Section        0  uart_18xx_43xx.o(i.Chip_UART_Init)
    i.Chip_UART_SetBaud                      0x1a004b40   Section        0  uart_18xx_43xx.o(i.Chip_UART_SetBaud)
    i.Chip_UART_SetDivisorLatches            0x1a004b82   Section        0  uart_18xx_43xx.o(i.Chip_UART_SetDivisorLatches)
    Chip_UART_SetDivisorLatches              0x1a004b83   Thumb Code     6  uart_18xx_43xx.o(i.Chip_UART_SetDivisorLatches)
    i.SystemCoreClockUpdate                  0x1a004b88   Section        0  chip_18xx_43xx.o(i.SystemCoreClockUpdate)
    i._sys_exit                              0x1a004b9c   Section        0  board.o(i._sys_exit)
    i.clock_init_delay                       0x1a004ba2   Section        0  sysinit_18xx_43xx.o(i.clock_init_delay)
    clock_init_delay                         0x1a004ba3   Thumb Code    36  sysinit_18xx_43xx.o(i.clock_init_delay)
    i.clock_main_init                        0x1a004bc8   Section        0  sysinit_18xx_43xx.o(i.clock_main_init)
    clock_main_init                          0x1a004bc9   Thumb Code   168  sysinit_18xx_43xx.o(i.clock_main_init)
    i.ferror                                 0x1a004c84   Section        0  board.o(i.ferror)
    i.fpuInit                                0x1a004c8c   Section        0  fpu_init.o(i.fpuInit)
    i.fputc                                  0x1a004cdc   Section        0  board.o(i.fputc)
    x$fpl$fpinit                             0x1a004cf0   Section       10  fpinit.o(x$fpl$fpinit)
    $v0                                      0x1a004cf0   Number         0  fpinit.o(x$fpl$fpinit)
    .constdata                               0x1a004cfc   Section       64  board.o(.constdata)
    ledports                                 0x1a004cfc   Data           8  board.o(.constdata)
    ledbits                                  0x1a004d04   Data           8  board.o(.constdata)
    .constdata                               0x1a004d3c   Section      700  board_sysinit.o(.constdata)
    InitClkStates                            0x1a004d3c   Data          16  board_sysinit.o(.constdata)
    spifipinmuxing                           0x1a004d4c   Data          24  board_sysinit.o(.constdata)
    pinmuxing                                0x1a004d64   Data         496  board_sysinit.o(.constdata)
    pinclockmuxing                           0x1a004f54   Data          16  board_sysinit.o(.constdata)
    MT48LC4M32_config                        0x1a004f64   Data         116  board_sysinit.o(.constdata)
    S29GL64N90_config                        0x1a004fd8   Data          32  board_sysinit.o(.constdata)
    .constdata                               0x1a004ff8   Section      108  clock_18xx_43xx.o(.constdata)
    periph_to_base                           0x1a004ff8   Data         108  clock_18xx_43xx.o(.constdata)
    .constdata                               0x1a005064   Section       72  sysinit_18xx_43xx.o(.constdata)
    InitClkStates                            0x1a005064   Data          72  sysinit_18xx_43xx.o(.constdata)

    Global Symbols

    Symbol Name                              Value     Ov Type        Size  Object(Section)

    BuildAttributes$$THM_ISAv4$E$P$D$K$B$S$7EM$VFPi3$EXTD16$VFPS$VFMA$PE$A:L22UL41UL21$X:L11$S22US41US21$IEEE1$IW$USESV6$~STKCKD$USESV7$~SHL$OSPACE$ROPI$EBA8$UX$STANDARDLIB$REQ8$PRES8$EABIv2 0x00000000   Number         0  anon$$obj.o ABSOLUTE
    __ARM_use_no_argv                        0x00000000   Number         0  main.o ABSOLUTE
    __ARM_exceptions_init                     - Undefined Weak Reference
    __alloca_initialize                       - Undefined Weak Reference
    __arm_preinit_                            - Undefined Weak Reference
    __cpp_initialize__aeabi_                  - Undefined Weak Reference
    __cxa_finalize                            - Undefined Weak Reference
    __rt_locale                               - Undefined Weak Reference
    __sigvec_lookup                           - Undefined Weak Reference
    _atexit_init                              - Undefined Weak Reference
    _call_atexit_fns                          - Undefined Weak Reference
    _clock_init                               - Undefined Weak Reference
    _fp_trap_init                             - Undefined Weak Reference
    _fp_trap_shutdown                         - Undefined Weak Reference
    _get_lc_collate                           - Undefined Weak Reference
    _get_lc_ctype                             - Undefined Weak Reference
    _get_lc_monetary                          - Undefined Weak Reference
    _get_lc_numeric                           - Undefined Weak Reference
    _get_lc_time                              - Undefined Weak Reference
    _getenv_init                              - Undefined Weak Reference
    _handle_redirection                       - Undefined Weak Reference
    _init_alloc                               - Undefined Weak Reference
    _init_user_alloc                          - Undefined Weak Reference
    _initio                                   - Undefined Weak Reference
    _printf_post_padding                      - Undefined Weak Reference
    _printf_pre_padding                       - Undefined Weak Reference
    _printf_truncate_signed                   - Undefined Weak Reference
    _printf_truncate_unsigned                 - Undefined Weak Reference
    _rand_init                                - Undefined Weak Reference
    _signal_finish                            - Undefined Weak Reference
    _signal_init                              - Undefined Weak Reference
    _terminate_alloc                          - Undefined Weak Reference
    _terminate_user_alloc                     - Undefined Weak Reference
    _terminateio                              - Undefined Weak Reference
    raw_os_active                            0x10000000   Data           2  raw-os.o(.data)
    idle_task_exit                           0x10000002   Data           1  raw-os.o(.data)
    raw_sched_lock                           0x10000003   Data           1  raw-os.o(.data)
    raw_int_nesting                          0x10000004   Data           1  raw-os.o(.data)
    high_ready_obj                           0x10000008   Data           4  raw-os.o(.data)
    raw_task_active                          0x1000000c   Data           4  raw-os.o(.data)
    raw_idle_count                           0x10000010   Data           8  raw-os.o(.data)
    raw_tick_count                           0x10000018   Data           4  raw-os.o(.data)
    sys_time_tick                            0x10000020   Data           8  raw-os.o(.data)
    g_touchXSize                             0x10000028   Data           4  another_touch.o(.data)
    g_touchYSize                             0x1000002c   Data           4  another_touch.o(.data)
    __stdout                                 0x10000030   Data           4  board.o(.data)
    __stdin                                  0x10000034   Data           4  board.o(.data)
    __stderr                                 0x10000038   Data           4  board.o(.data)
    g_isPenDn                                0x1000003c   Data           4  board.o(.data)
    g_isNewPenDn                             0x10000040   Data           4  board.o(.data)
    SystemCoreClock                          0x10000044   Data           4  chip_18xx_43xx.o(.data)
    raw_ready_queue                          0x10000050   Data         508  raw-os.o(.bss)
    raw_idle_obj                             0x1000024c   Data         112  raw-os.o(.bss)
    idle_stack                               0x100002bc   Data         256  raw-os.o(.bss)
    tick_head                                0x100003bc   Data          64  raw-os.o(.bss)
    raw_task_debug                           0x100003fc   Data          56  raw-os.o(.bss)
    shell_task_stack                         0x10000434   Data        1600  main.o(.bss)
    shell_task_obj                           0x10000a74   Data         112  main.o(.bss)
    uart_sema                                0x10000ae4   Data          36  main.o(.bss)
    uart_fifo                                0x10000b08   Data          24  main.o(.bss)
    g_touchCalA                              0x10000be0   Data          28  another_touch.o(.bss)
    __libspace_start                         0x10000bfc   Data          96  libspace.o(.bss)
    __temporary_stack_top$libspace           0x10000c5c   Data           0  libspace.o(.bss)
    __Vectors                                0x1a000000   Data           4  keil_startup_lpc18xx43xx.o(RESET)
    __main                                   0x1a000115   Thumb Code     8  __main.o(!!!main)
    __scatterload                            0x1a00011d   Thumb Code     0  __scatter.o(!!!scatter)
    __scatterload_rt2                        0x1a00011d   Thumb Code    44  __scatter.o(!!!scatter)
    __scatterload_rt2_thumb_only             0x1a00011d   Thumb Code     0  __scatter.o(!!!scatter)
    __scatterload_null                       0x1a00012b   Thumb Code     0  __scatter.o(!!!scatter)
    __scatterload_copy                       0x1a000151   Thumb Code    26  __scatter_copy.o(!!handler_copy)
    __scatterload_zeroinit                   0x1a00016d   Thumb Code    28  __scatter_zi.o(!!handler_zi)
    _printf_d                                0x1a000189   Thumb Code     0  _printf_d.o(.ARM.Collect$$_printf_percent$$00000009)
    _printf_percent                          0x1a000189   Thumb Code     0  _printf_percent.o(.ARM.Collect$$_printf_percent$$00000000)
    _printf_percent_end                      0x1a00018f   Thumb Code     0  _printf_percent_end.o(.ARM.Collect$$_printf_percent$$00000017)
    __rt_lib_init                            0x1a000193   Thumb Code     0  libinit.o(.ARM.Collect$$libinit$$00000000)
    __rt_lib_init_fp_1                       0x1a000195   Thumb Code     0  libinit2.o(.ARM.Collect$$libinit$$00000001)
    __rt_lib_init_alloca_1                   0x1a000199   Thumb Code     0  libinit2.o(.ARM.Collect$$libinit$$0000002E)
    __rt_lib_init_argv_1                     0x1a000199   Thumb Code     0  libinit2.o(.ARM.Collect$$libinit$$0000002C)
    __rt_lib_init_atexit_1                   0x1a000199   Thumb Code     0  libinit2.o(.ARM.Collect$$libinit$$0000001B)
    __rt_lib_init_clock_1                    0x1a000199   Thumb Code     0  libinit2.o(.ARM.Collect$$libinit$$00000021)
    __rt_lib_init_cpp_1                      0x1a000199   Thumb Code     0  libinit2.o(.ARM.Collect$$libinit$$00000032)
    __rt_lib_init_exceptions_1               0x1a000199   Thumb Code     0  libinit2.o(.ARM.Collect$$libinit$$00000030)
    __rt_lib_init_fp_trap_1                  0x1a000199   Thumb Code     0  libinit2.o(.ARM.Collect$$libinit$$0000001F)
    __rt_lib_init_getenv_1                   0x1a000199   Thumb Code     0  libinit2.o(.ARM.Collect$$libinit$$00000023)
    __rt_lib_init_heap_1                     0x1a000199   Thumb Code     0  libinit2.o(.ARM.Collect$$libinit$$0000000A)
    __rt_lib_init_lc_collate_1               0x1a000199   Thumb Code     0  libinit2.o(.ARM.Collect$$libinit$$00000011)
    __rt_lib_init_lc_ctype_1                 0x1a000199   Thumb Code     0  libinit2.o(.ARM.Collect$$libinit$$00000013)
    __rt_lib_init_lc_monetary_1              0x1a000199   Thumb Code     0  libinit2.o(.ARM.Collect$$libinit$$00000015)
    __rt_lib_init_lc_numeric_1               0x1a000199   Thumb Code     0  libinit2.o(.ARM.Collect$$libinit$$00000017)
    __rt_lib_init_lc_time_1                  0x1a000199   Thumb Code     0  libinit2.o(.ARM.Collect$$libinit$$00000019)
    __rt_lib_init_preinit_1                  0x1a000199   Thumb Code     0  libinit2.o(.ARM.Collect$$libinit$$00000004)
    __rt_lib_init_rand_1                     0x1a000199   Thumb Code     0  libinit2.o(.ARM.Collect$$libinit$$0000000E)
    __rt_lib_init_return                     0x1a000199   Thumb Code     0  libinit2.o(.ARM.Collect$$libinit$$00000033)
    __rt_lib_init_signal_1                   0x1a000199   Thumb Code     0  libinit2.o(.ARM.Collect$$libinit$$0000001D)
    __rt_lib_init_stdio_1                    0x1a000199   Thumb Code     0  libinit2.o(.ARM.Collect$$libinit$$00000025)
    __rt_lib_init_user_alloc_1               0x1a000199   Thumb Code     0  libinit2.o(.ARM.Collect$$libinit$$0000000C)
    __rt_lib_shutdown                        0x1a00019b   Thumb Code     0  libshutdown.o(.ARM.Collect$$libshutdown$$00000000)
    __rt_lib_shutdown_cpp_1                  0x1a00019d   Thumb Code     0  libshutdown2.o(.ARM.Collect$$libshutdown$$00000002)
    __rt_lib_shutdown_fp_trap_1              0x1a00019d   Thumb Code     0  libshutdown2.o(.ARM.Collect$$libshutdown$$00000007)
    __rt_lib_shutdown_heap_1                 0x1a00019d   Thumb Code     0  libshutdown2.o(.ARM.Collect$$libshutdown$$0000000F)
    __rt_lib_shutdown_return                 0x1a00019d   Thumb Code     0  libshutdown2.o(.ARM.Collect$$libshutdown$$00000010)
    __rt_lib_shutdown_signal_1               0x1a00019d   Thumb Code     0  libshutdown2.o(.ARM.Collect$$libshutdown$$0000000A)
    __rt_lib_shutdown_stdio_1                0x1a00019d   Thumb Code     0  libshutdown2.o(.ARM.Collect$$libshutdown$$00000004)
    __rt_lib_shutdown_user_alloc_1           0x1a00019d   Thumb Code     0  libshutdown2.o(.ARM.Collect$$libshutdown$$0000000C)
    __rt_entry                               0x1a00019f   Thumb Code     0  __rtentry.o(.ARM.Collect$$rtentry$$00000000)
    __rt_entry_presh_1                       0x1a00019f   Thumb Code     0  __rtentry2.o(.ARM.Collect$$rtentry$$00000002)
    __rt_entry_sh                            0x1a00019f   Thumb Code     0  __rtentry4.o(.ARM.Collect$$rtentry$$00000004)
    __rt_entry_li                            0x1a0001a5   Thumb Code     0  __rtentry2.o(.ARM.Collect$$rtentry$$0000000A)
    __rt_entry_postsh_1                      0x1a0001a5   Thumb Code     0  __rtentry2.o(.ARM.Collect$$rtentry$$00000009)
    __rt_entry_main                          0x1a0001a9   Thumb Code     0  __rtentry2.o(.ARM.Collect$$rtentry$$0000000D)
    __rt_entry_postli_1                      0x1a0001a9   Thumb Code     0  __rtentry2.o(.ARM.Collect$$rtentry$$0000000C)
    __rt_exit                                0x1a0001b1   Thumb Code     0  rtexit.o(.ARM.Collect$$rtexit$$00000000)
    __rt_exit_ls                             0x1a0001b3   Thumb Code     0  rtexit2.o(.ARM.Collect$$rtexit$$00000003)
    __rt_exit_prels_1                        0x1a0001b3   Thumb Code     0  rtexit2.o(.ARM.Collect$$rtexit$$00000002)
    __rt_exit_exit                           0x1a0001b7   Thumb Code     0  rtexit2.o(.ARM.Collect$$rtexit$$00000004)
    get_ready_task                           0x1a0001cb   Thumb Code    18  raw-os.o(.text)
    raw_sched                                0x1a0001dd   Thumb Code    78  raw-os.o(.text)
    raw_idle_task                            0x1a000265   Thumb Code    42  raw-os.o(.text)
    add_ready_list_end                       0x1a0002a9   Thumb Code    40  raw-os.o(.text)
    raw_task_create                          0x1a0002d1   Thumb Code   320  raw-os.o(.text)
    tick_list_init                           0x1a000411   Thumb Code    26  raw-os.o(.text)
    run_queue_init                           0x1a00042b   Thumb Code    32  raw-os.o(.text)
    raw_os_init                              0x1a00044b   Thumb Code    68  raw-os.o(.text)
    raw_os_start                             0x1a00048f   Thumb Code    44  raw-os.o(.text)
    move_to_ready_list_end                   0x1a0004bb   Thumb Code    30  raw-os.o(.text)
    calculate_time_slice                     0x1a0004d9   Thumb Code   142  raw-os.o(.text)
    add_ready_list_head                      0x1a000599   Thumb Code   104  raw-os.o(.text)
    add_ready_list                           0x1a000601   Thumb Code    38  raw-os.o(.text)
    bit_search_first_one                     0x1a000627   Thumb Code   146  raw-os.o(.text)
    remove_ready_list                        0x1a0006b9   Thumb Code   118  raw-os.o(.text)
    tick_list_remove                         0x1a00072f   Thumb Code    22  raw-os.o(.text)
    raw_wake_object                          0x1a0007b1   Thumb Code    12  raw-os.o(.text)
    wake_send_msg                            0x1a0007bd   Thumb Code    16  raw-os.o(.text)
    wake_send_msg_size                       0x1a0007cd   Thumb Code    20  raw-os.o(.text)
    tick_list_insert                         0x1a0007e1   Thumb Code   106  raw-os.o(.text)
    raw_pend_object                          0x1a00084b   Thumb Code    70  raw-os.o(.text)
    delete_pend_obj                          0x1a000891   Thumb Code   110  raw-os.o(.text)
    change_pend_list_priority                0x1a0008ff   Thumb Code    26  raw-os.o(.text)
    raw_task_stack_check                     0x1a000919   Thumb Code    56  raw-os.o(.text)
    raw_disable_sche                         0x1a000951   Thumb Code    62  raw-os.o(.text)
    raw_enable_sche                          0x1a00098f   Thumb Code    84  raw-os.o(.text)
    block_state_post_process                 0x1a0009e3   Thumb Code   100  raw-os.o(.text)
    raw_sleep                                0x1a000a47   Thumb Code   128  raw-os.o(.text)
    raw_task_yield                           0x1a000ac7   Thumb Code    44  raw-os.o(.text)
    raw_time_sleep                           0x1a000af3   Thumb Code   110  raw-os.o(.text)
    task_suspend                             0x1a000b61   Thumb Code   196  raw-os.o(.text)
    raw_task_suspend                         0x1a000c25   Thumb Code    32  raw-os.o(.text)
    task_resume                              0x1a000c45   Thumb Code   174  raw-os.o(.text)
    raw_task_resume                          0x1a000cf3   Thumb Code    20  raw-os.o(.text)
    mutex_priority_look                      0x1a000d07   Thumb Code    98  raw-os.o(.text)
    change_internal_task_priority            0x1a000d69   Thumb Code   228  raw-os.o(.text)
    chg_pri_mutex                            0x1a000e4d   Thumb Code   134  raw-os.o(.text)
    raw_task_priority_change                 0x1a000ed3   Thumb Code   184  raw-os.o(.text)
    mutex_state_change                       0x1a000fab   Thumb Code    40  raw-os.o(.text)
    raw_task_free_mutex                      0x1a000fd3   Thumb Code    82  raw-os.o(.text)
    raw_task_delete                          0x1a001025   Thumb Code   230  raw-os.o(.text)
    raw_set_task_user_point                  0x1a00110b   Thumb Code    44  raw-os.o(.text)
    raw_get_task_user_point                  0x1a001137   Thumb Code    12  raw-os.o(.text)
    raw_task_time_slice_change               0x1a001143   Thumb Code    66  raw-os.o(.text)
    raw_set_sched_way                        0x1a001185   Thumb Code    68  raw-os.o(.text)
    raw_get_sched_way                        0x1a0011c9   Thumb Code    64  raw-os.o(.text)
    raw_task_wait_abort                      0x1a001209   Thumb Code   212  raw-os.o(.text)
    raw_task_identify                        0x1a0012dd   Thumb Code     6  raw-os.o(.text)
    raw_iter_block_task                      0x1a0012e3   Thumb Code    86  raw-os.o(.text)
    raw_get_system_global_space              0x1a001339   Thumb Code     8  raw-os.o(.text)
    raw_block_pool_create                    0x1a001341   Thumb Code   138  raw-os.o(.text)
    raw_block_allocate                       0x1a0013cb   Thumb Code    94  raw-os.o(.text)
    raw_block_release                        0x1a001429   Thumb Code    78  raw-os.o(.text)
    raw_byte_pool_create                     0x1a001477   Thumb Code   106  raw-os.o(.text)
    raw_byte_allocate                        0x1a0015df   Thumb Code   146  raw-os.o(.text)
    raw_byte_release                         0x1a001671   Thumb Code   108  raw-os.o(.text)
    raw_event_create                         0x1a0016dd   Thumb Code    48  raw-os.o(.text)
    raw_event_get                            0x1a00170d   Thumb Code   282  raw-os.o(.text)
    event_set                                0x1a001827   Thumb Code   208  raw-os.o(.text)
    raw_event_set                            0x1a0018f7   Thumb Code    40  raw-os.o(.text)
    raw_event_delete                         0x1a00191f   Thumb Code   114  raw-os.o(.text)
    raw_mutex_create                         0x1a001991   Thumb Code    78  raw-os.o(.text)
    raw_mutex_get                            0x1a0019df   Thumb Code   380  raw-os.o(.text)
    raw_mutex_put                            0x1a001b5b   Thumb Code   210  raw-os.o(.text)
    raw_mutex_delete                         0x1a001c2d   Thumb Code   122  raw-os.o(.text)
    raw_queue_create                         0x1a001ca7   Thumb Code    92  raw-os.o(.text)
    raw_queue_full_register                  0x1a001d03   Thumb Code    46  raw-os.o(.text)
    msg_post                                 0x1a001d31   Thumb Code   244  raw-os.o(.text)
    raw_queue_front_post                     0x1a001e25   Thumb Code    36  raw-os.o(.text)
    raw_queue_end_post                       0x1a001e49   Thumb Code    36  raw-os.o(.text)
    raw_queue_post_notify                    0x1a001e6d   Thumb Code    36  raw-os.o(.text)
    raw_queue_all_post                       0x1a001e91   Thumb Code    38  raw-os.o(.text)
    raw_queue_send_notify                    0x1a001eb7   Thumb Code    94  raw-os.o(.text)
    raw_queue_receive                        0x1a001f15   Thumb Code   248  raw-os.o(.text)
    raw_queue_full_check                     0x1a00200d   Thumb Code    78  raw-os.o(.text)
    raw_queue_flush                          0x1a00205b   Thumb Code    84  raw-os.o(.text)
    raw_queue_delete                         0x1a0020af   Thumb Code   110  raw-os.o(.text)
    raw_queue_get_information                0x1a00211d   Thumb Code    96  raw-os.o(.text)
    raw_queue_buffer_create                  0x1a00217d   Thumb Code   120  raw-os.o(.text)
    queue_buffer_post                        0x1a0022c9   Thumb Code   172  raw-os.o(.text)
    raw_queue_buffer_end_post                0x1a002375   Thumb Code    48  raw-os.o(.text)
    raw_queue_buffer_receive                 0x1a0023a5   Thumb Code   250  raw-os.o(.text)
    raw_queue_buffer_flush                   0x1a00249f   Thumb Code    82  raw-os.o(.text)
    raw_queue_buffer_delete                  0x1a0024f1   Thumb Code   110  raw-os.o(.text)
    raw_queue_buffer_info_get                0x1a00255f   Thumb Code    92  raw-os.o(.text)
    raw_queue_size_create                    0x1a0025bb   Thumb Code   118  raw-os.o(.text)
    raw_queue_size_full_register             0x1a002631   Thumb Code    46  raw-os.o(.text)
    msg_size_post                            0x1a00265f   Thumb Code   244  raw-os.o(.text)
    raw_queue_size_receive                   0x1a002753   Thumb Code   308  raw-os.o(.text)
    raw_queue_size_front_post                0x1a002887   Thumb Code    42  raw-os.o(.text)
    raw_queue_size_end_post                  0x1a0028b1   Thumb Code    42  raw-os.o(.text)
    raw_queue_size_all_post                  0x1a0028db   Thumb Code    44  raw-os.o(.text)
    raw_queue_size_full_check                0x1a002907   Thumb Code    78  raw-os.o(.text)
    raw_queue_size_flush                     0x1a002955   Thumb Code    94  raw-os.o(.text)
    raw_queue_size_delete                    0x1a0029b3   Thumb Code   110  raw-os.o(.text)
    raw_queue_size_get_information           0x1a002a21   Thumb Code    92  raw-os.o(.text)
    raw_semaphore_create                     0x1a002a7d   Thumb Code    60  raw-os.o(.text)
    semaphore_put                            0x1a002ab9   Thumb Code   166  raw-os.o(.text)
    raw_semaphore_put                        0x1a002b5f   Thumb Code    22  raw-os.o(.text)
    raw_semaphore_put_notify                 0x1a002b75   Thumb Code    22  raw-os.o(.text)
    raw_semaphore_put_all                    0x1a002b8b   Thumb Code    22  raw-os.o(.text)
    raw_semphore_send_notify                 0x1a002ba1   Thumb Code    76  raw-os.o(.text)
    raw_semaphore_get                        0x1a002bed   Thumb Code   196  raw-os.o(.text)
    raw_semaphore_set                        0x1a002cb1   Thumb Code   114  raw-os.o(.text)
    raw_semaphore_delete                     0x1a002d23   Thumb Code   110  raw-os.o(.text)
    raw_stack_check                          0x1a002d91   Thumb Code    72  raw-os.o(.text)
    raw_finish_int                           0x1a002dd9   Thumb Code   118  raw-os.o(.text)
    tick_list_update                         0x1a002e4f   Thumb Code   268  raw-os.o(.text)
    raw_time_tick                            0x1a002f5b   Thumb Code    40  raw-os.o(.text)
    raw_enter_interrupt                      0x1a002f83   Thumb Code    84  raw-os.o(.text)
    raw_system_time_get                      0x1a002fd7   Thumb Code    86  raw-os.o(.text)
    raw_os_version_get                       0x1a00302d   Thumb Code     6  raw-os.o(.text)
    raw_task_qsize_create                    0x1a003033   Thumb Code    34  raw-os.o(.text)
    raw_task_qsize_receive                   0x1a003055   Thumb Code    26  raw-os.o(.text)
    raw_task_qsize_front_post                0x1a00306f   Thumb Code    20  raw-os.o(.text)
    raw_task_qsize_end_post                  0x1a003083   Thumb Code    20  raw-os.o(.text)
    raw_task_qsize_flush                     0x1a003097   Thumb Code    12  raw-os.o(.text)
    raw_task_qsize_delete                    0x1a0030a3   Thumb Code    12  raw-os.o(.text)
    raw_task_qsize_get_information           0x1a0030af   Thumb Code    28  raw-os.o(.text)
    raw_task_semaphore_create                0x1a0030cb   Thumb Code    28  raw-os.o(.text)
    raw_task_semaphore_put                   0x1a0030e7   Thumb Code    12  raw-os.o(.text)
    raw_task_semaphore_get                   0x1a0030f3   Thumb Code    18  raw-os.o(.text)
    raw_task_semaphore_set                   0x1a003105   Thumb Code    16  raw-os.o(.text)
    raw_task_semaphore_delete                0x1a003115   Thumb Code    12  raw-os.o(.text)
    fifo_init                                0x1a00316b   Thumb Code    66  fifo.o(.text)
    fifo_in                                  0x1a0031f1   Thumb Code    78  fifo.o(.text)
    fifo_out_peek                            0x1a0032ad   Thumb Code    50  fifo.o(.text)
    fifo_out                                 0x1a0032df   Thumb Code    62  fifo.o(.text)
    fifo_out_all                             0x1a00331d   Thumb Code    82  fifo.o(.text)
    OS_CPU_SR_Save                           0x1a003371   Thumb Code     0  cpu.o(.text)
    OS_CPU_SR_Restore                        0x1a003379   Thumb Code     0  cpu.o(.text)
    CPU_IntDis                               0x1a00337f   Thumb Code     0  cpu.o(.text)
    CPU_IntEn                                0x1a003383   Thumb Code     0  cpu.o(.text)
    raw_start_first_task                     0x1a003387   Thumb Code     0  cpu.o(.text)
    port_task_switch                         0x1a0033af   Thumb Code     0  cpu.o(.text)
    raw_int_switch                           0x1a0033b9   Thumb Code     0  cpu.o(.text)
    PendSV_Handler                           0x1a0033c3   Thumb Code     0  cpu.o(.text)
    port_stack_init                          0x1a003415   Thumb Code   440  port.o(.text)
    port_isr_stack_check                     0x1a0035cd   Thumb Code     2  port.o(.text)
    raw_os_init_hook                         0x1a0035cf   Thumb Code     2  port_hook.o(.text)
    raw_task_delete_hook                     0x1a0035d1   Thumb Code     2  port_hook.o(.text)
    raw_task_abort_hook                      0x1a0035d3   Thumb Code     2  port_hook.o(.text)
    raw_idle_task_hook                       0x1a0035d5   Thumb Code     2  port_hook.o(.text)
    raw_task_switch_hook                     0x1a0035d7   Thumb Code     2  port_hook.o(.text)
    raw_tick_hook                            0x1a0035d9   Thumb Code     2  port_hook.o(.text)
    task_create_hook                         0x1a0035db   Thumb Code     2  port_hook.o(.text)
    raw_idle_coroutine_hook                  0x1a0035dd   Thumb Code     4  port_hook.o(.text)
    raw_memcpy                               0x1a0035e1   Thumb Code    90  user_extension.o(.text)
    raw_memset                               0x1a00363b   Thumb Code    70  user_extension.o(.text)
    port_system_error_process                0x1a003681   Thumb Code   118  port_error_process.o(.text)
    Reset_Handler                            0x1a0036f9   Thumb Code     8  keil_startup_lpc18xx43xx.o(.text)
    NMI_Handler                              0x1a003701   Thumb Code     2  keil_startup_lpc18xx43xx.o(.text)
    HardFault_Handler                        0x1a003703   Thumb Code     2  keil_startup_lpc18xx43xx.o(.text)
    MemManage_Handler                        0x1a003705   Thumb Code     2  keil_startup_lpc18xx43xx.o(.text)
    BusFault_Handler                         0x1a003707   Thumb Code     2  keil_startup_lpc18xx43xx.o(.text)
    UsageFault_Handler                       0x1a003709   Thumb Code     2  keil_startup_lpc18xx43xx.o(.text)
    SVC_Handler                              0x1a00370b   Thumb Code     2  keil_startup_lpc18xx43xx.o(.text)
    DebugMon_Handler                         0x1a00370d   Thumb Code     2  keil_startup_lpc18xx43xx.o(.text)
    UnHandled_Vector                         0x1a003713   Thumb Code     2  keil_startup_lpc18xx43xx.o(.text)
    ADC0_IRQHandler                          0x1a003715   Thumb Code     0  keil_startup_lpc18xx43xx.o(.text)
    ADC1_IRQHandler                          0x1a003715   Thumb Code     0  keil_startup_lpc18xx43xx.o(.text)
    ADCHS_IRQHandler                         0x1a003715   Thumb Code     0  keil_startup_lpc18xx43xx.o(.text)
    ATIMER_IRQHandler                        0x1a003715   Thumb Code     0  keil_startup_lpc18xx43xx.o(.text)
    CAN0_IRQHandler                          0x1a003715   Thumb Code     0  keil_startup_lpc18xx43xx.o(.text)
    CAN1_IRQHandler                          0x1a003715   Thumb Code     0  keil_startup_lpc18xx43xx.o(.text)
    DAC_IRQHandler                           0x1a003715   Thumb Code     0  keil_startup_lpc18xx43xx.o(.text)
    DMA_IRQHandler                           0x1a003715   Thumb Code     0  keil_startup_lpc18xx43xx.o(.text)
    ETH_IRQHandler                           0x1a003715   Thumb Code     0  keil_startup_lpc18xx43xx.o(.text)
    EVRT_IRQHandler                          0x1a003715   Thumb Code     0  keil_startup_lpc18xx43xx.o(.text)
    FLASHEEPROM_IRQHandler                   0x1a003715   Thumb Code     0  keil_startup_lpc18xx43xx.o(.text)
    GINT0_IRQHandler                         0x1a003715   Thumb Code     0  keil_startup_lpc18xx43xx.o(.text)
    GINT1_IRQHandler                         0x1a003715   Thumb Code     0  keil_startup_lpc18xx43xx.o(.text)
    GPIO0_IRQHandler                         0x1a003715   Thumb Code     0  keil_startup_lpc18xx43xx.o(.text)
    GPIO1_IRQHandler                         0x1a003715   Thumb Code     0  keil_startup_lpc18xx43xx.o(.text)
    GPIO2_IRQHandler                         0x1a003715   Thumb Code     0  keil_startup_lpc18xx43xx.o(.text)
    GPIO3_IRQHandler                         0x1a003715   Thumb Code     0  keil_startup_lpc18xx43xx.o(.text)
    GPIO4_IRQHandler                         0x1a003715   Thumb Code     0  keil_startup_lpc18xx43xx.o(.text)
    GPIO5_IRQHandler                         0x1a003715   Thumb Code     0  keil_startup_lpc18xx43xx.o(.text)
    GPIO6_IRQHandler                         0x1a003715   Thumb Code     0  keil_startup_lpc18xx43xx.o(.text)
    GPIO7_IRQHandler                         0x1a003715   Thumb Code     0  keil_startup_lpc18xx43xx.o(.text)
    I2C0_IRQHandler                          0x1a003715   Thumb Code     0  keil_startup_lpc18xx43xx.o(.text)
    I2C1_IRQHandler                          0x1a003715   Thumb Code     0  keil_startup_lpc18xx43xx.o(.text)
    I2S0_IRQHandler                          0x1a003715   Thumb Code     0  keil_startup_lpc18xx43xx.o(.text)
    I2S1_IRQHandler                          0x1a003715   Thumb Code     0  keil_startup_lpc18xx43xx.o(.text)
    LCD_IRQHandler                           0x1a003715   Thumb Code     0  keil_startup_lpc18xx43xx.o(.text)
    MCPWM_IRQHandler                         0x1a003715   Thumb Code     0  keil_startup_lpc18xx43xx.o(.text)
    MX_CORE_IRQHandler                       0x1a003715   Thumb Code     0  keil_startup_lpc18xx43xx.o(.text)
    QEI_IRQHandler                           0x1a003715   Thumb Code     0  keil_startup_lpc18xx43xx.o(.text)
    RIT_IRQHandler                           0x1a003715   Thumb Code     0  keil_startup_lpc18xx43xx.o(.text)
    RTC_IRQHandler                           0x1a003715   Thumb Code     0  keil_startup_lpc18xx43xx.o(.text)
    SCT_IRQHandler                           0x1a003715   Thumb Code     0  keil_startup_lpc18xx43xx.o(.text)
    SDIO_IRQHandler                          0x1a003715   Thumb Code     0  keil_startup_lpc18xx43xx.o(.text)
    SGPIO_IRQHandler                         0x1a003715   Thumb Code     0  keil_startup_lpc18xx43xx.o(.text)
    SPIFI_IRQHandler                         0x1a003715   Thumb Code     0  keil_startup_lpc18xx43xx.o(.text)
    SPI_IRQHandler                           0x1a003715   Thumb Code     0  keil_startup_lpc18xx43xx.o(.text)
    SSP0_IRQHandler                          0x1a003715   Thumb Code     0  keil_startup_lpc18xx43xx.o(.text)
    SSP1_IRQHandler                          0x1a003715   Thumb Code     0  keil_startup_lpc18xx43xx.o(.text)
    TIMER0_IRQHandler                        0x1a003715   Thumb Code     0  keil_startup_lpc18xx43xx.o(.text)
    TIMER1_IRQHandler                        0x1a003715   Thumb Code     0  keil_startup_lpc18xx43xx.o(.text)
    TIMER2_IRQHandler                        0x1a003715   Thumb Code     0  keil_startup_lpc18xx43xx.o(.text)
    TIMER3_IRQHandler                        0x1a003715   Thumb Code     0  keil_startup_lpc18xx43xx.o(.text)
    UART0_IRQHandler                         0x1a003715   Thumb Code     0  keil_startup_lpc18xx43xx.o(.text)
    UART1_IRQHandler                         0x1a003715   Thumb Code     0  keil_startup_lpc18xx43xx.o(.text)
    UART2_IRQHandler                         0x1a003715   Thumb Code     0  keil_startup_lpc18xx43xx.o(.text)
    USB0_IRQHandler                          0x1a003715   Thumb Code     0  keil_startup_lpc18xx43xx.o(.text)
    USB1_IRQHandler                          0x1a003715   Thumb Code     0  keil_startup_lpc18xx43xx.o(.text)
    WDT_IRQHandler                           0x1a003715   Thumb Code     0  keil_startup_lpc18xx43xx.o(.text)
    __user_initial_stackheap                 0x1a003719   Thumb Code     0  keil_startup_lpc18xx43xx.o(.text)
    SystemInit                               0x1a00373d   Thumb Code    18  sysinit.o(.text)
    scu_pinmux                               0x1a003759   Thumb Code    30  lpc43xx_scu.o(.text)
    emc_init                                 0x1a00377d   Thumb Code   980  lpc43xx_sdram.o(.text)
    sdram_init                               0x1a003b51   Thumb Code   184  lpc43xx_sdram.o(.text)
    GPIO_SetDir                              0x1a003c2d   Thumb Code    36  lpc43xx_gpio.o(.text)
    GPIO_SetValue                            0x1a003c51   Thumb Code     8  lpc43xx_gpio.o(.text)
    GPIO_ClearValue                          0x1a003c59   Thumb Code    10  lpc43xx_gpio.o(.text)
    GPIO_ReadValue                           0x1a003c63   Thumb Code    10  lpc43xx_gpio.o(.text)
    SysTick_Handler                          0x1a003c99   Thumb Code    16  main.o(.text)
    OS_CPU_SysTickInit                       0x1a003ca9   Thumb Code    60  main.o(.text)
    uart_3_recv                              0x1a003ce5   Thumb Code    76  main.o(.text)
    UART3_IRQHandler                         0x1a003d6b   Thumb Code    16  main.o(.text)
    shell_task                               0x1a003d9b   Thumb Code   152  main.o(.text)
    main                                     0x1a003e33   Thumb Code    54  main.o(.text)
    spi1_master_init                         0x1a003ee5   Thumb Code   100  lpc43xx_ssp1.o(.text)
    SSP1_SendRecvByte                        0x1a003f49   Thumb Code    56  lpc43xx_ssp1.o(.text)
    pen_is_down                              0x1a003f99   Thumb Code    48  another_touch.o(.text)
    touch_init                               0x1a003fc9   Thumb Code   100  another_touch.o(.text)
    touch_x_y_raw_get                        0x1a0040b7   Thumb Code    16  another_touch.o(.text)
    touch_x_y_get                            0x1a0040c7   Thumb Code   196  another_touch.o(.text)
    touch_phy_to_pixsel                      0x1a00418b   Thumb Code   126  another_touch.o(.text)
    __aeabi_uldivmod                         0x1a004231   Thumb Code     0  lludivv7m.o(.text)
    _ll_udiv                                 0x1a004231   Thumb Code   238  lludivv7m.o(.text)
    __2printf                                0x1a004321   Thumb Code    20  noretval__2printf.o(.text)
    __printf                                 0x1a004339   Thumb Code   104  __printf.o(.text)
    _printf_int_dec                          0x1a0043a1   Thumb Code   104  _printf_dec.o(.text)
    __use_two_region_memory                  0x1a004419   Thumb Code     2  heapauxi.o(.text)
    __rt_heap_escrow$2region                 0x1a00441b   Thumb Code     2  heapauxi.o(.text)
    __rt_heap_expand$2region                 0x1a00441d   Thumb Code     2  heapauxi.o(.text)
    _printf_int_common                       0x1a00441f   Thumb Code   178  _printf_intcommon.o(.text)
    _printf_char_file                        0x1a0044d1   Thumb Code    32  _printf_char_file.o(.text)
    _printf_char_common                      0x1a0044ff   Thumb Code    32  _printf_char_common.o(.text)
    __user_setup_stackheap                   0x1a004525   Thumb Code    74  sys_stackheap_outer.o(.text)
    exit                                     0x1a00456f   Thumb Code    18  exit.o(.text)
    __user_libspace                          0x1a004581   Thumb Code     8  libspace.o(.text)
    __user_perproc_libspace                  0x1a004581   Thumb Code     0  libspace.o(.text)
    __user_perthread_libspace                0x1a004581   Thumb Code     0  libspace.o(.text)
    Board_SetupClocking                      0x1a004589   Thumb Code   158  board_sysinit.o(i.Board_SetupClocking)
    Board_SetupMuxing                        0x1a00463d   Thumb Code    58  board_sysinit.o(i.Board_SetupMuxing)
    Board_SystemInit                         0x1a004689   Thumb Code    12  board_sysinit.o(i.Board_SystemInit)
    Board_UARTPutChar                        0x1a004695   Thumb Code    26  board.o(i.Board_UARTPutChar)
    Board_UART_Init                          0x1a0046b5   Thumb Code    60  board.o(i.Board_UART_Init)
    Chip_Clock_EnableOpts                    0x1a0046f9   Thumb Code    52  clock_18xx_43xx.o(i.Chip_Clock_EnableOpts)
    Chip_Clock_GetBaseClock                  0x1a004785   Thumb Code    32  clock_18xx_43xx.o(i.Chip_Clock_GetBaseClock)
    Chip_Clock_GetBaseClocktHz               0x1a0047a9   Thumb Code    18  clock_18xx_43xx.o(i.Chip_Clock_GetBaseClocktHz)
    Chip_Clock_GetClockInputHz               0x1a0047bd   Thumb Code   182  clock_18xx_43xx.o(i.Chip_Clock_GetClockInputHz)
    Chip_Clock_GetDividerDivisor             0x1a0048b9   Thumb Code    18  clock_18xx_43xx.o(i.Chip_Clock_GetDividerDivisor)
    Chip_Clock_GetDividerSource              0x1a0048d9   Thumb Code    26  clock_18xx_43xx.o(i.Chip_Clock_GetDividerSource)
    Chip_Clock_GetMainPLLHz                  0x1a0048f9   Thumb Code   110  clock_18xx_43xx.o(i.Chip_Clock_GetMainPLLHz)
    Chip_Clock_GetRate                       0x1a004971   Thumb Code    78  clock_18xx_43xx.o(i.Chip_Clock_GetRate)
    Chip_Clock_SetBaseClock                  0x1a0049c9   Thumb Code    64  clock_18xx_43xx.o(i.Chip_Clock_SetBaseClock)
    Chip_Clock_SetDivider                    0x1a004a11   Thumb Code    64  clock_18xx_43xx.o(i.Chip_Clock_SetDivider)
    Chip_SetupCoreClock                      0x1a004aa1   Thumb Code    14  sysinit_18xx_43xx.o(i.Chip_SetupCoreClock)
    Chip_UART_Init                           0x1a004af5   Thumb Code    72  uart_18xx_43xx.o(i.Chip_UART_Init)
    Chip_UART_SetBaud                        0x1a004b41   Thumb Code    66  uart_18xx_43xx.o(i.Chip_UART_SetBaud)
    SystemCoreClockUpdate                    0x1a004b89   Thumb Code    14  chip_18xx_43xx.o(i.SystemCoreClockUpdate)
    _sys_exit                                0x1a004b9d   Thumb Code     6  board.o(i._sys_exit)
    ferror                                   0x1a004c85   Thumb Code     8  board.o(i.ferror)
    fpuInit                                  0x1a004c8d   Thumb Code    62  fpu_init.o(i.fpuInit)
    fputc                                    0x1a004cdd   Thumb Code    20  board.o(i.fputc)
    _fp_init                                 0x1a004cf1   Thumb Code    10  fpinit.o(x$fpl$fpinit)
    __fplib_config_fpu_vfp                   0x1a004cf9   Thumb Code     0  fpinit.o(x$fpl$fpinit)
    __fplib_config_pureend_doubles           0x1a004cf9   Thumb Code     0  fpinit.o(x$fpl$fpinit)
    ad_left                                  0x1a004d0c   Data           4  board.o(.constdata)
    ad_top                                   0x1a004d10   Data           4  board.o(.constdata)
    ad_right                                 0x1a004d14   Data           4  board.o(.constdata)
    ad_bottom                                0x1a004d18   Data           4  board.o(.constdata)
    MCB4300_LCD                              0x1a004d1c   Data          22  board.o(.constdata)
    ExtRateIn                                0x1a004d34   Data           4  board.o(.constdata)
    OscRateIn                                0x1a004d38   Data           4  board.o(.constdata)
    Region$$Table$$Base                      0x1a0050ac   Number         0  anon$$obj.o(Region$$Table)
    Region$$Table$$Limit                     0x1a0050cc   Number         0  anon$$obj.o(Region$$Table)



==============================================================================

Memory Map of the image

  Image Entry point : 0x1a000115

  Load Region LR_IROM1 (Base: 0x1a000000, Size: 0x0000511c, Max: 0x00080000, ABSOLUTE)

    Execution Region RW_IRAM1 (Base: 0x10000000, Size: 0x00001360, Max: 0x00008000, ABSOLUTE)

    Base Addr    Size         Type   Attr      Idx    E Section Name        Object

    0x10000000   0x00000028   Data   RW            3    .data               raw-os.o
    0x10000028   0x00000008   Data   RW          729    .data               another_touch.o
    0x10000030   0x00000014   Data   RW          823    .data               lib_lpc_board_keil_mcb_4357.lib(board.o)
    0x10000044   0x00000004   Data   RW         1355    .data               lib_lpc_chip_43xx.lib(chip_18xx_43xx.o)
    0x10000048   0x00000008   Data   RW         1903    .data               lib_lpc_chip_43xx.lib(clock_18xx_43xx.o)
    0x10000050   0x000003e4   Zero   RW            2    .bss                raw-os.o
    0x10000434   0x0000076c   Zero   RW          673    .bss                main.o
    0x10000ba0   0x0000005c   Zero   RW          728    .bss                another_touch.o
    0x10000bfc   0x00000060   Zero   RW         2797    .bss                c_w.l(libspace.o)
    0x10000c5c   0x00000004   PAD
    0x10000c60   0x00000100   Zero   RW          328    HEAP                keil_startup_lpc18xx43xx.o
    0x10000d60   0x00000600   Zero   RW          327    STACK               keil_startup_lpc18xx43xx.o


    Execution Region ER_IROM1 (Base: 0x1a000000, Size: 0x000050cc, Max: 0x00080000, ABSOLUTE)

    Base Addr    Size         Type   Attr      Idx    E Section Name        Object

    0x1a000000   0x00000114   Data   RO          329    RESET               keil_startup_lpc18xx43xx.o
    0x1a000114   0x00000008   Code   RO         2747  * !!!main             c_w.l(__main.o)
    0x1a00011c   0x00000034   Code   RO         2923    !!!scatter          c_w.l(__scatter.o)
    0x1a000150   0x0000001a   Code   RO         2925    !!handler_copy      c_w.l(__scatter_copy.o)
    0x1a00016a   0x00000002   PAD
    0x1a00016c   0x0000001c   Code   RO         2927    !!handler_zi        c_w.l(__scatter_zi.o)
    0x1a000188   0x00000000   Code   RO         2740    .ARM.Collect$$_printf_percent$$00000000  c_w.l(_printf_percent.o)
    0x1a000188   0x00000006   Code   RO         2739    .ARM.Collect$$_printf_percent$$00000009  c_w.l(_printf_d.o)
    0x1a00018e   0x00000004   Code   RO         2758    .ARM.Collect$$_printf_percent$$00000017  c_w.l(_printf_percent_end.o)
    0x1a000192   0x00000002   Code   RO         2795    .ARM.Collect$$libinit$$00000000  c_w.l(libinit.o)
    0x1a000194   0x00000004   Code   RO         2807    .ARM.Collect$$libinit$$00000001  c_w.l(libinit2.o)
    0x1a000198   0x00000000   Code   RO         2810    .ARM.Collect$$libinit$$00000004  c_w.l(libinit2.o)
    0x1a000198   0x00000000   Code   RO         2813    .ARM.Collect$$libinit$$0000000A  c_w.l(libinit2.o)
    0x1a000198   0x00000000   Code   RO         2815    .ARM.Collect$$libinit$$0000000C  c_w.l(libinit2.o)
    0x1a000198   0x00000000   Code   RO         2817    .ARM.Collect$$libinit$$0000000E  c_w.l(libinit2.o)
    0x1a000198   0x00000000   Code   RO         2820    .ARM.Collect$$libinit$$00000011  c_w.l(libinit2.o)
    0x1a000198   0x00000000   Code   RO         2822    .ARM.Collect$$libinit$$00000013  c_w.l(libinit2.o)
    0x1a000198   0x00000000   Code   RO         2824    .ARM.Collect$$libinit$$00000015  c_w.l(libinit2.o)
    0x1a000198   0x00000000   Code   RO         2826    .ARM.Collect$$libinit$$00000017  c_w.l(libinit2.o)
    0x1a000198   0x00000000   Code   RO         2828    .ARM.Collect$$libinit$$00000019  c_w.l(libinit2.o)
    0x1a000198   0x00000000   Code   RO         2830    .ARM.Collect$$libinit$$0000001B  c_w.l(libinit2.o)
    0x1a000198   0x00000000   Code   RO         2832    .ARM.Collect$$libinit$$0000001D  c_w.l(libinit2.o)
    0x1a000198   0x00000000   Code   RO         2834    .ARM.Collect$$libinit$$0000001F  c_w.l(libinit2.o)
    0x1a000198   0x00000000   Code   RO         2836    .ARM.Collect$$libinit$$00000021  c_w.l(libinit2.o)
    0x1a000198   0x00000000   Code   RO         2838    .ARM.Collect$$libinit$$00000023  c_w.l(libinit2.o)
    0x1a000198   0x00000000   Code   RO         2840    .ARM.Collect$$libinit$$00000025  c_w.l(libinit2.o)
    0x1a000198   0x00000000   Code   RO         2844    .ARM.Collect$$libinit$$0000002C  c_w.l(libinit2.o)
    0x1a000198   0x00000000   Code   RO         2846    .ARM.Collect$$libinit$$0000002E  c_w.l(libinit2.o)
    0x1a000198   0x00000000   Code   RO         2848    .ARM.Collect$$libinit$$00000030  c_w.l(libinit2.o)
    0x1a000198   0x00000000   Code   RO         2850    .ARM.Collect$$libinit$$00000032  c_w.l(libinit2.o)
    0x1a000198   0x00000002   Code   RO         2851    .ARM.Collect$$libinit$$00000033  c_w.l(libinit2.o)
    0x1a00019a   0x00000002   Code   RO         2877    .ARM.Collect$$libshutdown$$00000000  c_w.l(libshutdown.o)
    0x1a00019c   0x00000000   Code   RO         2906    .ARM.Collect$$libshutdown$$00000002  c_w.l(libshutdown2.o)
    0x1a00019c   0x00000000   Code   RO         2908    .ARM.Collect$$libshutdown$$00000004  c_w.l(libshutdown2.o)
    0x1a00019c   0x00000000   Code   RO         2911    .ARM.Collect$$libshutdown$$00000007  c_w.l(libshutdown2.o)
    0x1a00019c   0x00000000   Code   RO         2914    .ARM.Collect$$libshutdown$$0000000A  c_w.l(libshutdown2.o)
    0x1a00019c   0x00000000   Code   RO         2916    .ARM.Collect$$libshutdown$$0000000C  c_w.l(libshutdown2.o)
    0x1a00019c   0x00000000   Code   RO         2919    .ARM.Collect$$libshutdown$$0000000F  c_w.l(libshutdown2.o)
    0x1a00019c   0x00000002   Code   RO         2920    .ARM.Collect$$libshutdown$$00000010  c_w.l(libshutdown2.o)
    0x1a00019e   0x00000000   Code   RO         2749    .ARM.Collect$$rtentry$$00000000  c_w.l(__rtentry.o)
    0x1a00019e   0x00000000   Code   RO         2762    .ARM.Collect$$rtentry$$00000002  c_w.l(__rtentry2.o)
    0x1a00019e   0x00000006   Code   RO         2774    .ARM.Collect$$rtentry$$00000004  c_w.l(__rtentry4.o)
    0x1a0001a4   0x00000000   Code   RO         2764    .ARM.Collect$$rtentry$$00000009  c_w.l(__rtentry2.o)
    0x1a0001a4   0x00000004   Code   RO         2765    .ARM.Collect$$rtentry$$0000000A  c_w.l(__rtentry2.o)
    0x1a0001a8   0x00000000   Code   RO         2767    .ARM.Collect$$rtentry$$0000000C  c_w.l(__rtentry2.o)
    0x1a0001a8   0x00000008   Code   RO         2768    .ARM.Collect$$rtentry$$0000000D  c_w.l(__rtentry2.o)
    0x1a0001b0   0x00000002   Code   RO         2799    .ARM.Collect$$rtexit$$00000000  c_w.l(rtexit.o)
    0x1a0001b2   0x00000000   Code   RO         2853    .ARM.Collect$$rtexit$$00000002  c_w.l(rtexit2.o)
    0x1a0001b2   0x00000004   Code   RO         2854    .ARM.Collect$$rtexit$$00000003  c_w.l(rtexit2.o)
    0x1a0001b6   0x00000006   Code   RO         2855    .ARM.Collect$$rtexit$$00000004  c_w.l(rtexit2.o)
    0x1a0001bc   0x00002f8c   Code   RO            1    .text               raw-os.o
    0x1a003148   0x00000226   Code   RO          168    .text               fifo.o
    0x1a00336e   0x00000002   PAD
    0x1a003370   0x000000a4   Code   RO          257    .text               cpu.o
    0x1a003414   0x000001ba   Code   RO          261    .text               port.o
    0x1a0035ce   0x00000012   Code   RO          273    .text               port_hook.o
    0x1a0035e0   0x000000a0   Code   RO          291    .text               user_extension.o
    0x1a003680   0x00000076   Code   RO          303    .text               port_error_process.o
    0x1a0036f6   0x00000002   PAD
    0x1a0036f8   0x00000044   Code   RO          330    .text               keil_startup_lpc18xx43xx.o
    0x1a00373c   0x0000001c   Code   RO          336    .text               sysinit.o
    0x1a003758   0x00000024   Code   RO          562    .text               lpc43xx_scu.o
    0x1a00377c   0x000004b0   Code   RO          595    .text               lpc43xx_sdram.o
    0x1a003c2c   0x0000004c   Code   RO          618    .text               lpc43xx_gpio.o
    0x1a003c78   0x0000026c   Code   RO          672    .text               main.o
    0x1a003ee4   0x000000a8   Code   RO          707    .text               lpc43xx_ssp1.o
    0x1a003f8c   0x000002a4   Code   RO          727    .text               another_touch.o
    0x1a004230   0x000000ee   Code   RO         2709    .text               c_w.l(lludivv7m.o)
    0x1a00431e   0x00000002   PAD
    0x1a004320   0x00000018   Code   RO         2713    .text               c_w.l(noretval__2printf.o)
    0x1a004338   0x00000068   Code   RO         2715    .text               c_w.l(__printf.o)
    0x1a0043a0   0x00000078   Code   RO         2717    .text               c_w.l(_printf_dec.o)
    0x1a004418   0x00000006   Code   RO         2745    .text               c_w.l(heapauxi.o)
    0x1a00441e   0x000000b2   Code   RO         2754    .text               c_w.l(_printf_intcommon.o)
    0x1a0044d0   0x00000024   Code   RO         2756    .text               c_w.l(_printf_char_file.o)
    0x1a0044f4   0x00000030   Code   RO         2778    .text               c_w.l(_printf_char_common.o)
    0x1a004524   0x0000004a   Code   RO         2780    .text               c_w.l(sys_stackheap_outer.o)
    0x1a00456e   0x00000012   Code   RO         2784    .text               c_w.l(exit.o)
    0x1a004580   0x00000008   Code   RO         2796    .text               c_w.l(libspace.o)
    0x1a004588   0x000000b4   Code   RO         1275    i.Board_SetupClocking  lib_lpc_board_keil_mcb_4357.lib(board_sysinit.o)
    0x1a00463c   0x0000004c   Code   RO         1277    i.Board_SetupMuxing  lib_lpc_board_keil_mcb_4357.lib(board_sysinit.o)
    0x1a004688   0x0000000c   Code   RO         1278    i.Board_SystemInit  lib_lpc_board_keil_mcb_4357.lib(board_sysinit.o)
    0x1a004694   0x00000020   Code   RO          798    i.Board_UARTPutChar  lib_lpc_board_keil_mcb_4357.lib(board.o)
    0x1a0046b4   0x00000044   Code   RO          800    i.Board_UART_Init   lib_lpc_board_keil_mcb_4357.lib(board.o)
    0x1a0046f8   0x0000003c   Code   RO         1877    i.Chip_Clock_EnableOpts  lib_lpc_chip_43xx.lib(clock_18xx_43xx.o)
    0x1a004734   0x00000050   Code   RO         1879    i.Chip_Clock_FindBaseClock  lib_lpc_chip_43xx.lib(clock_18xx_43xx.o)
    0x1a004784   0x00000024   Code   RO         1880    i.Chip_Clock_GetBaseClock  lib_lpc_chip_43xx.lib(clock_18xx_43xx.o)
    0x1a0047a8   0x00000012   Code   RO         1882    i.Chip_Clock_GetBaseClocktHz  lib_lpc_chip_43xx.lib(clock_18xx_43xx.o)
    0x1a0047ba   0x00000002   PAD
    0x1a0047bc   0x000000d4   Code   RO         1883    i.Chip_Clock_GetClockInputHz  lib_lpc_chip_43xx.lib(clock_18xx_43xx.o)
    0x1a004890   0x00000028   Code   RO         1884    i.Chip_Clock_GetDivRate  lib_lpc_chip_43xx.lib(clock_18xx_43xx.o)
    0x1a0048b8   0x00000020   Code   RO         1885    i.Chip_Clock_GetDividerDivisor  lib_lpc_chip_43xx.lib(clock_18xx_43xx.o)
    0x1a0048d8   0x00000020   Code   RO         1886    i.Chip_Clock_GetDividerSource  lib_lpc_chip_43xx.lib(clock_18xx_43xx.o)
    0x1a0048f8   0x00000078   Code   RO         1888    i.Chip_Clock_GetMainPLLHz  lib_lpc_chip_43xx.lib(clock_18xx_43xx.o)
    0x1a004970   0x00000058   Code   RO         1890    i.Chip_Clock_GetRate  lib_lpc_chip_43xx.lib(clock_18xx_43xx.o)
    0x1a0049c8   0x00000048   Code   RO         1894    i.Chip_Clock_SetBaseClock  lib_lpc_chip_43xx.lib(clock_18xx_43xx.o)
    0x1a004a10   0x00000050   Code   RO         1895    i.Chip_Clock_SetDivider  lib_lpc_chip_43xx.lib(clock_18xx_43xx.o)
    0x1a004a60   0x00000010   Code   RO          806    i.Chip_SCU_PinMuxSet  lib_lpc_board_keil_mcb_4357.lib(board.o)
    0x1a004a70   0x00000030   Code   RO         1279    i.Chip_SCU_SetPinMuxing  lib_lpc_board_keil_mcb_4357.lib(board_sysinit.o)
    0x1a004aa0   0x0000000e   Code   RO         2599    i.Chip_SetupCoreClock  lib_lpc_chip_43xx.lib(sysinit_18xx_43xx.o)
    0x1a004aae   0x0000000a   Code   RO         1616    i.Chip_UART_DisableDivisorAccess  lib_lpc_chip_43xx.lib(uart_18xx_43xx.o)
    0x1a004ab8   0x0000000a   Code   RO         1617    i.Chip_UART_EnableDivisorAccess  lib_lpc_chip_43xx.lib(uart_18xx_43xx.o)
    0x1a004ac2   0x00000002   PAD
    0x1a004ac4   0x00000030   Code   RO         1619    i.Chip_UART_GetClockIndex  lib_lpc_chip_43xx.lib(uart_18xx_43xx.o)
    0x1a004af4   0x0000004c   Code   RO         1621    i.Chip_UART_Init    lib_lpc_chip_43xx.lib(uart_18xx_43xx.o)
    0x1a004b40   0x00000042   Code   RO         1633    i.Chip_UART_SetBaud  lib_lpc_chip_43xx.lib(uart_18xx_43xx.o)
    0x1a004b82   0x00000006   Code   RO         1635    i.Chip_UART_SetDivisorLatches  lib_lpc_chip_43xx.lib(uart_18xx_43xx.o)
    0x1a004b88   0x00000014   Code   RO         1353    i.SystemCoreClockUpdate  lib_lpc_chip_43xx.lib(chip_18xx_43xx.o)
    0x1a004b9c   0x00000006   Code   RO          808    i._sys_exit         lib_lpc_board_keil_mcb_4357.lib(board.o)
    0x1a004ba2   0x00000024   Code   RO         2603    i.clock_init_delay  lib_lpc_chip_43xx.lib(sysinit_18xx_43xx.o)
    0x1a004bc6   0x00000002   PAD
    0x1a004bc8   0x000000bc   Code   RO         2604    i.clock_main_init   lib_lpc_chip_43xx.lib(sysinit_18xx_43xx.o)
    0x1a004c84   0x00000008   Code   RO          812    i.ferror            lib_lpc_board_keil_mcb_4357.lib(board.o)
    0x1a004c8c   0x00000050   Code   RO         1780    i.fpuInit           lib_lpc_chip_43xx.lib(fpu_init.o)
    0x1a004cdc   0x00000014   Code   RO          814    i.fputc             lib_lpc_board_keil_mcb_4357.lib(board.o)
    0x1a004cf0   0x0000000a   Code   RO         2865    x$fpl$fpinit        fz_wm.l(fpinit.o)
    0x1a004cfa   0x00000002   PAD
    0x1a004cfc   0x00000040   Data   RO          822    .constdata          lib_lpc_board_keil_mcb_4357.lib(board.o)
    0x1a004d3c   0x000002bc   Data   RO         1280    .constdata          lib_lpc_board_keil_mcb_4357.lib(board_sysinit.o)
    0x1a004ff8   0x0000006c   Data   RO         1902    .constdata          lib_lpc_chip_43xx.lib(clock_18xx_43xx.o)
    0x1a005064   0x00000048   Data   RO         2605    .constdata          lib_lpc_chip_43xx.lib(sysinit_18xx_43xx.o)
    0x1a0050ac   0x00000020   Data   RO         2921    Region$$Table       anon$$obj.o


==============================================================================

Image component sizes


      Code (inc. data)   RO Data    RW Data    ZI Data      Debug   Object Name

       676         40          0          8         92       7525   another_touch.o
       164         16          0          0          0        384   cpu.o
       550          0          0          0          0       8944   fifo.o
        68         28        276          0       1792        936   keil_startup_lpc18xx43xx.o
        76         12          0          0          0       1375   lpc43xx_gpio.o
         0          0          0          0          0       6152   lpc43xx_lcd.o
        36          6          0          0          0       1057   lpc43xx_scu.o
      1200         36          0          0          0       2174   lpc43xx_sdram.o
       168         12          0          0          0       1533   lpc43xx_ssp1.o
       620        102          0          0       1900      36641   main.o
       442          0          0          0          0       1735   port.o
       118          0          0          0          0       1444   port_error_process.o
        18          0          0          0          0       1815   port_hook.o
     12172        318          0         40        996      74127   raw-os.o
        28         10          0          0          0       5105   sysinit.o
       160          0          0          0          0       1672   user_extension.o

    ----------------------------------------------------------------------
     16500        580        308         48       4780     152619   Object Totals
         0          0         32          0          0          0   (incl. Generated)
         4          0          0          0          0          0   (incl. Padding)

    ----------------------------------------------------------------------

      Code (inc. data)   RO Data    RW Data    ZI Data      Debug   Library Member Name

         8          0          0          0          0         68   __main.o
       104          0          0          0          0         84   __printf.o
         0          0          0          0          0          0   __rtentry.o
        12          0          0          0          0          0   __rtentry2.o
         6          0          0          0          0          0   __rtentry4.o
        52          8          0          0          0          0   __scatter.o
        26          0          0          0          0          0   __scatter_copy.o
        28          0          0          0          0          0   __scatter_zi.o
        48          6          0          0          0         96   _printf_char_common.o
        36          4          0          0          0         80   _printf_char_file.o
         6          0          0          0          0          0   _printf_d.o
       120         16          0          0          0         92   _printf_dec.o
       178          0          0          0          0         88   _printf_intcommon.o
         0          0          0          0          0          0   _printf_percent.o
         4          0          0          0          0          0   _printf_percent_end.o
        18          0          0          0          0         80   exit.o
         6          0          0          0          0        152   heapauxi.o
         2          0          0          0          0          0   libinit.o
         6          0          0          0          0          0   libinit2.o
         2          0          0          0          0          0   libshutdown.o
         2          0          0          0          0          0   libshutdown2.o
         8          4          0          0         96         68   libspace.o
       238          0          0          0          0        100   lludivv7m.o
        24          4          0          0          0         84   noretval__2printf.o
         2          0          0          0          0          0   rtexit.o
        10          0          0          0          0          0   rtexit2.o
        74          0          0          0          0         80   sys_stackheap_outer.o
        10          0          0          0          0        116   fpinit.o
       150         18         64         20          0      34818   board.o
       316         44        700          0          0      11181   board_sysinit.o
        20          6          0          4          0       4114   chip_18xx_43xx.o
       870        130        108          8          0       8770   clock_18xx_43xx.o
        80         18          0          0          0       1234   fpu_init.o
       238         20         72          0          0       2286   sysinit_18xx_43xx.o
       216         16          0          0          0       9189   uart_18xx_43xx.o

    ----------------------------------------------------------------------
      2932        294        944         32        100      72780   Library Totals
        12          0          0          0          4          0   (incl. Padding)

    ----------------------------------------------------------------------

      Code (inc. data)   RO Data    RW Data    ZI Data      Debug   Library Name

      1020         42          0          0         96       1072   c_w.l
        10          0          0          0          0        116   fz_wm.l
       466         62        764         20          0      45999   lib_lpc_board_keil_mcb_4357.lib
      1424        190        180         12          0      25593   lib_lpc_chip_43xx.lib

    ----------------------------------------------------------------------
      2932        294        944         32        100      72780   Library Totals

    ----------------------------------------------------------------------

==============================================================================


      Code (inc. data)   RO Data    RW Data    ZI Data      Debug   

     19432        874       1252         80       4880     219883   Grand Totals
     19432        874       1252         80       4880     219883   ELF Image Totals
     19432        874       1252         80          0          0   ROM Totals

==============================================================================

    Total RO  Size (Code + RO Data)                20684 (  20.20kB)
    Total RW  Size (RW Data + ZI Data)              4960 (   4.84kB)
    Total ROM Size (Code + RO Data + RW Data)      20764 (  20.28kB)

==============================================================================

