Component: ARM Compiler 5.06 (build 20) Tool: armlink [4d35a3]

==============================================================================

Section Cross References

    raw-os.o(.text) refers to cpu.o(.text) for OS_CPU_SR_Save
    raw-os.o(.text) refers to raw-os.o(.data) for .data
    raw-os.o(.text) refers to raw-os.o(.bss) for .bss
    raw-os.o(.text) refers to user_extension.o(.text) for raw_memset
    raw-os.o(.text) refers to port.o(.text) for port_stack_init
    raw-os.o(.text) refers to port_hook.o(.text) for task_create_hook
    raw-os.o(.text) refers to lludivv7m.o(.text) for __aeabi_uldivmod
    fifo.o(.text) refers to cpu.o(.text) for OS_CPU_SR_Save
    fifo.o(.text) refers to user_extension.o(.text) for raw_memcpy
    rsh.o(.text) refers to cpu.o(.text) for OS_CPU_SR_Save
    rsh.o(.text) refers to string.o(.text) for raw_strncmp
    rsh.o(.text) refers to user_extension.o(.text) for raw_memset
    rsh.o(.text) refers to rsh.o(.data) for .data
    rsh.o(.text) refers to rsh.o(.conststring) for .conststring
    rsh.o(.constdata) refers to rsh.o(.conststring) for .conststring
    rsh.o(.constdata) refers to rsh.o(.text) for rsh_help_command
    rsh.o(.data) refers to rsh.o(.constdata) for xHelpCommand
    cpu.o(.text) refers to raw-os.o(.text) for raw_stack_check
==============================================================================

Removing Unused input sections from the image.

    Removing rsh.o(.text), (472 bytes).
    Removing rsh.o(.constdata), (16 bytes).
    Removing rsh.o(.conststring), (50 bytes).
    Removing rsh.o(.conststring), (173 bytes).
    Removing rsh.o(.data), (20 bytes).
    Removing string.o(.text), (592 bytes).
    Removing sysinit.o(.rev16_text), (4 bytes).
    Removing sysinit.o(.revsh_text), (4 bytes).
    Removing lpc43xx_scu.o(.rev16_text), (4 bytes).
    Removing lpc43xx_scu.o(.revsh_text), (4 bytes).
    Removing lpc43xx_sdram.o(.rev16_text), (4 bytes).
    Removing lpc43xx_sdram.o(.revsh_text), (4 bytes).
    Removing main.o(.rev16_text), (4 bytes).
    Removing main.o(.revsh_text), (4 bytes).
    Removing main.o(.data), (4 bytes).
    Removing lpc43xx_i2c0.o(.rev16_text), (4 bytes).
    Removing lpc43xx_i2c0.o(.revsh_text), (4 bytes).
    Removing lpc43xx_i2c0.o(.data), (4 bytes).
==============================================================================

Memory Map of the image

  Image Entry point : 0x00000000

  Load Region LR_IROM1 (Base: 0x1a000000, Size: 0x00004674, Max: 0x00080000, ABSOLUTE)

    Execution Region RW_IRAM1 (Base: 0x10000000, Size: 0x00001f98, Max: 0x00008000, ABSOLUTE)

    Base Addr    Size         Type   Attr      Idx    E Section Name        Object

    0x10000000   0x00000038   Data   RW            3    .data               raw-os.o
    0x10000038   0x00000014   Data   RW          640    .data               lpc43xx_i2c0.o
    0x1000004c   0x00000014   Data   RW          740    .data               lib_lpc_board_keil_mcb_4357.lib(board.o)
    0x10000060   0x00000004   Data   RW         1272    .data               lib_lpc_chip_43xx.lib(chip_18xx_43xx.o)
    0x10000064   0x00000008   Data   RW         1788    .data               lib_lpc_chip_43xx.lib(clock_18xx_43xx.o)
    0x1000006c   0x00001034   Zero   RW            2    .bss                raw-os.o
    0x100010a0   0x0000076c   Zero   RW          604    .bss                main.o
    0x1000180c   0x00000028   Zero   RW          639    .bss                lpc43xx_i2c0.o
    0x10001834   0x00000060   Zero   RW         2714    .bss                c_w.l(libspace.o)
    0x10001894   0x00000004   PAD
    0x10001898   0x00000100   Zero   RW          313    HEAP                keil_startup_lpc18xx43xx.o
    0x10001998   0x00000600   Zero   RW          312    STACK               keil_startup_lpc18xx43xx.o


    Execution Region ER_IROM1 (Base: 0x1a000000, Size: 0x00004608, Max: 0x00080000, ABSOLUTE)

    Base Addr    Size         Type   Attr      Idx    E Section Name        Object

    0x1a000000   0x00000114   Data   RO          314    RESET               keil_startup_lpc18xx43xx.o
    0x1a000114   0x00000008   Code   RO         2664  * !!!main             c_w.l(__main.o)
    0x1a00011c   0x00000000   Code   RO         2657    .ARM.Collect$$_printf_percent$$00000000  c_w.l(_printf_percent.o)
    0x1a00011c   0x00000006   Code   RO         2656    .ARM.Collect$$_printf_percent$$00000009  c_w.l(_printf_d.o)
    0x1a000122   0x00000004   Code   RO         2675    .ARM.Collect$$_printf_percent$$00000017  c_w.l(_printf_percent_end.o)
    0x1a000126   0x00000002   Code   RO         2712    .ARM.Collect$$libinit$$00000000  c_w.l(libinit.o)
    0x1a000128   0x00000004   Code   RO         2724    .ARM.Collect$$libinit$$00000001  c_w.l(libinit2.o)
    0x1a00012c   0x00000000   Code   RO         2727    .ARM.Collect$$libinit$$00000004  c_w.l(libinit2.o)
    0x1a00012c   0x00000000   Code   RO         2730    .ARM.Collect$$libinit$$0000000A  c_w.l(libinit2.o)
    0x1a00012c   0x00000000   Code   RO         2732    .ARM.Collect$$libinit$$0000000C  c_w.l(libinit2.o)
    0x1a00012c   0x00000000   Code   RO         2734    .ARM.Collect$$libinit$$0000000E  c_w.l(libinit2.o)
    0x1a00012c   0x00000000   Code   RO         2737    .ARM.Collect$$libinit$$00000011  c_w.l(libinit2.o)
    0x1a00012c   0x00000000   Code   RO         2739    .ARM.Collect$$libinit$$00000013  c_w.l(libinit2.o)
    0x1a00012c   0x00000000   Code   RO         2741    .ARM.Collect$$libinit$$00000015  c_w.l(libinit2.o)
    0x1a00012c   0x00000000   Code   RO         2743    .ARM.Collect$$libinit$$00000017  c_w.l(libinit2.o)
    0x1a00012c   0x00000000   Code   RO         2745    .ARM.Collect$$libinit$$00000019  c_w.l(libinit2.o)
    0x1a00012c   0x00000000   Code   RO         2747    .ARM.Collect$$libinit$$0000001B  c_w.l(libinit2.o)
    0x1a00012c   0x00000000   Code   RO         2749    .ARM.Collect$$libinit$$0000001D  c_w.l(libinit2.o)
    0x1a00012c   0x00000000   Code   RO         2751    .ARM.Collect$$libinit$$0000001F  c_w.l(libinit2.o)
    0x1a00012c   0x00000000   Code   RO         2753    .ARM.Collect$$libinit$$00000021  c_w.l(libinit2.o)
    0x1a00012c   0x00000000   Code   RO         2755    .ARM.Collect$$libinit$$00000023  c_w.l(libinit2.o)
    0x1a00012c   0x00000000   Code   RO         2757    .ARM.Collect$$libinit$$00000025  c_w.l(libinit2.o)
    0x1a00012c   0x00000000   Code   RO         2761    .ARM.Collect$$libinit$$0000002C  c_w.l(libinit2.o)
    0x1a00012c   0x00000000   Code   RO         2763    .ARM.Collect$$libinit$$0000002E  c_w.l(libinit2.o)
    0x1a00012c   0x00000000   Code   RO         2765    .ARM.Collect$$libinit$$00000030  c_w.l(libinit2.o)
    0x1a00012c   0x00000000   Code   RO         2767    .ARM.Collect$$libinit$$00000032  c_w.l(libinit2.o)
    0x1a00012c   0x00000002   Code   RO         2768    .ARM.Collect$$libinit$$00000033  c_w.l(libinit2.o)
    0x1a00012e   0x00000002   Code   RO         2794    .ARM.Collect$$libshutdown$$00000000  c_w.l(libshutdown.o)
    0x1a000130   0x00000000   Code   RO         2823    .ARM.Collect$$libshutdown$$00000002  c_w.l(libshutdown2.o)
    0x1a000130   0x00000000   Code   RO         2825    .ARM.Collect$$libshutdown$$00000004  c_w.l(libshutdown2.o)
    0x1a000130   0x00000000   Code   RO         2828    .ARM.Collect$$libshutdown$$00000007  c_w.l(libshutdown2.o)
    0x1a000130   0x00000000   Code   RO         2831    .ARM.Collect$$libshutdown$$0000000A  c_w.l(libshutdown2.o)
    0x1a000130   0x00000000   Code   RO         2833    .ARM.Collect$$libshutdown$$0000000C  c_w.l(libshutdown2.o)
    0x1a000130   0x00000000   Code   RO         2836    .ARM.Collect$$libshutdown$$0000000F  c_w.l(libshutdown2.o)
    0x1a000130   0x00000002   Code   RO         2837    .ARM.Collect$$libshutdown$$00000010  c_w.l(libshutdown2.o)
    0x1a000132   0x00000000   Code   RO         2666    .ARM.Collect$$rtentry$$00000000  c_w.l(__rtentry.o)
    0x1a000132   0x00000000   Code   RO         2679    .ARM.Collect$$rtentry$$00000002  c_w.l(__rtentry2.o)
    0x1a000132   0x00000006   Code   RO         2691    .ARM.Collect$$rtentry$$00000004  c_w.l(__rtentry4.o)
    0x1a000138   0x00000000   Code   RO         2681    .ARM.Collect$$rtentry$$00000009  c_w.l(__rtentry2.o)
    0x1a000138   0x00000004   Code   RO         2682    .ARM.Collect$$rtentry$$0000000A  c_w.l(__rtentry2.o)
    0x1a00013c   0x00000000   Code   RO         2684    .ARM.Collect$$rtentry$$0000000C  c_w.l(__rtentry2.o)
    0x1a00013c   0x00000008   Code   RO         2685    .ARM.Collect$$rtentry$$0000000D  c_w.l(__rtentry2.o)
    0x1a000144   0x00000002   Code   RO         2716    .ARM.Collect$$rtexit$$00000000  c_w.l(rtexit.o)
    0x1a000146   0x00000000   Code   RO         2770    .ARM.Collect$$rtexit$$00000002  c_w.l(rtexit2.o)
    0x1a000146   0x00000004   Code   RO         2771    .ARM.Collect$$rtexit$$00000003  c_w.l(rtexit2.o)
    0x1a00014a   0x00000006   Code   RO         2772    .ARM.Collect$$rtexit$$00000004  c_w.l(rtexit2.o)
    0x1a000150   0x00002858   Code   RO            1    .text               raw-os.o
    0x1a0029a8   0x00000174   Code   RO          175    .text               fifo.o
    0x1a002b1c   0x000000a4   Code   RO          266    .text               cpu.o
    0x1a002bc0   0x00000146   Code   RO          270    .text               port.o
    0x1a002d06   0x00000012   Code   RO          282    .text               port_hook.o
    0x1a002d18   0x00000088   Code   RO          300    .text               user_extension.o
    0x1a002da0   0x00000044   Code   RO          315    .text               keil_startup_lpc18xx43xx.o
    0x1a002de4   0x0000001c   Code   RO          321    .text               sysinit.o
    0x1a002e00   0x00000014   Code   RO          547    .text               lpc43xx_scu.o
    0x1a002e14   0x0000045c   Code   RO          580    .text               lpc43xx_sdram.o
    0x1a003270   0x000002fc   Code   RO          603    .text               main.o
    0x1a00356c   0x00000220   Code   RO          638    .text               lpc43xx_i2c0.o
    0x1a00378c   0x000000ee   Code   RO         2626    .text               c_w.l(lludivv7m.o)
    0x1a00387a   0x00000002   PAD
    0x1a00387c   0x00000018   Code   RO         2630    .text               c_w.l(noretval__2printf.o)
    0x1a003894   0x00000068   Code   RO         2632    .text               c_w.l(__printf.o)
    0x1a0038fc   0x00000078   Code   RO         2634    .text               c_w.l(_printf_dec.o)
    0x1a003974   0x00000006   Code   RO         2662    .text               c_w.l(heapauxi.o)
    0x1a00397a   0x000000b2   Code   RO         2671    .text               c_w.l(_printf_intcommon.o)
    0x1a003a2c   0x00000024   Code   RO         2673    .text               c_w.l(_printf_char_file.o)
    0x1a003a50   0x00000030   Code   RO         2695    .text               c_w.l(_printf_char_common.o)
    0x1a003a80   0x0000004a   Code   RO         2697    .text               c_w.l(sys_stackheap_outer.o)
    0x1a003aca   0x00000012   Code   RO         2701    .text               c_w.l(exit.o)
    0x1a003adc   0x00000008   Code   RO         2713    .text               c_w.l(libspace.o)
    0x1a003ae4   0x000000b4   Code   RO         1192    i.Board_SetupClocking  lib_lpc_board_keil_mcb_4357.lib(board_sysinit.o)
    0x1a003b98   0x0000004c   Code   RO         1194    i.Board_SetupMuxing  lib_lpc_board_keil_mcb_4357.lib(board_sysinit.o)
    0x1a003be4   0x0000000c   Code   RO         1195    i.Board_SystemInit  lib_lpc_board_keil_mcb_4357.lib(board_sysinit.o)
    0x1a003bf0   0x00000020   Code   RO          715    i.Board_UARTPutChar  lib_lpc_board_keil_mcb_4357.lib(board.o)
    0x1a003c10   0x00000044   Code   RO          717    i.Board_UART_Init   lib_lpc_board_keil_mcb_4357.lib(board.o)
    0x1a003c54   0x0000003c   Code   RO         1762    i.Chip_Clock_EnableOpts  lib_lpc_chip_43xx.lib(clock_18xx_43xx.o)
    0x1a003c90   0x00000050   Code   RO         1764    i.Chip_Clock_FindBaseClock  lib_lpc_chip_43xx.lib(clock_18xx_43xx.o)
    0x1a003ce0   0x00000024   Code   RO         1765    i.Chip_Clock_GetBaseClock  lib_lpc_chip_43xx.lib(clock_18xx_43xx.o)
    0x1a003d04   0x00000012   Code   RO         1767    i.Chip_Clock_GetBaseClocktHz  lib_lpc_chip_43xx.lib(clock_18xx_43xx.o)
    0x1a003d16   0x00000002   PAD
    0x1a003d18   0x000000d4   Code   RO         1768    i.Chip_Clock_GetClockInputHz  lib_lpc_chip_43xx.lib(clock_18xx_43xx.o)
    0x1a003dec   0x00000028   Code   RO         1769    i.Chip_Clock_GetDivRate  lib_lpc_chip_43xx.lib(clock_18xx_43xx.o)
    0x1a003e14   0x00000020   Code   RO         1770    i.Chip_Clock_GetDividerDivisor  lib_lpc_chip_43xx.lib(clock_18xx_43xx.o)
    0x1a003e34   0x00000020   Code   RO         1771    i.Chip_Clock_GetDividerSource  lib_lpc_chip_43xx.lib(clock_18xx_43xx.o)
    0x1a003e54   0x00000078   Code   RO         1773    i.Chip_Clock_GetMainPLLHz  lib_lpc_chip_43xx.lib(clock_18xx_43xx.o)
    0x1a003ecc   0x00000058   Code   RO         1775    i.Chip_Clock_GetRate  lib_lpc_chip_43xx.lib(clock_18xx_43xx.o)
    0x1a003f24   0x00000048   Code   RO         1779    i.Chip_Clock_SetBaseClock  lib_lpc_chip_43xx.lib(clock_18xx_43xx.o)
    0x1a003f6c   0x00000050   Code   RO         1780    i.Chip_Clock_SetDivider  lib_lpc_chip_43xx.lib(clock_18xx_43xx.o)
    0x1a003fbc   0x00000010   Code   RO          723    i.Chip_SCU_PinMuxSet  lib_lpc_board_keil_mcb_4357.lib(board.o)
    0x1a003fcc   0x00000030   Code   RO         1196    i.Chip_SCU_SetPinMuxing  lib_lpc_board_keil_mcb_4357.lib(board_sysinit.o)
    0x1a003ffc   0x0000000e   Code   RO         2516    i.Chip_SetupCoreClock  lib_lpc_chip_43xx.lib(sysinit_18xx_43xx.o)
    0x1a00400a   0x0000000a   Code   RO         1494    i.Chip_UART_DisableDivisorAccess  lib_lpc_chip_43xx.lib(uart_18xx_43xx.o)
    0x1a004014   0x0000000a   Code   RO         1495    i.Chip_UART_EnableDivisorAccess  lib_lpc_chip_43xx.lib(uart_18xx_43xx.o)
    0x1a00401e   0x00000002   PAD
    0x1a004020   0x00000030   Code   RO         1497    i.Chip_UART_GetClockIndex  lib_lpc_chip_43xx.lib(uart_18xx_43xx.o)
    0x1a004050   0x0000004c   Code   RO         1499    i.Chip_UART_Init    lib_lpc_chip_43xx.lib(uart_18xx_43xx.o)
    0x1a00409c   0x00000042   Code   RO         1511    i.Chip_UART_SetBaud  lib_lpc_chip_43xx.lib(uart_18xx_43xx.o)
    0x1a0040de   0x00000006   Code   RO         1513    i.Chip_UART_SetDivisorLatches  lib_lpc_chip_43xx.lib(uart_18xx_43xx.o)
    0x1a0040e4   0x00000014   Code   RO         1270    i.SystemCoreClockUpdate  lib_lpc_chip_43xx.lib(chip_18xx_43xx.o)
    0x1a0040f8   0x00000006   Code   RO          725    i._sys_exit         lib_lpc_board_keil_mcb_4357.lib(board.o)
    0x1a0040fe   0x00000024   Code   RO         2520    i.clock_init_delay  lib_lpc_chip_43xx.lib(sysinit_18xx_43xx.o)
    0x1a004122   0x00000002   PAD
    0x1a004124   0x000000bc   Code   RO         2521    i.clock_main_init   lib_lpc_chip_43xx.lib(sysinit_18xx_43xx.o)
    0x1a0041e0   0x00000008   Code   RO          729    i.ferror            lib_lpc_board_keil_mcb_4357.lib(board.o)
    0x1a0041e8   0x00000050   Code   RO         1665    i.fpuInit           lib_lpc_chip_43xx.lib(fpu_init.o)
    0x1a004238   0x00000014   Code   RO          731    i.fputc             lib_lpc_board_keil_mcb_4357.lib(board.o)
    0x1a00424c   0x0000000a   Code   RO         2782    x$fpl$fpinit        fz_wm.l(fpinit.o)
    0x1a004256   0x00000002   PAD
    0x1a004258   0x00000040   Data   RO          739    .constdata          lib_lpc_board_keil_mcb_4357.lib(board.o)
    0x1a004298   0x000002bc   Data   RO         1197    .constdata          lib_lpc_board_keil_mcb_4357.lib(board_sysinit.o)
    0x1a004554   0x0000006c   Data   RO         1787    .constdata          lib_lpc_chip_43xx.lib(clock_18xx_43xx.o)
    0x1a0045c0   0x00000048   Data   RO         2522    .constdata          lib_lpc_chip_43xx.lib(sysinit_18xx_43xx.o)
    0x1a004608   0x00000000   Data   RO         2838    Region$$Table       anon$$obj.o

