:020000041A00E0
:1000000040120010111D001A191D001A1B1D001AA4
:100010001D1D001A1F1D001A211D001A5A5A5A5A76
:100020002B1D001A2B1D001A2B1D001A231D001A50
:10003000251D001A2B1D001ADB19001A911D001A2C
:100040002D1D001A2D1D001A2D1D001A2B1D001A22
:100050002D1D001A2D1D001A2D1D001A2D1D001A10
:100060002D1D001A2D1D001A2D1D001A2D1D001A00
:100070002D1D001A2D1D001A2D1D001A2D1D001AF0
:100080002D1D001A2D1D001A2D1D001A2D1D001AE0
:100090002D1D001A2D1D001A2D1D001A2D1D001AD0
:1000A0002D1D001A2D1D001A051E001A2D1D001AE7
:1000B0002D1D001A2D1D001A2D1D001A2D1D001AB0
:1000C0002D1D001A2D1D001A2D1D001A2D1D001AA0
:1000D0002D1D001A2D1D001A2D1D001A2D1D001A90
:1000E0002D1D001A2D1D001A2D1D001A2D1D001A80
:1000F0002B1D001A2D1D001A2D1D001A2D1D001A72
:100100002B1D001A2D1D001A2B1D001A2D1D001A63
:100110002D1D001A00F002F800F03CF80AA090E84B
:10012000000C82448344AAF10107DA4501D100F0B2
:1001300031F8AFF2090EBAE80F0013F0010F18BF43
:10014000FB1A43F001031847482A0000682A000000
:10015000103A24BF78C878C1FAD8520724BF30C8F3
:1001600030C144BF04680C607047000000230024C5
:1001700000250026103A28BF78C1FBD8520728BFB7
:1001800030C148BF0B6070471FB502F023FB1FBD95
:1001900010B510BD01F026FF1146FFF7F5FF01F085
:1001A0006EFE01F044FF03B4FFF7F2FF03BC02F060
:1001B00075FA0000002400BF10E001F0E5FB0446E2
:1001C0000748D0E900305A1C40F100000449C1E959
:1001D0000020204601F0DCFB01F00CFDEDE7000003
:1001E0001000001070B504460D4614B940F23310EB
:1001F00070BD032A05D0022A03D0042A01D0CF20E3
:10020000F6E700BF2460646000BF00202073A56093
:100210002061606122766376F94804F12001466826
:100220004E60086046683160416000BF0220607324
:100230000020DDE72DE9F84F064688469146C24684
:100240000027B06D58B1B06D407B022807D1B46D66
:10025000207E032803D1657EBD4200DD2F46554632
:10026000F4691BE0207E022806D0032810D1657EA9
:10027000BD4200DD2F460CE0A346584600F002FACE
:1002800028B9DBF80000001F00900098457E00E0D0
:1002900000BF00BF554500DAAA466469002CE1D1D1
:1002A000B84505DACD20A9F800003846BDE8F88F3A
:1002B0000020A9F800005046F8E72DE9F05F054658
:1002C0008846AE7EB24605F11C0920E0444503D1C4
:1002D0006069C9F800001AE0207E022804D00328D3
:1002E0000DD194F819A00BE02746384600F0CAF962
:1002F00020B93868A0F1040B9BF819A000E000BFFA
:1003000000BF564500DD564604F1140900BFD9F878
:100310000040002CDAD13046BDE8F09F70B50446AD
:100320000E4631462046FFF7C8FF0546607EA842CC
:1003300003D02946204600F0DAFF70BD70B50446B0
:10034000A06D407B02280CD1A66D307E022808D11A
:100350003569687E617E884203D100212846FFF717
:10036000DDFF70BD2DE9FE4304460E4600271CB993
:1003700040F23310BDE8FE83A248007810B140F28D
:100380003510F7E700BF01F0FFFA074600BF607BBA
:10039000022807D000BF384601F0FAFA00BF4FF438
:1003A000FC70E7E798492069096888421FD1E06935
:1003B000401C90B90020009001900346024601467F
:1003C00002904FF42F7001F017FC00BF384601F087
:1003D000DFFA00BF4FF42F70CCE7E069401CE0610A
:1003E00000BF384601F0D4FA00BFCC20C2E7207E1F
:1003F00003280CD184480068807E617E884206DA3A
:1004000000BF384601F0C4FA00BFCD20B2E725692D
:1004100005BB7D48006820617B480068C069606159
:1004200079480068C4610120E061207E03280AD178
:1004300075480068407E617E884204DD617E7248B6
:10044000006800F054FF00BF384601F0A1FA00BF79
:1004500000208FE736B900BF384601F099FA00BF97
:10046000062087E700BF6948007830B100BF3846F2
:1004700001F08EFA00BF07207CE700BF207E022833
:100480000BD161480068407E697E884205DA5E488B
:100490000068417E284600F02AFF32465A4801682B
:1004A000204600F018FA00BF384601F071FA00BF8C
:1004B00000F086FA01F068FA07465348006800F039
:1004C00020FC8046384601F063FA404652E72DE9A9
:1004D000F041044600271CB940F23310BDE8F0811A
:1004E0004848007810B140F23510F7E700BF01F03E
:1004F0004BFA074600BF607B022807D000BF384692
:1005000001F046FA00BF4FF4FC70E7E73E4920696E
:100510000968884206D000BF384601F039FA00BFAA
:10052000CB20DBE7E069401EE061E06930B100BF4D
:10053000384601F02DFA00BFCC20CFE721463248E3
:100540000068FFF7EBFE2646304600F09BF840B10E
:100550000020206100BF384601F01AFA00BF0020D9
:10056000BCE73068051F284600F09DF92561E86961
:100570006061EC610120E061207E032807D1687E84
:10058000617E884203DD617E284600F0B0FE00BF38
:10059000384601F0FDF900BF00F012FA00209DE797
:1005A0002DE9F0410746D7F81C801DE0D4F81480EF
:1005B0002646304600F066F8A0B93068051F284688
:1005C00000F071F92561E8696061EC61207E032823
:1005D0000AD1687E617E884206DD617E284600F091
:1005E00086FE01E000202061B8F10004DED1BDE804
:1005F000F08170B50446002654B940F2331070BD46
:10060000FC030010040000100C0000100300001098
:100610002048007810B140F23510F0E700BF01F03B
:10062000B3F9064600BF607B022807D000BF304602
:1006300001F0AEF900BF4FF4FC70E0E72546002062
:100640006073206918B121462069FFF767FE03E057
:100650002968081F00F062F9284600F013F8002806
:10066000F6D000BFD4E908010860D4E9081048605A
:1006700000BF00BF304601F08BF900BF00F0A0F9C9
:100680000020BCE701460868884201D1012070477C
:100690000020FCE70400001042684A6008604268DD
:1006A00011604160704701463E20087000200246FC
:1006B00008E00B1D03EBC2000060406000BF501C4F
:1006C000C0B202463E2AF4DB70472DE9F0470546EA
:1006D0000E462F46A94696F81980D9F8004004E046
:1006E000607D404500DD02E02468BC42F8D100BFD7
:1006F000311D2046FFF7D0FFBDE8F08730B5024638
:1007000002EBE10201F007050124AC40E3B21478EA
:100710001C43147030BD70B504460E46757E211D15
:1007200051F83500311DFFF7B7FF294604F5FA707F
:10073000FFF7E4FF2078A84200DD257070BD70B59A
:1007400004460E46757E211D01EBC500311DFFF7E5
:10075000A3FF294604F5FA70FFF7D0FF2078A842DE
:1007600000DD257070BD70B505460C46607E914970
:100770000968497E884204D121462846FFF7DFFFF9
:1007800003E021462846FFF7C6FF70BDFEB50546CB
:100790000F467C7E381D00F005F9291D01EBC400D1
:1007A0000168814201D1012100E0002101B9FEBDB3
:1007B00005F5FA70014601EBE40104F0070C012392
:1007C00003FA0CF3DAB20B7893430B7000BF28786E
:1007D000A04200D0EBE7C4F13E02214605F5FA70D5
:1007E00000F0B4FA0646002E02DBA01928700AE0D9
:1007F000002000900190034602460146029040F21C
:100800005D2001F0F9F900BFD1E770B505460C464F
:10081000617E281D00EBC106201D00F0C3F8211DDC
:100820003046FFF739FF70BD10B50278031D53F84D
:1008300032100B1F604C236010BD3EB5044694F887
:100840005400022806D0032805D004280FD006281B
:1008500014D10BE000BF201D00F0A4F8214657483A
:10086000FFF781FF012084F8540013E000BF201D32
:1008700000F098F8052084F854000BE00020009068
:100880000190034602460146029040F25D2001F0CD
:10089000B3F900BF00BF204600F0B1FF002084F88C
:1008A0005500A0653EBD10B504462046FFF7C5FFC4
:1008B00010BD70B504460D4665642046FFF7BDFFC8
:1008C00070BD70B504460E4615466664A5642046A4
:1008D000FFF7B3FF70BD70B505460C461646A5651B
:1008E000701C18B9022084F8540006E031462046F6
:1008F00000F06DFF032084F8540021462F48FFF7D5
:1009000045FF287B012804D1211D2846FFF7C4FE9E
:1009100003E021462846FFF7D8FE70BD3EB50446E9
:1009200094F85400022806D0032805D004280FD0DC
:10093000062814D10BE000BF201D00F033F821463B
:100940001E48FFF710FF012084F8540013E000BF99
:10095000201D00F027F8052084F854000BE000204B
:1009600000900190034602460146029040F25D204D
:1009700001F042F900BF00BF204600F040FF032015
:1009800084F855000020A0653EBD70B50446A56DF5
:10099000287B30B9201D00F005F82146A06DFFF737
:1009A00094FE70BDD0E900121160D0E900215160C1
:1009B000704700000C0000100800001048000010F4
:1009C00010B5002400F0E0FF04466248007818B13A
:1009D000204600F0DDFF10BD5F48007818B12046CA
:1009E00000F0D6FFF7E75D48FFF71EFF5C480068A0
:1009F0005C490968884203D1204600F0C9FFEAE754
:100A000000F0E1FF204600F0C3FF00BFE3E710B5B0
:100A1000554800F09BF85448083000F097F85248C9
:100A2000103000F093F85048183000F08FF84E481E
:100A3000203000F08BF84C48283000F087F84A4806
:100A4000303000F083F810BD00B585B0052047496F
:100A500008804248FFF727FE00F0AAFEFFF7D7FF05
:100A600001F0C1F8012042494022424BCDE9013258
:100A7000CDE9031000203D2302463FA100904148EC
:100A800000F0BAF9002005B000BD10B53748008865
:100A900005280CD13148FFF7C7FE314800683149BD
:100AA000086004203149088000F079FF01E004204B
:100AB00010BD0320FCE72DE9F0410646002727483A
:100AC000001D00EBC60500BF00F05EFF074600BF3B
:100AD00028460168814201D1012100E0002131B1A5
:100AE00000BF384600F054FF00BFBDE8F081286821
:100AF000041F207E012805D100BF384600F048FFC2
:100B000000BFF2E728680068A84205D100BF384658
:100B100000F03EFF00BFE8E7206910B12069401EE9
:100B20002061206928B100BF384600F031FF00BFC6
:100B3000DBE721460948FFF768FE6069206100BFD6
:100B4000384600F025FF00BF00BFCEE700604060E0
:100B5000704700000400001003000010480000105F
:100B6000080000100C000010F4030010000000103A
:100B7000B501001AB402001069646C655F7461739A
:100B80006B000000440200103EB511480068C46AC2
:100B90001049206888420AD0002000900190034646
:100BA00002460146029040F2BE2001F025F80848B6
:100BB00000680068A0420AD200200090019003461D
:100BC00002460146029040F2BE2001F015F83EBDFB
:100BD0000C000010AFBEADDE38B5002401F002F805
:100BE0007F48007848B90020009000F0CDFE00BF9B
:100BF0009DF800000028FBD000BF00F0C5FE0446B1
:100C000077480078401E764908700846007818B189
:100C1000204600F0BDFE38BD7248007818B120466D
:100C200000F0B6FEF7E77048FFF7FEFD6F4800687A
:100C30006F490968884203D1204600F0A9FEEAE71F
:100C400000F0C6FE204600F0A3FE00BFE3E710B5AB
:100C500000F0CEFF6748D0E900305A1C40F1000098
:100C60006449C1E9002000F0D5FD61490968487E6A
:100C7000FFF721FF10BD3EB5002400BF00F084FE49
:100C8000044600BF56480078642812DB002000901C
:100C90000190034602460146029040F25B2000F0BC
:100CA000ABFF00BF204600F073FE00BF40F25B20A8
:100CB0003EBD4B480078401C4949087000BF2046A3
:100CC00000F066FE00BF0020F2E72DE9F041494840
:100CD0004FF47A734FF0000C06C8A1FB036802FBC7
:100CE000038201FB0C2164226346304601F000F9C7
:100CF00004460D4620462946BDE8F08140F25640A4
:100D00007047FEB5054695F8556036B1012E06D000
:100D1000022E06D0032E08D105E0002413E008249B
:100D200011E009240FE064240DE000200090019000
:100D3000034602460146029040F2BF2000F05CFFED
:100D400040F2BF2400BF00BF2046FEBDF0B50546FF
:100D50000B4616462C46581104EB800403F01F0086
:100D600048B103F01F0C012000FA0CF0401E276868
:100D700027EA000200E0226800212BE002B311B94B
:100D800003F01F00091A90B208B9120C1031D0B24A
:100D900008B9120A083102F00F0008B91209091D3A
:100DA00002F0030008B99208891C02F0010000B9A2
:100DB000491CB14201DA0846F0BD4FF0FF30FBE7B5
:100DC00009B1203103E003F01F00C0F12001201D14
:100DD00004460268B142D1DB4FF0FF30ECE700007F
:100DE000040000100300001048000010080000106C
:100DF0000C000010200000102DE9FF4F81B00446C8
:100E00008B461D46DDF84890DDE90F780020009004
:100E100024B940F2331005B0BDE8F08F3E2D01DB60
:100E20006C20F8E717B940F23110F4E7119810B9C7
:100E300040F23110EFE7FB48007810B140F2351076
:100E4000E9E700BF00F0A0FD009000BF3D2D0CD1F0
:100E5000F548007830B100BF009800F099FD00BF60
:100E60000120D8E70120F049087000BF009800F089
:100E70008FFD00BF70220021204600F025FF0E9854
:100E800010B10E98606101E03220606160692061FC
:100E900002202076B9F1000F03D0012084F854001D
:100EA00004E0052084F854000120E076E7623E4625
:100EB0004FF0000A03E0002001C60AF1010AC24512
:100EC000F9D3C4F850B06576A576C4F82880E66AF0
:100ED000D648306041463846119B039A00F0A6FD83
:100EE0002060204600F085FE00BF00F04DFD009020
:100EF00000BFCF4804F1200142684A6008604268A0
:100F00001160416000BFB9F1000F03D02146C9480C
:100F1000FFF715FCC8480088042806D000BF0098D9
:100F200000F036FD00BF052075E700BF009800F017
:100F30002FFD00BFB9F1000F01D0FFF741FD0020E8
:100F400069E730B50246002412B940F2331030BDD3
:100F500011B940F23110FAE792F85400092802D191
:100F600040F2BD20F3E7D06A031D00E0641C20CBF3
:100F7000002DFBD00C600020E9E710B50024A94843
:100F8000007810B140F2351010BDAC480078FA2856
:100F900001D36920F8E700BF00F0F6FC044600BF6B
:100FA000A6480078401CA549087000BF204600F004
:100FB000EFFC00BF0020E7E710B500249948007857
:100FC00010B140F2351010BD9C48007808B9682077
:100FD000F9E700BF00F0D8FC044600BF974800784E
:100FE000401E964908700846007830B100BF204680
:100FF00000F0CEFC00BF6720E5E700BF204600F010
:10100000C7FC00BFFFF7DCFC0020DCE770B504463E
:1010100000258448007810B140F2351070BD0CB93D
:10102000D120FBE700BF00F0AFFC054600BF00BFCA
:101030008248007830B100BF284600F0A9FC00BF0C
:101040000720EBE700BF07207D49096881F85400BD
:1010500021467B48006800F0BAFB79480168754872
:10106000FFF794FB00BF284600F092FC00BFFFF79B
:10107000A7FC00F089FC054671480068FFF741FEB7
:101080000646284600F084FC3046C7E710B56C4899
:10109000006810B940F2331010BD6948006890F83C
:1010A000540010B940F2BD20F6E765480168614878
:1010B000FFF7ABFB0020EFE72DE9F04705460E46B2
:1010C000904699465748007818B140F23510BDE86F
:1010D000F08742F20F70864202D940F2FB10F6E729
:1010E000B5F57A7F02D34FF4FD70F0E764244FF436
:1010F000FA70B0FBF4F0484460434FF47A71B0FBEF
:10110000F1F14FF461606843C6EB061200EB820018
:10111000404400FB04171FB13846FFF777FFD6E7BE
:101120004FF4FE70D3E770B50446002500BF00F011
:101130002BFC054600BF4248006884420BD100BF2B
:101140003E48007830B100BF284600F021FC00BFC7
:10115000072070BD00BF94F85400092833D2DFE89F
:1011600000F03205151B2421230F22000120E07618
:10117000052084F8540021462E48FFF707FB2AE09B
:101180000120E076082084F8540024E00120E07675
:10119000062084F854001EE00120E076042084F844
:1011A000540018E000BF00BF00BFE07EFF2806D15A
:1011B00000BF284600F0ECFB00BF6A20C9E7E07ED4
:1011C000401CE07607E000BF284600F0E1FB00BFCE
:1011D00040F2BD20BDE700BF00BF284600F0D8FBAD
:1011E00000BFFFF7EDFB0020B3E710B5044614B9CC
:1011F00040F2331010BD607E3D2802D14FF4CB7019
:10120000F8E72046FFF78FFFF4E770B504460025A6
:1012100000BF00F0B9FB054600BF94F85400092850
:1012200049D20FE00400001002000010AFBEADDE96
:10123000F40300104800001000000010030000102C
:101240000C000010DFE800F0370507082E0F250618
:101250001C0000BF00BF00BF00BF284600F098FB85
:1012600000BF6B2070BDE07E401EE076E07E30B9AE
:10127000012084F854002146F948FFF774FA22E06F
:10128000E07E401EE076E07E10B9072084F854002E
:1012900019E0E07E401EE076E07E10B9022084F87E
:1012A000540010E0E07E401EE076E07E10B903209E
:1012B00084F8540007E000BF284600F069FB00BF37
:1012C00040F2BD20CEE700BF00BF284600F060FB23
:1012D00000BFFFF775FB0020C4E710B5044614B942
:1012E00040F2331010BD2046FFF78FFFFAE72DE9DB
:1012F000FE4304460E4600BF607EB0425CD094F8C8
:101300005400092848D2DFE800F047051E1F211AC3
:1013100020191B002146D248FFF738FA6676D148DB
:101320000068844204D12146CD48FFF7F4F903E078
:101330002146CB48FFF703FA00243CE000BF00BF82
:101340006676002437E000BF00BF00BF677E667688
:101350002046FFF71AFBA06D407B02281AD1D4F873
:101360005880D8F81050687E617E884201DD2C4696
:1013700011E0687EB8420BD100212846FEF79DFFA0
:101380000646687EB04201D02C4604E0002402E00C
:10139000002400E000240EE00020009001900346AD
:1013A00002460146029040F2BD2000F025FC40F2CA
:1013B000BD20BDE8FE8300E00024002C9CD100206D
:1013C000F7E72DE9F84304460D4616460027B846D0
:1013D00000BFA548007818B140F23510BDE8F88389
:1013E00014B940F23310F9E716B940F23310F5E7BB
:1013F000607E3D2802DB40F29310EFE73D2D02D1E5
:1014000040F29310EAE794F85400092802D140F220
:10141000BD20E3E700BF00F0B7FA804600BF6A4690
:1014200029462046FEF706FF0746BDF8000038B102
:1014300000BF404600F0ACFA00BFBDF80000CDE7A9
:10144000A5763D46607E307029462046FFF74FFF67
:101450000090BDF8000038B100BF404600F098FA97
:1014600000BFBDF80000B9E700BF404600F090FAA9
:1014700000BFFFF7A5FA0020B0E770B504460025CD
:1014800014B940F2331070BD7748007810B140F2C3
:101490003510F8E7607E3D2802D140F29510F2E762
:1014A00000BF00F071FA054600BF6E480068844234
:1014B0000BD100BF6D48007830B100BF284600F066
:1014C00067FA00BF0720DEE700BF2046FFF768F895
:1014D00094F8540009282AD2DFE800F02905191BE6
:1014E0001C0D1A11120021465D48FFF74FF9092023
:1014F00084F8540023E0092084F854001FE000BF62
:10150000204600F07CF9092084F8540017E000BF61
:1015100000BF00BF204600F072F9201D00F03BF92B
:10152000092084F854002046FEF708FF07E000BFBA
:10153000284600F02DFA00BF40F2BD20A3E700BF0F
:1015400004F1200000F027F9204600F04DFB00BF19
:10155000284600F01DFA00BFFFF732FA002092E79C
:101560002DE9F04104460D461646002700BF00F065
:101570000BFA074600BF04F10C0040F8265000BFEC
:10158000384600F005FA00BFBDE8F081024602F1DE
:101590000C0050F82100704770B504460D46002637
:1015A00014B940F2331070BD2F48007810B140F2EA
:1015B0003510F8E700BF00F0E7F9064600BF0DB1AF
:1015C000656101E0322060616069206100BF3046E2
:1015D00000F0DEF900BF0020E5E770B505460C46D7
:1015E000002615B940F2331070BD012C04D0022C36
:1015F00002D04FF49A70F7E71B48007810B140F220
:101600003510F1E700BF00F0BFF9064600BF2C76A9
:1016100000BF304600F0BCF900BF0020E4E770B521
:1016200004460D46002614B940F2331070BD15B9BA
:1016300040F23310FAE70C48007810B140F2351050
:10164000F4E700BF00F0A0F9064600BF207E287036
:1016500000BF304600F09CF900BF0020E6E7000024
:10166000480000100C0000100400001003000010DF
:1016700070B50446002514B940F2331070BD4948D6
:10168000007810B140F23510F8E700BF00F07CF9A7
:10169000054600BF94F85400092835D2DFE800F071
:1016A00034051E1F1D061C0E0F0035E0012084F8B6
:1016B000540021463C48FFF756F82DE000BF204675
:1016C00000F09DF821463848FFF74DF8012084F8D6
:1016D000540084F855001FE000BF00BF00BF204643
:1016E00000F08DF8201D00F056F821462E48FFF737
:1016F0003AF8012084F8540084F855002046FEF79B
:101700001DFE0020A06507E000BF284600F040F95C
:1017100000BF40F2BD20B1E700BF00BF284600F087
:1017200037F900BF204600F060FAFFF749F90020C2
:10173000A4E71E48006870472DE9F04704460E46AE
:1017400017464FF000091748007818B140F23510DD
:10175000BDE8F08700BF00F017F9814600BF25689B
:101760000AE0D5F800800EB1281FB0471FB12168EC
:10177000081FFFF798F84546A542F2D100BF48463A
:1017800000F006F900BFFFF71BF90020E0E740F288
:10179000B93038307047D0E900121160D0E900212B
:1017A0005160704704000010480000100C00001049
:1017B0000020014608E0714A02EBC1000060406071
:1017C00000BF481C80B201460829F4DB70472DE9B0
:1017D000F04104460D4685B1694800682844A0637D
:1017E000E56394F8380000F00707644800EBC7068B
:1017F0002146304600F09BF82664BDE8F08170B5C4
:101800000446256C2DB104F1300000F089F8002069
:10181000206470BD2DE9FE434FF0000900BF00F0C9
:10182000B3F8814600BF56480068401C5449086020
:101830000846007800F00708504800EBC8063568F5
:1018400065E0B54262D02F68A5F130044C49A06B29
:101850000968884259D194F85400032814D0042808
:1018600028D0072802D0082840D135E0002084F88D
:101870005500012084F854002046FFF7C0FF2146A0
:101880004048FEF770FF3DE02046FFF7B8FF201DFF
:1018900000F046F821463B48FEF765FF022084F839
:1018A0005500012084F854002046FEF747FD002033
:1018B000A06527E02046FFF7A2FF201D00F030F8CA
:1018C000022084F85500052084F854002046FEF7D5
:1018D00035FD0020A06515E0052084F854000020A7
:1018E00084F855002046FFF78AFF0BE000200090A7
:1018F0000190034602460146029040F25D2000F04E
:101900007BF900BF00BF3D4601E001E000E098E741
:1019100000BF00BF484600F03BF800BFBDE8FE83B3
:10192000D0E900121160D0E9002151607047F0B594
:1019300002460B4614461746DE6B38680CE0A0F1F1
:101940003005DFF83CC0A96BDCF800C0A1EB0C014E
:10195000B14200D902E00068A042F0D100BF03F11B
:101960003001D0F804C0C1F804C00860D0F804C049
:10197000CCF80010416000BFF0BD0000B4030010BF
:101980001800001048000010EFF3108072B6704786
:1019900080F31088704772B6704762B670471F4870
:1019A0004FF0FF010170002080F30988EFF30880F9
:1019B000C008C00080F3088819484FF080510160CA
:1019C00062B6FEE700BF16484FF0805101607047D5
:1019D00013484FF080510160704772B6EFF30980F1
:1019E00060B120ED108B203880E8F00F0D490968B8
:1019F000086000B5FFF7C8F85DF804EB09480A492C
:101A00000A680260106890E8F00F2030B0EC108B8C
:101A100080F309884EF0040E62B6704722ED00E0B4
:101A200004ED00E00C00001008000010F0B50446C2
:101A30000D4604EB850121F007010846AA27061F81
:101A4000304637600A27061F304637601527061FC5
:101A5000304637601427061F304637601327061FAD
:101A6000304637601227061F304637601127061FA1
:101A7000304637601027061F304637600927061F9B
:101A8000304637600827061F304637600727061F95
:101A9000304637600627061F304637600527061F89
:101AA000304637600427061F304637600327061F7D
:101AB000304637600227061F304637600127061F71
:101AC000304637600027061F304637604FF080777A
:101AD000061F30463760061F304633606FF001073F
:101AE000061F304637604FF01237061F304637600A
:101AF0004FF00337061F304637604FF00237061F9E
:101B0000304637607F10061F30463760061F30466C
:101B100032603127061F304637603027061F3046B7
:101B200037602927061F304637602827061F3046B2
:101B300037602727061F304637602627061F3046A6
:101B400037602527061F304637602427061F30469A
:101B500037602327061F304637602227061F30468E
:101B600037602127061F304637602027061F304682
:101B700037601927061F304637601827061F304682
:101B800037601727061F304637601627061F304676
:101B900037604FF01137061F304637604FF010376F
:101BA000061F304637604FF00937061F3046376052
:101BB0004FF00837061F304637604FF00737061FD3
:101BC000304637604FF00637061F304637604FF01B
:101BD0000537061F304637604FF00437061F304682
:101BE0003760F0BD70477047704770477047704767
:101BF0007047704730BF70472DE9F84F044688465C
:101C000091469A460AADE0CDA4F25B20C0B102280D
:101C100002D061281ED109E000200090FFF7B4FE39
:101C200000BF9DF800000028FBD01DE000200090C0
:101C3000FFF7AAFE00BF9DF800000028FBD013E0CC
:101C400000200090FFF7A0FE00BF9DF800000028D4
:101C5000FBD009E000200090FFF796FE00BF9DF842
:101C600000000028FBD000BF00BFBDE8F88FF0B532
:101C70000C46134605462646102B1BD304F00307DB
:101C8000C7B900F00307AFB92946324608E080CA59
:101C900080C180CA80C180CA80C180CA80C1103B17
:101CA000102BF4D202E080CA80C11B1F042BFAD291
:101CB0000D46164603E016F8017B05F8017B1F1E52
:101CC000A3F10103F7D1F0BDF0B50C460546042A97
:101CD00015D300F0030696B9014644EA042343EA0B
:101CE000034304E008C108C108C108C1103A102A22
:101CF000F8D201E008C1121F042AFBD20D4601E010
:101D000005F8014B161EA2F10102F9D1F0BD000049
:101D10000A4880470A480047FEE7FEE7FEE7FEE77D
:101D2000FEE7FEE7FEE7FEE7FEE7FEE7FEE7000070
:101D300004480549054A064B70470000551D001A26
:101D40001501001A400B001040120010400C00104A
:101D5000400C001010B5044C0448206000F012FD47
:101D600000F0F2F910BD000008ED00E00000001ADC
:101D700010B5002807DA4A07140E544A00F00F0382
:101D80001B1FD45403E04A07130E514A135410BDCD
:101D900010B5FEF770FFFEF75AFFFEF71DFF10BDEE
:101DA00010B500F071FC4B4800686421B0FBF1F401
:101DB000601EB0F1807F00D30FE0601E4FF0E02185
:101DC000486107214FF0FF30FFF7D2FF00204FF0AE
:101DD000E02188610720086100BF10BD88B00020A5
:101DE00007E000BF3C490968C9B20DF80010411C6A
:101DF000C8B200BF3849496901F001010029F0D19A
:101E000008B0704710B5FEF736FFFFF7E7FFFEF7A3
:101E1000E3FE10BD10B505202F49496801432E4A45
:101E2000516000BF01211A20FFF7A2FF1A2000F025
:101E300041F810BDFFF7B4FF274800F08BF92648A2
:101E400000F0B8FB4FF4E131234800F0F8FB00BF8D
:101E500001202149C86500BF0F20886000BF012113
:101E60001A20FFF785FF1A2000F024F8FFF7D2FFB1
:101E700004E001221949184800F0C5FBF9E700B554
:101E800085B0FEF7E1FD0120AFF257014FF4C872B3
:101E9000134BCDE90132CDE90310002002230246A5
:101EA00010A100901148FEF7A7FFFEF7EEFD0020FD
:101EB00005B000BD00F01F020121914042099200CF
:101EC00002F1E022C2F800117047000018ED00E0B6
:101ED00000E400E03C00001000100C40280000105E
:101EE0002C0400107461736B310000006C0A001048
:101EF00053EA020C00F069802DE9F04B4FF0000628
:101F0000002B1FBFB3FA83F503FA05F424FA05F694
:101F10005E4012BF1643B2FA82F502FA05F4C5F12B
:101F200020051EBF22FA05FC44EA0C04203556EABF
:101F3000044C4FEA144418BF641C4FF000084FF0E3
:101F40000009904271EB030C39D3002919BFB1FA93
:101F500081F701FA07F6B0FA80F700FA07F6C7F141
:101F600020071EBF20FA07FC46EA0C062037B6FB06
:101F7000F4FCA7EB0507103F07F01F0BCBF1200681
:101F80000CFA0BFB2CFA06F644BFB3460026202FB2
:101F9000A4BF5E464FF0000B5BEA060C08BF4FF093
:101FA000010B19EB0B09ABFB027C48EB0608C01BCD
:101FB00006FB02CC0BFB03CC71EB0C01C1E70B461B
:101FC000024641464846BDE8F08B13B54FF000008D
:101FD0004FF00001AFF30080BDE81C407047704730
:101FE00070477047754600F02BF8AE46050069460D
:101FF000534620F00700854618B020B5FFF798FE3D
:10200000BDE820404FF000064FF000074FF00008F9
:102010004FF0000B21F00701AC46ACE8C009ACE87A
:10202000C009ACE8C009ACE8C0098D46704710B5DE
:102030000446AFF300802046BDE81040FEF7B3B879
:1020400000487047DC0A001070B52748274AB0FBEB
:10205000F2F1274A126822F4704242EA0132254B1B
:10206000C3F82021224A121D126822F4704242EA6B
:102070000132C3F8242100BF01220146062000F0EE
:102080006FFA002411E01C4D05EB8405EB781A4D26
:1020900005EB8405AA78184D05EB84056978164D83
:1020A00015F8240000F0F0F9641C042CEBD311485F
:1020B000406820F00C000F4948600846406840F036
:1020C0000300486005220921042000F001FA0023E2
:1020D00001221021052000F0D7F902220921104623
:1020E00000F0F6F970BD000000CB280C70374801F5
:1020F00020310440003004402028001A10B57C2113
:102100000D4800F015FA002004460DE00B4A02EBE2
:1021100084025078094A02EB84025188084A42F846
:10212000201000BF601C0446042CEFD30621054894
:1021300000F0FEF910BD00004828001A382A001AE5
:10214000006C08403028001A10B5FFF7D7FFFFF7E2
:102150007BFF10BD10B50446144884420AD11922F1
:102160000021022000F0DCF9D1220121022000F040
:10217000D7F91AE00E4884420AD11B2201210A2015
:1021800000F0CEF9D32202210A2000F0C9F90CE0B8
:102190000848844209D11A220321022000F0C0F924
:1021A000D2220421022000F0BBF910BD001008402B
:1021B00000100C4000200C4070B50446012009B10D
:1021C00040F002000AB140F00400022B01D140F0BF
:1021D0002000B4F5A17F05DB044DA4F5A17645F8F8
:1021E000360002E0024D45F8340070BD0021054084
:1021F0000011054010B502461C20002114E001EB3F
:1022000041030F4C34F8133093420CDC01EB4103D3
:1022100004EB43035B88934205DB01EB410304EBD2
:102220004303187900E0491C1C2807D101EB410346
:10223000034C04EB43031B798342E0D110BD000043
:10224000DC2A001A01461C2901DB112070470548D1
:1022500050F8212002F0010008B11120F6E7C2F386
:102260000460F3E75C00054070B504462046FFF7C4
:10227000E9FF054600F002F870BD000070B50446A5
:102280000025122C51D2DFE804F0090C0E16205064
:102290002326292C505030363C42484E4FF40045FE
:1022A00044E0244D42E02448006800F00700042880
:1022B00000D0224D3AE02048006800F007000428D2
:1022C00001D01E4D00E01E4D30E01E4805682DE097
:1022D0001D4805682AE01D48056827E01B48456839
:1022E00024E000F069F8054620E00021204600F0D7
:1022F0002FF805461AE00121204600F029F805468E
:1023000014E00221204600F023F805460EE00321E8
:10231000204600F01DF8054608E00421204600F0A4
:1023200017F8054602E0002500E000BF00BF284680
:1023300070BD0000001BB7002C31044040787D01C7
:1023400080F0FA021828001A1C28001A4000001019
:102350002DE9F04107460C46204600F01DF80646E0
:10236000204600F009F805463046FFF787FF691C54
:10237000B0FBF1F0BDE8F0810146044850F82100BF
:1023800003A2525C02EA900070470000480005403A
:10239000030F0F0FFF0000000146064B03EB810007
:1023A000826C02F0010008B111207047C2F3046092
:1023B000FBE70000000005402DE9FE4F1A48446C81
:1023C000C4F30360FFF75AFF074618A000680090A7
:1023D0001548006C00F0010010B90020BDE8FE8F28
:1023E000C4F30748C4F30139C4F3012AC4F3C01B82
:1023F000C4F38010029008F1010509F101061DF8EF
:102400000A000190BBF1000F01D1029818B1B7FB8F
:10241000F6F06843E2E701984000B5FBF0F0B7FB47
:10242000F6F14843DAE70000000005400102040825
:102430002DE9F0410446B4F5A17F05DB1048A4F571
:10244000A17150F8315002E00E4850F8345005F0B8
:10245000010080B12046FFF7CDFE80464046FFF7E1
:1024600003FF0646C5F3421008B9012700E0022722
:10247000B6FBF7F600E000263046BDE8F08100002C
:10248000002105400011054070B504460E4E06EBD4
:102490008405E86D1C2C10DA112914D00B4D28404E
:1024A0000AB140F400600BB140F0010040EA016065
:1024B000054D5C3545F8240005E040F00106024D6D
:1024C0005C3545F8246070BD00000540FEF7FFE074
:1024D00030B50F4D05EB8004A36C521E112910D0AE
:1024E0000CA4245C0D4D45EA8404A34343F400642A
:1024F00044EA016444EA8205054C483444F820501B
:1025000005E043F00105024C483444F8205030BD4A
:1025100000000540030F0F0FFF0000000100001F27
:10252000024B03EBC01343F82120704700600840C2
:1025300070B5024600200EE012F8203002EB800653
:10254000747802EB80067588044E06EBC31646F8D5
:10255000245000BF401C8842EED370BD006008408C
:1025600070B504460D46164600F0AEF870BDC16861
:1025700021F08001C1607047C16841F08001C160F5
:10258000704700000146084A914201D1A2200AE0AA
:10259000064A914201D1A12005E0054A914201D1AC
:1025A000822000E08120704700200C4000100C4089
:1025B0000020084070B504462046FFF7E3FF0646BA
:1025C00001231A461946FFF7F7FD0720A06000BF58
:1025D00000BF0020E06500BF6060E0602062E06452
:1025E000606520650548844202D100202061A5690C
:1025F0000320E06000BF1020A06270BD00200840F2
:102600000146486970472DE9F04180460D4616465F
:1026100000242F4605E03978404600F00EF87F1C74
:10262000641CB44206DA4046FFF7EAFF00F02000DF
:102630000028F0D12046BDE8F081016070472DE907
:10264000F04780460E464046FFF79CFF8246FFF764
:10265000EFFE07463001B7FBF0F4250AA4EB05298D
:102660004046FFF789FFEAB209F0FF01404600F05B
:1026700007F84046FFF77BFFB7FBF4F0BDE8F087B3
:10268000016042607047000010B56920FFF7D0FE7E
:102690000149086010BD00003C00001000BF30BFC1
:1026A000FDE708B50020009008E00098401C00906D
:1026B0000098401E00900098401C00900098B0F5D3
:1026C000806FF2D308BD000070B52948806920F002
:1026D0000400274988610846806920F0010088616C
:1026E000FFF7DFFF2248406C20F07060204948640B
:1026F0000846406C40F0C06048640846406C40F4B6
:10270000006048640846406C1A490840184948640B
:102710000846406C18490843154948640846406C0F
:1027200020F00100486400BF1148006C00F0010077
:102730000028F9D0FFF7B5FF10480D49C866FFF72C
:10274000B0FF002411E00E4D05EB8405EB780C4D35
:1027500005EB8405AA780A4D05EB84056978084DD8
:1027600015F82400FFF790FE641C122CEBD370BD0B
:10277000000005403DCC00FFC0011000000800092A
:10278000482B001A3EB50F480F4B191D00221C683C
:1027900001940C6800940D4D019CAC4205D10C4D88
:1027A000009CAC4201D1012400E0002422463AB151
:1027B00004680294029C44F470040294029C046035
:1027C0003EBD000088ED00E040EF00E02100111068
:1027D000110000114FF04070E1EE100A7047000048
:1027E000060606060604040418191A1B1C0C0D0E16
:1027F000E50E0000DD0E000068010000ED000000A5
:1028000008040400F0000403040040010001010179
:10281000010602000000000000000000001BB700DD
:1028200008030100070301000B0E0100030F010163
:102830000303F3000304F3000305F3000306F300AE
:102840000307F3000308F3000113F0000001B600D2
:102850000112B3000114B3000111F3000C01B30025
:102860000110F700010FF3000000F2000107F30070
:102870000108F3000109F300010AF300010BF30062
:10288000010CF300010DF300010EF3000504F2004A
:102890000505F2000506F2000507F2000500F2004A
:1028A0000501F2000502F2000503F2000D02F2003C
:1028B0000D03F2000D04F2000D05F2000D06F2000A
:1028C0000D07F2000D08F2000D09F2000E05F300ED
:1028D0000E06F3000E07F3000E08F3000E09F300D6
:1028E0000E0AF3000E0BF3000E0CF3000209F300C6
:1028F000020AF300020BF300020CF300020DF300D6
:102900000100F2000101F2000102F2000208F300EE
:102910000207F3000206F2000202F2000201F200D6
:102920000200F2000608F1000607F1000D10F200A7
:102930000D0FF2000E00F3000E01F3000E02F30083
:102940000E03F3000E04F3000A04F3000104F30085
:102950000606F1000D0DF2000D0AF2000609F30063
:102960000106F3000604F3000605F300060BF3006E
:10297000060CF300060AF3000D00F2000E0DF30042
:102980000103F3000104F3000606F1000105F30062
:102990000106F3000D0A54000D0B54000D0C5400F9
:1029A0000D0D54000D0E5400090050000901500097
:1029B000090250000F00F0000F01F4000F02F200B6
:1029C0000F03F200040105000402020004050200E6
:1029D000040602000407000004090200040A0200C1
:1029E00007000000070603000803030008040300B3
:1029F0000805030008060300080703000B00020097
:102A00000B0102000B0202000B0302000B04020088
:102A10000B0502000B0602000300F2000600F400A2
:102A20000702F2000602F3000701F2000601F300BC
:102A300003021200030152000000F0000001F00048
:102A40000002F0000003F00000093D00010000005A
:102A500000120000002A00000046000000FFFFFFF7
:102A600000FBFFFF000C0000003C0000003C0000E9
:102A700000460000000C000000FEFFFF00000028E0
:102A800003000000320000000055000000000000BC
:102A90000000000000000000000000000000000036
:102AA0000000000000000000000000000000000026
:102AB0000000000000000000000000000000000016
:102AC000820000000000000000410000005A0000E9
:102AD000005A00000023000000FCFFFF000005007A
:102AE0000A002000240009004000400005006000AA
:102AF000A6000400C000C3000200E000E0000100E6
:102B000000010001030020012001060040014001F6
:102B10000C004201420119006201620113008201AE
:102B200082011200A201A2011100C201C201100023
:102B3000E201E2010F00020202020E002202220262
:102B40000D00230223021C000001010009090100FD
:102B50000A0901000107010102090100060901003B
:102B60000C0901010D0901000E0901000F09010006
:102B700010090100110901001209010013090100E7
:102B800014110100191101001A1101001B1101009B
:102B9000B02B001A00000010480000005001001A7D
:102BA000F82B001A48000010F81100006C01001A00
:102BB0000000000000000000000000000000000015
:102BC0000000000000000000000000000000000005
:102BD000000000000000000078000000000000007D
:102BE00000000000000000000000000000000000E5
:082BF0000000000000000000DD
:040000051A000115C7
:00000001FF
