Component: ARM Compiler 5.05 update 1 (build 106) Tool: armlink [4d0efa]

==============================================================================

Section Cross References

    raw-os.o(.text) refers to cpu.o(.text) for OS_CPU_SR_Save
    raw-os.o(.text) refers to raw-os.o(.data) for .data
    raw-os.o(.text) refers to raw-os.o(.bss) for .bss
    raw-os.o(.text) refers to user_extension.o(.text) for raw_memset
    raw-os.o(.text) refers to port_hook.o(.text) for task_create_hook
    raw-os.o(.text) refers to port.o(.text) for port_stack_init
    fifo.o(.text) refers to cpu.o(.text) for OS_CPU_SR_Save
    fifo.o(.text) refers to user_extension.o(.text) for raw_memcpy
    rsh.o(.text) refers to cpu.o(.text) for OS_CPU_SR_Save
    rsh.o(.text) refers to string.o(.text) for raw_strncmp
    rsh.o(.text) refers to user_extension.o(.text) for raw_memset
    rsh.o(.text) refers to rsh.o(.data) for .data
    rsh.o(.text) refers to rsh.o(.conststring) for .conststring
    rsh.o(.constdata) refers to rsh.o(.conststring) for .conststring
    rsh.o(.constdata) refers to rsh.o(.text) for rsh_help_command
    rsh.o(.data) refers to rsh.o(.constdata) for xHelpCommand
    cpu.o(.text) refers to raw-os.o(.text) for raw_stack_check
    cpu.o(.text) refers to raw-os.o(.data) for raw_task_active
==============================================================================

Removing Unused input sections from the image.

    Removing rsh.o(.text), (472 bytes).
    Removing rsh.o(.constdata), (16 bytes).
    Removing rsh.o(.conststring), (50 bytes).
    Removing rsh.o(.conststring), (173 bytes).
    Removing rsh.o(.data), (20 bytes).
    Removing string.o(.text), (592 bytes).
    Removing sysinit.o(.rev16_text), (4 bytes).
    Removing sysinit.o(.revsh_text), (4 bytes).
    Removing lpc43xx_scu.o(.rev16_text), (4 bytes).
    Removing lpc43xx_scu.o(.revsh_text), (4 bytes).
    Removing lpc43xx_sdram.o(.rev16_text), (4 bytes).
    Removing lpc43xx_sdram.o(.revsh_text), (4 bytes).
    Removing main.o(.rev16_text), (4 bytes).
    Removing main.o(.revsh_text), (4 bytes).
    Removing main.o(.data), (4 bytes).
    Removing board.o(.rev16_text), (4 bytes).
    Removing board.o(.revsh_text), (4 bytes).
    Removing board.o(i.Board_ADC_Init), (2 bytes).
==============================================================================

Image Symbol Table

    Local Symbols

    Symbol Name                              Value     Ov Type        Size  Object(Section)

    ../clib/angel/boardlib.s                 0x00000000   Number         0  boardshut.o ABSOLUTE
    ../clib/angel/boardlib.s                 0x00000000   Number         0  boardinit3.o ABSOLUTE
    ../clib/angel/boardlib.s                 0x00000000   Number         0  boardinit1.o ABSOLUTE
    ../clib/angel/boardlib.s                 0x00000000   Number         0  boardinit2.o ABSOLUTE
    ../clib/angel/handlers.s                 0x00000000   Number         0  __scatter_zi.o ABSOLUTE
    ../clib/angel/handlers.s                 0x00000000   Number         0  __scatter_copy.o ABSOLUTE
    ../clib/angel/kernel.s                   0x00000000   Number         0  __rtentry4.o ABSOLUTE
    ../clib/angel/kernel.s                   0x00000000   Number         0  rtexit2.o ABSOLUTE
    ../clib/angel/kernel.s                   0x00000000   Number         0  rtexit.o ABSOLUTE
    ../clib/angel/kernel.s                   0x00000000   Number         0  __rtentry2.o ABSOLUTE
    ../clib/angel/kernel.s                   0x00000000   Number         0  __rtentry.o ABSOLUTE
    ../clib/angel/rt.s                       0x00000000   Number         0  rt_div0.o ABSOLUTE
    ../clib/angel/rt.s                       0x00000000   Number         0  aeabi_ldiv0_sigfpe.o ABSOLUTE
    ../clib/angel/rt.s                       0x00000000   Number         0  aeabi_ldiv0.o ABSOLUTE
    ../clib/angel/rt.s                       0x00000000   Number         0  rt_raise.o ABSOLUTE
    ../clib/angel/scatter.s                  0x00000000   Number         0  __scatter.o ABSOLUTE
    ../clib/angel/startup.s                  0x00000000   Number         0  __main.o ABSOLUTE
    ../clib/angel/sys.s                      0x00000000   Number         0  libspace.o ABSOLUTE
    ../clib/angel/sys.s                      0x00000000   Number         0  sys_stackheap_outer.o ABSOLUTE
    ../clib/angel/sys.s                      0x00000000   Number         0  use_no_semi.o ABSOLUTE
    ../clib/angel/sys.s                      0x00000000   Number         0  indicate_semi.o ABSOLUTE
    ../clib/angel/sysapp.c                   0x00000000   Number         0  sys_command.o ABSOLUTE
    ../clib/angel/sysapp.c                   0x00000000   Number         0  sys_wrch.o ABSOLUTE
    ../clib/armsys.c                         0x00000000   Number         0  argv_veneer.o ABSOLUTE
    ../clib/armsys.c                         0x00000000   Number         0  argv_veneer.o ABSOLUTE
    ../clib/armsys.c                         0x00000000   Number         0  no_argv.o ABSOLUTE
    ../clib/armsys.c                         0x00000000   Number         0  _get_argv_nomalloc.o ABSOLUTE
    ../clib/heapalloc.c                      0x00000000   Number         0  hrguard.o ABSOLUTE
    ../clib/heapaux.c                        0x00000000   Number         0  heapauxi.o ABSOLUTE
    ../clib/libinit.s                        0x00000000   Number         0  libinit2.o ABSOLUTE
    ../clib/libinit.s                        0x00000000   Number         0  libshutdown.o ABSOLUTE
    ../clib/libinit.s                        0x00000000   Number         0  libshutdown2.o ABSOLUTE
    ../clib/libinit.s                        0x00000000   Number         0  libinit.o ABSOLUTE
    ../clib/longlong.s                       0x00000000   Number         0  lludivv7m.o ABSOLUTE
    ../clib/memcpset.s                       0x00000000   Number         0  rt_memcpy_w.o ABSOLUTE
    ../clib/memcpset.s                       0x00000000   Number         0  rt_memcpy_v6.o ABSOLUTE
    ../clib/memcpset.s                       0x00000000   Number         0  rt_memclr_w.o ABSOLUTE
    ../clib/misc.s                           0x00000000   Number         0  printf_stubs.o ABSOLUTE
    ../clib/printf.c                         0x00000000   Number         0  _printf_hex_int_ll_ptr.o ABSOLUTE
    ../clib/printf.c                         0x00000000   Number         0  _printf_hex_ptr.o ABSOLUTE
    ../clib/printf.c                         0x00000000   Number         0  __printf_ss.o ABSOLUTE
    ../clib/printf.c                         0x00000000   Number         0  __printf_flags_ss_wp.o ABSOLUTE
    ../clib/printf.c                         0x00000000   Number         0  _printf_dec.o ABSOLUTE
    ../clib/printf.c                         0x00000000   Number         0  _printf_str.o ABSOLUTE
    ../clib/printf.c                         0x00000000   Number         0  _printf_intcommon.o ABSOLUTE
    ../clib/printf.c                         0x00000000   Number         0  _printf_char.o ABSOLUTE
    ../clib/printf.c                         0x00000000   Number         0  __printf_ss_wp.o ABSOLUTE
    ../clib/printf.c                         0x00000000   Number         0  _printf_char_common.o ABSOLUTE
    ../clib/printf.c                         0x00000000   Number         0  _printf_pad.o ABSOLUTE
    ../clib/printf.c                         0x00000000   Number         0  __printf.o ABSOLUTE
    ../clib/printf.c                         0x00000000   Number         0  noretval__2printf.o ABSOLUTE
    ../clib/printf.c                         0x00000000   Number         0  __2printf.o ABSOLUTE
    ../clib/printf.c                         0x00000000   Number         0  __printf_flags.o ABSOLUTE
    ../clib/printf.c                         0x00000000   Number         0  __printf_nopercent.o ABSOLUTE
    ../clib/printf.c                         0x00000000   Number         0  __printf_flags_wp.o ABSOLUTE
    ../clib/printf.c                         0x00000000   Number         0  _printf_hex_ll.o ABSOLUTE
    ../clib/printf.c                         0x00000000   Number         0  _printf_char_file.o ABSOLUTE
    ../clib/printf.c                         0x00000000   Number         0  __printf_wp.o ABSOLUTE
    ../clib/printf.c                         0x00000000   Number         0  __printf_flags_ss.o ABSOLUTE
    ../clib/printf.c                         0x00000000   Number         0  _printf_hex_int_ll.o ABSOLUTE
    ../clib/printf.c                         0x00000000   Number         0  _printf_hex_int_ptr.o ABSOLUTE
    ../clib/printf.c                         0x00000000   Number         0  _printf_hex_int.o ABSOLUTE
    ../clib/printf.c                         0x00000000   Number         0  _printf_hex_ll_ptr.o ABSOLUTE
    ../clib/printf_percent.s                 0x00000000   Number         0  _printf_x.o ABSOLUTE
    ../clib/printf_percent.s                 0x00000000   Number         0  _printf_u.o ABSOLUTE
    ../clib/printf_percent.s                 0x00000000   Number         0  _printf_percent.o ABSOLUTE
    ../clib/printf_percent.s                 0x00000000   Number         0  _printf_d.o ABSOLUTE
    ../clib/printf_percent.s                 0x00000000   Number         0  _printf_s.o ABSOLUTE
    ../clib/printf_percent.s                 0x00000000   Number         0  _printf_percent_end.o ABSOLUTE
    ../clib/signal.c                         0x00000000   Number         0  defsig_fpe_formal.o ABSOLUTE
    ../clib/signal.c                         0x00000000   Number         0  defsig_fpe_inner.o ABSOLUTE
    ../clib/signal.c                         0x00000000   Number         0  __raise.o ABSOLUTE
    ../clib/signal.c                         0x00000000   Number         0  defsig_general.o ABSOLUTE
    ../clib/signal.c                         0x00000000   Number         0  defsig_fpe_outer.o ABSOLUTE
    ../clib/signal.c                         0x00000000   Number         0  defsig_rtred_inner.o ABSOLUTE
    ../clib/signal.c                         0x00000000   Number         0  defsig_rtmem_inner.o ABSOLUTE
    ../clib/signal.c                         0x00000000   Number         0  defsig_rtmem_outer.o ABSOLUTE
    ../clib/signal.c                         0x00000000   Number         0  defsig_rtmem_formal.o ABSOLUTE
    ../clib/signal.c                         0x00000000   Number         0  defsig_stak_inner.o ABSOLUTE
    ../clib/signal.c                         0x00000000   Number         0  defsig_pvfn_inner.o ABSOLUTE
    ../clib/signal.c                         0x00000000   Number         0  defsig_cppl_inner.o ABSOLUTE
    ../clib/signal.c                         0x00000000   Number         0  defsig_segv_inner.o ABSOLUTE
    ../clib/signal.c                         0x00000000   Number         0  defsig_other.o ABSOLUTE
    ../clib/signal.c                         0x00000000   Number         0  defsig_exit.o ABSOLUTE
    ../clib/signal.c                         0x00000000   Number         0  defsig_abrt_inner.o ABSOLUTE
    ../clib/signal.s                         0x00000000   Number         0  defsig.o ABSOLUTE
    ../clib/stdlib.c                         0x00000000   Number         0  exit.o ABSOLUTE
    ../clib/string.c                         0x00000000   Number         0  memcmp.o ABSOLUTE
    ../fplib/fpinit.s                        0x00000000   Number         0  fpinit.o ABSOLUTE
    ..\..\..\..\software\common\lpc43xx_scu.c 0x00000000   Number         0  lpc43xx_scu.o ABSOLUTE
    ..\..\..\..\software\common\lpc43xx_sdram.c 0x00000000   Number         0  lpc43xx_sdram.o ABSOLUTE
    ..\..\..\..\software\kernel\port\cpu.asm 0x00000000   Number         0  cpu.o ABSOLUTE
    ..\..\..\..\software\kernel\port\port.c  0x00000000   Number         0  port.o ABSOLUTE
    ..\..\..\..\software\kernel\port\port_hook.c 0x00000000   Number         0  port_hook.o ABSOLUTE
    ..\..\..\..\software\kernel\port\raw_trace_port.c 0x00000000   Number         0  raw_trace_port.o ABSOLUTE
    ..\..\..\..\software\kernel\port\user_extension.c 0x00000000   Number         0  user_extension.o ABSOLUTE
    ..\..\..\..\software\kernel\raw-os\extension\lib\fifo.c 0x00000000   Number         0  fifo.o ABSOLUTE
    ..\..\..\..\software\kernel\raw-os\extension\lib\string.c 0x00000000   Number         0  string.o ABSOLUTE
    ..\..\..\..\software\kernel\raw-os\extension\shell\rsh.c 0x00000000   Number         0  rsh.o ABSOLUTE
    ..\..\..\..\software\kernel\raw-os\raw-os.c 0x00000000   Number         0  raw-os.o ABSOLUTE
    ..\..\board_common\uda1380.c             0x00000000   Number         0  uda1380.o ABSOLUTE
    ..\..\examples\gpdma_speed\main.c        0x00000000   Number         0  main.o ABSOLUTE
    ..\..\startup_code\keil_startup_lpc18xx43xx.s 0x00000000   Number         0  keil_startup_lpc18xx43xx.o ABSOLUTE
    ..\..\startup_code\sysinit.c             0x00000000   Number         0  sysinit.o ABSOLUTE
    ..\\..\\..\\..\\software\\common\\lpc43xx_scu.c 0x00000000   Number         0  lpc43xx_scu.o ABSOLUTE
    ..\\..\\..\\..\\software\\common\\lpc43xx_sdram.c 0x00000000   Number         0  lpc43xx_sdram.o ABSOLUTE
    ..\\..\\board_common\\uda1380.c          0x00000000   Number         0  uda1380.o ABSOLUTE
    ..\\..\\examples\\gpdma_speed\\main.c    0x00000000   Number         0  main.o ABSOLUTE
    ..\\..\\startup_code\\sysinit.c          0x00000000   Number         0  sysinit.o ABSOLUTE
    ..\\chip_common\\fpu_init.c              0x00000000   Number         0  fpu_init.o ABSOLUTE
    ..\chip_common\fpu_init.c                0x00000000   Number         0  fpu_init.o ABSOLUTE
    ..\chip_common\ring_buffer.c             0x00000000   Number         0  ring_buffer.o ABSOLUTE
    board.c                                  0x00000000   Number         0  board.o ABSOLUTE
    board.c                                  0x00000000   Number         0  board.o ABSOLUTE
    board_sysinit.c                          0x00000000   Number         0  board_sysinit.o ABSOLUTE
    board_sysinit.c                          0x00000000   Number         0  board_sysinit.o ABSOLUTE
    chip_18xx_43xx.c                         0x00000000   Number         0  chip_18xx_43xx.o ABSOLUTE
    chip_18xx_43xx.c                         0x00000000   Number         0  chip_18xx_43xx.o ABSOLUTE
    clock_18xx_43xx.c                        0x00000000   Number         0  clock_18xx_43xx.o ABSOLUTE
    clock_18xx_43xx.c                        0x00000000   Number         0  clock_18xx_43xx.o ABSOLUTE
    dc.s                                     0x00000000   Number         0  dc.o ABSOLUTE
    emc_18xx_43xx.c                          0x00000000   Number         0  emc_18xx_43xx.o ABSOLUTE
    emc_18xx_43xx.c                          0x00000000   Number         0  emc_18xx_43xx.o ABSOLUTE
    gpdma_18xx_43xx.c                        0x00000000   Number         0  gpdma_18xx_43xx.o ABSOLUTE
    gpdma_18xx_43xx.c                        0x00000000   Number         0  gpdma_18xx_43xx.o ABSOLUTE
    gpio_18xx_43xx.c                         0x00000000   Number         0  gpio_18xx_43xx.o ABSOLUTE
    gpio_18xx_43xx.c                         0x00000000   Number         0  gpio_18xx_43xx.o ABSOLUTE
    i2c_18xx_43xx.c                          0x00000000   Number         0  i2c_18xx_43xx.o ABSOLUTE
    i2c_18xx_43xx.c                          0x00000000   Number         0  i2c_18xx_43xx.o ABSOLUTE
    i2s_18xx_43xx.c                          0x00000000   Number         0  i2s_18xx_43xx.o ABSOLUTE
    i2s_18xx_43xx.c                          0x00000000   Number         0  i2s_18xx_43xx.o ABSOLUTE
    rgu_18xx_43xx.c                          0x00000000   Number         0  rgu_18xx_43xx.o ABSOLUTE
    rgu_18xx_43xx.c                          0x00000000   Number         0  rgu_18xx_43xx.o ABSOLUTE
    ssp_18xx_43xx.c                          0x00000000   Number         0  ssp_18xx_43xx.o ABSOLUTE
    ssp_18xx_43xx.c                          0x00000000   Number         0  ssp_18xx_43xx.o ABSOLUTE
    sysinit_18xx_43xx.c                      0x00000000   Number         0  sysinit_18xx_43xx.o ABSOLUTE
    sysinit_18xx_43xx.c                      0x00000000   Number         0  sysinit_18xx_43xx.o ABSOLUTE
    uart_18xx_43xx.c                         0x00000000   Number         0  uart_18xx_43xx.o ABSOLUTE
    uart_18xx_43xx.c                         0x00000000   Number         0  uart_18xx_43xx.o ABSOLUTE
    .data                                    0x10000000   Section       88  raw-os.o(.data)
    .data                                    0x10000058   Section        8  main.o(.data)
    ch_no                                    0x10000058   Data           1  main.o(.data)
    dma_xfer_complete                        0x1000005c   Data           4  main.o(.data)
    .data                                    0x10000060   Section       20  board.o(.data)
    .data                                    0x10000074   Section        4  chip_18xx_43xx.o(.data)
    .data                                    0x10000078   Section      128  gpdma_18xx_43xx.o(.data)
    ChannelHandlerArray                      0x10000078   Data           8  gpdma_18xx_43xx.o(.data)
    GPDMA_LUTPerAddr                         0x10000080   Data         120  gpdma_18xx_43xx.o(.data)
    .data                                    0x100000f8   Section        8  clock_18xx_43xx.o(.data)
    audio_usb_pll_freq                       0x100000f8   Data           8  clock_18xx_43xx.o(.data)
    .bss                                     0x10000100   Section     4840  raw-os.o(.bss)
    .bss                                     0x100013e8   Section     5964  main.o(.bss)
    fifo_buffer                              0x10001ab4   Data         128  main.o(.bss)
    desc_array                               0x10001b34   Data        4096  main.o(.bss)
    .bss                                     0x10002b34   Section       96  libspace.o(.bss)
    HEAP                                     0x10002b98   Section      256  keil_startup_lpc18xx43xx.o(HEAP)
    Heap_Mem                                 0x10002b98   Data         256  keil_startup_lpc18xx43xx.o(HEAP)
    STACK                                    0x10002c98   Section     1536  keil_startup_lpc18xx43xx.o(STACK)
    Stack_Mem                                0x10002c98   Data        1536  keil_startup_lpc18xx43xx.o(STACK)
    __initial_sp                             0x10003298   Data           0  keil_startup_lpc18xx43xx.o(STACK)
    RESET                                    0x1a000000   Section      276  keil_startup_lpc18xx43xx.o(RESET)
    !!!main                                  0x1a000114   Section        8  __main.o(!!!main)
    !!!scatter                               0x1a00011c   Section       52  __scatter.o(!!!scatter)
    !!handler_copy                           0x1a000150   Section       26  __scatter_copy.o(!!handler_copy)
    !!handler_zi                             0x1a00016c   Section       28  __scatter_zi.o(!!handler_zi)
    .ARM.Collect$$_printf_percent$$00000000  0x1a000188   Section        0  _printf_percent.o(.ARM.Collect$$_printf_percent$$00000000)
    .ARM.Collect$$_printf_percent$$00000009  0x1a000188   Section        6  _printf_d.o(.ARM.Collect$$_printf_percent$$00000009)
    .ARM.Collect$$_printf_percent$$0000000A  0x1a00018e   Section        6  _printf_u.o(.ARM.Collect$$_printf_percent$$0000000A)
    .ARM.Collect$$_printf_percent$$0000000C  0x1a000194   Section        6  _printf_x.o(.ARM.Collect$$_printf_percent$$0000000C)
    .ARM.Collect$$_printf_percent$$00000014  0x1a00019a   Section        6  _printf_s.o(.ARM.Collect$$_printf_percent$$00000014)
    .ARM.Collect$$_printf_percent$$00000017  0x1a0001a0   Section        4  _printf_percent_end.o(.ARM.Collect$$_printf_percent$$00000017)
    .ARM.Collect$$libinit$$00000000          0x1a0001a4   Section        2  libinit.o(.ARM.Collect$$libinit$$00000000)
    .ARM.Collect$$libinit$$00000001          0x1a0001a6   Section        4  libinit2.o(.ARM.Collect$$libinit$$00000001)
    .ARM.Collect$$libinit$$00000004          0x1a0001aa   Section        0  libinit2.o(.ARM.Collect$$libinit$$00000004)
    .ARM.Collect$$libinit$$0000000A          0x1a0001aa   Section        0  libinit2.o(.ARM.Collect$$libinit$$0000000A)
    .ARM.Collect$$libinit$$0000000C          0x1a0001aa   Section        0  libinit2.o(.ARM.Collect$$libinit$$0000000C)
    .ARM.Collect$$libinit$$0000000E          0x1a0001aa   Section        0  libinit2.o(.ARM.Collect$$libinit$$0000000E)
    .ARM.Collect$$libinit$$00000011          0x1a0001aa   Section        0  libinit2.o(.ARM.Collect$$libinit$$00000011)
    .ARM.Collect$$libinit$$00000013          0x1a0001aa   Section        0  libinit2.o(.ARM.Collect$$libinit$$00000013)
    .ARM.Collect$$libinit$$00000015          0x1a0001aa   Section        0  libinit2.o(.ARM.Collect$$libinit$$00000015)
    .ARM.Collect$$libinit$$00000017          0x1a0001aa   Section        0  libinit2.o(.ARM.Collect$$libinit$$00000017)
    .ARM.Collect$$libinit$$00000019          0x1a0001aa   Section        0  libinit2.o(.ARM.Collect$$libinit$$00000019)
    .ARM.Collect$$libinit$$0000001B          0x1a0001aa   Section        0  libinit2.o(.ARM.Collect$$libinit$$0000001B)
    .ARM.Collect$$libinit$$0000001D          0x1a0001aa   Section        0  libinit2.o(.ARM.Collect$$libinit$$0000001D)
    .ARM.Collect$$libinit$$0000001F          0x1a0001aa   Section        0  libinit2.o(.ARM.Collect$$libinit$$0000001F)
    .ARM.Collect$$libinit$$00000021          0x1a0001aa   Section        0  libinit2.o(.ARM.Collect$$libinit$$00000021)
    .ARM.Collect$$libinit$$00000023          0x1a0001aa   Section        0  libinit2.o(.ARM.Collect$$libinit$$00000023)
    .ARM.Collect$$libinit$$00000025          0x1a0001aa   Section        0  libinit2.o(.ARM.Collect$$libinit$$00000025)
    .ARM.Collect$$libinit$$0000002C          0x1a0001aa   Section        0  libinit2.o(.ARM.Collect$$libinit$$0000002C)
    .ARM.Collect$$libinit$$0000002E          0x1a0001aa   Section        0  libinit2.o(.ARM.Collect$$libinit$$0000002E)
    .ARM.Collect$$libinit$$00000030          0x1a0001aa   Section        0  libinit2.o(.ARM.Collect$$libinit$$00000030)
    .ARM.Collect$$libinit$$00000032          0x1a0001aa   Section        0  libinit2.o(.ARM.Collect$$libinit$$00000032)
    .ARM.Collect$$libinit$$00000033          0x1a0001aa   Section        2  libinit2.o(.ARM.Collect$$libinit$$00000033)
    .ARM.Collect$$libshutdown$$00000000      0x1a0001ac   Section        2  libshutdown.o(.ARM.Collect$$libshutdown$$00000000)
    .ARM.Collect$$libshutdown$$00000003      0x1a0001ae   Section        0  libshutdown2.o(.ARM.Collect$$libshutdown$$00000003)
    .ARM.Collect$$libshutdown$$00000006      0x1a0001ae   Section        0  libshutdown2.o(.ARM.Collect$$libshutdown$$00000006)
    .ARM.Collect$$libshutdown$$00000009      0x1a0001ae   Section        0  libshutdown2.o(.ARM.Collect$$libshutdown$$00000009)
    .ARM.Collect$$libshutdown$$0000000B      0x1a0001ae   Section        0  libshutdown2.o(.ARM.Collect$$libshutdown$$0000000B)
    .ARM.Collect$$libshutdown$$0000000E      0x1a0001ae   Section        0  libshutdown2.o(.ARM.Collect$$libshutdown$$0000000E)
    .ARM.Collect$$libshutdown$$0000000F      0x1a0001ae   Section        2  libshutdown2.o(.ARM.Collect$$libshutdown$$0000000F)
    .ARM.Collect$$rtentry$$00000000          0x1a0001b0   Section        0  __rtentry.o(.ARM.Collect$$rtentry$$00000000)
    .ARM.Collect$$rtentry$$00000002          0x1a0001b0   Section        0  __rtentry2.o(.ARM.Collect$$rtentry$$00000002)
    .ARM.Collect$$rtentry$$00000004          0x1a0001b0   Section        6  __rtentry4.o(.ARM.Collect$$rtentry$$00000004)
    .ARM.Collect$$rtentry$$00000009          0x1a0001b6   Section        0  __rtentry2.o(.ARM.Collect$$rtentry$$00000009)
    .ARM.Collect$$rtentry$$0000000A          0x1a0001b6   Section        4  __rtentry2.o(.ARM.Collect$$rtentry$$0000000A)
    .ARM.Collect$$rtentry$$0000000C          0x1a0001ba   Section        0  __rtentry2.o(.ARM.Collect$$rtentry$$0000000C)
    .ARM.Collect$$rtentry$$0000000D          0x1a0001ba   Section        8  __rtentry2.o(.ARM.Collect$$rtentry$$0000000D)
    .ARM.Collect$$rtexit$$00000000           0x1a0001c2   Section        2  rtexit.o(.ARM.Collect$$rtexit$$00000000)
    .ARM.Collect$$rtexit$$00000002           0x1a0001c4   Section        0  rtexit2.o(.ARM.Collect$$rtexit$$00000002)
    .ARM.Collect$$rtexit$$00000003           0x1a0001c4   Section        4  rtexit2.o(.ARM.Collect$$rtexit$$00000003)
    .ARM.Collect$$rtexit$$00000004           0x1a0001c8   Section        6  rtexit2.o(.ARM.Collect$$rtexit$$00000004)
    .text                                    0x1a0001d0   Section        0  raw-os.o(.text)
    release_mutex                            0x1a0004d1   Thumb Code    88  raw-os.o(.text)
    tick_task_process                        0x1a000809   Thumb Code    28  raw-os.o(.text)
    pend_task_wake_up                        0x1a000a0d   Thumb Code    90  raw-os.o(.text)
    int_msg_handler                          0x1a000e3b   Thumb Code   116  raw-os.o(.text)
    task_0_post                              0x1a000eaf   Thumb Code   120  raw-os.o(.text)
    task_0_tick_handler                      0x1a001061   Thumb Code    28  raw-os.o(.text)
    task_0_process                           0x1a00107d   Thumb Code   124  raw-os.o(.text)
    internal_raw_mq_send                     0x1a001f79   Thumb Code   214  raw-os.o(.text)
    is_list_empty                            0x1a002bc3   Thumb Code    14  raw-os.o(.text)
    list_insert                              0x1a002bd1   Thumb Code    14  raw-os.o(.text)
    list_delete                              0x1a002bdf   Thumb Code    12  raw-os.o(.text)
    add_to_priority_list                     0x1a002beb   Thumb Code    28  raw-os.o(.text)
    bit_set                                  0x1a002c07   Thumb Code    20  raw-os.o(.text)
    timer_list_remove                        0x1a002c1b   Thumb Code    22  raw-os.o(.text)
    timer_list_priority_insert               0x1a002c31   Thumb Code    32  raw-os.o(.text)
    raw_byte_pool_search                     0x1a002c51   Thumb Code   190  raw-os.o(.text)
    .text                                    0x1a002d20   Section        0  fifo.o(.text)
    internal_fifo_out_peek                   0x1a002dbf   Thumb Code    62  fifo.o(.text)
    .text                                    0x1a002e94   Section      164  cpu.o(.text)
    $v0                                      0x1a002e94   Number         0  cpu.o(.text)
    .text                                    0x1a002f38   Section        0  port.o(.text)
    .text                                    0x1a00307c   Section        0  port_hook.o(.text)
    .text                                    0x1a00308e   Section        0  user_extension.o(.text)
    .text                                    0x1a003118   Section       68  keil_startup_lpc18xx43xx.o(.text)
    $v0                                      0x1a003118   Number         0  keil_startup_lpc18xx43xx.o(.text)
    .text                                    0x1a00315c   Section        0  sysinit.o(.text)
    .text                                    0x1a003178   Section        0  lpc43xx_scu.o(.text)
    .text                                    0x1a00318c   Section        0  lpc43xx_sdram.o(.text)
    .text                                    0x1a0035e8   Section        0  main.o(.text)
    print_result                             0x1a0036af   Thumb Code   146  main.o(.text)
    NVIC_EnableIRQ                           0x1a0038bd   Thumb Code    22  main.o(.text)
    NVIC_SetPriority                         0x1a0038d3   Thumb Code    32  main.o(.text)
    prepare_dma_desc                         0x1a0038f3   Thumb Code   134  main.o(.text)
    .text                                    0x1a003b54   Section        0  noretval__2printf.o(.text)
    .text                                    0x1a003b6c   Section        0  _printf_pad.o(.text)
    .text                                    0x1a003bba   Section        0  _printf_str.o(.text)
    .text                                    0x1a003c0c   Section        0  _printf_dec.o(.text)
    .text                                    0x1a003c84   Section        0  _printf_hex_int.o(.text)
    .text                                    0x1a003cdc   Section        0  __printf_flags_ss_wp.o(.text)
    .text                                    0x1a003e64   Section        0  memcmp.o(.text)
    .text                                    0x1a003ebc   Section      100  rt_memcpy_w.o(.text)
    .text                                    0x1a003f20   Section       78  rt_memclr_w.o(.text)
    .text                                    0x1a003f6e   Section        0  heapauxi.o(.text)
    .text                                    0x1a003f74   Section        0  _printf_intcommon.o(.text)
    .text                                    0x1a004026   Section        0  _printf_char.o(.text)
    .text                                    0x1a004054   Section        0  _printf_char_file.o(.text)
    .text                                    0x1a004078   Section        0  _printf_char_common.o(.text)
    _printf_input_char                       0x1a004079   Thumb Code    10  _printf_char_common.o(.text)
    .text                                    0x1a0040a8   Section       74  sys_stackheap_outer.o(.text)
    .text                                    0x1a0040f2   Section        0  exit.o(.text)
    .text                                    0x1a004100   Section        8  libspace.o(.text)
    i.Board_SetupClocking                    0x1a004108   Section        0  board_sysinit.o(i.Board_SetupClocking)
    i.Board_SetupMuxing                      0x1a0041bc   Section        0  board_sysinit.o(i.Board_SetupMuxing)
    i.Board_SystemInit                       0x1a004208   Section        0  board_sysinit.o(i.Board_SystemInit)
    i.Board_UARTPutChar                      0x1a004214   Section        0  board.o(i.Board_UARTPutChar)
    i.Board_UARTPutSTR                       0x1a004234   Section        0  board.o(i.Board_UARTPutSTR)
    i.Board_UART_Init                        0x1a00424c   Section        0  board.o(i.Board_UART_Init)
    i.Chip_Clock_EnableOpts                  0x1a004290   Section        0  clock_18xx_43xx.o(i.Chip_Clock_EnableOpts)
    i.Chip_Clock_FindBaseClock               0x1a0042cc   Section        0  clock_18xx_43xx.o(i.Chip_Clock_FindBaseClock)
    Chip_Clock_FindBaseClock                 0x1a0042cd   Thumb Code    74  clock_18xx_43xx.o(i.Chip_Clock_FindBaseClock)
    i.Chip_Clock_GetBaseClock                0x1a00431c   Section        0  clock_18xx_43xx.o(i.Chip_Clock_GetBaseClock)
    i.Chip_Clock_GetBaseClocktHz             0x1a004340   Section        0  clock_18xx_43xx.o(i.Chip_Clock_GetBaseClocktHz)
    i.Chip_Clock_GetClockInputHz             0x1a004354   Section        0  clock_18xx_43xx.o(i.Chip_Clock_GetClockInputHz)
    i.Chip_Clock_GetDivRate                  0x1a004428   Section        0  clock_18xx_43xx.o(i.Chip_Clock_GetDivRate)
    Chip_Clock_GetDivRate                    0x1a004429   Thumb Code    40  clock_18xx_43xx.o(i.Chip_Clock_GetDivRate)
    i.Chip_Clock_GetDividerDivisor           0x1a004450   Section        0  clock_18xx_43xx.o(i.Chip_Clock_GetDividerDivisor)
    i.Chip_Clock_GetDividerSource            0x1a004470   Section        0  clock_18xx_43xx.o(i.Chip_Clock_GetDividerSource)
    i.Chip_Clock_GetMainPLLHz                0x1a004490   Section        0  clock_18xx_43xx.o(i.Chip_Clock_GetMainPLLHz)
    i.Chip_Clock_GetRate                     0x1a004508   Section        0  clock_18xx_43xx.o(i.Chip_Clock_GetRate)
    i.Chip_Clock_SetBaseClock                0x1a004560   Section        0  clock_18xx_43xx.o(i.Chip_Clock_SetBaseClock)
    i.Chip_Clock_SetDivider                  0x1a0045a8   Section        0  clock_18xx_43xx.o(i.Chip_Clock_SetDivider)
    i.Chip_GPDMA_ChannelCmd                  0x1a0045f8   Section        0  gpdma_18xx_43xx.o(i.Chip_GPDMA_ChannelCmd)
    i.Chip_GPDMA_ClearIntPending             0x1a00461c   Section        0  gpdma_18xx_43xx.o(i.Chip_GPDMA_ClearIntPending)
    i.Chip_GPDMA_GetFreeChannel              0x1a004634   Section        0  gpdma_18xx_43xx.o(i.Chip_GPDMA_GetFreeChannel)
    i.Chip_GPDMA_Init                        0x1a00466c   Section        0  gpdma_18xx_43xx.o(i.Chip_GPDMA_Init)
    i.Chip_GPDMA_InitChannelCfg              0x1a0046b4   Section        0  gpdma_18xx_43xx.o(i.Chip_GPDMA_InitChannelCfg)
    i.Chip_GPDMA_IntGetStatus                0x1a004744   Section        0  gpdma_18xx_43xx.o(i.Chip_GPDMA_IntGetStatus)
    i.Chip_GPDMA_Interrupt                   0x1a00479e   Section        0  gpdma_18xx_43xx.o(i.Chip_GPDMA_Interrupt)
    i.Chip_GPDMA_PrepareDescriptor           0x1a0047e8   Section        0  gpdma_18xx_43xx.o(i.Chip_GPDMA_PrepareDescriptor)
    i.Chip_GPDMA_SGTransfer                  0x1a00486c   Section        0  gpdma_18xx_43xx.o(i.Chip_GPDMA_SGTransfer)
    i.Chip_SCU_PinMuxSet                     0x1a0048fc   Section        0  board.o(i.Chip_SCU_PinMuxSet)
    Chip_SCU_PinMuxSet                       0x1a0048fd   Thumb Code    12  board.o(i.Chip_SCU_PinMuxSet)
    i.Chip_SCU_SetPinMuxing                  0x1a00490c   Section        0  board_sysinit.o(i.Chip_SCU_SetPinMuxing)
    Chip_SCU_SetPinMuxing                    0x1a00490d   Thumb Code    44  board_sysinit.o(i.Chip_SCU_SetPinMuxing)
    i.Chip_SetupCoreClock                    0x1a00493c   Section        0  sysinit_18xx_43xx.o(i.Chip_SetupCoreClock)
    i.Chip_UART_DisableDivisorAccess         0x1a00494a   Section        0  uart_18xx_43xx.o(i.Chip_UART_DisableDivisorAccess)
    Chip_UART_DisableDivisorAccess           0x1a00494b   Thumb Code    10  uart_18xx_43xx.o(i.Chip_UART_DisableDivisorAccess)
    i.Chip_UART_EnableDivisorAccess          0x1a004954   Section        0  uart_18xx_43xx.o(i.Chip_UART_EnableDivisorAccess)
    Chip_UART_EnableDivisorAccess            0x1a004955   Thumb Code    10  uart_18xx_43xx.o(i.Chip_UART_EnableDivisorAccess)
    i.Chip_UART_GetClockIndex                0x1a004960   Section        0  uart_18xx_43xx.o(i.Chip_UART_GetClockIndex)
    Chip_UART_GetClockIndex                  0x1a004961   Thumb Code    36  uart_18xx_43xx.o(i.Chip_UART_GetClockIndex)
    i.Chip_UART_Init                         0x1a004990   Section        0  uart_18xx_43xx.o(i.Chip_UART_Init)
    i.Chip_UART_SetBaud                      0x1a0049dc   Section        0  uart_18xx_43xx.o(i.Chip_UART_SetBaud)
    i.Chip_UART_SetDivisorLatches            0x1a004a1e   Section        0  uart_18xx_43xx.o(i.Chip_UART_SetDivisorLatches)
    Chip_UART_SetDivisorLatches              0x1a004a1f   Thumb Code     6  uart_18xx_43xx.o(i.Chip_UART_SetDivisorLatches)
    i.SystemCoreClockUpdate                  0x1a004a24   Section        0  chip_18xx_43xx.o(i.SystemCoreClockUpdate)
    i._is_digit                              0x1a004a38   Section        0  __printf_wp.o(i._is_digit)
    i._sys_exit                              0x1a004a46   Section        0  board.o(i._sys_exit)
    i.clock_init_delay                       0x1a004a4c   Section        0  sysinit_18xx_43xx.o(i.clock_init_delay)
    clock_init_delay                         0x1a004a4d   Thumb Code    36  sysinit_18xx_43xx.o(i.clock_init_delay)
    i.clock_main_init                        0x1a004a70   Section        0  sysinit_18xx_43xx.o(i.clock_main_init)
    clock_main_init                          0x1a004a71   Thumb Code   168  sysinit_18xx_43xx.o(i.clock_main_init)
    i.configDMAMux                           0x1a004b2c   Section        0  gpdma_18xx_43xx.o(i.configDMAMux)
    configDMAMux                             0x1a004b2d   Thumb Code   258  gpdma_18xx_43xx.o(i.configDMAMux)
    i.ferror                                 0x1a004c38   Section        0  board.o(i.ferror)
    i.fpuInit                                0x1a004c40   Section        0  fpu_init.o(i.fpuInit)
    i.fputc                                  0x1a004c90   Section        0  board.o(i.fputc)
    i.makeCtrlWord                           0x1a004ca4   Section        0  gpdma_18xx_43xx.o(i.makeCtrlWord)
    i.setupChannel                           0x1a004d6c   Section        0  gpdma_18xx_43xx.o(i.setupChannel)
    x$fpl$fpinit                             0x1a004dfe   Section       10  fpinit.o(x$fpl$fpinit)
    $v0                                      0x1a004dfe   Number         0  fpinit.o(x$fpl$fpinit)
    .constdata                               0x1a004e08   Section       64  board.o(.constdata)
    ledports                                 0x1a004e08   Data           8  board.o(.constdata)
    ledbits                                  0x1a004e10   Data           8  board.o(.constdata)
    .constdata                               0x1a004e48   Section      700  board_sysinit.o(.constdata)
    InitClkStates                            0x1a004e48   Data          16  board_sysinit.o(.constdata)
    spifipinmuxing                           0x1a004e58   Data          24  board_sysinit.o(.constdata)
    pinmuxing                                0x1a004e70   Data         496  board_sysinit.o(.constdata)
    pinclockmuxing                           0x1a005060   Data          16  board_sysinit.o(.constdata)
    MT48LC4M32_config                        0x1a005070   Data         116  board_sysinit.o(.constdata)
    S29GL64N90_config                        0x1a0050e4   Data          32  board_sysinit.o(.constdata)
    .constdata                               0x1a005104   Section       60  gpdma_18xx_43xx.o(.constdata)
    GPDMA_LUTPerBurst                        0x1a005104   Data          30  gpdma_18xx_43xx.o(.constdata)
    GPDMA_LUTPerWid                          0x1a005122   Data          30  gpdma_18xx_43xx.o(.constdata)
    .constdata                               0x1a005140   Section      108  clock_18xx_43xx.o(.constdata)
    periph_to_base                           0x1a005140   Data         108  clock_18xx_43xx.o(.constdata)
    .constdata                               0x1a0051ac   Section       72  sysinit_18xx_43xx.o(.constdata)
    InitClkStates                            0x1a0051ac   Data          72  sysinit_18xx_43xx.o(.constdata)
    .constdata                               0x1a0051f4   Section       40  _printf_hex_int.o(.constdata)
    uc_hextab                                0x1a0051f4   Data          20  _printf_hex_int.o(.constdata)
    lc_hextab                                0x1a005208   Data          20  _printf_hex_int.o(.constdata)
    .constdata                               0x1a00521c   Section       17  __printf_flags_ss_wp.o(.constdata)
    maptable                                 0x1a00521c   Data          17  __printf_flags_ss_wp.o(.constdata)
    .conststring                             0x1a005230   Section       80  main.o(.conststring)

    Global Symbols

    Symbol Name                              Value     Ov Type        Size  Object(Section)

    BuildAttributes$$THM_ISAv4$E$P$D$K$B$S$7EM$VFPi3$EXTD16$VFPS$VFMA$PE$A:L22UL41UL21$X:L11$S22US41US21$IEEE1$IW$USESV6$~STKCKD$USESV7$~SHL$OSPACE$ROPI$EBA8$UX$STANDARDLIB$REQ8$PRES8$EABIv2 0x00000000   Number         0  anon$$obj.o ABSOLUTE
    __ARM_use_no_argv                        0x00000000   Number         0  main.o ABSOLUTE
    _printf_flags                            0x00000000   Number         0  printf_stubs.o ABSOLUTE
    _printf_return_value                     0x00000000   Number         0  printf_stubs.o ABSOLUTE
    _printf_sizespec                         0x00000000   Number         0  printf_stubs.o ABSOLUTE
    _printf_widthprec                        0x00000000   Number         0  printf_stubs.o ABSOLUTE
    __ARM_exceptions_init                     - Undefined Weak Reference
    __alloca_initialize                       - Undefined Weak Reference
    __arm_preinit_                            - Undefined Weak Reference
    __cpp_initialize__aeabi_                  - Undefined Weak Reference
    __cxa_finalize                            - Undefined Weak Reference
    __rt_locale                               - Undefined Weak Reference
    __sigvec_lookup                           - Undefined Weak Reference
    _atexit_init                              - Undefined Weak Reference
    _call_atexit_fns                          - Undefined Weak Reference
    _clock_init                               - Undefined Weak Reference
    _fp_trap_init                             - Undefined Weak Reference
    _fp_trap_shutdown                         - Undefined Weak Reference
    _get_lc_collate                           - Undefined Weak Reference
    _get_lc_ctype                             - Undefined Weak Reference
    _get_lc_monetary                          - Undefined Weak Reference
    _get_lc_numeric                           - Undefined Weak Reference
    _get_lc_time                              - Undefined Weak Reference
    _getenv_init                              - Undefined Weak Reference
    _handle_redirection                       - Undefined Weak Reference
    _init_alloc                               - Undefined Weak Reference
    _init_user_alloc                          - Undefined Weak Reference
    _initio                                   - Undefined Weak Reference
    _printf_mbtowc                            - Undefined Weak Reference
    _printf_truncate_signed                   - Undefined Weak Reference
    _printf_truncate_unsigned                 - Undefined Weak Reference
    _rand_init                                - Undefined Weak Reference
    _signal_finish                            - Undefined Weak Reference
    _signal_init                              - Undefined Weak Reference
    _terminate_alloc                          - Undefined Weak Reference
    _terminate_user_alloc                     - Undefined Weak Reference
    _terminateio                              - Undefined Weak Reference
    raw_os_active                            0x10000000   Data           1  raw-os.o(.data)
    idle_task_exit                           0x10000001   Data           1  raw-os.o(.data)
    raw_sched_lock                           0x10000002   Data           1  raw-os.o(.data)
    raw_int_nesting                          0x10000003   Data           1  raw-os.o(.data)
    mutex_recursion_levels                   0x10000004   Data           1  raw-os.o(.data)
    mutex_recursion_max_levels               0x10000005   Data           1  raw-os.o(.data)
    task_0_exit                              0x10000006   Data           1  raw-os.o(.data)
    task_0_event_head                        0x10000008   Data           2  raw-os.o(.data)
    task_0_event_end                         0x1000000a   Data           2  raw-os.o(.data)
    task_0_events                            0x1000000c   Data           2  raw-os.o(.data)
    peak_events                              0x1000000e   Data           2  raw-os.o(.data)
    high_ready_obj                           0x10000010   Data           4  raw-os.o(.data)
    raw_task_active                          0x10000014   Data           4  raw-os.o(.data)
    raw_tick_count                           0x10000018   Data           4  raw-os.o(.data)
    raw_timer_count                          0x1000001c   Data           4  raw-os.o(.data)
    raw_timer_ctrl                           0x10000020   Data           4  raw-os.o(.data)
    task_0_event_handler                     0x10000024   Data           4  raw-os.o(.data)
    free_object_int_msg                      0x10000028   Data           4  raw-os.o(.data)
    int_msg_full                             0x1000002c   Data           4  raw-os.o(.data)
    msg_event_handler                        0x10000030   Data           4  raw-os.o(.data)
    raw_idle_count                           0x10000038   Data           8  raw-os.o(.data)
    tick_head                                0x10000040   Data           8  raw-os.o(.data)
    timer_head                               0x10000048   Data           8  raw-os.o(.data)
    raw_task_debug                           0x10000050   Data           8  raw-os.o(.data)
    __stdout                                 0x10000060   Data           4  board.o(.data)
    __stdin                                  0x10000064   Data           4  board.o(.data)
    __stderr                                 0x10000068   Data           4  board.o(.data)
    g_isPenDn                                0x1000006c   Data           4  board.o(.data)
    g_isNewPenDn                             0x10000070   Data           4  board.o(.data)
    SystemCoreClock                          0x10000074   Data           4  chip_18xx_43xx.o(.data)
    raw_ready_queue                          0x10000100   Data         508  raw-os.o(.bss)
    raw_idle_obj                             0x100002fc   Data          92  raw-os.o(.bss)
    idle_stack                               0x10000358   Data         400  raw-os.o(.bss)
    raw_timer_obj                            0x100004e8   Data          92  raw-os.o(.bss)
    timer_task_stack                         0x10000544   Data         800  raw-os.o(.bss)
    timer_sem                                0x10000864   Data          24  raw-os.o(.bss)
    timer_mutex                              0x1000087c   Data          28  raw-os.o(.bss)
    task_0_events_queue                      0x10000898   Data         384  raw-os.o(.bss)
    raw_task_0_obj                           0x10000a18   Data          92  raw-os.o(.bss)
    task_0_stack                             0x10000a74   Data        1024  raw-os.o(.bss)
    object_int_msg                           0x10000e74   Data         480  raw-os.o(.bss)
    tick_task_obj                            0x10001054   Data          92  raw-os.o(.bss)
    tick_task_stack                          0x100010b0   Data         800  raw-os.o(.bss)
    tick_semaphore_obj                       0x100013d0   Data          24  raw-os.o(.bss)
    shell_task_stack                         0x100013e8   Data        1600  main.o(.bss)
    shell_task_obj                           0x10001a28   Data          92  main.o(.bss)
    uart_sema                                0x10001a84   Data          24  main.o(.bss)
    uart_fifo                                0x10001a9c   Data          24  main.o(.bss)
    __libspace_start                         0x10002b34   Data          96  libspace.o(.bss)
    __temporary_stack_top$libspace           0x10002b94   Data           0  libspace.o(.bss)
    __Vectors                                0x1a000000   Data           4  keil_startup_lpc18xx43xx.o(RESET)
    __main                                   0x1a000115   Thumb Code     8  __main.o(!!!main)
    __scatterload                            0x1a00011d   Thumb Code     0  __scatter.o(!!!scatter)
    __scatterload_rt2                        0x1a00011d   Thumb Code    44  __scatter.o(!!!scatter)
    __scatterload_rt2_thumb_only             0x1a00011d   Thumb Code     0  __scatter.o(!!!scatter)
    __scatterload_null                       0x1a00012b   Thumb Code     0  __scatter.o(!!!scatter)
    __scatterload_copy                       0x1a000151   Thumb Code    26  __scatter_copy.o(!!handler_copy)
    __scatterload_zeroinit                   0x1a00016d   Thumb Code    28  __scatter_zi.o(!!handler_zi)
    _printf_d                                0x1a000189   Thumb Code     0  _printf_d.o(.ARM.Collect$$_printf_percent$$00000009)
    _printf_percent                          0x1a000189   Thumb Code     0  _printf_percent.o(.ARM.Collect$$_printf_percent$$00000000)
    _printf_u                                0x1a00018f   Thumb Code     0  _printf_u.o(.ARM.Collect$$_printf_percent$$0000000A)
    _printf_x                                0x1a000195   Thumb Code     0  _printf_x.o(.ARM.Collect$$_printf_percent$$0000000C)
    _printf_s                                0x1a00019b   Thumb Code     0  _printf_s.o(.ARM.Collect$$_printf_percent$$00000014)
    _printf_percent_end                      0x1a0001a1   Thumb Code     0  _printf_percent_end.o(.ARM.Collect$$_printf_percent$$00000017)
    __rt_lib_init                            0x1a0001a5   Thumb Code     0  libinit.o(.ARM.Collect$$libinit$$00000000)
    __rt_lib_init_fp_1                       0x1a0001a7   Thumb Code     0  libinit2.o(.ARM.Collect$$libinit$$00000001)
    __rt_lib_init_alloca_1                   0x1a0001ab   Thumb Code     0  libinit2.o(.ARM.Collect$$libinit$$0000002E)
    __rt_lib_init_argv_1                     0x1a0001ab   Thumb Code     0  libinit2.o(.ARM.Collect$$libinit$$0000002C)
    __rt_lib_init_atexit_1                   0x1a0001ab   Thumb Code     0  libinit2.o(.ARM.Collect$$libinit$$0000001B)
    __rt_lib_init_clock_1                    0x1a0001ab   Thumb Code     0  libinit2.o(.ARM.Collect$$libinit$$00000021)
    __rt_lib_init_cpp_1                      0x1a0001ab   Thumb Code     0  libinit2.o(.ARM.Collect$$libinit$$00000032)
    __rt_lib_init_exceptions_1               0x1a0001ab   Thumb Code     0  libinit2.o(.ARM.Collect$$libinit$$00000030)
    __rt_lib_init_fp_trap_1                  0x1a0001ab   Thumb Code     0  libinit2.o(.ARM.Collect$$libinit$$0000001F)
    __rt_lib_init_getenv_1                   0x1a0001ab   Thumb Code     0  libinit2.o(.ARM.Collect$$libinit$$00000023)
    __rt_lib_init_heap_1                     0x1a0001ab   Thumb Code     0  libinit2.o(.ARM.Collect$$libinit$$0000000A)
    __rt_lib_init_lc_collate_1               0x1a0001ab   Thumb Code     0  libinit2.o(.ARM.Collect$$libinit$$00000011)
    __rt_lib_init_lc_ctype_1                 0x1a0001ab   Thumb Code     0  libinit2.o(.ARM.Collect$$libinit$$00000013)
    __rt_lib_init_lc_monetary_1              0x1a0001ab   Thumb Code     0  libinit2.o(.ARM.Collect$$libinit$$00000015)
    __rt_lib_init_lc_numeric_1               0x1a0001ab   Thumb Code     0  libinit2.o(.ARM.Collect$$libinit$$00000017)
    __rt_lib_init_lc_time_1                  0x1a0001ab   Thumb Code     0  libinit2.o(.ARM.Collect$$libinit$$00000019)
    __rt_lib_init_preinit_1                  0x1a0001ab   Thumb Code     0  libinit2.o(.ARM.Collect$$libinit$$00000004)
    __rt_lib_init_rand_1                     0x1a0001ab   Thumb Code     0  libinit2.o(.ARM.Collect$$libinit$$0000000E)
    __rt_lib_init_return                     0x1a0001ab   Thumb Code     0  libinit2.o(.ARM.Collect$$libinit$$00000033)
    __rt_lib_init_signal_1                   0x1a0001ab   Thumb Code     0  libinit2.o(.ARM.Collect$$libinit$$0000001D)
    __rt_lib_init_stdio_1                    0x1a0001ab   Thumb Code     0  libinit2.o(.ARM.Collect$$libinit$$00000025)
    __rt_lib_init_user_alloc_1               0x1a0001ab   Thumb Code     0  libinit2.o(.ARM.Collect$$libinit$$0000000C)
    __rt_lib_shutdown                        0x1a0001ad   Thumb Code     0  libshutdown.o(.ARM.Collect$$libshutdown$$00000000)
    __rt_lib_shutdown_fp_trap_1              0x1a0001af   Thumb Code     0  libshutdown2.o(.ARM.Collect$$libshutdown$$00000006)
    __rt_lib_shutdown_heap_1                 0x1a0001af   Thumb Code     0  libshutdown2.o(.ARM.Collect$$libshutdown$$0000000E)
    __rt_lib_shutdown_return                 0x1a0001af   Thumb Code     0  libshutdown2.o(.ARM.Collect$$libshutdown$$0000000F)
    __rt_lib_shutdown_signal_1               0x1a0001af   Thumb Code     0  libshutdown2.o(.ARM.Collect$$libshutdown$$00000009)
    __rt_lib_shutdown_stdio_1                0x1a0001af   Thumb Code     0  libshutdown2.o(.ARM.Collect$$libshutdown$$00000003)
    __rt_lib_shutdown_user_alloc_1           0x1a0001af   Thumb Code     0  libshutdown2.o(.ARM.Collect$$libshutdown$$0000000B)
    __rt_entry                               0x1a0001b1   Thumb Code     0  __rtentry.o(.ARM.Collect$$rtentry$$00000000)
    __rt_entry_presh_1                       0x1a0001b1   Thumb Code     0  __rtentry2.o(.ARM.Collect$$rtentry$$00000002)
    __rt_entry_sh                            0x1a0001b1   Thumb Code     0  __rtentry4.o(.ARM.Collect$$rtentry$$00000004)
    __rt_entry_li                            0x1a0001b7   Thumb Code     0  __rtentry2.o(.ARM.Collect$$rtentry$$0000000A)
    __rt_entry_postsh_1                      0x1a0001b7   Thumb Code     0  __rtentry2.o(.ARM.Collect$$rtentry$$00000009)
    __rt_entry_main                          0x1a0001bb   Thumb Code     0  __rtentry2.o(.ARM.Collect$$rtentry$$0000000D)
    __rt_entry_postli_1                      0x1a0001bb   Thumb Code     0  __rtentry2.o(.ARM.Collect$$rtentry$$0000000C)
    __rt_exit                                0x1a0001c3   Thumb Code     0  rtexit.o(.ARM.Collect$$rtexit$$00000000)
    __rt_exit_ls                             0x1a0001c5   Thumb Code     0  rtexit2.o(.ARM.Collect$$rtexit$$00000003)
    __rt_exit_prels_1                        0x1a0001c5   Thumb Code     0  rtexit2.o(.ARM.Collect$$rtexit$$00000002)
    __rt_exit_exit                           0x1a0001c9   Thumb Code     0  rtexit2.o(.ARM.Collect$$rtexit$$00000004)
    get_ready_task                           0x1a0001d1   Thumb Code    24  raw-os.o(.text)
    raw_sched                                0x1a0001e9   Thumb Code    48  raw-os.o(.text)
    raw_semaphore_create                     0x1a000219   Thumb Code    36  raw-os.o(.text)
    raw_task_semaphore_create                0x1a00023d   Thumb Code    16  raw-os.o(.text)
    hybrid_int_process                       0x1a00024d   Thumb Code   134  raw-os.o(.text)
    tick_list_remove                         0x1a0002d3   Thumb Code    24  raw-os.o(.text)
    mtx_chg_pri                              0x1a0002eb   Thumb Code    76  raw-os.o(.text)
    change_pend_list_priority                0x1a000337   Thumb Code    32  raw-os.o(.text)
    add_ready_list_end                       0x1a000357   Thumb Code    38  raw-os.o(.text)
    add_ready_list_head                      0x1a00037d   Thumb Code    38  raw-os.o(.text)
    bit_search_first_one                     0x1a0003a3   Thumb Code   116  raw-os.o(.text)
    remove_ready_list                        0x1a000417   Thumb Code    96  raw-os.o(.text)
    change_internal_task_priority            0x1a000477   Thumb Code    90  raw-os.o(.text)
    mutex_state_change                       0x1a000529   Thumb Code    32  raw-os.o(.text)
    add_ready_list                           0x1a000549   Thumb Code    16  raw-os.o(.text)
    tick_list_update                         0x1a000559   Thumb Code   254  raw-os.o(.text)
    block_state_post_process                 0x1a000657   Thumb Code    64  raw-os.o(.text)
    tick_list_insert                         0x1a000697   Thumb Code    56  raw-os.o(.text)
    raw_pend_object                          0x1a0006cf   Thumb Code    90  raw-os.o(.text)
    raw_semaphore_get                        0x1a000729   Thumb Code   214  raw-os.o(.text)
    raw_task_semaphore_get                   0x1a0007ff   Thumb Code    10  raw-os.o(.text)
    raw_task_create                          0x1a000825   Thumb Code   434  raw-os.o(.text)
    tick_task_start                          0x1a0009d7   Thumb Code    54  raw-os.o(.text)
    wake_send_msg                            0x1a000a67   Thumb Code     4  raw-os.o(.text)
    msg_post                                 0x1a000a6b   Thumb Code   278  raw-os.o(.text)
    raw_wake_object                          0x1a000b81   Thumb Code     2  raw-os.o(.text)
    semaphore_put                            0x1a000b83   Thumb Code   208  raw-os.o(.text)
    task_resume                              0x1a000c53   Thumb Code   210  raw-os.o(.text)
    task_suspend                             0x1a000d25   Thumb Code   278  raw-os.o(.text)
    raw_task_0_post                          0x1a000f27   Thumb Code     4  raw-os.o(.text)
    int_msg_post                             0x1a000f2b   Thumb Code   100  raw-os.o(.text)
    raw_semaphore_put                        0x1a000f8f   Thumb Code    46  raw-os.o(.text)
    call_timer_task                          0x1a000fbd   Thumb Code    22  raw-os.o(.text)
    move_to_ready_list_end                   0x1a000fd3   Thumb Code    30  raw-os.o(.text)
    calculate_time_slice                     0x1a000ff1   Thumb Code   108  raw-os.o(.text)
    raw_task_semaphore_put                   0x1a00105d   Thumb Code     4  raw-os.o(.text)
    raw_task_0_init                          0x1a0010f9   Thumb Code    92  raw-os.o(.text)
    raw_mutex_create                         0x1a001155   Thumb Code    60  raw-os.o(.text)
    raw_mutex_put                            0x1a001191   Thumb Code   328  raw-os.o(.text)
    raw_mutex_get                            0x1a0012d9   Thumb Code   350  raw-os.o(.text)
    raw_semaphore_set                        0x1a001437   Thumb Code   146  raw-os.o(.text)
    timer_task                               0x1a0014c9   Thumb Code   166  raw-os.o(.text)
    raw_timer_init                           0x1a00156f   Thumb Code    66  raw-os.o(.text)
    raw_idle_task                            0x1a0015b1   Thumb Code    30  raw-os.o(.text)
    tick_list_init                           0x1a0015cf   Thumb Code    10  raw-os.o(.text)
    run_queue_init                           0x1a0015d9   Thumb Code    26  raw-os.o(.text)
    raw_os_init                              0x1a0015f3   Thumb Code   102  raw-os.o(.text)
    raw_os_start                             0x1a001659   Thumb Code    36  raw-os.o(.text)
    wake_send_msg_size                       0x1a00167d   Thumb Code     8  raw-os.o(.text)
    delete_pend_obj                          0x1a001685   Thumb Code   166  raw-os.o(.text)
    raw_task_stack_check                     0x1a00172b   Thumb Code    32  raw-os.o(.text)
    raw_disable_sche                         0x1a00174b   Thumb Code    40  raw-os.o(.text)
    raw_enable_sche                          0x1a001773   Thumb Code    54  raw-os.o(.text)
    raw_sleep                                0x1a0017a9   Thumb Code   134  raw-os.o(.text)
    raw_time_sleep                           0x1a00182f   Thumb Code    86  raw-os.o(.text)
    raw_task_suspend                         0x1a001885   Thumb Code    54  raw-os.o(.text)
    raw_task_resume                          0x1a0018bb   Thumb Code    46  raw-os.o(.text)
    chg_pri_mutex                            0x1a0018e9   Thumb Code   114  raw-os.o(.text)
    raw_task_priority_change                 0x1a00195b   Thumb Code   162  raw-os.o(.text)
    raw_task_free_mutex                      0x1a0019fd   Thumb Code    66  raw-os.o(.text)
    raw_task_delete                          0x1a001a3f   Thumb Code   234  raw-os.o(.text)
    raw_set_task_user_point                  0x1a001b29   Thumb Code    26  raw-os.o(.text)
    raw_get_task_user_point                  0x1a001b43   Thumb Code     8  raw-os.o(.text)
    raw_task_time_slice_change               0x1a001b4b   Thumb Code    80  raw-os.o(.text)
    raw_set_sched_way                        0x1a001b9b   Thumb Code    80  raw-os.o(.text)
    raw_get_sched_way                        0x1a001beb   Thumb Code    72  raw-os.o(.text)
    raw_task_wait_abort                      0x1a001c33   Thumb Code   206  raw-os.o(.text)
    raw_task_identify                        0x1a001d01   Thumb Code     6  raw-os.o(.text)
    raw_iter_block_task                      0x1a001d07   Thumb Code   102  raw-os.o(.text)
    raw_get_system_global_space              0x1a001d6d   Thumb Code     6  raw-os.o(.text)
    task_0_tick_post                         0x1a001d73   Thumb Code    16  raw-os.o(.text)
    raw_task_0_front_post                    0x1a001d83   Thumb Code     6  raw-os.o(.text)
    raw_block_pool_create                    0x1a001d89   Thumb Code    98  raw-os.o(.text)
    raw_block_allocate                       0x1a001deb   Thumb Code    70  raw-os.o(.text)
    raw_block_release                        0x1a001e31   Thumb Code    48  raw-os.o(.text)
    raw_byte_pool_create                     0x1a001e61   Thumb Code    78  raw-os.o(.text)
    raw_byte_allocate                        0x1a001eaf   Thumb Code    90  raw-os.o(.text)
    raw_byte_release                         0x1a001f09   Thumb Code    76  raw-os.o(.text)
    raw_mq_init                              0x1a001f55   Thumb Code    36  raw-os.o(.text)
    raw_mq_send                              0x1a00204f   Thumb Code     2  raw-os.o(.text)
    raw_mq_receive                           0x1a002051   Thumb Code   298  raw-os.o(.text)
    raw_mqueue_flush                         0x1a00217b   Thumb Code    78  raw-os.o(.text)
    raw_mqueue_delete                        0x1a0021c9   Thumb Code   102  raw-os.o(.text)
    raw_mqueue_get_information               0x1a00222f   Thumb Code    52  raw-os.o(.text)
    raw_mutex_delete                         0x1a002263   Thumb Code   130  raw-os.o(.text)
    raw_queue_create                         0x1a0022e5   Thumb Code    58  raw-os.o(.text)
    raw_queue_front_post                     0x1a00231f   Thumb Code    58  raw-os.o(.text)
    raw_queue_end_post                       0x1a002359   Thumb Code    62  raw-os.o(.text)
    raw_queue_post_notify                    0x1a002397   Thumb Code    54  raw-os.o(.text)
    raw_queue_all_post                       0x1a0023cd   Thumb Code    50  raw-os.o(.text)
    raw_queue_send_notify                    0x1a0023ff   Thumb Code   104  raw-os.o(.text)
    raw_queue_receive                        0x1a002467   Thumb Code   270  raw-os.o(.text)
    raw_queue_full_check                     0x1a002575   Thumb Code   114  raw-os.o(.text)
    raw_queue_flush                          0x1a0025e7   Thumb Code   110  raw-os.o(.text)
    raw_queue_delete                         0x1a002655   Thumb Code   128  raw-os.o(.text)
    raw_queue_get_information                0x1a0026d5   Thumb Code   140  raw-os.o(.text)
    raw_semaphore_put_notify                 0x1a002761   Thumb Code    52  raw-os.o(.text)
    raw_semaphore_put_all                    0x1a002795   Thumb Code    44  raw-os.o(.text)
    raw_semphore_send_notify                 0x1a0027c1   Thumb Code   104  raw-os.o(.text)
    raw_semaphore_delete                     0x1a002829   Thumb Code   128  raw-os.o(.text)
    raw_stack_check                          0x1a0028a9   Thumb Code    56  raw-os.o(.text)
    raw_finish_int                           0x1a0028e1   Thumb Code    56  raw-os.o(.text)
    raw_time_tick                            0x1a002919   Thumb Code    54  raw-os.o(.text)
    raw_enter_interrupt                      0x1a00294f   Thumb Code    34  raw-os.o(.text)
    raw_system_time_get                      0x1a002971   Thumb Code     6  raw-os.o(.text)
    raw_system_time_set                      0x1a002977   Thumb Code    60  raw-os.o(.text)
    raw_task_semaphore_set                   0x1a0029b3   Thumb Code     6  raw-os.o(.text)
    raw_task_semaphore_delete                0x1a0029b9   Thumb Code     4  raw-os.o(.text)
    raw_timer_activate                       0x1a0029bd   Thumb Code   118  raw-os.o(.text)
    raw_timer_create                         0x1a002a33   Thumb Code    88  raw-os.o(.text)
    raw_timer_change                         0x1a002a8b   Thumb Code    92  raw-os.o(.text)
    raw_timer_deactivate                     0x1a002ae7   Thumb Code   100  raw-os.o(.text)
    raw_timer_delete                         0x1a002b4b   Thumb Code   120  raw-os.o(.text)
    fifo_init                                0x1a002d21   Thumb Code    66  fifo.o(.text)
    fifo_in                                  0x1a002d63   Thumb Code    92  fifo.o(.text)
    fifo_out_peek                            0x1a002dfd   Thumb Code    38  fifo.o(.text)
    fifo_out                                 0x1a002e23   Thumb Code    50  fifo.o(.text)
    fifo_out_all                             0x1a002e55   Thumb Code    62  fifo.o(.text)
    OS_CPU_SR_Save                           0x1a002e95   Thumb Code     0  cpu.o(.text)
    OS_CPU_SR_Restore                        0x1a002e9d   Thumb Code     0  cpu.o(.text)
    CPU_IntDis                               0x1a002ea3   Thumb Code     0  cpu.o(.text)
    CPU_IntEn                                0x1a002ea7   Thumb Code     0  cpu.o(.text)
    raw_start_first_task                     0x1a002eab   Thumb Code     0  cpu.o(.text)
    port_task_switch                         0x1a002ed3   Thumb Code     0  cpu.o(.text)
    raw_int_switch                           0x1a002edd   Thumb Code     0  cpu.o(.text)
    PendSV_Handler                           0x1a002ee7   Thumb Code     0  cpu.o(.text)
    port_stack_init                          0x1a002f39   Thumb Code   324  port.o(.text)
    raw_os_init_hook                         0x1a00307d   Thumb Code     2  port_hook.o(.text)
    raw_task_delete_hook                     0x1a00307f   Thumb Code     2  port_hook.o(.text)
    raw_task_abort_hook                      0x1a003081   Thumb Code     2  port_hook.o(.text)
    raw_idle_task_hook                       0x1a003083   Thumb Code     2  port_hook.o(.text)
    raw_task_switch_hook                     0x1a003085   Thumb Code     2  port_hook.o(.text)
    raw_tick_hook                            0x1a003087   Thumb Code     2  port_hook.o(.text)
    task_create_hook                         0x1a003089   Thumb Code     2  port_hook.o(.text)
    raw_idle_coroutine_hook                  0x1a00308b   Thumb Code     4  port_hook.o(.text)
    raw_memcpy                               0x1a00308f   Thumb Code    74  user_extension.o(.text)
    raw_memset                               0x1a0030d9   Thumb Code    62  user_extension.o(.text)
    Reset_Handler                            0x1a003119   Thumb Code     8  keil_startup_lpc18xx43xx.o(.text)
    NMI_Handler                              0x1a003121   Thumb Code     2  keil_startup_lpc18xx43xx.o(.text)
    HardFault_Handler                        0x1a003123   Thumb Code     2  keil_startup_lpc18xx43xx.o(.text)
    MemManage_Handler                        0x1a003125   Thumb Code     2  keil_startup_lpc18xx43xx.o(.text)
    BusFault_Handler                         0x1a003127   Thumb Code     2  keil_startup_lpc18xx43xx.o(.text)
    UsageFault_Handler                       0x1a003129   Thumb Code     2  keil_startup_lpc18xx43xx.o(.text)
    SVC_Handler                              0x1a00312b   Thumb Code     2  keil_startup_lpc18xx43xx.o(.text)
    DebugMon_Handler                         0x1a00312d   Thumb Code     2  keil_startup_lpc18xx43xx.o(.text)
    UnHandled_Vector                         0x1a003133   Thumb Code     2  keil_startup_lpc18xx43xx.o(.text)
    ADC0_IRQHandler                          0x1a003135   Thumb Code     0  keil_startup_lpc18xx43xx.o(.text)
    ADC1_IRQHandler                          0x1a003135   Thumb Code     0  keil_startup_lpc18xx43xx.o(.text)
    ADCHS_IRQHandler                         0x1a003135   Thumb Code     0  keil_startup_lpc18xx43xx.o(.text)
    ATIMER_IRQHandler                        0x1a003135   Thumb Code     0  keil_startup_lpc18xx43xx.o(.text)
    CAN0_IRQHandler                          0x1a003135   Thumb Code     0  keil_startup_lpc18xx43xx.o(.text)
    CAN1_IRQHandler                          0x1a003135   Thumb Code     0  keil_startup_lpc18xx43xx.o(.text)
    DAC_IRQHandler                           0x1a003135   Thumb Code     0  keil_startup_lpc18xx43xx.o(.text)
    ETH_IRQHandler                           0x1a003135   Thumb Code     0  keil_startup_lpc18xx43xx.o(.text)
    EVRT_IRQHandler                          0x1a003135   Thumb Code     0  keil_startup_lpc18xx43xx.o(.text)
    FLASHEEPROM_IRQHandler                   0x1a003135   Thumb Code     0  keil_startup_lpc18xx43xx.o(.text)
    GINT0_IRQHandler                         0x1a003135   Thumb Code     0  keil_startup_lpc18xx43xx.o(.text)
    GINT1_IRQHandler                         0x1a003135   Thumb Code     0  keil_startup_lpc18xx43xx.o(.text)
    GPIO0_IRQHandler                         0x1a003135   Thumb Code     0  keil_startup_lpc18xx43xx.o(.text)
    GPIO1_IRQHandler                         0x1a003135   Thumb Code     0  keil_startup_lpc18xx43xx.o(.text)
    GPIO2_IRQHandler                         0x1a003135   Thumb Code     0  keil_startup_lpc18xx43xx.o(.text)
    GPIO3_IRQHandler                         0x1a003135   Thumb Code     0  keil_startup_lpc18xx43xx.o(.text)
    GPIO4_IRQHandler                         0x1a003135   Thumb Code     0  keil_startup_lpc18xx43xx.o(.text)
    GPIO5_IRQHandler                         0x1a003135   Thumb Code     0  keil_startup_lpc18xx43xx.o(.text)
    GPIO6_IRQHandler                         0x1a003135   Thumb Code     0  keil_startup_lpc18xx43xx.o(.text)
    GPIO7_IRQHandler                         0x1a003135   Thumb Code     0  keil_startup_lpc18xx43xx.o(.text)
    I2C0_IRQHandler                          0x1a003135   Thumb Code     0  keil_startup_lpc18xx43xx.o(.text)
    I2C1_IRQHandler                          0x1a003135   Thumb Code     0  keil_startup_lpc18xx43xx.o(.text)
    I2S0_IRQHandler                          0x1a003135   Thumb Code     0  keil_startup_lpc18xx43xx.o(.text)
    I2S1_IRQHandler                          0x1a003135   Thumb Code     0  keil_startup_lpc18xx43xx.o(.text)
    LCD_IRQHandler                           0x1a003135   Thumb Code     0  keil_startup_lpc18xx43xx.o(.text)
    MCPWM_IRQHandler                         0x1a003135   Thumb Code     0  keil_startup_lpc18xx43xx.o(.text)
    MX_CORE_IRQHandler                       0x1a003135   Thumb Code     0  keil_startup_lpc18xx43xx.o(.text)
    QEI_IRQHandler                           0x1a003135   Thumb Code     0  keil_startup_lpc18xx43xx.o(.text)
    RIT_IRQHandler                           0x1a003135   Thumb Code     0  keil_startup_lpc18xx43xx.o(.text)
    RTC_IRQHandler                           0x1a003135   Thumb Code     0  keil_startup_lpc18xx43xx.o(.text)
    SCT_IRQHandler                           0x1a003135   Thumb Code     0  keil_startup_lpc18xx43xx.o(.text)
    SDIO_IRQHandler                          0x1a003135   Thumb Code     0  keil_startup_lpc18xx43xx.o(.text)
    SGPIO_IRQHandler                         0x1a003135   Thumb Code     0  keil_startup_lpc18xx43xx.o(.text)
    SPIFI_IRQHandler                         0x1a003135   Thumb Code     0  keil_startup_lpc18xx43xx.o(.text)
    SPI_IRQHandler                           0x1a003135   Thumb Code     0  keil_startup_lpc18xx43xx.o(.text)
    SSP0_IRQHandler                          0x1a003135   Thumb Code     0  keil_startup_lpc18xx43xx.o(.text)
    SSP1_IRQHandler                          0x1a003135   Thumb Code     0  keil_startup_lpc18xx43xx.o(.text)
    TIMER0_IRQHandler                        0x1a003135   Thumb Code     0  keil_startup_lpc18xx43xx.o(.text)
    TIMER1_IRQHandler                        0x1a003135   Thumb Code     0  keil_startup_lpc18xx43xx.o(.text)
    TIMER2_IRQHandler                        0x1a003135   Thumb Code     0  keil_startup_lpc18xx43xx.o(.text)
    TIMER3_IRQHandler                        0x1a003135   Thumb Code     0  keil_startup_lpc18xx43xx.o(.text)
    UART0_IRQHandler                         0x1a003135   Thumb Code     0  keil_startup_lpc18xx43xx.o(.text)
    UART1_IRQHandler                         0x1a003135   Thumb Code     0  keil_startup_lpc18xx43xx.o(.text)
    UART2_IRQHandler                         0x1a003135   Thumb Code     0  keil_startup_lpc18xx43xx.o(.text)
    USB0_IRQHandler                          0x1a003135   Thumb Code     0  keil_startup_lpc18xx43xx.o(.text)
    USB1_IRQHandler                          0x1a003135   Thumb Code     0  keil_startup_lpc18xx43xx.o(.text)
    WDT_IRQHandler                           0x1a003135   Thumb Code     0  keil_startup_lpc18xx43xx.o(.text)
    __user_initial_stackheap                 0x1a003139   Thumb Code     0  keil_startup_lpc18xx43xx.o(.text)
    SystemInit                               0x1a00315d   Thumb Code    20  sysinit.o(.text)
    scu_pinmux                               0x1a003179   Thumb Code    16  lpc43xx_scu.o(.text)
    emc_init                                 0x1a00318d   Thumb Code   944  lpc43xx_sdram.o(.text)
    sdram_init                               0x1a00353d   Thumb Code   144  lpc43xx_sdram.o(.text)
    SysTick_Handler                          0x1a0035e9   Thumb Code    18  main.o(.text)
    OS_CPU_SysTickInit                       0x1a0035fb   Thumb Code    48  main.o(.text)
    uart_3_recv                              0x1a00362b   Thumb Code    76  main.o(.text)
    UART3_IRQHandler                         0x1a003677   Thumb Code    56  main.o(.text)
    DMA_IRQHandler                           0x1a003741   Thumb Code    14  main.o(.text)
    shell_task                               0x1a00374f   Thumb Code   310  main.o(.text)
    main                                     0x1a003885   Thumb Code    56  main.o(.text)
    __2printf                                0x1a003b55   Thumb Code    20  noretval__2printf.o(.text)
    _printf_pre_padding                      0x1a003b6d   Thumb Code    44  _printf_pad.o(.text)
    _printf_post_padding                     0x1a003b99   Thumb Code    34  _printf_pad.o(.text)
    _printf_str                              0x1a003bbb   Thumb Code    82  _printf_str.o(.text)
    _printf_int_dec                          0x1a003c0d   Thumb Code   104  _printf_dec.o(.text)
    _printf_int_hex                          0x1a003c85   Thumb Code    84  _printf_hex_int.o(.text)
    _printf_longlong_hex                     0x1a003c85   Thumb Code     0  _printf_hex_int.o(.text)
    __printf                                 0x1a003cdd   Thumb Code   388  __printf_flags_ss_wp.o(.text)
    memcmp                                   0x1a003e65   Thumb Code    88  memcmp.o(.text)
    __aeabi_memcpy4                          0x1a003ebd   Thumb Code     0  rt_memcpy_w.o(.text)
    __aeabi_memcpy8                          0x1a003ebd   Thumb Code     0  rt_memcpy_w.o(.text)
    __rt_memcpy_w                            0x1a003ebd   Thumb Code   100  rt_memcpy_w.o(.text)
    _memcpy_lastbytes_aligned                0x1a003f05   Thumb Code     0  rt_memcpy_w.o(.text)
    __aeabi_memclr4                          0x1a003f21   Thumb Code     0  rt_memclr_w.o(.text)
    __aeabi_memclr8                          0x1a003f21   Thumb Code     0  rt_memclr_w.o(.text)
    __rt_memclr_w                            0x1a003f21   Thumb Code    78  rt_memclr_w.o(.text)
    _memset_w                                0x1a003f25   Thumb Code     0  rt_memclr_w.o(.text)
    __use_two_region_memory                  0x1a003f6f   Thumb Code     2  heapauxi.o(.text)
    __rt_heap_escrow$2region                 0x1a003f71   Thumb Code     2  heapauxi.o(.text)
    __rt_heap_expand$2region                 0x1a003f73   Thumb Code     2  heapauxi.o(.text)
    _printf_int_common                       0x1a003f75   Thumb Code   178  _printf_intcommon.o(.text)
    _printf_cs_common                        0x1a004027   Thumb Code    20  _printf_char.o(.text)
    _printf_char                             0x1a00403b   Thumb Code    16  _printf_char.o(.text)
    _printf_string                           0x1a00404b   Thumb Code     8  _printf_char.o(.text)
    _printf_char_file                        0x1a004055   Thumb Code    32  _printf_char_file.o(.text)
    _printf_char_common                      0x1a004083   Thumb Code    32  _printf_char_common.o(.text)
    __user_setup_stackheap                   0x1a0040a9   Thumb Code    74  sys_stackheap_outer.o(.text)
    exit                                     0x1a0040f3   Thumb Code    12  exit.o(.text)
    __user_libspace                          0x1a004101   Thumb Code     8  libspace.o(.text)
    __user_perproc_libspace                  0x1a004101   Thumb Code     0  libspace.o(.text)
    __user_perthread_libspace                0x1a004101   Thumb Code     0  libspace.o(.text)
    Board_SetupClocking                      0x1a004109   Thumb Code   158  board_sysinit.o(i.Board_SetupClocking)
    Board_SetupMuxing                        0x1a0041bd   Thumb Code    58  board_sysinit.o(i.Board_SetupMuxing)
    Board_SystemInit                         0x1a004209   Thumb Code    12  board_sysinit.o(i.Board_SystemInit)
    Board_UARTPutChar                        0x1a004215   Thumb Code    26  board.o(i.Board_UARTPutChar)
    Board_UARTPutSTR                         0x1a004235   Thumb Code    22  board.o(i.Board_UARTPutSTR)
    Board_UART_Init                          0x1a00424d   Thumb Code    60  board.o(i.Board_UART_Init)
    Chip_Clock_EnableOpts                    0x1a004291   Thumb Code    52  clock_18xx_43xx.o(i.Chip_Clock_EnableOpts)
    Chip_Clock_GetBaseClock                  0x1a00431d   Thumb Code    32  clock_18xx_43xx.o(i.Chip_Clock_GetBaseClock)
    Chip_Clock_GetBaseClocktHz               0x1a004341   Thumb Code    18  clock_18xx_43xx.o(i.Chip_Clock_GetBaseClocktHz)
    Chip_Clock_GetClockInputHz               0x1a004355   Thumb Code   182  clock_18xx_43xx.o(i.Chip_Clock_GetClockInputHz)
    Chip_Clock_GetDividerDivisor             0x1a004451   Thumb Code    18  clock_18xx_43xx.o(i.Chip_Clock_GetDividerDivisor)
    Chip_Clock_GetDividerSource              0x1a004471   Thumb Code    26  clock_18xx_43xx.o(i.Chip_Clock_GetDividerSource)
    Chip_Clock_GetMainPLLHz                  0x1a004491   Thumb Code   110  clock_18xx_43xx.o(i.Chip_Clock_GetMainPLLHz)
    Chip_Clock_GetRate                       0x1a004509   Thumb Code    78  clock_18xx_43xx.o(i.Chip_Clock_GetRate)
    Chip_Clock_SetBaseClock                  0x1a004561   Thumb Code    64  clock_18xx_43xx.o(i.Chip_Clock_SetBaseClock)
    Chip_Clock_SetDivider                    0x1a0045a9   Thumb Code    64  clock_18xx_43xx.o(i.Chip_Clock_SetDivider)
    Chip_GPDMA_ChannelCmd                    0x1a0045f9   Thumb Code    36  gpdma_18xx_43xx.o(i.Chip_GPDMA_ChannelCmd)
    Chip_GPDMA_ClearIntPending               0x1a00461d   Thumb Code    22  gpdma_18xx_43xx.o(i.Chip_GPDMA_ClearIntPending)
    Chip_GPDMA_GetFreeChannel                0x1a004635   Thumb Code    52  gpdma_18xx_43xx.o(i.Chip_GPDMA_GetFreeChannel)
    Chip_GPDMA_Init                          0x1a00466d   Thumb Code    68  gpdma_18xx_43xx.o(i.Chip_GPDMA_Init)
    Chip_GPDMA_InitChannelCfg                0x1a0046b5   Thumb Code   138  gpdma_18xx_43xx.o(i.Chip_GPDMA_InitChannelCfg)
    Chip_GPDMA_IntGetStatus                  0x1a004745   Thumb Code    90  gpdma_18xx_43xx.o(i.Chip_GPDMA_IntGetStatus)
    Chip_GPDMA_Interrupt                     0x1a00479f   Thumb Code    74  gpdma_18xx_43xx.o(i.Chip_GPDMA_Interrupt)
    Chip_GPDMA_PrepareDescriptor             0x1a0047e9   Thumb Code   122  gpdma_18xx_43xx.o(i.Chip_GPDMA_PrepareDescriptor)
    Chip_GPDMA_SGTransfer                    0x1a00486d   Thumb Code   142  gpdma_18xx_43xx.o(i.Chip_GPDMA_SGTransfer)
    Chip_SetupCoreClock                      0x1a00493d   Thumb Code    14  sysinit_18xx_43xx.o(i.Chip_SetupCoreClock)
    Chip_UART_Init                           0x1a004991   Thumb Code    72  uart_18xx_43xx.o(i.Chip_UART_Init)
    Chip_UART_SetBaud                        0x1a0049dd   Thumb Code    66  uart_18xx_43xx.o(i.Chip_UART_SetBaud)
    SystemCoreClockUpdate                    0x1a004a25   Thumb Code    14  chip_18xx_43xx.o(i.SystemCoreClockUpdate)
    _is_digit                                0x1a004a39   Thumb Code    14  __printf_wp.o(i._is_digit)
    _sys_exit                                0x1a004a47   Thumb Code     6  board.o(i._sys_exit)
    ferror                                   0x1a004c39   Thumb Code     8  board.o(i.ferror)
    fpuInit                                  0x1a004c41   Thumb Code    62  fpu_init.o(i.fpuInit)
    fputc                                    0x1a004c91   Thumb Code    20  board.o(i.fputc)
    makeCtrlWord                             0x1a004ca5   Thumb Code   200  gpdma_18xx_43xx.o(i.makeCtrlWord)
    setupChannel                             0x1a004d6d   Thumb Code   146  gpdma_18xx_43xx.o(i.setupChannel)
    _fp_init                                 0x1a004dff   Thumb Code    10  fpinit.o(x$fpl$fpinit)
    __fplib_config_fpu_vfp                   0x1a004e07   Thumb Code     0  fpinit.o(x$fpl$fpinit)
    __fplib_config_pureend_doubles           0x1a004e07   Thumb Code     0  fpinit.o(x$fpl$fpinit)
    ad_left                                  0x1a004e18   Data           4  board.o(.constdata)
    ad_top                                   0x1a004e1c   Data           4  board.o(.constdata)
    ad_right                                 0x1a004e20   Data           4  board.o(.constdata)
    ad_bottom                                0x1a004e24   Data           4  board.o(.constdata)
    MCB4300_LCD                              0x1a004e28   Data          22  board.o(.constdata)
    ExtRateIn                                0x1a004e40   Data           4  board.o(.constdata)
    OscRateIn                                0x1a004e44   Data           4  board.o(.constdata)
    Region$$Table$$Base                      0x1a005280   Number         0  anon$$obj.o(Region$$Table)
    Region$$Table$$Limit                     0x1a0052a0   Number         0  anon$$obj.o(Region$$Table)



==============================================================================

Memory Map of the image

  Image Entry point : 0x1a000115

  Load Region LR_IROM1 (Base: 0x1a000000, Size: 0x000053a0, Max: 0x00080000, ABSOLUTE)

    Execution Region RW_IRAM1 (Base: 0x10000000, Size: 0x00003298, Max: 0x00008000, ABSOLUTE)

    Base Addr    Size         Type   Attr      Idx    E Section Name        Object

    0x10000000   0x00000058   Data   RW            3    .data               raw-os.o
    0x10000058   0x00000008   Data   RW          618    .data               main.o
    0x10000060   0x00000014   Data   RW          723    .data               lib_lpc_board_keil_mcb_4357.lib(board.o)
    0x10000074   0x00000004   Data   RW         1245    .data               lib_lpc_chip_43xx.lib(chip_18xx_43xx.o)
    0x10000078   0x00000080   Data   RW         1479    .data               lib_lpc_chip_43xx.lib(gpdma_18xx_43xx.o)
    0x100000f8   0x00000008   Data   RW         1867    .data               lib_lpc_chip_43xx.lib(clock_18xx_43xx.o)
    0x10000100   0x000012e8   Zero   RW            2    .bss                raw-os.o
    0x100013e8   0x0000174c   Zero   RW          615    .bss                main.o
    0x10002b34   0x00000060   Zero   RW         2822    .bss                c_w.l(libspace.o)
    0x10002b94   0x00000004   PAD
    0x10002b98   0x00000100   Zero   RW          324    HEAP                keil_startup_lpc18xx43xx.o
    0x10002c98   0x00000600   Zero   RW          323    STACK               keil_startup_lpc18xx43xx.o


    Execution Region ER_IROM1 (Base: 0x1a000000, Size: 0x000052a0, Max: 0x00080000, ABSOLUTE)

    Base Addr    Size         Type   Attr      Idx    E Section Name        Object

    0x1a000000   0x00000114   Data   RO          325    RESET               keil_startup_lpc18xx43xx.o
    0x1a000114   0x00000008   Code   RO         2772  * !!!main             c_w.l(__main.o)
    0x1a00011c   0x00000034   Code   RO         2947    !!!scatter          c_w.l(__scatter.o)
    0x1a000150   0x0000001a   Code   RO         2949    !!handler_copy      c_w.l(__scatter_copy.o)
    0x1a00016a   0x00000002   PAD
    0x1a00016c   0x0000001c   Code   RO         2951    !!handler_zi        c_w.l(__scatter_zi.o)
    0x1a000188   0x00000000   Code   RO         2761    .ARM.Collect$$_printf_percent$$00000000  c_w.l(_printf_percent.o)
    0x1a000188   0x00000006   Code   RO         2759    .ARM.Collect$$_printf_percent$$00000009  c_w.l(_printf_d.o)
    0x1a00018e   0x00000006   Code   RO         2760    .ARM.Collect$$_printf_percent$$0000000A  c_w.l(_printf_u.o)
    0x1a000194   0x00000006   Code   RO         2758    .ARM.Collect$$_printf_percent$$0000000C  c_w.l(_printf_x.o)
    0x1a00019a   0x00000006   Code   RO         2757    .ARM.Collect$$_printf_percent$$00000014  c_w.l(_printf_s.o)
    0x1a0001a0   0x00000004   Code   RO         2785    .ARM.Collect$$_printf_percent$$00000017  c_w.l(_printf_percent_end.o)
    0x1a0001a4   0x00000002   Code   RO         2820    .ARM.Collect$$libinit$$00000000  c_w.l(libinit.o)
    0x1a0001a6   0x00000004   Code   RO         2832    .ARM.Collect$$libinit$$00000001  c_w.l(libinit2.o)
    0x1a0001aa   0x00000000   Code   RO         2835    .ARM.Collect$$libinit$$00000004  c_w.l(libinit2.o)
    0x1a0001aa   0x00000000   Code   RO         2838    .ARM.Collect$$libinit$$0000000A  c_w.l(libinit2.o)
    0x1a0001aa   0x00000000   Code   RO         2840    .ARM.Collect$$libinit$$0000000C  c_w.l(libinit2.o)
    0x1a0001aa   0x00000000   Code   RO         2842    .ARM.Collect$$libinit$$0000000E  c_w.l(libinit2.o)
    0x1a0001aa   0x00000000   Code   RO         2845    .ARM.Collect$$libinit$$00000011  c_w.l(libinit2.o)
    0x1a0001aa   0x00000000   Code   RO         2847    .ARM.Collect$$libinit$$00000013  c_w.l(libinit2.o)
    0x1a0001aa   0x00000000   Code   RO         2849    .ARM.Collect$$libinit$$00000015  c_w.l(libinit2.o)
    0x1a0001aa   0x00000000   Code   RO         2851    .ARM.Collect$$libinit$$00000017  c_w.l(libinit2.o)
    0x1a0001aa   0x00000000   Code   RO         2853    .ARM.Collect$$libinit$$00000019  c_w.l(libinit2.o)
    0x1a0001aa   0x00000000   Code   RO         2855    .ARM.Collect$$libinit$$0000001B  c_w.l(libinit2.o)
    0x1a0001aa   0x00000000   Code   RO         2857    .ARM.Collect$$libinit$$0000001D  c_w.l(libinit2.o)
    0x1a0001aa   0x00000000   Code   RO         2859    .ARM.Collect$$libinit$$0000001F  c_w.l(libinit2.o)
    0x1a0001aa   0x00000000   Code   RO         2861    .ARM.Collect$$libinit$$00000021  c_w.l(libinit2.o)
    0x1a0001aa   0x00000000   Code   RO         2863    .ARM.Collect$$libinit$$00000023  c_w.l(libinit2.o)
    0x1a0001aa   0x00000000   Code   RO         2865    .ARM.Collect$$libinit$$00000025  c_w.l(libinit2.o)
    0x1a0001aa   0x00000000   Code   RO         2869    .ARM.Collect$$libinit$$0000002C  c_w.l(libinit2.o)
    0x1a0001aa   0x00000000   Code   RO         2871    .ARM.Collect$$libinit$$0000002E  c_w.l(libinit2.o)
    0x1a0001aa   0x00000000   Code   RO         2873    .ARM.Collect$$libinit$$00000030  c_w.l(libinit2.o)
    0x1a0001aa   0x00000000   Code   RO         2875    .ARM.Collect$$libinit$$00000032  c_w.l(libinit2.o)
    0x1a0001aa   0x00000002   Code   RO         2876    .ARM.Collect$$libinit$$00000033  c_w.l(libinit2.o)
    0x1a0001ac   0x00000002   Code   RO         2902    .ARM.Collect$$libshutdown$$00000000  c_w.l(libshutdown.o)
    0x1a0001ae   0x00000000   Code   RO         2932    .ARM.Collect$$libshutdown$$00000003  c_w.l(libshutdown2.o)
    0x1a0001ae   0x00000000   Code   RO         2935    .ARM.Collect$$libshutdown$$00000006  c_w.l(libshutdown2.o)
    0x1a0001ae   0x00000000   Code   RO         2938    .ARM.Collect$$libshutdown$$00000009  c_w.l(libshutdown2.o)
    0x1a0001ae   0x00000000   Code   RO         2940    .ARM.Collect$$libshutdown$$0000000B  c_w.l(libshutdown2.o)
    0x1a0001ae   0x00000000   Code   RO         2943    .ARM.Collect$$libshutdown$$0000000E  c_w.l(libshutdown2.o)
    0x1a0001ae   0x00000002   Code   RO         2944    .ARM.Collect$$libshutdown$$0000000F  c_w.l(libshutdown2.o)
    0x1a0001b0   0x00000000   Code   RO         2774    .ARM.Collect$$rtentry$$00000000  c_w.l(__rtentry.o)
    0x1a0001b0   0x00000000   Code   RO         2787    .ARM.Collect$$rtentry$$00000002  c_w.l(__rtentry2.o)
    0x1a0001b0   0x00000006   Code   RO         2799    .ARM.Collect$$rtentry$$00000004  c_w.l(__rtentry4.o)
    0x1a0001b6   0x00000000   Code   RO         2789    .ARM.Collect$$rtentry$$00000009  c_w.l(__rtentry2.o)
    0x1a0001b6   0x00000004   Code   RO         2790    .ARM.Collect$$rtentry$$0000000A  c_w.l(__rtentry2.o)
    0x1a0001ba   0x00000000   Code   RO         2792    .ARM.Collect$$rtentry$$0000000C  c_w.l(__rtentry2.o)
    0x1a0001ba   0x00000008   Code   RO         2793    .ARM.Collect$$rtentry$$0000000D  c_w.l(__rtentry2.o)
    0x1a0001c2   0x00000002   Code   RO         2824    .ARM.Collect$$rtexit$$00000000  c_w.l(rtexit.o)
    0x1a0001c4   0x00000000   Code   RO         2878    .ARM.Collect$$rtexit$$00000002  c_w.l(rtexit2.o)
    0x1a0001c4   0x00000004   Code   RO         2879    .ARM.Collect$$rtexit$$00000003  c_w.l(rtexit2.o)
    0x1a0001c8   0x00000006   Code   RO         2880    .ARM.Collect$$rtexit$$00000004  c_w.l(rtexit2.o)
    0x1a0001ce   0x00000002   PAD
    0x1a0001d0   0x00002b50   Code   RO            1    .text               raw-os.o
    0x1a002d20   0x00000172   Code   RO          183    .text               fifo.o
    0x1a002e92   0x00000002   PAD
    0x1a002e94   0x000000a4   Code   RO          277    .text               cpu.o
    0x1a002f38   0x00000144   Code   RO          281    .text               port.o
    0x1a00307c   0x00000012   Code   RO          293    .text               port_hook.o
    0x1a00308e   0x00000088   Code   RO          311    .text               user_extension.o
    0x1a003116   0x00000002   PAD
    0x1a003118   0x00000044   Code   RO          326    .text               keil_startup_lpc18xx43xx.o
    0x1a00315c   0x0000001c   Code   RO          332    .text               sysinit.o
    0x1a003178   0x00000014   Code   RO          558    .text               lpc43xx_scu.o
    0x1a00318c   0x0000045c   Code   RO          591    .text               lpc43xx_sdram.o
    0x1a0035e8   0x0000056c   Code   RO          614    .text               main.o
    0x1a003b54   0x00000018   Code   RO         2706    .text               c_w.l(noretval__2printf.o)
    0x1a003b6c   0x0000004e   Code   RO         2710    .text               c_w.l(_printf_pad.o)
    0x1a003bba   0x00000052   Code   RO         2712    .text               c_w.l(_printf_str.o)
    0x1a003c0c   0x00000078   Code   RO         2714    .text               c_w.l(_printf_dec.o)
    0x1a003c84   0x00000058   Code   RO         2719    .text               c_w.l(_printf_hex_int.o)
    0x1a003cdc   0x00000188   Code   RO         2754    .text               c_w.l(__printf_flags_ss_wp.o)
    0x1a003e64   0x00000058   Code   RO         2762    .text               c_w.l(memcmp.o)
    0x1a003ebc   0x00000064   Code   RO         2766    .text               c_w.l(rt_memcpy_w.o)
    0x1a003f20   0x0000004e   Code   RO         2768    .text               c_w.l(rt_memclr_w.o)
    0x1a003f6e   0x00000006   Code   RO         2770    .text               c_w.l(heapauxi.o)
    0x1a003f74   0x000000b2   Code   RO         2779    .text               c_w.l(_printf_intcommon.o)
    0x1a004026   0x0000002c   Code   RO         2781    .text               c_w.l(_printf_char.o)
    0x1a004052   0x00000002   PAD
    0x1a004054   0x00000024   Code   RO         2783    .text               c_w.l(_printf_char_file.o)
    0x1a004078   0x00000030   Code   RO         2803    .text               c_w.l(_printf_char_common.o)
    0x1a0040a8   0x0000004a   Code   RO         2805    .text               c_w.l(sys_stackheap_outer.o)
    0x1a0040f2   0x0000000c   Code   RO         2809    .text               c_w.l(exit.o)
    0x1a0040fe   0x00000002   PAD
    0x1a004100   0x00000008   Code   RO         2821    .text               c_w.l(libspace.o)
    0x1a004108   0x000000b4   Code   RO         1169    i.Board_SetupClocking  lib_lpc_board_keil_mcb_4357.lib(board_sysinit.o)
    0x1a0041bc   0x0000004c   Code   RO         1171    i.Board_SetupMuxing  lib_lpc_board_keil_mcb_4357.lib(board_sysinit.o)
    0x1a004208   0x0000000c   Code   RO         1172    i.Board_SystemInit  lib_lpc_board_keil_mcb_4357.lib(board_sysinit.o)
    0x1a004214   0x00000020   Code   RO          698    i.Board_UARTPutChar  lib_lpc_board_keil_mcb_4357.lib(board.o)
    0x1a004234   0x00000016   Code   RO          699    i.Board_UARTPutSTR  lib_lpc_board_keil_mcb_4357.lib(board.o)
    0x1a00424a   0x00000002   PAD
    0x1a00424c   0x00000044   Code   RO          700    i.Board_UART_Init   lib_lpc_board_keil_mcb_4357.lib(board.o)
    0x1a004290   0x0000003c   Code   RO         1841    i.Chip_Clock_EnableOpts  lib_lpc_chip_43xx.lib(clock_18xx_43xx.o)
    0x1a0042cc   0x00000050   Code   RO         1843    i.Chip_Clock_FindBaseClock  lib_lpc_chip_43xx.lib(clock_18xx_43xx.o)
    0x1a00431c   0x00000024   Code   RO         1844    i.Chip_Clock_GetBaseClock  lib_lpc_chip_43xx.lib(clock_18xx_43xx.o)
    0x1a004340   0x00000012   Code   RO         1846    i.Chip_Clock_GetBaseClocktHz  lib_lpc_chip_43xx.lib(clock_18xx_43xx.o)
    0x1a004352   0x00000002   PAD
    0x1a004354   0x000000d4   Code   RO         1847    i.Chip_Clock_GetClockInputHz  lib_lpc_chip_43xx.lib(clock_18xx_43xx.o)
    0x1a004428   0x00000028   Code   RO         1848    i.Chip_Clock_GetDivRate  lib_lpc_chip_43xx.lib(clock_18xx_43xx.o)
    0x1a004450   0x00000020   Code   RO         1849    i.Chip_Clock_GetDividerDivisor  lib_lpc_chip_43xx.lib(clock_18xx_43xx.o)
    0x1a004470   0x00000020   Code   RO         1850    i.Chip_Clock_GetDividerSource  lib_lpc_chip_43xx.lib(clock_18xx_43xx.o)
    0x1a004490   0x00000078   Code   RO         1852    i.Chip_Clock_GetMainPLLHz  lib_lpc_chip_43xx.lib(clock_18xx_43xx.o)
    0x1a004508   0x00000058   Code   RO         1854    i.Chip_Clock_GetRate  lib_lpc_chip_43xx.lib(clock_18xx_43xx.o)
    0x1a004560   0x00000048   Code   RO         1858    i.Chip_Clock_SetBaseClock  lib_lpc_chip_43xx.lib(clock_18xx_43xx.o)
    0x1a0045a8   0x00000050   Code   RO         1859    i.Chip_Clock_SetDivider  lib_lpc_chip_43xx.lib(clock_18xx_43xx.o)
    0x1a0045f8   0x00000024   Code   RO         1463    i.Chip_GPDMA_ChannelCmd  lib_lpc_chip_43xx.lib(gpdma_18xx_43xx.o)
    0x1a00461c   0x00000016   Code   RO         1464    i.Chip_GPDMA_ClearIntPending  lib_lpc_chip_43xx.lib(gpdma_18xx_43xx.o)
    0x1a004632   0x00000002   PAD
    0x1a004634   0x00000038   Code   RO         1466    i.Chip_GPDMA_GetFreeChannel  lib_lpc_chip_43xx.lib(gpdma_18xx_43xx.o)
    0x1a00466c   0x00000048   Code   RO         1467    i.Chip_GPDMA_Init   lib_lpc_chip_43xx.lib(gpdma_18xx_43xx.o)
    0x1a0046b4   0x00000090   Code   RO         1468    i.Chip_GPDMA_InitChannelCfg  lib_lpc_chip_43xx.lib(gpdma_18xx_43xx.o)
    0x1a004744   0x0000005a   Code   RO         1469    i.Chip_GPDMA_IntGetStatus  lib_lpc_chip_43xx.lib(gpdma_18xx_43xx.o)
    0x1a00479e   0x0000004a   Code   RO         1470    i.Chip_GPDMA_Interrupt  lib_lpc_chip_43xx.lib(gpdma_18xx_43xx.o)
    0x1a0047e8   0x00000084   Code   RO         1471    i.Chip_GPDMA_PrepareDescriptor  lib_lpc_chip_43xx.lib(gpdma_18xx_43xx.o)
    0x1a00486c   0x0000008e   Code   RO         1472    i.Chip_GPDMA_SGTransfer  lib_lpc_chip_43xx.lib(gpdma_18xx_43xx.o)
    0x1a0048fa   0x00000002   PAD
    0x1a0048fc   0x00000010   Code   RO          706    i.Chip_SCU_PinMuxSet  lib_lpc_board_keil_mcb_4357.lib(board.o)
    0x1a00490c   0x00000030   Code   RO         1173    i.Chip_SCU_SetPinMuxing  lib_lpc_board_keil_mcb_4357.lib(board_sysinit.o)
    0x1a00493c   0x0000000e   Code   RO         2595    i.Chip_SetupCoreClock  lib_lpc_chip_43xx.lib(sysinit_18xx_43xx.o)
    0x1a00494a   0x0000000a   Code   RO         1580    i.Chip_UART_DisableDivisorAccess  lib_lpc_chip_43xx.lib(uart_18xx_43xx.o)
    0x1a004954   0x0000000a   Code   RO         1581    i.Chip_UART_EnableDivisorAccess  lib_lpc_chip_43xx.lib(uart_18xx_43xx.o)
    0x1a00495e   0x00000002   PAD
    0x1a004960   0x00000030   Code   RO         1583    i.Chip_UART_GetClockIndex  lib_lpc_chip_43xx.lib(uart_18xx_43xx.o)
    0x1a004990   0x0000004c   Code   RO         1585    i.Chip_UART_Init    lib_lpc_chip_43xx.lib(uart_18xx_43xx.o)
    0x1a0049dc   0x00000042   Code   RO         1597    i.Chip_UART_SetBaud  lib_lpc_chip_43xx.lib(uart_18xx_43xx.o)
    0x1a004a1e   0x00000006   Code   RO         1599    i.Chip_UART_SetDivisorLatches  lib_lpc_chip_43xx.lib(uart_18xx_43xx.o)
    0x1a004a24   0x00000014   Code   RO         1243    i.SystemCoreClockUpdate  lib_lpc_chip_43xx.lib(chip_18xx_43xx.o)
    0x1a004a38   0x0000000e   Code   RO         2747    i._is_digit         c_w.l(__printf_wp.o)
    0x1a004a46   0x00000006   Code   RO          708    i._sys_exit         lib_lpc_board_keil_mcb_4357.lib(board.o)
    0x1a004a4c   0x00000024   Code   RO         2599    i.clock_init_delay  lib_lpc_chip_43xx.lib(sysinit_18xx_43xx.o)
    0x1a004a70   0x000000bc   Code   RO         2600    i.clock_main_init   lib_lpc_chip_43xx.lib(sysinit_18xx_43xx.o)
    0x1a004b2c   0x0000010c   Code   RO         1475    i.configDMAMux      lib_lpc_chip_43xx.lib(gpdma_18xx_43xx.o)
    0x1a004c38   0x00000008   Code   RO          712    i.ferror            lib_lpc_board_keil_mcb_4357.lib(board.o)
    0x1a004c40   0x00000050   Code   RO         1744    i.fpuInit           lib_lpc_chip_43xx.lib(fpu_init.o)
    0x1a004c90   0x00000014   Code   RO          714    i.fputc             lib_lpc_board_keil_mcb_4357.lib(board.o)
    0x1a004ca4   0x000000c8   Code   RO         1476    i.makeCtrlWord      lib_lpc_chip_43xx.lib(gpdma_18xx_43xx.o)
    0x1a004d6c   0x00000092   Code   RO         1477    i.setupChannel      lib_lpc_chip_43xx.lib(gpdma_18xx_43xx.o)
    0x1a004dfe   0x0000000a   Code   RO         2890    x$fpl$fpinit        fz_wm.l(fpinit.o)
    0x1a004e08   0x00000040   Data   RO          722    .constdata          lib_lpc_board_keil_mcb_4357.lib(board.o)
    0x1a004e48   0x000002bc   Data   RO         1174    .constdata          lib_lpc_board_keil_mcb_4357.lib(board_sysinit.o)
    0x1a005104   0x0000003c   Data   RO         1478    .constdata          lib_lpc_chip_43xx.lib(gpdma_18xx_43xx.o)
    0x1a005140   0x0000006c   Data   RO         1866    .constdata          lib_lpc_chip_43xx.lib(clock_18xx_43xx.o)
    0x1a0051ac   0x00000048   Data   RO         2601    .constdata          lib_lpc_chip_43xx.lib(sysinit_18xx_43xx.o)
    0x1a0051f4   0x00000028   Data   RO         2720    .constdata          c_w.l(_printf_hex_int.o)
    0x1a00521c   0x00000011   Data   RO         2755    .constdata          c_w.l(__printf_flags_ss_wp.o)
    0x1a00522d   0x00000003   PAD
    0x1a005230   0x00000050   Data   RO          616    .conststring        main.o
    0x1a005280   0x00000020   Data   RO         2945    Region$$Table       anon$$obj.o


==============================================================================

Image component sizes


      Code (inc. data)   RO Data    RW Data    ZI Data      Debug   Object Name

       164         16          0          0          0        400   cpu.o
       370          0          0          0          0       6840   fifo.o
        68         28        276          0       1792        952   keil_startup_lpc18xx43xx.o
        20          4          0          0          0        993   lpc43xx_scu.o
      1116         28          0          0          0       2170   lpc43xx_sdram.o
      1388        476         80          8       5964      45449   main.o
       324          0          0          0          0       1406   port.o
        18          0          0          0          0       1775   port_hook.o
     11088        332          0         88       4840      65539   raw-os.o
        28          8          0          0          0       5161   sysinit.o
       136          0          0          0          0       1496   user_extension.o

    ----------------------------------------------------------------------
     14724        892        388         96      12596     132181   Object Totals
         0          0         32          0          0          0   (incl. Generated)
         4          0          0          0          0          0   (incl. Padding)

    ----------------------------------------------------------------------

      Code (inc. data)   RO Data    RW Data    ZI Data      Debug   Library Member Name

         8          0          0          0          0         68   __main.o
       392          4         17          0          0         92   __printf_flags_ss_wp.o
        14          0          0          0          0         68   __printf_wp.o
         0          0          0          0          0          0   __rtentry.o
        12          0          0          0          0          0   __rtentry2.o
         6          0          0          0          0          0   __rtentry4.o
        52          8          0          0          0          0   __scatter.o
        26          0          0          0          0          0   __scatter_copy.o
        28          0          0          0          0          0   __scatter_zi.o
        44          0          0          0          0        108   _printf_char.o
        48          6          0          0          0         96   _printf_char_common.o
        36          4          0          0          0         80   _printf_char_file.o
         6          0          0          0          0          0   _printf_d.o
       120         16          0          0          0         92   _printf_dec.o
        88          4         40          0          0         88   _printf_hex_int.o
       178          0          0          0          0         88   _printf_intcommon.o
        78          0          0          0          0        108   _printf_pad.o
         0          0          0          0          0          0   _printf_percent.o
         4          0          0          0          0          0   _printf_percent_end.o
         6          0          0          0          0          0   _printf_s.o
        82          0          0          0          0         80   _printf_str.o
         6          0          0          0          0          0   _printf_u.o
         6          0          0          0          0          0   _printf_x.o
        12          0          0          0          0         72   exit.o
         6          0          0          0          0        152   heapauxi.o
         2          0          0          0          0          0   libinit.o
         6          0          0          0          0          0   libinit2.o
         2          0          0          0          0          0   libshutdown.o
         2          0          0          0          0          0   libshutdown2.o
         8          4          0          0         96         68   libspace.o
        88          0          0          0          0         76   memcmp.o
        24          4          0          0          0         84   noretval__2printf.o
        78          0          0          0          0         80   rt_memclr_w.o
       100          0          0          0          0         80   rt_memcpy_w.o
         2          0          0          0          0          0   rtexit.o
        10          0          0          0          0          0   rtexit2.o
        74          0          0          0          0         80   sys_stackheap_outer.o
        10          0          0          0          0        116   fpinit.o
       172         18         64         20          0      32297   board.o
       316         44        700          0          0      11181   board_sysinit.o
        20          6          0          4          0      10746   chip_18xx_43xx.o
       870        130        108          8          0       8770   clock_18xx_43xx.o
        80         18          0          0          0       1234   fpu_init.o
      1382         86         60        128          0      10121   gpdma_18xx_43xx.o
       238         20         72          0          0       2286   sysinit_18xx_43xx.o
       216         16          0          0          0       9189   uart_18xx_43xx.o

    ----------------------------------------------------------------------
      4976        388       1064        160        100      87600   Library Totals
        18          0          3          0          4          0   (incl. Padding)

    ----------------------------------------------------------------------

      Code (inc. data)   RO Data    RW Data    ZI Data      Debug   Library Name

      1654         50         57          0         96       1660   c_w.l
        10          0          0          0          0        116   fz_wm.l
       488         62        764         20          0      43478   lib_lpc_board_keil_mcb_4357.lib
      2806        276        240        140          0      42346   lib_lpc_chip_43xx.lib

    ----------------------------------------------------------------------
      4976        388       1064        160        100      87600   Library Totals

    ----------------------------------------------------------------------

==============================================================================


      Code (inc. data)   RO Data    RW Data    ZI Data      Debug   

     19700       1280       1452        256      12696     213901   Grand Totals
     19700       1280       1452        256      12696     213901   ELF Image Totals
     19700       1280       1452        256          0          0   ROM Totals

==============================================================================

    Total RO  Size (Code + RO Data)                21152 (  20.66kB)
    Total RW  Size (RW Data + ZI Data)             12952 (  12.65kB)
    Total ROM Size (Code + RO Data + RW Data)      21408 (  20.91kB)

==============================================================================

