:020000041A00E0
:1000000018220010FD30001A0531001A0731001ABD
:100010000931001A0B31001A0D31001A5A5A5A5A76
:100020001731001A1731001A1731001A0F31001A50
:100030001131001A1731001ACB2E001ACD35001AD3
:100040001931001A1931001A1931001A1731001A22
:100050001931001A1931001A1931001A1931001A10
:100060001931001A1931001A1931001A1931001A00
:100070001931001A1931001A1931001A1931001AF0
:100080001931001A1931001A1931001A1931001AE0
:100090001931001A1931001A1931001A1931001AD0
:1000A0001931001A1931001A1931001A7336001A61
:1000B0001931001A1931001A1931001A1931001AB0
:1000C0001931001A1931001A1931001A1931001AA0
:1000D0001931001A1931001A1931001A1931001A90
:1000E0001931001A1931001AEF36001A1931001AA5
:1000F0001731001A1931001A1931001A1931001A72
:100100001731001A0137001A1731001A1931001A75
:100110001931001A00F002F800F03CF80AA090E84B
:10012000000C82448344AAF10107DA4501D100F0B2
:1001300031F8AFF2090EBAE80F0013F0010F18BF43
:10014000FB1A43F0010318477C4600009C46000060
:10015000103A24BF78C878C1FAD8520724BF30C8F3
:1001600030C144BF04680C607047000000230024C5
:1001700000250026103A28BF78C1FBD8520728BFB7
:1001800030C148BF0B6070471FB504F01BF91FBD9D
:1001900010B510BD03F07EFC1146FFF7F5FF03F02C
:1001A00038FB03F0B0FC03B4FFF7F2FF03BC04F02C
:1001B0005FF80000FB498A890AB1FB4804E0027835
:1001C00000EBC2004068001F0861704770B5F54C35
:1001D000E078A178084310D102F04EFE0546F348BE
:1001E000FFF7E8FFD4E90401884201D002F063FE82
:1001F0002846BDE8704002F043BE70BD60B1531C9C
:100200000CD000600261C0E901010021017341616D
:100210001121417300207047252070471520704739
:1002200010B4144681650846214610BC1A46E5E71D
:100230002DE9F0470025A946DFF8688302F01CFE8F
:100240000446B8F80C00424600B3D17811B188F8E2
:1002500002902BE0401E90815089D54B00EB40016D
:10026000401C13F8217003EB810180B2D1E90165D4
:100270005081202801D1A8F80A90204602F000FE03
:100280002A683146384690470125D7E7114682F85B
:1002900002905DB1C54A107802EBC0004068001FB3
:1002A00008614969884201D002F005FE2046BDE898
:1002B000F04702F0E5BD10B50446006C002805D0FB
:1002C00004F1300002F07DFC0020206410BD70B508
:1002D000B44C0B4605462179406D05291CD8491CB4
:1002E000C9B221716279914200D96171417B1229B1
:1002F0000FD1017E02290CD10069697E427E8A42BB
:1003000002D900F0AAF804E09A4202D1002100F0DC
:10031000D1F82079401E207170BD10B50446406DA3
:10032000007B002808D1201D02F04BFC2146606DA7
:10033000BDE8104002F04BBC10BD70B54C7E0546C8
:1003400000EBC400001D091D02F034FC214605F538
:10035000FA7002F04AFC2878A04200D92C7070BDD7
:1003600070B54C7E054600EBC400091D406802F0E4
:1003700021FC214605F5FA7002F037FC2878A042EE
:1003800000D92C7070BD70B54B0900EB83044FEAA7
:100390005113CD0650F8233001F01F0103D0012086
:1003A0008840401E83430020461EC1F1200520E006
:1003B000CBB100B948421904090C01D11B0C103013
:1003C00013F0FF0F01D11B0A0830190701D11B09D7
:1003D000001D990701D19B08801CD90700D1401C42
:1003E000904209DB07E008B1203000E0284654F8CD
:1003F000043F9042DCDB304670BD38B505464C7E8C
:10040000081D02F0DEFB05EBC400001D02F0CBFB73
:10041000002817D005F5FA7303EBD40004F00702A7
:100420000121914002788A4302702878A04209D1C4
:10043000C4F13E0221461846FFF7A5FF002802DB63
:100440002044287038BD00208DF8000002F014FD13
:100450009DF800000028FBD038BD70B5044690F828
:1004600050000D46082823D2DFE800F004171717C4
:100470001517151521464D48FFF7BFFF494865760A
:10048000214640698442494802D1FFF769FF0DE0E7
:10049000FFF753FF0AE0657608E0667E6576204642
:1004A000FFF73BFF31462046FFF711FF002070BDEC
:1004B000102070BD2DE9F041867E074688463546FE
:1004C0001C3016E0444502D16169016011E0207ED4
:1004D000022803D0032807D1657E05E0204602F0FC
:1004E00062FB08B92068457DAE4200D92E4604F172
:1004F00014000468002CE5D1787EB04204D0314667
:100500003846BDE8F041A8E7BDE8F0810146406DFE
:10051000427B122A09D1027E022A06D10069497E55
:10052000427E8A4201D10021C4E770471D4B4A7EBA
:100530005B695B7E9A4200D1FFE611E72DE9F84F37
:1005400002F09AFC174EB178491CB17002F098FC89
:10055000B06906F14007401CB0613C684FF00208EA
:100560004FF004090025B246BC4255D054F8086B40
:10057000DAF8180054F8381981424DD194F8500037
:10058000022823D0032830D0062813D007283BD0D8
:100590008DF8005002F070FC9DF800000028FBD0A0
:1005A0003446E1E7000000109809001080000010B8
:1005B0001808001084F8515084F850502046FFF776
:1005C0007AFE2146F948FFF7B1FFE9E72046FFF739
:1005D00072FE201D02F0F5FA2146F448FFF7A6FF4F
:1005E00084F8518084F8505009E02046FFF763FEFC
:1005F000201D02F0E6FA84F8518084F850902046DD
:10060000FFF784FF6565CBE784F8509084F851507C
:100610002046FFF750FEC3E79AF80200544601282F
:1006200008D002F029FCA178491EA170BDE8F84F5E
:1006300002F026BCBDE8F84FFAE538B590F8512035
:1006400082B1012A13D0022A13D0032A13D000202A
:100650008DF8000002F010FC9DF800000028FBD08F
:10066000204638BD09B1406C08600024F8E7082432
:10067000F6E70924F4E70A24F2E770B504460029F6
:1006800016D0CB48CA4D86697018C4E90E014035B2
:100690002146E36B286804E08268921B9A4202D8E4
:1006A0000068A842F8D104F1300102F083FA256411
:1006B00070BDF8B515000C46064608D100208DF82F
:1006C000000002F0D9FB9DF800000028FBD0666511
:1006D000681C13D029462046FFF7CFFF022084F87C
:1006E00050002146B148FFF788FE307B012807D033
:1006F00021463046BDE8F84002F069BA0120EEE735
:10070000211D3046BDE8F84002F054BA70B50E46DF
:10071000040004D0A64DE87818B1272070BD25202C
:1007200070BD02F0A9FBA978491CA97002F0A8FBD2
:10073000607B11280ED0A878012808D002F09CFB1D
:10074000A978491EA97002F09BFB362070BDFFF707
:100750006FFDFAE7206980B1401E2061A87801286A
:1007600008D002F089FBA978491EA97002F088FB25
:10077000002070BDFFF75CFDFAE7A87856B10228AB
:1007800016D302F079FBA978491EA97002F078FB14
:10079000072070BD012808D002F06EFBA978491E21
:1007A000A97002F06DFB062070BDFFF741FDFAE76E
:1007B000324620466969FFF77CFFA87801280DD0F2
:1007C00002F05AFBA978491EA97002F059FBFFF705
:1007D000FDFC6869BDE8704000212EE7FFF728FDA9
:1007E000F5E7014672484069806D8FE7704C4FF025
:1007F000FF352846FFF7F5FF0028FAD120780428B6
:10080000F7D1FFF79BFEF4E72DE9FF5F1D46DDE919
:100810000F69DDF838B0129F040005D03E2D05D3D6
:10082000132004B0BDE8F09F2520FAE746B11198E7
:1008300030B1DFF87C8198F8030018B12720F0E789
:100840002320EEE702F018FB98F80220521C88F8EB
:10085000022002F015FB4FF0010A3D2D01D0C5B179
:100860002EE098F8010088B198F8020001280AD01B
:1008700002F002FB98F80210491E88F8021002F0FC
:10088000FFFA0120CDE7FFF7D3FCFAE788F801A0D3
:1008900016E098F8060088B198F8020001280AD0FE
:1008A00002F0EAFA98F80210491E88F8021002F0E5
:1008B000E7FA0220B5E7FFF7BBFCFAE788F806A0E5
:1008C00098F80200012819D002F0D6FA98F8022010
:1008D000521E88F8022002F0D3FA5C220021204642
:1008E00002F0ECFB5FEA0B000BD06061206102209C
:1008F000207600223FB184F8502009E0FFF798FCF1
:10090000EBE73220F1E7042084F8500084F81BA0C4
:1009100030460021E66201E004C0491C4945FBD392
:10092000204602F0A3FB49463046119B029A02F092
:10093000F5FA20600198E0646576A576C4F8289001
:1009400002F09AFA98F802104546491C88F80210FD
:1009500002F096FA164804F12001503002F02AF90C
:100960001FB121461148FFF7E8FC28780428A87831
:100970000DD0012808D002F07FFAA978491EA9708D
:1009800002F07EFA05204CE7FFF752FCFAE7012857
:1009900010D002F071FAA978491EA97002F070FA1D
:1009A0000FB1FFF713FC00203BE7000080000010B0
:1009B00000000010FFF73CFCF2E700B585B0F848F6
:1009C0000DF1040C0123F54AC8218CE80F0000202A
:1009D00002460090F248F3A15C38FFF715FFFB498F
:1009E00005B00023F4A2A1F55F705DF804EB17E4F5
:1009F00038B5044690F850000025012814D002288C
:100A000012D003281AD0052818D08DF8005002F013
:100A100033FA9DF800000028FBD02046FFF74BFC7E
:100A200084F85150656538BD201D02F0CAF8214692
:100A3000E748FFF77BFD84F85050EEE7201D02F0F9
:100A4000C0F8042084F85000E7E74164D0E72DE9BE
:100A5000F0411F4690460E46044602F00DFADD4D69
:100A6000A978491CA97002F00BFA607B13280ED0FC
:100A7000A878012808D002F0FFF9A978491EA970CA
:100A800002F0FEF936203FE5FFF7D2FBFAE7D4E9A2
:100A9000080181420ED3A878012808D002F0ECF9B1
:100AA000A978491EA97002F0EBF90B202CE5FFF79D
:100AB000BFFBFAE7204602F076F880B3606A401C7C
:100AC0006062A16A884200D9A062B8F1020F18D012
:100AD0002169E069884201D16069E061001FE0613D
:100AE0000660A878012817D002F0C6F9A978491E37
:100AF000A97002F0C5F9E16A09B1204688470020D3
:100B000002E5A069011DA1610660D4E905018142E9
:100B1000E7D12069A061E4E7FFF78AFBEBE7FFE795
:100B20002FB90AE020683146001FFFF78EFF2046EC
:100B300002F039F80028F5D004E020683146001FA3
:100B4000FFF783FFA878012809D002F095F9A9786A
:100B5000491EA97002F094F9FFF738FBCFE7FFF7C1
:100B600067FBF9E744E770B50E46044602F084F9E6
:100B7000984DA978491CA97002F082F9607B112870
:100B80000ED0A878012808D002F076F9A978491E7D
:100B9000A97002F075F9362070BDFFF749FBFAE73E
:100BA000204602F000F830B32069411C11D0401CEF
:100BB0002061A87801281BD002F05EF9A978491EAF
:100BC000A97002F05DF9616909B1204688470020EB
:100BD00070BDA878012808D002F04EF9A978491E06
:100BE000A97002F04DF9152070BDFFF721FBFAE75F
:100BF000FFF71EFBE7E726B909E02068001FFFF7B3
:100C0000F7FE204601F0CFFF0028F6D003E0206871
:100C1000001FFFF7EDFEA878012809D002F02CF99B
:100C2000A978491EA97002F02BF9FFF7CFFACEE799
:100C3000FFF7FEFAF9E770B5044602F01DF9654DBD
:100C4000A978491CA97002F01BF994F850000828F3
:100C500048D2DFE800F00404043013280420A87808
:100C6000012808D002F008F9A978491EA97002F0FD
:100C700007F9122070BDFFF7DBFAFAE7E07E401EAD
:100C800010F0FF00E0761FD184F850002146504854
:100C9000FFF74CFC18E0E07E401E10F0FF00E0760D
:100CA00012D106200EE0E07E401E10F0FF00E0763C
:100CB0000AD1012006E0E07E401E10F0FF00E07641
:100CC00002D1022084F85000A878012819D002F03F
:100CD000D3F8A978491EA97002F0D2F8FFF776FA86
:100CE000002070BDA878012808D002F0C5F8A978C6
:100CF000491EA97002F0C4F8102070BDFFF798FAE1
:100D0000FAE7FFF795FAE9E770B5044602F0B4F8A0
:100D1000304DA978491CA97002F0B2F86869844284
:100D20000BD1A878022808D302F0A6F8A978491EAA
:100D3000A97002F0A5F8072070BD94F850100120AA
:100D400008294CD2DFE801F00410151818180D1806
:100D5000E076042084F8500021461D48FFF74DFB43
:100D60004CE0E076072001E0E076052084F85000B2
:100D700044E0E0760320F9E7E07E401CC0B2E07674
:100D8000FA283BD3A878012826D002F075F8A97874
:100D9000491EA97002F074F8112070BDED07001A09
:100DA000301000107469636B5F7461736B5F6F6206
:100DB0006A656374000000007469636B5F73656D3E
:100DC0006170686F72655F6F626A00005013001097
:100DD0008000001000000010FFF72AFADCE7A87876
:100DE000012808D002F048F8A978491EA97002F03D
:100DF00047F8102070BDFFF71BFAFAE7A878012822
:100E00000AD002F039F8A978491EA97002F038F822
:100E1000FFF7DCF9002070BDFFF70AFAF8E738B5F4
:100E20000C46082822D2DFE800F014171E210C0F10
:100E30000408A068FFF768FF21E0A068FFF7FBFE49
:100E40001DE00021A06801E00121A068FFF78BFEF2
:100E500015E00023012201E000230222D4E902016F
:100E6000FFF7F5FD0BE062780123F7E700208DF82E
:100E7000000002F001F89DF800000028FBD001F00E
:100E8000FBFFFE498A6A62608C62BDE8384001F06F
:100E9000F7BF2DE9F041F94C80461D46E078164633
:100EA0000F4680B101F0E8FFA18920290DD0491C2F
:100EB00089B2A181E289914200D9E181022D08D055
:100EC000618979B110E02820DDE501F0D9FF3720F4
:100ED000D9E521894A1C92B22281202A08D1002218
:100EE000228105E02021618189B2491E89B2618198
:100EF000E34A01EB410102F8217002EB8101C1E9F3
:100F0000016801F0BDFF0020BDE50223C1E72DE926
:100F1000F05F9946DDE90AAB17468846064601F0C0
:100F2000ABFFD64DAC6AECB1267004F10C01C4F8ED
:100F3000088081E8800684F801B06168A96201F048
:100F40009FFF2246314605F13000FFF7DEFF060025
:100F500006D001F091FFA96A6160AC6201F090FFD8
:100F600030465FE4E96A491CE96201F089FF3820F4
:100F700058E41CB570B1C149CA786AB1897859B1D1
:100F8000002100910B460A46019101460420FFF71B
:100F9000BEFF1CBD25201CBDBDE81C400021E2E5B4
:100FA000B649086A401E086204D101200862B448AC
:100FB0003438DEE7704770B50C46497E00EBC1055A
:100FC000201D2D1D01F0FDFD211D2846BDE87040AE
:100FD00001F0F0BD70B5AB4901EBC006361D01F064
:100FE0004BFFA64DA978491CA97001F049FF304676
:100FF00001F0D9FD58B1A87801281DD001F03CFFBF
:10100000A978491EA970BDE8704001F039BF346865
:101010002046217D241F0129EDD00068B042EAD08E
:10102000206910B1401E2061E5D121469548FFF7A7
:10103000C2FF60692061DEE7BDE87040FFF7F8B8E5
:10104000806D96E710B5044602F00FF88E48806D6B
:10105000FFF78FFF2046FFF7BDFFBDE810409FE779
:1010600001F00AFF044689498648FFF7C6F9204681
:1010700001F006FF4FF00008DFF8009201F0FCFEDF
:101080000446B9F80C004A46E8B1401E90815089E8
:101090007B4B00EB4001401C13F8217003EB8101F6
:1010A00080B2D1E901655081202801D1A2F80A80DF
:1010B000012089F80200204601F0E2FE2A6831464C
:1010C00038469047DAE789F802806E48FFF772F8F1
:1010D00001F0F1FE204601F0D3FECFE730B585B038
:1010E0006A4B0120002502025C330095CDE90132F4
:1010F0006749CDE903102B462A4666A16348FFF7EE
:1011000083FB5E4967482431142408600C3166482B
:1011100008604FF4F0720021644801F0CFFF574996
:1011200062488862014601E0416018301831641E4F
:10113000FAD1456005B030BD10B538B1032A07D0EB
:10114000022A05D0042A03D01C2010BD252010BD82
:101150000060002440600473046144618160027691
:10116000032A00D123B1437612214173002010BD20
:101170001B2010BD70B5040004D0404EF07818B1AB
:10118000272070BD252070BD01F076FEB178491C86
:10119000B17001F075FE607B12280ED0B078012886
:1011A00008D001F069FEB178491EB17001F068FE07
:1011B000362070BDFFF73CF8FAE72169706981427B
:1011C0000ED0B078012808D001F056FEB178491E43
:1011D000B17001F055FE172070BDFFF729F8FAE74E
:1011E000A17E491E11F0FF01A1760ED0B078012832
:1011F00008D001F041FEB178491EB17001F040FE07
:10120000182070BDFFF714F8FAE72146FFF752F9EE
:10121000204601F0C8FC80B100202061B078012890
:1012200008D001F029FEB178491EB17001F028FE06
:10123000002070BDFEF7FCFFFAE725682D1F284649
:10124000FFF7D6FB2561E86960610120EC61A076BB
:10125000207E032806D1687E617E884202D9284616
:10126000FFF7FBF8B078012825D001F005FEB17832
:10127000491EB17001F004FE1AE0000000000010E9
:101280001808001080000010D40F001098090010FA
:101290006110001A7461736B5F305F6F626A65631F
:1012A000740000004510001A1F0E001AF40D001003
:1012B000FEF78CFFBCE7FEF7BBFFDDE72DE9F04151
:1012C0000E46040004D0F74DE87818B1272017E443
:1012D000252015E401F0D0FDA978491CA97001F082
:1012E000CFFD607B12280ED0A878012808D001F02D
:1012F000C3FDA978491EA97001F0C2FD3620E3E5BF
:10130000FEF796FFFAE722696869824211D1A07E52
:10131000401CA076A878012808D001F0ADFDA9787E
:10132000491EA97001F0ACFD1820CDE5FEF780FF45
:10133000FAE7217E032912D1837E677EBB420ED25B
:10134000A878012808D001F097FDA978491EA97056
:1013500001F096FD1A20B7E5FEF76AFFFAE762B1E1
:101360004EB3AB78022B35D301F086FDA978491E28
:10137000A97001F085FD0720A6E52061C1696161C2
:101380000121C461A176217E032905D1427E617EBF
:101390008A4201D9FFF761F8A878012808D001F046
:1013A0006BFDA978491EA97001F06AFD00208BE54C
:1013B000FEF73EFFFAE7A878012808D001F05CFDAF
:1013C000A978491EA97001F05BFD06207CE5FEF7B7
:1013D0002FFFFAE7022906D1417E507E814202D2D8
:1013E0001046FFF73AF8324620466969FFF761F97F
:1013F000A87801280ED001F03FFDA978491EA970F8
:1014000001F03EFDFEF7E2FE6869BDE8F041002113
:10141000FFF713B9FEF70CFFF4E770B50E460400B2
:1014200004D0A04DE87818B1272070BD252070BDEC
:1014300001F022FDA978491CA97001F021FD607B13
:1014400011280ED0A878012808D001F015FDA97840
:10145000491EA97001F014FD362070BDFEF7E8FEAC
:10146000FAE7206918B9204601F09DFB60B12661BA
:10147000A878012817D001F0FFFCA978491EA970AF
:1014800001F0FEFC002070BDA878012808D001F012
:10149000F3FCA978491EA97001F0F2FC162070BD7A
:1014A000FEF7C6FEFAE7FEF7C3FEEBE708B500213C
:1014B0007D48FFF7B2FF7B4F4FF0FF394FF0010837
:1014C0004C4649467848FFF721F9774821461830BD
:1014D000FFF7F4FE40B100208DF8000001F0CCFCD5
:1014E0009DF800000028FBD0F8696E4D401C48357F
:1014F000F8612C68AC4227D06069F9692668884297
:1015000022D1204601F07BFB206A50B1A061F9692D
:1015100008446061634821464830A06001F07AFBCE
:1015200001E084F82880216961B1606A88478828D1
:1015300008D194F82800012804D0204601F05FFB70
:1015400084F828803446D5E757481830FFF712FE54
:10155000B6E700B5534885B001210162483000600C
:101560004060AFF2B700C8220292CDE903014F4BB1
:101570000020CDE9000302464C4805234CA15C380D
:10158000FFF742F905B000224DA147485DF804EB92
:10159000FEF734BE434C01F06FFCD4E90E12491C37
:1015A00042F10002C4E90E1201F06AFC01F05FFD95
:1015B000F1E73C4840300060406070473E210170D8
:1015C000002200EBC201091D521C0960D2B2496021
:1015D0003E2AF6D3704700B5324985B00520087021
:1015E0003A48FFF7EBFF2F48403000604060103072
:1015F0000060406001F034FD0123AFF2670234481F
:101600000DF1040C64218CE80F00002002460090CC
:101610002F483D232FA15C38FFF7F6F8FFF799FF1D
:101620002148002302222EA11830FFF785FDFFF785
:1016300055FDFFF7C2F905B0002000BD194B10B5EC
:101640001878052801D0042010BD2048FEF7B2FD0F
:10165000186958610420187001F019FC032010BDAE
:10166000C0E91112FFF7C4B938B5044690F850002C
:10167000002501283AD0022838D0032840D0052878
:101680003ED08DF8005001F0F7FB9DF800000028D7
:10169000FBD02046FEF70FFE032084F8510065655D
:1016A00038BD000000000010E4070010C404001062
:1016B00074696D65725F6F626A6563740000000033
:1016C00074696D65725F73656D00000080000010C5
:1016D000D802001069646C655F7461736B00000070
:1016E00074696D65725F6D7574657800201D01F019
:1016F00068FA2146FA48FEF719FF84F85050C8E707
:10170000201D01F05EFA042084F85000C1E7002299
:1017100010B119B1C06A04E025207047232070473A
:10172000521C08C8002BFBD000200A60704710B57F
:10173000EC4CE07808B1272010BDA078FA2801D33E
:101740000F2010BD01F098FBA178491CA17001F099
:1017500097FB002010BD10B5E24CE07808B12720BF
:1017600010BDA07850B101280AD001F085FBA17806
:10177000491EA17001F084FB0D2010BD0E2010BD8C
:10178000FEF756FDFEF722FD002010BD70B5D54CCA
:101790000546E07808B1272070BD01F06DFBA17807
:1017A000491CA17001F06CFBBDB1A078022808D3E0
:1017B00001F062FBA178491EA17001F061FB0720D6
:1017C00070BD6069062180F850102946FEF755FF6C
:1017D000C3486169FEF711FE03E0C1486169FFF784
:1017E000EAFBA07801280FD001F046FBA178491E42
:1017F000A17001F045FBFEF7E9FC45B16069BDE869
:1018000070400021FEF719BFFEF712FDF3E700203C
:1018100070BDF0B4B34CE47814B12720F0BC70472D
:1018200042F20F74A14201D93B20F7E74FF47A75D9
:10183000A84201D33A20F1E764244FF4FA76B6FBCC
:10184000F4F633446343B3FBF5F34FF46165684347
:10185000C1EB011100EB8100104400FB043008B122
:10186000F0BC93E73C20D9E71CB580B1417E3D290F
:101870000FD071B19B49C97869B1002100910B4625
:101880000A46019101460620FFF741FB1CBD2520B9
:101890001CBD2E201CBDBDE81C40FFF735BA1CB591
:1018A00070B19049CA786AB1897859B10021009124
:1018B0000B460A46019101460720FFF728FB1CBD95
:1018C00025201CBDBDE81C40FFF7B5B92DE9F04748
:1018D00088460146406D91464746002648B1427B06
:1018E000122A06D1027E032A03D1407E002800D9A5
:1018F00006464446CD6913E0287E022806D0032818
:101900000AD16C7EB44207D9264605E0284601F08C
:101910004AF908B92868447DBC4200D227466D695F
:10192000002DE9D1B04505D21A2189F800100846EA
:10193000BDE8F087002189F800103846F8E7F8B5CF
:10194000684F04461646F8780D4608B12720F8BDC2
:10195000BCB1B6B1607E3D2815D2A0B19DB13D2D80
:1019600011D001F089FAB978491CB97001F088FAF0
:101970006A4629462046FFF7A9FF9DF8001071B975
:1019800003E02520F8BD2B20F8BDA5760146607E3A
:1019900030702046FEF761FD8DF8000060B1B87828
:1019A00001281AD001F068FAB978491EB97001F01F
:1019B00067FA9DF80000F8BDB87801280AD001F058
:1019C0005BFAB978491EB97001F05AFAFEF7FEFBCE
:1019D0000020F8BDFEF72CFCF8E7FEF729FCE8E74D
:1019E00070B5C66906E02046666901F0DCF820B1F2
:1019F000002020613400F6D170BD25682D1F2846D7
:101A0000FEF7F6FF2561E8696061EC61207E03283E
:101A1000F0D1687E617E8842ECD92846FEF71DFD34
:101A2000E8E770B5040004D02E4DE87818B12720FF
:101A300070BD252070BD607E3D2816D0A8B101F094
:101A40001BFAA978491CA97001F01AFA6869844246
:101A50000DD1A87802280AD301F00EFAA978491E00
:101A6000A97001F00DFA072070BD2D2070BD204631
:101A7000FFF7B6FF94F850000826082834D2DFE8B4
:101A800000F0040D0D0D180D090921461448FEF74C
:101A9000B4FC0EE02046FEF70EFC0AE02046FEF7FE
:101AA0000AFC201D01F08DF884F850602046FEF7F6
:101AB0002DFD84F8506004F1200001F082F8A87830
:101AC000012820D001F0D8F9A978491EA97001F0A9
:101AD000D7F9204601F0C5FAFEF778FB002070BD6B
:101AE0008000001000000010A878012808D001F044
:101AF000C3F9A978491EA97001F0C2F91020EEE7D8
:101B0000FEF796FBFAE7FEF793FBE2E770B51446A3
:101B10000D46064601F0B0F906EB8401CD60BDE844
:101B2000704001F0ADB900EB8100C068704770B53E
:101B30000D46040004D0FC4EF07818B12720CEE703
:101B40002520CCE701F098F9B178491CB17001F07B
:101B500097F915B12846656101E032206061206186
:101B6000B078012808D001F087F9B178491EB1702A
:101B700001F086F90020B2E7FEF75AFBFAE770B5EC
:101B80000C46060005D0012C05D0022C03D02620DF
:101B9000A5E72520A3E7E44DE87808B127209EE7D4
:101BA00001F06AF9A978491CA97001F069F9347645
:101BB000A878012808D001F05FF9A978491EA9701A
:101BC00001F05EF900208AE7FEF732FBFAE770B514
:101BD0000D46060005D025B1D34CE07818B127207A
:101BE0007DE725207BE701F047F9A178491CA1702A
:101BF00001F046F9307E2870A078012808D001F065
:101C00003BF9A178491EA17001F03AF9002066E77E
:101C1000FEF70EFBFAE72DE9F041040005D0C24DB6
:101C2000E87820B12720BDE8F0812520FBE701F00E
:101C300023F9A978491CA97001F022F994F8500001
:101C40000026012708283BD2DFE800F029171717E4
:101C500004170B0B84F850602146B448FEF766FC6D
:101C60001DE02046FEF727FB2146B048FEF75EFC4C
:101C700084F8506084F8517011E02046FEF71BFB99
:101C8000201D00F09EFF2146A848FEF74FFC84F877
:101C9000506084F851702046FEF738FC6665A878DD
:101CA00001281CD001F0E8F8A978491EA97001F0BC
:101CB000E7F8204601F0D6F9FEF788FA0020B2E7EF
:101CC000A878012808D001F0D7F8A978491EA97092
:101CD00001F0D6F81020A6E7FEF7AAFAFAE7FEF719
:101CE000A7FAE6E79048406970472DE9F0418E4D2C
:101CF00004461746E8780E4608B1272093E701F01E
:101D0000BBF8AA78A846521CAA7001F0B9F820685E
:101D100009E005680EB1001FB0471FB12068001F21
:101D2000FEF766FE2846A042F3D198F8020044462A
:101D300001280AD001F0A0F8A178491EA17001F095
:101D40009FF8FEF743FA00206DE7FEF771FAF8E717
:101D500041F20F307047744800224069417E72485A
:101D60002430FFF7D2B80123FFF793B870B55500C0
:101D7000049CA54201D93020B1E620B12BB113F06B
:101D8000030F0AD103E02520A9E62320A7E614F0DB
:101D9000030F02D112F0030F01D033209FE61E196A
:101DA00081600025194604E005F1010504D00C60AE
:101DB00021468C18B442F7D94FF000040C6005613D
:101DC0004FF01701C0E905234173204687E670B53F
:101DD0000D46040005D035B1607B172805D03620AC
:101DE0007DE625207BE6232079E601F045F80146D3
:101DF000206938B1401E2061A06928600068A06198
:101E0000002402E000201D242860084601F038F874
:101E1000204664E670B50D00044605D024B1607B11
:101E2000172803D036205AE6252058E601F024F87A
:101E3000A1692960A5612169491C216101F020F88F
:101E400000204CE610B520B11AB1642B03D231202A
:101E500010BD232010BD12F0030F02D113F0030FA9
:101E600001D0332010BD81600021C0E90621A3F11B
:101E70000801016102214161D1182D4B41F8043C58
:101E800041F8082D11602B49516016214173002043
:101E900010BD2DE9F0410F46040005D027B1607B4D
:101EA000162803D03620BEE62320BCE622F003002D
:101EB00000F104081C48456900F0DEFFE56100F010
:101EC000DFFF4146204600F0B5FE064600F0D4FF95
:101ED00016B100243E6005E0E169A942EED100217F
:101EE0001D24396000F0CCFF20469CE670B504004C
:101EF00005D021B1607B162803D03620EFE52320E2
:101F0000EDE5A1F1080500F0B7FF07494969E16176
:101F1000084969602A682169521B1144A561216141
:101F200000F0AEFF0020DAE5000000108000001095
:101F3000ABDCCDABDBECFDFE30B5DDE90345C461C8
:101F4000C0E90823002202610060C0E90525406065
:101F5000027381601A214173104630BD2DE9F047AC
:101F6000994617468846040004D0FD4EF07818B113
:101F70002720DDE42520DBE4607B1A2801D0362011
:101F8000D6E4216A0C208847050010D0C5F80090DF
:101F9000C5E90178FFF7CBFB2169A069814208D32D
:101FA000FFF7D9FB616A284688470B20C0E41D2053
:101FB000BEE4204600F0F7FDE0B10423206902E012
:101FC00003EB80068A51401E06D4E1692F6851F860
:101FD00020201668BE42F3D22169491C2161626942
:101FE000914200D96161E16903EB80000D50FFF778
:101FF000B2FB19E000F040FFB178491CB17000F06D
:102000003FFF20682946001FFEF71FFDB07801281A
:102010000CD000F031FFB178491EB17000F030FFF4
:10202000FFF799FBFEF7D2F8002081E4FEF700F9F4
:10203000F6E793E72DE9F0471E46DDF820A01746A6
:102040000D46040007D045B1DFF8148398F803006B
:1020500028B127206CE425206AE4232068E4607B13
:102060001A2801D0362063E4FFF761FB2069C8B16C
:102070006FF00302E16902EB800051F80080D8F8AC
:1020800008002860D8F804003860D8F800003060F4
:102090002069401E2061FFF75EFB616A4046884769
:1020A000002045E44FF00009BAF1000F0DD098F878
:1020B0000200022813D3C5F80090C7F80090C6F8B4
:1020C0000090FFF748FB072032E4C5F80090C7F8FE
:1020D0000090C6F80090FFF73EFB062028E400F0D1
:1020E000CBFE98F80210491C88F8021000F0C8FED8
:1020F00052462046D8F81410FEF7DBFA98F8020092
:1021000001281DD000F0B8FE98F80220521E88F871
:10211000022000F0B5FEFFF71EFBFEF757F8002186
:10212000C246D8F81400FEF788FA5FEA00080AD021
:10213000C5F80090C7F80090C6F80090404618E730
:10214000FEF776F8E7E7DAF81400406C816829605A
:102150004168396001683160616A8847EEE770B5AF
:10216000040004D07E4DE87818B12720B7E425207C
:10217000B5E4607B1A2801D03620B0E400F07CFE84
:10218000A978491CA97000F07BFE00202061A87886
:10219000012808D000F070FEA978491EA97000F04F
:1021A0006FFE00209BE4FEF743F8FAE770B50400E9
:1021B00004D06B4DE87818B1272090E425208EE4F8
:1021C000607B1A2801D0362089E400F055FEA978FA
:1021D000491CA97000F054FE0020607303E02068E1
:1021E000001FFFF741FA204600F0DDFC0028F6D082
:1021F000A87801280AD000F03FFEA978491EA970EE
:1022000000F03EFEFDF7E2FF002068E4FEF710F864
:10221000F8E72DE9F0411D4616460F46040004D0AC
:10222000607B1A2803D03620FDE42520FBE400F073
:1022300023FE21693160A16929606169396000F07C
:102240001FFE0020EFE470B5040016D000F014FE6D
:10225000434DA978491CA97000F012FE607B12283A
:1022600010D0A87801280AD000F006FEA978491EEF
:10227000A97000F005FE362031E425202FE4FDF79B
:10228000D7FFF8E700206073206938B12146FEF7D8
:1022900011F903E02068001FFFF7E6F9204600F07F
:1022A00082FC0028F6D0A87801280AD000F0E4FDCE
:1022B000A978491EA97000F0E3FDFDF787FF002013
:1022C0000DE4FDF7B5FFF8E710B5A0B1AAB1B3B1C1
:1022D0000060C0E901010021017302EB8304C0E941
:1022E00004248261C261C0E908318162C1621321A4
:1022F0004173002010BD252010BD232010BD2920D2
:1023000010BD1CB578B181B1154AD3787BB19278F4
:102310006AB100220092134601920A46014600204B
:10232000FEF7F5FD1CBD25201CBD23201CBD02B001
:102330000023BDE810400122FEF789BB1CB588B11F
:1023400091B1074AD3788BB192787AB1002200928A
:10235000134601920A4601460120FEF7D8FD1CBD36
:10236000000000102520FAE72320F8E702B0002340
:10237000BDE810400222FEF76ABB1CB568B171B11E
:10238000F94AD2786AB100220092134601920A46B5
:1023900001460120FEF7BBFDE1E72520DFE7232012
:1023A000DDE702B00023BDE810400222FEF74FBB7C
:1023B0001CB560B169B1EC4BDB7863B10023CDE9AA
:1023C00000320A4601460220FEF7A1FDC7E725209C
:1023D000C5E72320C3E702B00123BDE81040FEF7A4
:1023E00036BB70B50E46040004D0DF4DE87818B156
:1023F00027200CE425200AE400F03EFDA978491CC2
:10240000A97000F03DFD607B13280ED0A87801284C
:1024100008D000F031FDA978491EA97000F030FD08
:102420003620A9E4FDF704FFFAE7E662A878012860
:1024300008D000F021FDA978491EA97000F020FD08
:10244000002099E4FDF7F4FEFAE72DE9F041C64ECD
:1024500004461546F078884610B1B8F1000F02D155
:102460001CB125B128B1272029E4252027E4232009
:1024700025E400F001FDB178491CB17000F000FDC9
:10248000607B13280ED0B078012808D000F0F4FC4F
:10249000B178491EB17000F0F3FC36200FE4FDF76F
:1024A000C7FEFAE7606AD8B1E169081DE0616269B8
:1024B0000968904201D12069E0612960606A401E8C
:1024C0006062B078012808D000F0D6FCB178491ECF
:1024D000B17000F0D5FC002010E4FDF7A9FEFAE78A
:1024E0000027B8F1000F0CD0B078022819D32F6064
:1024F00000F0C2FCB178491EB17000F0C1FC0720A9
:1025000022E42F60B078012808D000F0B5FCB17843
:10251000491EB17000F0B4FC062015E4FDF788FEFA
:10252000FAE7424620467169FEF7C3F8B078012801
:102530000FD000F0A1FCB178491EB17000F0A0FCF2
:10254000FDF744FE2F6029467069BDE8F041FEF7B3
:1025500074B8FDF76DFEF3E770B5040004D0824D4A
:10256000E87818B1272007E4252005E400F084FC72
:10257000A978491CA97000F083FC607B13280ED059
:10258000A878012808D000F077FCA978491EA97026
:1025900000F076FC362019E4FDF74AFEFAE7D4E9AC
:1025A0000801814201D3012400E00024A878012819
:1025B00008D000F061FCA978491EA97000F060FC09
:1025C000204603E4FDF734FEFAE770B5040004D0BA
:1025D000654DE87818B1272004E4252004E400F0D4
:1025E0004BFCA978491CA97000F04AFC607B1328B9
:1025F0000ED0A878012808D000F03EFCA978491E2A
:10260000A97000F03DFC362003E4FDF711FEFAE767
:102610002069A061E06100206062A878012808D0EC
:1026200000F02AFCA978491EA97000F029FC0020BE
:1026300007E4FDF7FDFDFAE770B5040004D04A4D4C
:10264000E87818B1272059E4252057E400F014FC5D
:10265000A978491CA97000F013FC607B13280ED0E8
:10266000A878012808D000F007FCA978491EA970B5
:1026700000F006FC362041E4FDF7DAFDFAE7002021
:10268000607303E02068001FFEF7EEFF204600F0B5
:102690008AFA0028F6D0A87801280AD000F0ECFBCE
:1026A000A978491EA97000F0EBFBFDF78FFD002013
:1026B00024E4FDF7BDFDF8E770B50D46040005D034
:1026C00035B1294EF07828B1272017E4252015E4EC
:1026D000232013E400F0D0FBB178491CB17000F066
:1026E000CFFB607B13280ED0B078012808D000F013
:1026F000C3FBB178491EB17000F0C2FB362012E472
:10270000FDF796FDFAE7A06AA861606A6861206932
:10271000286060696860E069E860A069A860206A74
:1027200028612068E861B078012808D000F0A4FB97
:10273000B178491EB17000F0A3FB002016E5FDF74B
:1027400077FDFAE71CB588B10749C97800294FF031
:1027500000010DD000910191002301461A4604208A
:10276000FEF7D5FBFBE50000000000102520F6E594
:10277000BDE81C40FEF7F7B91CB560B1FE49C97849
:1027800059B1002100910B460A46019101460520EE
:10279000FEF7BDFBE3E52520E1E5BDE81C40012196
:1027A000FEF7E1B970B50E46040004D0F24DE878AA
:1027B00018B12720DAE42520D8E400F05DFBA978E1
:1027C000491CA97000F05CFB607B11280ED0A87832
:1027D000012808D000F050FBA978491EA97000F02C
:1027E0004FFB3620C2E4FDF723FDFAE76661A878C7
:1027F000012808D000F040FBA978491EA97000F01C
:102800003FFB0020B2E4FDF713FDFAE770B50400CA
:1028100004D0D94DE87818B12720A7E42520A5E4F5
:1028200000F02AFBA978491CA97000F029FB607B05
:1028300011280ED0A878012808D000F01DFBA97837
:10284000491EA97000F01CFB36208FE4FDF7F0FC58
:10285000FAE70020607303E02068001FFEF704FF22
:10286000204600F0A0F90028F6D0A87801280AD068
:1028700000F002FBA978491EA97000F001FBFDF7EA
:10288000A5FC002072E4FDF7D3FCF8E7F8B5BA4DDB
:1028900000266869C46A206838B18DF8006000F0CD
:1028A000EBFA9DF800000028FBD068690068A042A0
:1028B00007D28DF8006000F0DFFA9DF800000028D4
:1028C000FBD0F8BD10B500F0D7FAAB4B0446D87872
:1028D00078B1401E10F0FF00D8700AD1987840B946
:1028E000A648FDF767FCD3E90401884201D000F057
:1028F000E7FA2046BDE8104000F0C2BA38B59E4C59
:10290000E07840B100208DF8000000F0B5FA9DF8A5
:1029100000000028FBD000F0A8FB9948806DFEF76E
:1029200028FB6069407EFEF755FBBDE83840FEF7A6
:1029300037BB10B500F0A0FA8F4AD178642903D3D1
:1029400000F09EFA412010BD491CD17000F098FAA9
:10295000002010BD88488069704770B5864C0546D8
:10296000E07808B1272003E400F086FAA178491C3A
:10297000A17000F085FAA561A078012808D000F0C8
:102980007BFAA178491EA17000F07AFA002009E4D0
:10299000FDF74EFCFAE7806DFEF73FBD806D35E731
:1029A00038B5040004D0744DE87818B1272038BD3C
:1029B000252038BD94F82900182801D0362038BDCC
:1029C00094F82800022824D0032822D061624FF016
:1029D000FF316C48FEF772FC40B100208DF800001A
:1029E00000F04AFA9DF800000028FBD0E069E96990
:1029F0000144C4E90510604821464830A06000F059
:102A000009F9022084F828005E48FEF7B3FB002095
:102A100038BD212038BD2DE9F0410D46DDE90761C3
:102A2000069C30B13AB144B1534FFF783FB12720F3
:102A300008E4252006E4232004E4222014E5436270
:102A4000C0E9035200F11807002287E8540001246E
:102A5000426180F82840826000604060182280F85F
:102A6000292011B11946FFF79BFF0020FCE4F8B5BF
:102A700015460E46040004D03F48C07818B1272000
:102A8000F8BD2520F8BD94F82900182801D036207B
:102A9000F8BD94F82800012801D02120F8BD4FF09E
:102AA000FF313848FEF70AFC40B100208DF80000E5
:102AB00000F0E2F99DF800000028FBD0C4E90765AA
:102AC0003048FEF757FB0020F8BD38B5040004D0AD
:102AD0002948C07818B1272038BD252038BD94F882
:102AE0002900182801D0362038BD94F82800012884
:102AF0001BD0032819D04FF0FF312248FEF7DEFB30
:102B000040B100208DF8000000F0B6F99DF80000FB
:102B10000028FBD0204600F072F8012084F828003D
:102B20001848FEF727FB002038BD212038BD38B5F6
:102B3000040004D01048C07818B1272038BD2520E3
:102B400038BD94F82900182801D0362038BD94F8F3
:102B50002800032825D04FF0FF310A48FEF7AEFBCE
:102B6000002538B18DF8005000F086F99DF800007E
:102B70000028FBD008E000000000001080000010DA
:102B8000D40F0010FC07001084F82950204600F0F4
:102B900036F8032084F828005648FEF7EBFA0020A8
:102BA00038BD212038BD0168814201D10120704724
:102BB000002070474268C1E900024268116041602C
:102BC0007047D0E90012116003C84160704730B40B
:102BD00002464B7E006803E0447D9C4202D80068B8
:102BE0009042F9D130BC091DE4E700EBD10001F0BF
:102BF00007020121914002780A430270704710B524
:102C000004468068002804D02046FFF7DAFF002041
:102C1000A06010BD30B4384B04468A690068DB6997
:102C200004E04569ED1A954202D80068A042F8D147
:102C300030BCBFE72DE9F0478846054600F01CF997
:102C40002A690146424505D8084600F019F90020D6
:102C5000BDE8F087D5E905640027DFF8A090DFF82C
:102C600098A0761C6068484512D12068071B083F71
:102C7000474521D2436800274B4505D100682060B5
:102C80006869401E686104E0046826B1761E00E0B1
:102C9000246806B1761E084600F0F2F800F0ECF861
:102CA0000146EA69DAF81400824203D0D5E90564E6
:102CB000761CE861002ED5D1AFB1A7EB080014282F
:102CC00009D304EB08002268E0E902296A69474653
:102CD000521C6A6120600A4860602869C01B08387D
:102CE0000834286100E00024084600F0C9F82046B6
:102CF000AEE70000FC07001000000010DBECFDFE5A
:102D0000ABDCCDAB2DE9F843154688460446561E8C
:102D10004FF0000701D3354207D08DF8007000F066
:102D2000ABF89DF800000028FBD02760C4F80C80A9
:102D30006760022D03D20120A760BDE8F883A6607A
:102D400000202561F9E72DE9F04115460F460446BC
:102D500000F092F88046D4E90020111AA068411AC8
:102D6000491C8D4200D90D46411C10400E1AAE423E
:102D700000D32E46E16832460844394600F079F91E
:102D8000AA1BB919E06800F074F920682844206093
:102D90002069401B2061404600F072F82846BDE8DB
:102DA000F0812DE9F04104461546D4E90002801A6D
:102DB0000F46854200D90546A068411C10400E1AF6
:102DC000AE4200D32E46E16832460144384600F058
:102DD00050F9AA1BB819E16800F04BF92846DEE764
:102DE0002DE9F04114460D46064600F045F8074629
:102DF000224629463046FFF7D4FF0446384600F005
:102E00003FF82046CBE72DE9F04117460D46044632
:102E100000F032F806463A4629462046FFF7C1FF41
:102E20000546606828446060206928442061304677
:102E300000F026F82846B2E770B50D46044600F0CB
:102E40001BF80646D4E904010A1A0FD02946204689
:102E5000FFF7A7FF054660682844606020692844A2
:102E60002061304600F00CF8284670BD304600F076
:102E700007F8002070BD0000EFF3108072B67047B5
:102E800080F31088704772B6704762B670471F486B
:102E90004FF0FF010170002080F30988EFF30880F4
:102EA000C008C00080F3088819484FF080510160C5
:102EB00062B6FEE700BF16484FF0805101607047D0
:102EC00013484FF080510160704772B6EFF30980EC
:102ED00060B120ED108B203880E8F00F0D490968B3
:102EE000086000B5FFF7D2FC5DF804EB09480A4919
:102EF0000A680260106890E8F00F2030B0EC108B88
:102F000080F309884EF0040E62B6704722ED00E0AF
:102F100004ED00E0140000101000001000EB810030
:102F200020F00700AA2140F8041C0A2140F8081CE0
:102F3000152140F80C1C142140F8101C132140F8F6
:102F4000141C122140F8181C112140F81C1C1021DF
:102F500040F8201C092140F8241C082140F8281CB6
:102F6000072140F82C1C062140F8301C052140F8B0
:102F7000341C042140F8381C032140F83C1C022179
:102F800040F8401C012140F8441C002140F8481C36
:102F90004FF0807140E914316FF0010140F8541C8A
:102FA0004FF0123140F8581C4FF0033140F85C1CD0
:102FB0004FF0023140F8601C491040E91A213121DC
:102FC00040F86C1C302140F8701C292140F8741C1A
:102FD000282140F8781C272140F87C1C262140F845
:102FE000801C252140F8841C242140F8881C2321C2
:102FF00040F88C1C222140F8901C212140F8941CA0
:10300000202140F8981C192140F89C1C182140F8F8
:10301000A01C172140F8A41C162140F8A81C4FF052
:10302000113140F8AC1C4FF0103140F8B01C4FF09B
:10303000093140F8B41C4FF0083140F8B81C4FF08B
:10304000073140F8BC1C4FF0063140F8C01C4FF06F
:10305000053140F8C41D4FF0043140F8041D70479D
:10306000704770477047704770477047704730BF70
:10307000704710B50346102A1DD38C071BD1840757
:1030800019D110C9103A10C310C9102A10C351F831
:10309000084B43F8084B51F8044C43F8044CF0D269
:1030A00002E010C9121F10C3042AFAD203E011F87B
:1030B000014B03F8014B521EF9D210BD10B5034667
:1030C000042A17D3840715D141EA012444EA0444B1
:1030D00006E010C3103A10C343F8084B43F8044C01
:1030E000102AF6D201E010C3121F042AFBD201E01D
:1030F00003F8011B521EFBD210BD00000A48804796
:103100000A480047FEE7FEE7FEE7FEE7FEE7FEE7C8
:10311000FEE7FEE7FEE7FEE7FEE70000044805499C
:10312000054A064B704700004131001A1501001A8C
:10313000181B001018220010181C0010181C00107A
:10314000044810B50449016001F00AF9BDE81040D7
:1031500000F064BD08ED00E00000001A10B5034C5B
:10316000C00100EB81001A44225010BD00600840ED
:1031700010B50323F02209210220FFF7EFFF0323FC
:10318000F0220A210220FFF7E9FF0323F0220B219E
:103190000220FFF7E3FF0323F0220C210220FFF7B8
:1031A000DDFF0323F0220D210220FFF7D7FF0223CA
:1031B000F02200210120FFF7D1FF01210223F0229C
:1031C0000846FFF7CBFF0223F02219460120FFF744
:1031D000C5FF0323F02208210220FFF7BFFF0323CE
:1031E000F02207210220FFF7B9FF0223F022062177
:1031F0001846FFF7B3FF0223F02219461846FFF7DF
:10320000ADFF0223F02201211846FFF7A7FF02239A
:10321000F02200211846FFF7A1FF0123F022082128
:103220000620FFF79BFF0123F02207210620FFF76E
:1032300095FF0223F02210210D20FFF78FFF0223BC
:10324000F0220F210D20FFF789FF0323F022002138
:103250000E20FFF783FF0323F02201210E20FFF74A
:103260007DFF0323F02202210E20FFF777FF0323C7
:10327000F02219460E20FFF771FF0323F0220421EC
:103280000E20FFF76BFF0323F02204210A20FFF733
:1032900065FF0323F02207210120FFF75FFF0323CF
:1032A000F02208210120FFF759FF0323F022092112
:1032B0000120FFF753FF0323F0220A210120FFF72B
:1032C0004DFF0323F0220B210120FFF747FF0323CB
:1032D000F0220C210120FFF741FF0323F0220D21F2
:1032E0000120FFF73BFF0323F0220E210120FFF70F
:1032F00035FF0223F02204210520FFF72FFF0521CF
:103300000223F0220846FFF729FF0223F0220621BC
:103310000520FFF723FF0223F02207210520FFF7F6
:103320001DFF0223F02200210520FFF717FF0223D3
:10333000F02201210520FFF711FF0223F022194698
:103340000520FFF70BFF0223F02203210520FFF7E2
:1033500005FF0223F02219460D20FFF7FFFE02238E
:10336000F02203210D20FFF7F9FE0223F0220421B1
:103370000D20FFF7F3FE0223F02205210D20FFF7B9
:10338000EDFE0223F02206210D20FFF7E7FE0223C7
:10339000F02207210D20FFF7E1FE0223F022082191
:1033A0000D20FFF7DBFE0223F02209210D20FFF79D
:1033B000D5FE0323F02205210E20FFF7CFFE0323C5
:1033C000F02206210E20FFF7C9FE0323F022072179
:1033D0000E20FFF7C3FE0323F02208210E20FFF783
:1033E000BDFE0323F02209210E20FFF7B7FE0323C1
:1033F000F0220A210E20FFF7B1FE0323F0220B2159
:103400000E20FFF7ABFE0323F0220C210E20FFF766
:10341000A5FE0323F02206210120FFF79FFE0323D0
:10342000F02219460120FFF799FE0323F022042120
:103430000120FFF793FE06210123F0220846FFF743
:103440008DFE0323F02205210120FFF787FE0323D1
:10345000F02219460620FFF781FE0223F0220C21FC
:103460000D20FFF77BFE0323F02209210620FFF742
:1034700075FE0323F02204210620FFF76FFE0323CD
:10348000F02205210620FFF769FE494A0521116057
:103490000024101D0460031D1960191D0C601468C0
:1034A00044F0F0041460026842F0F00202601A680E
:1034B00042F0F0021A600A6842F0F0020A60026804
:1034C00022F040020260086820F0400008600323F8
:1034D000F0220B210620FFF741FE0323F0220C21EE
:1034E0000620FFF73BFE0323F0220A210620FFF708
:1034F00035FE0223F02200210D20FFF72FFE0323CB
:10350000F0220D210E20FFF729FE2A492120086014
:103510002948D0F82C1141F48031C0F82C1110BD8D
:1035200018B5264945F2555008602548012101602B
:103530000223036304224263072282630624846415
:10354000C46402654165C16305220264416481650A
:10355000816240F20331C0F804114FF48D41C0F88C
:10356000001140F28311016241F270710091491E15
:103570000091FCD140F2031101624362C91E009127
:10358000491E0091FCD131214162832101620D4924
:103590000968009100210162D0F8001141F4002176
:1035A000C0F8001108480090401E0090FCD118BDE2
:1035B000006C08407814054000300440006D08405D
:1035C0000050004000400628A086010010B5FFF71B
:1035D000B0F9FEF7C0FBA748416841B9017881F016
:1035E00001010170A448AA21816055218160BDE8D4
:1035F0001040FFF767B910B500F030FE9F48642116
:103600000068B0FBF1F0401EB0F1807F0AD24FF0AD
:10361000E02148619A4AE02082F8140D0020886178
:103620000720086110BDF8B514460D460A46064647
:103630000021FFF743FD21469248FDF767F804009B
:1036400002D0092C12D012E08E4831461830FFF714
:10365000F3FB0446A8420ADD00208DF80000FFF7C6
:103660000BFC9DF800000028FBD000E00024204661
:10367000F8BD00B589B0FFF75CF9002282486B46BF
:1036800003E001689954521CD2B24169C907F8D1CC
:103690007C4819461830FFF756FB7A48FDF769FC5D
:1036A00009B05DF804EBFFF70DB970B5724D2C68E9
:1036B000704E307880F001003070600709D5042129
:1036C000284600F0B1FD7068022802D1284600F0BB
:1036D000C7F820070AD50821284600F0A5FD706824
:1036E000012803D1AA21A9605520A86070BD6148B6
:1036F000417881F001014170644980200860D4E77D
:10370000D3E708B5FFF777FF002261A15D48FCF71A
:1037100075FD5C4980223031A1F11800FFF7F2FA03
:103720005D486A463C210068FEF709F9564C204680
:1037300000F09AFA204600F02DFD4FF4E1312046CA
:1037400000F04EFD0320E0600126E6650F20A0603A
:10375000FFF70EFDFFF7E4FE50A000F061F9454CC5
:1037600000256560444F384600F06DFD00F09AFC7E
:1037700050487860700278614F48B861386840F00E
:10378000020038600C21384600F04EFD032107206E
:1037900000F040FC0121072000F0A2FC384600F0B8
:1037A0005FF8312000F051F844A000F039F952A040
:1037B00000F036F95FA000F033F96D4800F030F901
:1037C000DFF8BC804FF002097704A8F10B0800F085
:1037D0002BFAC0B2A0F131010429F8D2322806D068
:1037E000332807D034280BD0656062A005E06660FE
:1037F0006AA002E0C4F8049072A000F011F9E6E7B4
:1038000078A000F00DF9C8F880712A2000F01DF8AA
:10381000DDE700B585B0FDF7DEFE0123AFF21D1236
:103820007C480DF1040C4FF4C8718CE80F000020A7
:10383000024600901348022377A15C38FCF7E4FFAE
:10384000FDF7FCFE05B0002000BD00F01F020121C5
:1038500091404009800000F1E020C0F8001170475D
:10386000016841F001010160AA2181605521816058
:10387000704700005800001000000840740000105D
:103880000FE000E0041A001000200C40E84F044054
:10389000755F73656D6100001400001073746172D0
:1038A0007420776174636820646F67207465737433
:1038B0000D0A0000804F120080CBA4005072657387
:1038C000732027312720746F20656E61626C65203C
:1038D0007761746368646F672066656564206F6EE6
:1038E000207379737469636B20696E746572727585
:1038F00070740A0D00000000507265737320273247
:103900002720746F20656E61626C65207761746337
:1039100068646F672066656564206F6E20776172EA
:103920006E696E6720696E746572727570740A0DC7
:103930000000000050726573732027332720746FD6
:103940002064697361626C65207761746368646F79
:10395000672066656564202877696C6C20726573E2
:10396000657420646576696365290A0D00000000AE
:103970008047001A5761746368646F6720666565E5
:1039800064206F6E207379737469636B20696E7441
:103990006572727570740D0A0000000057617463DF
:1039A00068646F672066656564206F6E207761725A
:1039B0006E696E6720696E746572727570740D0A37
:1039C000000000004E6F2066656564696E67202DFB
:1039D00020626F6172642077696C6C207265736518
:1039E000740D0A007573696E67206576656E7420C4
:1039F000726F7574657220696E7374656164206F8F
:103A0000662057445420696E746572727570740D27
:103A10000A000000681300107461736B310000002D
:103A20000FB4044910B503AA029800F009F810BCBD
:103A30005DF814FB6000001070477047704700008D
:103A4000074B70B50D467B4400F011F8044628463C
:103A500000F082FC10B14FF0FF3070BD204670BD09
:103A60006709000001694A1C02610878704700B5C7
:103A70008FB0CDE901310021059105497944CDE9A7
:103A800003101146684600F02AF80FB000BD000090
:103A9000E5FFFFFF754600F03DF8AE4605006946BC
:103AA000534620F00700854618B020B5FFF736FBD7
:103AB000BDE820404FF000064FF000074FF000082F
:103AC0004FF0000B21F00701AC46ACE8C009ACE8B0
:103AD000C009ACE8C009ACE8C0098D4670472DE9C3
:103AE000F04106460024D6E90170F568804630466C
:103AF00003E04146B847641C3046A8470028F8D187
:103B00002046BDE8F0810446AFF300802046FCF774
:103B10004AFB000000487047B41A001070B52748EF
:103B2000274AB0FBF2F1274A126822F4704242EAB7
:103B30000132254BC3F82021224A121D126822F4BB
:103B4000704242EA0132C3F8242100BF012201463B
:103B5000062000F0F5FA002411E01C4D05EB840569
:103B6000EB781A4D05EB8405AA78184D05EB840512
:103B70006978164D15F8240000F000FA641C042C36
:103B8000EBD31148406820F00C000F49486008460C
:103B9000406840F00300486005220921042000F03D
:103BA00011FA002301221021052000F0E7F902227A
:103BB0000921104600F006FA70BD000000CB280C69
:103BC0007037480120310440003004401044001A8E
:103BD00010B57C210D4800F09BFA002004460DE052
:103BE0000B4A02EB84025078094A02EB84025188A6
:103BF000084A42F8201000BF601C0446042CEFD392
:103C00000621054800F084FA10BD00003844001A6F
:103C10002846001A006C08402044001A10B5FFF72F
:103C2000D7FFFFF77BFF10BD00BF0648406900F0DB
:103C3000010020B100BF03480068C0B270474FF0D8
:103C4000FF30FBE700200C4000BF00BF0549496979
:103C500001F020010029F8D000BF0249086000BF30
:103C60007047000000200C4010B504460D48844207
:103C70000AD119220021022000F042FAD1220121AA
:103C8000022000F03DFA0CE00748844209D11A22D4
:103C90000321022000F034FAD2220421022000F095
:103CA0002FFA10BD0010084000200C4070B50446EB
:103CB000012009B140F002000AB140F00400022BDB
:103CC00001D140F02000B4F5A17F05DB044DA4F53F
:103CD000A17645F8360002E0024D45F8340070BD8B
:103CE000002105400011054010B502461C200021AE
:103CF00014E001EB41030F4C34F8133093420CDC19
:103D000001EB410304EB43035B88934205DB01EBCA
:103D1000410304EB4303187900E0491C1C2807D138
:103D200001EB4103034C04EB43031B798342E0D1D5
:103D300010BD0000CC46001A01461C2901DB1120F1
:103D40007047054850F8212002F0010008B1112009
:103D5000F6E7C2F30460F3E75C00054070B5044683
:103D60002046FFF7E9FF054600F002F870BD0000AD
:103D700070B504460025122C51D2DFE804F0090C7E
:103D80000E1620502326292C505030363C42484EE7
:103D90004FF4004544E0244D42E02448006800F020
:103DA0000700042800D0224D3AE02048006800F0C7
:103DB0000700042801D01E4D00E01E4D30E01E48D3
:103DC00005682DE01D4805682AE01D48056827E0C4
:103DD0001B48456824E000F069F8054620E0002112
:103DE000204600F02FF805461AE00121204600F099
:103DF00029F8054614E00221204600F023F8054684
:103E00000EE00321204600F01DF8054608E00421DD
:103E1000204600F017F8054602E0002500E000BF4C
:103E200000BF284670BD0000001BB7002C310440C5
:103E300040787D0180F0FA020844001A0C44001A10
:103E4000780000102DE9F04107460C46204600F0AE
:103E50001DF80646204600F009F805463046FFF7F3
:103E600087FF691CB0FBF1F0BDE8F0810146044812
:103E700050F8210003A2525C02EA90007047000053
:103E800048000540030F0F0FFF0000000146064BDE
:103E900003EB8100826C02F0010008B11120704731
:103EA000C2F30460FBE70000000005402DE9FE4F6F
:103EB0001A48446CC4F30360FFF75AFF074618A082
:103EC000006800901548006C00F0010010B9002057
:103ED000BDE8FE8FC4F30748C4F30139C4F3012AD7
:103EE000C4F3C01BC4F38010029008F1010509F16E
:103EF00001061DF80A000190BBF1000F01D10298E4
:103F000018B1B7FBF6F06843E2E701984000B5FB53
:103F1000F0F0B7FBF6F14843DAE700000000054097
:103F2000010204082DE9F0410446B4F5A17F05DB48
:103F30001048A4F5A17150F8315002E00E4850F835
:103F4000345005F0010080B12046FFF7CDFE8046D9
:103F50004046FFF703FF0646C5F3421008B90127A4
:103F600000E00227B6FBF7F600E000263046BDE889
:103F7000F0810000002105400011054070B50446A5
:103F80000E4E06EB8405E86D1C2C10DA112914D0B6
:103F90000B4D28400AB140F400600BB140F0010025
:103FA00040EA0160054D5C3545F8240005E040F02D
:103FB0000106024D5C3545F8246070BD00000540E7
:103FC000FEF7FFE030B50F4D05EB8004A36C521EE9
:103FD000112910D00CA4245C0D4D45EA8404A343A0
:103FE00043F4006444EA016444EA8205054C483421
:103FF00044F8205005E043F00105024C483444F8F1
:10400000205030BD00000540030F0F0FFF000000DF
:104010000100001F31B1012913D0022920D003294A
:104020003AD12BE01E4A1268012383409A431C4B6D
:104030001A601A465368012282409343184A53601B
:104040002BE0174A1268012383401A43144B1A606D
:104050001A465368012282409343114A53601CE080
:104060000F4A13680122824093430D4A136053683C
:104070000122824013430A4A53600EE0084A136843
:10408000012282401343064A136052680123834091
:104090001A43034B5A6000E000BF00BF70470000A6
:1040A00000400440002000210A4A116051604FF690
:1040B000FF71094A116000BF411CC8B20749064A96
:1040C0001032116004490831096809B10A28F3DB8C
:1040D0007047000000400440D84F0440FFFF0F002D
:1040E000012904D101228240044B1A6004E001221C
:1040F0008240024B1B1F1A6070470000DC4F0440D7
:10410000024B03EBC01343F82120704700600840C6
:1041100070B5024600200EE012F8203002EB800657
:10412000747802EB80067588044E06EBC31646F8D9
:10413000245000BF401C8842EED370BD0060084090
:1041400070B504460D46164600F0A8F870BDC1686B
:1041500021F08001C1607047C16841F08001C160F9
:10416000704700000146084A914201D1A2200AE0AE
:10417000064A914201D1A12005E0054A914201D1B0
:10418000822000E08120704700200C4000100C408D
:104190000020084070B504462046FFF7E3FF0646BE
:1041A00001231A461946FFF781FD0720A06000BFD2
:1041B00000BF0020E06500BF6060E0602062E06456
:1041C000606520650548844202D100202061A56910
:1041D0000320E06000BF1020A06270BD00200840F6
:1041E0002DE9F04780460E464046FFF7BBFF82466A
:1041F000FFF798FE07463001B7FBF0F4250AA4EB61
:1042000005294046FFF7A8FFEAB209F0FF01404642
:1042100000F007F84046FFF79AFFB7FBF4F0BDE85F
:10422000F08701604260704701F004021AB1026831
:1042300002F01B02026001F008021AB1026842F0AB
:1042400008020260704700210160FF2141604FF6C3
:10425000FF7141616FF07F418161704710B5692046
:10426000FFF760FE0149086010BD000074000010F7
:1042700000BF30BFFDE708B50020009008E00098BF
:10428000401C00900098401E00900098401C009038
:104290000098B0F5806FF2D308BD000070B52948D2
:1042A000806920F00400274988610846806920F071
:1042B00001008861FFF7DFFF2248406C20F070604A
:1042C000204948640846406C40F0C0604864084695
:1042D000406C40F4006048640846406C1A4908404D
:1042E000184948640846406C184908431549486411
:1042F0000846406C20F00100486400BF1148006C83
:1043000000F001000028F9D0FFF7B5FF10480D4973
:10431000C866FFF7B0FF002411E00E4D05EB8405E1
:10432000EB780C4D05EB8405AA780A4D05EB840566
:104330006978084D15F82400FFF720FE641C122C44
:10434000EBD370BD000005403DCC00FFC001100064
:10435000000800093847001A01464FF0FF30704747
:104360003EB50F480F4B191D00221C6801940C68C4
:1043700000940D4D019CAC4205D10C4D009CAC420B
:1043800001D1012400E0002422463AB104680294DD
:10439000029C44F470040294029C04603EBD000040
:1043A00088ED00E040EF00E0210011101100001145
:1043B00010B502460C46D3B21846FFF745FC00BFC5
:1043C000002010BD4FF04070E1EE100A7047000071
:1043D000060606060604040418191A1B1C0C0D0E0A
:1043E000E50E0000DD0E000068010000ED00000099
:1043F00008040400F000040304004001000101016E
:10440000010602000000000000000000001BB700D1
:1044100008030100070301000B0E0100030F010157
:104420000303F3000304F3000305F3000306F300A2
:104430000307F3000308F3000113F0000001B600C6
:104440000112B3000114B3000111F3000C01B30019
:104450000110F700010FF3000000F2000107F30064
:104460000108F3000109F300010AF300010BF30056
:10447000010CF300010DF300010EF3000504F2003E
:104480000505F2000506F2000507F2000500F2003E
:104490000501F2000502F2000503F2000D02F20030
:1044A0000D03F2000D04F2000D05F2000D06F200FE
:1044B0000D07F2000D08F2000D09F2000E05F300E1
:1044C0000E06F3000E07F3000E08F3000E09F300CA
:1044D0000E0AF3000E0BF3000E0CF3000209F300BA
:1044E000020AF300020BF300020CF300020DF300CA
:1044F0000100F2000101F2000102F2000208F300E3
:104500000207F3000206F2000202F2000201F200CA
:104510000200F2000608F1000607F1000D10F2009B
:104520000D0FF2000E00F3000E01F3000E02F30077
:104530000E03F3000E04F3000A04F3000104F30079
:104540000606F1000D0DF2000D0AF2000609F30057
:104550000106F3000604F3000605F300060BF30062
:10456000060CF300060AF3000D00F2000E0DF30036
:104570000103F3000104F3000606F1000105F30056
:104580000106F3000D0A54000D0B54000D0C5400ED
:104590000D0D54000D0E540009005000090150008B
:1045A000090250000F00F0000F01F4000F02F200AA
:1045B0000F03F200040105000402020004050200DA
:1045C000040602000407000004090200040A0200B5
:1045D00007000000070603000803030008040300A7
:1045E0000805030008060300080703000B0002008B
:1045F0000B0102000B0202000B0302000B0402007D
:104600000B0502000B0602000300F2000600F40096
:104610000702F2000602F3000701F2000601F300B0
:1046200003021200030152000000F0000001F0003C
:104630000002F0000003F00000093D00010000004E
:1046400000120000002A00000046000000FFFFFFEB
:1046500000FBFFFF000C0000003C0000003C0000DD
:1046600000460000000C000000FEFFFF00000028D4
:1046700003000000320000000055000000000000B0
:10468000000000000000000000000000000000002A
:10469000000000000000000000000000000000001A
:1046A000000000000000000000000000000000000A
:1046B000820000000000000000410000005A0000DD
:1046C000005A00000023000000FCFFFF000005006E
:1046D0000A0020002400090040004000050060009E
:1046E000A6000400C000C3000200E000E0000100DA
:1046F00000010001030020012001060040014001EB
:104700000C004201420119006201620113008201A2
:1047100082011200A201A2011100C201C201100017
:10472000E201E2010F00020202020E002202220256
:104730000D00230223021C000001010009090100F1
:104740000A0901000107010102090100060901002F
:104750000C0901010D0901000E0901000F090100FA
:1047600010090100110901001209010013090100DB
:1047700014110100191101001A1101001B1101008F
:1047800050726573732027342720746F2073776904
:104790007463682066726F6D2057445420696E748C
:1047A00065727275707420746F206576656E742002
:1047B000726F757465722068616E646C65720A0D43
:1047C00000000000E447001A000000108000000014
:1047D0005001001A6448001A80000010982100005F
:1047E0006C01001A00000000000000000000000042
:1047F00000000000000000000000000000000000B9
:1048000000000000000000000000000000000000A8
:104810000000000000000000000000000000000098
:104820000000000000000000000000000000000088
:104830000000000000000000000000000000000078
:104840000000000000000000000000000000000068
:104850000000000000000000000000000000000058
:044860000000000054
:040000051A000115C7
:00000001FF
