Component: ARM Compiler 5.06 (build 20) Tool: armlink [4d35a3]

==============================================================================

Section Cross References

    raw-os.o(.text) refers to cpu.o(.text) for OS_CPU_SR_Save
    raw-os.o(.text) refers to port_error_process.o(.text) for port_system_error_process
    raw-os.o(.text) refers to raw-os.o(.data) for .data
    raw-os.o(.text) refers to raw-os.o(.bss) for .bss
    raw-os.o(.text) refers to user_extension.o(.text) for raw_memset
    raw-os.o(.text) refers to port.o(.text) for port_stack_init
    raw-os.o(.text) refers to port_hook.o(.text) for task_create_hook
    raw-os.o(.text) refers to port_extension.o(.text) for user_sys_time_get
    raw-os.o(.text) refers to lludivv7m.o(.text) for __aeabi_uldivmod
    fifo.o(.text) refers to cpu.o(.text) for OS_CPU_SR_Save
    fifo.o(.text) refers to user_extension.o(.text) for raw_memcpy
    rsh.o(.text) refers to cpu.o(.text) for OS_CPU_SR_Save
    rsh.o(.text) refers to string.o(.text) for raw_strncmp
    rsh.o(.text) refers to user_extension.o(.text) for raw_memset
    rsh.o(.text) refers to rsh.o(.data) for .data
    rsh.o(.text) refers to rsh.o(.conststring) for .conststring
    rsh.o(.constdata) refers to rsh.o(.conststring) for .conststring
    rsh.o(.constdata) refers to rsh.o(.text) for rsh_help_command
==============================================================================

Removing Unused input sections from the image.

    Removing rsh.o(.text), (472 bytes).
    Removing rsh.o(.constdata), (16 bytes).
    Removing rsh.o(.conststring), (50 bytes).
    Removing rsh.o(.conststring), (173 bytes).
    Removing rsh.o(.data), (20 bytes).
    Removing string.o(.text), (592 bytes).
    Removing sysinit.o(.rev16_text), (4 bytes).
    Removing sysinit.o(.revsh_text), (4 bytes).
    Removing lpc43xx_scu.o(.rev16_text), (4 bytes).
    Removing lpc43xx_scu.o(.revsh_text), (4 bytes).
    Removing lpc43xx_sdram.o(.rev16_text), (4 bytes).
    Removing lpc43xx_sdram.o(.revsh_text), (4 bytes).
    Removing main.o(.rev16_text), (4 bytes).
    Removing main.o(.revsh_text), (4 bytes).
    Removing main.o(.data), (4 bytes).
    Removing audiotask.o(.rev16_text), (4 bytes).
    Removing audiotask.o(.revsh_text), (4 bytes).
    Removing audiotask.o(.data), (2 bytes).
==============================================================================

Image Symbol Table

    Local Symbols

    Symbol Name                              Value     Ov Type        Size  Object(Section)

    ../clib/angel/boardlib.s                 0x00000000   Number         0  boardinit3.o ABSOLUTE
    ../clib/angel/boardlib.s                 0x00000000   Number         0  boardinit1.o ABSOLUTE
    ../clib/angel/boardlib.s                 0x00000000   Number         0  boardinit2.o ABSOLUTE
    ../clib/angel/boardlib.s                 0x00000000   Number         0  boardshut.o ABSOLUTE
    ../clib/angel/handlers.s                 0x00000000   Number         0  __scatter_zi.o ABSOLUTE
    ../clib/angel/handlers.s                 0x00000000   Number         0  __scatter_copy.o ABSOLUTE
    ../clib/angel/kernel.s                   0x00000000   Number         0  __rtentry.o ABSOLUTE
    ../clib/angel/kernel.s                   0x00000000   Number         0  rtexit.o ABSOLUTE
    ../clib/angel/kernel.s                   0x00000000   Number         0  rtexit2.o ABSOLUTE
    ../clib/angel/kernel.s                   0x00000000   Number         0  __rtentry4.o ABSOLUTE
    ../clib/angel/kernel.s                   0x00000000   Number         0  __rtentry2.o ABSOLUTE
    ../clib/angel/rt.s                       0x00000000   Number         0  aeabi_ldiv0.o ABSOLUTE
    ../clib/angel/rt.s                       0x00000000   Number         0  aeabi_ldiv0_sigfpe.o ABSOLUTE
    ../clib/angel/rt.s                       0x00000000   Number         0  rt_raise.o ABSOLUTE
    ../clib/angel/rt.s                       0x00000000   Number         0  rt_div0.o ABSOLUTE
    ../clib/angel/scatter.s                  0x00000000   Number         0  __scatter.o ABSOLUTE
    ../clib/angel/startup.s                  0x00000000   Number         0  __main.o ABSOLUTE
    ../clib/angel/sys.s                      0x00000000   Number         0  use_no_semi.o ABSOLUTE
    ../clib/angel/sys.s                      0x00000000   Number         0  indicate_semi.o ABSOLUTE
    ../clib/angel/sys.s                      0x00000000   Number         0  libspace.o ABSOLUTE
    ../clib/angel/sys.s                      0x00000000   Number         0  sys_stackheap_outer.o ABSOLUTE
    ../clib/angel/sysapp.c                   0x00000000   Number         0  sys_wrch.o ABSOLUTE
    ../clib/angel/sysapp.c                   0x00000000   Number         0  sys_command.o ABSOLUTE
    ../clib/armsys.c                         0x00000000   Number         0  argv_veneer.o ABSOLUTE
    ../clib/armsys.c                         0x00000000   Number         0  argv_veneer.o ABSOLUTE
    ../clib/armsys.c                         0x00000000   Number         0  _get_argv_nomalloc.o ABSOLUTE
    ../clib/armsys.c                         0x00000000   Number         0  no_argv.o ABSOLUTE
    ../clib/heapalloc.c                      0x00000000   Number         0  hrguard.o ABSOLUTE
    ../clib/heapaux.c                        0x00000000   Number         0  heapauxi.o ABSOLUTE
    ../clib/libinit.s                        0x00000000   Number         0  libinit.o ABSOLUTE
    ../clib/libinit.s                        0x00000000   Number         0  libshutdown2.o ABSOLUTE
    ../clib/libinit.s                        0x00000000   Number         0  libshutdown.o ABSOLUTE
    ../clib/libinit.s                        0x00000000   Number         0  libinit2.o ABSOLUTE
    ../clib/longlong.s                       0x00000000   Number         0  lludivv7m.o ABSOLUTE
    ../clib/memcpset.s                       0x00000000   Number         0  rt_memclr_w.o ABSOLUTE
    ../clib/memcpset.s                       0x00000000   Number         0  rt_memcpy_w.o ABSOLUTE
    ../clib/memcpset.s                       0x00000000   Number         0  rt_memcpy_v6.o ABSOLUTE
    ../clib/printf.c                         0x00000000   Number         0  __printf.o ABSOLUTE
    ../clib/printf.c                         0x00000000   Number         0  _printf_dec.o ABSOLUTE
    ../clib/printf.c                         0x00000000   Number         0  __printf_flags.o ABSOLUTE
    ../clib/printf.c                         0x00000000   Number         0  __printf_ss.o ABSOLUTE
    ../clib/printf.c                         0x00000000   Number         0  __printf_flags_ss.o ABSOLUTE
    ../clib/printf.c                         0x00000000   Number         0  __printf_wp.o ABSOLUTE
    ../clib/printf.c                         0x00000000   Number         0  __printf_flags_wp.o ABSOLUTE
    ../clib/printf.c                         0x00000000   Number         0  __printf_flags_ss_wp.o ABSOLUTE
    ../clib/printf.c                         0x00000000   Number         0  __printf_ss_wp.o ABSOLUTE
    ../clib/printf.c                         0x00000000   Number         0  _printf_char_file.o ABSOLUTE
    ../clib/printf.c                         0x00000000   Number         0  _printf_char_common.o ABSOLUTE
    ../clib/printf.c                         0x00000000   Number         0  __printf_nopercent.o ABSOLUTE
    ../clib/printf.c                         0x00000000   Number         0  _printf_intcommon.o ABSOLUTE
    ../clib/printf.c                         0x00000000   Number         0  noretval__2printf.o ABSOLUTE
    ../clib/printf.c                         0x00000000   Number         0  __2printf.o ABSOLUTE
    ../clib/printf_percent.s                 0x00000000   Number         0  _printf_percent_end.o ABSOLUTE
    ../clib/printf_percent.s                 0x00000000   Number         0  _printf_percent.o ABSOLUTE
    ../clib/printf_percent.s                 0x00000000   Number         0  _printf_d.o ABSOLUTE
    ../clib/signal.c                         0x00000000   Number         0  defsig_fpe_outer.o ABSOLUTE
    ../clib/signal.c                         0x00000000   Number         0  defsig_rtred_inner.o ABSOLUTE
    ../clib/signal.c                         0x00000000   Number         0  defsig_rtmem_inner.o ABSOLUTE
    ../clib/signal.c                         0x00000000   Number         0  defsig_rtmem_outer.o ABSOLUTE
    ../clib/signal.c                         0x00000000   Number         0  defsig_abrt_inner.o ABSOLUTE
    ../clib/signal.c                         0x00000000   Number         0  defsig_fpe_inner.o ABSOLUTE
    ../clib/signal.c                         0x00000000   Number         0  defsig_rtmem_formal.o ABSOLUTE
    ../clib/signal.c                         0x00000000   Number         0  defsig_exit.o ABSOLUTE
    ../clib/signal.c                         0x00000000   Number         0  defsig_other.o ABSOLUTE
    ../clib/signal.c                         0x00000000   Number         0  __raise.o ABSOLUTE
    ../clib/signal.c                         0x00000000   Number         0  defsig_stak_inner.o ABSOLUTE
    ../clib/signal.c                         0x00000000   Number         0  defsig_general.o ABSOLUTE
    ../clib/signal.c                         0x00000000   Number         0  defsig_segv_inner.o ABSOLUTE
    ../clib/signal.c                         0x00000000   Number         0  defsig_pvfn_inner.o ABSOLUTE
    ../clib/signal.c                         0x00000000   Number         0  defsig_cppl_inner.o ABSOLUTE
    ../clib/signal.c                         0x00000000   Number         0  defsig_fpe_formal.o ABSOLUTE
    ../clib/signal.s                         0x00000000   Number         0  defsig.o ABSOLUTE
    ../clib/stdlib.c                         0x00000000   Number         0  exit.o ABSOLUTE
    ../fplib/fpinit.s                        0x00000000   Number         0  fpinit.o ABSOLUTE
    ..\..\..\..\software\common\lpc43xx_scu.c 0x00000000   Number         0  lpc43xx_scu.o ABSOLUTE
    ..\..\..\..\software\common\lpc43xx_sdram.c 0x00000000   Number         0  lpc43xx_sdram.o ABSOLUTE
    ..\..\..\..\software\kernel\port\cpu.asm 0x00000000   Number         0  cpu.o ABSOLUTE
    ..\..\..\..\software\kernel\port\port.c  0x00000000   Number         0  port.o ABSOLUTE
    ..\..\..\..\software\kernel\port\port_error_process.c 0x00000000   Number         0  port_error_process.o ABSOLUTE
    ..\..\..\..\software\kernel\port\port_extension.c 0x00000000   Number         0  port_extension.o ABSOLUTE
    ..\..\..\..\software\kernel\port\port_hook.c 0x00000000   Number         0  port_hook.o ABSOLUTE
    ..\..\..\..\software\kernel\port\raw_trace_port.c 0x00000000   Number         0  raw_trace_port.o ABSOLUTE
    ..\..\..\..\software\kernel\port\user_extension.c 0x00000000   Number         0  user_extension.o ABSOLUTE
    ..\..\..\..\software\kernel\raw-os\extension\lib\fifo.c 0x00000000   Number         0  fifo.o ABSOLUTE
    ..\..\..\..\software\kernel\raw-os\extension\lib\string.c 0x00000000   Number         0  string.o ABSOLUTE
    ..\..\..\..\software\kernel\raw-os\extension\shell\rsh.c 0x00000000   Number         0  rsh.o ABSOLUTE
    ..\..\..\..\software\kernel\raw-os\raw-os.c 0x00000000   Number         0  raw-os.o ABSOLUTE
    ..\..\board_common\uda1380.c             0x00000000   Number         0  uda1380.o ABSOLUTE
    ..\..\examples\ad_da\AudioData.c         0x00000000   Number         0  audiodata.o ABSOLUTE
    ..\..\examples\ad_da\AudioTask.c         0x00000000   Number         0  audiotask.o ABSOLUTE
    ..\..\examples\ad_da\main.c              0x00000000   Number         0  main.o ABSOLUTE
    ..\..\examples\ad_da\speak.c             0x00000000   Number         0  speak.o ABSOLUTE
    ..\..\startup_code\keil_startup_lpc18xx43xx.s 0x00000000   Number         0  keil_startup_lpc18xx43xx.o ABSOLUTE
    ..\..\startup_code\sysinit.c             0x00000000   Number         0  sysinit.o ABSOLUTE
    ..\\..\\..\\..\\software\\common\\lpc43xx_scu.c 0x00000000   Number         0  lpc43xx_scu.o ABSOLUTE
    ..\\..\\..\\..\\software\\common\\lpc43xx_sdram.c 0x00000000   Number         0  lpc43xx_sdram.o ABSOLUTE
    ..\\..\\board_common\\uda1380.c          0x00000000   Number         0  uda1380.o ABSOLUTE
    ..\\..\\examples\\ad_da\\AudioTask.c     0x00000000   Number         0  audiotask.o ABSOLUTE
    ..\\..\\examples\\ad_da\\main.c          0x00000000   Number         0  main.o ABSOLUTE
    ..\\..\\examples\\ad_da\\speak.c         0x00000000   Number         0  speak.o ABSOLUTE
    ..\\..\\startup_code\\sysinit.c          0x00000000   Number         0  sysinit.o ABSOLUTE
    ..\\chip_common\\fpu_init.c              0x00000000   Number         0  fpu_init.o ABSOLUTE
    ..\chip_common\fpu_init.c                0x00000000   Number         0  fpu_init.o ABSOLUTE
    ..\chip_common\ring_buffer.c             0x00000000   Number         0  ring_buffer.o ABSOLUTE
    board.c                                  0x00000000   Number         0  board.o ABSOLUTE
    board.c                                  0x00000000   Number         0  board.o ABSOLUTE
    board_sysinit.c                          0x00000000   Number         0  board_sysinit.o ABSOLUTE
    board_sysinit.c                          0x00000000   Number         0  board_sysinit.o ABSOLUTE
    chip_18xx_43xx.c                         0x00000000   Number         0  chip_18xx_43xx.o ABSOLUTE
    chip_18xx_43xx.c                         0x00000000   Number         0  chip_18xx_43xx.o ABSOLUTE
    clock_18xx_43xx.c                        0x00000000   Number         0  clock_18xx_43xx.o ABSOLUTE
    clock_18xx_43xx.c                        0x00000000   Number         0  clock_18xx_43xx.o ABSOLUTE
    dc.s                                     0x00000000   Number         0  dc.o ABSOLUTE
    emc_18xx_43xx.c                          0x00000000   Number         0  emc_18xx_43xx.o ABSOLUTE
    emc_18xx_43xx.c                          0x00000000   Number         0  emc_18xx_43xx.o ABSOLUTE
    gpio_18xx_43xx.c                         0x00000000   Number         0  gpio_18xx_43xx.o ABSOLUTE
    gpio_18xx_43xx.c                         0x00000000   Number         0  gpio_18xx_43xx.o ABSOLUTE
    i2c_18xx_43xx.c                          0x00000000   Number         0  i2c_18xx_43xx.o ABSOLUTE
    i2c_18xx_43xx.c                          0x00000000   Number         0  i2c_18xx_43xx.o ABSOLUTE
    i2s_18xx_43xx.c                          0x00000000   Number         0  i2s_18xx_43xx.o ABSOLUTE
    i2s_18xx_43xx.c                          0x00000000   Number         0  i2s_18xx_43xx.o ABSOLUTE
    rgu_18xx_43xx.c                          0x00000000   Number         0  rgu_18xx_43xx.o ABSOLUTE
    rgu_18xx_43xx.c                          0x00000000   Number         0  rgu_18xx_43xx.o ABSOLUTE
    ssp_18xx_43xx.c                          0x00000000   Number         0  ssp_18xx_43xx.o ABSOLUTE
    ssp_18xx_43xx.c                          0x00000000   Number         0  ssp_18xx_43xx.o ABSOLUTE
    sysinit_18xx_43xx.c                      0x00000000   Number         0  sysinit_18xx_43xx.o ABSOLUTE
    sysinit_18xx_43xx.c                      0x00000000   Number         0  sysinit_18xx_43xx.o ABSOLUTE
    uart_18xx_43xx.c                         0x00000000   Number         0  uart_18xx_43xx.o ABSOLUTE
    uart_18xx_43xx.c                         0x00000000   Number         0  uart_18xx_43xx.o ABSOLUTE
    .data                                    0x10000000   Section       56  raw-os.o(.data)
    .data                                    0x10000038   Section       24  audiotask.o(.data)
    counter                                  0x10000048   Data           4  audiotask.o(.data)
    .data                                    0x10000050   Section       16  speak.o(.data)
    .data                                    0x10000060   Section       20  board.o(.data)
    .data                                    0x10000074   Section        4  chip_18xx_43xx.o(.data)
    .data                                    0x10000078   Section        8  clock_18xx_43xx.o(.data)
    audio_usb_pll_freq                       0x10000078   Data           8  clock_18xx_43xx.o(.data)
    .data                                    0x10000080   Section       56  i2c_18xx_43xx.o(.data)
    i2c                                      0x10000080   Data          56  i2c_18xx_43xx.o(.data)
    .bss                                     0x100000b8   Section     3548  raw-os.o(.bss)
    .bss                                     0x10000e98   Section     1932  main.o(.bss)
    fifo_buffer                              0x100015a4   Data         128  main.o(.bss)
    .bss                                     0x10001624   Section      160  audiotask.o(.bss)
    .bss                                     0x100016c4   Section      514  speak.o(.bss)
    .bss                                     0x100018c8   Section       96  libspace.o(.bss)
    HEAP                                     0x10001928   Section      256  keil_startup_lpc18xx43xx.o(HEAP)
    Heap_Mem                                 0x10001928   Data         256  keil_startup_lpc18xx43xx.o(HEAP)
    STACK                                    0x10001a28   Section     1536  keil_startup_lpc18xx43xx.o(STACK)
    __initial_sp                             0x10002028   Data           0  keil_startup_lpc18xx43xx.o(STACK)
    RESET                                    0x1a000000   Section      276  keil_startup_lpc18xx43xx.o(RESET)
    !!!main                                  0x1a000114   Section        8  __main.o(!!!main)
    !!!scatter                               0x1a00011c   Section       52  __scatter.o(!!!scatter)
    !!handler_copy                           0x1a000150   Section       26  __scatter_copy.o(!!handler_copy)
    !!handler_zi                             0x1a00016c   Section       28  __scatter_zi.o(!!handler_zi)
    .ARM.Collect$$_printf_percent$$00000000  0x1a000188   Section        0  _printf_percent.o(.ARM.Collect$$_printf_percent$$00000000)
    .ARM.Collect$$_printf_percent$$00000009  0x1a000188   Section        6  _printf_d.o(.ARM.Collect$$_printf_percent$$00000009)
    .ARM.Collect$$_printf_percent$$00000017  0x1a00018e   Section        4  _printf_percent_end.o(.ARM.Collect$$_printf_percent$$00000017)
    .ARM.Collect$$libinit$$00000000          0x1a000192   Section        2  libinit.o(.ARM.Collect$$libinit$$00000000)
    .ARM.Collect$$libinit$$00000001          0x1a000194   Section        4  libinit2.o(.ARM.Collect$$libinit$$00000001)
    .ARM.Collect$$libinit$$00000004          0x1a000198   Section        0  libinit2.o(.ARM.Collect$$libinit$$00000004)
    .ARM.Collect$$libinit$$0000000A          0x1a000198   Section        0  libinit2.o(.ARM.Collect$$libinit$$0000000A)
    .ARM.Collect$$libinit$$0000000C          0x1a000198   Section        0  libinit2.o(.ARM.Collect$$libinit$$0000000C)
    .ARM.Collect$$libinit$$0000000E          0x1a000198   Section        0  libinit2.o(.ARM.Collect$$libinit$$0000000E)
    .ARM.Collect$$libinit$$00000011          0x1a000198   Section        0  libinit2.o(.ARM.Collect$$libinit$$00000011)
    .ARM.Collect$$libinit$$00000013          0x1a000198   Section        0  libinit2.o(.ARM.Collect$$libinit$$00000013)
    .ARM.Collect$$libinit$$00000015          0x1a000198   Section        0  libinit2.o(.ARM.Collect$$libinit$$00000015)
    .ARM.Collect$$libinit$$00000017          0x1a000198   Section        0  libinit2.o(.ARM.Collect$$libinit$$00000017)
    .ARM.Collect$$libinit$$00000019          0x1a000198   Section        0  libinit2.o(.ARM.Collect$$libinit$$00000019)
    .ARM.Collect$$libinit$$0000001B          0x1a000198   Section        0  libinit2.o(.ARM.Collect$$libinit$$0000001B)
    .ARM.Collect$$libinit$$0000001D          0x1a000198   Section        0  libinit2.o(.ARM.Collect$$libinit$$0000001D)
    .ARM.Collect$$libinit$$0000001F          0x1a000198   Section        0  libinit2.o(.ARM.Collect$$libinit$$0000001F)
    .ARM.Collect$$libinit$$00000021          0x1a000198   Section        0  libinit2.o(.ARM.Collect$$libinit$$00000021)
    .ARM.Collect$$libinit$$00000023          0x1a000198   Section        0  libinit2.o(.ARM.Collect$$libinit$$00000023)
    .ARM.Collect$$libinit$$00000025          0x1a000198   Section        0  libinit2.o(.ARM.Collect$$libinit$$00000025)
    .ARM.Collect$$libinit$$0000002C          0x1a000198   Section        0  libinit2.o(.ARM.Collect$$libinit$$0000002C)
    .ARM.Collect$$libinit$$0000002E          0x1a000198   Section        0  libinit2.o(.ARM.Collect$$libinit$$0000002E)
    .ARM.Collect$$libinit$$00000030          0x1a000198   Section        0  libinit2.o(.ARM.Collect$$libinit$$00000030)
    .ARM.Collect$$libinit$$00000032          0x1a000198   Section        0  libinit2.o(.ARM.Collect$$libinit$$00000032)
    .ARM.Collect$$libinit$$00000033          0x1a000198   Section        2  libinit2.o(.ARM.Collect$$libinit$$00000033)
    .ARM.Collect$$libshutdown$$00000000      0x1a00019a   Section        2  libshutdown.o(.ARM.Collect$$libshutdown$$00000000)
    .ARM.Collect$$libshutdown$$00000002      0x1a00019c   Section        0  libshutdown2.o(.ARM.Collect$$libshutdown$$00000002)
    .ARM.Collect$$libshutdown$$00000004      0x1a00019c   Section        0  libshutdown2.o(.ARM.Collect$$libshutdown$$00000004)
    .ARM.Collect$$libshutdown$$00000007      0x1a00019c   Section        0  libshutdown2.o(.ARM.Collect$$libshutdown$$00000007)
    .ARM.Collect$$libshutdown$$0000000A      0x1a00019c   Section        0  libshutdown2.o(.ARM.Collect$$libshutdown$$0000000A)
    .ARM.Collect$$libshutdown$$0000000C      0x1a00019c   Section        0  libshutdown2.o(.ARM.Collect$$libshutdown$$0000000C)
    .ARM.Collect$$libshutdown$$0000000F      0x1a00019c   Section        0  libshutdown2.o(.ARM.Collect$$libshutdown$$0000000F)
    .ARM.Collect$$libshutdown$$00000010      0x1a00019c   Section        2  libshutdown2.o(.ARM.Collect$$libshutdown$$00000010)
    .ARM.Collect$$rtentry$$00000000          0x1a00019e   Section        0  __rtentry.o(.ARM.Collect$$rtentry$$00000000)
    .ARM.Collect$$rtentry$$00000002          0x1a00019e   Section        0  __rtentry2.o(.ARM.Collect$$rtentry$$00000002)
    .ARM.Collect$$rtentry$$00000004          0x1a00019e   Section        6  __rtentry4.o(.ARM.Collect$$rtentry$$00000004)
    .ARM.Collect$$rtentry$$00000009          0x1a0001a4   Section        0  __rtentry2.o(.ARM.Collect$$rtentry$$00000009)
    .ARM.Collect$$rtentry$$0000000A          0x1a0001a4   Section        4  __rtentry2.o(.ARM.Collect$$rtentry$$0000000A)
    .ARM.Collect$$rtentry$$0000000C          0x1a0001a8   Section        0  __rtentry2.o(.ARM.Collect$$rtentry$$0000000C)
    .ARM.Collect$$rtentry$$0000000D          0x1a0001a8   Section        8  __rtentry2.o(.ARM.Collect$$rtentry$$0000000D)
    .ARM.Collect$$rtexit$$00000000           0x1a0001b0   Section        2  rtexit.o(.ARM.Collect$$rtexit$$00000000)
    .ARM.Collect$$rtexit$$00000002           0x1a0001b2   Section        0  rtexit2.o(.ARM.Collect$$rtexit$$00000002)
    .ARM.Collect$$rtexit$$00000003           0x1a0001b2   Section        4  rtexit2.o(.ARM.Collect$$rtexit$$00000003)
    .ARM.Collect$$rtexit$$00000004           0x1a0001b6   Section        6  rtexit2.o(.ARM.Collect$$rtexit$$00000004)
    .text                                    0x1a0001bc   Section        0  raw-os.o(.text)
    tick_task_process                        0x1a000721   Thumb Code    28  raw-os.o(.text)
    pend_task_wake_up                        0x1a0008c1   Thumb Code    96  raw-os.o(.text)
    is_list_empty                            0x1a0029a9   Thumb Code    14  raw-os.o(.text)
    list_insert                              0x1a0029b7   Thumb Code    14  raw-os.o(.text)
    list_delete                              0x1a0029c5   Thumb Code    12  raw-os.o(.text)
    add_to_priority_list                     0x1a0029d1   Thumb Code    30  raw-os.o(.text)
    bit_set                                  0x1a0029ef   Thumb Code    20  raw-os.o(.text)
    release_mutex                            0x1a002a03   Thumb Code    30  raw-os.o(.text)
    timer_list_remove                        0x1a002a21   Thumb Code    22  raw-os.o(.text)
    timer_list_priority_insert               0x1a002a37   Thumb Code    32  raw-os.o(.text)
    raw_byte_pool_search                     0x1a002a57   Thumb Code   188  raw-os.o(.text)
    .text                                    0x1a002b24   Section        0  fifo.o(.text)
    internal_fifo_out_peek                   0x1a002bc5   Thumb Code    62  fifo.o(.text)
    .text                                    0x1a002c98   Section      172  cpu.o(.text)
    $v0                                      0x1a002c98   Number         0  cpu.o(.text)
    .text                                    0x1a002d44   Section        0  port.o(.text)
    .text                                    0x1a002ef8   Section        0  port_hook.o(.text)
    .text                                    0x1a002f16   Section        0  user_extension.o(.text)
    .text                                    0x1a002f9e   Section        0  port_error_process.o(.text)
    .text                                    0x1a002ff8   Section        0  port_extension.o(.text)
    .text                                    0x1a003028   Section       68  keil_startup_lpc18xx43xx.o(.text)
    $v0                                      0x1a003028   Number         0  keil_startup_lpc18xx43xx.o(.text)
    .text                                    0x1a00306c   Section        0  sysinit.o(.text)
    .text                                    0x1a003088   Section        0  lpc43xx_scu.o(.text)
    .text                                    0x1a00309c   Section        0  lpc43xx_sdram.o(.text)
    .text                                    0x1a0034f8   Section        0  main.o(.text)
    NVIC_EnableIRQ                           0x1a00367d   Thumb Code    22  main.o(.text)
    NVIC_SetPriority                         0x1a003693   Thumb Code    32  main.o(.text)
    .text                                    0x1a0036ec   Section        0  audiotask.o(.text)
    .text                                    0x1a003810   Section        0  speak.o(.text)
    .text                                    0x1a003910   Section        0  board.o(.text)
    delay                                    0x1a003979   Thumb Code    12  board.o(.text)
    Board_Audio_CodecInit                    0x1a003985   Thumb Code    32  board.o(.text)
    writeLCD00_16                            0x1a0039a5   Thumb Code    58  board.o(.text)
    writeLCD01_16                            0x1a0039df   Thumb Code    72  board.o(.text)
    writeLCDReg                              0x1a003a27   Thumb Code    20  board.o(.text)
    pinConfig                                0x1a003a3b   Thumb Code    14  board.o(.text)
    writeTSCReg                              0x1a003a49   Thumb Code    28  board.o(.text)
    readTSCReg                               0x1a003a65   Thumb Code    24  board.o(.text)
    detectTSCTouch                           0x1a003a7d   Thumb Code    36  board.o(.text)
    getTSCCoord                              0x1a003aa1   Thumb Code   114  board.o(.text)
    Board_LED_Init                           0x1a003bab   Thumb Code    28  board.o(.text)
    Chip_SCU_PinMuxSet                       0x1a00432d   Thumb Code    12  board.o(.text)
    Chip_GPIO_SetPinState                    0x1a004339   Thumb Code    10  board.o(.text)
    Chip_GPIO_GetPinState                    0x1a004343   Thumb Code    18  board.o(.text)
    Chip_GPIO_SetPinDIROutput                0x1a004355   Thumb Code    72  board.o(.text)
    Chip_GPIO_SetPinDIRInput                 0x1a00439d   Thumb Code    28  board.o(.text)
    .text                                    0x1a0043b8   Section        0  board_sysinit.o(.text)
    Chip_SCU_SetPinMuxing                    0x1a0043b9   Thumb Code    44  board_sysinit.o(.text)
    .text                                    0x1a004554   Section        0  uda1380.o(.text)
    Audio_Codec_SetDefaultValues             0x1a0045bb   Thumb Code    36  uda1380.o(.text)
    .text                                    0x1a0046d8   Section      238  lludivv7m.o(.text)
    .text                                    0x1a0047c8   Section        0  noretval__2printf.o(.text)
    .text                                    0x1a0047e0   Section        0  __printf.o(.text)
    .text                                    0x1a004848   Section        0  _printf_dec.o(.text)
    .text                                    0x1a0048c0   Section       78  rt_memclr_w.o(.text)
    .text                                    0x1a00490e   Section        0  heapauxi.o(.text)
    .text                                    0x1a004914   Section        0  _printf_intcommon.o(.text)
    .text                                    0x1a0049c8   Section        0  _printf_char_file.o(.text)
    .text                                    0x1a0049ec   Section        0  _printf_char_common.o(.text)
    _printf_input_char                       0x1a0049ed   Thumb Code    10  _printf_char_common.o(.text)
    .text                                    0x1a004a1c   Section       74  sys_stackheap_outer.o(.text)
    .text                                    0x1a004a66   Section        0  exit.o(.text)
    .text                                    0x1a004a78   Section        8  libspace.o(.text)
    i.Chip_Clock_Enable                      0x1a004a80   Section        0  clock_18xx_43xx.o(i.Chip_Clock_Enable)
    i.Chip_Clock_EnableOpts                  0x1a004ab8   Section        0  clock_18xx_43xx.o(i.Chip_Clock_EnableOpts)
    i.Chip_Clock_FindBaseClock               0x1a004af4   Section        0  clock_18xx_43xx.o(i.Chip_Clock_FindBaseClock)
    Chip_Clock_FindBaseClock                 0x1a004af5   Thumb Code    74  clock_18xx_43xx.o(i.Chip_Clock_FindBaseClock)
    i.Chip_Clock_GetBaseClock                0x1a004b44   Section        0  clock_18xx_43xx.o(i.Chip_Clock_GetBaseClock)
    i.Chip_Clock_GetBaseClocktHz             0x1a004b68   Section        0  clock_18xx_43xx.o(i.Chip_Clock_GetBaseClocktHz)
    i.Chip_Clock_GetClockInputHz             0x1a004b7c   Section        0  clock_18xx_43xx.o(i.Chip_Clock_GetClockInputHz)
    i.Chip_Clock_GetDivRate                  0x1a004c50   Section        0  clock_18xx_43xx.o(i.Chip_Clock_GetDivRate)
    Chip_Clock_GetDivRate                    0x1a004c51   Thumb Code    40  clock_18xx_43xx.o(i.Chip_Clock_GetDivRate)
    i.Chip_Clock_GetDividerDivisor           0x1a004c78   Section        0  clock_18xx_43xx.o(i.Chip_Clock_GetDividerDivisor)
    i.Chip_Clock_GetDividerSource            0x1a004c98   Section        0  clock_18xx_43xx.o(i.Chip_Clock_GetDividerSource)
    i.Chip_Clock_GetEMCRate                  0x1a004cb8   Section        0  clock_18xx_43xx.o(i.Chip_Clock_GetEMCRate)
    i.Chip_Clock_GetMainPLLHz                0x1a004ce8   Section        0  clock_18xx_43xx.o(i.Chip_Clock_GetMainPLLHz)
    i.Chip_Clock_GetRate                     0x1a004d60   Section        0  clock_18xx_43xx.o(i.Chip_Clock_GetRate)
    i.Chip_Clock_SetBaseClock                0x1a004db8   Section        0  clock_18xx_43xx.o(i.Chip_Clock_SetBaseClock)
    i.Chip_Clock_SetDivider                  0x1a004e00   Section        0  clock_18xx_43xx.o(i.Chip_Clock_SetDivider)
    i.Chip_EMC_Dynamic_Init                  0x1a004e50   Section        0  emc_18xx_43xx.o(i.Chip_EMC_Dynamic_Init)
    i.Chip_EMC_Init                          0x1a004e6c   Section        0  emc_18xx_43xx.o(i.Chip_EMC_Init)
    i.Chip_EMC_Static_Init                   0x1a004e98   Section        0  emc_18xx_43xx.o(i.Chip_EMC_Static_Init)
    i.Chip_GPIO_Init                         0x1a004eb4   Section        0  gpio_18xx_43xx.o(i.Chip_GPIO_Init)
    i.Chip_I2C_EventHandler                  0x1a004eb8   Section        0  i2c_18xx_43xx.o(i.Chip_I2C_EventHandler)
    i.Chip_I2C_EventHandlerPolling           0x1a004ee0   Section        0  i2c_18xx_43xx.o(i.Chip_I2C_EventHandlerPolling)
    i.Chip_I2C_GetMasterEventHandler         0x1a004f20   Section        0  i2c_18xx_43xx.o(i.Chip_I2C_GetMasterEventHandler)
    i.Chip_I2C_Init                          0x1a004f34   Section        0  i2c_18xx_43xx.o(i.Chip_I2C_Init)
    i.Chip_I2C_IsStateChanged                0x1a004f60   Section        0  i2c_18xx_43xx.o(i.Chip_I2C_IsStateChanged)
    i.Chip_I2C_MasterCmdRead                 0x1a004f78   Section        0  i2c_18xx_43xx.o(i.Chip_I2C_MasterCmdRead)
    i.Chip_I2C_MasterSend                    0x1a004fb2   Section        0  i2c_18xx_43xx.o(i.Chip_I2C_MasterSend)
    i.Chip_I2C_MasterStateHandler            0x1a004fe4   Section        0  i2c_18xx_43xx.o(i.Chip_I2C_MasterStateHandler)
    i.Chip_I2C_MasterTransfer                0x1a00501c   Section        0  i2c_18xx_43xx.o(i.Chip_I2C_MasterTransfer)
    i.Chip_I2C_SetClockRate                  0x1a005088   Section        0  i2c_18xx_43xx.o(i.Chip_I2C_SetClockRate)
    i.Chip_I2C_SetMasterEventHandler         0x1a0050c4   Section        0  i2c_18xx_43xx.o(i.Chip_I2C_SetMasterEventHandler)
    i.Chip_I2S_Init                          0x1a0050ec   Section        0  i2s_18xx_43xx.o(i.Chip_I2S_Init)
    i.Chip_I2S_TxConfig                      0x1a0050f8   Section        0  i2s_18xx_43xx.o(i.Chip_I2S_TxConfig)
    i.Chip_RGU_InReset                       0x1a005174   Section        0  rgu_18xx_43xx.o(i.Chip_RGU_InReset)
    i.Chip_RGU_TriggerReset                  0x1a0051ac   Section        0  rgu_18xx_43xx.o(i.Chip_RGU_TriggerReset)
    i.Chip_SSP_ClearIntPending               0x1a0051d8   Section        0  ssp_18xx_43xx.o(i.Chip_SSP_ClearIntPending)
    Chip_SSP_ClearIntPending                 0x1a0051d9   Thumb Code     4  ssp_18xx_43xx.o(i.Chip_SSP_ClearIntPending)
    i.Chip_SSP_GetClockIndex                 0x1a0051dc   Section        0  ssp_18xx_43xx.o(i.Chip_SSP_GetClockIndex)
    Chip_SSP_GetClockIndex                   0x1a0051dd   Thumb Code    16  ssp_18xx_43xx.o(i.Chip_SSP_GetClockIndex)
    i.Chip_SSP_GetRawIntStatus               0x1a0051f0   Section        0  ssp_18xx_43xx.o(i.Chip_SSP_GetRawIntStatus)
    Chip_SSP_GetRawIntStatus                 0x1a0051f1   Thumb Code    16  ssp_18xx_43xx.o(i.Chip_SSP_GetRawIntStatus)
    i.Chip_SSP_GetStatus                     0x1a005200   Section        0  ssp_18xx_43xx.o(i.Chip_SSP_GetStatus)
    Chip_SSP_GetStatus                       0x1a005201   Thumb Code    16  ssp_18xx_43xx.o(i.Chip_SSP_GetStatus)
    i.Chip_SSP_Init                          0x1a005210   Section        0  ssp_18xx_43xx.o(i.Chip_SSP_Init)
    i.Chip_SSP_ReceiveFrame                  0x1a00524c   Section        0  ssp_18xx_43xx.o(i.Chip_SSP_ReceiveFrame)
    Chip_SSP_ReceiveFrame                    0x1a00524d   Thumb Code     8  ssp_18xx_43xx.o(i.Chip_SSP_ReceiveFrame)
    i.Chip_SSP_SendFrame                     0x1a005254   Section        0  ssp_18xx_43xx.o(i.Chip_SSP_SendFrame)
    Chip_SSP_SendFrame                       0x1a005255   Thumb Code     6  ssp_18xx_43xx.o(i.Chip_SSP_SendFrame)
    i.Chip_SSP_SetBitRate                    0x1a00525a   Section        0  ssp_18xx_43xx.o(i.Chip_SSP_SetBitRate)
    i.Chip_SSP_SetClockRate                  0x1a0052a0   Section        0  ssp_18xx_43xx.o(i.Chip_SSP_SetClockRate)
    i.Chip_SSP_SetMaster                     0x1a0052b4   Section        0  ssp_18xx_43xx.o(i.Chip_SSP_SetMaster)
    i.Chip_SSP_Set_Mode                      0x1a0052d0   Section        0  ssp_18xx_43xx.o(i.Chip_SSP_Set_Mode)
    Chip_SSP_Set_Mode                        0x1a0052d1   Thumb Code    12  ssp_18xx_43xx.o(i.Chip_SSP_Set_Mode)
    i.Chip_SSP_WriteFrames_Blocking          0x1a0052dc   Section        0  ssp_18xx_43xx.o(i.Chip_SSP_WriteFrames_Blocking)
    i.Chip_SetupCoreClock                    0x1a0053c6   Section        0  sysinit_18xx_43xx.o(i.Chip_SetupCoreClock)
    i.Chip_UART_DisableDivisorAccess         0x1a0053d4   Section        0  uart_18xx_43xx.o(i.Chip_UART_DisableDivisorAccess)
    Chip_UART_DisableDivisorAccess           0x1a0053d5   Thumb Code    10  uart_18xx_43xx.o(i.Chip_UART_DisableDivisorAccess)
    i.Chip_UART_EnableDivisorAccess          0x1a0053de   Section        0  uart_18xx_43xx.o(i.Chip_UART_EnableDivisorAccess)
    Chip_UART_EnableDivisorAccess            0x1a0053df   Thumb Code    10  uart_18xx_43xx.o(i.Chip_UART_EnableDivisorAccess)
    i.Chip_UART_GetClockIndex                0x1a0053e8   Section        0  uart_18xx_43xx.o(i.Chip_UART_GetClockIndex)
    Chip_UART_GetClockIndex                  0x1a0053e9   Thumb Code    36  uart_18xx_43xx.o(i.Chip_UART_GetClockIndex)
    i.Chip_UART_Init                         0x1a005418   Section        0  uart_18xx_43xx.o(i.Chip_UART_Init)
    i.Chip_UART_SetBaud                      0x1a005464   Section        0  uart_18xx_43xx.o(i.Chip_UART_SetBaud)
    i.Chip_UART_SetDivisorLatches            0x1a0054a6   Section        0  uart_18xx_43xx.o(i.Chip_UART_SetDivisorLatches)
    Chip_UART_SetDivisorLatches              0x1a0054a7   Thumb Code     6  uart_18xx_43xx.o(i.Chip_UART_SetDivisorLatches)
    i.SystemCoreClockUpdate                  0x1a0054ac   Section        0  chip_18xx_43xx.o(i.SystemCoreClockUpdate)
    i.clock_init_delay                       0x1a0054c0   Section        0  sysinit_18xx_43xx.o(i.clock_init_delay)
    clock_init_delay                         0x1a0054c1   Thumb Code    36  sysinit_18xx_43xx.o(i.clock_init_delay)
    i.clock_main_init                        0x1a0054e4   Section        0  sysinit_18xx_43xx.o(i.clock_main_init)
    clock_main_init                          0x1a0054e5   Thumb Code   168  sysinit_18xx_43xx.o(i.clock_main_init)
    i.convertTimmingParam                    0x1a0055a0   Section        0  emc_18xx_43xx.o(i.convertTimmingParam)
    convertTimmingParam                      0x1a0055a1   Thumb Code    50  emc_18xx_43xx.o(i.convertTimmingParam)
    i.fpuInit                                0x1a0055d8   Section        0  fpu_init.o(i.fpuInit)
    i.getClkDiv                              0x1a005628   Section        0  i2s_18xx_43xx.o(i.getClkDiv)
    getClkDiv                                0x1a005629   Thumb Code   354  i2s_18xx_43xx.o(i.getClkDiv)
    i.getClkRate                             0x1a00578c   Section        0  i2c_18xx_43xx.o(i.getClkRate)
    getClkRate                               0x1a00578d   Thumb Code    22  i2c_18xx_43xx.o(i.getClkRate)
    i.getColsLen                             0x1a0057a8   Section        0  emc_18xx_43xx.o(i.getColsLen)
    getColsLen                               0x1a0057a9   Thumb Code    40  emc_18xx_43xx.o(i.getColsLen)
    i.getCurState                            0x1a0057d0   Section        0  i2c_18xx_43xx.o(i.getCurState)
    getCurState                              0x1a0057d1   Thumb Code    10  i2c_18xx_43xx.o(i.getCurState)
    i.handleMasterXferState                  0x1a0057da   Section        0  i2c_18xx_43xx.o(i.handleMasterXferState)
    i.initDynMem                             0x1a0058ba   Section        0  emc_18xx_43xx.o(i.initDynMem)
    i.initStaticMem                          0x1a005aa2   Section        0  emc_18xx_43xx.o(i.initStaticMem)
    i.startSlaverXfer                        0x1a005b0a   Section        0  i2c_18xx_43xx.o(i.startSlaverXfer)
    startSlaverXfer                          0x1a005b0b   Thumb Code    10  i2c_18xx_43xx.o(i.startSlaverXfer)
    x$fpl$fpinit                             0x1a005b14   Section       10  fpinit.o(x$fpl$fpinit)
    $v0                                      0x1a005b14   Number         0  fpinit.o(x$fpl$fpinit)
    .constdata                               0x1a005b1e   Section    63102  audiodata.o(.constdata)
    .constdata                               0x1a01519c   Section       64  board.o(.constdata)
    ledports                                 0x1a01519c   Data           8  board.o(.constdata)
    ledbits                                  0x1a0151a4   Data           8  board.o(.constdata)
    .constdata                               0x1a0151dc   Section      700  board_sysinit.o(.constdata)
    InitClkStates                            0x1a0151dc   Data          16  board_sysinit.o(.constdata)
    spifipinmuxing                           0x1a0151ec   Data          24  board_sysinit.o(.constdata)
    pinmuxing                                0x1a015204   Data         496  board_sysinit.o(.constdata)
    pinclockmuxing                           0x1a0153f4   Data          16  board_sysinit.o(.constdata)
    MT48LC4M32_config                        0x1a015404   Data         116  board_sysinit.o(.constdata)
    S29GL64N90_config                        0x1a015478   Data          32  board_sysinit.o(.constdata)
    .constdata                               0x1a015498   Section       31  uda1380.o(.constdata)
    UDA_sys_regs_dat                         0x1a015498   Data          11  uda1380.o(.constdata)
    UDA_interfil_regs_dat                    0x1a0154a3   Data          11  uda1380.o(.constdata)
    UDA_decimator_regs_dat                   0x1a0154ae   Data           9  uda1380.o(.constdata)
    .constdata                               0x1a0154b8   Section      108  clock_18xx_43xx.o(.constdata)
    periph_to_base                           0x1a0154b8   Data         108  clock_18xx_43xx.o(.constdata)
    .constdata                               0x1a015524   Section       72  sysinit_18xx_43xx.o(.constdata)
    InitClkStates                            0x1a015524   Data          72  sysinit_18xx_43xx.o(.constdata)

    Global Symbols

    Symbol Name                              Value     Ov Type        Size  Object(Section)

    BuildAttributes$$THM_ISAv4$E$P$D$K$B$S$7EM$VFPi3$EXTD16$VFPS$VFMA$PE$A:L22UL41UL21$X:L11$S22US41US21$IEEE1$IW$USESV6$~STKCKD$USESV7$~SHL$OSPACE$ROPI$EBA8$UX$STANDARDLIB$REQ8$PRES8$EABIv2 0x00000000   Number         0  anon$$obj.o ABSOLUTE
    __ARM_use_no_argv                        0x00000000   Number         0  main.o ABSOLUTE
    __ARM_exceptions_init                     - Undefined Weak Reference
    __alloca_initialize                       - Undefined Weak Reference
    __arm_preinit_                            - Undefined Weak Reference
    __cpp_initialize__aeabi_                  - Undefined Weak Reference
    __cxa_finalize                            - Undefined Weak Reference
    __rt_locale                               - Undefined Weak Reference
    __sigvec_lookup                           - Undefined Weak Reference
    _atexit_init                              - Undefined Weak Reference
    _call_atexit_fns                          - Undefined Weak Reference
    _clock_init                               - Undefined Weak Reference
    _fp_trap_init                             - Undefined Weak Reference
    _fp_trap_shutdown                         - Undefined Weak Reference
    _get_lc_collate                           - Undefined Weak Reference
    _get_lc_ctype                             - Undefined Weak Reference
    _get_lc_monetary                          - Undefined Weak Reference
    _get_lc_numeric                           - Undefined Weak Reference
    _get_lc_time                              - Undefined Weak Reference
    _getenv_init                              - Undefined Weak Reference
    _handle_redirection                       - Undefined Weak Reference
    _init_alloc                               - Undefined Weak Reference
    _init_user_alloc                          - Undefined Weak Reference
    _initio                                   - Undefined Weak Reference
    _printf_post_padding                      - Undefined Weak Reference
    _printf_pre_padding                       - Undefined Weak Reference
    _printf_truncate_signed                   - Undefined Weak Reference
    _printf_truncate_unsigned                 - Undefined Weak Reference
    _rand_init                                - Undefined Weak Reference
    _signal_finish                            - Undefined Weak Reference
    _signal_init                              - Undefined Weak Reference
    _terminate_alloc                          - Undefined Weak Reference
    _terminate_user_alloc                     - Undefined Weak Reference
    _terminateio                              - Undefined Weak Reference
    idle_task_exit                           0x10000000   Data           1  raw-os.o(.data)
    raw_sched_lock                           0x10000001   Data           1  raw-os.o(.data)
    raw_int_nesting                          0x10000002   Data           1  raw-os.o(.data)
    raw_os_active                            0x10000004   Data           2  raw-os.o(.data)
    high_ready_obj                           0x10000008   Data           4  raw-os.o(.data)
    raw_task_active                          0x1000000c   Data           4  raw-os.o(.data)
    raw_tick_count                           0x10000010   Data           4  raw-os.o(.data)
    raw_timer_count                          0x10000014   Data           4  raw-os.o(.data)
    raw_timer_ctrl                           0x10000018   Data           4  raw-os.o(.data)
    raw_idle_count                           0x10000020   Data           8  raw-os.o(.data)
    timer_head                               0x10000028   Data           8  raw-os.o(.data)
    sys_time_tick                            0x10000030   Data           8  raw-os.o(.data)
    gFlag                                    0x10000038   Data           1  audiotask.o(.data)
    g_countAudio                             0x1000003c   Data           4  audiotask.o(.data)
    g_speakerVolume                          0x10000040   Data           4  audiotask.o(.data)
    g_speakerVolumeTmp                       0x10000044   Data           4  audiotask.o(.data)
    g_adc_value                              0x1000004c   Data           4  audiotask.o(.data)
    g_speakerBufferSoonEmpty                 0x10000050   Data           4  speak.o(.data)
    g_speakerBufferHead                      0x10000054   Data           4  speak.o(.data)
    g_speakerBufferTail                      0x10000058   Data           4  speak.o(.data)
    g_audioOffset                            0x1000005c   Data           4  speak.o(.data)
    __stdout                                 0x10000060   Data           4  board.o(.data)
    __stdin                                  0x10000064   Data           4  board.o(.data)
    __stderr                                 0x10000068   Data           4  board.o(.data)
    g_isPenDn                                0x1000006c   Data           4  board.o(.data)
    g_isNewPenDn                             0x10000070   Data           4  board.o(.data)
    SystemCoreClock                          0x10000074   Data           4  chip_18xx_43xx.o(.data)
    raw_ready_queue                          0x100000b8   Data         508  raw-os.o(.bss)
    raw_idle_obj                             0x100002b8   Data         144  raw-os.o(.bss)
    idle_stack                               0x10000348   Data         320  raw-os.o(.bss)
    tick_head                                0x10000488   Data          64  raw-os.o(.bss)
    raw_timer_obj                            0x100004c8   Data         144  raw-os.o(.bss)
    timer_task_stack                         0x10000558   Data        1024  raw-os.o(.bss)
    timer_sem                                0x10000958   Data          36  raw-os.o(.bss)
    timer_mutex                              0x1000097c   Data          40  raw-os.o(.bss)
    raw_task_debug                           0x100009a4   Data          56  raw-os.o(.bss)
    tick_task_obj                            0x100009e0   Data         144  raw-os.o(.bss)
    tick_task_stack                          0x10000a70   Data        1024  raw-os.o(.bss)
    tick_semaphore_obj                       0x10000e70   Data          36  raw-os.o(.bss)
    shell_task_stack                         0x10000e98   Data        1600  main.o(.bss)
    shell_task_obj                           0x100014d8   Data         144  main.o(.bss)
    uart_sema                                0x10001568   Data          36  main.o(.bss)
    uart_fifo                                0x1000158c   Data          24  main.o(.bss)
    g_speakerTestBuffer                      0x10001624   Data         160  audiotask.o(.bss)
    g_speakerBuffer                          0x100016c4   Data         514  speak.o(.bss)
    __libspace_start                         0x100018c8   Data          96  libspace.o(.bss)
    __temporary_stack_top$libspace           0x10001928   Data           0  libspace.o(.bss)
    Stack_Mem                                0x10001a28   Data        1536  keil_startup_lpc18xx43xx.o(STACK)
    __Vectors                                0x1a000000   Data           4  keil_startup_lpc18xx43xx.o(RESET)
    __main                                   0x1a000115   Thumb Code     8  __main.o(!!!main)
    __scatterload                            0x1a00011d   Thumb Code     0  __scatter.o(!!!scatter)
    __scatterload_rt2                        0x1a00011d   Thumb Code    44  __scatter.o(!!!scatter)
    __scatterload_rt2_thumb_only             0x1a00011d   Thumb Code     0  __scatter.o(!!!scatter)
    __scatterload_null                       0x1a00012b   Thumb Code     0  __scatter.o(!!!scatter)
    __scatterload_copy                       0x1a000151   Thumb Code    26  __scatter_copy.o(!!handler_copy)
    __scatterload_zeroinit                   0x1a00016d   Thumb Code    28  __scatter_zi.o(!!handler_zi)
    _printf_d                                0x1a000189   Thumb Code     0  _printf_d.o(.ARM.Collect$$_printf_percent$$00000009)
    _printf_percent                          0x1a000189   Thumb Code     0  _printf_percent.o(.ARM.Collect$$_printf_percent$$00000000)
    _printf_percent_end                      0x1a00018f   Thumb Code     0  _printf_percent_end.o(.ARM.Collect$$_printf_percent$$00000017)
    __rt_lib_init                            0x1a000193   Thumb Code     0  libinit.o(.ARM.Collect$$libinit$$00000000)
    __rt_lib_init_fp_1                       0x1a000195   Thumb Code     0  libinit2.o(.ARM.Collect$$libinit$$00000001)
    __rt_lib_init_alloca_1                   0x1a000199   Thumb Code     0  libinit2.o(.ARM.Collect$$libinit$$0000002E)
    __rt_lib_init_argv_1                     0x1a000199   Thumb Code     0  libinit2.o(.ARM.Collect$$libinit$$0000002C)
    __rt_lib_init_atexit_1                   0x1a000199   Thumb Code     0  libinit2.o(.ARM.Collect$$libinit$$0000001B)
    __rt_lib_init_clock_1                    0x1a000199   Thumb Code     0  libinit2.o(.ARM.Collect$$libinit$$00000021)
    __rt_lib_init_cpp_1                      0x1a000199   Thumb Code     0  libinit2.o(.ARM.Collect$$libinit$$00000032)
    __rt_lib_init_exceptions_1               0x1a000199   Thumb Code     0  libinit2.o(.ARM.Collect$$libinit$$00000030)
    __rt_lib_init_fp_trap_1                  0x1a000199   Thumb Code     0  libinit2.o(.ARM.Collect$$libinit$$0000001F)
    __rt_lib_init_getenv_1                   0x1a000199   Thumb Code     0  libinit2.o(.ARM.Collect$$libinit$$00000023)
    __rt_lib_init_heap_1                     0x1a000199   Thumb Code     0  libinit2.o(.ARM.Collect$$libinit$$0000000A)
    __rt_lib_init_lc_collate_1               0x1a000199   Thumb Code     0  libinit2.o(.ARM.Collect$$libinit$$00000011)
    __rt_lib_init_lc_ctype_1                 0x1a000199   Thumb Code     0  libinit2.o(.ARM.Collect$$libinit$$00000013)
    __rt_lib_init_lc_monetary_1              0x1a000199   Thumb Code     0  libinit2.o(.ARM.Collect$$libinit$$00000015)
    __rt_lib_init_lc_numeric_1               0x1a000199   Thumb Code     0  libinit2.o(.ARM.Collect$$libinit$$00000017)
    __rt_lib_init_lc_time_1                  0x1a000199   Thumb Code     0  libinit2.o(.ARM.Collect$$libinit$$00000019)
    __rt_lib_init_preinit_1                  0x1a000199   Thumb Code     0  libinit2.o(.ARM.Collect$$libinit$$00000004)
    __rt_lib_init_rand_1                     0x1a000199   Thumb Code     0  libinit2.o(.ARM.Collect$$libinit$$0000000E)
    __rt_lib_init_return                     0x1a000199   Thumb Code     0  libinit2.o(.ARM.Collect$$libinit$$00000033)
    __rt_lib_init_signal_1                   0x1a000199   Thumb Code     0  libinit2.o(.ARM.Collect$$libinit$$0000001D)
    __rt_lib_init_stdio_1                    0x1a000199   Thumb Code     0  libinit2.o(.ARM.Collect$$libinit$$00000025)
    __rt_lib_init_user_alloc_1               0x1a000199   Thumb Code     0  libinit2.o(.ARM.Collect$$libinit$$0000000C)
    __rt_lib_shutdown                        0x1a00019b   Thumb Code     0  libshutdown.o(.ARM.Collect$$libshutdown$$00000000)
    __rt_lib_shutdown_cpp_1                  0x1a00019d   Thumb Code     0  libshutdown2.o(.ARM.Collect$$libshutdown$$00000002)
    __rt_lib_shutdown_fp_trap_1              0x1a00019d   Thumb Code     0  libshutdown2.o(.ARM.Collect$$libshutdown$$00000007)
    __rt_lib_shutdown_heap_1                 0x1a00019d   Thumb Code     0  libshutdown2.o(.ARM.Collect$$libshutdown$$0000000F)
    __rt_lib_shutdown_return                 0x1a00019d   Thumb Code     0  libshutdown2.o(.ARM.Collect$$libshutdown$$00000010)
    __rt_lib_shutdown_signal_1               0x1a00019d   Thumb Code     0  libshutdown2.o(.ARM.Collect$$libshutdown$$0000000A)
    __rt_lib_shutdown_stdio_1                0x1a00019d   Thumb Code     0  libshutdown2.o(.ARM.Collect$$libshutdown$$00000004)
    __rt_lib_shutdown_user_alloc_1           0x1a00019d   Thumb Code     0  libshutdown2.o(.ARM.Collect$$libshutdown$$0000000C)
    __rt_entry                               0x1a00019f   Thumb Code     0  __rtentry.o(.ARM.Collect$$rtentry$$00000000)
    __rt_entry_presh_1                       0x1a00019f   Thumb Code     0  __rtentry2.o(.ARM.Collect$$rtentry$$00000002)
    __rt_entry_sh                            0x1a00019f   Thumb Code     0  __rtentry4.o(.ARM.Collect$$rtentry$$00000004)
    __rt_entry_li                            0x1a0001a5   Thumb Code     0  __rtentry2.o(.ARM.Collect$$rtentry$$0000000A)
    __rt_entry_postsh_1                      0x1a0001a5   Thumb Code     0  __rtentry2.o(.ARM.Collect$$rtentry$$00000009)
    __rt_entry_main                          0x1a0001a9   Thumb Code     0  __rtentry2.o(.ARM.Collect$$rtentry$$0000000D)
    __rt_entry_postli_1                      0x1a0001a9   Thumb Code     0  __rtentry2.o(.ARM.Collect$$rtentry$$0000000C)
    __rt_exit                                0x1a0001b1   Thumb Code     0  rtexit.o(.ARM.Collect$$rtexit$$00000000)
    __rt_exit_ls                             0x1a0001b3   Thumb Code     0  rtexit2.o(.ARM.Collect$$rtexit$$00000003)
    __rt_exit_prels_1                        0x1a0001b3   Thumb Code     0  rtexit2.o(.ARM.Collect$$rtexit$$00000002)
    __rt_exit_exit                           0x1a0001b7   Thumb Code     0  rtexit2.o(.ARM.Collect$$rtexit$$00000004)
    get_ready_task                           0x1a0001bd   Thumb Code    16  raw-os.o(.text)
    raw_sched                                0x1a0001cd   Thumb Code    46  raw-os.o(.text)
    raw_semaphore_create                     0x1a0001fb   Thumb Code    54  raw-os.o(.text)
    raw_task_semaphore_create                0x1a000231   Thumb Code    16  raw-os.o(.text)
    tick_list_remove                         0x1a000241   Thumb Code    24  raw-os.o(.text)
    mutex_priority_look                      0x1a000259   Thumb Code    74  raw-os.o(.text)
    change_pend_list_priority                0x1a0002a3   Thumb Code    34  raw-os.o(.text)
    add_ready_list_end                       0x1a0002c5   Thumb Code    40  raw-os.o(.text)
    add_ready_list_head                      0x1a0002ed   Thumb Code    40  raw-os.o(.text)
    bit_search_first_one                     0x1a000315   Thumb Code   116  raw-os.o(.text)
    remove_ready_list                        0x1a000389   Thumb Code   104  raw-os.o(.text)
    change_internal_task_priority            0x1a0003f1   Thumb Code   168  raw-os.o(.text)
    mutex_state_change                       0x1a000499   Thumb Code    38  raw-os.o(.text)
    add_ready_list                           0x1a0004bf   Thumb Code    20  raw-os.o(.text)
    tick_list_update                         0x1a0004d3   Thumb Code   246  raw-os.o(.text)
    block_state_post_process                 0x1a0005c9   Thumb Code    62  raw-os.o(.text)
    tick_list_insert                         0x1a000607   Thumb Code    62  raw-os.o(.text)
    raw_pend_object                          0x1a000645   Thumb Code    70  raw-os.o(.text)
    raw_semaphore_get                        0x1a00068b   Thumb Code   140  raw-os.o(.text)
    raw_task_semaphore_get                   0x1a000717   Thumb Code    10  raw-os.o(.text)
    raw_task_create                          0x1a00073d   Thumb Code   266  raw-os.o(.text)
    tick_task_start                          0x1a000847   Thumb Code    56  raw-os.o(.text)
    raw_mutex_create                         0x1a00087f   Thumb Code    66  raw-os.o(.text)
    raw_wake_object                          0x1a000921   Thumb Code     2  raw-os.o(.text)
    raw_mutex_put                            0x1a000923   Thumb Code   170  raw-os.o(.text)
    raw_mutex_get                            0x1a0009cd   Thumb Code   346  raw-os.o(.text)
    raw_semaphore_set                        0x1a000b27   Thumb Code    84  raw-os.o(.text)
    timer_task                               0x1a000b7b   Thumb Code   166  raw-os.o(.text)
    raw_timer_init                           0x1a000c21   Thumb Code    66  raw-os.o(.text)
    raw_idle_task                            0x1a000c63   Thumb Code    30  raw-os.o(.text)
    tick_list_init                           0x1a000c81   Thumb Code    24  raw-os.o(.text)
    run_queue_init                           0x1a000c99   Thumb Code    26  raw-os.o(.text)
    raw_os_init                              0x1a000cb3   Thumb Code   132  raw-os.o(.text)
    raw_os_start                             0x1a000d37   Thumb Code    36  raw-os.o(.text)
    move_to_ready_list_end                   0x1a000d5b   Thumb Code    34  raw-os.o(.text)
    calculate_time_slice                     0x1a000d7d   Thumb Code    76  raw-os.o(.text)
    wake_send_msg                            0x1a000dc9   Thumb Code     4  raw-os.o(.text)
    wake_send_msg_size                       0x1a000dcd   Thumb Code     6  raw-os.o(.text)
    delete_pend_obj                          0x1a000dd3   Thumb Code    98  raw-os.o(.text)
    raw_task_stack_check                     0x1a000e35   Thumb Code    52  raw-os.o(.text)
    raw_isr_stack_check                      0x1a000e69   Thumb Code    14  raw-os.o(.text)
    raw_disable_sche                         0x1a000e77   Thumb Code    42  raw-os.o(.text)
    raw_enable_sche                          0x1a000ea1   Thumb Code    58  raw-os.o(.text)
    raw_sleep                                0x1a000edb   Thumb Code   174  raw-os.o(.text)
    raw_task_yield                           0x1a000f89   Thumb Code    36  raw-os.o(.text)
    raw_time_sleep                           0x1a000fad   Thumb Code    94  raw-os.o(.text)
    task_suspend                             0x1a00100b   Thumb Code   154  raw-os.o(.text)
    raw_task_suspend                         0x1a0010a5   Thumb Code    24  raw-os.o(.text)
    task_resume                              0x1a0010bd   Thumb Code   162  raw-os.o(.text)
    raw_task_resume                          0x1a00115f   Thumb Code    10  raw-os.o(.text)
    chg_pri_mutex                            0x1a001169   Thumb Code   114  raw-os.o(.text)
    raw_task_priority_change                 0x1a0011db   Thumb Code   140  raw-os.o(.text)
    raw_task_free_mutex                      0x1a001267   Thumb Code    68  raw-os.o(.text)
    raw_task_delete                          0x1a0012ab   Thumb Code   180  raw-os.o(.text)
    raw_set_task_user_point                  0x1a00135f   Thumb Code    34  raw-os.o(.text)
    raw_get_task_user_point                  0x1a001381   Thumb Code     8  raw-os.o(.text)
    raw_task_time_slice_change               0x1a001389   Thumb Code    52  raw-os.o(.text)
    raw_set_sched_way                        0x1a0013bd   Thumb Code    56  raw-os.o(.text)
    raw_get_sched_way                        0x1a0013f5   Thumb Code    46  raw-os.o(.text)
    raw_task_wait_abort                      0x1a001423   Thumb Code   164  raw-os.o(.text)
    raw_task_identify                        0x1a0014c7   Thumb Code     6  raw-os.o(.text)
    raw_iter_block_task                      0x1a0014cd   Thumb Code    72  raw-os.o(.text)
    raw_get_system_global_space              0x1a001515   Thumb Code     6  raw-os.o(.text)
    raw_block_pool_create                    0x1a00151b   Thumb Code   108  raw-os.o(.text)
    raw_block_allocate                       0x1a001587   Thumb Code    76  raw-os.o(.text)
    raw_block_release                        0x1a0015d3   Thumb Code    52  raw-os.o(.text)
    raw_byte_pool_create                     0x1a001607   Thumb Code    88  raw-os.o(.text)
    raw_byte_allocate                        0x1a00165f   Thumb Code    94  raw-os.o(.text)
    raw_byte_release                         0x1a0016bd   Thumb Code    64  raw-os.o(.text)
    raw_event_create                         0x1a0016fd   Thumb Code    42  raw-os.o(.text)
    raw_event_get                            0x1a001727   Thumb Code   238  raw-os.o(.text)
    event_set                                0x1a001815   Thumb Code   132  raw-os.o(.text)
    raw_event_set                            0x1a001899   Thumb Code    22  raw-os.o(.text)
    raw_event_delete                         0x1a0018af   Thumb Code    96  raw-os.o(.text)
    raw_mutex_delete                         0x1a00190f   Thumb Code   104  raw-os.o(.text)
    raw_queue_create                         0x1a001977   Thumb Code    78  raw-os.o(.text)
    raw_queue_block_way_set                  0x1a0019c5   Thumb Code    14  raw-os.o(.text)
    raw_queue_full_register                  0x1a0019d3   Thumb Code    32  raw-os.o(.text)
    msg_post                                 0x1a0019f3   Thumb Code   198  raw-os.o(.text)
    raw_queue_front_post                     0x1a001ab9   Thumb Code    22  raw-os.o(.text)
    raw_queue_end_post                       0x1a001acf   Thumb Code    22  raw-os.o(.text)
    raw_queue_post_notify                    0x1a001ae5   Thumb Code    22  raw-os.o(.text)
    raw_queue_all_post                       0x1a001afb   Thumb Code    20  raw-os.o(.text)
    raw_queue_send_notify                    0x1a001b0f   Thumb Code    56  raw-os.o(.text)
    raw_queue_receive                        0x1a001b47   Thumb Code   214  raw-os.o(.text)
    raw_queue_full_check                     0x1a001c1d   Thumb Code    58  raw-os.o(.text)
    raw_queue_flush                          0x1a001c57   Thumb Code    70  raw-os.o(.text)
    raw_queue_delete                         0x1a001c9d   Thumb Code    94  raw-os.o(.text)
    raw_queue_get_information                0x1a001cfb   Thumb Code    82  raw-os.o(.text)
    raw_queue_buffer_create                  0x1a001d4d   Thumb Code    98  raw-os.o(.text)
    queue_buffer_post                        0x1a001daf   Thumb Code   194  raw-os.o(.text)
    raw_queue_buffer_end_post                0x1a001e71   Thumb Code    30  raw-os.o(.text)
    raw_queue_buffer_receive                 0x1a001e8f   Thumb Code   288  raw-os.o(.text)
    raw_queue_buffer_flush                   0x1a001faf   Thumb Code    62  raw-os.o(.text)
    raw_queue_buffer_delete                  0x1a001fed   Thumb Code    94  raw-os.o(.text)
    raw_queue_buffer_info_get                0x1a00204b   Thumb Code    66  raw-os.o(.text)
    raw_queue_size_create                    0x1a00208d   Thumb Code    90  raw-os.o(.text)
    raw_queue_size_full_register             0x1a0020e7   Thumb Code    32  raw-os.o(.text)
    msg_size_post                            0x1a002107   Thumb Code   198  raw-os.o(.text)
    raw_queue_size_receive                   0x1a0021cd   Thumb Code   258  raw-os.o(.text)
    raw_queue_size_front_post                0x1a0022cf   Thumb Code    30  raw-os.o(.text)
    raw_queue_size_end_post                  0x1a0022ed   Thumb Code    30  raw-os.o(.text)
    raw_queue_size_all_post                  0x1a00230b   Thumb Code    28  raw-os.o(.text)
    raw_queue_size_full_check                0x1a002327   Thumb Code    58  raw-os.o(.text)
    raw_queue_size_flush                     0x1a002361   Thumb Code    74  raw-os.o(.text)
    raw_queue_size_delete                    0x1a0023ab   Thumb Code    94  raw-os.o(.text)
    raw_queue_size_get_information           0x1a002409   Thumb Code    78  raw-os.o(.text)
    raw_semaphore_block_way_set              0x1a002457   Thumb Code    26  raw-os.o(.text)
    semaphore_put                            0x1a002471   Thumb Code   138  raw-os.o(.text)
    raw_semaphore_put                        0x1a0024fb   Thumb Code    12  raw-os.o(.text)
    raw_semaphore_put_notify                 0x1a002507   Thumb Code    12  raw-os.o(.text)
    raw_semaphore_put_all                    0x1a002513   Thumb Code    12  raw-os.o(.text)
    raw_semphore_send_notify                 0x1a00251f   Thumb Code    56  raw-os.o(.text)
    raw_semaphore_delete                     0x1a002557   Thumb Code    94  raw-os.o(.text)
    raw_stack_check                          0x1a0025b5   Thumb Code    68  raw-os.o(.text)
    raw_statistics_check                     0x1a0025f9   Thumb Code    46  raw-os.o(.text)
    raw_finish_int                           0x1a002627   Thumb Code    80  raw-os.o(.text)
    call_timer_task                          0x1a002677   Thumb Code    20  raw-os.o(.text)
    raw_task_semaphore_put                   0x1a00268b   Thumb Code     4  raw-os.o(.text)
    raw_time_tick                            0x1a00268f   Thumb Code    48  raw-os.o(.text)
    raw_enter_interrupt                      0x1a0026bf   Thumb Code    62  raw-os.o(.text)
    raw_system_time_get                      0x1a0026fd   Thumb Code    36  raw-os.o(.text)
    raw_os_version_get                       0x1a002721   Thumb Code     6  raw-os.o(.text)
    raw_task_qsize_create                    0x1a002727   Thumb Code    20  raw-os.o(.text)
    raw_task_qsize_receive                   0x1a00273b   Thumb Code    20  raw-os.o(.text)
    raw_task_qsize_front_post                0x1a00274f   Thumb Code     4  raw-os.o(.text)
    raw_task_qsize_end_post                  0x1a002753   Thumb Code     4  raw-os.o(.text)
    raw_task_qsize_flush                     0x1a002757   Thumb Code     4  raw-os.o(.text)
    raw_task_qsize_delete                    0x1a00275b   Thumb Code     4  raw-os.o(.text)
    raw_task_qsize_get_information           0x1a00275f   Thumb Code     4  raw-os.o(.text)
    raw_task_semaphore_set                   0x1a002763   Thumb Code     6  raw-os.o(.text)
    raw_task_semaphore_delete                0x1a002769   Thumb Code     4  raw-os.o(.text)
    raw_timer_activate                       0x1a00276d   Thumb Code   132  raw-os.o(.text)
    raw_timer_create                         0x1a0027f1   Thumb Code    96  raw-os.o(.text)
    raw_timer_change                         0x1a002851   Thumb Code   104  raw-os.o(.text)
    raw_timer_deactivate                     0x1a0028b9   Thumb Code   132  raw-os.o(.text)
    raw_timer_delete                         0x1a00293d   Thumb Code   108  raw-os.o(.text)
    fifo_init                                0x1a002b25   Thumb Code    68  fifo.o(.text)
    fifo_in                                  0x1a002b69   Thumb Code    92  fifo.o(.text)
    fifo_out_peek                            0x1a002c03   Thumb Code    38  fifo.o(.text)
    fifo_out                                 0x1a002c29   Thumb Code    50  fifo.o(.text)
    fifo_out_all                             0x1a002c5b   Thumb Code    62  fifo.o(.text)
    OS_CPU_SR_Save                           0x1a002c99   Thumb Code     0  cpu.o(.text)
    OS_CPU_SR_Restore                        0x1a002ca1   Thumb Code     0  cpu.o(.text)
    CPU_IntDis                               0x1a002ca7   Thumb Code     0  cpu.o(.text)
    CPU_IntEn                                0x1a002cab   Thumb Code     0  cpu.o(.text)
    raw_start_first_task                     0x1a002caf   Thumb Code     0  cpu.o(.text)
    port_task_switch                         0x1a002cd7   Thumb Code     0  cpu.o(.text)
    raw_int_switch                           0x1a002ce1   Thumb Code     0  cpu.o(.text)
    PendSV_Handler                           0x1a002ceb   Thumb Code     0  cpu.o(.text)
    port_stack_init                          0x1a002d45   Thumb Code   324  port.o(.text)
    port_isr_stack_check                     0x1a002e89   Thumb Code     2  port.o(.text)
    port_isr_stack_free_check                0x1a002e8b   Thumb Code    20  port.o(.text)
    system_mpu_enable                        0x1a002e9f   Thumb Code    46  port.o(.text)
    task_stack_mpu_set                       0x1a002ecd   Thumb Code    28  port.o(.text)
    raw_os_init_hook                         0x1a002ef9   Thumb Code    14  port_hook.o(.text)
    raw_task_delete_hook                     0x1a002f07   Thumb Code     2  port_hook.o(.text)
    raw_task_abort_hook                      0x1a002f09   Thumb Code     2  port_hook.o(.text)
    raw_idle_task_hook                       0x1a002f0b   Thumb Code     2  port_hook.o(.text)
    raw_task_switch_hook                     0x1a002f0d   Thumb Code     2  port_hook.o(.text)
    raw_tick_hook                            0x1a002f0f   Thumb Code     2  port_hook.o(.text)
    task_create_hook                         0x1a002f11   Thumb Code     2  port_hook.o(.text)
    raw_idle_coroutine_hook                  0x1a002f13   Thumb Code     4  port_hook.o(.text)
    raw_memcpy                               0x1a002f17   Thumb Code    74  user_extension.o(.text)
    raw_memset                               0x1a002f61   Thumb Code    62  user_extension.o(.text)
    port_system_error_process                0x1a002f9f   Thumb Code    88  port_error_process.o(.text)
    cpu_timer_init                           0x1a002ff9   Thumb Code    26  port_extension.o(.text)
    user_cpu_time_get                        0x1a003013   Thumb Code     6  port_extension.o(.text)
    user_sys_time_get                        0x1a003019   Thumb Code     6  port_extension.o(.text)
    Reset_Handler                            0x1a003029   Thumb Code     8  keil_startup_lpc18xx43xx.o(.text)
    NMI_Handler                              0x1a003031   Thumb Code     2  keil_startup_lpc18xx43xx.o(.text)
    HardFault_Handler                        0x1a003033   Thumb Code     2  keil_startup_lpc18xx43xx.o(.text)
    MemManage_Handler                        0x1a003035   Thumb Code     2  keil_startup_lpc18xx43xx.o(.text)
    BusFault_Handler                         0x1a003037   Thumb Code     2  keil_startup_lpc18xx43xx.o(.text)
    UsageFault_Handler                       0x1a003039   Thumb Code     2  keil_startup_lpc18xx43xx.o(.text)
    SVC_Handler                              0x1a00303b   Thumb Code     2  keil_startup_lpc18xx43xx.o(.text)
    DebugMon_Handler                         0x1a00303d   Thumb Code     2  keil_startup_lpc18xx43xx.o(.text)
    UnHandled_Vector                         0x1a003043   Thumb Code     2  keil_startup_lpc18xx43xx.o(.text)
    ADC0_IRQHandler                          0x1a003045   Thumb Code     0  keil_startup_lpc18xx43xx.o(.text)
    ADC1_IRQHandler                          0x1a003045   Thumb Code     0  keil_startup_lpc18xx43xx.o(.text)
    ADCHS_IRQHandler                         0x1a003045   Thumb Code     0  keil_startup_lpc18xx43xx.o(.text)
    ATIMER_IRQHandler                        0x1a003045   Thumb Code     0  keil_startup_lpc18xx43xx.o(.text)
    CAN0_IRQHandler                          0x1a003045   Thumb Code     0  keil_startup_lpc18xx43xx.o(.text)
    CAN1_IRQHandler                          0x1a003045   Thumb Code     0  keil_startup_lpc18xx43xx.o(.text)
    DAC_IRQHandler                           0x1a003045   Thumb Code     0  keil_startup_lpc18xx43xx.o(.text)
    DMA_IRQHandler                           0x1a003045   Thumb Code     0  keil_startup_lpc18xx43xx.o(.text)
    ETH_IRQHandler                           0x1a003045   Thumb Code     0  keil_startup_lpc18xx43xx.o(.text)
    EVRT_IRQHandler                          0x1a003045   Thumb Code     0  keil_startup_lpc18xx43xx.o(.text)
    FLASHEEPROM_IRQHandler                   0x1a003045   Thumb Code     0  keil_startup_lpc18xx43xx.o(.text)
    GINT0_IRQHandler                         0x1a003045   Thumb Code     0  keil_startup_lpc18xx43xx.o(.text)
    GINT1_IRQHandler                         0x1a003045   Thumb Code     0  keil_startup_lpc18xx43xx.o(.text)
    GPIO0_IRQHandler                         0x1a003045   Thumb Code     0  keil_startup_lpc18xx43xx.o(.text)
    GPIO1_IRQHandler                         0x1a003045   Thumb Code     0  keil_startup_lpc18xx43xx.o(.text)
    GPIO2_IRQHandler                         0x1a003045   Thumb Code     0  keil_startup_lpc18xx43xx.o(.text)
    GPIO3_IRQHandler                         0x1a003045   Thumb Code     0  keil_startup_lpc18xx43xx.o(.text)
    GPIO4_IRQHandler                         0x1a003045   Thumb Code     0  keil_startup_lpc18xx43xx.o(.text)
    GPIO5_IRQHandler                         0x1a003045   Thumb Code     0  keil_startup_lpc18xx43xx.o(.text)
    GPIO6_IRQHandler                         0x1a003045   Thumb Code     0  keil_startup_lpc18xx43xx.o(.text)
    GPIO7_IRQHandler                         0x1a003045   Thumb Code     0  keil_startup_lpc18xx43xx.o(.text)
    I2C0_IRQHandler                          0x1a003045   Thumb Code     0  keil_startup_lpc18xx43xx.o(.text)
    I2C1_IRQHandler                          0x1a003045   Thumb Code     0  keil_startup_lpc18xx43xx.o(.text)
    I2S0_IRQHandler                          0x1a003045   Thumb Code     0  keil_startup_lpc18xx43xx.o(.text)
    I2S1_IRQHandler                          0x1a003045   Thumb Code     0  keil_startup_lpc18xx43xx.o(.text)
    LCD_IRQHandler                           0x1a003045   Thumb Code     0  keil_startup_lpc18xx43xx.o(.text)
    MCPWM_IRQHandler                         0x1a003045   Thumb Code     0  keil_startup_lpc18xx43xx.o(.text)
    MX_CORE_IRQHandler                       0x1a003045   Thumb Code     0  keil_startup_lpc18xx43xx.o(.text)
    QEI_IRQHandler                           0x1a003045   Thumb Code     0  keil_startup_lpc18xx43xx.o(.text)
    RIT_IRQHandler                           0x1a003045   Thumb Code     0  keil_startup_lpc18xx43xx.o(.text)
    RTC_IRQHandler                           0x1a003045   Thumb Code     0  keil_startup_lpc18xx43xx.o(.text)
    SCT_IRQHandler                           0x1a003045   Thumb Code     0  keil_startup_lpc18xx43xx.o(.text)
    SDIO_IRQHandler                          0x1a003045   Thumb Code     0  keil_startup_lpc18xx43xx.o(.text)
    SGPIO_IRQHandler                         0x1a003045   Thumb Code     0  keil_startup_lpc18xx43xx.o(.text)
    SPIFI_IRQHandler                         0x1a003045   Thumb Code     0  keil_startup_lpc18xx43xx.o(.text)
    SPI_IRQHandler                           0x1a003045   Thumb Code     0  keil_startup_lpc18xx43xx.o(.text)
    SSP0_IRQHandler                          0x1a003045   Thumb Code     0  keil_startup_lpc18xx43xx.o(.text)
    SSP1_IRQHandler                          0x1a003045   Thumb Code     0  keil_startup_lpc18xx43xx.o(.text)
    TIMER1_IRQHandler                        0x1a003045   Thumb Code     0  keil_startup_lpc18xx43xx.o(.text)
    TIMER2_IRQHandler                        0x1a003045   Thumb Code     0  keil_startup_lpc18xx43xx.o(.text)
    TIMER3_IRQHandler                        0x1a003045   Thumb Code     0  keil_startup_lpc18xx43xx.o(.text)
    UART0_IRQHandler                         0x1a003045   Thumb Code     0  keil_startup_lpc18xx43xx.o(.text)
    UART1_IRQHandler                         0x1a003045   Thumb Code     0  keil_startup_lpc18xx43xx.o(.text)
    UART2_IRQHandler                         0x1a003045   Thumb Code     0  keil_startup_lpc18xx43xx.o(.text)
    USB0_IRQHandler                          0x1a003045   Thumb Code     0  keil_startup_lpc18xx43xx.o(.text)
    USB1_IRQHandler                          0x1a003045   Thumb Code     0  keil_startup_lpc18xx43xx.o(.text)
    WDT_IRQHandler                           0x1a003045   Thumb Code     0  keil_startup_lpc18xx43xx.o(.text)
    __user_initial_stackheap                 0x1a003049   Thumb Code     0  keil_startup_lpc18xx43xx.o(.text)
    SystemInit                               0x1a00306d   Thumb Code    20  sysinit.o(.text)
    scu_pinmux                               0x1a003089   Thumb Code    16  lpc43xx_scu.o(.text)
    emc_init                                 0x1a00309d   Thumb Code   944  lpc43xx_sdram.o(.text)
    sdram_init                               0x1a00344d   Thumb Code   144  lpc43xx_sdram.o(.text)
    SysTick_Handler                          0x1a0034f9   Thumb Code    18  main.o(.text)
    OS_CPU_SysTickInit                       0x1a00350b   Thumb Code    48  main.o(.text)
    uart_3_recv                              0x1a00353b   Thumb Code    76  main.o(.text)
    UART3_IRQHandler                         0x1a003587   Thumb Code    56  main.o(.text)
    shell_task                               0x1a0035bf   Thumb Code   134  main.o(.text)
    main                                     0x1a003645   Thumb Code    56  main.o(.text)
    ADC_Init                                 0x1a0036ed   Thumb Code    44  audiotask.o(.text)
    ADC_GetData                              0x1a003719   Thumb Code    34  audiotask.o(.text)
    speakerSndFrame                          0x1a00373b   Thumb Code    68  audiotask.o(.text)
    speakerBufferSoonEmpty                   0x1a00377f   Thumb Code     8  audiotask.o(.text)
    taskSpeaker                              0x1a003787   Thumb Code    98  audiotask.o(.text)
    TIMER0_IRQHandler                        0x1a003811   Thumb Code    84  speak.o(.text)
    speakerInit                              0x1a003865   Thumb Code    76  speak.o(.text)
    speakerOut                               0x1a0038b1   Thumb Code    72  speak.o(.text)
    Board_UARTPutChar                        0x1a003911   Thumb Code    26  board.o(.text)
    _sys_open                                0x1a00392b   Thumb Code     6  board.o(.text)
    fputc                                    0x1a003931   Thumb Code    20  board.o(.text)
    Board_UARTGetChar                        0x1a003945   Thumb Code    28  board.o(.text)
    fgetc                                    0x1a003961   Thumb Code    10  board.o(.text)
    ferror                                   0x1a00396b   Thumb Code     8  board.o(.text)
    _sys_exit                                0x1a003973   Thumb Code     6  board.o(.text)
    Board_UART_Init                          0x1a003b13   Thumb Code    88  board.o(.text)
    Board_Debug_Init                         0x1a003b6b   Thumb Code    42  board.o(.text)
    Board_UARTPutSTR                         0x1a003b95   Thumb Code    22  board.o(.text)
    Board_LED_Set                            0x1a003bc7   Thumb Code    28  board.o(.text)
    Board_LED_Test                           0x1a003be3   Thumb Code    28  board.o(.text)
    Board_LED_Toggle                         0x1a003bff   Thumb Code    24  board.o(.text)
    Board_ENET_GetMacADDR                    0x1a003c17   Thumb Code    22  board.o(.text)
    Board_Init                               0x1a003c2d   Thumb Code    66  board.o(.text)
    Board_ADC_Init                           0x1a003c6f   Thumb Code     2  board.o(.text)
    Board_I2C_Init                           0x1a003c71   Thumb Code    44  board.o(.text)
    Board_Audio_Init                         0x1a003c9d   Thumb Code    52  board.o(.text)
    Board_InitLCDController                  0x1a003cd1   Thumb Code   660  board.o(.text)
    Board_LCD_Init                           0x1a003f65   Thumb Code    36  board.o(.text)
    Board_InitTouchController                0x1a003f89   Thumb Code   202  board.o(.text)
    Board_I2C_GetTouchPos                    0x1a004053   Thumb Code   196  board.o(.text)
    Board_GetTouchPos                        0x1a004117   Thumb Code    60  board.o(.text)
    Board_SetLCDBacklight                    0x1a004153   Thumb Code    28  board.o(.text)
    Board_SDMMC_Init                         0x1a00416f   Thumb Code    74  board.o(.text)
    Board_SSP_Init                           0x1a0041b9   Thumb Code   106  board.o(.text)
    Board_Buttons_Init                       0x1a004223   Thumb Code    24  board.o(.text)
    Board_Joystick_Init                      0x1a00423b   Thumb Code   104  board.o(.text)
    Joystick_GetStatus                       0x1a0042a3   Thumb Code    96  board.o(.text)
    Buttons_GetStatus                        0x1a004303   Thumb Code    24  board.o(.text)
    Board_DAC_Init                           0x1a00431b   Thumb Code    18  board.o(.text)
    Board_SetupMuxing                        0x1a0043e5   Thumb Code    58  board_sysinit.o(.text)
    Board_SetupExtMemory                     0x1a00441f   Thumb Code    82  board_sysinit.o(.text)
    Board_SetupClocking                      0x1a004471   Thumb Code   160  board_sysinit.o(.text)
    Board_SystemInit                         0x1a004511   Thumb Code    12  board_sysinit.o(.text)
    UDA1380_REG_VerifyMult                   0x1a004555   Thumb Code    72  uda1380.o(.text)
    UDA1380_REG_WriteMult                    0x1a00459d   Thumb Code    30  uda1380.o(.text)
    UDA1380_REG_Write                        0x1a0045df   Thumb Code    36  uda1380.o(.text)
    UDA1380_REG_Read                         0x1a004603   Thumb Code    42  uda1380.o(.text)
    UDA1380_REG_WriteVerify                  0x1a00462d   Thumb Code    34  uda1380.o(.text)
    UDA1380_Init                             0x1a00464f   Thumb Code   118  uda1380.o(.text)
    __aeabi_uldivmod                         0x1a0046d9   Thumb Code     0  lludivv7m.o(.text)
    _ll_udiv                                 0x1a0046d9   Thumb Code   238  lludivv7m.o(.text)
    __2printf                                0x1a0047c9   Thumb Code    20  noretval__2printf.o(.text)
    __printf                                 0x1a0047e1   Thumb Code   104  __printf.o(.text)
    _printf_int_dec                          0x1a004849   Thumb Code   104  _printf_dec.o(.text)
    __aeabi_memclr4                          0x1a0048c1   Thumb Code     0  rt_memclr_w.o(.text)
    __aeabi_memclr8                          0x1a0048c1   Thumb Code     0  rt_memclr_w.o(.text)
    __rt_memclr_w                            0x1a0048c1   Thumb Code    78  rt_memclr_w.o(.text)
    _memset_w                                0x1a0048c5   Thumb Code     0  rt_memclr_w.o(.text)
    __use_two_region_memory                  0x1a00490f   Thumb Code     2  heapauxi.o(.text)
    __rt_heap_escrow$2region                 0x1a004911   Thumb Code     2  heapauxi.o(.text)
    __rt_heap_expand$2region                 0x1a004913   Thumb Code     2  heapauxi.o(.text)
    _printf_int_common                       0x1a004915   Thumb Code   178  _printf_intcommon.o(.text)
    _printf_char_file                        0x1a0049c9   Thumb Code    32  _printf_char_file.o(.text)
    _printf_char_common                      0x1a0049f7   Thumb Code    32  _printf_char_common.o(.text)
    __user_setup_stackheap                   0x1a004a1d   Thumb Code    74  sys_stackheap_outer.o(.text)
    exit                                     0x1a004a67   Thumb Code    18  exit.o(.text)
    __user_libspace                          0x1a004a79   Thumb Code     8  libspace.o(.text)
    __user_perproc_libspace                  0x1a004a79   Thumb Code     0  libspace.o(.text)
    __user_perthread_libspace                0x1a004a79   Thumb Code     0  libspace.o(.text)
    Chip_Clock_Enable                        0x1a004a81   Thumb Code    46  clock_18xx_43xx.o(i.Chip_Clock_Enable)
    Chip_Clock_EnableOpts                    0x1a004ab9   Thumb Code    52  clock_18xx_43xx.o(i.Chip_Clock_EnableOpts)
    Chip_Clock_GetBaseClock                  0x1a004b45   Thumb Code    32  clock_18xx_43xx.o(i.Chip_Clock_GetBaseClock)
    Chip_Clock_GetBaseClocktHz               0x1a004b69   Thumb Code    18  clock_18xx_43xx.o(i.Chip_Clock_GetBaseClocktHz)
    Chip_Clock_GetClockInputHz               0x1a004b7d   Thumb Code   182  clock_18xx_43xx.o(i.Chip_Clock_GetClockInputHz)
    Chip_Clock_GetDividerDivisor             0x1a004c79   Thumb Code    18  clock_18xx_43xx.o(i.Chip_Clock_GetDividerDivisor)
    Chip_Clock_GetDividerSource              0x1a004c99   Thumb Code    26  clock_18xx_43xx.o(i.Chip_Clock_GetDividerSource)
    Chip_Clock_GetEMCRate                    0x1a004cb9   Thumb Code    38  clock_18xx_43xx.o(i.Chip_Clock_GetEMCRate)
    Chip_Clock_GetMainPLLHz                  0x1a004ce9   Thumb Code   110  clock_18xx_43xx.o(i.Chip_Clock_GetMainPLLHz)
    Chip_Clock_GetRate                       0x1a004d61   Thumb Code    78  clock_18xx_43xx.o(i.Chip_Clock_GetRate)
    Chip_Clock_SetBaseClock                  0x1a004db9   Thumb Code    64  clock_18xx_43xx.o(i.Chip_Clock_SetBaseClock)
    Chip_Clock_SetDivider                    0x1a004e01   Thumb Code    64  clock_18xx_43xx.o(i.Chip_Clock_SetDivider)
    Chip_EMC_Dynamic_Init                    0x1a004e51   Thumb Code    22  emc_18xx_43xx.o(i.Chip_EMC_Dynamic_Init)
    Chip_EMC_Init                            0x1a004e6d   Thumb Code    40  emc_18xx_43xx.o(i.Chip_EMC_Init)
    Chip_EMC_Static_Init                     0x1a004e99   Thumb Code    22  emc_18xx_43xx.o(i.Chip_EMC_Static_Init)
    Chip_GPIO_Init                           0x1a004eb5   Thumb Code     2  gpio_18xx_43xx.o(i.Chip_GPIO_Init)
    Chip_I2C_EventHandler                    0x1a004eb9   Thumb Code    36  i2c_18xx_43xx.o(i.Chip_I2C_EventHandler)
    Chip_I2C_EventHandlerPolling             0x1a004ee1   Thumb Code    58  i2c_18xx_43xx.o(i.Chip_I2C_EventHandlerPolling)
    Chip_I2C_GetMasterEventHandler           0x1a004f21   Thumb Code    16  i2c_18xx_43xx.o(i.Chip_I2C_GetMasterEventHandler)
    Chip_I2C_Init                            0x1a004f35   Thumb Code    40  i2c_18xx_43xx.o(i.Chip_I2C_Init)
    Chip_I2C_IsStateChanged                  0x1a004f61   Thumb Code    20  i2c_18xx_43xx.o(i.Chip_I2C_IsStateChanged)
    Chip_I2C_MasterCmdRead                   0x1a004f79   Thumb Code    58  i2c_18xx_43xx.o(i.Chip_I2C_MasterCmdRead)
    Chip_I2C_MasterSend                      0x1a004fb3   Thumb Code    50  i2c_18xx_43xx.o(i.Chip_I2C_MasterSend)
    Chip_I2C_MasterStateHandler              0x1a004fe5   Thumb Code    50  i2c_18xx_43xx.o(i.Chip_I2C_MasterStateHandler)
    Chip_I2C_MasterTransfer                  0x1a00501d   Thumb Code   102  i2c_18xx_43xx.o(i.Chip_I2C_MasterTransfer)
    Chip_I2C_SetClockRate                    0x1a005089   Thumb Code    56  i2c_18xx_43xx.o(i.Chip_I2C_SetClockRate)
    Chip_I2C_SetMasterEventHandler           0x1a0050c5   Thumb Code    34  i2c_18xx_43xx.o(i.Chip_I2C_SetMasterEventHandler)
    Chip_I2S_Init                            0x1a0050ed   Thumb Code    12  i2s_18xx_43xx.o(i.Chip_I2S_Init)
    Chip_I2S_TxConfig                        0x1a0050f9   Thumb Code   122  i2s_18xx_43xx.o(i.Chip_I2S_TxConfig)
    Chip_RGU_InReset                         0x1a005175   Thumb Code    52  rgu_18xx_43xx.o(i.Chip_RGU_InReset)
    Chip_RGU_TriggerReset                    0x1a0051ad   Thumb Code    38  rgu_18xx_43xx.o(i.Chip_RGU_TriggerReset)
    Chip_SSP_Init                            0x1a005211   Thumb Code    56  ssp_18xx_43xx.o(i.Chip_SSP_Init)
    Chip_SSP_SetBitRate                      0x1a00525b   Thumb Code    70  ssp_18xx_43xx.o(i.Chip_SSP_SetBitRate)
    Chip_SSP_SetClockRate                    0x1a0052a1   Thumb Code    20  ssp_18xx_43xx.o(i.Chip_SSP_SetClockRate)
    Chip_SSP_SetMaster                       0x1a0052b5   Thumb Code    28  ssp_18xx_43xx.o(i.Chip_SSP_SetMaster)
    Chip_SSP_WriteFrames_Blocking            0x1a0052dd   Thumb Code   234  ssp_18xx_43xx.o(i.Chip_SSP_WriteFrames_Blocking)
    Chip_SetupCoreClock                      0x1a0053c7   Thumb Code    14  sysinit_18xx_43xx.o(i.Chip_SetupCoreClock)
    Chip_UART_Init                           0x1a005419   Thumb Code    72  uart_18xx_43xx.o(i.Chip_UART_Init)
    Chip_UART_SetBaud                        0x1a005465   Thumb Code    66  uart_18xx_43xx.o(i.Chip_UART_SetBaud)
    SystemCoreClockUpdate                    0x1a0054ad   Thumb Code    14  chip_18xx_43xx.o(i.SystemCoreClockUpdate)
    fpuInit                                  0x1a0055d9   Thumb Code    62  fpu_init.o(i.fpuInit)
    handleMasterXferState                    0x1a0057db   Thumb Code   224  i2c_18xx_43xx.o(i.handleMasterXferState)
    initDynMem                               0x1a0058bb   Thumb Code   488  emc_18xx_43xx.o(i.initDynMem)
    initStaticMem                            0x1a005aa3   Thumb Code   104  emc_18xx_43xx.o(i.initStaticMem)
    _fp_init                                 0x1a005b15   Thumb Code    10  fpinit.o(x$fpl$fpinit)
    __fplib_config_fpu_vfp                   0x1a005b1d   Thumb Code     0  fpinit.o(x$fpl$fpinit)
    __fplib_config_pureend_doubles           0x1a005b1d   Thumb Code     0  fpinit.o(x$fpl$fpinit)
    audio                                    0x1a005b1e   Data       63102  audiodata.o(.constdata)
    ad_left                                  0x1a0151ac   Data           4  board.o(.constdata)
    ad_top                                   0x1a0151b0   Data           4  board.o(.constdata)
    ad_right                                 0x1a0151b4   Data           4  board.o(.constdata)
    ad_bottom                                0x1a0151b8   Data           4  board.o(.constdata)
    MCB4300_LCD                              0x1a0151bc   Data          22  board.o(.constdata)
    ExtRateIn                                0x1a0151d4   Data           4  board.o(.constdata)
    OscRateIn                                0x1a0151d8   Data           4  board.o(.constdata)
    Region$$Table$$Base                      0x1a01556c   Number         0  anon$$obj.o(Region$$Table)
    Region$$Table$$Limit                     0x1a01558c   Number         0  anon$$obj.o(Region$$Table)



==============================================================================

Memory Map of the image

  Image Entry point : 0x1a000115

  Load Region LR_IROM1 (Base: 0x1a000000, Size: 0x00015644, Max: 0x00080000, ABSOLUTE)

    Execution Region RW_IRAM1 (Base: 0x10000000, Size: 0x00002028, Max: 0x00008000, ABSOLUTE)

    Base Addr    Size         Type   Attr      Idx    E Section Name        Object

    0x10000000   0x00000038   Data   RW            3    .data               raw-os.o
    0x10000038   0x00000018   Data   RW          669    .data               audiotask.o
    0x10000050   0x00000010   Data   RW          697    .data               speak.o
    0x10000060   0x00000014   Data   RW          726    .data               lib_lpc_board_keil_mcb_4357.lib(board.o)
    0x10000074   0x00000004   Data   RW         1011    .data               lib_lpc_chip_43xx.lib(chip_18xx_43xx.o)
    0x10000078   0x00000008   Data   RW         1498    .data               lib_lpc_chip_43xx.lib(clock_18xx_43xx.o)
    0x10000080   0x00000038   Data   RW         1844    .data               lib_lpc_chip_43xx.lib(i2c_18xx_43xx.o)
    0x100000b8   0x00000ddc   Zero   RW            2    .bss                raw-os.o
    0x10000e94   0x00000004   PAD
    0x10000e98   0x0000078c   Zero   RW          629    .bss                main.o
    0x10001624   0x000000a0   Zero   RW          667    .bss                audiotask.o
    0x100016c4   0x00000202   Zero   RW          696    .bss                speak.o
    0x100018c6   0x00000002   PAD
    0x100018c8   0x00000060   Zero   RW         2424    .bss                c_w.l(libspace.o)
    0x10001928   0x00000100   Zero   RW          338    HEAP                keil_startup_lpc18xx43xx.o
    0x10001a28   0x00000600   Zero   RW          337    STACK               keil_startup_lpc18xx43xx.o


    Execution Region ER_IROM1 (Base: 0x1a000000, Size: 0x0001558c, Max: 0x00080000, ABSOLUTE)

    Base Addr    Size         Type   Attr      Idx    E Section Name        Object

    0x1a000000   0x00000114   Data   RO          339    RESET               keil_startup_lpc18xx43xx.o
    0x1a000114   0x00000008   Code   RO         2374  * !!!main             c_w.l(__main.o)
    0x1a00011c   0x00000034   Code   RO         2550    !!!scatter          c_w.l(__scatter.o)
    0x1a000150   0x0000001a   Code   RO         2552    !!handler_copy      c_w.l(__scatter_copy.o)
    0x1a00016a   0x00000002   PAD
    0x1a00016c   0x0000001c   Code   RO         2554    !!handler_zi        c_w.l(__scatter_zi.o)
    0x1a000188   0x00000000   Code   RO         2367    .ARM.Collect$$_printf_percent$$00000000  c_w.l(_printf_percent.o)
    0x1a000188   0x00000006   Code   RO         2366    .ARM.Collect$$_printf_percent$$00000009  c_w.l(_printf_d.o)
    0x1a00018e   0x00000004   Code   RO         2385    .ARM.Collect$$_printf_percent$$00000017  c_w.l(_printf_percent_end.o)
    0x1a000192   0x00000002   Code   RO         2422    .ARM.Collect$$libinit$$00000000  c_w.l(libinit.o)
    0x1a000194   0x00000004   Code   RO         2434    .ARM.Collect$$libinit$$00000001  c_w.l(libinit2.o)
    0x1a000198   0x00000000   Code   RO         2437    .ARM.Collect$$libinit$$00000004  c_w.l(libinit2.o)
    0x1a000198   0x00000000   Code   RO         2440    .ARM.Collect$$libinit$$0000000A  c_w.l(libinit2.o)
    0x1a000198   0x00000000   Code   RO         2442    .ARM.Collect$$libinit$$0000000C  c_w.l(libinit2.o)
    0x1a000198   0x00000000   Code   RO         2444    .ARM.Collect$$libinit$$0000000E  c_w.l(libinit2.o)
    0x1a000198   0x00000000   Code   RO         2447    .ARM.Collect$$libinit$$00000011  c_w.l(libinit2.o)
    0x1a000198   0x00000000   Code   RO         2449    .ARM.Collect$$libinit$$00000013  c_w.l(libinit2.o)
    0x1a000198   0x00000000   Code   RO         2451    .ARM.Collect$$libinit$$00000015  c_w.l(libinit2.o)
    0x1a000198   0x00000000   Code   RO         2453    .ARM.Collect$$libinit$$00000017  c_w.l(libinit2.o)
    0x1a000198   0x00000000   Code   RO         2455    .ARM.Collect$$libinit$$00000019  c_w.l(libinit2.o)
    0x1a000198   0x00000000   Code   RO         2457    .ARM.Collect$$libinit$$0000001B  c_w.l(libinit2.o)
    0x1a000198   0x00000000   Code   RO         2459    .ARM.Collect$$libinit$$0000001D  c_w.l(libinit2.o)
    0x1a000198   0x00000000   Code   RO         2461    .ARM.Collect$$libinit$$0000001F  c_w.l(libinit2.o)
    0x1a000198   0x00000000   Code   RO         2463    .ARM.Collect$$libinit$$00000021  c_w.l(libinit2.o)
    0x1a000198   0x00000000   Code   RO         2465    .ARM.Collect$$libinit$$00000023  c_w.l(libinit2.o)
    0x1a000198   0x00000000   Code   RO         2467    .ARM.Collect$$libinit$$00000025  c_w.l(libinit2.o)
    0x1a000198   0x00000000   Code   RO         2471    .ARM.Collect$$libinit$$0000002C  c_w.l(libinit2.o)
    0x1a000198   0x00000000   Code   RO         2473    .ARM.Collect$$libinit$$0000002E  c_w.l(libinit2.o)
    0x1a000198   0x00000000   Code   RO         2475    .ARM.Collect$$libinit$$00000030  c_w.l(libinit2.o)
    0x1a000198   0x00000000   Code   RO         2477    .ARM.Collect$$libinit$$00000032  c_w.l(libinit2.o)
    0x1a000198   0x00000002   Code   RO         2478    .ARM.Collect$$libinit$$00000033  c_w.l(libinit2.o)
    0x1a00019a   0x00000002   Code   RO         2504    .ARM.Collect$$libshutdown$$00000000  c_w.l(libshutdown.o)
    0x1a00019c   0x00000000   Code   RO         2533    .ARM.Collect$$libshutdown$$00000002  c_w.l(libshutdown2.o)
    0x1a00019c   0x00000000   Code   RO         2535    .ARM.Collect$$libshutdown$$00000004  c_w.l(libshutdown2.o)
    0x1a00019c   0x00000000   Code   RO         2538    .ARM.Collect$$libshutdown$$00000007  c_w.l(libshutdown2.o)
    0x1a00019c   0x00000000   Code   RO         2541    .ARM.Collect$$libshutdown$$0000000A  c_w.l(libshutdown2.o)
    0x1a00019c   0x00000000   Code   RO         2543    .ARM.Collect$$libshutdown$$0000000C  c_w.l(libshutdown2.o)
    0x1a00019c   0x00000000   Code   RO         2546    .ARM.Collect$$libshutdown$$0000000F  c_w.l(libshutdown2.o)
    0x1a00019c   0x00000002   Code   RO         2547    .ARM.Collect$$libshutdown$$00000010  c_w.l(libshutdown2.o)
    0x1a00019e   0x00000000   Code   RO         2376    .ARM.Collect$$rtentry$$00000000  c_w.l(__rtentry.o)
    0x1a00019e   0x00000000   Code   RO         2389    .ARM.Collect$$rtentry$$00000002  c_w.l(__rtentry2.o)
    0x1a00019e   0x00000006   Code   RO         2401    .ARM.Collect$$rtentry$$00000004  c_w.l(__rtentry4.o)
    0x1a0001a4   0x00000000   Code   RO         2391    .ARM.Collect$$rtentry$$00000009  c_w.l(__rtentry2.o)
    0x1a0001a4   0x00000004   Code   RO         2392    .ARM.Collect$$rtentry$$0000000A  c_w.l(__rtentry2.o)
    0x1a0001a8   0x00000000   Code   RO         2394    .ARM.Collect$$rtentry$$0000000C  c_w.l(__rtentry2.o)
    0x1a0001a8   0x00000008   Code   RO         2395    .ARM.Collect$$rtentry$$0000000D  c_w.l(__rtentry2.o)
    0x1a0001b0   0x00000002   Code   RO         2426    .ARM.Collect$$rtexit$$00000000  c_w.l(rtexit.o)
    0x1a0001b2   0x00000000   Code   RO         2480    .ARM.Collect$$rtexit$$00000002  c_w.l(rtexit2.o)
    0x1a0001b2   0x00000004   Code   RO         2481    .ARM.Collect$$rtexit$$00000003  c_w.l(rtexit2.o)
    0x1a0001b6   0x00000006   Code   RO         2482    .ARM.Collect$$rtexit$$00000004  c_w.l(rtexit2.o)
    0x1a0001bc   0x00002968   Code   RO            1    .text               raw-os.o
    0x1a002b24   0x00000174   Code   RO          175    .text               fifo.o
    0x1a002c98   0x000000ac   Code   RO          266    .text               cpu.o
    0x1a002d44   0x000001b4   Code   RO          270    .text               port.o
    0x1a002ef8   0x0000001e   Code   RO          283    .text               port_hook.o
    0x1a002f16   0x00000088   Code   RO          301    .text               user_extension.o
    0x1a002f9e   0x00000058   Code   RO          313    .text               port_error_process.o
    0x1a002ff6   0x00000002   PAD
    0x1a002ff8   0x00000030   Code   RO          325    .text               port_extension.o
    0x1a003028   0x00000044   Code   RO          340    .text               keil_startup_lpc18xx43xx.o
    0x1a00306c   0x0000001c   Code   RO          346    .text               sysinit.o
    0x1a003088   0x00000014   Code   RO          572    .text               lpc43xx_scu.o
    0x1a00309c   0x0000045c   Code   RO          605    .text               lpc43xx_sdram.o
    0x1a0034f8   0x000001f4   Code   RO          628    .text               main.o
    0x1a0036ec   0x00000124   Code   RO          666    .text               audiotask.o
    0x1a003810   0x00000100   Code   RO          695    .text               speak.o
    0x1a003910   0x00000aa8   Code   RO          724    .text               lib_lpc_board_keil_mcb_4357.lib(board.o)
    0x1a0043b8   0x0000019c   Code   RO          958    .text               lib_lpc_board_keil_mcb_4357.lib(board_sysinit.o)
    0x1a004554   0x00000184   Code   RO         1433    .text               lib_lpc_board_keil_mcb_4357.lib(uda1380.o)
    0x1a0046d8   0x000000ee   Code   RO         2336    .text               c_w.l(lludivv7m.o)
    0x1a0047c6   0x00000002   PAD
    0x1a0047c8   0x00000018   Code   RO         2340    .text               c_w.l(noretval__2printf.o)
    0x1a0047e0   0x00000068   Code   RO         2342    .text               c_w.l(__printf.o)
    0x1a004848   0x00000078   Code   RO         2344    .text               c_w.l(_printf_dec.o)
    0x1a0048c0   0x0000004e   Code   RO         2370    .text               c_w.l(rt_memclr_w.o)
    0x1a00490e   0x00000006   Code   RO         2372    .text               c_w.l(heapauxi.o)
    0x1a004914   0x000000b2   Code   RO         2381    .text               c_w.l(_printf_intcommon.o)
    0x1a0049c6   0x00000002   PAD
    0x1a0049c8   0x00000024   Code   RO         2383    .text               c_w.l(_printf_char_file.o)
    0x1a0049ec   0x00000030   Code   RO         2405    .text               c_w.l(_printf_char_common.o)
    0x1a004a1c   0x0000004a   Code   RO         2407    .text               c_w.l(sys_stackheap_outer.o)
    0x1a004a66   0x00000012   Code   RO         2411    .text               c_w.l(exit.o)
    0x1a004a78   0x00000008   Code   RO         2423    .text               c_w.l(libspace.o)
    0x1a004a80   0x00000038   Code   RO         1468    i.Chip_Clock_Enable  lib_lpc_chip_43xx.lib(clock_18xx_43xx.o)
    0x1a004ab8   0x0000003c   Code   RO         1472    i.Chip_Clock_EnableOpts  lib_lpc_chip_43xx.lib(clock_18xx_43xx.o)
    0x1a004af4   0x00000050   Code   RO         1474    i.Chip_Clock_FindBaseClock  lib_lpc_chip_43xx.lib(clock_18xx_43xx.o)
    0x1a004b44   0x00000024   Code   RO         1475    i.Chip_Clock_GetBaseClock  lib_lpc_chip_43xx.lib(clock_18xx_43xx.o)
    0x1a004b68   0x00000012   Code   RO         1477    i.Chip_Clock_GetBaseClocktHz  lib_lpc_chip_43xx.lib(clock_18xx_43xx.o)
    0x1a004b7a   0x00000002   PAD
    0x1a004b7c   0x000000d4   Code   RO         1478    i.Chip_Clock_GetClockInputHz  lib_lpc_chip_43xx.lib(clock_18xx_43xx.o)
    0x1a004c50   0x00000028   Code   RO         1479    i.Chip_Clock_GetDivRate  lib_lpc_chip_43xx.lib(clock_18xx_43xx.o)
    0x1a004c78   0x00000020   Code   RO         1480    i.Chip_Clock_GetDividerDivisor  lib_lpc_chip_43xx.lib(clock_18xx_43xx.o)
    0x1a004c98   0x00000020   Code   RO         1481    i.Chip_Clock_GetDividerSource  lib_lpc_chip_43xx.lib(clock_18xx_43xx.o)
    0x1a004cb8   0x00000030   Code   RO         1482    i.Chip_Clock_GetEMCRate  lib_lpc_chip_43xx.lib(clock_18xx_43xx.o)
    0x1a004ce8   0x00000078   Code   RO         1483    i.Chip_Clock_GetMainPLLHz  lib_lpc_chip_43xx.lib(clock_18xx_43xx.o)
    0x1a004d60   0x00000058   Code   RO         1485    i.Chip_Clock_GetRate  lib_lpc_chip_43xx.lib(clock_18xx_43xx.o)
    0x1a004db8   0x00000048   Code   RO         1489    i.Chip_Clock_SetBaseClock  lib_lpc_chip_43xx.lib(clock_18xx_43xx.o)
    0x1a004e00   0x00000050   Code   RO         1490    i.Chip_Clock_SetDivider  lib_lpc_chip_43xx.lib(clock_18xx_43xx.o)
    0x1a004e50   0x0000001c   Code   RO         1686    i.Chip_EMC_Dynamic_Init  lib_lpc_chip_43xx.lib(emc_18xx_43xx.o)
    0x1a004e6c   0x0000002c   Code   RO         1688    i.Chip_EMC_Init     lib_lpc_chip_43xx.lib(emc_18xx_43xx.o)
    0x1a004e98   0x0000001c   Code   RO         1691    i.Chip_EMC_Static_Init  lib_lpc_chip_43xx.lib(emc_18xx_43xx.o)
    0x1a004eb4   0x00000002   Code   RO         1764    i.Chip_GPIO_Init    lib_lpc_chip_43xx.lib(gpio_18xx_43xx.o)
    0x1a004eb6   0x00000002   PAD
    0x1a004eb8   0x00000028   Code   RO         1818    i.Chip_I2C_EventHandler  lib_lpc_chip_43xx.lib(i2c_18xx_43xx.o)
    0x1a004ee0   0x00000040   Code   RO         1819    i.Chip_I2C_EventHandlerPolling  lib_lpc_chip_43xx.lib(i2c_18xx_43xx.o)
    0x1a004f20   0x00000014   Code   RO         1821    i.Chip_I2C_GetMasterEventHandler  lib_lpc_chip_43xx.lib(i2c_18xx_43xx.o)
    0x1a004f34   0x0000002c   Code   RO         1822    i.Chip_I2C_Init     lib_lpc_chip_43xx.lib(i2c_18xx_43xx.o)
    0x1a004f60   0x00000018   Code   RO         1824    i.Chip_I2C_IsStateChanged  lib_lpc_chip_43xx.lib(i2c_18xx_43xx.o)
    0x1a004f78   0x0000003a   Code   RO         1825    i.Chip_I2C_MasterCmdRead  lib_lpc_chip_43xx.lib(i2c_18xx_43xx.o)
    0x1a004fb2   0x00000032   Code   RO         1827    i.Chip_I2C_MasterSend  lib_lpc_chip_43xx.lib(i2c_18xx_43xx.o)
    0x1a004fe4   0x00000038   Code   RO         1828    i.Chip_I2C_MasterStateHandler  lib_lpc_chip_43xx.lib(i2c_18xx_43xx.o)
    0x1a00501c   0x0000006c   Code   RO         1829    i.Chip_I2C_MasterTransfer  lib_lpc_chip_43xx.lib(i2c_18xx_43xx.o)
    0x1a005088   0x0000003c   Code   RO         1830    i.Chip_I2C_SetClockRate  lib_lpc_chip_43xx.lib(i2c_18xx_43xx.o)
    0x1a0050c4   0x00000028   Code   RO         1831    i.Chip_I2C_SetMasterEventHandler  lib_lpc_chip_43xx.lib(i2c_18xx_43xx.o)
    0x1a0050ec   0x0000000c   Code   RO         1992    i.Chip_I2S_Init     lib_lpc_chip_43xx.lib(i2s_18xx_43xx.o)
    0x1a0050f8   0x0000007a   Code   RO         1996    i.Chip_I2S_TxConfig  lib_lpc_chip_43xx.lib(i2s_18xx_43xx.o)
    0x1a005172   0x00000002   PAD
    0x1a005174   0x00000038   Code   RO         2057    i.Chip_RGU_InReset  lib_lpc_chip_43xx.lib(rgu_18xx_43xx.o)
    0x1a0051ac   0x0000002c   Code   RO         2058    i.Chip_RGU_TriggerReset  lib_lpc_chip_43xx.lib(rgu_18xx_43xx.o)
    0x1a0051d8   0x00000004   Code   RO         2088    i.Chip_SSP_ClearIntPending  lib_lpc_chip_43xx.lib(ssp_18xx_43xx.o)
    0x1a0051dc   0x00000014   Code   RO         2090    i.Chip_SSP_GetClockIndex  lib_lpc_chip_43xx.lib(ssp_18xx_43xx.o)
    0x1a0051f0   0x00000010   Code   RO         2091    i.Chip_SSP_GetRawIntStatus  lib_lpc_chip_43xx.lib(ssp_18xx_43xx.o)
    0x1a005200   0x00000010   Code   RO         2092    i.Chip_SSP_GetStatus  lib_lpc_chip_43xx.lib(ssp_18xx_43xx.o)
    0x1a005210   0x0000003c   Code   RO         2093    i.Chip_SSP_Init     lib_lpc_chip_43xx.lib(ssp_18xx_43xx.o)
    0x1a00524c   0x00000008   Code   RO         2099    i.Chip_SSP_ReceiveFrame  lib_lpc_chip_43xx.lib(ssp_18xx_43xx.o)
    0x1a005254   0x00000006   Code   RO         2100    i.Chip_SSP_SendFrame  lib_lpc_chip_43xx.lib(ssp_18xx_43xx.o)
    0x1a00525a   0x00000046   Code   RO         2101    i.Chip_SSP_SetBitRate  lib_lpc_chip_43xx.lib(ssp_18xx_43xx.o)
    0x1a0052a0   0x00000014   Code   RO         2102    i.Chip_SSP_SetClockRate  lib_lpc_chip_43xx.lib(ssp_18xx_43xx.o)
    0x1a0052b4   0x0000001c   Code   RO         2103    i.Chip_SSP_SetMaster  lib_lpc_chip_43xx.lib(ssp_18xx_43xx.o)
    0x1a0052d0   0x0000000c   Code   RO         2104    i.Chip_SSP_Set_Mode  lib_lpc_chip_43xx.lib(ssp_18xx_43xx.o)
    0x1a0052dc   0x000000ea   Code   RO         2105    i.Chip_SSP_WriteFrames_Blocking  lib_lpc_chip_43xx.lib(ssp_18xx_43xx.o)
    0x1a0053c6   0x0000000e   Code   RO         2226    i.Chip_SetupCoreClock  lib_lpc_chip_43xx.lib(sysinit_18xx_43xx.o)
    0x1a0053d4   0x0000000a   Code   RO         1239    i.Chip_UART_DisableDivisorAccess  lib_lpc_chip_43xx.lib(uart_18xx_43xx.o)
    0x1a0053de   0x0000000a   Code   RO         1240    i.Chip_UART_EnableDivisorAccess  lib_lpc_chip_43xx.lib(uart_18xx_43xx.o)
    0x1a0053e8   0x00000030   Code   RO         1242    i.Chip_UART_GetClockIndex  lib_lpc_chip_43xx.lib(uart_18xx_43xx.o)
    0x1a005418   0x0000004c   Code   RO         1244    i.Chip_UART_Init    lib_lpc_chip_43xx.lib(uart_18xx_43xx.o)
    0x1a005464   0x00000042   Code   RO         1256    i.Chip_UART_SetBaud  lib_lpc_chip_43xx.lib(uart_18xx_43xx.o)
    0x1a0054a6   0x00000006   Code   RO         1258    i.Chip_UART_SetDivisorLatches  lib_lpc_chip_43xx.lib(uart_18xx_43xx.o)
    0x1a0054ac   0x00000014   Code   RO         1009    i.SystemCoreClockUpdate  lib_lpc_chip_43xx.lib(chip_18xx_43xx.o)
    0x1a0054c0   0x00000024   Code   RO         2230    i.clock_init_delay  lib_lpc_chip_43xx.lib(sysinit_18xx_43xx.o)
    0x1a0054e4   0x000000bc   Code   RO         2231    i.clock_main_init   lib_lpc_chip_43xx.lib(sysinit_18xx_43xx.o)
    0x1a0055a0   0x00000038   Code   RO         1692    i.convertTimmingParam  lib_lpc_chip_43xx.lib(emc_18xx_43xx.o)
    0x1a0055d8   0x00000050   Code   RO         1410    i.fpuInit           lib_lpc_chip_43xx.lib(fpu_init.o)
    0x1a005628   0x00000162   Code   RO         1997    i.getClkDiv         lib_lpc_chip_43xx.lib(i2s_18xx_43xx.o)
    0x1a00578a   0x00000002   PAD
    0x1a00578c   0x0000001c   Code   RO         1834    i.getClkRate        lib_lpc_chip_43xx.lib(i2c_18xx_43xx.o)
    0x1a0057a8   0x00000028   Code   RO         1693    i.getColsLen        lib_lpc_chip_43xx.lib(emc_18xx_43xx.o)
    0x1a0057d0   0x0000000a   Code   RO         1835    i.getCurState       lib_lpc_chip_43xx.lib(i2c_18xx_43xx.o)
    0x1a0057da   0x000000e0   Code   RO         1837    i.handleMasterXferState  lib_lpc_chip_43xx.lib(i2c_18xx_43xx.o)
    0x1a0058ba   0x000001e8   Code   RO         1694    i.initDynMem        lib_lpc_chip_43xx.lib(emc_18xx_43xx.o)
    0x1a005aa2   0x00000068   Code   RO         1695    i.initStaticMem     lib_lpc_chip_43xx.lib(emc_18xx_43xx.o)
    0x1a005b0a   0x0000000a   Code   RO         1842    i.startSlaverXfer   lib_lpc_chip_43xx.lib(i2c_18xx_43xx.o)
    0x1a005b14   0x0000000a   Code   RO         2492    x$fpl$fpinit        fz_wm.l(fpinit.o)
    0x1a005b1e   0x0000f67e   Data   RO          657    .constdata          audiodata.o
    0x1a01519c   0x00000040   Data   RO          725    .constdata          lib_lpc_board_keil_mcb_4357.lib(board.o)
    0x1a0151dc   0x000002bc   Data   RO          959    .constdata          lib_lpc_board_keil_mcb_4357.lib(board_sysinit.o)
    0x1a015498   0x0000001f   Data   RO         1434    .constdata          lib_lpc_board_keil_mcb_4357.lib(uda1380.o)
    0x1a0154b7   0x00000001   PAD
    0x1a0154b8   0x0000006c   Data   RO         1497    .constdata          lib_lpc_chip_43xx.lib(clock_18xx_43xx.o)
    0x1a015524   0x00000048   Data   RO         2232    .constdata          lib_lpc_chip_43xx.lib(sysinit_18xx_43xx.o)
    0x1a01556c   0x00000020   Data   RO         2548    Region$$Table       anon$$obj.o


==============================================================================

Image component sizes


      Code (inc. data)   RO Data    RW Data    ZI Data      Debug   Object Name

         0          0      63102          0          0        448   audiodata.o
       292         40          0         24        160       3130   audiotask.o
       172         16          0          0          0        384   cpu.o
       372          0          0          0          0       8852   fifo.o
        68         28        276          0       1792        936   keil_startup_lpc18xx43xx.o
        20          4          0          0          0       1049   lpc43xx_scu.o
      1116         28          0          0          0       2138   lpc43xx_sdram.o
       500         58          0          0       1932      36106   main.o
       436         16          0          0          0       3622   port.o
        88          0          0          0          0       1340   port_error_process.o
        48         10          0          0          0        941   port_extension.o
        30          0          0          0          0       1963   port_hook.o
     10600        300          0         56       3548      84107   raw-os.o
       256         24          0         16        514      28963   speak.o
        28          8          0          0          0       5141   sysinit.o
       136          0          0          0          0       1856   user_extension.o

    ----------------------------------------------------------------------
     14164        532      63410         96       7952     180976   Object Totals
         0          0         32          0          0          0   (incl. Generated)
         2          0          0          0          6          0   (incl. Padding)

    ----------------------------------------------------------------------

      Code (inc. data)   RO Data    RW Data    ZI Data      Debug   Library Member Name

         8          0          0          0          0         68   __main.o
       104          0          0          0          0         84   __printf.o
         0          0          0          0          0          0   __rtentry.o
        12          0          0          0          0          0   __rtentry2.o
         6          0          0          0          0          0   __rtentry4.o
        52          8          0          0          0          0   __scatter.o
        26          0          0          0          0          0   __scatter_copy.o
        28          0          0          0          0          0   __scatter_zi.o
        48          6          0          0          0         96   _printf_char_common.o
        36          4          0          0          0         80   _printf_char_file.o
         6          0          0          0          0          0   _printf_d.o
       120         16          0          0          0         92   _printf_dec.o
       178          0          0          0          0         88   _printf_intcommon.o
         0          0          0          0          0          0   _printf_percent.o
         4          0          0          0          0          0   _printf_percent_end.o
        18          0          0          0          0         80   exit.o
         6          0          0          0          0        152   heapauxi.o
         2          0          0          0          0          0   libinit.o
         6          0          0          0          0          0   libinit2.o
         2          0          0          0          0          0   libshutdown.o
         2          0          0          0          0          0   libshutdown2.o
         8          4          0          0         96         68   libspace.o
       238          0          0          0          0        100   lludivv7m.o
        24          4          0          0          0         84   noretval__2printf.o
        78          0          0          0          0         80   rt_memclr_w.o
         2          0          0          0          0          0   rtexit.o
        10          0          0          0          0          0   rtexit2.o
        74          0          0          0          0         80   sys_stackheap_outer.o
        10          0          0          0          0        116   fpinit.o
      2728        102         64         20          0      62486   board.o
       412         56        700          0          0      10122   board_sysinit.o
       388         20         31          0          0       3135   uda1380.o
        20          6          0          4          0      26534   chip_18xx_43xx.o
       974        150        108          8          0       9866   clock_18xx_43xx.o
       788         22          0          0          0       5204   emc_18xx_43xx.o
        80         18          0          0          0       1234   fpu_init.o
         2          0          0          0          0       3265   gpio_18xx_43xx.o
       836         62          0         56          0      10510   i2c_18xx_43xx.o
       488          0          0          0          0       2828   i2s_18xx_43xx.o
       100         10          0          0          0       1447   rgu_18xx_43xx.o
       494          8          0          0          0      11299   ssp_18xx_43xx.o
       238         20         72          0          0       2286   sysinit_18xx_43xx.o
       216         16          0          0          0       9189   uart_18xx_43xx.o

    ----------------------------------------------------------------------
      8886        532        976         88         96     160673   Library Totals
        14          0          1          0          0          0   (incl. Padding)

    ----------------------------------------------------------------------

      Code (inc. data)   RO Data    RW Data    ZI Data      Debug   Library Name

      1098         42          0          0         96       1152   c_w.l
        10          0          0          0          0        116   fz_wm.l
      3528        178        795         20          0      75743   lib_lpc_board_keil_mcb_4357.lib
      4236        312        180         68          0      83662   lib_lpc_chip_43xx.lib

    ----------------------------------------------------------------------
      8886        532        976         88         96     160673   Library Totals

    ----------------------------------------------------------------------

==============================================================================


      Code (inc. data)   RO Data    RW Data    ZI Data      Debug   

     23050       1064      64386        184       8048     332081   Grand Totals
     23050       1064      64386        184       8048     332081   ELF Image Totals
     23050       1064      64386        184          0          0   ROM Totals

==============================================================================

    Total RO  Size (Code + RO Data)                87436 (  85.39kB)
    Total RW  Size (RW Data + ZI Data)              8232 (   8.04kB)
    Total ROM Size (Code + RO Data + RW Data)      87620 (  85.57kB)

==============================================================================

