Component: ARM Compiler 5.06 (build 20) Tool: armlink [4d35a3]

==============================================================================

Section Cross References

    raw-os.o(.text) refers to cpu.o(.text) for OS_CPU_SR_Save
    raw-os.o(.text) refers to port_error_process_1.o(.text) for port_system_error_process
    raw-os.o(.text) refers to raw-os.o(.data) for .data
    raw-os.o(.text) refers to raw-os.o(.bss) for .bss
    raw-os.o(.text) refers to user_extension_1.o(.text) for raw_memset
    raw-os.o(.text) refers to port_1.o(.text) for port_stack_init
    raw-os.o(.text) refers to port_hook_1.o(.text) for task_create_hook
    raw-os.o(.text) refers to port_extension_1.o(.text) for user_sys_time_get
    raw-os.o(.text) refers to lludivv7m.o(.text) for __aeabi_uldivmod
    fifo.o(.text) refers to cpu.o(.text) for OS_CPU_SR_Save
    fifo.o(.text) refers to user_extension_1.o(.text) for raw_memcpy
    rsh.o(.text) refers to cpu.o(.text) for OS_CPU_SR_Save
    rsh.o(.text) refers to string.o(.text) for raw_strncmp
    rsh.o(.text) refers to user_extension_1.o(.text) for raw_memset
    rsh.o(.text) refers to rsh.o(.data) for .data
    rsh.o(.text) refers to rsh.o(.conststring) for .conststring
    rsh.o(.constdata) refers to rsh.o(.conststring) for .conststring
    rsh.o(.constdata) refers to rsh.o(.text) for rsh_help_command
==============================================================================

Removing Unused input sections from the image.

    Removing rsh.o(.text), (472 bytes).
    Removing rsh.o(.constdata), (16 bytes).
    Removing rsh.o(.conststring), (50 bytes).
    Removing rsh.o(.conststring), (173 bytes).
    Removing rsh.o(.data), (20 bytes).
    Removing string.o(.text), (592 bytes).
    Removing sysinit.o(.rev16_text), (4 bytes).
    Removing sysinit.o(.revsh_text), (4 bytes).
    Removing lpc43xx_scu.o(.rev16_text), (4 bytes).
    Removing lpc43xx_scu.o(.revsh_text), (4 bytes).
    Removing lpc43xx_sdram.o(.rev16_text), (4 bytes).
    Removing lpc43xx_sdram.o(.revsh_text), (4 bytes).
    Removing k9f1g08.o(.rev16_text), (4 bytes).
    Removing k9f1g08.o(.revsh_text), (4 bytes).
    Removing lpc43xx_gpio.o(.rev16_text), (4 bytes).
    Removing lpc43xx_gpio.o(.revsh_text), (4 bytes).
    Removing main.o(.rev16_text), (4 bytes).
    Removing main.o(.revsh_text), (4 bytes).
==============================================================================

Image Symbol Table

    Local Symbols

    Symbol Name                              Value     Ov Type        Size  Object(Section)

    ../clib/angel/boardlib.s                 0x00000000   Number         0  boardshut.o ABSOLUTE
    ../clib/angel/boardlib.s                 0x00000000   Number         0  boardinit1.o ABSOLUTE
    ../clib/angel/boardlib.s                 0x00000000   Number         0  boardinit2.o ABSOLUTE
    ../clib/angel/boardlib.s                 0x00000000   Number         0  boardinit3.o ABSOLUTE
    ../clib/angel/handlers.s                 0x00000000   Number         0  __scatter_zi.o ABSOLUTE
    ../clib/angel/handlers.s                 0x00000000   Number         0  __scatter_copy.o ABSOLUTE
    ../clib/angel/kernel.s                   0x00000000   Number         0  rtexit.o ABSOLUTE
    ../clib/angel/kernel.s                   0x00000000   Number         0  __rtentry4.o ABSOLUTE
    ../clib/angel/kernel.s                   0x00000000   Number         0  __rtentry2.o ABSOLUTE
    ../clib/angel/kernel.s                   0x00000000   Number         0  __rtentry.o ABSOLUTE
    ../clib/angel/kernel.s                   0x00000000   Number         0  rtexit2.o ABSOLUTE
    ../clib/angel/rt.s                       0x00000000   Number         0  rt_div0.o ABSOLUTE
    ../clib/angel/rt.s                       0x00000000   Number         0  rt_ctype_table.o ABSOLUTE
    ../clib/angel/rt.s                       0x00000000   Number         0  aeabi_ldiv0.o ABSOLUTE
    ../clib/angel/rt.s                       0x00000000   Number         0  rt_locale.o ABSOLUTE
    ../clib/angel/rt.s                       0x00000000   Number         0  rt_locale_intlibspace.o ABSOLUTE
    ../clib/angel/rt.s                       0x00000000   Number         0  aeabi_ldiv0_sigfpe.o ABSOLUTE
    ../clib/angel/rt.s                       0x00000000   Number         0  rt_raise.o ABSOLUTE
    ../clib/angel/scatter.s                  0x00000000   Number         0  __scatter.o ABSOLUTE
    ../clib/angel/startup.s                  0x00000000   Number         0  __main.o ABSOLUTE
    ../clib/angel/sys.s                      0x00000000   Number         0  sys_stackheap_outer.o ABSOLUTE
    ../clib/angel/sys.s                      0x00000000   Number         0  libspace.o ABSOLUTE
    ../clib/angel/sys.s                      0x00000000   Number         0  use_no_semi.o ABSOLUTE
    ../clib/angel/sys.s                      0x00000000   Number         0  indicate_semi.o ABSOLUTE
    ../clib/angel/sysapp.c                   0x00000000   Number         0  sys_command.o ABSOLUTE
    ../clib/angel/sysapp.c                   0x00000000   Number         0  getenv.o ABSOLUTE
    ../clib/angel/sysapp.c                   0x00000000   Number         0  sys_wrch.o ABSOLUTE
    ../clib/armsys.c                         0x00000000   Number         0  no_argv.o ABSOLUTE
    ../clib/armsys.c                         0x00000000   Number         0  argv_veneer.o ABSOLUTE
    ../clib/armsys.c                         0x00000000   Number         0  _get_argv_nomalloc.o ABSOLUTE
    ../clib/armsys.c                         0x00000000   Number         0  argv_veneer.o ABSOLUTE
    ../clib/ctype.c                          0x00000000   Number         0  isspace.o ABSOLUTE
    ../clib/heapalloc.c                      0x00000000   Number         0  hrguard.o ABSOLUTE
    ../clib/heapaux.c                        0x00000000   Number         0  heapauxi.o ABSOLUTE
    ../clib/libinit.s                        0x00000000   Number         0  libinit.o ABSOLUTE
    ../clib/libinit.s                        0x00000000   Number         0  libshutdown.o ABSOLUTE
    ../clib/libinit.s                        0x00000000   Number         0  libinit2.o ABSOLUTE
    ../clib/libinit.s                        0x00000000   Number         0  libshutdown2.o ABSOLUTE
    ../clib/locale.c                         0x00000000   Number         0  _wcrtomb.o ABSOLUTE
    ../clib/locale.s                         0x00000000   Number         0  lc_ctype_c.o ABSOLUTE
    ../clib/longlong.s                       0x00000000   Number         0  lludiv10.o ABSOLUTE
    ../clib/longlong.s                       0x00000000   Number         0  lludivv7m.o ABSOLUTE
    ../clib/memcpset.s                       0x00000000   Number         0  rt_memcpy_v6.o ABSOLUTE
    ../clib/memcpset.s                       0x00000000   Number         0  aeabi_memset.o ABSOLUTE
    ../clib/memcpset.s                       0x00000000   Number         0  rt_memclr.o ABSOLUTE
    ../clib/memcpset.s                       0x00000000   Number         0  rt_memclr_w.o ABSOLUTE
    ../clib/memcpset.s                       0x00000000   Number         0  strncpy.o ABSOLUTE
    ../clib/memcpset.s                       0x00000000   Number         0  strcmpv7m.o ABSOLUTE
    ../clib/memcpset.s                       0x00000000   Number         0  rt_memcpy_w.o ABSOLUTE
    ../clib/misc.s                           0x00000000   Number         0  printf_stubs.o ABSOLUTE
    ../clib/printf.c                         0x00000000   Number         0  __printf_ss_wp.o ABSOLUTE
    ../clib/printf.c                         0x00000000   Number         0  __printf_wp.o ABSOLUTE
    ../clib/printf.c                         0x00000000   Number         0  __printf_flags_ss.o ABSOLUTE
    ../clib/printf.c                         0x00000000   Number         0  _printf_hex_ll.o ABSOLUTE
    ../clib/printf.c                         0x00000000   Number         0  __printf_ss.o ABSOLUTE
    ../clib/printf.c                         0x00000000   Number         0  _printf_hex_ptr.o ABSOLUTE
    ../clib/printf.c                         0x00000000   Number         0  _printf_oct_int_ll.o ABSOLUTE
    ../clib/printf.c                         0x00000000   Number         0  __printf_flags.o ABSOLUTE
    ../clib/printf.c                         0x00000000   Number         0  _printf_hex_int_ll_ptr.o ABSOLUTE
    ../clib/printf.c                         0x00000000   Number         0  _printf_hex_ll_ptr.o ABSOLUTE
    ../clib/printf.c                         0x00000000   Number         0  _printf_intcommon.o ABSOLUTE
    ../clib/printf.c                         0x00000000   Number         0  _printf_char_common.o ABSOLUTE
    ../clib/printf.c                         0x00000000   Number         0  _printf_oct_ll.o ABSOLUTE
    ../clib/printf.c                         0x00000000   Number         0  _printf_longlong_dec.o ABSOLUTE
    ../clib/printf.c                         0x00000000   Number         0  _printf_wctomb.o ABSOLUTE
    ../clib/printf.c                         0x00000000   Number         0  _printf_hex_int_ptr.o ABSOLUTE
    ../clib/printf.c                         0x00000000   Number         0  _printf_dec.o ABSOLUTE
    ../clib/printf.c                         0x00000000   Number         0  _sputc.o ABSOLUTE
    ../clib/printf.c                         0x00000000   Number         0  _printf_str.o ABSOLUTE
    ../clib/printf.c                         0x00000000   Number         0  _printf_truncate.o ABSOLUTE
    ../clib/printf.c                         0x00000000   Number         0  _printf_pad.o ABSOLUTE
    ../clib/printf.c                         0x00000000   Number         0  __printf.o ABSOLUTE
    ../clib/printf.c                         0x00000000   Number         0  noretval__2sprintf.o ABSOLUTE
    ../clib/printf.c                         0x00000000   Number         0  _printf_char.o ABSOLUTE
    ../clib/printf.c                         0x00000000   Number         0  noretval__2fprintf.o ABSOLUTE
    ../clib/printf.c                         0x00000000   Number         0  noretval__2printf.o ABSOLUTE
    ../clib/printf.c                         0x00000000   Number         0  _printf_charcount.o ABSOLUTE
    ../clib/printf.c                         0x00000000   Number         0  __2sprintf.o ABSOLUTE
    ../clib/printf.c                         0x00000000   Number         0  __2fprintf.o ABSOLUTE
    ../clib/printf.c                         0x00000000   Number         0  _printf_wchar.o ABSOLUTE
    ../clib/printf.c                         0x00000000   Number         0  __2printf.o ABSOLUTE
    ../clib/printf.c                         0x00000000   Number         0  __printf_flags_wp.o ABSOLUTE
    ../clib/printf.c                         0x00000000   Number         0  __printf_nopercent.o ABSOLUTE
    ../clib/printf.c                         0x00000000   Number         0  _printf_hex_int_ll.o ABSOLUTE
    ../clib/printf.c                         0x00000000   Number         0  _printf_oct_int.o ABSOLUTE
    ../clib/printf.c                         0x00000000   Number         0  __printf_flags_ss_wp.o ABSOLUTE
    ../clib/printf.c                         0x00000000   Number         0  _printf_hex_int.o ABSOLUTE
    ../clib/printf.c                         0x00000000   Number         0  _printf_char_file.o ABSOLUTE
    ../clib/printf_percent.s                 0x00000000   Number         0  _printf_d.o ABSOLUTE
    ../clib/printf_percent.s                 0x00000000   Number         0  _printf_x.o ABSOLUTE
    ../clib/printf_percent.s                 0x00000000   Number         0  _printf_n.o ABSOLUTE
    ../clib/printf_percent.s                 0x00000000   Number         0  _printf_c.o ABSOLUTE
    ../clib/printf_percent.s                 0x00000000   Number         0  _printf_s.o ABSOLUTE
    ../clib/printf_percent.s                 0x00000000   Number         0  _printf_ll.o ABSOLUTE
    ../clib/printf_percent.s                 0x00000000   Number         0  _printf_i.o ABSOLUTE
    ../clib/printf_percent.s                 0x00000000   Number         0  _printf_percent_end.o ABSOLUTE
    ../clib/printf_percent.s                 0x00000000   Number         0  _printf_o.o ABSOLUTE
    ../clib/printf_percent.s                 0x00000000   Number         0  _printf_l.o ABSOLUTE
    ../clib/printf_percent.s                 0x00000000   Number         0  _printf_lc.o ABSOLUTE
    ../clib/printf_percent.s                 0x00000000   Number         0  _printf_lld.o ABSOLUTE
    ../clib/printf_percent.s                 0x00000000   Number         0  _printf_percent.o ABSOLUTE
    ../clib/printf_percent.s                 0x00000000   Number         0  _printf_u.o ABSOLUTE
    ../clib/printf_percent.s                 0x00000000   Number         0  _printf_p.o ABSOLUTE
    ../clib/scanf.c                          0x00000000   Number         0  __0sscanf.o ABSOLUTE
    ../clib/scanf.c                          0x00000000   Number         0  _chval.o ABSOLUTE
    ../clib/scanf.c                          0x00000000   Number         0  scanf_char.o ABSOLUTE
    ../clib/scanf.c                          0x00000000   Number         0  _scanf_str.o ABSOLUTE
    ../clib/scanf.c                          0x00000000   Number         0  _scanf_int.o ABSOLUTE
    ../clib/scanf.c                          0x00000000   Number         0  _sgetc.o ABSOLUTE
    ../clib/scanf.c                          0x00000000   Number         0  _scanf.o ABSOLUTE
    ../clib/signal.c                         0x00000000   Number         0  defsig_rtmem_inner.o ABSOLUTE
    ../clib/signal.c                         0x00000000   Number         0  defsig_rtmem_outer.o ABSOLUTE
    ../clib/signal.c                         0x00000000   Number         0  defsig_stak_inner.o ABSOLUTE
    ../clib/signal.c                         0x00000000   Number         0  defsig_other.o ABSOLUTE
    ../clib/signal.c                         0x00000000   Number         0  defsig_segv_inner.o ABSOLUTE
    ../clib/signal.c                         0x00000000   Number         0  defsig_rtmem_formal.o ABSOLUTE
    ../clib/signal.c                         0x00000000   Number         0  defsig_cppl_inner.o ABSOLUTE
    ../clib/signal.c                         0x00000000   Number         0  defsig_pvfn_inner.o ABSOLUTE
    ../clib/signal.c                         0x00000000   Number         0  defsig_fpe_formal.o ABSOLUTE
    ../clib/signal.c                         0x00000000   Number         0  defsig_exit.o ABSOLUTE
    ../clib/signal.c                         0x00000000   Number         0  defsig_fpe_inner.o ABSOLUTE
    ../clib/signal.c                         0x00000000   Number         0  defsig_fpe_outer.o ABSOLUTE
    ../clib/signal.c                         0x00000000   Number         0  __raise.o ABSOLUTE
    ../clib/signal.c                         0x00000000   Number         0  defsig_general.o ABSOLUTE
    ../clib/signal.c                         0x00000000   Number         0  defsig_rtred_inner.o ABSOLUTE
    ../clib/signal.c                         0x00000000   Number         0  defsig_abrt_inner.o ABSOLUTE
    ../clib/signal.s                         0x00000000   Number         0  defsig.o ABSOLUTE
    ../clib/stdlib.c                         0x00000000   Number         0  exit.o ABSOLUTE
    ../clib/string.c                         0x00000000   Number         0  strncmp.o ABSOLUTE
    ../clib/string.c                         0x00000000   Number         0  strcpy.o ABSOLUTE
    ../clib/string.c                         0x00000000   Number         0  strcat.o ABSOLUTE
    ../clib/string.c                         0x00000000   Number         0  memcmp.o ABSOLUTE
    ../fplib/d2f.s                           0x00000000   Number         0  d2f.o ABSOLUTE
    ../fplib/ddiv.s                          0x00000000   Number         0  ddiv.o ABSOLUTE
    ../fplib/dflt.s                          0x00000000   Number         0  dflt_clz.o ABSOLUTE
    ../fplib/dmul.s                          0x00000000   Number         0  dmul.o ABSOLUTE
    ../fplib/dnaninf.s                       0x00000000   Number         0  dnaninf.o ABSOLUTE
    ../fplib/dretinf.s                       0x00000000   Number         0  dretinf.o ABSOLUTE
    ../fplib/fpinit.s                        0x00000000   Number         0  fpinit.o ABSOLUTE
    ../fplib/fretinf.s                       0x00000000   Number         0  fretinf.o ABSOLUTE
    ../fplib/usenofp.s                       0x00000000   Number         0  usenofp.o ABSOLUTE
    ..\..\..\..\software\common\bmp_draw.c   0x00000000   Number         0  bmp_draw.o ABSOLUTE
    ..\..\..\..\software\common\k9f1g08.c    0x00000000   Number         0  k9f1g08.o ABSOLUTE
    ..\..\..\..\software\common\lpc43xx_gpio.c 0x00000000   Number         0  lpc43xx_gpio.o ABSOLUTE
    ..\..\..\..\software\common\lpc43xx_lcd.c 0x00000000   Number         0  lpc43xx_lcd.o ABSOLUTE
    ..\..\..\..\software\common\lpc43xx_scu.c 0x00000000   Number         0  lpc43xx_scu.o ABSOLUTE
    ..\..\..\..\software\common\lpc43xx_sdram.c 0x00000000   Number         0  lpc43xx_sdram.o ABSOLUTE
    ..\..\..\..\software\common\yaffs_port_nand_drv.c 0x00000000   Number         0  yaffs_port_nand_drv.o ABSOLUTE
    ..\..\..\..\software\filesystems\fatfs_rawos\diskio.c 0x00000000   Number         0  diskio.o ABSOLUTE
    ..\..\..\..\software\filesystems\fatfs_rawos\ff.c 0x00000000   Number         0  ff.o ABSOLUTE
    ..\..\..\..\software\filesystems\fatfs_rawos\option\syscall.c 0x00000000   Number         0  syscall.o ABSOLUTE
    ..\..\..\..\software\filesystems\fatfs_rawos\option\unicode.c 0x00000000   Number         0  unicode.o ABSOLUTE
    ..\..\..\..\software\filesystems\yaffs2\direct\test-framework\yaffs_osglue.c 0x00000000   Number         0  yaffs_osglue.o ABSOLUTE
    ..\..\..\..\software\filesystems\yaffs2\direct\test-framework\yaffscfg2k.c 0x00000000   Number         0  yaffscfg2k.o ABSOLUTE
    ..\..\..\..\software\filesystems\yaffs2\direct\yaffs_attribs.c 0x00000000   Number         0  yaffs_attribs.o ABSOLUTE
    ..\..\..\..\software\filesystems\yaffs2\direct\yaffs_error.c 0x00000000   Number         0  yaffs_error.o ABSOLUTE
    ..\..\..\..\software\filesystems\yaffs2\direct\yaffs_hweight.c 0x00000000   Number         0  yaffs_hweight.o ABSOLUTE
    ..\..\..\..\software\filesystems\yaffs2\direct\yaffs_qsort.c 0x00000000   Number         0  yaffs_qsort.o ABSOLUTE
    ..\..\..\..\software\filesystems\yaffs2\direct\yaffs_startup.c 0x00000000   Number         0  yaffs_startup.o ABSOLUTE
    ..\..\..\..\software\filesystems\yaffs2\direct\yaffsfs.c 0x00000000   Number         0  yaffsfs.o ABSOLUTE
    ..\..\..\..\software\filesystems\yaffs2\yaffs_allocator.c 0x00000000   Number         0  yaffs_allocator.o ABSOLUTE
    ..\..\..\..\software\filesystems\yaffs2\yaffs_bitmap.c 0x00000000   Number         0  yaffs_bitmap.o ABSOLUTE
    ..\..\..\..\software\filesystems\yaffs2\yaffs_checkptrw.c 0x00000000   Number         0  yaffs_checkptrw.o ABSOLUTE
    ..\..\..\..\software\filesystems\yaffs2\yaffs_ecc.c 0x00000000   Number         0  yaffs_ecc.o ABSOLUTE
    ..\..\..\..\software\filesystems\yaffs2\yaffs_guts.c 0x00000000   Number         0  yaffs_guts.o ABSOLUTE
    ..\..\..\..\software\filesystems\yaffs2\yaffs_nameval.c 0x00000000   Number         0  yaffs_nameval.o ABSOLUTE
    ..\..\..\..\software\filesystems\yaffs2\yaffs_nand.c 0x00000000   Number         0  yaffs_nand.o ABSOLUTE
    ..\..\..\..\software\filesystems\yaffs2\yaffs_packedtags1.c 0x00000000   Number         0  yaffs_packedtags1.o ABSOLUTE
    ..\..\..\..\software\filesystems\yaffs2\yaffs_packedtags2.c 0x00000000   Number         0  yaffs_packedtags2.o ABSOLUTE
    ..\..\..\..\software\filesystems\yaffs2\yaffs_summary.c 0x00000000   Number         0  yaffs_summary.o ABSOLUTE
    ..\..\..\..\software\filesystems\yaffs2\yaffs_tagscompat.c 0x00000000   Number         0  yaffs_tagscompat.o ABSOLUTE
    ..\..\..\..\software\filesystems\yaffs2\yaffs_tagsmarshall.c 0x00000000   Number         0  yaffs_tagsmarshall.o ABSOLUTE
    ..\..\..\..\software\filesystems\yaffs2\yaffs_verify.c 0x00000000   Number         0  yaffs_verify.o ABSOLUTE
    ..\..\..\..\software\filesystems\yaffs2\yaffs_yaffs1.c 0x00000000   Number         0  yaffs_yaffs1.o ABSOLUTE
    ..\..\..\..\software\filesystems\yaffs2\yaffs_yaffs2.c 0x00000000   Number         0  yaffs_yaffs2.o ABSOLUTE
    ..\..\..\..\software\jpeg-9a\jaricom.c   0x00000000   Number         0  jaricom.o ABSOLUTE
    ..\..\..\..\software\jpeg-9a\jcapimin.c  0x00000000   Number         0  jcapimin.o ABSOLUTE
    ..\..\..\..\software\jpeg-9a\jcapistd.c  0x00000000   Number         0  jcapistd.o ABSOLUTE
    ..\..\..\..\software\jpeg-9a\jcarith.c   0x00000000   Number         0  jcarith.o ABSOLUTE
    ..\..\..\..\software\jpeg-9a\jccoefct.c  0x00000000   Number         0  jccoefct.o ABSOLUTE
    ..\..\..\..\software\jpeg-9a\jccolor.c   0x00000000   Number         0  jccolor.o ABSOLUTE
    ..\..\..\..\software\jpeg-9a\jcdctmgr.c  0x00000000   Number         0  jcdctmgr.o ABSOLUTE
    ..\..\..\..\software\jpeg-9a\jchuff.c    0x00000000   Number         0  jchuff.o ABSOLUTE
    ..\..\..\..\software\jpeg-9a\jcinit.c    0x00000000   Number         0  jcinit.o ABSOLUTE
    ..\..\..\..\software\jpeg-9a\jcmainct.c  0x00000000   Number         0  jcmainct.o ABSOLUTE
    ..\..\..\..\software\jpeg-9a\jcmarker.c  0x00000000   Number         0  jcmarker.o ABSOLUTE
    ..\..\..\..\software\jpeg-9a\jcmaster.c  0x00000000   Number         0  jcmaster.o ABSOLUTE
    ..\..\..\..\software\jpeg-9a\jcomapi.c   0x00000000   Number         0  jcomapi.o ABSOLUTE
    ..\..\..\..\software\jpeg-9a\jcparam.c   0x00000000   Number         0  jcparam.o ABSOLUTE
    ..\..\..\..\software\jpeg-9a\jcprepct.c  0x00000000   Number         0  jcprepct.o ABSOLUTE
    ..\..\..\..\software\jpeg-9a\jcsample.c  0x00000000   Number         0  jcsample.o ABSOLUTE
    ..\..\..\..\software\jpeg-9a\jctrans.c   0x00000000   Number         0  jctrans.o ABSOLUTE
    ..\..\..\..\software\jpeg-9a\jdapimin.c  0x00000000   Number         0  jdapimin.o ABSOLUTE
    ..\..\..\..\software\jpeg-9a\jdapistd.c  0x00000000   Number         0  jdapistd.o ABSOLUTE
    ..\..\..\..\software\jpeg-9a\jdarith.c   0x00000000   Number         0  jdarith.o ABSOLUTE
    ..\..\..\..\software\jpeg-9a\jdatasrc.c  0x00000000   Number         0  jdatasrc.o ABSOLUTE
    ..\..\..\..\software\jpeg-9a\jdcoefct.c  0x00000000   Number         0  jdcoefct.o ABSOLUTE
    ..\..\..\..\software\jpeg-9a\jdcolor.c   0x00000000   Number         0  jdcolor.o ABSOLUTE
    ..\..\..\..\software\jpeg-9a\jddctmgr.c  0x00000000   Number         0  jddctmgr.o ABSOLUTE
    ..\..\..\..\software\jpeg-9a\jdhuff.c    0x00000000   Number         0  jdhuff.o ABSOLUTE
    ..\..\..\..\software\jpeg-9a\jdinput.c   0x00000000   Number         0  jdinput.o ABSOLUTE
    ..\..\..\..\software\jpeg-9a\jdmainct.c  0x00000000   Number         0  jdmainct.o ABSOLUTE
    ..\..\..\..\software\jpeg-9a\jdmarker.c  0x00000000   Number         0  jdmarker.o ABSOLUTE
    ..\..\..\..\software\jpeg-9a\jdmaster.c  0x00000000   Number         0  jdmaster.o ABSOLUTE
    ..\..\..\..\software\jpeg-9a\jdmerge.c   0x00000000   Number         0  jdmerge.o ABSOLUTE
    ..\..\..\..\software\jpeg-9a\jdpostct.c  0x00000000   Number         0  jdpostct.o ABSOLUTE
    ..\..\..\..\software\jpeg-9a\jdsample.c  0x00000000   Number         0  jdsample.o ABSOLUTE
    ..\..\..\..\software\jpeg-9a\jdtrans.c   0x00000000   Number         0  jdtrans.o ABSOLUTE
    ..\..\..\..\software\jpeg-9a\jerror.c    0x00000000   Number         0  jerror.o ABSOLUTE
    ..\..\..\..\software\jpeg-9a\jfdctflt.c  0x00000000   Number         0  jfdctflt.o ABSOLUTE
    ..\..\..\..\software\jpeg-9a\jfdctfst.c  0x00000000   Number         0  jfdctfst.o ABSOLUTE
    ..\..\..\..\software\jpeg-9a\jfdctint.c  0x00000000   Number         0  jfdctint.o ABSOLUTE
    ..\..\..\..\software\jpeg-9a\jidctflt.c  0x00000000   Number         0  jidctflt.o ABSOLUTE
    ..\..\..\..\software\jpeg-9a\jidctfst.c  0x00000000   Number         0  jidctfst.o ABSOLUTE
    ..\..\..\..\software\jpeg-9a\jidctint.c  0x00000000   Number         0  jidctint.o ABSOLUTE
    ..\..\..\..\software\jpeg-9a\jmemmgr.c   0x00000000   Number         0  jmemmgr.o ABSOLUTE
    ..\..\..\..\software\jpeg-9a\jmemnobs.c  0x00000000   Number         0  jmemnobs.o ABSOLUTE
    ..\..\..\..\software\jpeg-9a\jpeg_port.c 0x00000000   Number         0  jpeg_port.o ABSOLUTE
    ..\..\..\..\software\jpeg-9a\jquant1.c   0x00000000   Number         0  jquant1.o ABSOLUTE
    ..\..\..\..\software\jpeg-9a\jquant2.c   0x00000000   Number         0  jquant2.o ABSOLUTE
    ..\..\..\..\software\jpeg-9a\jutils.c    0x00000000   Number         0  jutils.o ABSOLUTE
    ..\..\..\..\software\jpeg-9a\wrbmp.c     0x00000000   Number         0  wrbmp.o ABSOLUTE
    ..\..\..\..\software\kernel\port\cpu.asm 0x00000000   Number         0  cpu.o ABSOLUTE
    ..\..\..\..\software\kernel\port\port.c  0x00000000   Number         0  port_1.o ABSOLUTE
    ..\..\..\..\software\kernel\port\port_error_process.c 0x00000000   Number         0  port_error_process_1.o ABSOLUTE
    ..\..\..\..\software\kernel\port\port_extension.c 0x00000000   Number         0  port_extension_1.o ABSOLUTE
    ..\..\..\..\software\kernel\port\port_hook.c 0x00000000   Number         0  port_hook_1.o ABSOLUTE
    ..\..\..\..\software\kernel\port\raw_trace_port.c 0x00000000   Number         0  raw_trace_port_1.o ABSOLUTE
    ..\..\..\..\software\kernel\port\user_extension.c 0x00000000   Number         0  user_extension_1.o ABSOLUTE
    ..\..\..\..\software\kernel\raw-os\extension\lib\fifo.c 0x00000000   Number         0  fifo.o ABSOLUTE
    ..\..\..\..\software\kernel\raw-os\extension\lib\string.c 0x00000000   Number         0  string.o ABSOLUTE
    ..\..\..\..\software\kernel\raw-os\extension\mm\heap_4.c 0x00000000   Number         0  heap_4.o ABSOLUTE
    ..\..\..\..\software\kernel\raw-os\extension\mm\raw_malloc.c 0x00000000   Number         0  raw_malloc.o ABSOLUTE
    ..\..\..\..\software\kernel\raw-os\extension\mm\raw_page.c 0x00000000   Number         0  raw_page.o ABSOLUTE
    ..\..\..\..\software\kernel\raw-os\extension\shell\rsh.c 0x00000000   Number         0  rsh.o ABSOLUTE
    ..\..\..\..\software\kernel\raw-os\raw-os.c 0x00000000   Number         0  raw-os.o ABSOLUTE
    ..\..\board_common\uda1380.c             0x00000000   Number         0  uda1380.o ABSOLUTE
    ..\..\examples\libjpeg_display\libjpeg_test.c 0x00000000   Number         0  libjpeg_test.o ABSOLUTE
    ..\..\examples\libjpeg_display\main.c    0x00000000   Number         0  main.o ABSOLUTE
    ..\..\startup_code\keil_startup_lpc18xx43xx.s 0x00000000   Number         0  keil_startup_lpc18xx43xx.o ABSOLUTE
    ..\..\startup_code\sysinit.c             0x00000000   Number         0  sysinit.o ABSOLUTE
    ..\\..\\..\\..\\software\\common\\k9f1g08.c 0x00000000   Number         0  k9f1g08.o ABSOLUTE
    ..\\..\\..\\..\\software\\common\\lpc43xx_gpio.c 0x00000000   Number         0  lpc43xx_gpio.o ABSOLUTE
    ..\\..\\..\\..\\software\\common\\lpc43xx_lcd.c 0x00000000   Number         0  lpc43xx_lcd.o ABSOLUTE
    ..\\..\\..\\..\\software\\common\\lpc43xx_scu.c 0x00000000   Number         0  lpc43xx_scu.o ABSOLUTE
    ..\\..\\..\\..\\software\\common\\lpc43xx_sdram.c 0x00000000   Number         0  lpc43xx_sdram.o ABSOLUTE
    ..\\..\\..\\..\\software\\filesystems\\fatfs_rawos\\diskio.c 0x00000000   Number         0  diskio.o ABSOLUTE
    ..\\..\\board_common\\uda1380.c          0x00000000   Number         0  uda1380.o ABSOLUTE
    ..\\..\\examples\\libjpeg_display\\libjpeg_test.c 0x00000000   Number         0  libjpeg_test.o ABSOLUTE
    ..\\..\\examples\\libjpeg_display\\main.c 0x00000000   Number         0  main.o ABSOLUTE
    ..\\..\\startup_code\\sysinit.c          0x00000000   Number         0  sysinit.o ABSOLUTE
    ..\\chip_common\\fpu_init.c              0x00000000   Number         0  fpu_init.o ABSOLUTE
    ..\chip_common\fpu_init.c                0x00000000   Number         0  fpu_init.o ABSOLUTE
    ..\chip_common\ring_buffer.c             0x00000000   Number         0  ring_buffer.o ABSOLUTE
    board.c                                  0x00000000   Number         0  board.o ABSOLUTE
    board.c                                  0x00000000   Number         0  board.o ABSOLUTE
    board_sysinit.c                          0x00000000   Number         0  board_sysinit.o ABSOLUTE
    board_sysinit.c                          0x00000000   Number         0  board_sysinit.o ABSOLUTE
    chip_18xx_43xx.c                         0x00000000   Number         0  chip_18xx_43xx.o ABSOLUTE
    chip_18xx_43xx.c                         0x00000000   Number         0  chip_18xx_43xx.o ABSOLUTE
    clock_18xx_43xx.c                        0x00000000   Number         0  clock_18xx_43xx.o ABSOLUTE
    clock_18xx_43xx.c                        0x00000000   Number         0  clock_18xx_43xx.o ABSOLUTE
    dc.s                                     0x00000000   Number         0  dc.o ABSOLUTE
    emc_18xx_43xx.c                          0x00000000   Number         0  emc_18xx_43xx.o ABSOLUTE
    emc_18xx_43xx.c                          0x00000000   Number         0  emc_18xx_43xx.o ABSOLUTE
    gpio_18xx_43xx.c                         0x00000000   Number         0  gpio_18xx_43xx.o ABSOLUTE
    gpio_18xx_43xx.c                         0x00000000   Number         0  gpio_18xx_43xx.o ABSOLUTE
    i2c_18xx_43xx.c                          0x00000000   Number         0  i2c_18xx_43xx.o ABSOLUTE
    i2c_18xx_43xx.c                          0x00000000   Number         0  i2c_18xx_43xx.o ABSOLUTE
    i2s_18xx_43xx.c                          0x00000000   Number         0  i2s_18xx_43xx.o ABSOLUTE
    i2s_18xx_43xx.c                          0x00000000   Number         0  i2s_18xx_43xx.o ABSOLUTE
    rgu_18xx_43xx.c                          0x00000000   Number         0  rgu_18xx_43xx.o ABSOLUTE
    rgu_18xx_43xx.c                          0x00000000   Number         0  rgu_18xx_43xx.o ABSOLUTE
    sdif_18xx_43xx.c                         0x00000000   Number         0  sdif_18xx_43xx.o ABSOLUTE
    sdif_18xx_43xx.c                         0x00000000   Number         0  sdif_18xx_43xx.o ABSOLUTE
    sdmmc_18xx_43xx.c                        0x00000000   Number         0  sdmmc_18xx_43xx.o ABSOLUTE
    sdmmc_18xx_43xx.c                        0x00000000   Number         0  sdmmc_18xx_43xx.o ABSOLUTE
    ssp_18xx_43xx.c                          0x00000000   Number         0  ssp_18xx_43xx.o ABSOLUTE
    ssp_18xx_43xx.c                          0x00000000   Number         0  ssp_18xx_43xx.o ABSOLUTE
    sysinit_18xx_43xx.c                      0x00000000   Number         0  sysinit_18xx_43xx.o ABSOLUTE
    sysinit_18xx_43xx.c                      0x00000000   Number         0  sysinit_18xx_43xx.o ABSOLUTE
    uart_18xx_43xx.c                         0x00000000   Number         0  uart_18xx_43xx.o ABSOLUTE
    uart_18xx_43xx.c                         0x00000000   Number         0  uart_18xx_43xx.o ABSOLUTE
    .data                                    0x10000000   Section       56  raw-os.o(.data)
    .data                                    0x10000038   Section        4  raw_malloc.o(.data)
    .data                                    0x1000003c   Section        4  port_1.o(.data)
    mpu_region_numbers                       0x1000003c   Data           4  port_1.o(.data)
    .data                                    0x10000040   Section       12  k9f1g08.o(.data)
    .data                                    0x1000004c   Section        4  main.o(.data)
    .data                                    0x10000050   Section        8  libjpeg_test.o(.data)
    .data                                    0x10000058   Section       12  lpc43xx_lcd.o(.data)
    g_lcdHSize                               0x10000058   Data           4  lpc43xx_lcd.o(.data)
    g_lcdVSize                               0x1000005c   Data           4  lpc43xx_lcd.o(.data)
    lcd_frame_buffer                         0x10000060   Data           4  lpc43xx_lcd.o(.data)
    .data                                    0x10000064   Section       24  yaffsfs.o(.data)
    yaffsfs_handlesInitialised               0x10000064   Data           4  yaffsfs.o(.data)
    dev_iterator                             0x10000068   Data           4  yaffsfs.o(.data)
    search_contexts                          0x10000074   Data           8  yaffsfs.o(.data)
    .data                                    0x1000007c   Section        4  yaffsfs.o(.data)
    .data                                    0x10000080   Section        8  yaffs_tagscompat.o(.data)
    init                                     0x10000080   Data           4  yaffs_tagscompat.o(.data)
    init                                     0x10000084   Data           4  yaffs_tagscompat.o(.data)
    .data                                    0x10000088   Section        4  yaffs_verify.o(.data)
    yaffs_free_verification_failures         0x10000088   Data           4  yaffs_verify.o(.data)
    .data                                    0x1000008c   Section        4  yaffs_osglue.o(.data)
    yaffsfs_lastError                        0x1000008c   Data           4  yaffs_osglue.o(.data)
    .data                                    0x10000090   Section        4  yaffscfg2k.o(.data)
    start_up_called                          0x10000090   Data           4  yaffscfg2k.o(.data)
    .data                                    0x10000094   Section        4  yaffscfg2k.o(.data)
    .data                                    0x10000098   Section       20  board.o(.data)
    .data                                    0x100000ac   Section        4  chip_18xx_43xx.o(.data)
    .data                                    0x100000b0   Section        8  clock_18xx_43xx.o(.data)
    audio_usb_pll_freq                       0x100000b0   Data           8  clock_18xx_43xx.o(.data)
    .data                                    0x100000b8   Section       56  i2c_18xx_43xx.o(.data)
    i2c                                      0x100000b8   Data          56  i2c_18xx_43xx.o(.data)
    .bss                                     0x100000f0   Section     3548  raw-os.o(.bss)
    .bss                                     0x10000ed0   Section       80  raw_malloc.o(.bss)
    malloc_macb                              0x10000ed0   Data          80  raw_malloc.o(.bss)
    .bss                                     0x10000f20   Section       56  raw_page.o(.bss)
    system_page_table                        0x10000f20   Data          56  raw_page.o(.bss)
    .bss                                     0x10000f58   Section     4428  main.o(.bss)
    fifo_buffer                              0x10002024   Data         128  main.o(.bss)
    .bss                                     0x100020a8   Section      564  libjpeg_test.o(.bss)
    .bss                                     0x100022dc   Section    13040  yaffsfs.o(.bss)
    yaffsfs_dsc                              0x100022dc   Data       11040  yaffsfs.o(.bss)
    yaffsfs_inode                            0x10004dfc   Data         800  yaffsfs.o(.bss)
    yaffsfs_fd                               0x1000511c   Data         800  yaffsfs.o(.bss)
    yaffsfs_handle                           0x1000543c   Data         400  yaffsfs.o(.bss)
    .bss                                     0x100055cc   Section       32  yaffs_tagscompat.o(.bss)
    spare_ff                                 0x100055cc   Data          16  yaffs_tagscompat.o(.bss)
    spare_ff                                 0x100055dc   Data          16  yaffs_tagscompat.o(.bss)
    .bss                                     0x100055ec   Section       40  yaffs_osglue.o(.bss)
    mutex_yaffs_obj                          0x100055ec   Data          40  yaffs_osglue.o(.bss)
    .bss                                     0x10005614   Section       96  libspace.o(.bss)
    HEAP                                     0x10005678   Section      256  keil_startup_lpc18xx43xx.o(HEAP)
    Heap_Mem                                 0x10005678   Data         256  keil_startup_lpc18xx43xx.o(HEAP)
    STACK                                    0x10005778   Section     1536  keil_startup_lpc18xx43xx.o(STACK)
    __initial_sp                             0x10005d78   Data           0  keil_startup_lpc18xx43xx.o(STACK)
    RESET                                    0x1a000000   Section      276  keil_startup_lpc18xx43xx.o(RESET)
    !!!main                                  0x1a000114   Section        8  __main.o(!!!main)
    !!!scatter                               0x1a00011c   Section       52  __scatter.o(!!!scatter)
    !!handler_copy                           0x1a000150   Section       26  __scatter_copy.o(!!handler_copy)
    !!handler_zi                             0x1a00016c   Section       28  __scatter_zi.o(!!handler_zi)
    .ARM.Collect$$_printf_percent$$00000000  0x1a000188   Section        0  _printf_percent.o(.ARM.Collect$$_printf_percent$$00000000)
    .ARM.Collect$$_printf_percent$$00000001  0x1a000188   Section        6  _printf_n.o(.ARM.Collect$$_printf_percent$$00000001)
    .ARM.Collect$$_printf_percent$$00000002  0x1a00018e   Section        6  _printf_p.o(.ARM.Collect$$_printf_percent$$00000002)
    .ARM.Collect$$_printf_percent$$00000007  0x1a000194   Section       10  _printf_ll.o(.ARM.Collect$$_printf_percent$$00000007)
    .ARM.Collect$$_printf_percent$$00000008  0x1a00019e   Section        6  _printf_i.o(.ARM.Collect$$_printf_percent$$00000008)
    .ARM.Collect$$_printf_percent$$00000009  0x1a0001a4   Section        6  _printf_d.o(.ARM.Collect$$_printf_percent$$00000009)
    .ARM.Collect$$_printf_percent$$0000000A  0x1a0001aa   Section        6  _printf_u.o(.ARM.Collect$$_printf_percent$$0000000A)
    .ARM.Collect$$_printf_percent$$0000000B  0x1a0001b0   Section        6  _printf_o.o(.ARM.Collect$$_printf_percent$$0000000B)
    .ARM.Collect$$_printf_percent$$0000000C  0x1a0001b6   Section        6  _printf_x.o(.ARM.Collect$$_printf_percent$$0000000C)
    .ARM.Collect$$_printf_percent$$0000000E  0x1a0001bc   Section        6  _printf_lld.o(.ARM.Collect$$_printf_percent$$0000000E)
    .ARM.Collect$$_printf_percent$$00000012  0x1a0001c2   Section       10  _printf_l.o(.ARM.Collect$$_printf_percent$$00000012)
    .ARM.Collect$$_printf_percent$$00000013  0x1a0001cc   Section        6  _printf_c.o(.ARM.Collect$$_printf_percent$$00000013)
    .ARM.Collect$$_printf_percent$$00000014  0x1a0001d2   Section        6  _printf_s.o(.ARM.Collect$$_printf_percent$$00000014)
    .ARM.Collect$$_printf_percent$$00000015  0x1a0001d8   Section        6  _printf_lc.o(.ARM.Collect$$_printf_percent$$00000015)
    .ARM.Collect$$_printf_percent$$00000017  0x1a0001de   Section        4  _printf_percent_end.o(.ARM.Collect$$_printf_percent$$00000017)
    .ARM.Collect$$libinit$$00000000          0x1a0001e2   Section        2  libinit.o(.ARM.Collect$$libinit$$00000000)
    .ARM.Collect$$libinit$$00000001          0x1a0001e4   Section        4  libinit2.o(.ARM.Collect$$libinit$$00000001)
    .ARM.Collect$$libinit$$00000004          0x1a0001e8   Section        0  libinit2.o(.ARM.Collect$$libinit$$00000004)
    .ARM.Collect$$libinit$$0000000A          0x1a0001e8   Section        0  libinit2.o(.ARM.Collect$$libinit$$0000000A)
    .ARM.Collect$$libinit$$0000000C          0x1a0001e8   Section        0  libinit2.o(.ARM.Collect$$libinit$$0000000C)
    .ARM.Collect$$libinit$$0000000E          0x1a0001e8   Section        0  libinit2.o(.ARM.Collect$$libinit$$0000000E)
    .ARM.Collect$$libinit$$0000000F          0x1a0001e8   Section        6  libinit2.o(.ARM.Collect$$libinit$$0000000F)
    .ARM.Collect$$libinit$$00000011          0x1a0001ee   Section        0  libinit2.o(.ARM.Collect$$libinit$$00000011)
    .ARM.Collect$$libinit$$00000012          0x1a0001ee   Section       12  libinit2.o(.ARM.Collect$$libinit$$00000012)
    .ARM.Collect$$libinit$$00000013          0x1a0001fa   Section        0  libinit2.o(.ARM.Collect$$libinit$$00000013)
    .ARM.Collect$$libinit$$00000015          0x1a0001fa   Section        0  libinit2.o(.ARM.Collect$$libinit$$00000015)
    .ARM.Collect$$libinit$$00000017          0x1a0001fa   Section        0  libinit2.o(.ARM.Collect$$libinit$$00000017)
    .ARM.Collect$$libinit$$00000019          0x1a0001fa   Section        0  libinit2.o(.ARM.Collect$$libinit$$00000019)
    .ARM.Collect$$libinit$$0000001B          0x1a0001fa   Section        0  libinit2.o(.ARM.Collect$$libinit$$0000001B)
    .ARM.Collect$$libinit$$0000001D          0x1a0001fa   Section        0  libinit2.o(.ARM.Collect$$libinit$$0000001D)
    .ARM.Collect$$libinit$$0000001F          0x1a0001fa   Section        0  libinit2.o(.ARM.Collect$$libinit$$0000001F)
    .ARM.Collect$$libinit$$00000021          0x1a0001fa   Section        0  libinit2.o(.ARM.Collect$$libinit$$00000021)
    .ARM.Collect$$libinit$$00000023          0x1a0001fa   Section        0  libinit2.o(.ARM.Collect$$libinit$$00000023)
    .ARM.Collect$$libinit$$00000025          0x1a0001fa   Section        0  libinit2.o(.ARM.Collect$$libinit$$00000025)
    .ARM.Collect$$libinit$$0000002C          0x1a0001fa   Section        0  libinit2.o(.ARM.Collect$$libinit$$0000002C)
    .ARM.Collect$$libinit$$0000002E          0x1a0001fa   Section        0  libinit2.o(.ARM.Collect$$libinit$$0000002E)
    .ARM.Collect$$libinit$$00000030          0x1a0001fa   Section        0  libinit2.o(.ARM.Collect$$libinit$$00000030)
    .ARM.Collect$$libinit$$00000032          0x1a0001fa   Section        0  libinit2.o(.ARM.Collect$$libinit$$00000032)
    .ARM.Collect$$libinit$$00000033          0x1a0001fa   Section        2  libinit2.o(.ARM.Collect$$libinit$$00000033)
    .ARM.Collect$$libshutdown$$00000000      0x1a0001fc   Section        2  libshutdown.o(.ARM.Collect$$libshutdown$$00000000)
    .ARM.Collect$$libshutdown$$00000002      0x1a0001fe   Section        0  libshutdown2.o(.ARM.Collect$$libshutdown$$00000002)
    .ARM.Collect$$libshutdown$$00000004      0x1a0001fe   Section        0  libshutdown2.o(.ARM.Collect$$libshutdown$$00000004)
    .ARM.Collect$$libshutdown$$00000007      0x1a0001fe   Section        0  libshutdown2.o(.ARM.Collect$$libshutdown$$00000007)
    .ARM.Collect$$libshutdown$$0000000A      0x1a0001fe   Section        0  libshutdown2.o(.ARM.Collect$$libshutdown$$0000000A)
    .ARM.Collect$$libshutdown$$0000000C      0x1a0001fe   Section        0  libshutdown2.o(.ARM.Collect$$libshutdown$$0000000C)
    .ARM.Collect$$libshutdown$$0000000F      0x1a0001fe   Section        0  libshutdown2.o(.ARM.Collect$$libshutdown$$0000000F)
    .ARM.Collect$$libshutdown$$00000010      0x1a0001fe   Section        2  libshutdown2.o(.ARM.Collect$$libshutdown$$00000010)
    .ARM.Collect$$rtentry$$00000000          0x1a000200   Section        0  __rtentry.o(.ARM.Collect$$rtentry$$00000000)
    .ARM.Collect$$rtentry$$00000002          0x1a000200   Section        0  __rtentry2.o(.ARM.Collect$$rtentry$$00000002)
    .ARM.Collect$$rtentry$$00000004          0x1a000200   Section        6  __rtentry4.o(.ARM.Collect$$rtentry$$00000004)
    .ARM.Collect$$rtentry$$00000009          0x1a000206   Section        0  __rtentry2.o(.ARM.Collect$$rtentry$$00000009)
    .ARM.Collect$$rtentry$$0000000A          0x1a000206   Section        4  __rtentry2.o(.ARM.Collect$$rtentry$$0000000A)
    .ARM.Collect$$rtentry$$0000000C          0x1a00020a   Section        0  __rtentry2.o(.ARM.Collect$$rtentry$$0000000C)
    .ARM.Collect$$rtentry$$0000000D          0x1a00020a   Section        8  __rtentry2.o(.ARM.Collect$$rtentry$$0000000D)
    .ARM.Collect$$rtexit$$00000000           0x1a000212   Section        2  rtexit.o(.ARM.Collect$$rtexit$$00000000)
    .ARM.Collect$$rtexit$$00000002           0x1a000214   Section        0  rtexit2.o(.ARM.Collect$$rtexit$$00000002)
    .ARM.Collect$$rtexit$$00000003           0x1a000214   Section        4  rtexit2.o(.ARM.Collect$$rtexit$$00000003)
    .ARM.Collect$$rtexit$$00000004           0x1a000218   Section        6  rtexit2.o(.ARM.Collect$$rtexit$$00000004)
    .text                                    0x1a000220   Section        0  raw-os.o(.text)
    tick_task_process                        0x1a000785   Thumb Code    28  raw-os.o(.text)
    pend_task_wake_up                        0x1a000925   Thumb Code    96  raw-os.o(.text)
    is_list_empty                            0x1a002a0d   Thumb Code    14  raw-os.o(.text)
    list_insert                              0x1a002a1b   Thumb Code    14  raw-os.o(.text)
    list_delete                              0x1a002a29   Thumb Code    12  raw-os.o(.text)
    add_to_priority_list                     0x1a002a35   Thumb Code    30  raw-os.o(.text)
    bit_set                                  0x1a002a53   Thumb Code    20  raw-os.o(.text)
    release_mutex                            0x1a002a67   Thumb Code    30  raw-os.o(.text)
    timer_list_remove                        0x1a002a85   Thumb Code    22  raw-os.o(.text)
    timer_list_priority_insert               0x1a002a9b   Thumb Code    32  raw-os.o(.text)
    raw_byte_pool_search                     0x1a002abb   Thumb Code   188  raw-os.o(.text)
    .text                                    0x1a002b88   Section        0  fifo.o(.text)
    internal_fifo_out_peek                   0x1a002c29   Thumb Code    62  fifo.o(.text)
    .text                                    0x1a002cfc   Section        0  raw_malloc.o(.text)
    chkalloc_test                            0x1a002cfd   Thumb Code   210  raw_malloc.o(.text)
    removeFreeQue                            0x1a002e53   Thumb Code    68  raw_malloc.o(.text)
    allocate                                 0x1a002e97   Thumb Code    58  raw_malloc.o(.text)
    _mem_malloc                              0x1a002ed1   Thumb Code   172  raw_malloc.o(.text)
    _mem_free                                0x1a002f7d   Thumb Code   134  raw_malloc.o(.text)
    list_insert                              0x1a0031e5   Thumb Code    14  raw_malloc.o(.text)
    insertAreaQue                            0x1a0031f3   Thumb Code    22  raw_malloc.o(.text)
    removeAreaQue                            0x1a003209   Thumb Code    24  raw_malloc.o(.text)
    _mem_realloc                             0x1a003221   Thumb Code   174  raw_malloc.o(.text)
    .text                                    0x1a0032d4   Section        0  raw_page.o(.text)
    remove_free_page                         0x1a0032d5   Thumb Code    52  raw_page.o(.text)
    search_free_page                         0x1a003309   Thumb Code    50  raw_page.o(.text)
    add_page_to_pool                         0x1a00333b   Thumb Code   168  raw_page.o(.text)
    set_page_attr                            0x1a0034dd   Thumb Code    20  raw_page.o(.text)
    get_pages                                0x1a0034f1   Thumb Code    90  raw_page.o(.text)
    free_pages                               0x1a00354b   Thumb Code   178  raw_page.o(.text)
    set_page_used                            0x1a0035fd   Thumb Code   142  raw_page.o(.text)
    .text                                    0x1a0036ac   Section      172  cpu.o(.text)
    $v0                                      0x1a0036ac   Number         0  cpu.o(.text)
    .text                                    0x1a003758   Section        0  port_1.o(.text)
    .text                                    0x1a00392c   Section        0  port_hook_1.o(.text)
    .text                                    0x1a00394a   Section        0  user_extension_1.o(.text)
    .text                                    0x1a0039d2   Section        0  port_error_process_1.o(.text)
    .text                                    0x1a003a2c   Section        0  port_extension_1.o(.text)
    .text                                    0x1a003a5c   Section       68  keil_startup_lpc18xx43xx.o(.text)
    $v0                                      0x1a003a5c   Number         0  keil_startup_lpc18xx43xx.o(.text)
    .text                                    0x1a003aa0   Section        0  sysinit.o(.text)
    .text                                    0x1a003abc   Section        0  lpc43xx_scu.o(.text)
    .text                                    0x1a003ad0   Section        0  lpc43xx_sdram.o(.text)
    .text                                    0x1a003f2c   Section        0  k9f1g08.o(.text)
    k9f_state_read                           0x1a003faf   Thumb Code    36  k9f1g08.o(.text)
    k9f_busy_wait                            0x1a00428b   Thumb Code    22  k9f1g08.o(.text)
    .text                                    0x1a0042a8   Section        0  lpc43xx_gpio.o(.text)
    .text                                    0x1a0042e8   Section        0  yaffs_port_nand_drv.o(.text)
    yaffs_nand_drv_WriteChunk                0x1a0042e9   Thumb Code   104  yaffs_port_nand_drv.o(.text)
    yaffs_nand_drv_ReadChunk                 0x1a004351   Thumb Code   106  yaffs_port_nand_drv.o(.text)
    yaffs_nand_drv_EraseBlock                0x1a0043bb   Thumb Code    16  yaffs_port_nand_drv.o(.text)
    yaffs_nand_drv_MarkBad                   0x1a0043cb   Thumb Code    22  yaffs_port_nand_drv.o(.text)
    yaffs_nand_drv_CheckBad                  0x1a0043e1   Thumb Code    36  yaffs_port_nand_drv.o(.text)
    yaffs_nand_drv_Initialise                0x1a004405   Thumb Code     4  yaffs_port_nand_drv.o(.text)
    yaffs_nand_drv_Deinitialise              0x1a004409   Thumb Code     4  yaffs_port_nand_drv.o(.text)
    .text                                    0x1a00444c   Section        0  main.o(.text)
    NVIC_EnableIRQ                           0x1a004601   Thumb Code    22  main.o(.text)
    NVIC_SetPriority                         0x1a004617   Thumb Code    32  main.o(.text)
    .text                                    0x1a00465c   Section        0  libjpeg_test.o(.text)
    .text                                    0x1a0047b8   Section        0  lpc43xx_lcd.o(.text)
    .text                                    0x1a004b44   Section        0  bmp_draw.o(.text)
    read_16                                  0x1a004c29   Thumb Code    20  bmp_draw.o(.text)
    read_32                                  0x1a004c3d   Thumb Code    36  bmp_draw.o(.text)
    _DrawBitmap_24bpp                        0x1a004c61   Thumb Code   154  bmp_draw.o(.text)
    .text                                    0x1a004cfa   Section        0  yaffs_attribs.o(.text)
    .text                                    0x1a004d7c   Section        0  yaffs_hweight.o(.text)
    .text                                    0x1a004da4   Section        0  yaffs_qsort.o(.text)
    swapfunc                                 0x1a004da5   Thumb Code    44  yaffs_qsort.o(.text)
    med3                                     0x1a004dd1   Thumb Code    70  yaffs_qsort.o(.text)
    .text                                    0x1a005074   Section        0  yaffsfs.o(.text)
    yaffsfs_HandleToObject                   0x1a005081   Thumb Code    48  yaffsfs.o(.text)
    yaffsfs_PutInode                         0x1a0050b1   Thumb Code    44  yaffsfs.o(.text)
    yaffsfs_NewHandle                        0x1a0050dd   Thumb Code    50  yaffsfs.o(.text)
    yaffsfs_closedir_no_lock                 0x1a00510f   Thumb Code    56  yaffsfs.o(.text)
    yaffsfs_PutHandle                        0x1a005147   Thumb Code   108  yaffsfs.o(.text)
    yaffsfs_BreakDeviceHandles               0x1a0051b3   Thumb Code   102  yaffsfs.o(.text)
    yaffsfs_alt_dir_path                     0x1a005219   Thumb Code    86  yaffsfs.o(.text)
    yaffsfs_FindDevice                       0x1a00526f   Thumb Code   236  yaffsfs.o(.text)
    yaffsfs_CheckPath                        0x1a00535b   Thumb Code    46  yaffsfs.o(.text)
    yaffsfs_DoFindDirectory                  0x1a005389   Thumb Code   256  yaffsfs.o(.text)
    yaffsfs_FindObject                       0x1a005489   Thumb Code    84  yaffsfs.o(.text)
    yaffsfs_FollowLink                       0x1a0054dd   Thumb Code    92  yaffsfs.o(.text)
    yaffsfs_SetDirRewound                    0x1a005599   Thumb Code    60  yaffsfs.o(.text)
    yaffsfs_opendir_reldir_no_lock           0x1a0055d5   Thumb Code   268  yaffsfs.o(.text)
    yaffs_Dofsync                            0x1a005b11   Thumb Code    66  yaffsfs.o(.text)
    yaffsfs_do_read                          0x1a005bb5   Thumb Code   326  yaffsfs.o(.text)
    yaffsfs_do_write                         0x1a005d13   Thumb Code   354  yaffsfs.o(.text)
    yaffsfs_DoUnlink_reldir                  0x1a00607f   Thumb Code   258  yaffsfs.o(.text)
    yaffsfs_DoStat                           0x1a006385   Thumb Code   138  yaffsfs.o(.text)
    yaffsfs_DoStatOrLStat_reldir             0x1a00640f   Thumb Code   170  yaffsfs.o(.text)
    yaffsfs_DoUtime                          0x1a006541   Thumb Code    86  yaffsfs.o(.text)
    yaffs_do_setxattr_reldir                 0x1a006667   Thumb Code   208  yaffsfs.o(.text)
    yaffs_do_getxattr_reldir                 0x1a00683d   Thumb Code   204  yaffsfs.o(.text)
    yaffs_do_listxattr_reldir                0x1a0069f3   Thumb Code   186  yaffsfs.o(.text)
    yaffs_do_removexattr_reldir              0x1a006b61   Thumb Code   184  yaffsfs.o(.text)
    yaffsfs_DoChMod                          0x1a006cab   Thumb Code    48  yaffsfs.o(.text)
    yaffsfs_bg_gc_common                     0x1a0071e3   Thumb Code   112  yaffsfs.o(.text)
    yaffsfs_DirAdvance                       0x1a00760d   Thumb Code    68  yaffsfs.o(.text)
    yaffsfs_RemoveObjectCallback             0x1a007651   Thumb Code    40  yaffsfs.o(.text)
    list_empty                               0x1a007c11   Thumb Code    14  yaffsfs.o(.text)
    yaffsfs_InitHandles                      0x1a007c1f   Thumb Code    92  yaffsfs.o(.text)
    yaffsfs_HandleToPointer                  0x1a007c7b   Thumb Code    16  yaffsfs.o(.text)
    yaffsfs_HandleToFileDes                  0x1a007c8b   Thumb Code    40  yaffsfs.o(.text)
    yaffsfs_FindInodeIdForObject             0x1a007cb3   Thumb Code    42  yaffsfs.o(.text)
    yaffsfs_GetHandle                        0x1a007cdd   Thumb Code    30  yaffsfs.o(.text)
    yaffsfs_IsPathDivider                    0x1a007cfb   Thumb Code    24  yaffsfs.o(.text)
    yaffsfs_FindMountPoint                   0x1a007d13   Thumb Code    32  yaffsfs.o(.text)
    yaffsfs_FindDirectory                    0x1a007d33   Thumb Code    16  yaffsfs.o(.text)
    yaffsfs_TooManyObjects                   0x1a007d43   Thumb Code    26  yaffsfs.o(.text)
    yaffsfs_IsDevBusy                        0x1a007d5d   Thumb Code    34  yaffsfs.o(.text)
    yaffsfs_rewinddir_no_lock                0x1a007d7f   Thumb Code    30  yaffsfs.o(.text)
    .text                                    0x1a007db4   Section        0  yaffs_allocator.o(.text)
    yaffs_create_tnodes                      0x1a007db5   Thumb Code   164  yaffs_allocator.o(.text)
    yaffs_create_free_objs                   0x1a007eb3   Thumb Code   142  yaffs_allocator.o(.text)
    list_empty                               0x1a008051   Thumb Code    14  yaffs_allocator.o(.text)
    yaffs_deinit_raw_objs                    0x1a00805f   Thumb Code    58  yaffs_allocator.o(.text)
    .text                                    0x1a0081b0   Section        0  yaffs_bitmap.o(.text)
    yaffs_block_bits                         0x1a0081b1   Thumb Code    64  yaffs_bitmap.o(.text)
    .text                                    0x1a0083b4   Section        0  yaffs_checkptrw.o(.text)
    yaffs_get_block_info                     0x1a0083b5   Thumb Code    60  yaffs_checkptrw.o(.text)
    yaffs_checkpt_erase                      0x1a0083f1   Thumb Code   182  yaffs_checkptrw.o(.text)
    yaffs2_checkpt_find_block                0x1a0084a7   Thumb Code   212  yaffs_checkptrw.o(.text)
    yaffs2_checkpt_flush_buffer              0x1a008671   Thumb Code   224  yaffs_checkptrw.o(.text)
    yaffs2_checkpt_init_chunk_hdr            0x1a008b63   Thumb Code    36  yaffs_checkptrw.o(.text)
    yaffs2_checkpt_find_erased_block         0x1a008b87   Thumb Code   134  yaffs_checkptrw.o(.text)
    .text                                    0x1a008ca8   Section        0  yaffs_ecc.o(.text)
    .text                                    0x1a008f24   Section        0  yaffs_guts.o(.text)
    yaffs_get_block_info                     0x1a008f25   Thumb Code    60  yaffs_guts.o(.text)
    yaffs_retire_block                       0x1a0090ab   Thumb Code   184  yaffs_guts.o(.text)
    yaffs_check_chunk_erased                 0x1a009179   Thumb Code    86  yaffs_guts.o(.text)
    yaffs_find_alloc_block                   0x1a009645   Thumb Code   178  yaffs_guts.o(.text)
    yaffs_alloc_chunk                        0x1a0096f7   Thumb Code   200  yaffs_guts.o(.text)
    yaffs_write_new_chunk                    0x1a0097bf   Thumb Code   758  yaffs_guts.o(.text)
    yaffs_fix_null_name                      0x1a009ab5   Thumb Code    88  yaffs_guts.o(.text)
    yaffs_load_tnode_0                       0x1a009b87   Thumb Code    86  yaffs_guts.o(.text)
    yaffs_find_chunk_in_group                0x1a009d31   Thumb Code   102  yaffs_guts.o(.text)
    yaffs_soft_del_worker                    0x1a009fc5   Thumb Code   192  yaffs_guts.o(.text)
    yaffs_remove_obj_from_dir                0x1a00a085   Thumb Code    50  yaffs_guts.o(.text)
    yaffs_check_obj_details_loaded           0x1a00a19b   Thumb Code   100  yaffs_guts.o(.text)
    yaffs_free_obj                           0x1a00a1ff   Thumb Code   170  yaffs_guts.o(.text)
    yaffs_invalidate_whole_cache             0x1a00a2a9   Thumb Code    46  yaffs_guts.o(.text)
    yaffs_generic_obj_del                    0x1a00a2d7   Thumb Code    70  yaffs_guts.o(.text)
    yaffs_gc_process_chunk                   0x1a00a41b   Thumb Code   394  yaffs_guts.o(.text)
    yaffs_gc_block                           0x1a00a5a5   Thumb Code   428  yaffs_guts.o(.text)
    yaffs_find_gc_block                      0x1a00a751   Thumb Code   942  yaffs_guts.o(.text)
    yaffs_check_gc                           0x1a00aaff   Thumb Code   328  yaffs_guts.o(.text)
    yaffs_change_obj_name                    0x1a00b0ab   Thumb Code   182  yaffs_guts.o(.text)
    yaffs_wr_data_obj                        0x1a00b161   Thumb Code   186  yaffs_guts.o(.text)
    yaffs_flush_single_cache                 0x1a00b21b   Thumb Code    46  yaffs_guts.o(.text)
    yaffs_flush_file_cache                   0x1a00b249   Thumb Code    54  yaffs_guts.o(.text)
    yaffs_grab_chunk_cache                   0x1a00b2c7   Thumb Code   142  yaffs_guts.o(.text)
    yaffs_find_chunk_cache                   0x1a00b355   Thumb Code   262  yaffs_guts.o(.text)
    yaffs_use_cache                          0x1a00b45b   Thumb Code    74  yaffs_guts.o(.text)
    yaffs_soft_del_file                      0x1a00b4b1   Thumb Code    88  yaffs_guts.o(.text)
    yaffs_prune_worker                       0x1a00b509   Thumb Code   114  yaffs_guts.o(.text)
    yaffs_new_obj                            0x1a00b57b   Thumb Code   174  yaffs_guts.o(.text)
    yaffs_create_fake_dir                    0x1a00b629   Thumb Code    38  yaffs_guts.o(.text)
    yaffs_init_tnodes_and_objs               0x1a00b64f   Thumb Code    48  yaffs_guts.o(.text)
    yaffs_update_parent                      0x1a00b69f   Thumb Code    94  yaffs_guts.o(.text)
    yaffs_rd_data_obj                        0x1a00b773   Thumb Code    60  yaffs_guts.o(.text)
    yaffs_prune_chunks                       0x1a00b7af   Thumb Code   428  yaffs_guts.o(.text)
    yaffs_del_file                           0x1a00ba73   Thumb Code   118  yaffs_guts.o(.text)
    yaffs_create_obj                         0x1a00bb59   Thumb Code   224  yaffs_guts.o(.text)
    yaffs_deinit_blocks                      0x1a00bd79   Thumb Code    68  yaffs_guts.o(.text)
    yaffs_init_blocks                        0x1a00bdbd   Thumb Code   182  yaffs_guts.o(.text)
    yaffs_do_xattrib_mod                     0x1a00beab   Thumb Code    56  yaffs_guts.o(.text)
    yaffs_do_xattrib_fetch                   0x1a00bee3   Thumb Code   174  yaffs_guts.o(.text)
    yaffs_unlink_worker                      0x1a00c3fd   Thumb Code   232  yaffs_guts.o(.text)
    yaffs_fix_hanging_objs                   0x1a00c643   Thumb Code   154  yaffs_guts.o(.text)
    yaffs_del_dir_contents                   0x1a00c6dd   Thumb Code    82  yaffs_guts.o(.text)
    yaffs_create_initial_dir                 0x1a00c7d9   Thumb Code   122  yaffs_guts.o(.text)
    list_add                                 0x1a00d027   Thumb Code    12  yaffs_guts.o(.text)
    list_del_init                            0x1a00d033   Thumb Code    14  yaffs_guts.o(.text)
    list_empty                               0x1a00d041   Thumb Code    14  yaffs_guts.o(.text)
    yaffs_hash_fn                            0x1a00d04f   Thumb Code    20  yaffs_guts.o(.text)
    yaffs_get_erased_chunks                  0x1a00d063   Thumb Code    28  yaffs_guts.o(.text)
    yaffs_calc_name_sum                      0x1a00d07f   Thumb Code    38  yaffs_guts.o(.text)
    yaffs_free_tnode                         0x1a00d0a5   Thumb Code    26  yaffs_guts.o(.text)
    yaffs_deinit_tnodes_and_objs             0x1a00d0bf   Thumb Code    20  yaffs_guts.o(.text)
    yaffs_alloc_empty_obj                    0x1a00d0d3   Thumb Code   118  yaffs_guts.o(.text)
    yaffs_new_obj_id                         0x1a00d149   Thumb Code   102  yaffs_guts.o(.text)
    yaffs_del_link                           0x1a00d1af   Thumb Code    20  yaffs_guts.o(.text)
    yaffs_del_symlink                        0x1a00d1c3   Thumb Code    24  yaffs_guts.o(.text)
    yaffs_del_dir                            0x1a00d1db   Thumb Code    24  yaffs_guts.o(.text)
    yaffs_unlink_file_if_needed              0x1a00d1f3   Thumb Code   266  yaffs_guts.o(.text)
    yaffs_unlink_obj                         0x1a00d2fd   Thumb Code    16  yaffs_guts.o(.text)
    yaffs_has_null_parent                    0x1a00d30d   Thumb Code    32  yaffs_guts.o(.text)
    .text                                    0x1a00d368   Section        0  yaffs_nameval.o(.text)
    nval_find                                0x1a00d369   Thumb Code    96  yaffs_nameval.o(.text)
    nval_used                                0x1a00d597   Thumb Code    38  yaffs_nameval.o(.text)
    .text                                    0x1a00d5bc   Section        0  yaffs_nand.o(.text)
    .text                                    0x1a00d810   Section        0  yaffs_packedtags2.o(.text)
    yaffs_dump_packed_tags2_tags_only        0x1a00d811   Thumb Code    26  yaffs_packedtags2.o(.text)
    yaffs_dump_tags2                         0x1a00d82b   Thumb Code    52  yaffs_packedtags2.o(.text)
    .text                                    0x1a00da08   Section        0  yaffs_summary.o(.text)
    yaffs_get_block_info                     0x1a00da09   Thumb Code    60  yaffs_summary.o(.text)
    yaffs_summary_write                      0x1a00dabf   Thumb Code   252  yaffs_summary.o(.text)
    yaffs_summary_clear                      0x1a00ddc1   Thumb Code   160  yaffs_summary.o(.text)
    yaffs_summary_sum                        0x1a00de61   Thumb Code    34  yaffs_summary.o(.text)
    .text                                    0x1a00de84   Section        0  yaffs_tagscompat.o(.text)
    yaffs_rd_chunk_nand                      0x1a00deff   Thumb Code   298  yaffs_tagscompat.o(.text)
    yaffs_tags_compat_wr                     0x1a00e029   Thumb Code   214  yaffs_tagscompat.o(.text)
    yaffs_tags_compat_rd                     0x1a00e0ff   Thumb Code   280  yaffs_tagscompat.o(.text)
    yaffs_tags_compat_mark_bad               0x1a00e217   Thumb Code    58  yaffs_tagscompat.o(.text)
    yaffs_tags_compat_query_block            0x1a00e251   Thumb Code   368  yaffs_tagscompat.o(.text)
    yaffs_wr_nand                            0x1a00e3fb   Thumb Code    20  yaffs_tagscompat.o(.text)
    yaffs_handle_rd_data_error               0x1a00e40f   Thumb Code   102  yaffs_tagscompat.o(.text)
    .text                                    0x1a00e538   Section        0  yaffs_tagsmarshall.o(.text)
    yaffs_tags_marshall_write                0x1a00e539   Thumb Code   124  yaffs_tagsmarshall.o(.text)
    yaffs_tags_marshall_read                 0x1a00e5b5   Thumb Code   220  yaffs_tagsmarshall.o(.text)
    yaffs_tags_marshall_query_block          0x1a00e691   Thumb Code   136  yaffs_tagsmarshall.o(.text)
    yaffs_tags_marshall_mark_bad             0x1a00e719   Thumb Code     6  yaffs_tagsmarshall.o(.text)
    .text                                    0x1a00e898   Section        0  yaffs_verify.o(.text)
    yaffs_skip_nand_verification             0x1a00f2f3   Thumb Code    12  yaffs_verify.o(.text)
    .text                                    0x1a00f50c   Section        0  yaffs_yaffs1.o(.text)
    .text                                    0x1a00fb44   Section        0  yaffs_yaffs2.o(.text)
    yaffs2_wr_checkpt_validity_marker        0x1a00fd0b   Thumb Code    46  yaffs_yaffs2.o(.text)
    yaffs2_rd_checkpt_validity_marker        0x1a00fd39   Thumb Code    76  yaffs_yaffs2.o(.text)
    yaffs2_checkpt_obj_to_obj                0x1a00fd85   Thumb Code   224  yaffs_yaffs2.o(.text)
    yaffs2_checkpt_tnode_worker              0x1a00fe65   Thumb Code   112  yaffs_yaffs2.o(.text)
    yaffs2_rd_checkpt_tnodes                 0x1a00fed5   Thumb Code   138  yaffs_yaffs2.o(.text)
    yaffs2_wr_checkpt_objs                   0x1a00ff5f   Thumb Code   318  yaffs_yaffs2.o(.text)
    yaffs2_rd_checkpt_objs                   0x1a01009d   Thumb Code   190  yaffs_yaffs2.o(.text)
    yaffs2_wr_checkpt_data                   0x1a01015b   Thumb Code   204  yaffs_yaffs2.o(.text)
    yaffs2_rd_checkpt_data                   0x1a010227   Thumb Code   230  yaffs_yaffs2.o(.text)
    yaffs2_ybicmp                            0x1a0106fd   Thumb Code    20  yaffs_yaffs2.o(.text)
    yaffs2_scan_chunk                        0x1a010711   Thumb Code  1380  yaffs_yaffs2.o(.text)
    yaffs2_wr_checkpt_dev                    0x1a010f61   Thumb Code   156  yaffs_yaffs2.o(.text)
    yaffs2_rd_checkpt_dev                    0x1a010ffd   Thumb Code   644  yaffs_yaffs2.o(.text)
    yaffs2_obj_checkpt_obj                   0x1a011281   Thumb Code   114  yaffs_yaffs2.o(.text)
    .text                                    0x1a0112f4   Section        0  yaffs_osglue.o(.text)
    .text                                    0x1a011378   Section        0  yaffscfg2k.o(.text)
    .text                                    0x1a0113b4   Section        0  yaffs_startup.o(.text)
    .text                                    0x1a01141c   Section        0  jdarith.o(.text)
    get_byte                                 0x1a01141d   Thumb Code    48  jdarith.o(.text)
    arith_decode                             0x1a01144d   Thumb Code   198  jdarith.o(.text)
    process_restart                          0x1a011513   Thumb Code   154  jdarith.o(.text)
    decode_mcu_DC_first                      0x1a0115ad   Thumb Code   324  jdarith.o(.text)
    decode_mcu_AC_first                      0x1a0116f1   Thumb Code   302  jdarith.o(.text)
    decode_mcu_DC_refine                     0x1a01181f   Thumb Code    84  jdarith.o(.text)
    decode_mcu_AC_refine                     0x1a011873   Thumb Code   268  jdarith.o(.text)
    decode_mcu                               0x1a01197f   Thumb Code   532  jdarith.o(.text)
    start_pass                               0x1a011b93   Thumb Code   584  jdarith.o(.text)
    finish_pass                              0x1a011ddb   Thumb Code     2  jdarith.o(.text)
    .text                                    0x1a011e64   Section        0  jdmaster.o(.text)
    use_merged_upsample                      0x1a011e65   Thumb Code   152  jdmaster.o(.text)
    master_selection                         0x1a01204f   Thumb Code   516  jdmaster.o(.text)
    prepare_for_output_pass                  0x1a012253   Thumb Code   278  jdmaster.o(.text)
    finish_output_pass                       0x1a012369   Thumb Code    28  jdmaster.o(.text)
    .text                                    0x1a01240c   Section        0  jdinput.o(.text)
    initial_setup                            0x1a01269d   Thumb Code   668  jdinput.o(.text)
    per_scan_setup                           0x1a012939   Thumb Code   276  jdinput.o(.text)
    start_input_pass                         0x1a012a4d   Thumb Code   138  jdinput.o(.text)
    consume_markers                          0x1a012ad7   Thumb Code   186  jdinput.o(.text)
    finish_input_pass                        0x1a012b91   Thumb Code    24  jdinput.o(.text)
    reset_input_controller                   0x1a012ba9   Thumb Code    46  jdinput.o(.text)
    .text                                    0x1a012c18   Section        0  jdmarker.o(.text)
    get_sof                                  0x1a012c19   Thumb Code   592  jdmarker.o(.text)
    get_sos                                  0x1a012e69   Thumb Code   582  jdmarker.o(.text)
    get_dac                                  0x1a0130af   Thumb Code   260  jdmarker.o(.text)
    get_dht                                  0x1a0131b3   Thumb Code   530  jdmarker.o(.text)
    get_dqt                                  0x1a0133c5   Thumb Code   528  jdmarker.o(.text)
    get_lse                                  0x1a0135d5   Thumb Code   826  jdmarker.o(.text)
    examine_app0                             0x1a01390f   Thumb Code   342  jdmarker.o(.text)
    examine_app14                            0x1a013a65   Thumb Code   124  jdmarker.o(.text)
    get_interesting_appn                     0x1a013ae1   Thumb Code   226  jdmarker.o(.text)
    save_marker                              0x1a013bc3   Thumb Code   416  jdmarker.o(.text)
    skip_variable                            0x1a013d63   Thumb Code   114  jdmarker.o(.text)
    next_marker                              0x1a013dd5   Thumb Code   166  jdmarker.o(.text)
    read_markers                             0x1a013e7b   Thumb Code   408  jdmarker.o(.text)
    read_restart_marker                      0x1a014013   Thumb Code   102  jdmarker.o(.text)
    get_soi                                  0x1a01421b   Thumb Code   106  jdmarker.o(.text)
    get_dri                                  0x1a014285   Thumb Code   166  jdmarker.o(.text)
    first_marker                             0x1a01432b   Thumb Code   102  jdmarker.o(.text)
    reset_marker_reader                      0x1a014391   Thumb Code    56  jdmarker.o(.text)
    .text                                    0x1a0143c8   Section        0  jdhuff.o(.text)
    jpeg_make_d_derived_tbl                  0x1a0143c9   Thumb Code   468  jdhuff.o(.text)
    jpeg_fill_bit_buffer                     0x1a01459d   Thumb Code   174  jdhuff.o(.text)
    jpeg_huff_decode                         0x1a01464b   Thumb Code   144  jdhuff.o(.text)
    process_restart                          0x1a0146db   Thumb Code    70  jdhuff.o(.text)
    decode_mcu_DC_first                      0x1a014721   Thumb Code   338  jdhuff.o(.text)
    decode_mcu_AC_first                      0x1a014873   Thumb Code   372  jdhuff.o(.text)
    decode_mcu_DC_refine                     0x1a0149e7   Thumb Code   140  jdhuff.o(.text)
    decode_mcu_AC_refine                     0x1a014a73   Thumb Code   672  jdhuff.o(.text)
    decode_mcu_sub                           0x1a014d13   Thumb Code   730  jdhuff.o(.text)
    decode_mcu                               0x1a014fed   Thumb Code   710  jdhuff.o(.text)
    start_pass_huff_decoder                  0x1a0152b3   Thumb Code   970  jdhuff.o(.text)
    finish_pass_huff                         0x1a0156ed   Thumb Code    32  jdhuff.o(.text)
    .text                                    0x1a015738   Section        0  jdmainct.o(.text)
    process_data_crank_post                  0x1a015739   Thumb Code    22  jdmainct.o(.text)
    process_data_simple_main                 0x1a01574f   Thumb Code    96  jdmainct.o(.text)
    process_data_context_main                0x1a0157af   Thumb Code   462  jdmainct.o(.text)
    start_pass_main                          0x1a01597d   Thumb Code    72  jdmainct.o(.text)
    alloc_funny_pointers                     0x1a015a61   Thumb Code   116  jdmainct.o(.text)
    make_funny_pointers                      0x1a015ad5   Thumb Code   160  jdmainct.o(.text)
    .text                                    0x1a015b84   Section        0  jdcoefct.o(.text)
    start_iMCU_row                           0x1a015b85   Thumb Code    48  jdcoefct.o(.text)
    start_input_pass                         0x1a015bb5   Thumb Code     6  jdcoefct.o(.text)
    decompress_data                          0x1a015bbb   Thumb Code   262  jdcoefct.o(.text)
    decompress_smooth_data                   0x1a015cc1   Thumb Code  1032  jdcoefct.o(.text)
    start_output_pass                        0x1a0160c9   Thumb Code    40  jdcoefct.o(.text)
    decompress_onepass                       0x1a0160f1   Thumb Code   356  jdcoefct.o(.text)
    dummy_consume_data                       0x1a016255   Thumb Code     4  jdcoefct.o(.text)
    consume_data                             0x1a016259   Thumb Code   256  jdcoefct.o(.text)
    smoothing_ok                             0x1a01641b   Thumb Code   146  jdcoefct.o(.text)
    .text                                    0x1a0164c8   Section        0  jdpostct.o(.text)
    post_process_2pass                       0x1a0164c9   Thumb Code   130  jdpostct.o(.text)
    post_process_prepass                     0x1a01654b   Thumb Code   136  jdpostct.o(.text)
    post_process_1pass                       0x1a0165d3   Thumb Code    88  jdpostct.o(.text)
    start_pass_dpost                         0x1a01662b   Thumb Code   118  jdpostct.o(.text)
    .text                                    0x1a01671c   Section        0  jddctmgr.o(.text)
    start_pass                               0x1a01671d   Thumb Code   766  jddctmgr.o(.text)
    .text                                    0x1a016b08   Section        0  jidctflt.o(.text)
    .text                                    0x1a016e48   Section        0  jidctint.o(.text)
    .text                                    0x1a01c0e0   Section        0  jdsample.o(.text)
    start_pass_upsample                      0x1a01c0e1   Thumb Code    16  jdsample.o(.text)
    sep_upsample                             0x1a01c0f1   Thumb Code   180  jdsample.o(.text)
    fullsize_upsample                        0x1a01c1a5   Thumb Code     4  jdsample.o(.text)
    noop_upsample                            0x1a01c1a9   Thumb Code     6  jdsample.o(.text)
    int_upsample                             0x1a01c1af   Thumb Code   114  jdsample.o(.text)
    h2v1_upsample                            0x1a01c221   Thumb Code    50  jdsample.o(.text)
    h2v2_upsample                            0x1a01c253   Thumb Code    82  jdsample.o(.text)
    .text                                    0x1a01c3d4   Section        0  jdcolor.o(.text)
    build_ycc_rgb_table                      0x1a01c3d5   Thumb Code   150  jdcolor.o(.text)
    ycc_rgb_convert                          0x1a01c46b   Thumb Code   160  jdcolor.o(.text)
    rgb_gray_convert                         0x1a01c50b   Thumb Code   108  jdcolor.o(.text)
    rgb1_rgb_convert                         0x1a01c577   Thumb Code    90  jdcolor.o(.text)
    rgb1_gray_convert                        0x1a01c5d1   Thumb Code   120  jdcolor.o(.text)
    rgb_convert                              0x1a01c649   Thumb Code    84  jdcolor.o(.text)
    null_convert                             0x1a01c69d   Thumb Code    68  jdcolor.o(.text)
    grayscale_convert                        0x1a01c6e1   Thumb Code    28  jdcolor.o(.text)
    gray_rgb_convert                         0x1a01c6fd   Thumb Code    46  jdcolor.o(.text)
    ycck_cmyk_convert                        0x1a01c72b   Thumb Code   180  jdcolor.o(.text)
    start_pass_dcolor                        0x1a01c7df   Thumb Code     2  jdcolor.o(.text)
    build_bg_ycc_rgb_table                   0x1a01c9d9   Thumb Code   208  jdcolor.o(.text)
    .text                                    0x1a01cad8   Section        0  jquant1.o(.text)
    create_colorindex                        0x1a01cad9   Thumb Code   202  jquant1.o(.text)
    color_quantize                           0x1a01cba3   Thumb Code    84  jquant1.o(.text)
    color_quantize3                          0x1a01cbf7   Thumb Code    86  jquant1.o(.text)
    quantize_ord_dither                      0x1a01cc4d   Thumb Code   140  jquant1.o(.text)
    quantize3_ord_dither                     0x1a01ccd9   Thumb Code   156  jquant1.o(.text)
    quantize_fs_dither                       0x1a01cd75   Thumb Code   290  jquant1.o(.text)
    alloc_fs_workspace                       0x1a01ce97   Thumb Code    50  jquant1.o(.text)
    start_pass_1_quant                       0x1a01cec9   Thumb Code   162  jquant1.o(.text)
    finish_pass_1_quant                      0x1a01cf6b   Thumb Code     2  jquant1.o(.text)
    new_color_map_1_quant                    0x1a01cf6d   Thumb Code    12  jquant1.o(.text)
    largest_input_value                      0x1a01cff3   Thumb Code    20  jquant1.o(.text)
    create_colormap                          0x1a01d007   Thumb Code   194  jquant1.o(.text)
    create_odither_tables                    0x1a01d0c9   Thumb Code   158  jquant1.o(.text)
    select_ncolors                           0x1a01d167   Thumb Code   146  jquant1.o(.text)
    .text                                    0x1a01d220   Section        0  jquant2.o(.text)
    prescan_quantize                         0x1a01d221   Thumb Code    84  jquant2.o(.text)
    update_box                               0x1a01d275   Thumb Code   572  jquant2.o(.text)
    median_cut                               0x1a01d4b1   Thumb Code   264  jquant2.o(.text)
    find_nearby_colors                       0x1a01d5b9   Thumb Code   296  jquant2.o(.text)
    fill_inverse_cmap                        0x1a01d6e1   Thumb Code   146  jquant2.o(.text)
    pass2_no_dither                          0x1a01d773   Thumb Code   110  jquant2.o(.text)
    pass2_fs_dither                          0x1a01d7e1   Thumb Code   472  jquant2.o(.text)
    init_error_limit                         0x1a01d9b9   Thumb Code    98  jquant2.o(.text)
    finish_pass1                             0x1a01da1b   Thumb Code    22  jquant2.o(.text)
    finish_pass2                             0x1a01da31   Thumb Code     2  jquant2.o(.text)
    start_pass_2_quant                       0x1a01da33   Thumb Code   208  jquant2.o(.text)
    new_color_map_2_quant                    0x1a01db03   Thumb Code    10  jquant2.o(.text)
    select_colors                            0x1a01dbf5   Thumb Code   112  jquant2.o(.text)
    find_best_colors                         0x1a01dc65   Thumb Code   208  jquant2.o(.text)
    compute_color                            0x1a01dd35   Thumb Code   190  jquant2.o(.text)
    .text                                    0x1a01de10   Section        0  jdmerge.o(.text)
    start_pass_merged_upsample               0x1a01de11   Thumb Code    16  jdmerge.o(.text)
    merged_2v_upsample                       0x1a01de21   Thumb Code   154  jdmerge.o(.text)
    merged_1v_upsample                       0x1a01debb   Thumb Code    38  jdmerge.o(.text)
    h2v1_merged_upsample                     0x1a01dee1   Thumb Code   222  jdmerge.o(.text)
    h2v2_merged_upsample                     0x1a01dfbf   Thumb Code   362  jdmerge.o(.text)
    build_ycc_rgb_table                      0x1a01e181   Thumb Code   144  jdmerge.o(.text)
    .text                                    0x1a01e230   Section        0  jcomapi.o(.text)
    .text                                    0x1a01e2a2   Section        0  jutils.o(.text)
    .text                                    0x1a01e2f0   Section        0  jerror.o(.text)
    error_exit                               0x1a01e2f1   Thumb Code    22  jerror.o(.text)
    output_message                           0x1a01e307   Thumb Code    26  jerror.o(.text)
    emit_message                             0x1a01e321   Thumb Code    44  jerror.o(.text)
    format_message                           0x1a01e34d   Thumb Code   142  jerror.o(.text)
    reset_error_mgr                          0x1a01e3db   Thumb Code    12  jerror.o(.text)
    .text                                    0x1a01e434   Section        0  jmemmgr.o(.text)
    alloc_small                              0x1a01e435   Thumb Code   210  jmemmgr.o(.text)
    alloc_large                              0x1a01e507   Thumb Code   118  jmemmgr.o(.text)
    alloc_sarray                             0x1a01e57d   Thumb Code   112  jmemmgr.o(.text)
    alloc_barray                             0x1a01e5ed   Thumb Code   118  jmemmgr.o(.text)
    request_virt_sarray                      0x1a01e663   Thumb Code    76  jmemmgr.o(.text)
    request_virt_barray                      0x1a01e6af   Thumb Code    76  jmemmgr.o(.text)
    realize_virt_arrays                      0x1a01e6fb   Thumb Code   282  jmemmgr.o(.text)
    do_sarray_io                             0x1a01e815   Thumb Code   126  jmemmgr.o(.text)
    do_barray_io                             0x1a01e893   Thumb Code   118  jmemmgr.o(.text)
    access_virt_sarray                       0x1a01e909   Thumb Code   258  jmemmgr.o(.text)
    access_virt_barray                       0x1a01ea0b   Thumb Code   260  jmemmgr.o(.text)
    free_pool                                0x1a01eb0f   Thumb Code   196  jmemmgr.o(.text)
    self_destruct                            0x1a01ebd3   Thumb Code    42  jmemmgr.o(.text)
    out_of_memory                            0x1a01ecc1   Thumb Code    16  jmemmgr.o(.text)
    .text                                    0x1a01ed10   Section        0  jidctfst.o(.text)
    .text                                    0x1a01efde   Section        0  jpeg_port.o(.text)
    .text                                    0x1a01eff4   Section        0  wrbmp.o(.text)
    put_pixel_rows                           0x1a01eff5   Thumb Code    80  wrbmp.o(.text)
    put_gray_rows                            0x1a01f045   Thumb Code    68  wrbmp.o(.text)
    start_output_bmp                         0x1a01f089   Thumb Code     2  wrbmp.o(.text)
    write_colormap                           0x1a01f08b   Thumb Code   294  wrbmp.o(.text)
    write_bmp_header                         0x1a01f1b1   Thumb Code   414  wrbmp.o(.text)
    write_os2_header                         0x1a01f34f   Thumb Code   260  wrbmp.o(.text)
    finish_output_bmp                        0x1a01f453   Thumb Code   106  wrbmp.o(.text)
    .text                                    0x1a01f57c   Section        0  jdapimin.o(.text)
    default_decompress_parms                 0x1a01f625   Thumb Code   342  jdapimin.o(.text)
    .text                                    0x1a01f91c   Section        0  jdapistd.o(.text)
    output_pass_setup                        0x1a01f91d   Thumb Code   142  jdapistd.o(.text)
    .text                                    0x1a01fbe4   Section        0  jmemnobs.o(.text)
    .text                                    0x1a01fc14   Section        0  jdatasrc.o(.text)
    init_source                              0x1a01fc15   Thumb Code    10  jdatasrc.o(.text)
    init_mem_source                          0x1a01fc1f   Thumb Code     2  jdatasrc.o(.text)
    fill_input_buffer                        0x1a01fc21   Thumb Code    88  jdatasrc.o(.text)
    fill_mem_input_buffer                    0x1a01fc79   Thumb Code    38  jdatasrc.o(.text)
    skip_input_data                          0x1a01fc9f   Thumb Code    38  jdatasrc.o(.text)
    term_source                              0x1a01fcc5   Thumb Code     2  jdatasrc.o(.text)
    .text                                    0x1a01fd78   Section        0  board.o(.text)
    delay                                    0x1a01fde1   Thumb Code    12  board.o(.text)
    Board_Audio_CodecInit                    0x1a01fded   Thumb Code    32  board.o(.text)
    writeLCD00_16                            0x1a01fe0d   Thumb Code    58  board.o(.text)
    writeLCD01_16                            0x1a01fe47   Thumb Code    72  board.o(.text)
    writeLCDReg                              0x1a01fe8f   Thumb Code    20  board.o(.text)
    pinConfig                                0x1a01fea3   Thumb Code    14  board.o(.text)
    writeTSCReg                              0x1a01feb1   Thumb Code    28  board.o(.text)
    readTSCReg                               0x1a01fecd   Thumb Code    24  board.o(.text)
    detectTSCTouch                           0x1a01fee5   Thumb Code    36  board.o(.text)
    getTSCCoord                              0x1a01ff09   Thumb Code   114  board.o(.text)
    Board_LED_Init                           0x1a020013   Thumb Code    28  board.o(.text)
    Chip_SCU_PinMuxSet                       0x1a020795   Thumb Code    12  board.o(.text)
    Chip_GPIO_SetPinState                    0x1a0207a1   Thumb Code    10  board.o(.text)
    Chip_GPIO_GetPinState                    0x1a0207ab   Thumb Code    18  board.o(.text)
    Chip_GPIO_SetPinDIROutput                0x1a0207bd   Thumb Code    72  board.o(.text)
    Chip_GPIO_SetPinDIRInput                 0x1a020805   Thumb Code    28  board.o(.text)
    .text                                    0x1a020820   Section        0  board_sysinit.o(.text)
    Chip_SCU_SetPinMuxing                    0x1a020821   Thumb Code    44  board_sysinit.o(.text)
    .text                                    0x1a0209bc   Section        0  uda1380.o(.text)
    Audio_Codec_SetDefaultValues             0x1a020a23   Thumb Code    36  uda1380.o(.text)
    .text                                    0x1a020b40   Section      238  lludivv7m.o(.text)
    .text                                    0x1a020c30   Section        0  noretval__2printf.o(.text)
    .text                                    0x1a020c48   Section        0  noretval__2fprintf.o(.text)
    .text                                    0x1a020c5c   Section        0  noretval__2sprintf.o(.text)
    .text                                    0x1a020c84   Section        0  _printf_pad.o(.text)
    .text                                    0x1a020cd2   Section        0  _printf_truncate.o(.text)
    .text                                    0x1a020cf6   Section        0  _printf_str.o(.text)
    .text                                    0x1a020d48   Section        0  _printf_dec.o(.text)
    .text                                    0x1a020dc0   Section        0  _printf_charcount.o(.text)
    .text                                    0x1a020de8   Section        0  _printf_wctomb.o(.text)
    .text                                    0x1a020ea4   Section        0  _printf_longlong_dec.o(.text)
    .text                                    0x1a020f20   Section        0  _printf_oct_int.o(.text)
    .text                                    0x1a020f74   Section        0  _printf_hex_int_ptr.o(.text)
    _printf_hex_common                       0x1a020f75   Thumb Code     0  _printf_hex_int_ptr.o(.text)
    .text                                    0x1a020ff0   Section        0  __printf_flags_ss_wp.o(.text)
    .text                                    0x1a021178   Section        0  __0sscanf.o(.text)
    .text                                    0x1a0211b4   Section        0  _scanf_int.o(.text)
    .text                                    0x1a021300   Section        0  _scanf_str.o(.text)
    .text                                    0x1a0213e0   Section        0  exit.o(.text)
    .text                                    0x1a0213f2   Section        0  memcmp.o(.text)
    .text                                    0x1a02144a   Section        0  strcpy.o(.text)
    .text                                    0x1a021492   Section        0  strncmp.o(.text)
    .text                                    0x1a021528   Section        0  strcat.o(.text)
    .text                                    0x1a021540   Section      138  rt_memcpy_v6.o(.text)
    .text                                    0x1a0215ca   Section      100  rt_memcpy_w.o(.text)
    .text                                    0x1a02162e   Section       16  aeabi_memset.o(.text)
    .text                                    0x1a02163e   Section       68  rt_memclr.o(.text)
    .text                                    0x1a021682   Section       78  rt_memclr_w.o(.text)
    .text                                    0x1a0216d0   Section       86  strncpy.o(.text)
    .text                                    0x1a021728   Section      128  strcmpv7m.o(.text)
    .text                                    0x1a0217a8   Section        0  heapauxi.o(.text)
    .text                                    0x1a0217ae   Section      138  lludiv10.o(.text)
    .text                                    0x1a021838   Section        0  _printf_intcommon.o(.text)
    .text                                    0x1a0218ec   Section        0  _printf_char_common.o(.text)
    _printf_input_char                       0x1a0218ed   Thumb Code    10  _printf_char_common.o(.text)
    .text                                    0x1a02191c   Section        0  _sputc.o(.text)
    .text                                    0x1a021926   Section        0  _printf_char.o(.text)
    .text                                    0x1a021954   Section        0  _printf_char_file.o(.text)
    .text                                    0x1a021978   Section        0  _printf_wchar.o(.text)
    .text                                    0x1a0219a4   Section        0  _chval.o(.text)
    .text                                    0x1a0219c0   Section        0  scanf_char.o(.text)
    _scanf_char_input                        0x1a0219c1   Thumb Code    12  scanf_char.o(.text)
    .text                                    0x1a0219ec   Section        0  _sgetc.o(.text)
    .text                                    0x1a021a2c   Section        0  _wcrtomb.o(.text)
    .text                                    0x1a021a6c   Section       16  rt_ctype_table.o(.text)
    .text                                    0x1a021a7c   Section        0  isspace.o(.text)
    .text                                    0x1a021a90   Section        0  _scanf.o(.text)
    .text                                    0x1a021e04   Section       74  sys_stackheap_outer.o(.text)
    .text                                    0x1a021e50   Section        8  rt_locale_intlibspace.o(.text)
    .text                                    0x1a021e58   Section        8  libspace.o(.text)
    i.Chip_Clock_Enable                      0x1a021e60   Section        0  clock_18xx_43xx.o(i.Chip_Clock_Enable)
    i.Chip_Clock_EnableOpts                  0x1a021e98   Section        0  clock_18xx_43xx.o(i.Chip_Clock_EnableOpts)
    i.Chip_Clock_FindBaseClock               0x1a021ed4   Section        0  clock_18xx_43xx.o(i.Chip_Clock_FindBaseClock)
    Chip_Clock_FindBaseClock                 0x1a021ed5   Thumb Code    74  clock_18xx_43xx.o(i.Chip_Clock_FindBaseClock)
    i.Chip_Clock_GetBaseClock                0x1a021f24   Section        0  clock_18xx_43xx.o(i.Chip_Clock_GetBaseClock)
    i.Chip_Clock_GetBaseClocktHz             0x1a021f48   Section        0  clock_18xx_43xx.o(i.Chip_Clock_GetBaseClocktHz)
    i.Chip_Clock_GetClockInputHz             0x1a021f5c   Section        0  clock_18xx_43xx.o(i.Chip_Clock_GetClockInputHz)
    i.Chip_Clock_GetDivRate                  0x1a022030   Section        0  clock_18xx_43xx.o(i.Chip_Clock_GetDivRate)
    Chip_Clock_GetDivRate                    0x1a022031   Thumb Code    40  clock_18xx_43xx.o(i.Chip_Clock_GetDivRate)
    i.Chip_Clock_GetDividerDivisor           0x1a022058   Section        0  clock_18xx_43xx.o(i.Chip_Clock_GetDividerDivisor)
    i.Chip_Clock_GetDividerSource            0x1a022078   Section        0  clock_18xx_43xx.o(i.Chip_Clock_GetDividerSource)
    i.Chip_Clock_GetEMCRate                  0x1a022098   Section        0  clock_18xx_43xx.o(i.Chip_Clock_GetEMCRate)
    i.Chip_Clock_GetMainPLLHz                0x1a0220c8   Section        0  clock_18xx_43xx.o(i.Chip_Clock_GetMainPLLHz)
    i.Chip_Clock_GetRate                     0x1a022140   Section        0  clock_18xx_43xx.o(i.Chip_Clock_GetRate)
    i.Chip_Clock_SetBaseClock                0x1a022198   Section        0  clock_18xx_43xx.o(i.Chip_Clock_SetBaseClock)
    i.Chip_Clock_SetDivider                  0x1a0221e0   Section        0  clock_18xx_43xx.o(i.Chip_Clock_SetDivider)
    i.Chip_EMC_Dynamic_Init                  0x1a022230   Section        0  emc_18xx_43xx.o(i.Chip_EMC_Dynamic_Init)
    i.Chip_EMC_Init                          0x1a02224c   Section        0  emc_18xx_43xx.o(i.Chip_EMC_Init)
    i.Chip_EMC_Static_Init                   0x1a022278   Section        0  emc_18xx_43xx.o(i.Chip_EMC_Static_Init)
    i.Chip_GPIO_Init                         0x1a022294   Section        0  gpio_18xx_43xx.o(i.Chip_GPIO_Init)
    i.Chip_I2C_EventHandler                  0x1a022298   Section        0  i2c_18xx_43xx.o(i.Chip_I2C_EventHandler)
    i.Chip_I2C_EventHandlerPolling           0x1a0222c0   Section        0  i2c_18xx_43xx.o(i.Chip_I2C_EventHandlerPolling)
    i.Chip_I2C_GetMasterEventHandler         0x1a022300   Section        0  i2c_18xx_43xx.o(i.Chip_I2C_GetMasterEventHandler)
    i.Chip_I2C_Init                          0x1a022314   Section        0  i2c_18xx_43xx.o(i.Chip_I2C_Init)
    i.Chip_I2C_IsStateChanged                0x1a022340   Section        0  i2c_18xx_43xx.o(i.Chip_I2C_IsStateChanged)
    i.Chip_I2C_MasterCmdRead                 0x1a022358   Section        0  i2c_18xx_43xx.o(i.Chip_I2C_MasterCmdRead)
    i.Chip_I2C_MasterSend                    0x1a022392   Section        0  i2c_18xx_43xx.o(i.Chip_I2C_MasterSend)
    i.Chip_I2C_MasterStateHandler            0x1a0223c4   Section        0  i2c_18xx_43xx.o(i.Chip_I2C_MasterStateHandler)
    i.Chip_I2C_MasterTransfer                0x1a0223fc   Section        0  i2c_18xx_43xx.o(i.Chip_I2C_MasterTransfer)
    i.Chip_I2C_SetClockRate                  0x1a022468   Section        0  i2c_18xx_43xx.o(i.Chip_I2C_SetClockRate)
    i.Chip_I2C_SetMasterEventHandler         0x1a0224a4   Section        0  i2c_18xx_43xx.o(i.Chip_I2C_SetMasterEventHandler)
    i.Chip_I2S_Init                          0x1a0224cc   Section        0  i2s_18xx_43xx.o(i.Chip_I2S_Init)
    i.Chip_I2S_TxConfig                      0x1a0224d8   Section        0  i2s_18xx_43xx.o(i.Chip_I2S_TxConfig)
    i.Chip_RGU_InReset                       0x1a022554   Section        0  rgu_18xx_43xx.o(i.Chip_RGU_InReset)
    i.Chip_RGU_TriggerReset                  0x1a02258c   Section        0  rgu_18xx_43xx.o(i.Chip_RGU_TriggerReset)
    i.Chip_SSP_ClearIntPending               0x1a0225b8   Section        0  ssp_18xx_43xx.o(i.Chip_SSP_ClearIntPending)
    Chip_SSP_ClearIntPending                 0x1a0225b9   Thumb Code     4  ssp_18xx_43xx.o(i.Chip_SSP_ClearIntPending)
    i.Chip_SSP_GetClockIndex                 0x1a0225bc   Section        0  ssp_18xx_43xx.o(i.Chip_SSP_GetClockIndex)
    Chip_SSP_GetClockIndex                   0x1a0225bd   Thumb Code    16  ssp_18xx_43xx.o(i.Chip_SSP_GetClockIndex)
    i.Chip_SSP_GetRawIntStatus               0x1a0225d0   Section        0  ssp_18xx_43xx.o(i.Chip_SSP_GetRawIntStatus)
    Chip_SSP_GetRawIntStatus                 0x1a0225d1   Thumb Code    16  ssp_18xx_43xx.o(i.Chip_SSP_GetRawIntStatus)
    i.Chip_SSP_GetStatus                     0x1a0225e0   Section        0  ssp_18xx_43xx.o(i.Chip_SSP_GetStatus)
    Chip_SSP_GetStatus                       0x1a0225e1   Thumb Code    16  ssp_18xx_43xx.o(i.Chip_SSP_GetStatus)
    i.Chip_SSP_Init                          0x1a0225f0   Section        0  ssp_18xx_43xx.o(i.Chip_SSP_Init)
    i.Chip_SSP_ReceiveFrame                  0x1a02262c   Section        0  ssp_18xx_43xx.o(i.Chip_SSP_ReceiveFrame)
    Chip_SSP_ReceiveFrame                    0x1a02262d   Thumb Code     8  ssp_18xx_43xx.o(i.Chip_SSP_ReceiveFrame)
    i.Chip_SSP_SendFrame                     0x1a022634   Section        0  ssp_18xx_43xx.o(i.Chip_SSP_SendFrame)
    Chip_SSP_SendFrame                       0x1a022635   Thumb Code     6  ssp_18xx_43xx.o(i.Chip_SSP_SendFrame)
    i.Chip_SSP_SetBitRate                    0x1a02263a   Section        0  ssp_18xx_43xx.o(i.Chip_SSP_SetBitRate)
    i.Chip_SSP_SetClockRate                  0x1a022680   Section        0  ssp_18xx_43xx.o(i.Chip_SSP_SetClockRate)
    i.Chip_SSP_SetMaster                     0x1a022694   Section        0  ssp_18xx_43xx.o(i.Chip_SSP_SetMaster)
    i.Chip_SSP_Set_Mode                      0x1a0226b0   Section        0  ssp_18xx_43xx.o(i.Chip_SSP_Set_Mode)
    Chip_SSP_Set_Mode                        0x1a0226b1   Thumb Code    12  ssp_18xx_43xx.o(i.Chip_SSP_Set_Mode)
    i.Chip_SSP_WriteFrames_Blocking          0x1a0226bc   Section        0  ssp_18xx_43xx.o(i.Chip_SSP_WriteFrames_Blocking)
    i.Chip_SetupCoreClock                    0x1a0227a6   Section        0  sysinit_18xx_43xx.o(i.Chip_SetupCoreClock)
    i.Chip_UART_DisableDivisorAccess         0x1a0227b4   Section        0  uart_18xx_43xx.o(i.Chip_UART_DisableDivisorAccess)
    Chip_UART_DisableDivisorAccess           0x1a0227b5   Thumb Code    10  uart_18xx_43xx.o(i.Chip_UART_DisableDivisorAccess)
    i.Chip_UART_EnableDivisorAccess          0x1a0227be   Section        0  uart_18xx_43xx.o(i.Chip_UART_EnableDivisorAccess)
    Chip_UART_EnableDivisorAccess            0x1a0227bf   Thumb Code    10  uart_18xx_43xx.o(i.Chip_UART_EnableDivisorAccess)
    i.Chip_UART_GetClockIndex                0x1a0227c8   Section        0  uart_18xx_43xx.o(i.Chip_UART_GetClockIndex)
    Chip_UART_GetClockIndex                  0x1a0227c9   Thumb Code    36  uart_18xx_43xx.o(i.Chip_UART_GetClockIndex)
    i.Chip_UART_Init                         0x1a0227f8   Section        0  uart_18xx_43xx.o(i.Chip_UART_Init)
    i.Chip_UART_SetBaud                      0x1a022844   Section        0  uart_18xx_43xx.o(i.Chip_UART_SetBaud)
    i.Chip_UART_SetDivisorLatches            0x1a022886   Section        0  uart_18xx_43xx.o(i.Chip_UART_SetDivisorLatches)
    Chip_UART_SetDivisorLatches              0x1a022887   Thumb Code     6  uart_18xx_43xx.o(i.Chip_UART_SetDivisorLatches)
    i.SystemCoreClockUpdate                  0x1a02288c   Section        0  chip_18xx_43xx.o(i.SystemCoreClockUpdate)
    i._is_digit                              0x1a0228a0   Section        0  __printf_wp.o(i._is_digit)
    i.clock_init_delay                       0x1a0228ae   Section        0  sysinit_18xx_43xx.o(i.clock_init_delay)
    clock_init_delay                         0x1a0228af   Thumb Code    36  sysinit_18xx_43xx.o(i.clock_init_delay)
    i.clock_main_init                        0x1a0228d4   Section        0  sysinit_18xx_43xx.o(i.clock_main_init)
    clock_main_init                          0x1a0228d5   Thumb Code   168  sysinit_18xx_43xx.o(i.clock_main_init)
    i.convertTimmingParam                    0x1a022990   Section        0  emc_18xx_43xx.o(i.convertTimmingParam)
    convertTimmingParam                      0x1a022991   Thumb Code    50  emc_18xx_43xx.o(i.convertTimmingParam)
    i.fpuInit                                0x1a0229c8   Section        0  fpu_init.o(i.fpuInit)
    i.getClkDiv                              0x1a022a18   Section        0  i2s_18xx_43xx.o(i.getClkDiv)
    getClkDiv                                0x1a022a19   Thumb Code   354  i2s_18xx_43xx.o(i.getClkDiv)
    i.getClkRate                             0x1a022b7c   Section        0  i2c_18xx_43xx.o(i.getClkRate)
    getClkRate                               0x1a022b7d   Thumb Code    22  i2c_18xx_43xx.o(i.getClkRate)
    i.getColsLen                             0x1a022b98   Section        0  emc_18xx_43xx.o(i.getColsLen)
    getColsLen                               0x1a022b99   Thumb Code    40  emc_18xx_43xx.o(i.getColsLen)
    i.getCurState                            0x1a022bc0   Section        0  i2c_18xx_43xx.o(i.getCurState)
    getCurState                              0x1a022bc1   Thumb Code    10  i2c_18xx_43xx.o(i.getCurState)
    i.handleMasterXferState                  0x1a022bca   Section        0  i2c_18xx_43xx.o(i.handleMasterXferState)
    i.initDynMem                             0x1a022caa   Section        0  emc_18xx_43xx.o(i.initDynMem)
    i.initStaticMem                          0x1a022e92   Section        0  emc_18xx_43xx.o(i.initStaticMem)
    i.startSlaverXfer                        0x1a022efa   Section        0  i2c_18xx_43xx.o(i.startSlaverXfer)
    startSlaverXfer                          0x1a022efb   Thumb Code    10  i2c_18xx_43xx.o(i.startSlaverXfer)
    locale$$code                             0x1a022f04   Section       44  lc_ctype_c.o(locale$$code)
    x$fpl$d2f                                0x1a022f30   Section       98  d2f.o(x$fpl$d2f)
    $v0                                      0x1a022f30   Number         0  d2f.o(x$fpl$d2f)
    x$fpl$dfltu                              0x1a022f92   Section       38  dflt_clz.o(x$fpl$dfltu)
    $v0                                      0x1a022f92   Number         0  dflt_clz.o(x$fpl$dfltu)
    x$fpl$dmul                               0x1a022fb8   Section      340  dmul.o(x$fpl$dmul)
    $v0                                      0x1a022fb8   Number         0  dmul.o(x$fpl$dmul)
    x$fpl$dnaninf                            0x1a02310c   Section      156  dnaninf.o(x$fpl$dnaninf)
    $v0                                      0x1a02310c   Number         0  dnaninf.o(x$fpl$dnaninf)
    x$fpl$dretinf                            0x1a0231a8   Section       12  dretinf.o(x$fpl$dretinf)
    $v0                                      0x1a0231a8   Number         0  dretinf.o(x$fpl$dretinf)
    x$fpl$fpinit                             0x1a0231b4   Section       10  fpinit.o(x$fpl$fpinit)
    $v0                                      0x1a0231b4   Number         0  fpinit.o(x$fpl$fpinit)
    x$fpl$fretinf                            0x1a0231be   Section       10  fretinf.o(x$fpl$fretinf)
    $v0                                      0x1a0231be   Number         0  fretinf.o(x$fpl$fretinf)
    .constdata                               0x1a0231c8   Section      256  yaffs_hweight.o(.constdata)
    x$fpl$usenofp                            0x1a0231c8   Section        0  usenofp.o(x$fpl$usenofp)
    yaffs_count_bits_table                   0x1a0231c8   Data         256  yaffs_hweight.o(.constdata)
    .constdata                               0x1a0232c8   Section      256  yaffs_ecc.o(.constdata)
    column_parity_table                      0x1a0232c8   Data         256  yaffs_ecc.o(.constdata)
    .constdata                               0x1a0233c8   Section       40  yaffs_verify.o(.constdata)
    block_state_name                         0x1a0233c8   Data          40  yaffs_verify.o(.constdata)
    .constdata                               0x1a0233f0   Section      876  jdhuff.o(.constdata)
    jpeg_zigzag_order                        0x1a0233f0   Data         256  jdhuff.o(.constdata)
    jpeg_zigzag_order7                       0x1a0234f0   Data         196  jdhuff.o(.constdata)
    jpeg_zigzag_order6                       0x1a0235b4   Data         144  jdhuff.o(.constdata)
    jpeg_zigzag_order5                       0x1a023644   Data         100  jdhuff.o(.constdata)
    jpeg_zigzag_order4                       0x1a0236a8   Data          64  jdhuff.o(.constdata)
    jpeg_zigzag_order3                       0x1a0236e8   Data          36  jdhuff.o(.constdata)
    jpeg_zigzag_order2                       0x1a02370c   Data          16  jdhuff.o(.constdata)
    bmask                                    0x1a02371c   Data          64  jdhuff.o(.constdata)
    .constdata                               0x1a023760   Section      192  jddctmgr.o(.constdata)
    aanscales                                0x1a023760   Data         128  jddctmgr.o(.constdata)
    aanscalefactor                           0x1a0237e0   Data          64  jddctmgr.o(.constdata)
    .constdata                               0x1a023820   Section      268  jquant1.o(.constdata)
    base_dither_matrix                       0x1a023820   Data         256  jquant1.o(.constdata)
    RGB_order                                0x1a023920   Data          12  jquant1.o(.constdata)
    .constdata                               0x1a02392c   Section      456  jaricom.o(.constdata)
    .constdata                               0x1a023af4   Section      320  jutils.o(.constdata)
    .constdata                               0x1a023c34   Section      260  jutils.o(.constdata)
    .constdata                               0x1a023d38   Section      208  jutils.o(.constdata)
    .constdata                               0x1a023e08   Section      164  jutils.o(.constdata)
    .constdata                               0x1a023eac   Section      128  jutils.o(.constdata)
    .constdata                               0x1a023f2c   Section      100  jutils.o(.constdata)
    .constdata                               0x1a023f90   Section       80  jutils.o(.constdata)
    .constdata                               0x1a023fe0   Section      512  jerror.o(.constdata)
    .constdata                               0x1a0241e0   Section       16  jmemmgr.o(.constdata)
    first_pool_slop                          0x1a0241e0   Data           8  jmemmgr.o(.constdata)
    extra_pool_slop                          0x1a0241e8   Data           8  jmemmgr.o(.constdata)
    .constdata                               0x1a0241f0   Section        4  jdatasrc.o(.constdata)
    mybuffer                                 0x1a0241f0   Data           4  jdatasrc.o(.constdata)
    .constdata                               0x1a0241f4   Section       64  board.o(.constdata)
    ledports                                 0x1a0241f4   Data           8  board.o(.constdata)
    ledbits                                  0x1a0241fc   Data           8  board.o(.constdata)
    .constdata                               0x1a024234   Section      700  board_sysinit.o(.constdata)
    InitClkStates                            0x1a024234   Data          16  board_sysinit.o(.constdata)
    spifipinmuxing                           0x1a024244   Data          24  board_sysinit.o(.constdata)
    pinmuxing                                0x1a02425c   Data         496  board_sysinit.o(.constdata)
    pinclockmuxing                           0x1a02444c   Data          16  board_sysinit.o(.constdata)
    MT48LC4M32_config                        0x1a02445c   Data         116  board_sysinit.o(.constdata)
    S29GL64N90_config                        0x1a0244d0   Data          32  board_sysinit.o(.constdata)
    .constdata                               0x1a0244f0   Section       31  uda1380.o(.constdata)
    UDA_sys_regs_dat                         0x1a0244f0   Data          11  uda1380.o(.constdata)
    UDA_interfil_regs_dat                    0x1a0244fb   Data          11  uda1380.o(.constdata)
    UDA_decimator_regs_dat                   0x1a024506   Data           9  uda1380.o(.constdata)
    .constdata                               0x1a024510   Section      108  clock_18xx_43xx.o(.constdata)
    periph_to_base                           0x1a024510   Data         108  clock_18xx_43xx.o(.constdata)
    .constdata                               0x1a02457c   Section       72  sysinit_18xx_43xx.o(.constdata)
    InitClkStates                            0x1a02457c   Data          72  sysinit_18xx_43xx.o(.constdata)
    .constdata                               0x1a0245c4   Section        8  _printf_wctomb.o(.constdata)
    initial_mbstate                          0x1a0245c4   Data           8  _printf_wctomb.o(.constdata)
    .constdata                               0x1a0245cc   Section       40  _printf_hex_int_ptr.o(.constdata)
    uc_hextab                                0x1a0245cc   Data          20  _printf_hex_int_ptr.o(.constdata)
    lc_hextab                                0x1a0245e0   Data          20  _printf_hex_int_ptr.o(.constdata)
    .constdata                               0x1a0245f4   Section       17  __printf_flags_ss_wp.o(.constdata)
    maptable                                 0x1a0245f4   Data          17  __printf_flags_ss_wp.o(.constdata)
    .conststring                             0x1a024608   Section      157  yaffs_checkptrw.o(.conststring)
    .conststring                             0x1a0246a8   Section      589  yaffs_guts.o(.conststring)
    .conststring                             0x1a0248f8   Section       91  yaffs_packedtags2.o(.conststring)
    .conststring                             0x1a024954   Section      390  yaffs_verify.o(.conststring)
    .conststring                             0x1a024adc   Section       98  yaffs_yaffs1.o(.conststring)
    .conststring                             0x1a024b40   Section      652  yaffs_yaffs2.o(.conststring)
    .conststring                             0x1a024dcc   Section     4877  jerror.o(.conststring)
    locale$$data                             0x1a0260fc   Section      272  lc_ctype_c.o(locale$$data)
    __lcctype_c_name                         0x1a026100   Data           2  lc_ctype_c.o(locale$$data)
    __lcctype_c_start                        0x1a026108   Data           0  lc_ctype_c.o(locale$$data)
    __lcctype_c_end                          0x1a02620c   Data           0  lc_ctype_c.o(locale$$data)

    Global Symbols

    Symbol Name                              Value     Ov Type        Size  Object(Section)

    BuildAttributes$$THM_ISAv4$E$P$D$K$B$S$7EM$VFPi3$EXTD16$VFPS$VFMA$PE$A:L22UL41UL21$X:L11$S22US41US21$IEEE1$IW$USESV6$~STKCKD$USESV7$~SHL$OSPACE$ROPI$EBA8$UX$STANDARDLIB$REQ8$PRES8$EABIv2 0x00000000   Number         0  anon$$obj.o ABSOLUTE
    __ARM_use_no_argv                        0x00000000   Number         0  main.o ABSOLUTE
    _printf_flags                            0x00000000   Number         0  printf_stubs.o ABSOLUTE
    _printf_return_value                     0x00000000   Number         0  printf_stubs.o ABSOLUTE
    _printf_sizespec                         0x00000000   Number         0  printf_stubs.o ABSOLUTE
    _printf_widthprec                        0x00000000   Number         0  printf_stubs.o ABSOLUTE
    __ARM_exceptions_init                     - Undefined Weak Reference
    __alloca_initialize                       - Undefined Weak Reference
    __arm_preinit_                            - Undefined Weak Reference
    __cpp_initialize__aeabi_                  - Undefined Weak Reference
    __cxa_finalize                            - Undefined Weak Reference
    __sigvec_lookup                           - Undefined Weak Reference
    _atexit_init                              - Undefined Weak Reference
    _call_atexit_fns                          - Undefined Weak Reference
    _clock_init                               - Undefined Weak Reference
    _fp_trap_init                             - Undefined Weak Reference
    _fp_trap_shutdown                         - Undefined Weak Reference
    _get_lc_collate                           - Undefined Weak Reference
    _get_lc_monetary                          - Undefined Weak Reference
    _get_lc_numeric                           - Undefined Weak Reference
    _get_lc_time                              - Undefined Weak Reference
    _getenv_init                              - Undefined Weak Reference
    _handle_redirection                       - Undefined Weak Reference
    _init_alloc                               - Undefined Weak Reference
    _init_user_alloc                          - Undefined Weak Reference
    _initio                                   - Undefined Weak Reference
    _printf_mbtowc                            - Undefined Weak Reference
    _printf_wc                                - Undefined Weak Reference
    _rand_init                                - Undefined Weak Reference
    _scanf_longlong                           - Undefined Weak Reference
    _scanf_mbtowc                             - Undefined Weak Reference
    _scanf_real                               - Undefined Weak Reference
    _scanf_wctomb                             - Undefined Weak Reference
    _scanf_wstring                            - Undefined Weak Reference
    _signal_finish                            - Undefined Weak Reference
    _signal_init                              - Undefined Weak Reference
    _terminate_alloc                          - Undefined Weak Reference
    _terminate_user_alloc                     - Undefined Weak Reference
    _terminateio                              - Undefined Weak Reference
    idle_task_exit                           0x10000000   Data           1  raw-os.o(.data)
    raw_sched_lock                           0x10000001   Data           1  raw-os.o(.data)
    raw_int_nesting                          0x10000002   Data           1  raw-os.o(.data)
    raw_os_active                            0x10000004   Data           2  raw-os.o(.data)
    high_ready_obj                           0x10000008   Data           4  raw-os.o(.data)
    raw_task_active                          0x1000000c   Data           4  raw-os.o(.data)
    raw_tick_count                           0x10000010   Data           4  raw-os.o(.data)
    raw_timer_count                          0x10000014   Data           4  raw-os.o(.data)
    raw_timer_ctrl                           0x10000018   Data           4  raw-os.o(.data)
    raw_idle_count                           0x10000020   Data           8  raw-os.o(.data)
    timer_head                               0x10000028   Data           8  raw-os.o(.data)
    sys_time_tick                            0x10000030   Data           8  raw-os.o(.data)
    _mem_minfragment                         0x10000038   Data           4  raw_malloc.o(.data)
    K9F_NF_CLE                               0x10000040   Data           4  k9f1g08.o(.data)
    K9F_NF_ALE                               0x10000044   Data           4  k9f1g08.o(.data)
    K9F_NF_DATA                              0x10000048   Data           4  k9f1g08.o(.data)
    bmp_data                                 0x1000004c   Data           4  main.o(.data)
    dest_mgr                                 0x10000050   Data           4  libjpeg_test.o(.data)
    num_scanlines                            0x10000054   Data           4  libjpeg_test.o(.data)
    yaffsfs_deviceList                       0x1000006c   Data           8  yaffsfs.o(.data)
    yaffs_wr_attempts                        0x1000007c   Data           4  yaffsfs.o(.data)
    yaffs_trace_mask                         0x10000094   Data           4  yaffscfg2k.o(.data)
    __stdout                                 0x10000098   Data           4  board.o(.data)
    __stdin                                  0x1000009c   Data           4  board.o(.data)
    __stderr                                 0x100000a0   Data           4  board.o(.data)
    g_isPenDn                                0x100000a4   Data           4  board.o(.data)
    g_isNewPenDn                             0x100000a8   Data           4  board.o(.data)
    SystemCoreClock                          0x100000ac   Data           4  chip_18xx_43xx.o(.data)
    raw_ready_queue                          0x100000f0   Data         508  raw-os.o(.bss)
    raw_idle_obj                             0x100002f0   Data         144  raw-os.o(.bss)
    idle_stack                               0x10000380   Data         320  raw-os.o(.bss)
    tick_head                                0x100004c0   Data          64  raw-os.o(.bss)
    raw_timer_obj                            0x10000500   Data         144  raw-os.o(.bss)
    timer_task_stack                         0x10000590   Data        1024  raw-os.o(.bss)
    timer_sem                                0x10000990   Data          36  raw-os.o(.bss)
    timer_mutex                              0x100009b4   Data          40  raw-os.o(.bss)
    raw_task_debug                           0x100009dc   Data          56  raw-os.o(.bss)
    tick_task_obj                            0x10000a18   Data         144  raw-os.o(.bss)
    tick_task_stack                          0x10000aa8   Data        1024  raw-os.o(.bss)
    tick_semaphore_obj                       0x10000ea8   Data          36  raw-os.o(.bss)
    shell_task_stack                         0x10000f58   Data        4096  main.o(.bss)
    shell_task_obj                           0x10001f58   Data         144  main.o(.bss)
    uart_sema                                0x10001fe8   Data          36  main.o(.bss)
    uart_fifo                                0x1000200c   Data          24  main.o(.bss)
    cinfo                                    0x100020a8   Data         432  libjpeg_test.o(.bss)
    jerr                                     0x10002258   Data         132  libjpeg_test.o(.bss)
    __libspace_start                         0x10005614   Data          96  libspace.o(.bss)
    __temporary_stack_top$libspace           0x10005674   Data           0  libspace.o(.bss)
    Stack_Mem                                0x10005778   Data        1536  keil_startup_lpc18xx43xx.o(STACK)
    __Vectors                                0x1a000000   Data           4  keil_startup_lpc18xx43xx.o(RESET)
    __main                                   0x1a000115   Thumb Code     8  __main.o(!!!main)
    __scatterload                            0x1a00011d   Thumb Code     0  __scatter.o(!!!scatter)
    __scatterload_rt2                        0x1a00011d   Thumb Code    44  __scatter.o(!!!scatter)
    __scatterload_rt2_thumb_only             0x1a00011d   Thumb Code     0  __scatter.o(!!!scatter)
    __scatterload_null                       0x1a00012b   Thumb Code     0  __scatter.o(!!!scatter)
    __scatterload_copy                       0x1a000151   Thumb Code    26  __scatter_copy.o(!!handler_copy)
    __scatterload_zeroinit                   0x1a00016d   Thumb Code    28  __scatter_zi.o(!!handler_zi)
    _printf_n                                0x1a000189   Thumb Code     0  _printf_n.o(.ARM.Collect$$_printf_percent$$00000001)
    _printf_percent                          0x1a000189   Thumb Code     0  _printf_percent.o(.ARM.Collect$$_printf_percent$$00000000)
    _printf_p                                0x1a00018f   Thumb Code     0  _printf_p.o(.ARM.Collect$$_printf_percent$$00000002)
    _printf_ll                               0x1a000195   Thumb Code     0  _printf_ll.o(.ARM.Collect$$_printf_percent$$00000007)
    _printf_i                                0x1a00019f   Thumb Code     0  _printf_i.o(.ARM.Collect$$_printf_percent$$00000008)
    _printf_d                                0x1a0001a5   Thumb Code     0  _printf_d.o(.ARM.Collect$$_printf_percent$$00000009)
    _printf_u                                0x1a0001ab   Thumb Code     0  _printf_u.o(.ARM.Collect$$_printf_percent$$0000000A)
    _printf_o                                0x1a0001b1   Thumb Code     0  _printf_o.o(.ARM.Collect$$_printf_percent$$0000000B)
    _printf_x                                0x1a0001b7   Thumb Code     0  _printf_x.o(.ARM.Collect$$_printf_percent$$0000000C)
    _printf_lld                              0x1a0001bd   Thumb Code     0  _printf_lld.o(.ARM.Collect$$_printf_percent$$0000000E)
    _printf_l                                0x1a0001c3   Thumb Code     0  _printf_l.o(.ARM.Collect$$_printf_percent$$00000012)
    _printf_c                                0x1a0001cd   Thumb Code     0  _printf_c.o(.ARM.Collect$$_printf_percent$$00000013)
    _printf_s                                0x1a0001d3   Thumb Code     0  _printf_s.o(.ARM.Collect$$_printf_percent$$00000014)
    _printf_lc                               0x1a0001d9   Thumb Code     0  _printf_lc.o(.ARM.Collect$$_printf_percent$$00000015)
    _printf_percent_end                      0x1a0001df   Thumb Code     0  _printf_percent_end.o(.ARM.Collect$$_printf_percent$$00000017)
    __rt_lib_init                            0x1a0001e3   Thumb Code     0  libinit.o(.ARM.Collect$$libinit$$00000000)
    __rt_lib_init_fp_1                       0x1a0001e5   Thumb Code     0  libinit2.o(.ARM.Collect$$libinit$$00000001)
    __rt_lib_init_heap_1                     0x1a0001e9   Thumb Code     0  libinit2.o(.ARM.Collect$$libinit$$0000000A)
    __rt_lib_init_lc_common                  0x1a0001e9   Thumb Code     0  libinit2.o(.ARM.Collect$$libinit$$0000000F)
    __rt_lib_init_preinit_1                  0x1a0001e9   Thumb Code     0  libinit2.o(.ARM.Collect$$libinit$$00000004)
    __rt_lib_init_rand_1                     0x1a0001e9   Thumb Code     0  libinit2.o(.ARM.Collect$$libinit$$0000000E)
    __rt_lib_init_user_alloc_1               0x1a0001e9   Thumb Code     0  libinit2.o(.ARM.Collect$$libinit$$0000000C)
    __rt_lib_init_lc_collate_1               0x1a0001ef   Thumb Code     0  libinit2.o(.ARM.Collect$$libinit$$00000011)
    __rt_lib_init_lc_ctype_2                 0x1a0001ef   Thumb Code     0  libinit2.o(.ARM.Collect$$libinit$$00000012)
    __rt_lib_init_alloca_1                   0x1a0001fb   Thumb Code     0  libinit2.o(.ARM.Collect$$libinit$$0000002E)
    __rt_lib_init_argv_1                     0x1a0001fb   Thumb Code     0  libinit2.o(.ARM.Collect$$libinit$$0000002C)
    __rt_lib_init_atexit_1                   0x1a0001fb   Thumb Code     0  libinit2.o(.ARM.Collect$$libinit$$0000001B)
    __rt_lib_init_clock_1                    0x1a0001fb   Thumb Code     0  libinit2.o(.ARM.Collect$$libinit$$00000021)
    __rt_lib_init_cpp_1                      0x1a0001fb   Thumb Code     0  libinit2.o(.ARM.Collect$$libinit$$00000032)
    __rt_lib_init_exceptions_1               0x1a0001fb   Thumb Code     0  libinit2.o(.ARM.Collect$$libinit$$00000030)
    __rt_lib_init_fp_trap_1                  0x1a0001fb   Thumb Code     0  libinit2.o(.ARM.Collect$$libinit$$0000001F)
    __rt_lib_init_getenv_1                   0x1a0001fb   Thumb Code     0  libinit2.o(.ARM.Collect$$libinit$$00000023)
    __rt_lib_init_lc_ctype_1                 0x1a0001fb   Thumb Code     0  libinit2.o(.ARM.Collect$$libinit$$00000013)
    __rt_lib_init_lc_monetary_1              0x1a0001fb   Thumb Code     0  libinit2.o(.ARM.Collect$$libinit$$00000015)
    __rt_lib_init_lc_numeric_1               0x1a0001fb   Thumb Code     0  libinit2.o(.ARM.Collect$$libinit$$00000017)
    __rt_lib_init_lc_time_1                  0x1a0001fb   Thumb Code     0  libinit2.o(.ARM.Collect$$libinit$$00000019)
    __rt_lib_init_return                     0x1a0001fb   Thumb Code     0  libinit2.o(.ARM.Collect$$libinit$$00000033)
    __rt_lib_init_signal_1                   0x1a0001fb   Thumb Code     0  libinit2.o(.ARM.Collect$$libinit$$0000001D)
    __rt_lib_init_stdio_1                    0x1a0001fb   Thumb Code     0  libinit2.o(.ARM.Collect$$libinit$$00000025)
    __rt_lib_shutdown                        0x1a0001fd   Thumb Code     0  libshutdown.o(.ARM.Collect$$libshutdown$$00000000)
    __rt_lib_shutdown_cpp_1                  0x1a0001ff   Thumb Code     0  libshutdown2.o(.ARM.Collect$$libshutdown$$00000002)
    __rt_lib_shutdown_fp_trap_1              0x1a0001ff   Thumb Code     0  libshutdown2.o(.ARM.Collect$$libshutdown$$00000007)
    __rt_lib_shutdown_heap_1                 0x1a0001ff   Thumb Code     0  libshutdown2.o(.ARM.Collect$$libshutdown$$0000000F)
    __rt_lib_shutdown_return                 0x1a0001ff   Thumb Code     0  libshutdown2.o(.ARM.Collect$$libshutdown$$00000010)
    __rt_lib_shutdown_signal_1               0x1a0001ff   Thumb Code     0  libshutdown2.o(.ARM.Collect$$libshutdown$$0000000A)
    __rt_lib_shutdown_stdio_1                0x1a0001ff   Thumb Code     0  libshutdown2.o(.ARM.Collect$$libshutdown$$00000004)
    __rt_lib_shutdown_user_alloc_1           0x1a0001ff   Thumb Code     0  libshutdown2.o(.ARM.Collect$$libshutdown$$0000000C)
    __rt_entry                               0x1a000201   Thumb Code     0  __rtentry.o(.ARM.Collect$$rtentry$$00000000)
    __rt_entry_presh_1                       0x1a000201   Thumb Code     0  __rtentry2.o(.ARM.Collect$$rtentry$$00000002)
    __rt_entry_sh                            0x1a000201   Thumb Code     0  __rtentry4.o(.ARM.Collect$$rtentry$$00000004)
    __rt_entry_li                            0x1a000207   Thumb Code     0  __rtentry2.o(.ARM.Collect$$rtentry$$0000000A)
    __rt_entry_postsh_1                      0x1a000207   Thumb Code     0  __rtentry2.o(.ARM.Collect$$rtentry$$00000009)
    __rt_entry_main                          0x1a00020b   Thumb Code     0  __rtentry2.o(.ARM.Collect$$rtentry$$0000000D)
    __rt_entry_postli_1                      0x1a00020b   Thumb Code     0  __rtentry2.o(.ARM.Collect$$rtentry$$0000000C)
    __rt_exit                                0x1a000213   Thumb Code     0  rtexit.o(.ARM.Collect$$rtexit$$00000000)
    __rt_exit_ls                             0x1a000215   Thumb Code     0  rtexit2.o(.ARM.Collect$$rtexit$$00000003)
    __rt_exit_prels_1                        0x1a000215   Thumb Code     0  rtexit2.o(.ARM.Collect$$rtexit$$00000002)
    __rt_exit_exit                           0x1a000219   Thumb Code     0  rtexit2.o(.ARM.Collect$$rtexit$$00000004)
    get_ready_task                           0x1a000221   Thumb Code    16  raw-os.o(.text)
    raw_sched                                0x1a000231   Thumb Code    46  raw-os.o(.text)
    raw_semaphore_create                     0x1a00025f   Thumb Code    54  raw-os.o(.text)
    raw_task_semaphore_create                0x1a000295   Thumb Code    16  raw-os.o(.text)
    tick_list_remove                         0x1a0002a5   Thumb Code    24  raw-os.o(.text)
    mutex_priority_look                      0x1a0002bd   Thumb Code    74  raw-os.o(.text)
    change_pend_list_priority                0x1a000307   Thumb Code    34  raw-os.o(.text)
    add_ready_list_end                       0x1a000329   Thumb Code    40  raw-os.o(.text)
    add_ready_list_head                      0x1a000351   Thumb Code    40  raw-os.o(.text)
    bit_search_first_one                     0x1a000379   Thumb Code   116  raw-os.o(.text)
    remove_ready_list                        0x1a0003ed   Thumb Code   104  raw-os.o(.text)
    change_internal_task_priority            0x1a000455   Thumb Code   168  raw-os.o(.text)
    mutex_state_change                       0x1a0004fd   Thumb Code    38  raw-os.o(.text)
    add_ready_list                           0x1a000523   Thumb Code    20  raw-os.o(.text)
    tick_list_update                         0x1a000537   Thumb Code   246  raw-os.o(.text)
    block_state_post_process                 0x1a00062d   Thumb Code    62  raw-os.o(.text)
    tick_list_insert                         0x1a00066b   Thumb Code    62  raw-os.o(.text)
    raw_pend_object                          0x1a0006a9   Thumb Code    70  raw-os.o(.text)
    raw_semaphore_get                        0x1a0006ef   Thumb Code   140  raw-os.o(.text)
    raw_task_semaphore_get                   0x1a00077b   Thumb Code    10  raw-os.o(.text)
    raw_task_create                          0x1a0007a1   Thumb Code   266  raw-os.o(.text)
    tick_task_start                          0x1a0008ab   Thumb Code    56  raw-os.o(.text)
    raw_mutex_create                         0x1a0008e3   Thumb Code    66  raw-os.o(.text)
    raw_wake_object                          0x1a000985   Thumb Code     2  raw-os.o(.text)
    raw_mutex_put                            0x1a000987   Thumb Code   170  raw-os.o(.text)
    raw_mutex_get                            0x1a000a31   Thumb Code   346  raw-os.o(.text)
    raw_semaphore_set                        0x1a000b8b   Thumb Code    84  raw-os.o(.text)
    timer_task                               0x1a000bdf   Thumb Code   166  raw-os.o(.text)
    raw_timer_init                           0x1a000c85   Thumb Code    66  raw-os.o(.text)
    raw_idle_task                            0x1a000cc7   Thumb Code    30  raw-os.o(.text)
    tick_list_init                           0x1a000ce5   Thumb Code    24  raw-os.o(.text)
    run_queue_init                           0x1a000cfd   Thumb Code    26  raw-os.o(.text)
    raw_os_init                              0x1a000d17   Thumb Code   132  raw-os.o(.text)
    raw_os_start                             0x1a000d9b   Thumb Code    36  raw-os.o(.text)
    move_to_ready_list_end                   0x1a000dbf   Thumb Code    34  raw-os.o(.text)
    calculate_time_slice                     0x1a000de1   Thumb Code    76  raw-os.o(.text)
    wake_send_msg                            0x1a000e2d   Thumb Code     4  raw-os.o(.text)
    wake_send_msg_size                       0x1a000e31   Thumb Code     6  raw-os.o(.text)
    delete_pend_obj                          0x1a000e37   Thumb Code    98  raw-os.o(.text)
    raw_task_stack_check                     0x1a000e99   Thumb Code    52  raw-os.o(.text)
    raw_isr_stack_check                      0x1a000ecd   Thumb Code    14  raw-os.o(.text)
    raw_disable_sche                         0x1a000edb   Thumb Code    42  raw-os.o(.text)
    raw_enable_sche                          0x1a000f05   Thumb Code    58  raw-os.o(.text)
    raw_sleep                                0x1a000f3f   Thumb Code   174  raw-os.o(.text)
    raw_task_yield                           0x1a000fed   Thumb Code    36  raw-os.o(.text)
    raw_time_sleep                           0x1a001011   Thumb Code    94  raw-os.o(.text)
    task_suspend                             0x1a00106f   Thumb Code   154  raw-os.o(.text)
    raw_task_suspend                         0x1a001109   Thumb Code    24  raw-os.o(.text)
    task_resume                              0x1a001121   Thumb Code   162  raw-os.o(.text)
    raw_task_resume                          0x1a0011c3   Thumb Code    10  raw-os.o(.text)
    chg_pri_mutex                            0x1a0011cd   Thumb Code   114  raw-os.o(.text)
    raw_task_priority_change                 0x1a00123f   Thumb Code   140  raw-os.o(.text)
    raw_task_free_mutex                      0x1a0012cb   Thumb Code    68  raw-os.o(.text)
    raw_task_delete                          0x1a00130f   Thumb Code   180  raw-os.o(.text)
    raw_set_task_user_point                  0x1a0013c3   Thumb Code    34  raw-os.o(.text)
    raw_get_task_user_point                  0x1a0013e5   Thumb Code     8  raw-os.o(.text)
    raw_task_time_slice_change               0x1a0013ed   Thumb Code    52  raw-os.o(.text)
    raw_set_sched_way                        0x1a001421   Thumb Code    56  raw-os.o(.text)
    raw_get_sched_way                        0x1a001459   Thumb Code    46  raw-os.o(.text)
    raw_task_wait_abort                      0x1a001487   Thumb Code   164  raw-os.o(.text)
    raw_task_identify                        0x1a00152b   Thumb Code     6  raw-os.o(.text)
    raw_iter_block_task                      0x1a001531   Thumb Code    72  raw-os.o(.text)
    raw_get_system_global_space              0x1a001579   Thumb Code     6  raw-os.o(.text)
    raw_block_pool_create                    0x1a00157f   Thumb Code   108  raw-os.o(.text)
    raw_block_allocate                       0x1a0015eb   Thumb Code    76  raw-os.o(.text)
    raw_block_release                        0x1a001637   Thumb Code    52  raw-os.o(.text)
    raw_byte_pool_create                     0x1a00166b   Thumb Code    88  raw-os.o(.text)
    raw_byte_allocate                        0x1a0016c3   Thumb Code    94  raw-os.o(.text)
    raw_byte_release                         0x1a001721   Thumb Code    64  raw-os.o(.text)
    raw_event_create                         0x1a001761   Thumb Code    42  raw-os.o(.text)
    raw_event_get                            0x1a00178b   Thumb Code   238  raw-os.o(.text)
    event_set                                0x1a001879   Thumb Code   132  raw-os.o(.text)
    raw_event_set                            0x1a0018fd   Thumb Code    22  raw-os.o(.text)
    raw_event_delete                         0x1a001913   Thumb Code    96  raw-os.o(.text)
    raw_mutex_delete                         0x1a001973   Thumb Code   104  raw-os.o(.text)
    raw_queue_create                         0x1a0019db   Thumb Code    78  raw-os.o(.text)
    raw_queue_block_way_set                  0x1a001a29   Thumb Code    14  raw-os.o(.text)
    raw_queue_full_register                  0x1a001a37   Thumb Code    32  raw-os.o(.text)
    msg_post                                 0x1a001a57   Thumb Code   198  raw-os.o(.text)
    raw_queue_front_post                     0x1a001b1d   Thumb Code    22  raw-os.o(.text)
    raw_queue_end_post                       0x1a001b33   Thumb Code    22  raw-os.o(.text)
    raw_queue_post_notify                    0x1a001b49   Thumb Code    22  raw-os.o(.text)
    raw_queue_all_post                       0x1a001b5f   Thumb Code    20  raw-os.o(.text)
    raw_queue_send_notify                    0x1a001b73   Thumb Code    56  raw-os.o(.text)
    raw_queue_receive                        0x1a001bab   Thumb Code   214  raw-os.o(.text)
    raw_queue_full_check                     0x1a001c81   Thumb Code    58  raw-os.o(.text)
    raw_queue_flush                          0x1a001cbb   Thumb Code    70  raw-os.o(.text)
    raw_queue_delete                         0x1a001d01   Thumb Code    94  raw-os.o(.text)
    raw_queue_get_information                0x1a001d5f   Thumb Code    82  raw-os.o(.text)
    raw_queue_buffer_create                  0x1a001db1   Thumb Code    98  raw-os.o(.text)
    queue_buffer_post                        0x1a001e13   Thumb Code   194  raw-os.o(.text)
    raw_queue_buffer_end_post                0x1a001ed5   Thumb Code    30  raw-os.o(.text)
    raw_queue_buffer_receive                 0x1a001ef3   Thumb Code   288  raw-os.o(.text)
    raw_queue_buffer_flush                   0x1a002013   Thumb Code    62  raw-os.o(.text)
    raw_queue_buffer_delete                  0x1a002051   Thumb Code    94  raw-os.o(.text)
    raw_queue_buffer_info_get                0x1a0020af   Thumb Code    66  raw-os.o(.text)
    raw_queue_size_create                    0x1a0020f1   Thumb Code    90  raw-os.o(.text)
    raw_queue_size_full_register             0x1a00214b   Thumb Code    32  raw-os.o(.text)
    msg_size_post                            0x1a00216b   Thumb Code   198  raw-os.o(.text)
    raw_queue_size_receive                   0x1a002231   Thumb Code   258  raw-os.o(.text)
    raw_queue_size_front_post                0x1a002333   Thumb Code    30  raw-os.o(.text)
    raw_queue_size_end_post                  0x1a002351   Thumb Code    30  raw-os.o(.text)
    raw_queue_size_all_post                  0x1a00236f   Thumb Code    28  raw-os.o(.text)
    raw_queue_size_full_check                0x1a00238b   Thumb Code    58  raw-os.o(.text)
    raw_queue_size_flush                     0x1a0023c5   Thumb Code    74  raw-os.o(.text)
    raw_queue_size_delete                    0x1a00240f   Thumb Code    94  raw-os.o(.text)
    raw_queue_size_get_information           0x1a00246d   Thumb Code    78  raw-os.o(.text)
    raw_semaphore_block_way_set              0x1a0024bb   Thumb Code    26  raw-os.o(.text)
    semaphore_put                            0x1a0024d5   Thumb Code   138  raw-os.o(.text)
    raw_semaphore_put                        0x1a00255f   Thumb Code    12  raw-os.o(.text)
    raw_semaphore_put_notify                 0x1a00256b   Thumb Code    12  raw-os.o(.text)
    raw_semaphore_put_all                    0x1a002577   Thumb Code    12  raw-os.o(.text)
    raw_semphore_send_notify                 0x1a002583   Thumb Code    56  raw-os.o(.text)
    raw_semaphore_delete                     0x1a0025bb   Thumb Code    94  raw-os.o(.text)
    raw_stack_check                          0x1a002619   Thumb Code    68  raw-os.o(.text)
    raw_statistics_check                     0x1a00265d   Thumb Code    46  raw-os.o(.text)
    raw_finish_int                           0x1a00268b   Thumb Code    80  raw-os.o(.text)
    call_timer_task                          0x1a0026db   Thumb Code    20  raw-os.o(.text)
    raw_task_semaphore_put                   0x1a0026ef   Thumb Code     4  raw-os.o(.text)
    raw_time_tick                            0x1a0026f3   Thumb Code    48  raw-os.o(.text)
    raw_enter_interrupt                      0x1a002723   Thumb Code    62  raw-os.o(.text)
    raw_system_time_get                      0x1a002761   Thumb Code    36  raw-os.o(.text)
    raw_os_version_get                       0x1a002785   Thumb Code     6  raw-os.o(.text)
    raw_task_qsize_create                    0x1a00278b   Thumb Code    20  raw-os.o(.text)
    raw_task_qsize_receive                   0x1a00279f   Thumb Code    20  raw-os.o(.text)
    raw_task_qsize_front_post                0x1a0027b3   Thumb Code     4  raw-os.o(.text)
    raw_task_qsize_end_post                  0x1a0027b7   Thumb Code     4  raw-os.o(.text)
    raw_task_qsize_flush                     0x1a0027bb   Thumb Code     4  raw-os.o(.text)
    raw_task_qsize_delete                    0x1a0027bf   Thumb Code     4  raw-os.o(.text)
    raw_task_qsize_get_information           0x1a0027c3   Thumb Code     4  raw-os.o(.text)
    raw_task_semaphore_set                   0x1a0027c7   Thumb Code     6  raw-os.o(.text)
    raw_task_semaphore_delete                0x1a0027cd   Thumb Code     4  raw-os.o(.text)
    raw_timer_activate                       0x1a0027d1   Thumb Code   132  raw-os.o(.text)
    raw_timer_create                         0x1a002855   Thumb Code    96  raw-os.o(.text)
    raw_timer_change                         0x1a0028b5   Thumb Code   104  raw-os.o(.text)
    raw_timer_deactivate                     0x1a00291d   Thumb Code   132  raw-os.o(.text)
    raw_timer_delete                         0x1a0029a1   Thumb Code   108  raw-os.o(.text)
    fifo_init                                0x1a002b89   Thumb Code    68  fifo.o(.text)
    fifo_in                                  0x1a002bcd   Thumb Code    92  fifo.o(.text)
    fifo_out_peek                            0x1a002c67   Thumb Code    38  fifo.o(.text)
    fifo_out                                 0x1a002c8d   Thumb Code    50  fifo.o(.text)
    fifo_out_all                             0x1a002cbf   Thumb Code    62  fifo.o(.text)
    check_malloc_test                        0x1a002dcf   Thumb Code     4  raw_malloc.o(.text)
    searchFreeArea                           0x1a002dd3   Thumb Code    68  raw_malloc.o(.text)
    appendFreeArea                           0x1a002e17   Thumb Code    60  raw_malloc.o(.text)
    raw_malloc                               0x1a003003   Thumb Code    50  raw_malloc.o(.text)
    raw_free                                 0x1a003035   Thumb Code    46  raw_malloc.o(.text)
    raw_calloc                               0x1a003063   Thumb Code    66  raw_malloc.o(.text)
    raw_realloc                              0x1a0030a5   Thumb Code    56  raw_malloc.o(.text)
    raw_malloc_init                          0x1a0030dd   Thumb Code   264  raw_malloc.o(.text)
    system_page_table_get                    0x1a0033e3   Thumb Code     4  raw_page.o(.text)
    raw_page_allocate                        0x1a0033e7   Thumb Code    50  raw_page.o(.text)
    raw_page_free                            0x1a003419   Thumb Code    88  raw_page.o(.text)
    raw_page_init                            0x1a003471   Thumb Code   108  raw_page.o(.text)
    OS_CPU_SR_Save                           0x1a0036ad   Thumb Code     0  cpu.o(.text)
    OS_CPU_SR_Restore                        0x1a0036b5   Thumb Code     0  cpu.o(.text)
    CPU_IntDis                               0x1a0036bb   Thumb Code     0  cpu.o(.text)
    CPU_IntEn                                0x1a0036bf   Thumb Code     0  cpu.o(.text)
    raw_start_first_task                     0x1a0036c3   Thumb Code     0  cpu.o(.text)
    port_task_switch                         0x1a0036eb   Thumb Code     0  cpu.o(.text)
    raw_int_switch                           0x1a0036f5   Thumb Code     0  cpu.o(.text)
    PendSV_Handler                           0x1a0036ff   Thumb Code     0  cpu.o(.text)
    port_stack_init                          0x1a003759   Thumb Code   324  port_1.o(.text)
    port_isr_stack_check                     0x1a00389d   Thumb Code     2  port_1.o(.text)
    port_isr_stack_free_check                0x1a00389f   Thumb Code    20  port_1.o(.text)
    system_mpu_enable                        0x1a0038b3   Thumb Code    62  port_1.o(.text)
    task_stack_mpu_set                       0x1a0038f1   Thumb Code    38  port_1.o(.text)
    raw_os_init_hook                         0x1a00392d   Thumb Code    14  port_hook_1.o(.text)
    raw_task_delete_hook                     0x1a00393b   Thumb Code     2  port_hook_1.o(.text)
    raw_task_abort_hook                      0x1a00393d   Thumb Code     2  port_hook_1.o(.text)
    raw_idle_task_hook                       0x1a00393f   Thumb Code     2  port_hook_1.o(.text)
    raw_task_switch_hook                     0x1a003941   Thumb Code     2  port_hook_1.o(.text)
    raw_tick_hook                            0x1a003943   Thumb Code     2  port_hook_1.o(.text)
    task_create_hook                         0x1a003945   Thumb Code     2  port_hook_1.o(.text)
    raw_idle_coroutine_hook                  0x1a003947   Thumb Code     4  port_hook_1.o(.text)
    raw_memcpy                               0x1a00394b   Thumb Code    74  user_extension_1.o(.text)
    raw_memset                               0x1a003995   Thumb Code    62  user_extension_1.o(.text)
    port_system_error_process                0x1a0039d3   Thumb Code    88  port_error_process_1.o(.text)
    cpu_timer_init                           0x1a003a2d   Thumb Code    26  port_extension_1.o(.text)
    user_cpu_time_get                        0x1a003a47   Thumb Code     6  port_extension_1.o(.text)
    user_sys_time_get                        0x1a003a4d   Thumb Code     6  port_extension_1.o(.text)
    Reset_Handler                            0x1a003a5d   Thumb Code     8  keil_startup_lpc18xx43xx.o(.text)
    NMI_Handler                              0x1a003a65   Thumb Code     2  keil_startup_lpc18xx43xx.o(.text)
    HardFault_Handler                        0x1a003a67   Thumb Code     2  keil_startup_lpc18xx43xx.o(.text)
    MemManage_Handler                        0x1a003a69   Thumb Code     2  keil_startup_lpc18xx43xx.o(.text)
    BusFault_Handler                         0x1a003a6b   Thumb Code     2  keil_startup_lpc18xx43xx.o(.text)
    UsageFault_Handler                       0x1a003a6d   Thumb Code     2  keil_startup_lpc18xx43xx.o(.text)
    SVC_Handler                              0x1a003a6f   Thumb Code     2  keil_startup_lpc18xx43xx.o(.text)
    DebugMon_Handler                         0x1a003a71   Thumb Code     2  keil_startup_lpc18xx43xx.o(.text)
    UnHandled_Vector                         0x1a003a77   Thumb Code     2  keil_startup_lpc18xx43xx.o(.text)
    ADC0_IRQHandler                          0x1a003a79   Thumb Code     0  keil_startup_lpc18xx43xx.o(.text)
    ADC1_IRQHandler                          0x1a003a79   Thumb Code     0  keil_startup_lpc18xx43xx.o(.text)
    ADCHS_IRQHandler                         0x1a003a79   Thumb Code     0  keil_startup_lpc18xx43xx.o(.text)
    ATIMER_IRQHandler                        0x1a003a79   Thumb Code     0  keil_startup_lpc18xx43xx.o(.text)
    CAN0_IRQHandler                          0x1a003a79   Thumb Code     0  keil_startup_lpc18xx43xx.o(.text)
    CAN1_IRQHandler                          0x1a003a79   Thumb Code     0  keil_startup_lpc18xx43xx.o(.text)
    DAC_IRQHandler                           0x1a003a79   Thumb Code     0  keil_startup_lpc18xx43xx.o(.text)
    DMA_IRQHandler                           0x1a003a79   Thumb Code     0  keil_startup_lpc18xx43xx.o(.text)
    ETH_IRQHandler                           0x1a003a79   Thumb Code     0  keil_startup_lpc18xx43xx.o(.text)
    EVRT_IRQHandler                          0x1a003a79   Thumb Code     0  keil_startup_lpc18xx43xx.o(.text)
    FLASHEEPROM_IRQHandler                   0x1a003a79   Thumb Code     0  keil_startup_lpc18xx43xx.o(.text)
    GINT0_IRQHandler                         0x1a003a79   Thumb Code     0  keil_startup_lpc18xx43xx.o(.text)
    GINT1_IRQHandler                         0x1a003a79   Thumb Code     0  keil_startup_lpc18xx43xx.o(.text)
    GPIO0_IRQHandler                         0x1a003a79   Thumb Code     0  keil_startup_lpc18xx43xx.o(.text)
    GPIO1_IRQHandler                         0x1a003a79   Thumb Code     0  keil_startup_lpc18xx43xx.o(.text)
    GPIO2_IRQHandler                         0x1a003a79   Thumb Code     0  keil_startup_lpc18xx43xx.o(.text)
    GPIO3_IRQHandler                         0x1a003a79   Thumb Code     0  keil_startup_lpc18xx43xx.o(.text)
    GPIO4_IRQHandler                         0x1a003a79   Thumb Code     0  keil_startup_lpc18xx43xx.o(.text)
    GPIO5_IRQHandler                         0x1a003a79   Thumb Code     0  keil_startup_lpc18xx43xx.o(.text)
    GPIO6_IRQHandler                         0x1a003a79   Thumb Code     0  keil_startup_lpc18xx43xx.o(.text)
    GPIO7_IRQHandler                         0x1a003a79   Thumb Code     0  keil_startup_lpc18xx43xx.o(.text)
    I2C0_IRQHandler                          0x1a003a79   Thumb Code     0  keil_startup_lpc18xx43xx.o(.text)
    I2C1_IRQHandler                          0x1a003a79   Thumb Code     0  keil_startup_lpc18xx43xx.o(.text)
    I2S0_IRQHandler                          0x1a003a79   Thumb Code     0  keil_startup_lpc18xx43xx.o(.text)
    I2S1_IRQHandler                          0x1a003a79   Thumb Code     0  keil_startup_lpc18xx43xx.o(.text)
    LCD_IRQHandler                           0x1a003a79   Thumb Code     0  keil_startup_lpc18xx43xx.o(.text)
    MCPWM_IRQHandler                         0x1a003a79   Thumb Code     0  keil_startup_lpc18xx43xx.o(.text)
    MX_CORE_IRQHandler                       0x1a003a79   Thumb Code     0  keil_startup_lpc18xx43xx.o(.text)
    QEI_IRQHandler                           0x1a003a79   Thumb Code     0  keil_startup_lpc18xx43xx.o(.text)
    RIT_IRQHandler                           0x1a003a79   Thumb Code     0  keil_startup_lpc18xx43xx.o(.text)
    RTC_IRQHandler                           0x1a003a79   Thumb Code     0  keil_startup_lpc18xx43xx.o(.text)
    SCT_IRQHandler                           0x1a003a79   Thumb Code     0  keil_startup_lpc18xx43xx.o(.text)
    SDIO_IRQHandler                          0x1a003a79   Thumb Code     0  keil_startup_lpc18xx43xx.o(.text)
    SGPIO_IRQHandler                         0x1a003a79   Thumb Code     0  keil_startup_lpc18xx43xx.o(.text)
    SPIFI_IRQHandler                         0x1a003a79   Thumb Code     0  keil_startup_lpc18xx43xx.o(.text)
    SPI_IRQHandler                           0x1a003a79   Thumb Code     0  keil_startup_lpc18xx43xx.o(.text)
    SSP0_IRQHandler                          0x1a003a79   Thumb Code     0  keil_startup_lpc18xx43xx.o(.text)
    SSP1_IRQHandler                          0x1a003a79   Thumb Code     0  keil_startup_lpc18xx43xx.o(.text)
    TIMER0_IRQHandler                        0x1a003a79   Thumb Code     0  keil_startup_lpc18xx43xx.o(.text)
    TIMER1_IRQHandler                        0x1a003a79   Thumb Code     0  keil_startup_lpc18xx43xx.o(.text)
    TIMER2_IRQHandler                        0x1a003a79   Thumb Code     0  keil_startup_lpc18xx43xx.o(.text)
    TIMER3_IRQHandler                        0x1a003a79   Thumb Code     0  keil_startup_lpc18xx43xx.o(.text)
    UART0_IRQHandler                         0x1a003a79   Thumb Code     0  keil_startup_lpc18xx43xx.o(.text)
    UART1_IRQHandler                         0x1a003a79   Thumb Code     0  keil_startup_lpc18xx43xx.o(.text)
    UART2_IRQHandler                         0x1a003a79   Thumb Code     0  keil_startup_lpc18xx43xx.o(.text)
    USB0_IRQHandler                          0x1a003a79   Thumb Code     0  keil_startup_lpc18xx43xx.o(.text)
    USB1_IRQHandler                          0x1a003a79   Thumb Code     0  keil_startup_lpc18xx43xx.o(.text)
    WDT_IRQHandler                           0x1a003a79   Thumb Code     0  keil_startup_lpc18xx43xx.o(.text)
    __user_initial_stackheap                 0x1a003a7d   Thumb Code     0  keil_startup_lpc18xx43xx.o(.text)
    SystemInit                               0x1a003aa1   Thumb Code    20  sysinit.o(.text)
    scu_pinmux                               0x1a003abd   Thumb Code    16  lpc43xx_scu.o(.text)
    emc_init                                 0x1a003ad1   Thumb Code   944  lpc43xx_sdram.o(.text)
    sdram_init                               0x1a003e81   Thumb Code   144  lpc43xx_sdram.o(.text)
    k9f_init                                 0x1a003f2d   Thumb Code    88  k9f1g08.o(.text)
    k9f_id_read                              0x1a003f85   Thumb Code    42  k9f1g08.o(.text)
    k9f_bad_block_check_product              0x1a003fd3   Thumb Code    96  k9f1g08.o(.text)
    k9f_block_erase                          0x1a004033   Thumb Code    40  k9f1g08.o(.text)
    k9f_page_read                            0x1a00405b   Thumb Code    60  k9f1g08.o(.text)
    k9f_block_read                           0x1a004097   Thumb Code    78  k9f1g08.o(.text)
    k9f_page_write                           0x1a0040e5   Thumb Code    64  k9f1g08.o(.text)
    k9f_block_write                          0x1a004125   Thumb Code   128  k9f1g08.o(.text)
    k9f_random_read                          0x1a0041a5   Thumb Code    40  k9f1g08.o(.text)
    k9f_random_continue_read                 0x1a0041cd   Thumb Code    58  k9f1g08.o(.text)
    k9f_random_write                         0x1a004207   Thumb Code    60  k9f1g08.o(.text)
    k9f_random_continue_write                0x1a004243   Thumb Code    72  k9f1g08.o(.text)
    GPIO_SetDir                              0x1a0042a9   Thumb Code    22  lpc43xx_gpio.o(.text)
    GPIO_SetValue                            0x1a0042bf   Thumb Code    12  lpc43xx_gpio.o(.text)
    GPIO_ClearValue                          0x1a0042cb   Thumb Code    12  lpc43xx_gpio.o(.text)
    GPIO_ReadValue                           0x1a0042d7   Thumb Code    12  lpc43xx_gpio.o(.text)
    yaffs_nand_install_drv                   0x1a00440d   Thumb Code    34  yaffs_port_nand_drv.o(.text)
    SysTick_Handler                          0x1a00444d   Thumb Code    18  main.o(.text)
    OS_CPU_SysTickInit                       0x1a00445f   Thumb Code    48  main.o(.text)
    uart_3_recv                              0x1a00448f   Thumb Code    76  main.o(.text)
    UART3_IRQHandler                         0x1a0044db   Thumb Code    56  main.o(.text)
    shell_task                               0x1a004513   Thumb Code   184  main.o(.text)
    main                                     0x1a0045cb   Thumb Code    54  main.o(.text)
    jpeg_demo_decompress                     0x1a00465d   Thumb Code   258  libjpeg_test.o(.text)
    MCPMW_Init                               0x1a0047b9   Thumb Code    38  lpc43xx_lcd.o(.text)
    MCPWM_Set_Ratio                          0x1a0047df   Thumb Code    12  lpc43xx_lcd.o(.text)
    LCD_init                                 0x1a0047eb   Thumb Code   704  lpc43xx_lcd.o(.text)
    LCD_enable                               0x1a004aab   Thumb Code    52  lpc43xx_lcd.o(.text)
    LCD_displayMemorySet                     0x1a004adf   Thumb Code    10  lpc43xx_lcd.o(.text)
    LCD_backLightCtl                         0x1a004ae9   Thumb Code    10  lpc43xx_lcd.o(.text)
    LCD_one_pixel_write                      0x1a004af3   Thumb Code    18  lpc43xx_lcd.o(.text)
    LCD_one_pixel_read                       0x1a004b05   Thumb Code    16  lpc43xx_lcd.o(.text)
    bmp_draw                                 0x1a004b45   Thumb Code   228  bmp_draw.o(.text)
    yaffs_load_attribs                       0x1a004cfb   Thumb Code    38  yaffs_attribs.o(.text)
    yaffs_load_attribs_oh                    0x1a004d21   Thumb Code    38  yaffs_attribs.o(.text)
    yaffs_load_current_time                  0x1a004d47   Thumb Code    22  yaffs_attribs.o(.text)
    yaffs_attribs_init                       0x1a004d5d   Thumb Code    30  yaffs_attribs.o(.text)
    yaffs_hweight8                           0x1a004d7d   Thumb Code     6  yaffs_hweight.o(.text)
    yaffs_hweight32                          0x1a004d83   Thumb Code    30  yaffs_hweight.o(.text)
    yaffs_qsort                              0x1a004e17   Thumb Code   606  yaffs_qsort.o(.text)
    yaffs_set_trace                          0x1a005075   Thumb Code     6  yaffsfs.o(.text)
    yaffs_get_trace                          0x1a00507b   Thumb Code     6  yaffsfs.o(.text)
    yaffs_dup                                0x1a005539   Thumb Code    96  yaffsfs.o(.text)
    yaffs_open_sharing_reldir                0x1a0056e1   Thumb Code   976  yaffsfs.o(.text)
    yaffs_open_sharing_reldev                0x1a005ab1   Thumb Code    28  yaffsfs.o(.text)
    yaffs_open_sharing                       0x1a005acd   Thumb Code    18  yaffsfs.o(.text)
    yaffs_open_reldir                        0x1a005adf   Thumb Code    12  yaffsfs.o(.text)
    yaffs_open_reldev                        0x1a005aeb   Thumb Code    28  yaffsfs.o(.text)
    yaffs_open                               0x1a005b07   Thumb Code    10  yaffsfs.o(.text)
    yaffs_fsync                              0x1a005b53   Thumb Code     4  yaffsfs.o(.text)
    yaffs_flush                              0x1a005b57   Thumb Code     2  yaffsfs.o(.text)
    yaffs_fdatasync                          0x1a005b59   Thumb Code     4  yaffsfs.o(.text)
    yaffs_close                              0x1a005b5d   Thumb Code    88  yaffsfs.o(.text)
    yaffs_read                               0x1a005cfb   Thumb Code    12  yaffsfs.o(.text)
    yaffs_pread                              0x1a005d07   Thumb Code    12  yaffsfs.o(.text)
    yaffs_write                              0x1a005e75   Thumb Code    12  yaffsfs.o(.text)
    yaffs_pwrite                             0x1a005e81   Thumb Code    12  yaffsfs.o(.text)
    yaffs_truncate_reldir                    0x1a005e8d   Thumb Code   214  yaffsfs.o(.text)
    yaffs_truncate_reldev                    0x1a005f63   Thumb Code    18  yaffsfs.o(.text)
    yaffs_truncate                           0x1a005f75   Thumb Code     8  yaffsfs.o(.text)
    yaffs_ftruncate                          0x1a005f7d   Thumb Code   112  yaffsfs.o(.text)
    yaffs_lseek                              0x1a005fed   Thumb Code   146  yaffsfs.o(.text)
    yaffs_unlink_reldir                      0x1a006181   Thumb Code     4  yaffsfs.o(.text)
    yaffs_unlink_reldev                      0x1a006185   Thumb Code    20  yaffsfs.o(.text)
    yaffs_unlink                             0x1a006199   Thumb Code     6  yaffsfs.o(.text)
    yaffs_rename_reldir                      0x1a00619f   Thumb Code   460  yaffsfs.o(.text)
    yaffs_rename_reldev                      0x1a00636b   Thumb Code    18  yaffsfs.o(.text)
    yaffs_rename                             0x1a00637d   Thumb Code     8  yaffsfs.o(.text)
    yaffs_stat_reldir                        0x1a0064b9   Thumb Code     4  yaffsfs.o(.text)
    yaffs_lstat_reldir                       0x1a0064bd   Thumb Code     4  yaffsfs.o(.text)
    yaffs_stat_reldev                        0x1a0064c1   Thumb Code    20  yaffsfs.o(.text)
    yaffs_lstat_reldev                       0x1a0064d5   Thumb Code    20  yaffsfs.o(.text)
    yaffs_stat                               0x1a0064e9   Thumb Code     8  yaffsfs.o(.text)
    yaffs_lstat                              0x1a0064f1   Thumb Code     8  yaffsfs.o(.text)
    yaffs_fstat                              0x1a0064f9   Thumb Code    72  yaffsfs.o(.text)
    yaffs_utime_reldir                       0x1a006597   Thumb Code   134  yaffsfs.o(.text)
    yaffs_utime_reldev                       0x1a00661d   Thumb Code    18  yaffsfs.o(.text)
    yaffs_utime                              0x1a00662f   Thumb Code     8  yaffsfs.o(.text)
    yaffs_futime                             0x1a006637   Thumb Code    48  yaffsfs.o(.text)
    yaffs_setxattr_reldir                    0x1a006737   Thumb Code    18  yaffsfs.o(.text)
    yaffs_setxattr_reldev                    0x1a006749   Thumb Code    32  yaffsfs.o(.text)
    yaffs_setxattr                           0x1a006769   Thumb Code    24  yaffsfs.o(.text)
    yaffs_lsetxattr_reldir                   0x1a006781   Thumb Code    18  yaffsfs.o(.text)
    yaffs_lsetxattr_reldev                   0x1a006793   Thumb Code    32  yaffsfs.o(.text)
    yaffs_lsetxattr                          0x1a0067b3   Thumb Code    24  yaffsfs.o(.text)
    yaffs_fsetxattr                          0x1a0067cb   Thumb Code   114  yaffsfs.o(.text)
    yaffs_getxattr_reldir                    0x1a006909   Thumb Code    16  yaffsfs.o(.text)
    yaffs_getxattr_reldev                    0x1a006919   Thumb Code    28  yaffsfs.o(.text)
    yaffs_getxattr                           0x1a006935   Thumb Code    18  yaffsfs.o(.text)
    yaffs_lgetxattr_reldir                   0x1a006947   Thumb Code    16  yaffsfs.o(.text)
    yaffs_lgetxattr_reldev                   0x1a006957   Thumb Code    28  yaffsfs.o(.text)
    yaffs_lgetxattr                          0x1a006973   Thumb Code    18  yaffsfs.o(.text)
    yaffs_fgetxattr                          0x1a006985   Thumb Code   110  yaffsfs.o(.text)
    yaffs_listxattr_reldir                   0x1a006aad   Thumb Code    12  yaffsfs.o(.text)
    yaffs_listxattr_reldev                   0x1a006ab9   Thumb Code    22  yaffsfs.o(.text)
    yaffs_listxattr                          0x1a006acf   Thumb Code    10  yaffsfs.o(.text)
    yaffs_llistxattr_reldir                  0x1a006ad9   Thumb Code    12  yaffsfs.o(.text)
    yaffs_llistxattr_reldev                  0x1a006ae5   Thumb Code    22  yaffsfs.o(.text)
    yaffs_llistxattr                         0x1a006afb   Thumb Code    10  yaffsfs.o(.text)
    yaffs_flistxattr                         0x1a006b05   Thumb Code    92  yaffsfs.o(.text)
    yaffs_removexattr_reldir                 0x1a006c19   Thumb Code     4  yaffsfs.o(.text)
    yaffs_removexattr_reldev                 0x1a006c1d   Thumb Code    18  yaffsfs.o(.text)
    yaffs_removexattr                        0x1a006c2f   Thumb Code     8  yaffsfs.o(.text)
    yaffs_lremovexattr_reldir                0x1a006c37   Thumb Code     4  yaffsfs.o(.text)
    yaffs_lremovexattr_reldev                0x1a006c3b   Thumb Code    18  yaffsfs.o(.text)
    yaffs_lremovexattr                       0x1a006c4d   Thumb Code     8  yaffsfs.o(.text)
    yaffs_fremovexattr                       0x1a006c55   Thumb Code    86  yaffsfs.o(.text)
    yaffs_access_reldir                      0x1a006cdb   Thumb Code   218  yaffsfs.o(.text)
    yaffs_access_reldev                      0x1a006db5   Thumb Code    18  yaffsfs.o(.text)
    yaffs_access                             0x1a006dc7   Thumb Code     8  yaffsfs.o(.text)
    yaffs_chmod_reldir                       0x1a006dcf   Thumb Code   172  yaffsfs.o(.text)
    yaffs_chmod_reldev                       0x1a006e7b   Thumb Code    18  yaffsfs.o(.text)
    yaffs_chmod                              0x1a006e8d   Thumb Code     8  yaffsfs.o(.text)
    yaffs_fchmod                             0x1a006e95   Thumb Code    76  yaffsfs.o(.text)
    yaffs_mkdir_reldir                       0x1a006ee1   Thumb Code   244  yaffsfs.o(.text)
    yaffs_mkdir_reldev                       0x1a006fd5   Thumb Code    18  yaffsfs.o(.text)
    yaffs_mkdir                              0x1a006fe7   Thumb Code     8  yaffsfs.o(.text)
    yaffs_rmdir_reldir                       0x1a006fef   Thumb Code    98  yaffsfs.o(.text)
    yaffs_rmdir_reldev                       0x1a007051   Thumb Code    18  yaffsfs.o(.text)
    yaffs_rmdir                              0x1a007063   Thumb Code     6  yaffsfs.o(.text)
    yaffs_getdev                             0x1a007069   Thumb Code    10  yaffsfs.o(.text)
    yaffs_mount_common                       0x1a007073   Thumb Code   176  yaffsfs.o(.text)
    yaffs_mount3_reldev                      0x1a007123   Thumb Code     8  yaffsfs.o(.text)
    yaffs_mount3                             0x1a00712b   Thumb Code    10  yaffsfs.o(.text)
    yaffs_mount2_reldev                      0x1a007135   Thumb Code     8  yaffsfs.o(.text)
    yaffs_mount2                             0x1a00713d   Thumb Code    10  yaffsfs.o(.text)
    yaffs_mount_reldev                       0x1a007147   Thumb Code     8  yaffsfs.o(.text)
    yaffs_mount                              0x1a00714f   Thumb Code    10  yaffsfs.o(.text)
    yaffs_sync_common                        0x1a007159   Thumb Code   128  yaffsfs.o(.text)
    yaffs_sync_reldev                        0x1a0071d9   Thumb Code     4  yaffsfs.o(.text)
    yaffs_sync                               0x1a0071dd   Thumb Code     6  yaffsfs.o(.text)
    yaffs_do_background_gc                   0x1a007253   Thumb Code     8  yaffsfs.o(.text)
    yaffs_do_background_gc_reldev            0x1a00725b   Thumb Code     6  yaffsfs.o(.text)
    yaffs_remount_common                     0x1a007261   Thumb Code   146  yaffsfs.o(.text)
    yaffs_remount_reldev                     0x1a0072f3   Thumb Code     8  yaffsfs.o(.text)
    yaffs_remount                            0x1a0072fb   Thumb Code    10  yaffsfs.o(.text)
    yaffs_unmount2_common                    0x1a007305   Thumb Code   144  yaffsfs.o(.text)
    yaffs_unmount2_reldev                    0x1a007395   Thumb Code     6  yaffsfs.o(.text)
    yaffs_unmount2                           0x1a00739b   Thumb Code     8  yaffsfs.o(.text)
    yaffs_unmount_reldev                     0x1a0073a3   Thumb Code     4  yaffsfs.o(.text)
    yaffs_unmount                            0x1a0073a7   Thumb Code     4  yaffsfs.o(.text)
    yaffs_format_common                      0x1a0073ab   Thumb Code   184  yaffsfs.o(.text)
    yaffs_format_reldev                      0x1a007463   Thumb Code    16  yaffsfs.o(.text)
    yaffs_format                             0x1a007473   Thumb Code    50  yaffsfs.o(.text)
    yaffs_freespace_common                   0x1a0074a5   Thumb Code   106  yaffsfs.o(.text)
    yaffs_freespace_reldev                   0x1a00750f   Thumb Code     4  yaffsfs.o(.text)
    yaffs_freespace                          0x1a007513   Thumb Code     6  yaffsfs.o(.text)
    yaffs_totalspace_common                  0x1a007519   Thumb Code   116  yaffsfs.o(.text)
    yaffs_totalspace_reldev                  0x1a00758d   Thumb Code     4  yaffsfs.o(.text)
    yaffs_totalspace                         0x1a007591   Thumb Code     6  yaffsfs.o(.text)
    yaffs_inodecount_common                  0x1a007597   Thumb Code   108  yaffsfs.o(.text)
    yaffs_inodecount_reldev                  0x1a007603   Thumb Code     4  yaffsfs.o(.text)
    yaffs_inodecount                         0x1a007607   Thumb Code     6  yaffsfs.o(.text)
    yaffs_add_device                         0x1a007679   Thumb Code    66  yaffsfs.o(.text)
    yaffs_remove_device                      0x1a0076bb   Thumb Code    14  yaffsfs.o(.text)
    yaffs_dev_rewind                         0x1a0076c9   Thumb Code    14  yaffsfs.o(.text)
    yaffs_next_dev                           0x1a0076d7   Thumb Code    30  yaffsfs.o(.text)
    yaffs_opendir_reldir                     0x1a0076f5   Thumb Code    28  yaffsfs.o(.text)
    yaffs_opendir_reldev                     0x1a007711   Thumb Code    18  yaffsfs.o(.text)
    yaffs_opendir                            0x1a007723   Thumb Code     6  yaffsfs.o(.text)
    yaffsfs_readdir_no_lock                  0x1a007729   Thumb Code   140  yaffsfs.o(.text)
    yaffs_readdir                            0x1a0077b5   Thumb Code    24  yaffsfs.o(.text)
    yaffs_rewinddir                          0x1a0077cd   Thumb Code    22  yaffsfs.o(.text)
    yaffs_readdir_fd                         0x1a0077e3   Thumb Code    40  yaffsfs.o(.text)
    yaffs_rewinddir_fd                       0x1a00780b   Thumb Code    36  yaffsfs.o(.text)
    yaffs_closedir                           0x1a00782f   Thumb Code    24  yaffsfs.o(.text)
    yaffs_symlink_reldir                     0x1a007847   Thumb Code   250  yaffsfs.o(.text)
    yaffs_symlink                            0x1a007941   Thumb Code     8  yaffsfs.o(.text)
    yaffs_readlink_reldir                    0x1a007949   Thumb Code   172  yaffsfs.o(.text)
    yaffs_readlink                           0x1a0079f5   Thumb Code    10  yaffsfs.o(.text)
    yaffs_link_reldir                        0x1a0079ff   Thumb Code   350  yaffsfs.o(.text)
    yaffs_link                               0x1a007b5d   Thumb Code     8  yaffsfs.o(.text)
    yaffs_mknod_reldir                       0x1a007b65   Thumb Code    16  yaffsfs.o(.text)
    yaffs_mknod_reldev                       0x1a007b75   Thumb Code    16  yaffsfs.o(.text)
    yaffs_mknod                              0x1a007b85   Thumb Code    16  yaffsfs.o(.text)
    yaffs_n_handles_reldir                   0x1a007b95   Thumb Code    96  yaffsfs.o(.text)
    yaffs_n_handles                          0x1a007bf5   Thumb Code     6  yaffsfs.o(.text)
    yaffs_get_error                          0x1a007bfb   Thumb Code     4  yaffsfs.o(.text)
    yaffs_set_error                          0x1a007bff   Thumb Code    10  yaffsfs.o(.text)
    yaffs_dump_dev_reldir                    0x1a007c09   Thumb Code     4  yaffsfs.o(.text)
    yaffs_dump_dev                           0x1a007c0d   Thumb Code     4  yaffsfs.o(.text)
    yaffs_alloc_raw_tnode                    0x1a007e59   Thumb Code    54  yaffs_allocator.o(.text)
    yaffs_free_raw_tnode                     0x1a007e8f   Thumb Code    36  yaffs_allocator.o(.text)
    yaffs_alloc_raw_obj                      0x1a007f41   Thumb Code    84  yaffs_allocator.o(.text)
    yaffs_free_raw_obj                       0x1a007f95   Thumb Code    40  yaffs_allocator.o(.text)
    yaffs_deinit_raw_tnodes_and_objs         0x1a007fbd   Thumb Code    74  yaffs_allocator.o(.text)
    yaffs_init_raw_tnodes_and_objs           0x1a008007   Thumb Code    74  yaffs_allocator.o(.text)
    yaffs_verify_chunk_bit_id                0x1a0081f1   Thumb Code    56  yaffs_bitmap.o(.text)
    yaffs_clear_chunk_bits                   0x1a008229   Thumb Code    20  yaffs_bitmap.o(.text)
    yaffs_clear_chunk_bit                    0x1a00823d   Thumb Code    54  yaffs_bitmap.o(.text)
    yaffs_set_chunk_bit                      0x1a008273   Thumb Code    52  yaffs_bitmap.o(.text)
    yaffs_check_chunk_bit                    0x1a0082a7   Thumb Code    54  yaffs_bitmap.o(.text)
    yaffs_still_some_chunks                  0x1a0082dd   Thumb Code    36  yaffs_bitmap.o(.text)
    yaffs_count_chunk_bits                   0x1a008301   Thumb Code    42  yaffs_bitmap.o(.text)
    yaffs2_checkpt_open                      0x1a00857b   Thumb Code   232  yaffs_checkptrw.o(.text)
    yaffs2_get_checkpt_sum                   0x1a008663   Thumb Code    14  yaffs_checkptrw.o(.text)
    yaffs2_checkpt_wr                        0x1a008751   Thumb Code   562  yaffs_checkptrw.o(.text)
    yaffs2_checkpt_rd                        0x1a008983   Thumb Code   290  yaffs_checkptrw.o(.text)
    yaffs_checkpt_close                      0x1a008aa5   Thumb Code   160  yaffs_checkptrw.o(.text)
    yaffs2_checkpt_invalidate_stream         0x1a008b45   Thumb Code    30  yaffs_checkptrw.o(.text)
    yaffs_ecc_calc                           0x1a008ca9   Thumb Code   186  yaffs_ecc.o(.text)
    yaffs_ecc_correct                        0x1a008d63   Thumb Code   234  yaffs_ecc.o(.text)
    yaffs_ecc_calc_other                     0x1a008e4d   Thumb Code    52  yaffs_ecc.o(.text)
    yaffs_ecc_correct_other                  0x1a008e81   Thumb Code   158  yaffs_ecc.o(.text)
    yaffs_addr_to_chunk                      0x1a008f61   Thumb Code    44  yaffs_guts.o(.text)
    yaffs_get_temp_buffer                    0x1a008f8d   Thumb Code    96  yaffs_guts.o(.text)
    yaffs_release_temp_buffer                0x1a008fed   Thumb Code    84  yaffs_guts.o(.text)
    yaffs_handle_chunk_error                 0x1a009041   Thumb Code    62  yaffs_guts.o(.text)
    yaffs_skip_rest_of_block                 0x1a00907f   Thumb Code    44  yaffs_guts.o(.text)
    yaffs_check_ff                           0x1a009163   Thumb Code    22  yaffs_guts.o(.text)
    yaffs_block_became_dirty                 0x1a0091cf   Thumb Code   840  yaffs_guts.o(.text)
    yaffs_chunk_del                          0x1a009517   Thumb Code   254  yaffs_guts.o(.text)
    yaffs_root                               0x1a009615   Thumb Code     6  yaffs_guts.o(.text)
    yaffs_lost_n_found                       0x1a00961b   Thumb Code     6  yaffs_guts.o(.text)
    yaffs_check_alloc_available              0x1a009621   Thumb Code    36  yaffs_guts.o(.text)
    yaffs_set_obj_name                       0x1a009b0d   Thumb Code    72  yaffs_guts.o(.text)
    yaffs_set_obj_name_from_oh               0x1a009b55   Thumb Code     4  yaffs_guts.o(.text)
    yaffs_max_file_size                      0x1a009b59   Thumb Code     6  yaffs_guts.o(.text)
    yaffs_get_tnode                          0x1a009b5f   Thumb Code    40  yaffs_guts.o(.text)
    yaffs_get_group_base                     0x1a009bdd   Thumb Code    60  yaffs_guts.o(.text)
    yaffs_find_tnode_0                       0x1a009c19   Thumb Code    68  yaffs_guts.o(.text)
    yaffs_add_find_tnode_0                   0x1a009c5d   Thumb Code   212  yaffs_guts.o(.text)
    yaffs_find_chunk_in_file                 0x1a009d97   Thumb Code    68  yaffs_guts.o(.text)
    yaffs_put_chunk_in_file                  0x1a009ddb   Thumb Code   490  yaffs_guts.o(.text)
    yaffs_add_obj_to_dir                     0x1a00a0b7   Thumb Code   172  yaffs_guts.o(.text)
    yaffs_oh_size_load                       0x1a00a163   Thumb Code    12  yaffs_guts.o(.text)
    yaffs_clone_str                          0x1a00a16f   Thumb Code    44  yaffs_guts.o(.text)
    yaffs_find_by_number                     0x1a00a31d   Thumb Code   254  yaffs_guts.o(.text)
    yaffs_update_oh                          0x1a00ac47   Thumb Code   794  yaffs_guts.o(.text)
    yaffs_get_obj_name                       0x1a00af61   Thumb Code   144  yaffs_guts.o(.text)
    yaffs_find_by_name                       0x1a00aff1   Thumb Code   186  yaffs_guts.o(.text)
    yaffs_flush_whole_cache                  0x1a00b27f   Thumb Code    72  yaffs_guts.o(.text)
    yaffs_handle_defered_free                0x1a00b4a5   Thumb Code    12  yaffs_guts.o(.text)
    yaffs_find_or_create_by_number           0x1a00b67f   Thumb Code    32  yaffs_guts.o(.text)
    yaffs_update_dirty_dirs                  0x1a00b6fd   Thumb Code    90  yaffs_guts.o(.text)
    yaffs_is_non_empty_dir                   0x1a00b757   Thumb Code    28  yaffs_guts.o(.text)
    yaffs_resize_file_down                   0x1a00b95b   Thumb Code   172  yaffs_guts.o(.text)
    yaffs_resize_file                        0x1a00ba07   Thumb Code   108  yaffs_guts.o(.text)
    yaffs_del_obj                            0x1a00bae9   Thumb Code   112  yaffs_guts.o(.text)
    yaffs_create_file                        0x1a00bc39   Thumb Code    36  yaffs_guts.o(.text)
    yaffs_create_dir                         0x1a00bc5d   Thumb Code    34  yaffs_guts.o(.text)
    yaffs_create_special                     0x1a00bc7f   Thumb Code    42  yaffs_guts.o(.text)
    yaffs_create_symlink                     0x1a00bca9   Thumb Code    40  yaffs_guts.o(.text)
    yaffs_get_equivalent_obj                 0x1a00bcd1   Thumb Code    26  yaffs_guts.o(.text)
    yaffs_link_obj                           0x1a00bceb   Thumb Code   142  yaffs_guts.o(.text)
    yaffs_bg_gc                              0x1a00be73   Thumb Code    56  yaffs_guts.o(.text)
    yaffs_set_xattrib                        0x1a00bf91   Thumb Code    22  yaffs_guts.o(.text)
    yaffs_remove_xattrib                     0x1a00bfa7   Thumb Code    18  yaffs_guts.o(.text)
    yaffs_get_xattrib                        0x1a00bfb9   Thumb Code     2  yaffs_guts.o(.text)
    yaffs_list_xattrib                       0x1a00bfbb   Thumb Code     8  yaffs_guts.o(.text)
    yaffs_file_rd                            0x1a00bfc3   Thumb Code   234  yaffs_guts.o(.text)
    yaffs_do_file_wr                         0x1a00c0ad   Thumb Code   586  yaffs_guts.o(.text)
    yaffs_wr_file                            0x1a00c2f7   Thumb Code    38  yaffs_guts.o(.text)
    yaffs_flush_file                         0x1a00c31d   Thumb Code    62  yaffs_guts.o(.text)
    yaffs_retype_obj                         0x1a00c35b   Thumb Code   162  yaffs_guts.o(.text)
    yaffs_unlinker                           0x1a00c4e5   Thumb Code    14  yaffs_guts.o(.text)
    yaffs_rename_obj                         0x1a00c4f3   Thumb Code   208  yaffs_guts.o(.text)
    yaffs_handle_shadowed_obj                0x1a00c5c3   Thumb Code    62  yaffs_guts.o(.text)
    yaffs_link_fixup                         0x1a00c601   Thumb Code    66  yaffs_guts.o(.text)
    yaffs_get_obj_length                     0x1a00c72f   Thumb Code    46  yaffs_guts.o(.text)
    yaffs_get_obj_link_count                 0x1a00c75d   Thumb Code    28  yaffs_guts.o(.text)
    yaffs_get_obj_inode                      0x1a00c779   Thumb Code    10  yaffs_guts.o(.text)
    yaffs_get_obj_type                       0x1a00c783   Thumb Code    58  yaffs_guts.o(.text)
    yaffs_get_symlink_alias                  0x1a00c7bd   Thumb Code    28  yaffs_guts.o(.text)
    yaffs_guts_ll_init                       0x1a00c853   Thumb Code   476  yaffs_guts.o(.text)
    yaffs_guts_format_dev                    0x1a00ca2f   Thumb Code    70  yaffs_guts.o(.text)
    yaffs_deinitialise                       0x1a00ca75   Thumb Code   166  yaffs_guts.o(.text)
    yaffs_guts_initialise                    0x1a00cb1b   Thumb Code  1066  yaffs_guts.o(.text)
    yaffs_count_free_chunks                  0x1a00cf45   Thumb Code    64  yaffs_guts.o(.text)
    yaffs_get_n_free_chunks                  0x1a00cf85   Thumb Code    82  yaffs_guts.o(.text)
    yaffs_oh_to_size                         0x1a00cfd7   Thumb Code     6  yaffs_guts.o(.text)
    yaffs_count_blocks_by_state              0x1a00cfdd   Thumb Code    74  yaffs_guts.o(.text)
    nval_del                                 0x1a00d3c9   Thumb Code    56  yaffs_nameval.o(.text)
    nval_set                                 0x1a00d401   Thumb Code   160  yaffs_nameval.o(.text)
    nval_get                                 0x1a00d4a1   Thumb Code   100  yaffs_nameval.o(.text)
    nval_list                                0x1a00d505   Thumb Code   128  yaffs_nameval.o(.text)
    nval_hasvalues                           0x1a00d585   Thumb Code    18  yaffs_nameval.o(.text)
    yaffs_rd_chunk_tags_nand                 0x1a00d5bd   Thumb Code   128  yaffs_nand.o(.text)
    yaffs_wr_chunk_tags_nand                 0x1a00d63d   Thumb Code   120  yaffs_nand.o(.text)
    yaffs_mark_bad                           0x1a00d6b5   Thumb Code    30  yaffs_nand.o(.text)
    yaffs_query_init_block_state             0x1a00d6d3   Thumb Code    18  yaffs_nand.o(.text)
    yaffs_erase_block                        0x1a00d6e5   Thumb Code    22  yaffs_nand.o(.text)
    yaffs_init_nand                          0x1a00d6fb   Thumb Code    12  yaffs_nand.o(.text)
    yaffs_deinit_nand                        0x1a00d707   Thumb Code    12  yaffs_nand.o(.text)
    yaffs_pack_tags2_tags_only               0x1a00d85f   Thumb Code   124  yaffs_packedtags2.o(.text)
    yaffs_pack_tags2                         0x1a00d8db   Thumb Code    32  yaffs_packedtags2.o(.text)
    yaffs_unpack_tags2_tags_only             0x1a00d8fb   Thumb Code   124  yaffs_packedtags2.o(.text)
    yaffs_unpack_tags2                       0x1a00d977   Thumb Code    86  yaffs_packedtags2.o(.text)
    yaffs_summary_deinit                     0x1a00da45   Thumb Code    36  yaffs_summary.o(.text)
    yaffs_summary_init                       0x1a00da69   Thumb Code    86  yaffs_summary.o(.text)
    yaffs_summary_read                       0x1a00dbbb   Thumb Code   274  yaffs_summary.o(.text)
    yaffs_summary_add                        0x1a00dccd   Thumb Code   102  yaffs_summary.o(.text)
    yaffs_summary_fetch                      0x1a00dd33   Thumb Code    58  yaffs_summary.o(.text)
    yaffs_summary_gc                         0x1a00dd6d   Thumb Code    84  yaffs_summary.o(.text)
    yaffs_calc_tags_ecc                      0x1a00de85   Thumb Code    52  yaffs_tagscompat.o(.text)
    yaffs_check_tags_ecc                     0x1a00deb9   Thumb Code    70  yaffs_tagscompat.o(.text)
    yaffs_tags_compat_install                0x1a00e3c1   Thumb Code    58  yaffs_tagscompat.o(.text)
    yaffs_tags_marshall_install              0x1a00e71f   Thumb Code    58  yaffs_tagsmarshall.o(.text)
    yaffs_skip_verification                  0x1a00e899   Thumb Code    18  yaffs_verify.o(.text)
    yaffs_verify_blk                         0x1a00e8ab   Thumb Code   174  yaffs_verify.o(.text)
    yaffs_verify_collected_blk               0x1a00e959   Thumb Code    46  yaffs_verify.o(.text)
    yaffs_verify_blocks                      0x1a00e987   Thumb Code   292  yaffs_verify.o(.text)
    yaffs_verify_oh                          0x1a00eaab   Thumb Code   224  yaffs_verify.o(.text)
    yaffs_verify_file                        0x1a00eb8b   Thumb Code  1088  yaffs_verify.o(.text)
    yaffs_verify_link                        0x1a00efcb   Thumb Code    10  yaffs_verify.o(.text)
    yaffs_verify_symlink                     0x1a00efd5   Thumb Code    10  yaffs_verify.o(.text)
    yaffs_verify_special                     0x1a00efdf   Thumb Code    10  yaffs_verify.o(.text)
    yaffs_verify_obj_in_dir                  0x1a00efe9   Thumb Code   172  yaffs_verify.o(.text)
    yaffs_verify_dir                         0x1a00f095   Thumb Code   124  yaffs_verify.o(.text)
    yaffs_verify_obj                         0x1a00f111   Thumb Code   370  yaffs_verify.o(.text)
    yaffs_verify_objects                     0x1a00f283   Thumb Code    56  yaffs_verify.o(.text)
    yaffs_verify_free_chunks                 0x1a00f2bb   Thumb Code    52  yaffs_verify.o(.text)
    yaffs_verify_file_sane                   0x1a00f2ef   Thumb Code     4  yaffs_verify.o(.text)
    yaffs1_scan                              0x1a00f50d   Thumb Code  1556  yaffs_yaffs1.o(.text)
    yaffs_calc_oldest_dirty_seq              0x1a00fb45   Thumb Code    82  yaffs_yaffs2.o(.text)
    yaffs2_find_oldest_dirty_seq             0x1a00fb97   Thumb Code    18  yaffs_yaffs2.o(.text)
    yaffs2_clear_oldest_dirty_seq            0x1a00fba9   Thumb Code    30  yaffs_yaffs2.o(.text)
    yaffs2_update_oldest_dirty_seq           0x1a00fbc7   Thumb Code    30  yaffs_yaffs2.o(.text)
    yaffs_block_ok_for_gc                    0x1a00fbe5   Thumb Code    40  yaffs_yaffs2.o(.text)
    yaffs2_find_refresh_block                0x1a00fc0d   Thumb Code   114  yaffs_yaffs2.o(.text)
    yaffs2_checkpt_required                  0x1a00fc7f   Thumb Code    36  yaffs_yaffs2.o(.text)
    yaffs_calc_checkpt_blocks_required       0x1a00fca3   Thumb Code   104  yaffs_yaffs2.o(.text)
    yaffs2_checkpt_invalidate                0x1a01030d   Thumb Code    46  yaffs_yaffs2.o(.text)
    yaffs_checkpoint_save                    0x1a01033b   Thumb Code    82  yaffs_yaffs2.o(.text)
    yaffs2_checkpt_restore                   0x1a01038d   Thumb Code    74  yaffs_yaffs2.o(.text)
    yaffs2_handle_hole                       0x1a0103d7   Thumb Code   806  yaffs_yaffs2.o(.text)
    yaffs2_scan_backwards                    0x1a010c75   Thumb Code   748  yaffs_yaffs2.o(.text)
    yaffsfs_SetError                         0x1a0112f5   Thumb Code     6  yaffs_osglue.o(.text)
    yaffsfs_GetLastError                     0x1a0112fb   Thumb Code     6  yaffs_osglue.o(.text)
    yaffsfs_CheckMemRegion                   0x1a011301   Thumb Code    12  yaffs_osglue.o(.text)
    yaffsfs_Lock                             0x1a01130d   Thumb Code    10  yaffs_osglue.o(.text)
    yaffsfs_Unlock                           0x1a011317   Thumb Code     6  yaffs_osglue.o(.text)
    yaffsfs_LockInit                         0x1a01131d   Thumb Code    12  yaffs_osglue.o(.text)
    yaffsfs_CurrentTime                      0x1a011329   Thumb Code     4  yaffs_osglue.o(.text)
    yaffsfs_malloc                           0x1a01132d   Thumb Code     4  yaffs_osglue.o(.text)
    yaffsfs_free                             0x1a011331   Thumb Code     4  yaffs_osglue.o(.text)
    yaffsfs_OSInitialisation                 0x1a011335   Thumb Code     2  yaffs_osglue.o(.text)
    yaffs_bug_fn                             0x1a011337   Thumb Code    22  yaffs_osglue.o(.text)
    strnlen                                  0x1a01134d   Thumb Code    20  yaffs_osglue.o(.text)
    yaffs_start_up                           0x1a011379   Thumb Code    34  yaffscfg2k.o(.text)
    yaffs_nandsim_install_drv                0x1a0113b5   Thumb Code   104  yaffs_startup.o(.text)
    jinit_arith_decoder                      0x1a011ddd   Thumb Code   106  jdarith.o(.text)
    jpeg_calc_output_dimensions              0x1a011efd   Thumb Code   338  jdmaster.o(.text)
    jpeg_new_colormap                        0x1a012385   Thumb Code    86  jdmaster.o(.text)
    jinit_master_decompress                  0x1a0123db   Thumb Code    40  jdmaster.o(.text)
    jpeg_core_output_dimensions              0x1a01240d   Thumb Code   656  jdinput.o(.text)
    jinit_input_controller                   0x1a012bd7   Thumb Code    48  jdinput.o(.text)
    jpeg_resync_to_restart                   0x1a014079   Thumb Code   176  jdmarker.o(.text)
    jinit_marker_reader                      0x1a014129   Thumb Code    72  jdmarker.o(.text)
    jpeg_save_markers                        0x1a014171   Thumb Code   116  jdmarker.o(.text)
    jpeg_set_marker_processor                0x1a0141e5   Thumb Code    54  jdmarker.o(.text)
    jinit_huff_decoder                       0x1a01567d   Thumb Code   112  jdhuff.o(.text)
    jinit_d_main_controller                  0x1a0159c5   Thumb Code   156  jdmainct.o(.text)
    jinit_d_coef_controller                  0x1a016359   Thumb Code   194  jdcoefct.o(.text)
    jinit_d_post_controller                  0x1a0166a1   Thumb Code   106  jdpostct.o(.text)
    jinit_inverse_dct                        0x1a016a1b   Thumb Code    86  jddctmgr.o(.text)
    jpeg_idct_float                          0x1a016b09   Thumb Code   812  jidctflt.o(.text)
    jpeg_idct_islow                          0x1a016e49   Thumb Code   870  jidctint.o(.text)
    jpeg_idct_7x7                            0x1a0171af   Thumb Code   672  jidctint.o(.text)
    jpeg_idct_6x6                            0x1a01744f   Thumb Code   394  jidctint.o(.text)
    jpeg_idct_5x5                            0x1a0175d9   Thumb Code   366  jidctint.o(.text)
    jpeg_idct_4x4                            0x1a017747   Thumb Code   294  jidctint.o(.text)
    jpeg_idct_3x3                            0x1a01786d   Thumb Code   212  jidctint.o(.text)
    jpeg_idct_2x2                            0x1a017941   Thumb Code   106  jidctint.o(.text)
    jpeg_idct_1x1                            0x1a0179ab   Thumb Code    32  jidctint.o(.text)
    jpeg_idct_9x9                            0x1a0179cb   Thumb Code   770  jidctint.o(.text)
    jpeg_idct_10x10                          0x1a017ccd   Thumb Code   834  jidctint.o(.text)
    jpeg_idct_11x11                          0x1a01800f   Thumb Code  1218  jidctint.o(.text)
    jpeg_idct_12x12                          0x1a0184d1   Thumb Code   994  jidctint.o(.text)
    jpeg_idct_13x13                          0x1a0188b3   Thumb Code  1388  jidctint.o(.text)
    jpeg_idct_14x14                          0x1a018e1f   Thumb Code  1140  jidctint.o(.text)
    jpeg_idct_15x15                          0x1a019293   Thumb Code  1250  jidctint.o(.text)
    jpeg_idct_16x16                          0x1a019775   Thumb Code  1512  jidctint.o(.text)
    jpeg_idct_16x8                           0x1a019d5d   Thumb Code  1274  jidctint.o(.text)
    jpeg_idct_14x7                           0x1a01a257   Thumb Code   906  jidctint.o(.text)
    jpeg_idct_12x6                           0x1a01a5e1   Thumb Code   712  jidctint.o(.text)
    jpeg_idct_10x5                           0x1a01a8a9   Thumb Code   578  jidctint.o(.text)
    jpeg_idct_8x4                            0x1a01aaeb   Thumb Code   490  jidctint.o(.text)
    jpeg_idct_6x3                            0x1a01acd5   Thumb Code   294  jidctint.o(.text)
    jpeg_idct_4x2                            0x1a01adfb   Thumb Code   188  jidctint.o(.text)
    jpeg_idct_2x1                            0x1a01aeb7   Thumb Code    52  jidctint.o(.text)
    jpeg_idct_8x16                           0x1a01aeeb   Thumb Code  1158  jidctint.o(.text)
    jpeg_idct_7x14                           0x1a01b371   Thumb Code   940  jidctint.o(.text)
    jpeg_idct_6x12                           0x1a01b71d   Thumb Code   722  jidctint.o(.text)
    jpeg_idct_5x10                           0x1a01b9ef   Thumb Code   608  jidctint.o(.text)
    jpeg_idct_4x8                            0x1a01bc4f   Thumb Code   604  jidctint.o(.text)
    jpeg_idct_3x6                            0x1a01beab   Thumb Code   298  jidctint.o(.text)
    jpeg_idct_2x4                            0x1a01bfd5   Thumb Code   216  jidctint.o(.text)
    jpeg_idct_1x2                            0x1a01c0ad   Thumb Code    52  jidctint.o(.text)
    jinit_upsampler                          0x1a01c2a5   Thumb Code   276  jdsample.o(.text)
    jinit_color_deconverter                  0x1a01c7e1   Thumb Code   504  jdcolor.o(.text)
    jinit_1pass_quantizer                    0x1a01cf79   Thumb Code   122  jquant1.o(.text)
    jinit_2pass_quantizer                    0x1a01db0d   Thumb Code   232  jquant2.o(.text)
    jinit_merged_upsampler                   0x1a01e129   Thumb Code    88  jdmerge.o(.text)
    jpeg_abort                               0x1a01e231   Thumb Code    50  jcomapi.o(.text)
    jpeg_destroy                             0x1a01e263   Thumb Code    22  jcomapi.o(.text)
    jpeg_alloc_quant_table                   0x1a01e279   Thumb Code    20  jcomapi.o(.text)
    jpeg_alloc_huff_table                    0x1a01e28d   Thumb Code    22  jcomapi.o(.text)
    jdiv_round_up                            0x1a01e2a3   Thumb Code    10  jutils.o(.text)
    jround_up                                0x1a01e2ad   Thumb Code    16  jutils.o(.text)
    jcopy_sample_rows                        0x1a01e2bd   Thumb Code    38  jutils.o(.text)
    jcopy_block_row                          0x1a01e2e3   Thumb Code    12  jutils.o(.text)
    jpeg_std_error                           0x1a01e3e7   Thumb Code    46  jerror.o(.text)
    jinit_memory_mgr                         0x1a01ebfd   Thumb Code   196  jmemmgr.o(.text)
    jpeg_idct_ifast                          0x1a01ed11   Thumb Code   718  jidctfst.o(.text)
    JFWRITE                                  0x1a01efdf   Thumb Code     4  jpeg_port.o(.text)
    JFREAD                                   0x1a01efe3   Thumb Code    10  jpeg_port.o(.text)
    JFSEEK                                   0x1a01efed   Thumb Code     4  jpeg_port.o(.text)
    JFCLOSE                                  0x1a01eff1   Thumb Code     4  jpeg_port.o(.text)
    jinit_write_bmp                          0x1a01f4bd   Thumb Code   174  wrbmp.o(.text)
    jpeg_CreateDecompress                    0x1a01f57d   Thumb Code   160  jdapimin.o(.text)
    jpeg_destroy_decompress                  0x1a01f61d   Thumb Code     4  jdapimin.o(.text)
    jpeg_abort_decompress                    0x1a01f621   Thumb Code     4  jdapimin.o(.text)
    jpeg_consume_input                       0x1a01f77b   Thumb Code   122  jdapimin.o(.text)
    jpeg_read_header                         0x1a01f7f5   Thumb Code    80  jdapimin.o(.text)
    jpeg_input_complete                      0x1a01f845   Thumb Code    40  jdapimin.o(.text)
    jpeg_has_multiple_scans                  0x1a01f86d   Thumb Code    40  jdapimin.o(.text)
    jpeg_finish_decompress                   0x1a01f895   Thumb Code   126  jdapimin.o(.text)
    jpeg_start_decompress                    0x1a01f9ab   Thumb Code   150  jdapistd.o(.text)
    jpeg_read_scanlines                      0x1a01fa41   Thumb Code   114  jdapistd.o(.text)
    jpeg_read_raw_data                       0x1a01fab3   Thumb Code   140  jdapistd.o(.text)
    jpeg_start_output                        0x1a01fb3f   Thumb Code    68  jdapistd.o(.text)
    jpeg_finish_output                       0x1a01fb83   Thumb Code    98  jdapistd.o(.text)
    jpeg_get_small                           0x1a01fbe5   Thumb Code     6  jmemnobs.o(.text)
    jpeg_free_small                          0x1a01fbeb   Thumb Code     6  jmemnobs.o(.text)
    jpeg_get_large                           0x1a01fbf1   Thumb Code     6  jmemnobs.o(.text)
    jpeg_free_large                          0x1a01fbf7   Thumb Code     6  jmemnobs.o(.text)
    jpeg_mem_available                       0x1a01fbfd   Thumb Code     4  jmemnobs.o(.text)
    jpeg_open_backing_store                  0x1a01fc01   Thumb Code    12  jmemnobs.o(.text)
    jpeg_mem_init                            0x1a01fc0d   Thumb Code     4  jmemnobs.o(.text)
    jpeg_mem_term                            0x1a01fc11   Thumb Code     2  jmemnobs.o(.text)
    jpeg_stdio_src                           0x1a01fcc7   Thumb Code    74  jdatasrc.o(.text)
    jpeg_mem_src                             0x1a01fd11   Thumb Code    70  jdatasrc.o(.text)
    Board_UARTPutChar                        0x1a01fd79   Thumb Code    26  board.o(.text)
    _sys_open                                0x1a01fd93   Thumb Code     6  board.o(.text)
    fputc                                    0x1a01fd99   Thumb Code    20  board.o(.text)
    Board_UARTGetChar                        0x1a01fdad   Thumb Code    28  board.o(.text)
    fgetc                                    0x1a01fdc9   Thumb Code    10  board.o(.text)
    ferror                                   0x1a01fdd3   Thumb Code     8  board.o(.text)
    _sys_exit                                0x1a01fddb   Thumb Code     6  board.o(.text)
    Board_UART_Init                          0x1a01ff7b   Thumb Code    88  board.o(.text)
    Board_Debug_Init                         0x1a01ffd3   Thumb Code    42  board.o(.text)
    Board_UARTPutSTR                         0x1a01fffd   Thumb Code    22  board.o(.text)
    Board_LED_Set                            0x1a02002f   Thumb Code    28  board.o(.text)
    Board_LED_Test                           0x1a02004b   Thumb Code    28  board.o(.text)
    Board_LED_Toggle                         0x1a020067   Thumb Code    24  board.o(.text)
    Board_ENET_GetMacADDR                    0x1a02007f   Thumb Code    22  board.o(.text)
    Board_Init                               0x1a020095   Thumb Code    66  board.o(.text)
    Board_ADC_Init                           0x1a0200d7   Thumb Code     2  board.o(.text)
    Board_I2C_Init                           0x1a0200d9   Thumb Code    44  board.o(.text)
    Board_Audio_Init                         0x1a020105   Thumb Code    52  board.o(.text)
    Board_InitLCDController                  0x1a020139   Thumb Code   660  board.o(.text)
    Board_LCD_Init                           0x1a0203cd   Thumb Code    36  board.o(.text)
    Board_InitTouchController                0x1a0203f1   Thumb Code   202  board.o(.text)
    Board_I2C_GetTouchPos                    0x1a0204bb   Thumb Code   196  board.o(.text)
    Board_GetTouchPos                        0x1a02057f   Thumb Code    60  board.o(.text)
    Board_SetLCDBacklight                    0x1a0205bb   Thumb Code    28  board.o(.text)
    Board_SDMMC_Init                         0x1a0205d7   Thumb Code    74  board.o(.text)
    Board_SSP_Init                           0x1a020621   Thumb Code   106  board.o(.text)
    Board_Buttons_Init                       0x1a02068b   Thumb Code    24  board.o(.text)
    Board_Joystick_Init                      0x1a0206a3   Thumb Code   104  board.o(.text)
    Joystick_GetStatus                       0x1a02070b   Thumb Code    96  board.o(.text)
    Buttons_GetStatus                        0x1a02076b   Thumb Code    24  board.o(.text)
    Board_DAC_Init                           0x1a020783   Thumb Code    18  board.o(.text)
    Board_SetupMuxing                        0x1a02084d   Thumb Code    58  board_sysinit.o(.text)
    Board_SetupExtMemory                     0x1a020887   Thumb Code    82  board_sysinit.o(.text)
    Board_SetupClocking                      0x1a0208d9   Thumb Code   160  board_sysinit.o(.text)
    Board_SystemInit                         0x1a020979   Thumb Code    12  board_sysinit.o(.text)
    UDA1380_REG_VerifyMult                   0x1a0209bd   Thumb Code    72  uda1380.o(.text)
    UDA1380_REG_WriteMult                    0x1a020a05   Thumb Code    30  uda1380.o(.text)
    UDA1380_REG_Write                        0x1a020a47   Thumb Code    36  uda1380.o(.text)
    UDA1380_REG_Read                         0x1a020a6b   Thumb Code    42  uda1380.o(.text)
    UDA1380_REG_WriteVerify                  0x1a020a95   Thumb Code    34  uda1380.o(.text)
    UDA1380_Init                             0x1a020ab7   Thumb Code   118  uda1380.o(.text)
    __aeabi_uldivmod                         0x1a020b41   Thumb Code     0  lludivv7m.o(.text)
    _ll_udiv                                 0x1a020b41   Thumb Code   238  lludivv7m.o(.text)
    __2printf                                0x1a020c31   Thumb Code    20  noretval__2printf.o(.text)
    __2fprintf                               0x1a020c49   Thumb Code    20  noretval__2fprintf.o(.text)
    __2sprintf                               0x1a020c5d   Thumb Code    34  noretval__2sprintf.o(.text)
    _printf_pre_padding                      0x1a020c85   Thumb Code    44  _printf_pad.o(.text)
    _printf_post_padding                     0x1a020cb1   Thumb Code    34  _printf_pad.o(.text)
    _printf_truncate_signed                  0x1a020cd3   Thumb Code    18  _printf_truncate.o(.text)
    _printf_truncate_unsigned                0x1a020ce5   Thumb Code    18  _printf_truncate.o(.text)
    _printf_str                              0x1a020cf7   Thumb Code    82  _printf_str.o(.text)
    _printf_int_dec                          0x1a020d49   Thumb Code   104  _printf_dec.o(.text)
    _printf_charcount                        0x1a020dc1   Thumb Code    40  _printf_charcount.o(.text)
    _printf_wctomb                           0x1a020de9   Thumb Code   182  _printf_wctomb.o(.text)
    _printf_longlong_dec                     0x1a020ea5   Thumb Code   108  _printf_longlong_dec.o(.text)
    _printf_int_oct                          0x1a020f21   Thumb Code    74  _printf_oct_int.o(.text)
    _printf_longlong_oct                     0x1a020f21   Thumb Code     0  _printf_oct_int.o(.text)
    _printf_longlong_hex                     0x1a020f75   Thumb Code    78  _printf_hex_int_ptr.o(.text)
    _printf_int_hex                          0x1a020fc3   Thumb Code    26  _printf_hex_int_ptr.o(.text)
    _printf_hex_ptr                          0x1a020fdd   Thumb Code    16  _printf_hex_int_ptr.o(.text)
    __printf                                 0x1a020ff1   Thumb Code   388  __printf_flags_ss_wp.o(.text)
    __0sscanf                                0x1a021179   Thumb Code    52  __0sscanf.o(.text)
    _scanf_int                               0x1a0211b5   Thumb Code   332  _scanf_int.o(.text)
    _scanf_string                            0x1a021301   Thumb Code   224  _scanf_str.o(.text)
    exit                                     0x1a0213e1   Thumb Code    18  exit.o(.text)
    memcmp                                   0x1a0213f3   Thumb Code    88  memcmp.o(.text)
    strcpy                                   0x1a02144b   Thumb Code    72  strcpy.o(.text)
    strncmp                                  0x1a021493   Thumb Code   150  strncmp.o(.text)
    strcat                                   0x1a021529   Thumb Code    24  strcat.o(.text)
    __aeabi_memcpy                           0x1a021541   Thumb Code     0  rt_memcpy_v6.o(.text)
    __rt_memcpy                              0x1a021541   Thumb Code   138  rt_memcpy_v6.o(.text)
    _memcpy_lastbytes                        0x1a0215a7   Thumb Code     0  rt_memcpy_v6.o(.text)
    __aeabi_memcpy4                          0x1a0215cb   Thumb Code     0  rt_memcpy_w.o(.text)
    __aeabi_memcpy8                          0x1a0215cb   Thumb Code     0  rt_memcpy_w.o(.text)
    __rt_memcpy_w                            0x1a0215cb   Thumb Code   100  rt_memcpy_w.o(.text)
    _memcpy_lastbytes_aligned                0x1a021613   Thumb Code     0  rt_memcpy_w.o(.text)
    __aeabi_memset                           0x1a02162f   Thumb Code    16  aeabi_memset.o(.text)
    __aeabi_memclr                           0x1a02163f   Thumb Code     0  rt_memclr.o(.text)
    __rt_memclr                              0x1a02163f   Thumb Code    68  rt_memclr.o(.text)
    _memset                                  0x1a021643   Thumb Code     0  rt_memclr.o(.text)
    __aeabi_memclr4                          0x1a021683   Thumb Code     0  rt_memclr_w.o(.text)
    __aeabi_memclr8                          0x1a021683   Thumb Code     0  rt_memclr_w.o(.text)
    __rt_memclr_w                            0x1a021683   Thumb Code    78  rt_memclr_w.o(.text)
    _memset_w                                0x1a021687   Thumb Code     0  rt_memclr_w.o(.text)
    strncpy                                  0x1a0216d1   Thumb Code    86  strncpy.o(.text)
    strcmp                                   0x1a021729   Thumb Code   128  strcmpv7m.o(.text)
    __use_two_region_memory                  0x1a0217a9   Thumb Code     2  heapauxi.o(.text)
    __rt_heap_escrow$2region                 0x1a0217ab   Thumb Code     2  heapauxi.o(.text)
    __rt_heap_expand$2region                 0x1a0217ad   Thumb Code     2  heapauxi.o(.text)
    _ll_udiv10                               0x1a0217af   Thumb Code   138  lludiv10.o(.text)
    _printf_int_common                       0x1a021839   Thumb Code   178  _printf_intcommon.o(.text)
    _printf_char_common                      0x1a0218f7   Thumb Code    32  _printf_char_common.o(.text)
    _sputc                                   0x1a02191d   Thumb Code    10  _sputc.o(.text)
    _printf_cs_common                        0x1a021927   Thumb Code    20  _printf_char.o(.text)
    _printf_char                             0x1a02193b   Thumb Code    16  _printf_char.o(.text)
    _printf_string                           0x1a02194b   Thumb Code     8  _printf_char.o(.text)
    _printf_char_file                        0x1a021955   Thumb Code    32  _printf_char_file.o(.text)
    _printf_lcs_common                       0x1a021979   Thumb Code    20  _printf_wchar.o(.text)
    _printf_wchar                            0x1a02198d   Thumb Code    16  _printf_wchar.o(.text)
    _printf_wstring                          0x1a02199d   Thumb Code     8  _printf_wchar.o(.text)
    _chval                                   0x1a0219a5   Thumb Code    28  _chval.o(.text)
