Component: ARM Compiler 5.05 update 1 (build 106) Tool: armlink [4d0efa]

==============================================================================

Section Cross References

    raw-os.o(.text) refers to cpu.o(.text) for OS_CPU_SR_Save
    raw-os.o(.text) refers to raw-os.o(.data) for .data
    raw-os.o(.text) refers to raw-os.o(.bss) for .bss
    raw-os.o(.text) refers to user_extension.o(.text) for raw_memset
    raw-os.o(.text) refers to port_hook.o(.text) for task_create_hook
    raw-os.o(.text) refers to port.o(.text) for port_stack_init
    fifo.o(.text) refers to cpu.o(.text) for OS_CPU_SR_Save
    fifo.o(.text) refers to user_extension.o(.text) for raw_memcpy
    rsh.o(.text) refers to cpu.o(.text) for OS_CPU_SR_Save
    rsh.o(.text) refers to string.o(.text) for raw_strncmp
    rsh.o(.text) refers to user_extension.o(.text) for raw_memset
    rsh.o(.text) refers to rsh.o(.data) for .data
    rsh.o(.text) refers to rsh.o(.conststring) for .conststring
    rsh.o(.constdata) refers to rsh.o(.conststring) for .conststring
    rsh.o(.constdata) refers to rsh.o(.text) for rsh_help_command
    rsh.o(.data) refers to rsh.o(.constdata) for xHelpCommand
    cpu.o(.text) refers to raw-os.o(.text) for raw_stack_check
    cpu.o(.text) refers to raw-os.o(.data) for raw_task_active
==============================================================================

Removing Unused input sections from the image.

    Removing rsh.o(.text), (472 bytes).
    Removing rsh.o(.constdata), (16 bytes).
    Removing rsh.o(.conststring), (50 bytes).
    Removing rsh.o(.conststring), (173 bytes).
    Removing rsh.o(.data), (20 bytes).
    Removing string.o(.text), (592 bytes).
    Removing sysinit.o(.rev16_text), (4 bytes).
    Removing sysinit.o(.revsh_text), (4 bytes).
    Removing lpc43xx_scu.o(.rev16_text), (4 bytes).
    Removing lpc43xx_scu.o(.revsh_text), (4 bytes).
    Removing lpc43xx_sdram.o(.rev16_text), (4 bytes).
    Removing lpc43xx_sdram.o(.revsh_text), (4 bytes).
    Removing main.o(.rev16_text), (4 bytes).
    Removing main.o(.revsh_text), (4 bytes).
    Removing main.o(.data), (4 bytes).
    Removing board.o(.rev16_text), (4 bytes).
    Removing board.o(.revsh_text), (4 bytes).
    Removing board.o(i.Board_ADC_Init), (2 bytes).
==============================================================================

Image Symbol Table

    Local Symbols

    Symbol Name                              Value     Ov Type        Size  Object(Section)

    ../clib/angel/boardlib.s                 0x00000000   Number         0  boardinit3.o ABSOLUTE
    ../clib/angel/boardlib.s                 0x00000000   Number         0  boardinit2.o ABSOLUTE
    ../clib/angel/boardlib.s                 0x00000000   Number         0  boardinit1.o ABSOLUTE
    ../clib/angel/boardlib.s                 0x00000000   Number         0  boardshut.o ABSOLUTE
    ../clib/angel/handlers.s                 0x00000000   Number         0  __scatter_copy.o ABSOLUTE
    ../clib/angel/handlers.s                 0x00000000   Number         0  __scatter_zi.o ABSOLUTE
    ../clib/angel/kernel.s                   0x00000000   Number         0  rtexit.o ABSOLUTE
    ../clib/angel/kernel.s                   0x00000000   Number         0  __rtentry.o ABSOLUTE
    ../clib/angel/kernel.s                   0x00000000   Number         0  __rtentry2.o ABSOLUTE
    ../clib/angel/kernel.s                   0x00000000   Number         0  rtexit2.o ABSOLUTE
    ../clib/angel/kernel.s                   0x00000000   Number         0  __rtentry4.o ABSOLUTE
    ../clib/angel/rt.s                       0x00000000   Number         0  aeabi_ldiv0.o ABSOLUTE
    ../clib/angel/rt.s                       0x00000000   Number         0  aeabi_ldiv0_sigfpe.o ABSOLUTE
    ../clib/angel/rt.s                       0x00000000   Number         0  rt_div0.o ABSOLUTE
    ../clib/angel/rt.s                       0x00000000   Number         0  rt_raise.o ABSOLUTE
    ../clib/angel/scatter.s                  0x00000000   Number         0  __scatter.o ABSOLUTE
    ../clib/angel/startup.s                  0x00000000   Number         0  __main.o ABSOLUTE
    ../clib/angel/sys.s                      0x00000000   Number         0  indicate_semi.o ABSOLUTE
    ../clib/angel/sys.s                      0x00000000   Number         0  use_no_semi.o ABSOLUTE
    ../clib/angel/sys.s                      0x00000000   Number         0  libspace.o ABSOLUTE
    ../clib/angel/sys.s                      0x00000000   Number         0  sys_stackheap_outer.o ABSOLUTE
    ../clib/angel/sysapp.c                   0x00000000   Number         0  sys_command.o ABSOLUTE
    ../clib/angel/sysapp.c                   0x00000000   Number         0  sys_wrch.o ABSOLUTE
    ../clib/armsys.c                         0x00000000   Number         0  no_argv.o ABSOLUTE
    ../clib/armsys.c                         0x00000000   Number         0  _get_argv_nomalloc.o ABSOLUTE
    ../clib/armsys.c                         0x00000000   Number         0  argv_veneer.o ABSOLUTE
    ../clib/armsys.c                         0x00000000   Number         0  argv_veneer.o ABSOLUTE
    ../clib/heapalloc.c                      0x00000000   Number         0  hrguard.o ABSOLUTE
    ../clib/heapaux.c                        0x00000000   Number         0  heapauxi.o ABSOLUTE
    ../clib/libinit.s                        0x00000000   Number         0  libinit.o ABSOLUTE
    ../clib/libinit.s                        0x00000000   Number         0  libshutdown.o ABSOLUTE
    ../clib/libinit.s                        0x00000000   Number         0  libshutdown2.o ABSOLUTE
    ../clib/libinit.s                        0x00000000   Number         0  libinit2.o ABSOLUTE
    ../clib/longlong.s                       0x00000000   Number         0  lludivv7m.o ABSOLUTE
    ../clib/memcpset.s                       0x00000000   Number         0  rt_memclr_w.o ABSOLUTE
    ../clib/memcpset.s                       0x00000000   Number         0  rt_memcpy_v6.o ABSOLUTE
    ../clib/memcpset.s                       0x00000000   Number         0  rt_memcpy_w.o ABSOLUTE
    ../clib/memcpset.s                       0x00000000   Number         0  strncpy.o ABSOLUTE
    ../clib/memcpset.s                       0x00000000   Number         0  rt_memclr.o ABSOLUTE
    ../clib/printf.c                         0x00000000   Number         0  __printf_nopercent.o ABSOLUTE
    ../clib/printf.c                         0x00000000   Number         0  _printf_char_file.o ABSOLUTE
    ../clib/printf.c                         0x00000000   Number         0  _printf_char_common.o ABSOLUTE
    ../clib/printf.c                         0x00000000   Number         0  __2printf.o ABSOLUTE
    ../clib/printf.c                         0x00000000   Number         0  noretval__2printf.o ABSOLUTE
    ../clib/signal.c                         0x00000000   Number         0  defsig_rtmem_inner.o ABSOLUTE
    ../clib/signal.c                         0x00000000   Number         0  defsig_rtred_inner.o ABSOLUTE
    ../clib/signal.c                         0x00000000   Number         0  defsig_abrt_inner.o ABSOLUTE
    ../clib/signal.c                         0x00000000   Number         0  defsig_general.o ABSOLUTE
    ../clib/signal.c                         0x00000000   Number         0  __raise.o ABSOLUTE
    ../clib/signal.c                         0x00000000   Number         0  defsig_fpe_outer.o ABSOLUTE
    ../clib/signal.c                         0x00000000   Number         0  defsig_rtmem_outer.o ABSOLUTE
    ../clib/signal.c                         0x00000000   Number         0  defsig_rtmem_formal.o ABSOLUTE
    ../clib/signal.c                         0x00000000   Number         0  defsig_stak_inner.o ABSOLUTE
    ../clib/signal.c                         0x00000000   Number         0  defsig_exit.o ABSOLUTE
    ../clib/signal.c                         0x00000000   Number         0  defsig_cppl_inner.o ABSOLUTE
    ../clib/signal.c                         0x00000000   Number         0  defsig_segv_inner.o ABSOLUTE
    ../clib/signal.c                         0x00000000   Number         0  defsig_other.o ABSOLUTE
    ../clib/signal.c                         0x00000000   Number         0  defsig_pvfn_inner.o ABSOLUTE
    ../clib/signal.c                         0x00000000   Number         0  defsig_fpe_inner.o ABSOLUTE
    ../clib/signal.c                         0x00000000   Number         0  defsig_fpe_formal.o ABSOLUTE
    ../clib/signal.s                         0x00000000   Number         0  defsig.o ABSOLUTE
    ../clib/stdlib.c                         0x00000000   Number         0  exit.o ABSOLUTE
    ../clib/string.c                         0x00000000   Number         0  strncmp.o ABSOLUTE
    ../fplib/fpinit.s                        0x00000000   Number         0  fpinit.o ABSOLUTE
    ..\..\..\..\software\common\lpc43xx_scu.c 0x00000000   Number         0  lpc43xx_scu.o ABSOLUTE
    ..\..\..\..\software\common\lpc43xx_sdram.c 0x00000000   Number         0  lpc43xx_sdram.o ABSOLUTE
    ..\..\..\..\software\kernel\port\cpu.asm 0x00000000   Number         0  cpu.o ABSOLUTE
    ..\..\..\..\software\kernel\port\port.c  0x00000000   Number         0  port.o ABSOLUTE
    ..\..\..\..\software\kernel\port\port_hook.c 0x00000000   Number         0  port_hook.o ABSOLUTE
    ..\..\..\..\software\kernel\port\raw_trace_port.c 0x00000000   Number         0  raw_trace_port.o ABSOLUTE
    ..\..\..\..\software\kernel\port\user_extension.c 0x00000000   Number         0  user_extension.o ABSOLUTE
    ..\..\..\..\software\kernel\raw-os\extension\lib\fifo.c 0x00000000   Number         0  fifo.o ABSOLUTE
    ..\..\..\..\software\kernel\raw-os\extension\lib\string.c 0x00000000   Number         0  string.o ABSOLUTE
    ..\..\..\..\software\kernel\raw-os\extension\shell\rsh.c 0x00000000   Number         0  rsh.o ABSOLUTE
    ..\..\..\..\software\kernel\raw-os\raw-os.c 0x00000000   Number         0  raw-os.o ABSOLUTE
    ..\..\board_common\uda1380.c             0x00000000   Number         0  uda1380.o ABSOLUTE
    ..\..\examples\eeprom\main.c             0x00000000   Number         0  main.o ABSOLUTE
    ..\..\startup_code\keil_startup_lpc18xx43xx.s 0x00000000   Number         0  keil_startup_lpc18xx43xx.o ABSOLUTE
    ..\..\startup_code\sysinit.c             0x00000000   Number         0  sysinit.o ABSOLUTE
    ..\\..\\..\\..\\software\\common\\lpc43xx_scu.c 0x00000000   Number         0  lpc43xx_scu.o ABSOLUTE
    ..\\..\\..\\..\\software\\common\\lpc43xx_sdram.c 0x00000000   Number         0  lpc43xx_sdram.o ABSOLUTE
    ..\\..\\board_common\\uda1380.c          0x00000000   Number         0  uda1380.o ABSOLUTE
    ..\\..\\examples\\eeprom\\main.c         0x00000000   Number         0  main.o ABSOLUTE
    ..\\..\\startup_code\\sysinit.c          0x00000000   Number         0  sysinit.o ABSOLUTE
    ..\\chip_common\\fpu_init.c              0x00000000   Number         0  fpu_init.o ABSOLUTE
    ..\chip_common\fpu_init.c                0x00000000   Number         0  fpu_init.o ABSOLUTE
    ..\chip_common\ring_buffer.c             0x00000000   Number         0  ring_buffer.o ABSOLUTE
    board.c                                  0x00000000   Number         0  board.o ABSOLUTE
    board.c                                  0x00000000   Number         0  board.o ABSOLUTE
    board_sysinit.c                          0x00000000   Number         0  board_sysinit.o ABSOLUTE
    board_sysinit.c                          0x00000000   Number         0  board_sysinit.o ABSOLUTE
    chip_18xx_43xx.c                         0x00000000   Number         0  chip_18xx_43xx.o ABSOLUTE
    chip_18xx_43xx.c                         0x00000000   Number         0  chip_18xx_43xx.o ABSOLUTE
    clock_18xx_43xx.c                        0x00000000   Number         0  clock_18xx_43xx.o ABSOLUTE
    clock_18xx_43xx.c                        0x00000000   Number         0  clock_18xx_43xx.o ABSOLUTE
    dc.s                                     0x00000000   Number         0  dc.o ABSOLUTE
    eeprom_18xx_43xx.c                       0x00000000   Number         0  eeprom_18xx_43xx.o ABSOLUTE
    eeprom_18xx_43xx.c                       0x00000000   Number         0  eeprom_18xx_43xx.o ABSOLUTE
    emc_18xx_43xx.c                          0x00000000   Number         0  emc_18xx_43xx.o ABSOLUTE
    emc_18xx_43xx.c                          0x00000000   Number         0  emc_18xx_43xx.o ABSOLUTE
    gpio_18xx_43xx.c                         0x00000000   Number         0  gpio_18xx_43xx.o ABSOLUTE
    gpio_18xx_43xx.c                         0x00000000   Number         0  gpio_18xx_43xx.o ABSOLUTE
    i2c_18xx_43xx.c                          0x00000000   Number         0  i2c_18xx_43xx.o ABSOLUTE
    i2c_18xx_43xx.c                          0x00000000   Number         0  i2c_18xx_43xx.o ABSOLUTE
    i2s_18xx_43xx.c                          0x00000000   Number         0  i2s_18xx_43xx.o ABSOLUTE
    i2s_18xx_43xx.c                          0x00000000   Number         0  i2s_18xx_43xx.o ABSOLUTE
    rgu_18xx_43xx.c                          0x00000000   Number         0  rgu_18xx_43xx.o ABSOLUTE
    rgu_18xx_43xx.c                          0x00000000   Number         0  rgu_18xx_43xx.o ABSOLUTE
    ssp_18xx_43xx.c                          0x00000000   Number         0  ssp_18xx_43xx.o ABSOLUTE
    ssp_18xx_43xx.c                          0x00000000   Number         0  ssp_18xx_43xx.o ABSOLUTE
    sysinit_18xx_43xx.c                      0x00000000   Number         0  sysinit_18xx_43xx.o ABSOLUTE
    sysinit_18xx_43xx.c                      0x00000000   Number         0  sysinit_18xx_43xx.o ABSOLUTE
    uart_18xx_43xx.c                         0x00000000   Number         0  uart_18xx_43xx.o ABSOLUTE
    uart_18xx_43xx.c                         0x00000000   Number         0  uart_18xx_43xx.o ABSOLUTE
    .data                                    0x10000000   Section       88  raw-os.o(.data)
    .data                                    0x10000058   Section       20  board.o(.data)
    .data                                    0x1000006c   Section        4  chip_18xx_43xx.o(.data)
    .data                                    0x10000070   Section        8  clock_18xx_43xx.o(.data)
    audio_usb_pll_freq                       0x10000070   Data           8  clock_18xx_43xx.o(.data)
    .bss                                     0x10000078   Section     4840  raw-os.o(.bss)
    .bss                                     0x10001360   Section     1996  main.o(.bss)
    fifo_buffer                              0x10001aac   Data         128  main.o(.bss)
    .bss                                     0x10001b2c   Section       96  libspace.o(.bss)
    HEAP                                     0x10001b90   Section      256  keil_startup_lpc18xx43xx.o(HEAP)
    Heap_Mem                                 0x10001b90   Data         256  keil_startup_lpc18xx43xx.o(HEAP)
    STACK                                    0x10001c90   Section     1536  keil_startup_lpc18xx43xx.o(STACK)
    Stack_Mem                                0x10001c90   Data        1536  keil_startup_lpc18xx43xx.o(STACK)
    __initial_sp                             0x10002290   Data           0  keil_startup_lpc18xx43xx.o(STACK)
    RESET                                    0x1a000000   Section      276  keil_startup_lpc18xx43xx.o(RESET)
    !!!main                                  0x1a000114   Section        8  __main.o(!!!main)
    !!!scatter                               0x1a00011c   Section       52  __scatter.o(!!!scatter)
    !!handler_copy                           0x1a000150   Section       26  __scatter_copy.o(!!handler_copy)
    !!handler_zi                             0x1a00016c   Section       28  __scatter_zi.o(!!handler_zi)
    .ARM.Collect$$libinit$$00000000          0x1a000188   Section        2  libinit.o(.ARM.Collect$$libinit$$00000000)
    .ARM.Collect$$libinit$$00000001          0x1a00018a   Section        4  libinit2.o(.ARM.Collect$$libinit$$00000001)
    .ARM.Collect$$libinit$$00000004          0x1a00018e   Section        0  libinit2.o(.ARM.Collect$$libinit$$00000004)
    .ARM.Collect$$libinit$$0000000A          0x1a00018e   Section        0  libinit2.o(.ARM.Collect$$libinit$$0000000A)
    .ARM.Collect$$libinit$$0000000C          0x1a00018e   Section        0  libinit2.o(.ARM.Collect$$libinit$$0000000C)
    .ARM.Collect$$libinit$$0000000E          0x1a00018e   Section        0  libinit2.o(.ARM.Collect$$libinit$$0000000E)
    .ARM.Collect$$libinit$$00000011          0x1a00018e   Section        0  libinit2.o(.ARM.Collect$$libinit$$00000011)
    .ARM.Collect$$libinit$$00000013          0x1a00018e   Section        0  libinit2.o(.ARM.Collect$$libinit$$00000013)
    .ARM.Collect$$libinit$$00000015          0x1a00018e   Section        0  libinit2.o(.ARM.Collect$$libinit$$00000015)
    .ARM.Collect$$libinit$$00000017          0x1a00018e   Section        0  libinit2.o(.ARM.Collect$$libinit$$00000017)
    .ARM.Collect$$libinit$$00000019          0x1a00018e   Section        0  libinit2.o(.ARM.Collect$$libinit$$00000019)
    .ARM.Collect$$libinit$$0000001B          0x1a00018e   Section        0  libinit2.o(.ARM.Collect$$libinit$$0000001B)
    .ARM.Collect$$libinit$$0000001D          0x1a00018e   Section        0  libinit2.o(.ARM.Collect$$libinit$$0000001D)
    .ARM.Collect$$libinit$$0000001F          0x1a00018e   Section        0  libinit2.o(.ARM.Collect$$libinit$$0000001F)
    .ARM.Collect$$libinit$$00000021          0x1a00018e   Section        0  libinit2.o(.ARM.Collect$$libinit$$00000021)
    .ARM.Collect$$libinit$$00000023          0x1a00018e   Section        0  libinit2.o(.ARM.Collect$$libinit$$00000023)
    .ARM.Collect$$libinit$$00000025          0x1a00018e   Section        0  libinit2.o(.ARM.Collect$$libinit$$00000025)
    .ARM.Collect$$libinit$$0000002C          0x1a00018e   Section        0  libinit2.o(.ARM.Collect$$libinit$$0000002C)
    .ARM.Collect$$libinit$$0000002E          0x1a00018e   Section        0  libinit2.o(.ARM.Collect$$libinit$$0000002E)
    .ARM.Collect$$libinit$$00000030          0x1a00018e   Section        0  libinit2.o(.ARM.Collect$$libinit$$00000030)
    .ARM.Collect$$libinit$$00000032          0x1a00018e   Section        0  libinit2.o(.ARM.Collect$$libinit$$00000032)
    .ARM.Collect$$libinit$$00000033          0x1a00018e   Section        2  libinit2.o(.ARM.Collect$$libinit$$00000033)
    .ARM.Collect$$libshutdown$$00000000      0x1a000190   Section        2  libshutdown.o(.ARM.Collect$$libshutdown$$00000000)
    .ARM.Collect$$libshutdown$$00000003      0x1a000192   Section        0  libshutdown2.o(.ARM.Collect$$libshutdown$$00000003)
    .ARM.Collect$$libshutdown$$00000006      0x1a000192   Section        0  libshutdown2.o(.ARM.Collect$$libshutdown$$00000006)
    .ARM.Collect$$libshutdown$$00000009      0x1a000192   Section        0  libshutdown2.o(.ARM.Collect$$libshutdown$$00000009)
    .ARM.Collect$$libshutdown$$0000000B      0x1a000192   Section        0  libshutdown2.o(.ARM.Collect$$libshutdown$$0000000B)
    .ARM.Collect$$libshutdown$$0000000E      0x1a000192   Section        0  libshutdown2.o(.ARM.Collect$$libshutdown$$0000000E)
    .ARM.Collect$$libshutdown$$0000000F      0x1a000192   Section        2  libshutdown2.o(.ARM.Collect$$libshutdown$$0000000F)
    .ARM.Collect$$rtentry$$00000000          0x1a000194   Section        0  __rtentry.o(.ARM.Collect$$rtentry$$00000000)
    .ARM.Collect$$rtentry$$00000002          0x1a000194   Section        0  __rtentry2.o(.ARM.Collect$$rtentry$$00000002)
    .ARM.Collect$$rtentry$$00000004          0x1a000194   Section        6  __rtentry4.o(.ARM.Collect$$rtentry$$00000004)
    .ARM.Collect$$rtentry$$00000009          0x1a00019a   Section        0  __rtentry2.o(.ARM.Collect$$rtentry$$00000009)
    .ARM.Collect$$rtentry$$0000000A          0x1a00019a   Section        4  __rtentry2.o(.ARM.Collect$$rtentry$$0000000A)
    .ARM.Collect$$rtentry$$0000000C          0x1a00019e   Section        0  __rtentry2.o(.ARM.Collect$$rtentry$$0000000C)
    .ARM.Collect$$rtentry$$0000000D          0x1a00019e   Section        8  __rtentry2.o(.ARM.Collect$$rtentry$$0000000D)
    .ARM.Collect$$rtexit$$00000000           0x1a0001a6   Section        2  rtexit.o(.ARM.Collect$$rtexit$$00000000)
    .ARM.Collect$$rtexit$$00000002           0x1a0001a8   Section        0  rtexit2.o(.ARM.Collect$$rtexit$$00000002)
    .ARM.Collect$$rtexit$$00000003           0x1a0001a8   Section        4  rtexit2.o(.ARM.Collect$$rtexit$$00000003)
    .ARM.Collect$$rtexit$$00000004           0x1a0001ac   Section        6  rtexit2.o(.ARM.Collect$$rtexit$$00000004)
    .text                                    0x1a0001b4   Section        0  raw-os.o(.text)
    release_mutex                            0x1a0004b5   Thumb Code    88  raw-os.o(.text)
    tick_task_process                        0x1a0007ed   Thumb Code    28  raw-os.o(.text)
    pend_task_wake_up                        0x1a0009f1   Thumb Code    90  raw-os.o(.text)
    int_msg_handler                          0x1a000e1f   Thumb Code   116  raw-os.o(.text)
    task_0_post                              0x1a000e93   Thumb Code   120  raw-os.o(.text)
    task_0_tick_handler                      0x1a001045   Thumb Code    28  raw-os.o(.text)
    task_0_process                           0x1a001061   Thumb Code   124  raw-os.o(.text)
    internal_raw_mq_send                     0x1a001f5d   Thumb Code   214  raw-os.o(.text)
    is_list_empty                            0x1a002ba7   Thumb Code    14  raw-os.o(.text)
    list_insert                              0x1a002bb5   Thumb Code    14  raw-os.o(.text)
    list_delete                              0x1a002bc3   Thumb Code    12  raw-os.o(.text)
    add_to_priority_list                     0x1a002bcf   Thumb Code    28  raw-os.o(.text)
    bit_set                                  0x1a002beb   Thumb Code    20  raw-os.o(.text)
    timer_list_remove                        0x1a002bff   Thumb Code    22  raw-os.o(.text)
    timer_list_priority_insert               0x1a002c15   Thumb Code    32  raw-os.o(.text)
    raw_byte_pool_search                     0x1a002c35   Thumb Code   190  raw-os.o(.text)
    .text                                    0x1a002d04   Section        0  fifo.o(.text)
    internal_fifo_out_peek                   0x1a002da3   Thumb Code    62  fifo.o(.text)
    .text                                    0x1a002e78   Section      164  cpu.o(.text)
    $v0                                      0x1a002e78   Number         0  cpu.o(.text)
    .text                                    0x1a002f1c   Section        0  port.o(.text)
    .text                                    0x1a003060   Section        0  port_hook.o(.text)
    .text                                    0x1a003072   Section        0  user_extension.o(.text)
    .text                                    0x1a0030fc   Section       68  keil_startup_lpc18xx43xx.o(.text)
    $v0                                      0x1a0030fc   Number         0  keil_startup_lpc18xx43xx.o(.text)
    .text                                    0x1a003140   Section        0  sysinit.o(.text)
    .text                                    0x1a00315c   Section        0  lpc43xx_scu.o(.text)
    .text                                    0x1a003170   Section        0  lpc43xx_sdram.o(.text)
    .text                                    0x1a0035cc   Section        0  main.o(.text)
    ShowString                               0x1a0035cd   Thumb Code    60  main.o(.text)
    MakeString                               0x1a003801   Thumb Code    76  main.o(.text)
    EEPROM_Read                              0x1a00384d   Thumb Code    34  main.o(.text)
    .text                                    0x1a003998   Section        0  noretval__2printf.o(.text)
    .text                                    0x1a0039b0   Section        0  strncmp.o(.text)
    .text                                    0x1a003a46   Section       78  rt_memclr_w.o(.text)
    .text                                    0x1a003a94   Section       86  strncpy.o(.text)
    .text                                    0x1a003aea   Section        0  heapauxi.o(.text)
    .text                                    0x1a003af0   Section        0  _printf_char_file.o(.text)
    .text                                    0x1a003b14   Section       68  rt_memclr.o(.text)
    .text                                    0x1a003b58   Section        0  _printf_char_common.o(.text)
    _printf_input_char                       0x1a003b59   Thumb Code    10  _printf_char_common.o(.text)
    .text                                    0x1a003b88   Section       74  sys_stackheap_outer.o(.text)
    .text                                    0x1a003bd2   Section        0  __printf_nopercent.o(.text)
    .text                                    0x1a003bfa   Section        0  exit.o(.text)
    .text                                    0x1a003c08   Section        8  libspace.o(.text)
    i.Board_SetupClocking                    0x1a003c10   Section        0  board_sysinit.o(i.Board_SetupClocking)
    i.Board_SetupMuxing                      0x1a003cc4   Section        0  board_sysinit.o(i.Board_SetupMuxing)
    i.Board_SystemInit                       0x1a003d10   Section        0  board_sysinit.o(i.Board_SystemInit)
    i.Board_UARTGetChar                      0x1a003d1c   Section        0  board.o(i.Board_UARTGetChar)
    i.Board_UARTPutChar                      0x1a003d3c   Section        0  board.o(i.Board_UARTPutChar)
    i.Board_UARTPutSTR                       0x1a003d5c   Section        0  board.o(i.Board_UARTPutSTR)
    i.Board_UART_Init                        0x1a003d74   Section        0  board.o(i.Board_UART_Init)
    i.Chip_Clock_EnableOpts                  0x1a003db8   Section        0  clock_18xx_43xx.o(i.Chip_Clock_EnableOpts)
    i.Chip_Clock_FindBaseClock               0x1a003df4   Section        0  clock_18xx_43xx.o(i.Chip_Clock_FindBaseClock)
    Chip_Clock_FindBaseClock                 0x1a003df5   Thumb Code    74  clock_18xx_43xx.o(i.Chip_Clock_FindBaseClock)
    i.Chip_Clock_GetBaseClock                0x1a003e44   Section        0  clock_18xx_43xx.o(i.Chip_Clock_GetBaseClock)
    i.Chip_Clock_GetBaseClocktHz             0x1a003e68   Section        0  clock_18xx_43xx.o(i.Chip_Clock_GetBaseClocktHz)
    i.Chip_Clock_GetClockInputHz             0x1a003e7c   Section        0  clock_18xx_43xx.o(i.Chip_Clock_GetClockInputHz)
    i.Chip_Clock_GetDivRate                  0x1a003f50   Section        0  clock_18xx_43xx.o(i.Chip_Clock_GetDivRate)
    Chip_Clock_GetDivRate                    0x1a003f51   Thumb Code    40  clock_18xx_43xx.o(i.Chip_Clock_GetDivRate)
    i.Chip_Clock_GetDividerDivisor           0x1a003f78   Section        0  clock_18xx_43xx.o(i.Chip_Clock_GetDividerDivisor)
    i.Chip_Clock_GetDividerSource            0x1a003f98   Section        0  clock_18xx_43xx.o(i.Chip_Clock_GetDividerSource)
    i.Chip_Clock_GetMainPLLHz                0x1a003fb8   Section        0  clock_18xx_43xx.o(i.Chip_Clock_GetMainPLLHz)
    i.Chip_Clock_GetRate                     0x1a004030   Section        0  clock_18xx_43xx.o(i.Chip_Clock_GetRate)
    i.Chip_Clock_SetBaseClock                0x1a004088   Section        0  clock_18xx_43xx.o(i.Chip_Clock_SetBaseClock)
    i.Chip_Clock_SetDivider                  0x1a0040d0   Section        0  clock_18xx_43xx.o(i.Chip_Clock_SetDivider)
    i.Chip_EEPROM_ClearIntStatus             0x1a004120   Section        0  eeprom_18xx_43xx.o(i.Chip_EEPROM_ClearIntStatus)
    Chip_EEPROM_ClearIntStatus               0x1a004121   Thumb Code     6  eeprom_18xx_43xx.o(i.Chip_EEPROM_ClearIntStatus)
    i.Chip_EEPROM_Init                       0x1a004126   Section        0  eeprom_18xx_43xx.o(i.Chip_EEPROM_Init)
    i.Chip_EEPROM_WaitForIntStatus           0x1a00414c   Section        0  eeprom_18xx_43xx.o(i.Chip_EEPROM_WaitForIntStatus)
    i.Chip_SCU_PinMuxSet                     0x1a004174   Section        0  board.o(i.Chip_SCU_PinMuxSet)
    Chip_SCU_PinMuxSet                       0x1a004175   Thumb Code    12  board.o(i.Chip_SCU_PinMuxSet)
    i.Chip_SCU_SetPinMuxing                  0x1a004184   Section        0  board_sysinit.o(i.Chip_SCU_SetPinMuxing)
    Chip_SCU_SetPinMuxing                    0x1a004185   Thumb Code    44  board_sysinit.o(i.Chip_SCU_SetPinMuxing)
    i.Chip_SetupCoreClock                    0x1a0041b4   Section        0  sysinit_18xx_43xx.o(i.Chip_SetupCoreClock)
    i.Chip_UART_DisableDivisorAccess         0x1a0041c2   Section        0  uart_18xx_43xx.o(i.Chip_UART_DisableDivisorAccess)
    Chip_UART_DisableDivisorAccess           0x1a0041c3   Thumb Code    10  uart_18xx_43xx.o(i.Chip_UART_DisableDivisorAccess)
    i.Chip_UART_EnableDivisorAccess          0x1a0041cc   Section        0  uart_18xx_43xx.o(i.Chip_UART_EnableDivisorAccess)
    Chip_UART_EnableDivisorAccess            0x1a0041cd   Thumb Code    10  uart_18xx_43xx.o(i.Chip_UART_EnableDivisorAccess)
    i.Chip_UART_GetClockIndex                0x1a0041d8   Section        0  uart_18xx_43xx.o(i.Chip_UART_GetClockIndex)
    Chip_UART_GetClockIndex                  0x1a0041d9   Thumb Code    36  uart_18xx_43xx.o(i.Chip_UART_GetClockIndex)
    i.Chip_UART_Init                         0x1a004208   Section        0  uart_18xx_43xx.o(i.Chip_UART_Init)
    i.Chip_UART_SetBaud                      0x1a004254   Section        0  uart_18xx_43xx.o(i.Chip_UART_SetBaud)
    i.Chip_UART_SetDivisorLatches            0x1a004296   Section        0  uart_18xx_43xx.o(i.Chip_UART_SetDivisorLatches)
    Chip_UART_SetDivisorLatches              0x1a004297   Thumb Code     6  uart_18xx_43xx.o(i.Chip_UART_SetDivisorLatches)
    i.SystemCoreClockUpdate                  0x1a00429c   Section        0  chip_18xx_43xx.o(i.SystemCoreClockUpdate)
    i._sys_exit                              0x1a0042b0   Section        0  board.o(i._sys_exit)
    i.clock_init_delay                       0x1a0042b6   Section        0  sysinit_18xx_43xx.o(i.clock_init_delay)
    clock_init_delay                         0x1a0042b7   Thumb Code    36  sysinit_18xx_43xx.o(i.clock_init_delay)
    i.clock_main_init                        0x1a0042dc   Section        0  sysinit_18xx_43xx.o(i.clock_main_init)
    clock_main_init                          0x1a0042dd   Thumb Code   168  sysinit_18xx_43xx.o(i.clock_main_init)
    i.ferror                                 0x1a004398   Section        0  board.o(i.ferror)
    i.fpuInit                                0x1a0043a0   Section        0  fpu_init.o(i.fpuInit)
    i.fputc                                  0x1a0043f0   Section        0  board.o(i.fputc)
    i.setClkDiv                              0x1a004404   Section        0  eeprom_18xx_43xx.o(i.setClkDiv)
    setClkDiv                                0x1a004405   Thumb Code    24  eeprom_18xx_43xx.o(i.setClkDiv)
    x$fpl$fpinit                             0x1a004420   Section       10  fpinit.o(x$fpl$fpinit)
    $v0                                      0x1a004420   Number         0  fpinit.o(x$fpl$fpinit)
    .constdata                               0x1a00442c   Section       64  board.o(.constdata)
    ledports                                 0x1a00442c   Data           8  board.o(.constdata)
    ledbits                                  0x1a004434   Data           8  board.o(.constdata)
    .constdata                               0x1a00446c   Section      700  board_sysinit.o(.constdata)
    InitClkStates                            0x1a00446c   Data          16  board_sysinit.o(.constdata)
    spifipinmuxing                           0x1a00447c   Data          24  board_sysinit.o(.constdata)
    pinmuxing                                0x1a004494   Data         496  board_sysinit.o(.constdata)
    pinclockmuxing                           0x1a004684   Data          16  board_sysinit.o(.constdata)
    MT48LC4M32_config                        0x1a004694   Data         116  board_sysinit.o(.constdata)
    S29GL64N90_config                        0x1a004708   Data          32  board_sysinit.o(.constdata)
    .constdata                               0x1a004728   Section      108  clock_18xx_43xx.o(.constdata)
    periph_to_base                           0x1a004728   Data         108  clock_18xx_43xx.o(.constdata)
    .constdata                               0x1a004794   Section       72  sysinit_18xx_43xx.o(.constdata)
    InitClkStates                            0x1a004794   Data          72  sysinit_18xx_43xx.o(.constdata)

    Global Symbols

    Symbol Name                              Value     Ov Type        Size  Object(Section)

    BuildAttributes$$THM_ISAv4$E$P$D$K$B$S$7EM$VFPi3$EXTD16$VFPS$VFMA$PE$A:L22UL41UL21$X:L11$S22US41US21$IEEE1$IW$USESV6$~STKCKD$USESV7$~SHL$OSPACE$ROPI$EBA8$UX$STANDARDLIB$REQ8$PRES8$EABIv2 0x00000000   Number         0  anon$$obj.o ABSOLUTE
    __ARM_use_no_argv                        0x00000000   Number         0  main.o ABSOLUTE
    __ARM_exceptions_init                     - Undefined Weak Reference
    __alloca_initialize                       - Undefined Weak Reference
    __arm_preinit_                            - Undefined Weak Reference
    __cpp_initialize__aeabi_                  - Undefined Weak Reference
    __cxa_finalize                            - Undefined Weak Reference
    __rt_locale                               - Undefined Weak Reference
    __sigvec_lookup                           - Undefined Weak Reference
    _atexit_init                              - Undefined Weak Reference
    _call_atexit_fns                          - Undefined Weak Reference
    _clock_init                               - Undefined Weak Reference
    _fp_trap_init                             - Undefined Weak Reference
    _fp_trap_shutdown                         - Undefined Weak Reference
    _get_lc_collate                           - Undefined Weak Reference
    _get_lc_ctype                             - Undefined Weak Reference
    _get_lc_monetary                          - Undefined Weak Reference
    _get_lc_numeric                           - Undefined Weak Reference
    _get_lc_time                              - Undefined Weak Reference
    _getenv_init                              - Undefined Weak Reference
    _handle_redirection                       - Undefined Weak Reference
    _init_alloc                               - Undefined Weak Reference
    _init_user_alloc                          - Undefined Weak Reference
    _initio                                   - Undefined Weak Reference
    _rand_init                                - Undefined Weak Reference
    _signal_finish                            - Undefined Weak Reference
    _signal_init                              - Undefined Weak Reference
    _terminate_alloc                          - Undefined Weak Reference
    _terminate_user_alloc                     - Undefined Weak Reference
    _terminateio                              - Undefined Weak Reference
    raw_os_active                            0x10000000   Data           1  raw-os.o(.data)
    idle_task_exit                           0x10000001   Data           1  raw-os.o(.data)
    raw_sched_lock                           0x10000002   Data           1  raw-os.o(.data)
    raw_int_nesting                          0x10000003   Data           1  raw-os.o(.data)
    mutex_recursion_levels                   0x10000004   Data           1  raw-os.o(.data)
    mutex_recursion_max_levels               0x10000005   Data           1  raw-os.o(.data)
    task_0_exit                              0x10000006   Data           1  raw-os.o(.data)
    task_0_event_head                        0x10000008   Data           2  raw-os.o(.data)
    task_0_event_end                         0x1000000a   Data           2  raw-os.o(.data)
    task_0_events                            0x1000000c   Data           2  raw-os.o(.data)
    peak_events                              0x1000000e   Data           2  raw-os.o(.data)
    high_ready_obj                           0x10000010   Data           4  raw-os.o(.data)
    raw_task_active                          0x10000014   Data           4  raw-os.o(.data)
    raw_tick_count                           0x10000018   Data           4  raw-os.o(.data)
    raw_timer_count                          0x1000001c   Data           4  raw-os.o(.data)
    raw_timer_ctrl                           0x10000020   Data           4  raw-os.o(.data)
    task_0_event_handler                     0x10000024   Data           4  raw-os.o(.data)
    free_object_int_msg                      0x10000028   Data           4  raw-os.o(.data)
    int_msg_full                             0x1000002c   Data           4  raw-os.o(.data)
    msg_event_handler                        0x10000030   Data           4  raw-os.o(.data)
    raw_idle_count                           0x10000038   Data           8  raw-os.o(.data)
    tick_head                                0x10000040   Data           8  raw-os.o(.data)
    timer_head                               0x10000048   Data           8  raw-os.o(.data)
    raw_task_debug                           0x10000050   Data           8  raw-os.o(.data)
    __stdout                                 0x10000058   Data           4  board.o(.data)
    __stdin                                  0x1000005c   Data           4  board.o(.data)
    __stderr                                 0x10000060   Data           4  board.o(.data)
    g_isPenDn                                0x10000064   Data           4  board.o(.data)
    g_isNewPenDn                             0x10000068   Data           4  board.o(.data)
    SystemCoreClock                          0x1000006c   Data           4  chip_18xx_43xx.o(.data)
    raw_ready_queue                          0x10000078   Data         508  raw-os.o(.bss)
    raw_idle_obj                             0x10000274   Data          92  raw-os.o(.bss)
    idle_stack                               0x100002d0   Data         400  raw-os.o(.bss)
    raw_timer_obj                            0x10000460   Data          92  raw-os.o(.bss)
    timer_task_stack                         0x100004bc   Data         800  raw-os.o(.bss)
    timer_sem                                0x100007dc   Data          24  raw-os.o(.bss)
    timer_mutex                              0x100007f4   Data          28  raw-os.o(.bss)
    task_0_events_queue                      0x10000810   Data         384  raw-os.o(.bss)
    raw_task_0_obj                           0x10000990   Data          92  raw-os.o(.bss)
    task_0_stack                             0x100009ec   Data        1024  raw-os.o(.bss)
    object_int_msg                           0x10000dec   Data         480  raw-os.o(.bss)
    tick_task_obj                            0x10000fcc   Data          92  raw-os.o(.bss)
    tick_task_stack                          0x10001028   Data         800  raw-os.o(.bss)
    tick_semaphore_obj                       0x10001348   Data          24  raw-os.o(.bss)
    shell_task_stack                         0x10001360   Data        1600  main.o(.bss)
    shell_task_obj                           0x100019a0   Data          92  main.o(.bss)
    uart_sema                                0x100019fc   Data          24  main.o(.bss)
    uart_fifo                                0x10001a14   Data          24  main.o(.bss)
    buffer                                   0x10001a2c   Data         128  main.o(.bss)
    __libspace_start                         0x10001b2c   Data          96  libspace.o(.bss)
    __temporary_stack_top$libspace           0x10001b8c   Data           0  libspace.o(.bss)
    __Vectors                                0x1a000000   Data           4  keil_startup_lpc18xx43xx.o(RESET)
    __main                                   0x1a000115   Thumb Code     8  __main.o(!!!main)
    __scatterload                            0x1a00011d   Thumb Code     0  __scatter.o(!!!scatter)
    __scatterload_rt2                        0x1a00011d   Thumb Code    44  __scatter.o(!!!scatter)
    __scatterload_rt2_thumb_only             0x1a00011d   Thumb Code     0  __scatter.o(!!!scatter)
    __scatterload_null                       0x1a00012b   Thumb Code     0  __scatter.o(!!!scatter)
    __scatterload_copy                       0x1a000151   Thumb Code    26  __scatter_copy.o(!!handler_copy)
    __scatterload_zeroinit                   0x1a00016d   Thumb Code    28  __scatter_zi.o(!!handler_zi)
    __rt_lib_init                            0x1a000189   Thumb Code     0  libinit.o(.ARM.Collect$$libinit$$00000000)
    __rt_lib_init_fp_1                       0x1a00018b   Thumb Code     0  libinit2.o(.ARM.Collect$$libinit$$00000001)
    __rt_lib_init_alloca_1                   0x1a00018f   Thumb Code     0  libinit2.o(.ARM.Collect$$libinit$$0000002E)
    __rt_lib_init_argv_1                     0x1a00018f   Thumb Code     0  libinit2.o(.ARM.Collect$$libinit$$0000002C)
    __rt_lib_init_atexit_1                   0x1a00018f   Thumb Code     0  libinit2.o(.ARM.Collect$$libinit$$0000001B)
    __rt_lib_init_clock_1                    0x1a00018f   Thumb Code     0  libinit2.o(.ARM.Collect$$libinit$$00000021)
    __rt_lib_init_cpp_1                      0x1a00018f   Thumb Code     0  libinit2.o(.ARM.Collect$$libinit$$00000032)
    __rt_lib_init_exceptions_1               0x1a00018f   Thumb Code     0  libinit2.o(.ARM.Collect$$libinit$$00000030)
    __rt_lib_init_fp_trap_1                  0x1a00018f   Thumb Code     0  libinit2.o(.ARM.Collect$$libinit$$0000001F)
    __rt_lib_init_getenv_1                   0x1a00018f   Thumb Code     0  libinit2.o(.ARM.Collect$$libinit$$00000023)
    __rt_lib_init_heap_1                     0x1a00018f   Thumb Code     0  libinit2.o(.ARM.Collect$$libinit$$0000000A)
    __rt_lib_init_lc_collate_1               0x1a00018f   Thumb Code     0  libinit2.o(.ARM.Collect$$libinit$$00000011)
    __rt_lib_init_lc_ctype_1                 0x1a00018f   Thumb Code     0  libinit2.o(.ARM.Collect$$libinit$$00000013)
    __rt_lib_init_lc_monetary_1              0x1a00018f   Thumb Code     0  libinit2.o(.ARM.Collect$$libinit$$00000015)
    __rt_lib_init_lc_numeric_1               0x1a00018f   Thumb Code     0  libinit2.o(.ARM.Collect$$libinit$$00000017)
    __rt_lib_init_lc_time_1                  0x1a00018f   Thumb Code     0  libinit2.o(.ARM.Collect$$libinit$$00000019)
    __rt_lib_init_preinit_1                  0x1a00018f   Thumb Code     0  libinit2.o(.ARM.Collect$$libinit$$00000004)
    __rt_lib_init_rand_1                     0x1a00018f   Thumb Code     0  libinit2.o(.ARM.Collect$$libinit$$0000000E)
    __rt_lib_init_return                     0x1a00018f   Thumb Code     0  libinit2.o(.ARM.Collect$$libinit$$00000033)
    __rt_lib_init_signal_1                   0x1a00018f   Thumb Code     0  libinit2.o(.ARM.Collect$$libinit$$0000001D)
    __rt_lib_init_stdio_1                    0x1a00018f   Thumb Code     0  libinit2.o(.ARM.Collect$$libinit$$00000025)
    __rt_lib_init_user_alloc_1               0x1a00018f   Thumb Code     0  libinit2.o(.ARM.Collect$$libinit$$0000000C)
    __rt_lib_shutdown                        0x1a000191   Thumb Code     0  libshutdown.o(.ARM.Collect$$libshutdown$$00000000)
    __rt_lib_shutdown_fp_trap_1              0x1a000193   Thumb Code     0  libshutdown2.o(.ARM.Collect$$libshutdown$$00000006)
    __rt_lib_shutdown_heap_1                 0x1a000193   Thumb Code     0  libshutdown2.o(.ARM.Collect$$libshutdown$$0000000E)
    __rt_lib_shutdown_return                 0x1a000193   Thumb Code     0  libshutdown2.o(.ARM.Collect$$libshutdown$$0000000F)
    __rt_lib_shutdown_signal_1               0x1a000193   Thumb Code     0  libshutdown2.o(.ARM.Collect$$libshutdown$$00000009)
    __rt_lib_shutdown_stdio_1                0x1a000193   Thumb Code     0  libshutdown2.o(.ARM.Collect$$libshutdown$$00000003)
    __rt_lib_shutdown_user_alloc_1           0x1a000193   Thumb Code     0  libshutdown2.o(.ARM.Collect$$libshutdown$$0000000B)
    __rt_entry                               0x1a000195   Thumb Code     0  __rtentry.o(.ARM.Collect$$rtentry$$00000000)
    __rt_entry_presh_1                       0x1a000195   Thumb Code     0  __rtentry2.o(.ARM.Collect$$rtentry$$00000002)
    __rt_entry_sh                            0x1a000195   Thumb Code     0  __rtentry4.o(.ARM.Collect$$rtentry$$00000004)
    __rt_entry_li                            0x1a00019b   Thumb Code     0  __rtentry2.o(.ARM.Collect$$rtentry$$0000000A)
    __rt_entry_postsh_1                      0x1a00019b   Thumb Code     0  __rtentry2.o(.ARM.Collect$$rtentry$$00000009)
    __rt_entry_main                          0x1a00019f   Thumb Code     0  __rtentry2.o(.ARM.Collect$$rtentry$$0000000D)
    __rt_entry_postli_1                      0x1a00019f   Thumb Code     0  __rtentry2.o(.ARM.Collect$$rtentry$$0000000C)
    __rt_exit                                0x1a0001a7   Thumb Code     0  rtexit.o(.ARM.Collect$$rtexit$$00000000)
    __rt_exit_ls                             0x1a0001a9   Thumb Code     0  rtexit2.o(.ARM.Collect$$rtexit$$00000003)
    __rt_exit_prels_1                        0x1a0001a9   Thumb Code     0  rtexit2.o(.ARM.Collect$$rtexit$$00000002)
    __rt_exit_exit                           0x1a0001ad   Thumb Code     0  rtexit2.o(.ARM.Collect$$rtexit$$00000004)
    get_ready_task                           0x1a0001b5   Thumb Code    24  raw-os.o(.text)
    raw_sched                                0x1a0001cd   Thumb Code    48  raw-os.o(.text)
    raw_semaphore_create                     0x1a0001fd   Thumb Code    36  raw-os.o(.text)
    raw_task_semaphore_create                0x1a000221   Thumb Code    16  raw-os.o(.text)
    hybrid_int_process                       0x1a000231   Thumb Code   134  raw-os.o(.text)
    tick_list_remove                         0x1a0002b7   Thumb Code    24  raw-os.o(.text)
    mtx_chg_pri                              0x1a0002cf   Thumb Code    76  raw-os.o(.text)
    change_pend_list_priority                0x1a00031b   Thumb Code    32  raw-os.o(.text)
    add_ready_list_end                       0x1a00033b   Thumb Code    38  raw-os.o(.text)
    add_ready_list_head                      0x1a000361   Thumb Code    38  raw-os.o(.text)
    bit_search_first_one                     0x1a000387   Thumb Code   116  raw-os.o(.text)
    remove_ready_list                        0x1a0003fb   Thumb Code    96  raw-os.o(.text)
    change_internal_task_priority            0x1a00045b   Thumb Code    90  raw-os.o(.text)
    mutex_state_change                       0x1a00050d   Thumb Code    32  raw-os.o(.text)
    add_ready_list                           0x1a00052d   Thumb Code    16  raw-os.o(.text)
    tick_list_update                         0x1a00053d   Thumb Code   254  raw-os.o(.text)
    block_state_post_process                 0x1a00063b   Thumb Code    64  raw-os.o(.text)
    tick_list_insert                         0x1a00067b   Thumb Code    56  raw-os.o(.text)
    raw_pend_object                          0x1a0006b3   Thumb Code    90  raw-os.o(.text)
    raw_semaphore_get                        0x1a00070d   Thumb Code   214  raw-os.o(.text)
    raw_task_semaphore_get                   0x1a0007e3   Thumb Code    10  raw-os.o(.text)
    raw_task_create                          0x1a000809   Thumb Code   434  raw-os.o(.text)
    tick_task_start                          0x1a0009bb   Thumb Code    54  raw-os.o(.text)
    wake_send_msg                            0x1a000a4b   Thumb Code     4  raw-os.o(.text)
    msg_post                                 0x1a000a4f   Thumb Code   278  raw-os.o(.text)
    raw_wake_object                          0x1a000b65   Thumb Code     2  raw-os.o(.text)
    semaphore_put                            0x1a000b67   Thumb Code   208  raw-os.o(.text)
    task_resume                              0x1a000c37   Thumb Code   210  raw-os.o(.text)
    task_suspend                             0x1a000d09   Thumb Code   278  raw-os.o(.text)
    raw_task_0_post                          0x1a000f0b   Thumb Code     4  raw-os.o(.text)
    int_msg_post                             0x1a000f0f   Thumb Code   100  raw-os.o(.text)
    raw_semaphore_put                        0x1a000f73   Thumb Code    46  raw-os.o(.text)
    call_timer_task                          0x1a000fa1   Thumb Code    22  raw-os.o(.text)
    move_to_ready_list_end                   0x1a000fb7   Thumb Code    30  raw-os.o(.text)
    calculate_time_slice                     0x1a000fd5   Thumb Code   108  raw-os.o(.text)
    raw_task_semaphore_put                   0x1a001041   Thumb Code     4  raw-os.o(.text)
    raw_task_0_init                          0x1a0010dd   Thumb Code    92  raw-os.o(.text)
    raw_mutex_create                         0x1a001139   Thumb Code    60  raw-os.o(.text)
    raw_mutex_put                            0x1a001175   Thumb Code   328  raw-os.o(.text)
    raw_mutex_get                            0x1a0012bd   Thumb Code   350  raw-os.o(.text)
    raw_semaphore_set                        0x1a00141b   Thumb Code   146  raw-os.o(.text)
    timer_task                               0x1a0014ad   Thumb Code   166  raw-os.o(.text)
    raw_timer_init                           0x1a001553   Thumb Code    66  raw-os.o(.text)
    raw_idle_task                            0x1a001595   Thumb Code    30  raw-os.o(.text)
    tick_list_init                           0x1a0015b3   Thumb Code    10  raw-os.o(.text)
    run_queue_init                           0x1a0015bd   Thumb Code    26  raw-os.o(.text)
    raw_os_init                              0x1a0015d7   Thumb Code   102  raw-os.o(.text)
    raw_os_start                             0x1a00163d   Thumb Code    36  raw-os.o(.text)
    wake_send_msg_size                       0x1a001661   Thumb Code     8  raw-os.o(.text)
    delete_pend_obj                          0x1a001669   Thumb Code   166  raw-os.o(.text)
    raw_task_stack_check                     0x1a00170f   Thumb Code    32  raw-os.o(.text)
    raw_disable_sche                         0x1a00172f   Thumb Code    40  raw-os.o(.text)
    raw_enable_sche                          0x1a001757   Thumb Code    54  raw-os.o(.text)
    raw_sleep                                0x1a00178d   Thumb Code   134  raw-os.o(.text)
    raw_time_sleep                           0x1a001813   Thumb Code    86  raw-os.o(.text)
    raw_task_suspend                         0x1a001869   Thumb Code    54  raw-os.o(.text)
    raw_task_resume                          0x1a00189f   Thumb Code    46  raw-os.o(.text)
    chg_pri_mutex                            0x1a0018cd   Thumb Code   114  raw-os.o(.text)
    raw_task_priority_change                 0x1a00193f   Thumb Code   162  raw-os.o(.text)
    raw_task_free_mutex                      0x1a0019e1   Thumb Code    66  raw-os.o(.text)
    raw_task_delete                          0x1a001a23   Thumb Code   234  raw-os.o(.text)
    raw_set_task_user_point                  0x1a001b0d   Thumb Code    26  raw-os.o(.text)
    raw_get_task_user_point                  0x1a001b27   Thumb Code     8  raw-os.o(.text)
    raw_task_time_slice_change               0x1a001b2f   Thumb Code    80  raw-os.o(.text)
    raw_set_sched_way                        0x1a001b7f   Thumb Code    80  raw-os.o(.text)
    raw_get_sched_way                        0x1a001bcf   Thumb Code    72  raw-os.o(.text)
    raw_task_wait_abort                      0x1a001c17   Thumb Code   206  raw-os.o(.text)
    raw_task_identify                        0x1a001ce5   Thumb Code     6  raw-os.o(.text)
    raw_iter_block_task                      0x1a001ceb   Thumb Code   102  raw-os.o(.text)
    raw_get_system_global_space              0x1a001d51   Thumb Code     6  raw-os.o(.text)
    task_0_tick_post                         0x1a001d57   Thumb Code    16  raw-os.o(.text)
    raw_task_0_front_post                    0x1a001d67   Thumb Code     6  raw-os.o(.text)
    raw_block_pool_create                    0x1a001d6d   Thumb Code    98  raw-os.o(.text)
    raw_block_allocate                       0x1a001dcf   Thumb Code    70  raw-os.o(.text)
    raw_block_release                        0x1a001e15   Thumb Code    48  raw-os.o(.text)
    raw_byte_pool_create                     0x1a001e45   Thumb Code    78  raw-os.o(.text)
    raw_byte_allocate                        0x1a001e93   Thumb Code    90  raw-os.o(.text)
    raw_byte_release                         0x1a001eed   Thumb Code    76  raw-os.o(.text)
    raw_mq_init                              0x1a001f39   Thumb Code    36  raw-os.o(.text)
    raw_mq_send                              0x1a002033   Thumb Code     2  raw-os.o(.text)
    raw_mq_receive                           0x1a002035   Thumb Code   298  raw-os.o(.text)
    raw_mqueue_flush                         0x1a00215f   Thumb Code    78  raw-os.o(.text)
    raw_mqueue_delete                        0x1a0021ad   Thumb Code   102  raw-os.o(.text)
    raw_mqueue_get_information               0x1a002213   Thumb Code    52  raw-os.o(.text)
    raw_mutex_delete                         0x1a002247   Thumb Code   130  raw-os.o(.text)
    raw_queue_create                         0x1a0022c9   Thumb Code    58  raw-os.o(.text)
    raw_queue_front_post                     0x1a002303   Thumb Code    58  raw-os.o(.text)
    raw_queue_end_post                       0x1a00233d   Thumb Code    62  raw-os.o(.text)
    raw_queue_post_notify                    0x1a00237b   Thumb Code    54  raw-os.o(.text)
    raw_queue_all_post                       0x1a0023b1   Thumb Code    50  raw-os.o(.text)
    raw_queue_send_notify                    0x1a0023e3   Thumb Code   104  raw-os.o(.text)
    raw_queue_receive                        0x1a00244b   Thumb Code   270  raw-os.o(.text)
    raw_queue_full_check                     0x1a002559   Thumb Code   114  raw-os.o(.text)
    raw_queue_flush                          0x1a0025cb   Thumb Code   110  raw-os.o(.text)
    raw_queue_delete                         0x1a002639   Thumb Code   128  raw-os.o(.text)
    raw_queue_get_information                0x1a0026b9   Thumb Code   140  raw-os.o(.text)
    raw_semaphore_put_notify                 0x1a002745   Thumb Code    52  raw-os.o(.text)
    raw_semaphore_put_all                    0x1a002779   Thumb Code    44  raw-os.o(.text)
    raw_semphore_send_notify                 0x1a0027a5   Thumb Code   104  raw-os.o(.text)
    raw_semaphore_delete                     0x1a00280d   Thumb Code   128  raw-os.o(.text)
    raw_stack_check                          0x1a00288d   Thumb Code    56  raw-os.o(.text)
    raw_finish_int                           0x1a0028c5   Thumb Code    56  raw-os.o(.text)
    raw_time_tick                            0x1a0028fd   Thumb Code    54  raw-os.o(.text)
    raw_enter_interrupt                      0x1a002933   Thumb Code    34  raw-os.o(.text)
    raw_system_time_get                      0x1a002955   Thumb Code     6  raw-os.o(.text)
    raw_system_time_set                      0x1a00295b   Thumb Code    60  raw-os.o(.text)
    raw_task_semaphore_set                   0x1a002997   Thumb Code     6  raw-os.o(.text)
    raw_task_semaphore_delete                0x1a00299d   Thumb Code     4  raw-os.o(.text)
    raw_timer_activate                       0x1a0029a1   Thumb Code   118  raw-os.o(.text)
    raw_timer_create                         0x1a002a17   Thumb Code    88  raw-os.o(.text)
    raw_timer_change                         0x1a002a6f   Thumb Code    92  raw-os.o(.text)
    raw_timer_deactivate                     0x1a002acb   Thumb Code   100  raw-os.o(.text)
    raw_timer_delete                         0x1a002b2f   Thumb Code   120  raw-os.o(.text)
    fifo_init                                0x1a002d05   Thumb Code    66  fifo.o(.text)
    fifo_in                                  0x1a002d47   Thumb Code    92  fifo.o(.text)
    fifo_out_peek                            0x1a002de1   Thumb Code    38  fifo.o(.text)
    fifo_out                                 0x1a002e07   Thumb Code    50  fifo.o(.text)
    fifo_out_all                             0x1a002e39   Thumb Code    62  fifo.o(.text)
    OS_CPU_SR_Save                           0x1a002e79   Thumb Code     0  cpu.o(.text)
    OS_CPU_SR_Restore                        0x1a002e81   Thumb Code     0  cpu.o(.text)
    CPU_IntDis                               0x1a002e87   Thumb Code     0  cpu.o(.text)
    CPU_IntEn                                0x1a002e8b   Thumb Code     0  cpu.o(.text)
    raw_start_first_task                     0x1a002e8f   Thumb Code     0  cpu.o(.text)
    port_task_switch                         0x1a002eb7   Thumb Code     0  cpu.o(.text)
    raw_int_switch                           0x1a002ec1   Thumb Code     0  cpu.o(.text)
    PendSV_Handler                           0x1a002ecb   Thumb Code     0  cpu.o(.text)
    port_stack_init                          0x1a002f1d   Thumb Code   324  port.o(.text)
    raw_os_init_hook                         0x1a003061   Thumb Code     2  port_hook.o(.text)
    raw_task_delete_hook                     0x1a003063   Thumb Code     2  port_hook.o(.text)
    raw_task_abort_hook                      0x1a003065   Thumb Code     2  port_hook.o(.text)
    raw_idle_task_hook                       0x1a003067   Thumb Code     2  port_hook.o(.text)
    raw_task_switch_hook                     0x1a003069   Thumb Code     2  port_hook.o(.text)
    raw_tick_hook                            0x1a00306b   Thumb Code     2  port_hook.o(.text)
    task_create_hook                         0x1a00306d   Thumb Code     2  port_hook.o(.text)
    raw_idle_coroutine_hook                  0x1a00306f   Thumb Code     4  port_hook.o(.text)
    raw_memcpy                               0x1a003073   Thumb Code    74  user_extension.o(.text)
    raw_memset                               0x1a0030bd   Thumb Code    62  user_extension.o(.text)
    Reset_Handler                            0x1a0030fd   Thumb Code     8  keil_startup_lpc18xx43xx.o(.text)
    NMI_Handler                              0x1a003105   Thumb Code     2  keil_startup_lpc18xx43xx.o(.text)
    HardFault_Handler                        0x1a003107   Thumb Code     2  keil_startup_lpc18xx43xx.o(.text)
    MemManage_Handler                        0x1a003109   Thumb Code     2  keil_startup_lpc18xx43xx.o(.text)
    BusFault_Handler                         0x1a00310b   Thumb Code     2  keil_startup_lpc18xx43xx.o(.text)
    UsageFault_Handler                       0x1a00310d   Thumb Code     2  keil_startup_lpc18xx43xx.o(.text)
    SVC_Handler                              0x1a00310f   Thumb Code     2  keil_startup_lpc18xx43xx.o(.text)
    DebugMon_Handler                         0x1a003111   Thumb Code     2  keil_startup_lpc18xx43xx.o(.text)
    UnHandled_Vector                         0x1a003117   Thumb Code     2  keil_startup_lpc18xx43xx.o(.text)
    ADC0_IRQHandler                          0x1a003119   Thumb Code     0  keil_startup_lpc18xx43xx.o(.text)
    ADC1_IRQHandler                          0x1a003119   Thumb Code     0  keil_startup_lpc18xx43xx.o(.text)
    ADCHS_IRQHandler                         0x1a003119   Thumb Code     0  keil_startup_lpc18xx43xx.o(.text)
    ATIMER_IRQHandler                        0x1a003119   Thumb Code     0  keil_startup_lpc18xx43xx.o(.text)
    CAN0_IRQHandler                          0x1a003119   Thumb Code     0  keil_startup_lpc18xx43xx.o(.text)
    CAN1_IRQHandler                          0x1a003119   Thumb Code     0  keil_startup_lpc18xx43xx.o(.text)
    DAC_IRQHandler                           0x1a003119   Thumb Code     0  keil_startup_lpc18xx43xx.o(.text)
    DMA_IRQHandler                           0x1a003119   Thumb Code     0  keil_startup_lpc18xx43xx.o(.text)
    ETH_IRQHandler                           0x1a003119   Thumb Code     0  keil_startup_lpc18xx43xx.o(.text)
    EVRT_IRQHandler                          0x1a003119   Thumb Code     0  keil_startup_lpc18xx43xx.o(.text)
    FLASHEEPROM_IRQHandler                   0x1a003119   Thumb Code     0  keil_startup_lpc18xx43xx.o(.text)
    GINT0_IRQHandler                         0x1a003119   Thumb Code     0  keil_startup_lpc18xx43xx.o(.text)
    GINT1_IRQHandler                         0x1a003119   Thumb Code     0  keil_startup_lpc18xx43xx.o(.text)
    GPIO0_IRQHandler                         0x1a003119   Thumb Code     0  keil_startup_lpc18xx43xx.o(.text)
    GPIO1_IRQHandler                         0x1a003119   Thumb Code     0  keil_startup_lpc18xx43xx.o(.text)
    GPIO2_IRQHandler                         0x1a003119   Thumb Code     0  keil_startup_lpc18xx43xx.o(.text)
    GPIO3_IRQHandler                         0x1a003119   Thumb Code     0  keil_startup_lpc18xx43xx.o(.text)
    GPIO4_IRQHandler                         0x1a003119   Thumb Code     0  keil_startup_lpc18xx43xx.o(.text)
    GPIO5_IRQHandler                         0x1a003119   Thumb Code     0  keil_startup_lpc18xx43xx.o(.text)
    GPIO6_IRQHandler                         0x1a003119   Thumb Code     0  keil_startup_lpc18xx43xx.o(.text)
    GPIO7_IRQHandler                         0x1a003119   Thumb Code     0  keil_startup_lpc18xx43xx.o(.text)
    I2C0_IRQHandler                          0x1a003119   Thumb Code     0  keil_startup_lpc18xx43xx.o(.text)
    I2C1_IRQHandler                          0x1a003119   Thumb Code     0  keil_startup_lpc18xx43xx.o(.text)
    I2S0_IRQHandler                          0x1a003119   Thumb Code     0  keil_startup_lpc18xx43xx.o(.text)
    I2S1_IRQHandler                          0x1a003119   Thumb Code     0  keil_startup_lpc18xx43xx.o(.text)
    LCD_IRQHandler                           0x1a003119   Thumb Code     0  keil_startup_lpc18xx43xx.o(.text)
    MCPWM_IRQHandler                         0x1a003119   Thumb Code     0  keil_startup_lpc18xx43xx.o(.text)
    MX_CORE_IRQHandler                       0x1a003119   Thumb Code     0  keil_startup_lpc18xx43xx.o(.text)
    QEI_IRQHandler                           0x1a003119   Thumb Code     0  keil_startup_lpc18xx43xx.o(.text)
    RIT_IRQHandler                           0x1a003119   Thumb Code     0  keil_startup_lpc18xx43xx.o(.text)
    RTC_IRQHandler                           0x1a003119   Thumb Code     0  keil_startup_lpc18xx43xx.o(.text)
    SCT_IRQHandler                           0x1a003119   Thumb Code     0  keil_startup_lpc18xx43xx.o(.text)
    SDIO_IRQHandler                          0x1a003119   Thumb Code     0  keil_startup_lpc18xx43xx.o(.text)
    SGPIO_IRQHandler                         0x1a003119   Thumb Code     0  keil_startup_lpc18xx43xx.o(.text)
    SPIFI_IRQHandler                         0x1a003119   Thumb Code     0  keil_startup_lpc18xx43xx.o(.text)
    SPI_IRQHandler                           0x1a003119   Thumb Code     0  keil_startup_lpc18xx43xx.o(.text)
    SSP0_IRQHandler                          0x1a003119   Thumb Code     0  keil_startup_lpc18xx43xx.o(.text)
    SSP1_IRQHandler                          0x1a003119   Thumb Code     0  keil_startup_lpc18xx43xx.o(.text)
    TIMER0_IRQHandler                        0x1a003119   Thumb Code     0  keil_startup_lpc18xx43xx.o(.text)
    TIMER1_IRQHandler                        0x1a003119   Thumb Code     0  keil_startup_lpc18xx43xx.o(.text)
    TIMER2_IRQHandler                        0x1a003119   Thumb Code     0  keil_startup_lpc18xx43xx.o(.text)
    TIMER3_IRQHandler                        0x1a003119   Thumb Code     0  keil_startup_lpc18xx43xx.o(.text)
    UART0_IRQHandler                         0x1a003119   Thumb Code     0  keil_startup_lpc18xx43xx.o(.text)
    UART1_IRQHandler                         0x1a003119   Thumb Code     0  keil_startup_lpc18xx43xx.o(.text)
    UART2_IRQHandler                         0x1a003119   Thumb Code     0  keil_startup_lpc18xx43xx.o(.text)
    USB0_IRQHandler                          0x1a003119   Thumb Code     0  keil_startup_lpc18xx43xx.o(.text)
    USB1_IRQHandler                          0x1a003119   Thumb Code     0  keil_startup_lpc18xx43xx.o(.text)
    WDT_IRQHandler                           0x1a003119   Thumb Code     0  keil_startup_lpc18xx43xx.o(.text)
    __user_initial_stackheap                 0x1a00311d   Thumb Code     0  keil_startup_lpc18xx43xx.o(.text)
    SystemInit                               0x1a003141   Thumb Code    20  sysinit.o(.text)
    scu_pinmux                               0x1a00315d   Thumb Code    16  lpc43xx_scu.o(.text)
    emc_init                                 0x1a003171   Thumb Code   944  lpc43xx_sdram.o(.text)
    sdram_init                               0x1a003521   Thumb Code   144  lpc43xx_sdram.o(.text)
    SysTick_Handler                          0x1a003609   Thumb Code    18  main.o(.text)
    OS_CPU_SysTickInit                       0x1a00361b   Thumb Code    48  main.o(.text)
    uart_3_recv                              0x1a00364b   Thumb Code    76  main.o(.text)
    UART3_IRQHandler                         0x1a003697   Thumb Code    56  main.o(.text)
    shell_task                               0x1a0036cf   Thumb Code   250  main.o(.text)
    main                                     0x1a0037c9   Thumb Code    56  main.o(.text)
    __2printf                                0x1a003999   Thumb Code    20  noretval__2printf.o(.text)
    strncmp                                  0x1a0039b1   Thumb Code   150  strncmp.o(.text)
    __aeabi_memclr4                          0x1a003a47   Thumb Code     0  rt_memclr_w.o(.text)
    __aeabi_memclr8                          0x1a003a47   Thumb Code     0  rt_memclr_w.o(.text)
    __rt_memclr_w                            0x1a003a47   Thumb Code    78  rt_memclr_w.o(.text)
    _memset_w                                0x1a003a4b   Thumb Code     0  rt_memclr_w.o(.text)
    strncpy                                  0x1a003a95   Thumb Code    86  strncpy.o(.text)
    __use_two_region_memory                  0x1a003aeb   Thumb Code     2  heapauxi.o(.text)
    __rt_heap_escrow$2region                 0x1a003aed   Thumb Code     2  heapauxi.o(.text)
    __rt_heap_expand$2region                 0x1a003aef   Thumb Code     2  heapauxi.o(.text)
    _printf_char_file                        0x1a003af1   Thumb Code    32  _printf_char_file.o(.text)
    __aeabi_memclr                           0x1a003b15   Thumb Code     0  rt_memclr.o(.text)
    __rt_memclr                              0x1a003b15   Thumb Code    68  rt_memclr.o(.text)
    _memset                                  0x1a003b19   Thumb Code     0  rt_memclr.o(.text)
    _printf_char_common                      0x1a003b63   Thumb Code    32  _printf_char_common.o(.text)
    __user_setup_stackheap                   0x1a003b89   Thumb Code    74  sys_stackheap_outer.o(.text)
    __printf                                 0x1a003bd3   Thumb Code    40  __printf_nopercent.o(.text)
    exit                                     0x1a003bfb   Thumb Code    12  exit.o(.text)
    __user_libspace                          0x1a003c09   Thumb Code     8  libspace.o(.text)
    __user_perproc_libspace                  0x1a003c09   Thumb Code     0  libspace.o(.text)
    __user_perthread_libspace                0x1a003c09   Thumb Code     0  libspace.o(.text)
    Board_SetupClocking                      0x1a003c11   Thumb Code   158  board_sysinit.o(i.Board_SetupClocking)
    Board_SetupMuxing                        0x1a003cc5   Thumb Code    58  board_sysinit.o(i.Board_SetupMuxing)
    Board_SystemInit                         0x1a003d11   Thumb Code    12  board_sysinit.o(i.Board_SystemInit)
    Board_UARTGetChar                        0x1a003d1d   Thumb Code    28  board.o(i.Board_UARTGetChar)
    Board_UARTPutChar                        0x1a003d3d   Thumb Code    26  board.o(i.Board_UARTPutChar)
    Board_UARTPutSTR                         0x1a003d5d   Thumb Code    22  board.o(i.Board_UARTPutSTR)
    Board_UART_Init                          0x1a003d75   Thumb Code    60  board.o(i.Board_UART_Init)
    Chip_Clock_EnableOpts                    0x1a003db9   Thumb Code    52  clock_18xx_43xx.o(i.Chip_Clock_EnableOpts)
    Chip_Clock_GetBaseClock                  0x1a003e45   Thumb Code    32  clock_18xx_43xx.o(i.Chip_Clock_GetBaseClock)
    Chip_Clock_GetBaseClocktHz               0x1a003e69   Thumb Code    18  clock_18xx_43xx.o(i.Chip_Clock_GetBaseClocktHz)
    Chip_Clock_GetClockInputHz               0x1a003e7d   Thumb Code   182  clock_18xx_43xx.o(i.Chip_Clock_GetClockInputHz)
    Chip_Clock_GetDividerDivisor             0x1a003f79   Thumb Code    18  clock_18xx_43xx.o(i.Chip_Clock_GetDividerDivisor)
    Chip_Clock_GetDividerSource              0x1a003f99   Thumb Code    26  clock_18xx_43xx.o(i.Chip_Clock_GetDividerSource)
    Chip_Clock_GetMainPLLHz                  0x1a003fb9   Thumb Code   110  clock_18xx_43xx.o(i.Chip_Clock_GetMainPLLHz)
    Chip_Clock_GetRate                       0x1a004031   Thumb Code    78  clock_18xx_43xx.o(i.Chip_Clock_GetRate)
    Chip_Clock_SetBaseClock                  0x1a004089   Thumb Code    64  clock_18xx_43xx.o(i.Chip_Clock_SetBaseClock)
    Chip_Clock_SetDivider                    0x1a0040d1   Thumb Code    64  clock_18xx_43xx.o(i.Chip_Clock_SetDivider)
    Chip_EEPROM_Init                         0x1a004127   Thumb Code    38  eeprom_18xx_43xx.o(i.Chip_EEPROM_Init)
    Chip_EEPROM_WaitForIntStatus             0x1a00414d   Thumb Code    40  eeprom_18xx_43xx.o(i.Chip_EEPROM_WaitForIntStatus)
    Chip_SetupCoreClock                      0x1a0041b5   Thumb Code    14  sysinit_18xx_43xx.o(i.Chip_SetupCoreClock)
    Chip_UART_Init                           0x1a004209   Thumb Code    72  uart_18xx_43xx.o(i.Chip_UART_Init)
    Chip_UART_SetBaud                        0x1a004255   Thumb Code    66  uart_18xx_43xx.o(i.Chip_UART_SetBaud)
    SystemCoreClockUpdate                    0x1a00429d   Thumb Code    14  chip_18xx_43xx.o(i.SystemCoreClockUpdate)
    _sys_exit                                0x1a0042b1   Thumb Code     6  board.o(i._sys_exit)
    ferror                                   0x1a004399   Thumb Code     8  board.o(i.ferror)
    fpuInit                                  0x1a0043a1   Thumb Code    62  fpu_init.o(i.fpuInit)
    fputc                                    0x1a0043f1   Thumb Code    20  board.o(i.fputc)
    _fp_init                                 0x1a004421   Thumb Code    10  fpinit.o(x$fpl$fpinit)
    __fplib_config_fpu_vfp                   0x1a004429   Thumb Code     0  fpinit.o(x$fpl$fpinit)
    __fplib_config_pureend_doubles           0x1a004429   Thumb Code     0  fpinit.o(x$fpl$fpinit)
    ad_left                                  0x1a00443c   Data           4  board.o(.constdata)
    ad_top                                   0x1a004440   Data           4  board.o(.constdata)
    ad_right                                 0x1a004444   Data           4  board.o(.constdata)
    ad_bottom                                0x1a004448   Data           4  board.o(.constdata)
    MCB4300_LCD                              0x1a00444c   Data          22  board.o(.constdata)
    ExtRateIn                                0x1a004464   Data           4  board.o(.constdata)
    OscRateIn                                0x1a004468   Data           4  board.o(.constdata)
    Region$$Table$$Base                      0x1a0047dc   Number         0  anon$$obj.o(Region$$Table)
    Region$$Table$$Limit                     0x1a0047fc   Number         0  anon$$obj.o(Region$$Table)



==============================================================================

Memory Map of the image

  Image Entry point : 0x1a000115

  Load Region LR_IROM1 (Base: 0x1a000000, Size: 0x00004874, Max: 0x00080000, ABSOLUTE)

    Execution Region RW_IRAM1 (Base: 0x10000000, Size: 0x00002290, Max: 0x00008000, ABSOLUTE)

    Base Addr    Size         Type   Attr      Idx    E Section Name        Object

    0x10000000   0x00000058   Data   RW            3    .data               raw-os.o
    0x10000058   0x00000014   Data   RW          696    .data               lib_lpc_board_keil_mcb_4357.lib(board.o)
    0x1000006c   0x00000004   Data   RW         1218    .data               lib_lpc_chip_43xx.lib(chip_18xx_43xx.o)
    0x10000070   0x00000008   Data   RW         1779    .data               lib_lpc_chip_43xx.lib(clock_18xx_43xx.o)
    0x10000078   0x000012e8   Zero   RW            2    .bss                raw-os.o
    0x10001360   0x000007cc   Zero   RW          615    .bss                main.o
    0x10001b2c   0x00000060   Zero   RW         2682    .bss                c_w.l(libspace.o)
    0x10001b8c   0x00000004   PAD
    0x10001b90   0x00000100   Zero   RW          324    HEAP                keil_startup_lpc18xx43xx.o
    0x10001c90   0x00000600   Zero   RW          323    STACK               keil_startup_lpc18xx43xx.o


    Execution Region ER_IROM1 (Base: 0x1a000000, Size: 0x000047fc, Max: 0x00080000, ABSOLUTE)

    Base Addr    Size         Type   Attr      Idx    E Section Name        Object

    0x1a000000   0x00000114   Data   RO          325    RESET               keil_startup_lpc18xx43xx.o
    0x1a000114   0x00000008   Code   RO         2633  * !!!main             c_w.l(__main.o)
    0x1a00011c   0x00000034   Code   RO         2807    !!!scatter          c_w.l(__scatter.o)
    0x1a000150   0x0000001a   Code   RO         2809    !!handler_copy      c_w.l(__scatter_copy.o)
    0x1a00016a   0x00000002   PAD
    0x1a00016c   0x0000001c   Code   RO         2811    !!handler_zi        c_w.l(__scatter_zi.o)
    0x1a000188   0x00000002   Code   RO         2680    .ARM.Collect$$libinit$$00000000  c_w.l(libinit.o)
    0x1a00018a   0x00000004   Code   RO         2692    .ARM.Collect$$libinit$$00000001  c_w.l(libinit2.o)
    0x1a00018e   0x00000000   Code   RO         2695    .ARM.Collect$$libinit$$00000004  c_w.l(libinit2.o)
    0x1a00018e   0x00000000   Code   RO         2698    .ARM.Collect$$libinit$$0000000A  c_w.l(libinit2.o)
    0x1a00018e   0x00000000   Code   RO         2700    .ARM.Collect$$libinit$$0000000C  c_w.l(libinit2.o)
    0x1a00018e   0x00000000   Code   RO         2702    .ARM.Collect$$libinit$$0000000E  c_w.l(libinit2.o)
    0x1a00018e   0x00000000   Code   RO         2705    .ARM.Collect$$libinit$$00000011  c_w.l(libinit2.o)
    0x1a00018e   0x00000000   Code   RO         2707    .ARM.Collect$$libinit$$00000013  c_w.l(libinit2.o)
    0x1a00018e   0x00000000   Code   RO         2709    .ARM.Collect$$libinit$$00000015  c_w.l(libinit2.o)
    0x1a00018e   0x00000000   Code   RO         2711    .ARM.Collect$$libinit$$00000017  c_w.l(libinit2.o)
    0x1a00018e   0x00000000   Code   RO         2713    .ARM.Collect$$libinit$$00000019  c_w.l(libinit2.o)
    0x1a00018e   0x00000000   Code   RO         2715    .ARM.Collect$$libinit$$0000001B  c_w.l(libinit2.o)
    0x1a00018e   0x00000000   Code   RO         2717    .ARM.Collect$$libinit$$0000001D  c_w.l(libinit2.o)
    0x1a00018e   0x00000000   Code   RO         2719    .ARM.Collect$$libinit$$0000001F  c_w.l(libinit2.o)
    0x1a00018e   0x00000000   Code   RO         2721    .ARM.Collect$$libinit$$00000021  c_w.l(libinit2.o)
    0x1a00018e   0x00000000   Code   RO         2723    .ARM.Collect$$libinit$$00000023  c_w.l(libinit2.o)
    0x1a00018e   0x00000000   Code   RO         2725    .ARM.Collect$$libinit$$00000025  c_w.l(libinit2.o)
    0x1a00018e   0x00000000   Code   RO         2729    .ARM.Collect$$libinit$$0000002C  c_w.l(libinit2.o)
    0x1a00018e   0x00000000   Code   RO         2731    .ARM.Collect$$libinit$$0000002E  c_w.l(libinit2.o)
    0x1a00018e   0x00000000   Code   RO         2733    .ARM.Collect$$libinit$$00000030  c_w.l(libinit2.o)
    0x1a00018e   0x00000000   Code   RO         2735    .ARM.Collect$$libinit$$00000032  c_w.l(libinit2.o)
    0x1a00018e   0x00000002   Code   RO         2736    .ARM.Collect$$libinit$$00000033  c_w.l(libinit2.o)
    0x1a000190   0x00000002   Code   RO         2762    .ARM.Collect$$libshutdown$$00000000  c_w.l(libshutdown.o)
    0x1a000192   0x00000000   Code   RO         2792    .ARM.Collect$$libshutdown$$00000003  c_w.l(libshutdown2.o)
    0x1a000192   0x00000000   Code   RO         2795    .ARM.Collect$$libshutdown$$00000006  c_w.l(libshutdown2.o)
    0x1a000192   0x00000000   Code   RO         2798    .ARM.Collect$$libshutdown$$00000009  c_w.l(libshutdown2.o)
    0x1a000192   0x00000000   Code   RO         2800    .ARM.Collect$$libshutdown$$0000000B  c_w.l(libshutdown2.o)
    0x1a000192   0x00000000   Code   RO         2803    .ARM.Collect$$libshutdown$$0000000E  c_w.l(libshutdown2.o)
    0x1a000192   0x00000002   Code   RO         2804    .ARM.Collect$$libshutdown$$0000000F  c_w.l(libshutdown2.o)
    0x1a000194   0x00000000   Code   RO         2635    .ARM.Collect$$rtentry$$00000000  c_w.l(__rtentry.o)
    0x1a000194   0x00000000   Code   RO         2647    .ARM.Collect$$rtentry$$00000002  c_w.l(__rtentry2.o)
    0x1a000194   0x00000006   Code   RO         2659    .ARM.Collect$$rtentry$$00000004  c_w.l(__rtentry4.o)
    0x1a00019a   0x00000000   Code   RO         2649    .ARM.Collect$$rtentry$$00000009  c_w.l(__rtentry2.o)
    0x1a00019a   0x00000004   Code   RO         2650    .ARM.Collect$$rtentry$$0000000A  c_w.l(__rtentry2.o)
    0x1a00019e   0x00000000   Code   RO         2652    .ARM.Collect$$rtentry$$0000000C  c_w.l(__rtentry2.o)
    0x1a00019e   0x00000008   Code   RO         2653    .ARM.Collect$$rtentry$$0000000D  c_w.l(__rtentry2.o)
    0x1a0001a6   0x00000002   Code   RO         2684    .ARM.Collect$$rtexit$$00000000  c_w.l(rtexit.o)
    0x1a0001a8   0x00000000   Code   RO         2738    .ARM.Collect$$rtexit$$00000002  c_w.l(rtexit2.o)
    0x1a0001a8   0x00000004   Code   RO         2739    .ARM.Collect$$rtexit$$00000003  c_w.l(rtexit2.o)
    0x1a0001ac   0x00000006   Code   RO         2740    .ARM.Collect$$rtexit$$00000004  c_w.l(rtexit2.o)
    0x1a0001b2   0x00000002   PAD
    0x1a0001b4   0x00002b50   Code   RO            1    .text               raw-os.o
    0x1a002d04   0x00000172   Code   RO          183    .text               fifo.o
    0x1a002e76   0x00000002   PAD
    0x1a002e78   0x000000a4   Code   RO          277    .text               cpu.o
    0x1a002f1c   0x00000144   Code   RO          281    .text               port.o
    0x1a003060   0x00000012   Code   RO          293    .text               port_hook.o
    0x1a003072   0x00000088   Code   RO          311    .text               user_extension.o
    0x1a0030fa   0x00000002   PAD
    0x1a0030fc   0x00000044   Code   RO          326    .text               keil_startup_lpc18xx43xx.o
    0x1a003140   0x0000001c   Code   RO          332    .text               sysinit.o
    0x1a00315c   0x00000014   Code   RO          558    .text               lpc43xx_scu.o
    0x1a003170   0x0000045c   Code   RO          591    .text               lpc43xx_sdram.o
    0x1a0035cc   0x000003cc   Code   RO          614    .text               main.o
    0x1a003998   0x00000018   Code   RO         2621    .text               c_w.l(noretval__2printf.o)
    0x1a0039b0   0x00000096   Code   RO         2623    .text               c_w.l(strncmp.o)
    0x1a003a46   0x0000004e   Code   RO         2627    .text               c_w.l(rt_memclr_w.o)
    0x1a003a94   0x00000056   Code   RO         2629    .text               c_w.l(strncpy.o)
    0x1a003aea   0x00000006   Code   RO         2631    .text               c_w.l(heapauxi.o)
    0x1a003af0   0x00000024   Code   RO         2640    .text               c_w.l(_printf_char_file.o)
    0x1a003b14   0x00000044   Code   RO         2644    .text               c_w.l(rt_memclr.o)
    0x1a003b58   0x00000030   Code   RO         2663    .text               c_w.l(_printf_char_common.o)
    0x1a003b88   0x0000004a   Code   RO         2665    .text               c_w.l(sys_stackheap_outer.o)
    0x1a003bd2   0x00000028   Code   RO         2667    .text               c_w.l(__printf_nopercent.o)
    0x1a003bfa   0x0000000c   Code   RO         2669    .text               c_w.l(exit.o)
    0x1a003c06   0x00000002   PAD
    0x1a003c08   0x00000008   Code   RO         2681    .text               c_w.l(libspace.o)
    0x1a003c10   0x000000b4   Code   RO         1142    i.Board_SetupClocking  lib_lpc_board_keil_mcb_4357.lib(board_sysinit.o)
    0x1a003cc4   0x0000004c   Code   RO         1144    i.Board_SetupMuxing  lib_lpc_board_keil_mcb_4357.lib(board_sysinit.o)
    0x1a003d10   0x0000000c   Code   RO         1145    i.Board_SystemInit  lib_lpc_board_keil_mcb_4357.lib(board_sysinit.o)
    0x1a003d1c   0x00000020   Code   RO          670    i.Board_UARTGetChar  lib_lpc_board_keil_mcb_4357.lib(board.o)
    0x1a003d3c   0x00000020   Code   RO          671    i.Board_UARTPutChar  lib_lpc_board_keil_mcb_4357.lib(board.o)
    0x1a003d5c   0x00000016   Code   RO          672    i.Board_UARTPutSTR  lib_lpc_board_keil_mcb_4357.lib(board.o)
    0x1a003d72   0x00000002   PAD
    0x1a003d74   0x00000044   Code   RO          673    i.Board_UART_Init   lib_lpc_board_keil_mcb_4357.lib(board.o)
    0x1a003db8   0x0000003c   Code   RO         1753    i.Chip_Clock_EnableOpts  lib_lpc_chip_43xx.lib(clock_18xx_43xx.o)
    0x1a003df4   0x00000050   Code   RO         1755    i.Chip_Clock_FindBaseClock  lib_lpc_chip_43xx.lib(clock_18xx_43xx.o)
    0x1a003e44   0x00000024   Code   RO         1756    i.Chip_Clock_GetBaseClock  lib_lpc_chip_43xx.lib(clock_18xx_43xx.o)
    0x1a003e68   0x00000012   Code   RO         1758    i.Chip_Clock_GetBaseClocktHz  lib_lpc_chip_43xx.lib(clock_18xx_43xx.o)
    0x1a003e7a   0x00000002   PAD
    0x1a003e7c   0x000000d4   Code   RO         1759    i.Chip_Clock_GetClockInputHz  lib_lpc_chip_43xx.lib(clock_18xx_43xx.o)
    0x1a003f50   0x00000028   Code   RO         1760    i.Chip_Clock_GetDivRate  lib_lpc_chip_43xx.lib(clock_18xx_43xx.o)
    0x1a003f78   0x00000020   Code   RO         1761    i.Chip_Clock_GetDividerDivisor  lib_lpc_chip_43xx.lib(clock_18xx_43xx.o)
    0x1a003f98   0x00000020   Code   RO         1762    i.Chip_Clock_GetDividerSource  lib_lpc_chip_43xx.lib(clock_18xx_43xx.o)
    0x1a003fb8   0x00000078   Code   RO         1764    i.Chip_Clock_GetMainPLLHz  lib_lpc_chip_43xx.lib(clock_18xx_43xx.o)
    0x1a004030   0x00000058   Code   RO         1766    i.Chip_Clock_GetRate  lib_lpc_chip_43xx.lib(clock_18xx_43xx.o)
    0x1a004088   0x00000048   Code   RO         1770    i.Chip_Clock_SetBaseClock  lib_lpc_chip_43xx.lib(clock_18xx_43xx.o)
    0x1a0040d0   0x00000050   Code   RO         1771    i.Chip_Clock_SetDivider  lib_lpc_chip_43xx.lib(clock_18xx_43xx.o)
    0x1a004120   0x00000006   Code   RO         1436    i.Chip_EEPROM_ClearIntStatus  lib_lpc_chip_43xx.lib(eeprom_18xx_43xx.o)
    0x1a004126   0x00000026   Code   RO         1438    i.Chip_EEPROM_Init  lib_lpc_chip_43xx.lib(eeprom_18xx_43xx.o)
    0x1a00414c   0x00000028   Code   RO         1439    i.Chip_EEPROM_WaitForIntStatus  lib_lpc_chip_43xx.lib(eeprom_18xx_43xx.o)
    0x1a004174   0x00000010   Code   RO          679    i.Chip_SCU_PinMuxSet  lib_lpc_board_keil_mcb_4357.lib(board.o)
    0x1a004184   0x00000030   Code   RO         1146    i.Chip_SCU_SetPinMuxing  lib_lpc_board_keil_mcb_4357.lib(board_sysinit.o)
    0x1a0041b4   0x0000000e   Code   RO         2507    i.Chip_SetupCoreClock  lib_lpc_chip_43xx.lib(sysinit_18xx_43xx.o)
    0x1a0041c2   0x0000000a   Code   RO         1492    i.Chip_UART_DisableDivisorAccess  lib_lpc_chip_43xx.lib(uart_18xx_43xx.o)
    0x1a0041cc   0x0000000a   Code   RO         1493    i.Chip_UART_EnableDivisorAccess  lib_lpc_chip_43xx.lib(uart_18xx_43xx.o)
    0x1a0041d6   0x00000002   PAD
    0x1a0041d8   0x00000030   Code   RO         1495    i.Chip_UART_GetClockIndex  lib_lpc_chip_43xx.lib(uart_18xx_43xx.o)
    0x1a004208   0x0000004c   Code   RO         1497    i.Chip_UART_Init    lib_lpc_chip_43xx.lib(uart_18xx_43xx.o)
    0x1a004254   0x00000042   Code   RO         1509    i.Chip_UART_SetBaud  lib_lpc_chip_43xx.lib(uart_18xx_43xx.o)
    0x1a004296   0x00000006   Code   RO         1511    i.Chip_UART_SetDivisorLatches  lib_lpc_chip_43xx.lib(uart_18xx_43xx.o)
    0x1a00429c   0x00000014   Code   RO         1216    i.SystemCoreClockUpdate  lib_lpc_chip_43xx.lib(chip_18xx_43xx.o)
    0x1a0042b0   0x00000006   Code   RO          681    i._sys_exit         lib_lpc_board_keil_mcb_4357.lib(board.o)
    0x1a0042b6   0x00000024   Code   RO         2511    i.clock_init_delay  lib_lpc_chip_43xx.lib(sysinit_18xx_43xx.o)
    0x1a0042da   0x00000002   PAD
    0x1a0042dc   0x000000bc   Code   RO         2512    i.clock_main_init   lib_lpc_chip_43xx.lib(sysinit_18xx_43xx.o)
    0x1a004398   0x00000008   Code   RO          685    i.ferror            lib_lpc_board_keil_mcb_4357.lib(board.o)
    0x1a0043a0   0x00000050   Code   RO         1656    i.fpuInit           lib_lpc_chip_43xx.lib(fpu_init.o)
    0x1a0043f0   0x00000014   Code   RO          687    i.fputc             lib_lpc_board_keil_mcb_4357.lib(board.o)
    0x1a004404   0x0000001c   Code   RO         1440    i.setClkDiv         lib_lpc_chip_43xx.lib(eeprom_18xx_43xx.o)
    0x1a004420   0x0000000a   Code   RO         2750    x$fpl$fpinit        fz_wm.l(fpinit.o)
    0x1a00442a   0x00000002   PAD
    0x1a00442c   0x00000040   Data   RO          695    .constdata          lib_lpc_board_keil_mcb_4357.lib(board.o)
    0x1a00446c   0x000002bc   Data   RO         1147    .constdata          lib_lpc_board_keil_mcb_4357.lib(board_sysinit.o)
    0x1a004728   0x0000006c   Data   RO         1778    .constdata          lib_lpc_chip_43xx.lib(clock_18xx_43xx.o)
    0x1a004794   0x00000048   Data   RO         2513    .constdata          lib_lpc_chip_43xx.lib(sysinit_18xx_43xx.o)
    0x1a0047dc   0x00000020   Data   RO         2805    Region$$Table       anon$$obj.o


==============================================================================

Image component sizes


      Code (inc. data)   RO Data    RW Data    ZI Data      Debug   Object Name

       164         16          0          0          0        396   cpu.o
       370          0          0          0          0       6808   fifo.o
        68         28        276          0       1792        948   keil_startup_lpc18xx43xx.o
        20          4          0          0          0        985   lpc43xx_scu.o
      1116         28          0          0          0       2158   lpc43xx_sdram.o
       972        298          0          0       1996      38953   main.o
       324          0          0          0          0       1398   port.o
        18          0          0          0          0       1767   port_hook.o
     11088        332          0         88       4840      65379   raw-os.o
        28          8          0          0          0       5153   sysinit.o
       136          0          0          0          0       1484   user_extension.o

    ----------------------------------------------------------------------
     14308        714        308         88       8628     125429   Object Totals
         0          0         32          0          0          0   (incl. Generated)
         4          0          0          0          0          0   (incl. Padding)

    ----------------------------------------------------------------------

      Code (inc. data)   RO Data    RW Data    ZI Data      Debug   Library Member Name

         8          0          0          0          0         68   __main.o
        40          0          0          0          0         84   __printf_nopercent.o
         0          0          0          0          0          0   __rtentry.o
        12          0          0          0          0          0   __rtentry2.o
         6          0          0          0          0          0   __rtentry4.o
        52          8          0          0          0          0   __scatter.o
        26          0          0          0          0          0   __scatter_copy.o
        28          0          0          0          0          0   __scatter_zi.o
        48          6          0          0          0         96   _printf_char_common.o
        36          4          0          0          0         80   _printf_char_file.o
        12          0          0          0          0         72   exit.o
         6          0          0          0          0        152   heapauxi.o
         2          0          0          0          0          0   libinit.o
         6          0          0          0          0          0   libinit2.o
         2          0          0          0          0          0   libshutdown.o
         2          0          0          0          0          0   libshutdown2.o
         8          4          0          0         96         68   libspace.o
        24          4          0          0          0         84   noretval__2printf.o
        68          0          0          0          0         68   rt_memclr.o
        78          0          0          0          0         80   rt_memclr_w.o
         2          0          0          0          0          0   rtexit.o
        10          0          0          0          0          0   rtexit2.o
       150          0          0          0          0         80   strncmp.o
        86          0          0          0          0         76   strncpy.o
        74          0          0          0          0         80   sys_stackheap_outer.o
        10          0          0          0          0        116   fpinit.o
       204         22         64         20          0      32961   board.o
       316         44        700          0          0      11181   board_sysinit.o
        20          6          0          4          0       4114   chip_18xx_43xx.o
       870        130        108          8          0       8770   clock_18xx_43xx.o
       112          4          0          0          0       4442   eeprom_18xx_43xx.o
        80         18          0          0          0       1234   fpu_init.o
       238         20         72          0          0       2286   sysinit_18xx_43xx.o
       216         16          0          0          0       9189   uart_18xx_43xx.o

    ----------------------------------------------------------------------
      2868        286        944         32        100      75381   Library Totals
        16          0          0          0          4          0   (incl. Padding)

    ----------------------------------------------------------------------

      Code (inc. data)   RO Data    RW Data    ZI Data      Debug   Library Name

       786         26          0          0         96       1088   c_w.l
        10          0          0          0          0        116   fz_wm.l
       520         66        764         20          0      44142   lib_lpc_board_keil_mcb_4357.lib
      1536        194        180         12          0      30035   lib_lpc_chip_43xx.lib

    ----------------------------------------------------------------------
      2868        286        944         32        100      75381   Library Totals

    ----------------------------------------------------------------------

==============================================================================


      Code (inc. data)   RO Data    RW Data    ZI Data      Debug   

     17176       1000       1252        120       8728     195942   Grand Totals
     17176       1000       1252        120       8728     195942   ELF Image Totals
     17176       1000       1252        120          0          0   ROM Totals

==============================================================================

    Total RO  Size (Code + RO Data)                18428 (  18.00kB)
    Total RW  Size (RW Data + ZI Data)              8848 (   8.64kB)
    Total ROM Size (Code + RO Data + RW Data)      18548 (  18.11kB)

==============================================================================

