Component: ARM Compiler 5.06 (build 20) Tool: armlink [4d35a3]

==============================================================================

Section Cross References

    raw-os.o(.text) refers to cpu.o(.text) for OS_CPU_SR_Save
    raw-os.o(.text) refers to port_error_process.o(.text) for port_system_error_process
    raw-os.o(.text) refers to raw-os.o(.data) for .data
    raw-os.o(.text) refers to raw-os.o(.bss) for .bss
    raw-os.o(.text) refers to user_extension.o(.text) for raw_memset
    raw-os.o(.text) refers to port.o(.text) for port_stack_init
    raw-os.o(.text) refers to port_hook.o(.text) for task_create_hook
    raw-os.o(.text) refers to port_extension.o(.text) for user_sys_time_get
    raw-os.o(.text) refers to lludivv7m.o(.text) for __aeabi_uldivmod
    fifo.o(.text) refers to cpu.o(.text) for OS_CPU_SR_Save
    fifo.o(.text) refers to user_extension.o(.text) for raw_memcpy
    rsh.o(.text) refers to cpu.o(.text) for OS_CPU_SR_Save
    rsh.o(.text) refers to string.o(.text) for raw_strncmp
    rsh.o(.text) refers to user_extension.o(.text) for raw_memset
    rsh.o(.text) refers to rsh.o(.data) for .data
    rsh.o(.text) refers to rsh.o(.conststring) for .conststring
    rsh.o(.constdata) refers to rsh.o(.conststring) for .conststring
    rsh.o(.constdata) refers to rsh.o(.text) for rsh_help_command
==============================================================================

Removing Unused input sections from the image.

    Removing rsh.o(.text), (472 bytes).
    Removing rsh.o(.constdata), (16 bytes).
    Removing rsh.o(.conststring), (50 bytes).
    Removing rsh.o(.conststring), (173 bytes).
    Removing rsh.o(.data), (20 bytes).
    Removing string.o(.text), (592 bytes).
    Removing sysinit.o(.rev16_text), (4 bytes).
    Removing sysinit.o(.revsh_text), (4 bytes).
    Removing lpc43xx_scu.o(.rev16_text), (4 bytes).
    Removing lpc43xx_scu.o(.revsh_text), (4 bytes).
    Removing lpc43xx_sdram.o(.rev16_text), (4 bytes).
    Removing lpc43xx_sdram.o(.revsh_text), (4 bytes).
    Removing k9f1g08.o(.rev16_text), (4 bytes).
    Removing k9f1g08.o(.revsh_text), (4 bytes).
    Removing lpc43xx_gpio.o(.rev16_text), (4 bytes).
    Removing lpc43xx_gpio.o(.revsh_text), (4 bytes).
    Removing main.o(.rev16_text), (4 bytes).
    Removing main.o(.revsh_text), (4 bytes).
==============================================================================

Image Symbol Table

    Local Symbols

    Symbol Name                              Value     Ov Type        Size  Object(Section)

    ../clib/angel/boardlib.s                 0x00000000   Number         0  boardinit1.o ABSOLUTE
    ../clib/angel/boardlib.s                 0x00000000   Number         0  boardinit3.o ABSOLUTE
    ../clib/angel/boardlib.s                 0x00000000   Number         0  boardinit2.o ABSOLUTE
    ../clib/angel/boardlib.s                 0x00000000   Number         0  boardshut.o ABSOLUTE
    ../clib/angel/handlers.s                 0x00000000   Number         0  __scatter_zi.o ABSOLUTE
    ../clib/angel/handlers.s                 0x00000000   Number         0  __scatter_copy.o ABSOLUTE
    ../clib/angel/kernel.s                   0x00000000   Number         0  rtexit2.o ABSOLUTE
    ../clib/angel/kernel.s                   0x00000000   Number         0  rtexit.o ABSOLUTE
    ../clib/angel/kernel.s                   0x00000000   Number         0  __rtentry4.o ABSOLUTE
    ../clib/angel/kernel.s                   0x00000000   Number         0  __rtentry2.o ABSOLUTE
    ../clib/angel/kernel.s                   0x00000000   Number         0  __rtentry.o ABSOLUTE
    ../clib/angel/rt.s                       0x00000000   Number         0  aeabi_ldiv0_sigfpe.o ABSOLUTE
    ../clib/angel/rt.s                       0x00000000   Number         0  rt_raise.o ABSOLUTE
    ../clib/angel/rt.s                       0x00000000   Number         0  rt_div0.o ABSOLUTE
    ../clib/angel/rt.s                       0x00000000   Number         0  aeabi_ldiv0.o ABSOLUTE
    ../clib/angel/scatter.s                  0x00000000   Number         0  __scatter.o ABSOLUTE
    ../clib/angel/startup.s                  0x00000000   Number         0  __main.o ABSOLUTE
    ../clib/angel/sys.s                      0x00000000   Number         0  libspace.o ABSOLUTE
    ../clib/angel/sys.s                      0x00000000   Number         0  sys_stackheap_outer.o ABSOLUTE
    ../clib/angel/sys.s                      0x00000000   Number         0  use_no_semi.o ABSOLUTE
    ../clib/angel/sys.s                      0x00000000   Number         0  indicate_semi.o ABSOLUTE
    ../clib/angel/sysapp.c                   0x00000000   Number         0  sys_wrch.o ABSOLUTE
    ../clib/angel/sysapp.c                   0x00000000   Number         0  sys_command.o ABSOLUTE
    ../clib/armsys.c                         0x00000000   Number         0  argv_veneer.o ABSOLUTE
    ../clib/armsys.c                         0x00000000   Number         0  no_argv.o ABSOLUTE
    ../clib/armsys.c                         0x00000000   Number         0  argv_veneer.o ABSOLUTE
    ../clib/armsys.c                         0x00000000   Number         0  _get_argv_nomalloc.o ABSOLUTE
    ../clib/heapalloc.c                      0x00000000   Number         0  hrguard.o ABSOLUTE
    ../clib/heapaux.c                        0x00000000   Number         0  heapauxi.o ABSOLUTE
    ../clib/libinit.s                        0x00000000   Number         0  libshutdown2.o ABSOLUTE
    ../clib/libinit.s                        0x00000000   Number         0  libinit2.o ABSOLUTE
    ../clib/libinit.s                        0x00000000   Number         0  libinit.o ABSOLUTE
    ../clib/libinit.s                        0x00000000   Number         0  libshutdown.o ABSOLUTE
    ../clib/longlong.s                       0x00000000   Number         0  lludivv7m.o ABSOLUTE
    ../clib/longlong.s                       0x00000000   Number         0  lludiv10.o ABSOLUTE
    ../clib/memcpset.s                       0x00000000   Number         0  strcmpv7m.o ABSOLUTE
    ../clib/memcpset.s                       0x00000000   Number         0  rt_memcpy_v6.o ABSOLUTE
    ../clib/memcpset.s                       0x00000000   Number         0  rt_memcpy_w.o ABSOLUTE
    ../clib/memcpset.s                       0x00000000   Number         0  aeabi_memset.o ABSOLUTE
    ../clib/memcpset.s                       0x00000000   Number         0  rt_memclr.o ABSOLUTE
    ../clib/memcpset.s                       0x00000000   Number         0  strncpy.o ABSOLUTE
    ../clib/memcpset.s                       0x00000000   Number         0  rt_memclr_w.o ABSOLUTE
    ../clib/misc.s                           0x00000000   Number         0  printf_stubs.o ABSOLUTE
    ../clib/printf.c                         0x00000000   Number         0  __printf_flags_wp.o ABSOLUTE
    ../clib/printf.c                         0x00000000   Number         0  __printf_wp.o ABSOLUTE
    ../clib/printf.c                         0x00000000   Number         0  __printf_flags_ss.o ABSOLUTE
    ../clib/printf.c                         0x00000000   Number         0  _printf_char_file.o ABSOLUTE
    ../clib/printf.c                         0x00000000   Number         0  _printf_char.o ABSOLUTE
    ../clib/printf.c                         0x00000000   Number         0  _printf_intcommon.o ABSOLUTE
    ../clib/printf.c                         0x00000000   Number         0  __printf_ss.o ABSOLUTE
    ../clib/printf.c                         0x00000000   Number         0  __printf_flags.o ABSOLUTE
    ../clib/printf.c                         0x00000000   Number         0  _printf_hex_ll_ptr.o ABSOLUTE
    ../clib/printf.c                         0x00000000   Number         0  _printf_hex_int_ll_ptr.o ABSOLUTE
    ../clib/printf.c                         0x00000000   Number         0  _printf_hex_ptr.o ABSOLUTE
    ../clib/printf.c                         0x00000000   Number         0  _printf_hex_int_ll.o ABSOLUTE
    ../clib/printf.c                         0x00000000   Number         0  _printf_hex_int.o ABSOLUTE
    ../clib/printf.c                         0x00000000   Number         0  _printf_hex_ll.o ABSOLUTE
    ../clib/printf.c                         0x00000000   Number         0  _printf_longlong_dec.o ABSOLUTE
    ../clib/printf.c                         0x00000000   Number         0  _printf_dec.o ABSOLUTE
    ../clib/printf.c                         0x00000000   Number         0  _printf_char_common.o ABSOLUTE
    ../clib/printf.c                         0x00000000   Number         0  _printf_str.o ABSOLUTE
    ../clib/printf.c                         0x00000000   Number         0  _printf_pad.o ABSOLUTE
    ../clib/printf.c                         0x00000000   Number         0  __printf.o ABSOLUTE
    ../clib/printf.c                         0x00000000   Number         0  noretval__2printf.o ABSOLUTE
    ../clib/printf.c                         0x00000000   Number         0  __2printf.o ABSOLUTE
    ../clib/printf.c                         0x00000000   Number         0  _printf_hex_int_ptr.o ABSOLUTE
    ../clib/printf.c                         0x00000000   Number         0  __printf_nopercent.o ABSOLUTE
    ../clib/printf.c                         0x00000000   Number         0  __printf_flags_ss_wp.o ABSOLUTE
    ../clib/printf.c                         0x00000000   Number         0  __printf_ss_wp.o ABSOLUTE
    ../clib/printf_percent.s                 0x00000000   Number         0  _printf_s.o ABSOLUTE
    ../clib/printf_percent.s                 0x00000000   Number         0  _printf_ll.o ABSOLUTE
    ../clib/printf_percent.s                 0x00000000   Number         0  _printf_p.o ABSOLUTE
    ../clib/printf_percent.s                 0x00000000   Number         0  _printf_percent_end.o ABSOLUTE
    ../clib/printf_percent.s                 0x00000000   Number         0  _printf_u.o ABSOLUTE
    ../clib/printf_percent.s                 0x00000000   Number         0  _printf_x.o ABSOLUTE
    ../clib/printf_percent.s                 0x00000000   Number         0  _printf_d.o ABSOLUTE
    ../clib/printf_percent.s                 0x00000000   Number         0  _printf_percent.o ABSOLUTE
    ../clib/printf_percent.s                 0x00000000   Number         0  _printf_lld.o ABSOLUTE
    ../clib/signal.c                         0x00000000   Number         0  defsig_other.o ABSOLUTE
    ../clib/signal.c                         0x00000000   Number         0  defsig_cppl_inner.o ABSOLUTE
    ../clib/signal.c                         0x00000000   Number         0  defsig_pvfn_inner.o ABSOLUTE
    ../clib/signal.c                         0x00000000   Number         0  defsig_fpe_outer.o ABSOLUTE
    ../clib/signal.c                         0x00000000   Number         0  defsig_fpe_formal.o ABSOLUTE
    ../clib/signal.c                         0x00000000   Number         0  defsig_exit.o ABSOLUTE
    ../clib/signal.c                         0x00000000   Number         0  defsig_fpe_inner.o ABSOLUTE
    ../clib/signal.c                         0x00000000   Number         0  __raise.o ABSOLUTE
    ../clib/signal.c                         0x00000000   Number         0  defsig_general.o ABSOLUTE
    ../clib/signal.c                         0x00000000   Number         0  defsig_segv_inner.o ABSOLUTE
    ../clib/signal.c                         0x00000000   Number         0  defsig_abrt_inner.o ABSOLUTE
    ../clib/signal.c                         0x00000000   Number         0  defsig_rtred_inner.o ABSOLUTE
    ../clib/signal.c                         0x00000000   Number         0  defsig_rtmem_inner.o ABSOLUTE
    ../clib/signal.c                         0x00000000   Number         0  defsig_rtmem_outer.o ABSOLUTE
    ../clib/signal.c                         0x00000000   Number         0  defsig_rtmem_formal.o ABSOLUTE
    ../clib/signal.c                         0x00000000   Number         0  defsig_stak_inner.o ABSOLUTE
    ../clib/signal.s                         0x00000000   Number         0  defsig.o ABSOLUTE
    ../clib/stdlib.c                         0x00000000   Number         0  exit.o ABSOLUTE
    ../clib/string.c                         0x00000000   Number         0  memcmp.o ABSOLUTE
    ../clib/string.c                         0x00000000   Number         0  strncmp.o ABSOLUTE
    ../clib/string.c                         0x00000000   Number         0  strcat.o ABSOLUTE
    ../clib/string.c                         0x00000000   Number         0  strcpy.o ABSOLUTE
    ../fplib/fpinit.s                        0x00000000   Number         0  fpinit.o ABSOLUTE
    ..\..\..\..\software\common\k9f1g08.c    0x00000000   Number         0  k9f1g08.o ABSOLUTE
    ..\..\..\..\software\common\lpc43xx_gpio.c 0x00000000   Number         0  lpc43xx_gpio.o ABSOLUTE
    ..\..\..\..\software\common\lpc43xx_scu.c 0x00000000   Number         0  lpc43xx_scu.o ABSOLUTE
    ..\..\..\..\software\common\lpc43xx_sdram.c 0x00000000   Number         0  lpc43xx_sdram.o ABSOLUTE
    ..\..\..\..\software\common\yaffs_port_nand_drv.c 0x00000000   Number         0  yaffs_port_nand_drv.o ABSOLUTE
    ..\..\..\..\software\filesystems\fatfs_rawos\diskio.c 0x00000000   Number         0  diskio.o ABSOLUTE
    ..\..\..\..\software\filesystems\fatfs_rawos\ff.c 0x00000000   Number         0  ff.o ABSOLUTE
    ..\..\..\..\software\filesystems\fatfs_rawos\option\syscall.c 0x00000000   Number         0  syscall.o ABSOLUTE
    ..\..\..\..\software\filesystems\yaffs2\direct\test-framework\yaffs_osglue.c 0x00000000   Number         0  yaffs_osglue.o ABSOLUTE
    ..\..\..\..\software\filesystems\yaffs2\direct\test-framework\yaffscfg2k.c 0x00000000   Number         0  yaffscfg2k.o ABSOLUTE
    ..\..\..\..\software\filesystems\yaffs2\direct\yaffs_attribs.c 0x00000000   Number         0  yaffs_attribs.o ABSOLUTE
    ..\..\..\..\software\filesystems\yaffs2\direct\yaffs_error.c 0x00000000   Number         0  yaffs_error.o ABSOLUTE
    ..\..\..\..\software\filesystems\yaffs2\direct\yaffs_hweight.c 0x00000000   Number         0  yaffs_hweight.o ABSOLUTE
    ..\..\..\..\software\filesystems\yaffs2\direct\yaffs_qsort.c 0x00000000   Number         0  yaffs_qsort.o ABSOLUTE
    ..\..\..\..\software\filesystems\yaffs2\direct\yaffs_startup.c 0x00000000   Number         0  yaffs_startup.o ABSOLUTE
    ..\..\..\..\software\filesystems\yaffs2\direct\yaffsfs.c 0x00000000   Number         0  yaffsfs.o ABSOLUTE
    ..\..\..\..\software\filesystems\yaffs2\yaffs_allocator.c 0x00000000   Number         0  yaffs_allocator.o ABSOLUTE
    ..\..\..\..\software\filesystems\yaffs2\yaffs_bitmap.c 0x00000000   Number         0  yaffs_bitmap.o ABSOLUTE
    ..\..\..\..\software\filesystems\yaffs2\yaffs_checkptrw.c 0x00000000   Number         0  yaffs_checkptrw.o ABSOLUTE
    ..\..\..\..\software\filesystems\yaffs2\yaffs_ecc.c 0x00000000   Number         0  yaffs_ecc.o ABSOLUTE
    ..\..\..\..\software\filesystems\yaffs2\yaffs_guts.c 0x00000000   Number         0  yaffs_guts.o ABSOLUTE
    ..\..\..\..\software\filesystems\yaffs2\yaffs_nameval.c 0x00000000   Number         0  yaffs_nameval.o ABSOLUTE
    ..\..\..\..\software\filesystems\yaffs2\yaffs_nand.c 0x00000000   Number         0  yaffs_nand.o ABSOLUTE
    ..\..\..\..\software\filesystems\yaffs2\yaffs_packedtags1.c 0x00000000   Number         0  yaffs_packedtags1.o ABSOLUTE
    ..\..\..\..\software\filesystems\yaffs2\yaffs_packedtags2.c 0x00000000   Number         0  yaffs_packedtags2.o ABSOLUTE
    ..\..\..\..\software\filesystems\yaffs2\yaffs_summary.c 0x00000000   Number         0  yaffs_summary.o ABSOLUTE
    ..\..\..\..\software\filesystems\yaffs2\yaffs_tagscompat.c 0x00000000   Number         0  yaffs_tagscompat.o ABSOLUTE
    ..\..\..\..\software\filesystems\yaffs2\yaffs_tagsmarshall.c 0x00000000   Number         0  yaffs_tagsmarshall.o ABSOLUTE
    ..\..\..\..\software\filesystems\yaffs2\yaffs_verify.c 0x00000000   Number         0  yaffs_verify.o ABSOLUTE
    ..\..\..\..\software\filesystems\yaffs2\yaffs_yaffs1.c 0x00000000   Number         0  yaffs_yaffs1.o ABSOLUTE
    ..\..\..\..\software\filesystems\yaffs2\yaffs_yaffs2.c 0x00000000   Number         0  yaffs_yaffs2.o ABSOLUTE
    ..\..\..\..\software\kernel\port\cpu.asm 0x00000000   Number         0  cpu.o ABSOLUTE
    ..\..\..\..\software\kernel\port\port.c  0x00000000   Number         0  port.o ABSOLUTE
    ..\..\..\..\software\kernel\port\port_error_process.c 0x00000000   Number         0  port_error_process.o ABSOLUTE
    ..\..\..\..\software\kernel\port\port_extension.c 0x00000000   Number         0  port_extension.o ABSOLUTE
    ..\..\..\..\software\kernel\port\port_hook.c 0x00000000   Number         0  port_hook.o ABSOLUTE
    ..\..\..\..\software\kernel\port\raw_trace_port.c 0x00000000   Number         0  raw_trace_port.o ABSOLUTE
    ..\..\..\..\software\kernel\port\user_extension.c 0x00000000   Number         0  user_extension.o ABSOLUTE
    ..\..\..\..\software\kernel\raw-os\extension\lib\fifo.c 0x00000000   Number         0  fifo.o ABSOLUTE
    ..\..\..\..\software\kernel\raw-os\extension\lib\string.c 0x00000000   Number         0  string.o ABSOLUTE
    ..\..\..\..\software\kernel\raw-os\extension\mm\heap_4.c 0x00000000   Number         0  heap_4.o ABSOLUTE
    ..\..\..\..\software\kernel\raw-os\extension\mm\raw_malloc.c 0x00000000   Number         0  raw_malloc.o ABSOLUTE
    ..\..\..\..\software\kernel\raw-os\extension\mm\raw_page.c 0x00000000   Number         0  raw_page.o ABSOLUTE
    ..\..\..\..\software\kernel\raw-os\extension\shell\rsh.c 0x00000000   Number         0  rsh.o ABSOLUTE
    ..\..\..\..\software\kernel\raw-os\raw-os.c 0x00000000   Number         0  raw-os.o ABSOLUTE
    ..\..\board_common\uda1380.c             0x00000000   Number         0  uda1380.o ABSOLUTE
    ..\..\examples\freetype\main.c           0x00000000   Number         0  main.o ABSOLUTE
    ..\..\startup_code\keil_startup_lpc18xx43xx.s 0x00000000   Number         0  keil_startup_lpc18xx43xx.o ABSOLUTE
    ..\..\startup_code\sysinit.c             0x00000000   Number         0  sysinit.o ABSOLUTE
    ..\\..\\..\\..\\software\\common\\k9f1g08.c 0x00000000   Number         0  k9f1g08.o ABSOLUTE
    ..\\..\\..\\..\\software\\common\\lpc43xx_gpio.c 0x00000000   Number         0  lpc43xx_gpio.o ABSOLUTE
    ..\\..\\..\\..\\software\\common\\lpc43xx_scu.c 0x00000000   Number         0  lpc43xx_scu.o ABSOLUTE
    ..\\..\\..\\..\\software\\common\\lpc43xx_sdram.c 0x00000000   Number         0  lpc43xx_sdram.o ABSOLUTE
    ..\\..\\..\\..\\software\\filesystems\\fatfs_rawos\\diskio.c 0x00000000   Number         0  diskio.o ABSOLUTE
    ..\\..\\board_common\\uda1380.c          0x00000000   Number         0  uda1380.o ABSOLUTE
    ..\\..\\examples\\freetype\\main.c       0x00000000   Number         0  main.o ABSOLUTE
    ..\\..\\startup_code\\sysinit.c          0x00000000   Number         0  sysinit.o ABSOLUTE
    ..\\chip_common\\fpu_init.c              0x00000000   Number         0  fpu_init.o ABSOLUTE
    ..\chip_common\fpu_init.c                0x00000000   Number         0  fpu_init.o ABSOLUTE
    ..\chip_common\ring_buffer.c             0x00000000   Number         0  ring_buffer.o ABSOLUTE
    board.c                                  0x00000000   Number         0  board.o ABSOLUTE
    board.c                                  0x00000000   Number         0  board.o ABSOLUTE
    board_sysinit.c                          0x00000000   Number         0  board_sysinit.o ABSOLUTE
    board_sysinit.c                          0x00000000   Number         0  board_sysinit.o ABSOLUTE
    chip_18xx_43xx.c                         0x00000000   Number         0  chip_18xx_43xx.o ABSOLUTE
    chip_18xx_43xx.c                         0x00000000   Number         0  chip_18xx_43xx.o ABSOLUTE
    clock_18xx_43xx.c                        0x00000000   Number         0  clock_18xx_43xx.o ABSOLUTE
    clock_18xx_43xx.c                        0x00000000   Number         0  clock_18xx_43xx.o ABSOLUTE
    dc.s                                     0x00000000   Number         0  dc.o ABSOLUTE
    emc_18xx_43xx.c                          0x00000000   Number         0  emc_18xx_43xx.o ABSOLUTE
    emc_18xx_43xx.c                          0x00000000   Number         0  emc_18xx_43xx.o ABSOLUTE
    gpio_18xx_43xx.c                         0x00000000   Number         0  gpio_18xx_43xx.o ABSOLUTE
    gpio_18xx_43xx.c                         0x00000000   Number         0  gpio_18xx_43xx.o ABSOLUTE
    i2c_18xx_43xx.c                          0x00000000   Number         0  i2c_18xx_43xx.o ABSOLUTE
    i2c_18xx_43xx.c                          0x00000000   Number         0  i2c_18xx_43xx.o ABSOLUTE
    i2s_18xx_43xx.c                          0x00000000   Number         0  i2s_18xx_43xx.o ABSOLUTE
    i2s_18xx_43xx.c                          0x00000000   Number         0  i2s_18xx_43xx.o ABSOLUTE
    rgu_18xx_43xx.c                          0x00000000   Number         0  rgu_18xx_43xx.o ABSOLUTE
    rgu_18xx_43xx.c                          0x00000000   Number         0  rgu_18xx_43xx.o ABSOLUTE
    sdif_18xx_43xx.c                         0x00000000   Number         0  sdif_18xx_43xx.o ABSOLUTE
    sdif_18xx_43xx.c                         0x00000000   Number         0  sdif_18xx_43xx.o ABSOLUTE
    sdmmc_18xx_43xx.c                        0x00000000   Number         0  sdmmc_18xx_43xx.o ABSOLUTE
    sdmmc_18xx_43xx.c                        0x00000000   Number         0  sdmmc_18xx_43xx.o ABSOLUTE
    ssp_18xx_43xx.c                          0x00000000   Number         0  ssp_18xx_43xx.o ABSOLUTE
    ssp_18xx_43xx.c                          0x00000000   Number         0  ssp_18xx_43xx.o ABSOLUTE
    sysinit_18xx_43xx.c                      0x00000000   Number         0  sysinit_18xx_43xx.o ABSOLUTE
    sysinit_18xx_43xx.c                      0x00000000   Number         0  sysinit_18xx_43xx.o ABSOLUTE
    uart_18xx_43xx.c                         0x00000000   Number         0  uart_18xx_43xx.o ABSOLUTE
    uart_18xx_43xx.c                         0x00000000   Number         0  uart_18xx_43xx.o ABSOLUTE
    .bss                                     0x10000000   Section     3548  raw-os.o(.bss)
    .bss                                     0x10000de0   Section     3920  main.o(.bss)
    fifo_buffer                              0x10001854   Data         128  main.o(.bss)
    .data                                    0x10080000   Section       56  raw-os.o(.data)
    .data                                    0x10080038   Section        4  raw_malloc.o(.data)
    .data                                    0x1008003c   Section        4  port.o(.data)
    mpu_region_numbers                       0x1008003c   Data           4  port.o(.data)
    .data                                    0x10080040   Section       12  k9f1g08.o(.data)
    .data                                    0x1008004c   Section        8  main.o(.data)
    sdio_wait_exit                           0x1008004c   Data           4  main.o(.data)
    tot_secs                                 0x10080050   Data           4  main.o(.data)
    .data                                    0x10080054   Section       24  yaffsfs.o(.data)
    yaffsfs_handlesInitialised               0x10080054   Data           4  yaffsfs.o(.data)
    dev_iterator                             0x10080058   Data           4  yaffsfs.o(.data)
    search_contexts                          0x10080064   Data           8  yaffsfs.o(.data)
    .data                                    0x1008006c   Section        4  yaffsfs.o(.data)
    .data                                    0x10080070   Section        8  yaffs_tagscompat.o(.data)
    init                                     0x10080070   Data           4  yaffs_tagscompat.o(.data)
    init                                     0x10080074   Data           4  yaffs_tagscompat.o(.data)
    .data                                    0x10080078   Section        4  yaffs_verify.o(.data)
    yaffs_free_verification_failures         0x10080078   Data           4  yaffs_verify.o(.data)
    .data                                    0x1008007c   Section        4  yaffs_osglue.o(.data)
    yaffsfs_lastError                        0x1008007c   Data           4  yaffs_osglue.o(.data)
    .data                                    0x10080080   Section        4  yaffscfg2k.o(.data)
    start_up_called                          0x10080080   Data           4  yaffscfg2k.o(.data)
    .data                                    0x10080084   Section        4  yaffscfg2k.o(.data)
    .data                                    0x10080088   Section       12  ff.o(.data)
    Fsid                                     0x10080088   Data           2  ff.o(.data)
    FatFs                                    0x1008008c   Data           8  ff.o(.data)
    .data                                    0x10080094   Section       20  board.o(.data)
    .data                                    0x100800a8   Section        4  chip_18xx_43xx.o(.data)
    .data                                    0x100800ac   Section        4  sdmmc_18xx_43xx.o(.data)
    g_card_info                              0x100800ac   Data           4  sdmmc_18xx_43xx.o(.data)
    .data                                    0x100800b0   Section        8  clock_18xx_43xx.o(.data)
    audio_usb_pll_freq                       0x100800b0   Data           8  clock_18xx_43xx.o(.data)
    .data                                    0x100800b8   Section       56  i2c_18xx_43xx.o(.data)
    i2c                                      0x100800b8   Data          56  i2c_18xx_43xx.o(.data)
    .bss                                     0x100800f0   Section       80  raw_malloc.o(.bss)
    malloc_macb                              0x100800f0   Data          80  raw_malloc.o(.bss)
    .bss                                     0x10080140   Section       56  raw_page.o(.bss)
    system_page_table                        0x10080140   Data          56  raw_page.o(.bss)
    .bss                                     0x10080178   Section    13040  yaffsfs.o(.bss)
    yaffsfs_dsc                              0x10080178   Data       11040  yaffsfs.o(.bss)
    yaffsfs_inode                            0x10082c98   Data         800  yaffsfs.o(.bss)
    yaffsfs_fd                               0x10082fb8   Data         800  yaffsfs.o(.bss)
    yaffsfs_handle                           0x100832d8   Data         400  yaffsfs.o(.bss)
    .bss                                     0x10083468   Section       32  yaffs_tagscompat.o(.bss)
    spare_ff                                 0x10083468   Data          16  yaffs_tagscompat.o(.bss)
    spare_ff                                 0x10083478   Data          16  yaffs_tagscompat.o(.bss)
    .bss                                     0x10083488   Section       40  yaffs_osglue.o(.bss)
    mutex_yaffs_obj                          0x10083488   Data          40  yaffs_osglue.o(.bss)
    .bss                                     0x100834b0   Section       12  ff.o(.bss)
    Files                                    0x100834b0   Data          12  ff.o(.bss)
    .bss                                     0x100834bc   Section       96  libspace.o(.bss)
    HEAP                                     0x10083520   Section      256  keil_startup_lpc18xx43xx.o(HEAP)
    Heap_Mem                                 0x10083520   Data         256  keil_startup_lpc18xx43xx.o(HEAP)
    STACK                                    0x10083620   Section     1536  keil_startup_lpc18xx43xx.o(STACK)
    __initial_sp                             0x10083c20   Data           0  keil_startup_lpc18xx43xx.o(STACK)
    RESET                                    0x1a000000   Section      276  keil_startup_lpc18xx43xx.o(RESET)
    !!!main                                  0x1a000114   Section        8  __main.o(!!!main)
    !!!scatter                               0x1a00011c   Section       52  __scatter.o(!!!scatter)
    !!handler_copy                           0x1a000150   Section       26  __scatter_copy.o(!!handler_copy)
    !!handler_zi                             0x1a00016c   Section       28  __scatter_zi.o(!!handler_zi)
    .ARM.Collect$$_printf_percent$$00000000  0x1a000188   Section        0  _printf_percent.o(.ARM.Collect$$_printf_percent$$00000000)
    .ARM.Collect$$_printf_percent$$00000002  0x1a000188   Section        6  _printf_p.o(.ARM.Collect$$_printf_percent$$00000002)
    .ARM.Collect$$_printf_percent$$00000007  0x1a00018e   Section       10  _printf_ll.o(.ARM.Collect$$_printf_percent$$00000007)
    .ARM.Collect$$_printf_percent$$00000009  0x1a000198   Section        6  _printf_d.o(.ARM.Collect$$_printf_percent$$00000009)
    .ARM.Collect$$_printf_percent$$0000000A  0x1a00019e   Section        6  _printf_u.o(.ARM.Collect$$_printf_percent$$0000000A)
    .ARM.Collect$$_printf_percent$$0000000C  0x1a0001a4   Section        6  _printf_x.o(.ARM.Collect$$_printf_percent$$0000000C)
    .ARM.Collect$$_printf_percent$$0000000E  0x1a0001aa   Section        6  _printf_lld.o(.ARM.Collect$$_printf_percent$$0000000E)
    .ARM.Collect$$_printf_percent$$00000014  0x1a0001b0   Section        6  _printf_s.o(.ARM.Collect$$_printf_percent$$00000014)
    .ARM.Collect$$_printf_percent$$00000017  0x1a0001b6   Section        4  _printf_percent_end.o(.ARM.Collect$$_printf_percent$$00000017)
    .ARM.Collect$$libinit$$00000000          0x1a0001ba   Section        2  libinit.o(.ARM.Collect$$libinit$$00000000)
    .ARM.Collect$$libinit$$00000001          0x1a0001bc   Section        4  libinit2.o(.ARM.Collect$$libinit$$00000001)
    .ARM.Collect$$libinit$$00000004          0x1a0001c0   Section        0  libinit2.o(.ARM.Collect$$libinit$$00000004)
    .ARM.Collect$$libinit$$0000000A          0x1a0001c0   Section        0  libinit2.o(.ARM.Collect$$libinit$$0000000A)
    .ARM.Collect$$libinit$$0000000C          0x1a0001c0   Section        0  libinit2.o(.ARM.Collect$$libinit$$0000000C)
    .ARM.Collect$$libinit$$0000000E          0x1a0001c0   Section        0  libinit2.o(.ARM.Collect$$libinit$$0000000E)
    .ARM.Collect$$libinit$$00000011          0x1a0001c0   Section        0  libinit2.o(.ARM.Collect$$libinit$$00000011)
    .ARM.Collect$$libinit$$00000013          0x1a0001c0   Section        0  libinit2.o(.ARM.Collect$$libinit$$00000013)
    .ARM.Collect$$libinit$$00000015          0x1a0001c0   Section        0  libinit2.o(.ARM.Collect$$libinit$$00000015)
    .ARM.Collect$$libinit$$00000017          0x1a0001c0   Section        0  libinit2.o(.ARM.Collect$$libinit$$00000017)
    .ARM.Collect$$libinit$$00000019          0x1a0001c0   Section        0  libinit2.o(.ARM.Collect$$libinit$$00000019)
    .ARM.Collect$$libinit$$0000001B          0x1a0001c0   Section        0  libinit2.o(.ARM.Collect$$libinit$$0000001B)
    .ARM.Collect$$libinit$$0000001D          0x1a0001c0   Section        0  libinit2.o(.ARM.Collect$$libinit$$0000001D)
    .ARM.Collect$$libinit$$0000001F          0x1a0001c0   Section        0  libinit2.o(.ARM.Collect$$libinit$$0000001F)
    .ARM.Collect$$libinit$$00000021          0x1a0001c0   Section        0  libinit2.o(.ARM.Collect$$libinit$$00000021)
    .ARM.Collect$$libinit$$00000023          0x1a0001c0   Section        0  libinit2.o(.ARM.Collect$$libinit$$00000023)
    .ARM.Collect$$libinit$$00000025          0x1a0001c0   Section        0  libinit2.o(.ARM.Collect$$libinit$$00000025)
    .ARM.Collect$$libinit$$0000002C          0x1a0001c0   Section        0  libinit2.o(.ARM.Collect$$libinit$$0000002C)
    .ARM.Collect$$libinit$$0000002E          0x1a0001c0   Section        0  libinit2.o(.ARM.Collect$$libinit$$0000002E)
    .ARM.Collect$$libinit$$00000030          0x1a0001c0   Section        0  libinit2.o(.ARM.Collect$$libinit$$00000030)
    .ARM.Collect$$libinit$$00000032          0x1a0001c0   Section        0  libinit2.o(.ARM.Collect$$libinit$$00000032)
    .ARM.Collect$$libinit$$00000033          0x1a0001c0   Section        2  libinit2.o(.ARM.Collect$$libinit$$00000033)
    .ARM.Collect$$libshutdown$$00000000      0x1a0001c2   Section        2  libshutdown.o(.ARM.Collect$$libshutdown$$00000000)
    .ARM.Collect$$libshutdown$$00000002      0x1a0001c4   Section        0  libshutdown2.o(.ARM.Collect$$libshutdown$$00000002)
    .ARM.Collect$$libshutdown$$00000004      0x1a0001c4   Section        0  libshutdown2.o(.ARM.Collect$$libshutdown$$00000004)
    .ARM.Collect$$libshutdown$$00000007      0x1a0001c4   Section        0  libshutdown2.o(.ARM.Collect$$libshutdown$$00000007)
    .ARM.Collect$$libshutdown$$0000000A      0x1a0001c4   Section        0  libshutdown2.o(.ARM.Collect$$libshutdown$$0000000A)
    .ARM.Collect$$libshutdown$$0000000C      0x1a0001c4   Section        0  libshutdown2.o(.ARM.Collect$$libshutdown$$0000000C)
    .ARM.Collect$$libshutdown$$0000000F      0x1a0001c4   Section        0  libshutdown2.o(.ARM.Collect$$libshutdown$$0000000F)
    .ARM.Collect$$libshutdown$$00000010      0x1a0001c4   Section        2  libshutdown2.o(.ARM.Collect$$libshutdown$$00000010)
    .ARM.Collect$$rtentry$$00000000          0x1a0001c6   Section        0  __rtentry.o(.ARM.Collect$$rtentry$$00000000)
    .ARM.Collect$$rtentry$$00000002          0x1a0001c6   Section        0  __rtentry2.o(.ARM.Collect$$rtentry$$00000002)
    .ARM.Collect$$rtentry$$00000004          0x1a0001c6   Section        6  __rtentry4.o(.ARM.Collect$$rtentry$$00000004)
    .ARM.Collect$$rtentry$$00000009          0x1a0001cc   Section        0  __rtentry2.o(.ARM.Collect$$rtentry$$00000009)
    .ARM.Collect$$rtentry$$0000000A          0x1a0001cc   Section        4  __rtentry2.o(.ARM.Collect$$rtentry$$0000000A)
    .ARM.Collect$$rtentry$$0000000C          0x1a0001d0   Section        0  __rtentry2.o(.ARM.Collect$$rtentry$$0000000C)
    .ARM.Collect$$rtentry$$0000000D          0x1a0001d0   Section        8  __rtentry2.o(.ARM.Collect$$rtentry$$0000000D)
    .ARM.Collect$$rtexit$$00000000           0x1a0001d8   Section        2  rtexit.o(.ARM.Collect$$rtexit$$00000000)
    .ARM.Collect$$rtexit$$00000002           0x1a0001da   Section        0  rtexit2.o(.ARM.Collect$$rtexit$$00000002)
    .ARM.Collect$$rtexit$$00000003           0x1a0001da   Section        4  rtexit2.o(.ARM.Collect$$rtexit$$00000003)
    .ARM.Collect$$rtexit$$00000004           0x1a0001de   Section        6  rtexit2.o(.ARM.Collect$$rtexit$$00000004)
    .text                                    0x1a0001e4   Section        0  raw-os.o(.text)
    tick_task_process                        0x1a000749   Thumb Code    28  raw-os.o(.text)
    pend_task_wake_up                        0x1a0008e9   Thumb Code    96  raw-os.o(.text)
    is_list_empty                            0x1a0029d1   Thumb Code    14  raw-os.o(.text)
    list_insert                              0x1a0029df   Thumb Code    14  raw-os.o(.text)
    list_delete                              0x1a0029ed   Thumb Code    12  raw-os.o(.text)
    add_to_priority_list                     0x1a0029f9   Thumb Code    30  raw-os.o(.text)
    bit_set                                  0x1a002a17   Thumb Code    20  raw-os.o(.text)
    release_mutex                            0x1a002a2b   Thumb Code    30  raw-os.o(.text)
    timer_list_remove                        0x1a002a49   Thumb Code    22  raw-os.o(.text)
    timer_list_priority_insert               0x1a002a5f   Thumb Code    32  raw-os.o(.text)
    raw_byte_pool_search                     0x1a002a7f   Thumb Code   188  raw-os.o(.text)
    .text                                    0x1a002b4c   Section        0  fifo.o(.text)
    internal_fifo_out_peek                   0x1a002bed   Thumb Code    62  fifo.o(.text)
    .text                                    0x1a002cc0   Section        0  raw_malloc.o(.text)
    chkalloc_test                            0x1a002cc1   Thumb Code   210  raw_malloc.o(.text)
    removeFreeQue                            0x1a002e17   Thumb Code    68  raw_malloc.o(.text)
    allocate                                 0x1a002e5b   Thumb Code    58  raw_malloc.o(.text)
    _mem_malloc                              0x1a002e95   Thumb Code   172  raw_malloc.o(.text)
    _mem_free                                0x1a002f41   Thumb Code   134  raw_malloc.o(.text)
    list_insert                              0x1a0031a9   Thumb Code    14  raw_malloc.o(.text)
    insertAreaQue                            0x1a0031b7   Thumb Code    22  raw_malloc.o(.text)
    removeAreaQue                            0x1a0031cd   Thumb Code    24  raw_malloc.o(.text)
    _mem_realloc                             0x1a0031e5   Thumb Code   174  raw_malloc.o(.text)
    .text                                    0x1a003298   Section        0  raw_page.o(.text)
    remove_free_page                         0x1a003299   Thumb Code    52  raw_page.o(.text)
    search_free_page                         0x1a0032cd   Thumb Code    50  raw_page.o(.text)
    add_page_to_pool                         0x1a0032ff   Thumb Code   168  raw_page.o(.text)
    set_page_attr                            0x1a0034a1   Thumb Code    20  raw_page.o(.text)
    get_pages                                0x1a0034b5   Thumb Code    90  raw_page.o(.text)
    free_pages                               0x1a00350f   Thumb Code   178  raw_page.o(.text)
    set_page_used                            0x1a0035c1   Thumb Code   142  raw_page.o(.text)
    .text                                    0x1a003670   Section      172  cpu.o(.text)
    $v0                                      0x1a003670   Number         0  cpu.o(.text)
    .text                                    0x1a00371c   Section        0  port.o(.text)
    .text                                    0x1a0038f0   Section        0  port_hook.o(.text)
    .text                                    0x1a00390e   Section        0  user_extension.o(.text)
    .text                                    0x1a003996   Section        0  port_error_process.o(.text)
    .text                                    0x1a0039f0   Section        0  port_extension.o(.text)
    .text                                    0x1a003a20   Section       68  keil_startup_lpc18xx43xx.o(.text)
    $v0                                      0x1a003a20   Number         0  keil_startup_lpc18xx43xx.o(.text)
    .text                                    0x1a003a64   Section        0  sysinit.o(.text)
    .text                                    0x1a003a80   Section        0  lpc43xx_scu.o(.text)
    .text                                    0x1a003a94   Section        0  lpc43xx_sdram.o(.text)
    .text                                    0x1a003ef0   Section        0  k9f1g08.o(.text)
    k9f_state_read                           0x1a003f73   Thumb Code    36  k9f1g08.o(.text)
    k9f_busy_wait                            0x1a00424f   Thumb Code    22  k9f1g08.o(.text)
    .text                                    0x1a00426c   Section        0  lpc43xx_gpio.o(.text)
    .text                                    0x1a0042ac   Section        0  yaffs_port_nand_drv.o(.text)
    yaffs_nand_drv_WriteChunk                0x1a0042ad   Thumb Code   104  yaffs_port_nand_drv.o(.text)
    yaffs_nand_drv_ReadChunk                 0x1a004315   Thumb Code   106  yaffs_port_nand_drv.o(.text)
    yaffs_nand_drv_EraseBlock                0x1a00437f   Thumb Code    16  yaffs_port_nand_drv.o(.text)
    yaffs_nand_drv_MarkBad                   0x1a00438f   Thumb Code    22  yaffs_port_nand_drv.o(.text)
    yaffs_nand_drv_CheckBad                  0x1a0043a5   Thumb Code    36  yaffs_port_nand_drv.o(.text)
    yaffs_nand_drv_Initialise                0x1a0043c9   Thumb Code     4  yaffs_port_nand_drv.o(.text)
    yaffs_nand_drv_Deinitialise              0x1a0043cd   Thumb Code     4  yaffs_port_nand_drv.o(.text)
    .text                                    0x1a004410   Section        0  main.o(.text)
    sdmmc_waitms                             0x1a004411   Thumb Code    50  main.o(.text)
    sdmmc_setup_wakeup                       0x1a004443   Thumb Code    30  main.o(.text)
    sdmmc_irq_driven_wait                    0x1a004461   Thumb Code    22  main.o(.text)
    NVIC_EnableIRQ                           0x1a004b47   Thumb Code    22  main.o(.text)
    NVIC_DisableIRQ                          0x1a004b5d   Thumb Code    22  main.o(.text)
    NVIC_SetPriority                         0x1a004b73   Thumb Code    32  main.o(.text)
    .text                                    0x1a004be0   Section        0  yaffs_attribs.o(.text)
    .text                                    0x1a004c60   Section        0  yaffs_hweight.o(.text)
    .text                                    0x1a004c88   Section        0  yaffs_qsort.o(.text)
    swapfunc                                 0x1a004c89   Thumb Code    44  yaffs_qsort.o(.text)
    med3                                     0x1a004cb5   Thumb Code    70  yaffs_qsort.o(.text)
    .text                                    0x1a004f58   Section        0  yaffsfs.o(.text)
    yaffsfs_HandleToObject                   0x1a004f65   Thumb Code    48  yaffsfs.o(.text)
    yaffsfs_PutInode                         0x1a004f95   Thumb Code    44  yaffsfs.o(.text)
    yaffsfs_NewHandle                        0x1a004fc1   Thumb Code    50  yaffsfs.o(.text)
    yaffsfs_closedir_no_lock                 0x1a004ff3   Thumb Code    56  yaffsfs.o(.text)
    yaffsfs_PutHandle                        0x1a00502b   Thumb Code   108  yaffsfs.o(.text)
    yaffsfs_BreakDeviceHandles               0x1a005097   Thumb Code   102  yaffsfs.o(.text)
    yaffsfs_alt_dir_path                     0x1a0050fd   Thumb Code    86  yaffsfs.o(.text)
    yaffsfs_FindDevice                       0x1a005153   Thumb Code   236  yaffsfs.o(.text)
    yaffsfs_CheckPath                        0x1a00523f   Thumb Code    46  yaffsfs.o(.text)
    yaffsfs_DoFindDirectory                  0x1a00526d   Thumb Code   256  yaffsfs.o(.text)
    yaffsfs_FindObject                       0x1a00536d   Thumb Code    84  yaffsfs.o(.text)
    yaffsfs_FollowLink                       0x1a0053c1   Thumb Code    92  yaffsfs.o(.text)
    yaffsfs_SetDirRewound                    0x1a00547d   Thumb Code    60  yaffsfs.o(.text)
    yaffsfs_opendir_reldir_no_lock           0x1a0054b9   Thumb Code   268  yaffsfs.o(.text)
    yaffs_Dofsync                            0x1a0059f5   Thumb Code    66  yaffsfs.o(.text)
    yaffsfs_do_read                          0x1a005a99   Thumb Code   326  yaffsfs.o(.text)
    yaffsfs_do_write                         0x1a005bf7   Thumb Code   354  yaffsfs.o(.text)
    yaffsfs_DoUnlink_reldir                  0x1a005f63   Thumb Code   258  yaffsfs.o(.text)
    yaffsfs_DoStat                           0x1a006269   Thumb Code   138  yaffsfs.o(.text)
    yaffsfs_DoStatOrLStat_reldir             0x1a0062f3   Thumb Code   170  yaffsfs.o(.text)
    yaffsfs_DoUtime                          0x1a006425   Thumb Code    86  yaffsfs.o(.text)
    yaffs_do_setxattr_reldir                 0x1a00654b   Thumb Code   208  yaffsfs.o(.text)
    yaffs_do_getxattr_reldir                 0x1a006721   Thumb Code   204  yaffsfs.o(.text)
    yaffs_do_listxattr_reldir                0x1a0068d7   Thumb Code   186  yaffsfs.o(.text)
    yaffs_do_removexattr_reldir              0x1a006a45   Thumb Code   184  yaffsfs.o(.text)
    yaffsfs_DoChMod                          0x1a006b8f   Thumb Code    48  yaffsfs.o(.text)
    yaffsfs_bg_gc_common                     0x1a0070c7   Thumb Code   112  yaffsfs.o(.text)
    yaffsfs_DirAdvance                       0x1a0074f1   Thumb Code    68  yaffsfs.o(.text)
    yaffsfs_RemoveObjectCallback             0x1a007535   Thumb Code    40  yaffsfs.o(.text)
    list_empty                               0x1a007af5   Thumb Code    14  yaffsfs.o(.text)
    yaffsfs_InitHandles                      0x1a007b03   Thumb Code    92  yaffsfs.o(.text)
    yaffsfs_HandleToPointer                  0x1a007b5f   Thumb Code    16  yaffsfs.o(.text)
    yaffsfs_HandleToFileDes                  0x1a007b6f   Thumb Code    40  yaffsfs.o(.text)
    yaffsfs_FindInodeIdForObject             0x1a007b97   Thumb Code    42  yaffsfs.o(.text)
    yaffsfs_GetHandle                        0x1a007bc1   Thumb Code    30  yaffsfs.o(.text)
    yaffsfs_IsPathDivider                    0x1a007bdf   Thumb Code    24  yaffsfs.o(.text)
    yaffsfs_FindMountPoint                   0x1a007bf7   Thumb Code    32  yaffsfs.o(.text)
    yaffsfs_FindDirectory                    0x1a007c17   Thumb Code    16  yaffsfs.o(.text)
    yaffsfs_TooManyObjects                   0x1a007c27   Thumb Code    26  yaffsfs.o(.text)
    yaffsfs_IsDevBusy                        0x1a007c41   Thumb Code    34  yaffsfs.o(.text)
    yaffsfs_rewinddir_no_lock                0x1a007c63   Thumb Code    30  yaffsfs.o(.text)
    .text                                    0x1a007c98   Section        0  yaffs_allocator.o(.text)
    yaffs_create_tnodes                      0x1a007c99   Thumb Code   164  yaffs_allocator.o(.text)
    yaffs_create_free_objs                   0x1a007d97   Thumb Code   142  yaffs_allocator.o(.text)
    list_empty                               0x1a007f35   Thumb Code    14  yaffs_allocator.o(.text)
    yaffs_deinit_raw_objs                    0x1a007f43   Thumb Code    58  yaffs_allocator.o(.text)
    .text                                    0x1a008094   Section        0  yaffs_bitmap.o(.text)
    yaffs_block_bits                         0x1a008095   Thumb Code    64  yaffs_bitmap.o(.text)
    .text                                    0x1a008298   Section        0  yaffs_checkptrw.o(.text)
    yaffs_get_block_info                     0x1a008299   Thumb Code    60  yaffs_checkptrw.o(.text)
    yaffs_checkpt_erase                      0x1a0082d5   Thumb Code   182  yaffs_checkptrw.o(.text)
    yaffs2_checkpt_find_block                0x1a00838b   Thumb Code   212  yaffs_checkptrw.o(.text)
    yaffs2_checkpt_flush_buffer              0x1a008555   Thumb Code   224  yaffs_checkptrw.o(.text)
    yaffs2_checkpt_init_chunk_hdr            0x1a008a47   Thumb Code    36  yaffs_checkptrw.o(.text)
    yaffs2_checkpt_find_erased_block         0x1a008a6b   Thumb Code   134  yaffs_checkptrw.o(.text)
    .text                                    0x1a008b8c   Section        0  yaffs_ecc.o(.text)
    .text                                    0x1a008e08   Section        0  yaffs_guts.o(.text)
    yaffs_get_block_info                     0x1a008e09   Thumb Code    60  yaffs_guts.o(.text)
    yaffs_retire_block                       0x1a008f8f   Thumb Code   184  yaffs_guts.o(.text)
    yaffs_check_chunk_erased                 0x1a00905d   Thumb Code    86  yaffs_guts.o(.text)
    yaffs_find_alloc_block                   0x1a009529   Thumb Code   178  yaffs_guts.o(.text)
    yaffs_alloc_chunk                        0x1a0095db   Thumb Code   200  yaffs_guts.o(.text)
    yaffs_write_new_chunk                    0x1a0096a3   Thumb Code   758  yaffs_guts.o(.text)
    yaffs_fix_null_name                      0x1a009999   Thumb Code    88  yaffs_guts.o(.text)
    yaffs_load_tnode_0                       0x1a009a6b   Thumb Code    86  yaffs_guts.o(.text)
    yaffs_find_chunk_in_group                0x1a009c15   Thumb Code   102  yaffs_guts.o(.text)
    yaffs_soft_del_worker                    0x1a009ea9   Thumb Code   192  yaffs_guts.o(.text)
    yaffs_remove_obj_from_dir                0x1a009f69   Thumb Code    50  yaffs_guts.o(.text)
    yaffs_check_obj_details_loaded           0x1a00a07f   Thumb Code   100  yaffs_guts.o(.text)
    yaffs_free_obj                           0x1a00a0e3   Thumb Code   170  yaffs_guts.o(.text)
    yaffs_invalidate_whole_cache             0x1a00a18d   Thumb Code    46  yaffs_guts.o(.text)
    yaffs_generic_obj_del                    0x1a00a1bb   Thumb Code    70  yaffs_guts.o(.text)
    yaffs_gc_process_chunk                   0x1a00a2ff   Thumb Code   394  yaffs_guts.o(.text)
    yaffs_gc_block                           0x1a00a489   Thumb Code   428  yaffs_guts.o(.text)
    yaffs_find_gc_block                      0x1a00a635   Thumb Code   942  yaffs_guts.o(.text)
    yaffs_check_gc                           0x1a00a9e3   Thumb Code   328  yaffs_guts.o(.text)
    yaffs_change_obj_name                    0x1a00af8f   Thumb Code   182  yaffs_guts.o(.text)
    yaffs_wr_data_obj                        0x1a00b045   Thumb Code   186  yaffs_guts.o(.text)
    yaffs_flush_single_cache                 0x1a00b0ff   Thumb Code    46  yaffs_guts.o(.text)
    yaffs_flush_file_cache                   0x1a00b12d   Thumb Code    54  yaffs_guts.o(.text)
    yaffs_grab_chunk_cache                   0x1a00b1ab   Thumb Code   142  yaffs_guts.o(.text)
    yaffs_find_chunk_cache                   0x1a00b239   Thumb Code   262  yaffs_guts.o(.text)
    yaffs_use_cache                          0x1a00b33f   Thumb Code    74  yaffs_guts.o(.text)
    yaffs_soft_del_file                      0x1a00b395   Thumb Code    88  yaffs_guts.o(.text)
    yaffs_prune_worker                       0x1a00b3ed   Thumb Code   114  yaffs_guts.o(.text)
    yaffs_new_obj                            0x1a00b45f   Thumb Code   174  yaffs_guts.o(.text)
    yaffs_create_fake_dir                    0x1a00b50d   Thumb Code    38  yaffs_guts.o(.text)
    yaffs_init_tnodes_and_objs               0x1a00b533   Thumb Code    48  yaffs_guts.o(.text)
    yaffs_update_parent                      0x1a00b583   Thumb Code    94  yaffs_guts.o(.text)
    yaffs_rd_data_obj                        0x1a00b657   Thumb Code    60  yaffs_guts.o(.text)
    yaffs_prune_chunks                       0x1a00b693   Thumb Code   428  yaffs_guts.o(.text)
    yaffs_del_file                           0x1a00b957   Thumb Code   118  yaffs_guts.o(.text)
    yaffs_create_obj                         0x1a00ba3d   Thumb Code   224  yaffs_guts.o(.text)
    yaffs_deinit_blocks                      0x1a00bc5d   Thumb Code    68  yaffs_guts.o(.text)
    yaffs_init_blocks                        0x1a00bca1   Thumb Code   182  yaffs_guts.o(.text)
    yaffs_do_xattrib_mod                     0x1a00bd8f   Thumb Code    56  yaffs_guts.o(.text)
    yaffs_do_xattrib_fetch                   0x1a00bdc7   Thumb Code   174  yaffs_guts.o(.text)
    yaffs_unlink_worker                      0x1a00c2e1   Thumb Code   232  yaffs_guts.o(.text)
    yaffs_fix_hanging_objs                   0x1a00c527   Thumb Code   154  yaffs_guts.o(.text)
    yaffs_del_dir_contents                   0x1a00c5c1   Thumb Code    82  yaffs_guts.o(.text)
    yaffs_create_initial_dir                 0x1a00c6bd   Thumb Code   122  yaffs_guts.o(.text)
    list_add                                 0x1a00cf0b   Thumb Code    12  yaffs_guts.o(.text)
    list_del_init                            0x1a00cf17   Thumb Code    14  yaffs_guts.o(.text)
    list_empty                               0x1a00cf25   Thumb Code    14  yaffs_guts.o(.text)
    yaffs_hash_fn                            0x1a00cf33   Thumb Code    20  yaffs_guts.o(.text)
    yaffs_get_erased_chunks                  0x1a00cf47   Thumb Code    28  yaffs_guts.o(.text)
    yaffs_calc_name_sum                      0x1a00cf63   Thumb Code    38  yaffs_guts.o(.text)
    yaffs_free_tnode                         0x1a00cf89   Thumb Code    26  yaffs_guts.o(.text)
    yaffs_deinit_tnodes_and_objs             0x1a00cfa3   Thumb Code    20  yaffs_guts.o(.text)
    yaffs_alloc_empty_obj                    0x1a00cfb7   Thumb Code   118  yaffs_guts.o(.text)
    yaffs_new_obj_id                         0x1a00d02d   Thumb Code   102  yaffs_guts.o(.text)
    yaffs_del_link                           0x1a00d093   Thumb Code    20  yaffs_guts.o(.text)
    yaffs_del_symlink                        0x1a00d0a7   Thumb Code    24  yaffs_guts.o(.text)
    yaffs_del_dir                            0x1a00d0bf   Thumb Code    24  yaffs_guts.o(.text)
    yaffs_unlink_file_if_needed              0x1a00d0d7   Thumb Code   266  yaffs_guts.o(.text)
    yaffs_unlink_obj                         0x1a00d1e1   Thumb Code    16  yaffs_guts.o(.text)
    yaffs_has_null_parent                    0x1a00d1f1   Thumb Code    32  yaffs_guts.o(.text)
    .text                                    0x1a00d24c   Section        0  yaffs_nameval.o(.text)
    nval_find                                0x1a00d24d   Thumb Code    96  yaffs_nameval.o(.text)
    nval_used                                0x1a00d47b   Thumb Code    38  yaffs_nameval.o(.text)
    .text                                    0x1a00d4a0   Section        0  yaffs_nand.o(.text)
    .text                                    0x1a00d6f4   Section        0  yaffs_packedtags2.o(.text)
    yaffs_dump_packed_tags2_tags_only        0x1a00d6f5   Thumb Code    26  yaffs_packedtags2.o(.text)
    yaffs_dump_tags2                         0x1a00d70f   Thumb Code    52  yaffs_packedtags2.o(.text)
    .text                                    0x1a00d8ec   Section        0  yaffs_summary.o(.text)
    yaffs_get_block_info                     0x1a00d8ed   Thumb Code    60  yaffs_summary.o(.text)
    yaffs_summary_write                      0x1a00d9a3   Thumb Code   252  yaffs_summary.o(.text)
    yaffs_summary_clear                      0x1a00dca5   Thumb Code   160  yaffs_summary.o(.text)
    yaffs_summary_sum                        0x1a00dd45   Thumb Code    34  yaffs_summary.o(.text)
    .text                                    0x1a00dd68   Section        0  yaffs_tagscompat.o(.text)
    yaffs_rd_chunk_nand                      0x1a00dde3   Thumb Code   298  yaffs_tagscompat.o(.text)
    yaffs_tags_compat_wr                     0x1a00df0d   Thumb Code   214  yaffs_tagscompat.o(.text)
    yaffs_tags_compat_rd                     0x1a00dfe3   Thumb Code   280  yaffs_tagscompat.o(.text)
    yaffs_tags_compat_mark_bad               0x1a00e0fb   Thumb Code    58  yaffs_tagscompat.o(.text)
    yaffs_tags_compat_query_block            0x1a00e135   Thumb Code   368  yaffs_tagscompat.o(.text)
    yaffs_wr_nand                            0x1a00e2df   Thumb Code    20  yaffs_tagscompat.o(.text)
    yaffs_handle_rd_data_error               0x1a00e2f3   Thumb Code   102  yaffs_tagscompat.o(.text)
    .text                                    0x1a00e41c   Section        0  yaffs_tagsmarshall.o(.text)
    yaffs_tags_marshall_write                0x1a00e41d   Thumb Code   124  yaffs_tagsmarshall.o(.text)
    yaffs_tags_marshall_read                 0x1a00e499   Thumb Code   220  yaffs_tagsmarshall.o(.text)
    yaffs_tags_marshall_query_block          0x1a00e575   Thumb Code   136  yaffs_tagsmarshall.o(.text)
    yaffs_tags_marshall_mark_bad             0x1a00e5fd   Thumb Code     6  yaffs_tagsmarshall.o(.text)
    .text                                    0x1a00e77c   Section        0  yaffs_verify.o(.text)
    yaffs_skip_nand_verification             0x1a00f1d7   Thumb Code    12  yaffs_verify.o(.text)
    .text                                    0x1a00f3f0   Section        0  yaffs_yaffs1.o(.text)
    .text                                    0x1a00fa28   Section        0  yaffs_yaffs2.o(.text)
    yaffs2_wr_checkpt_validity_marker        0x1a00fbef   Thumb Code    46  yaffs_yaffs2.o(.text)
    yaffs2_rd_checkpt_validity_marker        0x1a00fc1d   Thumb Code    76  yaffs_yaffs2.o(.text)
    yaffs2_checkpt_obj_to_obj                0x1a00fc69   Thumb Code   224  yaffs_yaffs2.o(.text)
    yaffs2_checkpt_tnode_worker              0x1a00fd49   Thumb Code   112  yaffs_yaffs2.o(.text)
    yaffs2_rd_checkpt_tnodes                 0x1a00fdb9   Thumb Code   138  yaffs_yaffs2.o(.text)
    yaffs2_wr_checkpt_objs                   0x1a00fe43   Thumb Code   318  yaffs_yaffs2.o(.text)
    yaffs2_rd_checkpt_objs                   0x1a00ff81   Thumb Code   190  yaffs_yaffs2.o(.text)
    yaffs2_wr_checkpt_data                   0x1a01003f   Thumb Code   204  yaffs_yaffs2.o(.text)
    yaffs2_rd_checkpt_data                   0x1a01010b   Thumb Code   230  yaffs_yaffs2.o(.text)
    yaffs2_ybicmp                            0x1a0105e1   Thumb Code    20  yaffs_yaffs2.o(.text)
    yaffs2_scan_chunk                        0x1a0105f5   Thumb Code  1380  yaffs_yaffs2.o(.text)
    yaffs2_wr_checkpt_dev                    0x1a010e45   Thumb Code   156  yaffs_yaffs2.o(.text)
    yaffs2_rd_checkpt_dev                    0x1a010ee1   Thumb Code   644  yaffs_yaffs2.o(.text)
    yaffs2_obj_checkpt_obj                   0x1a011165   Thumb Code   114  yaffs_yaffs2.o(.text)
    .text                                    0x1a0111d8   Section        0  yaffs_osglue.o(.text)
    .text                                    0x1a01125c   Section        0  yaffscfg2k.o(.text)
    .text                                    0x1a011298   Section        0  yaffs_startup.o(.text)
    .text                                    0x1a011300   Section        0  diskio.o(.text)
    .text                                    0x1a01134c   Section        0  ff.o(.text)
    chk_lock                                 0x1a01134d   Thumb Code    94  ff.o(.text)
    inc_lock                                 0x1a0113ab   Thumb Code   136  ff.o(.text)
    dec_lock                                 0x1a011433   Thumb Code    42  ff.o(.text)
    sync_window                              0x1a01145d   Thumb Code    82  ff.o(.text)
    move_window                              0x1a0114af   Thumb Code    50  ff.o(.text)
    sync_fs                                  0x1a0114e1   Thumb Code   176  ff.o(.text)
    remove_chain                             0x1a01175f   Thumb Code    96  ff.o(.text)
    create_chain                             0x1a0117bf   Thumb Code   156  ff.o(.text)
    clmt_clust                               0x1a01185b   Thumb Code    36  ff.o(.text)
    dir_sdi                                  0x1a01187f   Thumb Code   124  ff.o(.text)
    dir_next                                 0x1a0118fb   Thumb Code   228  ff.o(.text)
    dir_alloc                                0x1a0119df   Thumb Code    66  ff.o(.text)
    dir_read                                 0x1a011a21   Thumb Code    92  ff.o(.text)
    dir_register                             0x1a011a7d   Thumb Code    56  ff.o(.text)
    dir_remove                               0x1a011ab5   Thumb Code    52  ff.o(.text)
    get_fileinfo                             0x1a011ae9   Thumb Code    76  ff.o(.text)
    create_name                              0x1a011b35   Thumb Code   286  ff.o(.text)
    follow_path                              0x1a011c53   Thumb Code   170  ff.o(.text)
    get_ldnumber                             0x1a011cfd   Thumb Code    60  ff.o(.text)
    check_fs                                 0x1a011d39   Thumb Code    86  ff.o(.text)
    find_volume                              0x1a011d8f   Thumb Code   594  ff.o(.text)
    validate                                 0x1a011fe1   Thumb Code    38  ff.o(.text)
    mem_cpy                                  0x1a0134b9   Thumb Code    16  ff.o(.text)
    mem_set                                  0x1a0134c9   Thumb Code    14  ff.o(.text)
    chk_chr                                  0x1a0134d7   Thumb Code    16  ff.o(.text)
    clear_lock                               0x1a0134e7   Thumb Code    30  ff.o(.text)
    ld_clust                                 0x1a013505   Thumb Code    18  ff.o(.text)
    st_clust                                 0x1a013517   Thumb Code    16  ff.o(.text)
    .text                                    0x1a013544   Section        0  board.o(.text)
    delay                                    0x1a0135ad   Thumb Code    12  board.o(.text)
    Board_Audio_CodecInit                    0x1a0135b9   Thumb Code    32  board.o(.text)
    writeLCD00_16                            0x1a0135d9   Thumb Code    58  board.o(.text)
    writeLCD01_16                            0x1a013613   Thumb Code    72  board.o(.text)
    writeLCDReg                              0x1a01365b   Thumb Code    20  board.o(.text)
    pinConfig                                0x1a01366f   Thumb Code    14  board.o(.text)
    writeTSCReg                              0x1a01367d   Thumb Code    28  board.o(.text)
    readTSCReg                               0x1a013699   Thumb Code    24  board.o(.text)
    detectTSCTouch                           0x1a0136b1   Thumb Code    36  board.o(.text)
    getTSCCoord                              0x1a0136d5   Thumb Code   114  board.o(.text)
    Board_LED_Init                           0x1a0137df   Thumb Code    28  board.o(.text)
    Chip_SCU_PinMuxSet                       0x1a013f61   Thumb Code    12  board.o(.text)
    Chip_GPIO_SetPinState                    0x1a013f6d   Thumb Code    10  board.o(.text)
    Chip_GPIO_GetPinState                    0x1a013f77   Thumb Code    18  board.o(.text)
    Chip_GPIO_SetPinDIROutput                0x1a013f89   Thumb Code    72  board.o(.text)
    Chip_GPIO_SetPinDIRInput                 0x1a013fd1   Thumb Code    28  board.o(.text)
    .text                                    0x1a013fec   Section        0  board_sysinit.o(.text)
    Chip_SCU_SetPinMuxing                    0x1a013fed   Thumb Code    44  board_sysinit.o(.text)
    .text                                    0x1a014188   Section        0  uda1380.o(.text)
    Audio_Codec_SetDefaultValues             0x1a0141ef   Thumb Code    36  uda1380.o(.text)
    .text                                    0x1a01430c   Section      238  lludivv7m.o(.text)
    .text                                    0x1a0143fc   Section        0  noretval__2printf.o(.text)
    .text                                    0x1a014414   Section        0  _printf_pad.o(.text)
    .text                                    0x1a014462   Section        0  _printf_str.o(.text)
    .text                                    0x1a0144b4   Section        0  _printf_dec.o(.text)
    .text                                    0x1a01452c   Section        0  _printf_longlong_dec.o(.text)
    .text                                    0x1a0145a8   Section        0  _printf_hex_int_ptr.o(.text)
    _printf_hex_common                       0x1a0145a9   Thumb Code     0  _printf_hex_int_ptr.o(.text)
    .text                                    0x1a014624   Section        0  __printf_flags_ss_wp.o(.text)
    .text                                    0x1a0147ac   Section        0  memcmp.o(.text)
    .text                                    0x1a014804   Section        0  strcpy.o(.text)
    .text                                    0x1a01484c   Section        0  strncmp.o(.text)
    .text                                    0x1a0148e2   Section        0  strcat.o(.text)
    .text                                    0x1a0148fa   Section      138  rt_memcpy_v6.o(.text)
    .text                                    0x1a014984   Section      100  rt_memcpy_w.o(.text)
    .text                                    0x1a0149e8   Section       16  aeabi_memset.o(.text)
    .text                                    0x1a0149f8   Section       68  rt_memclr.o(.text)
    .text                                    0x1a014a3c   Section       78  rt_memclr_w.o(.text)
    .text                                    0x1a014a8a   Section       86  strncpy.o(.text)
    .text                                    0x1a014ae0   Section      128  strcmpv7m.o(.text)
    .text                                    0x1a014b60   Section        0  heapauxi.o(.text)
    .text                                    0x1a014b66   Section      138  lludiv10.o(.text)
    .text                                    0x1a014bf0   Section        0  _printf_intcommon.o(.text)
    .text                                    0x1a014ca2   Section        0  _printf_char.o(.text)
    .text                                    0x1a014cd0   Section        0  _printf_char_file.o(.text)
    .text                                    0x1a014cf4   Section        0  _printf_char_common.o(.text)
    _printf_input_char                       0x1a014cf5   Thumb Code    10  _printf_char_common.o(.text)
    .text                                    0x1a014d24   Section       74  sys_stackheap_outer.o(.text)
    .text                                    0x1a014d6e   Section        0  exit.o(.text)
    .text                                    0x1a014d80   Section        8  libspace.o(.text)
    i.Chip_Clock_Enable                      0x1a014d88   Section        0  clock_18xx_43xx.o(i.Chip_Clock_Enable)
    i.Chip_Clock_EnableOpts                  0x1a014dc0   Section        0  clock_18xx_43xx.o(i.Chip_Clock_EnableOpts)
    i.Chip_Clock_FindBaseClock               0x1a014dfc   Section        0  clock_18xx_43xx.o(i.Chip_Clock_FindBaseClock)
    Chip_Clock_FindBaseClock                 0x1a014dfd   Thumb Code    74  clock_18xx_43xx.o(i.Chip_Clock_FindBaseClock)
    i.Chip_Clock_GetBaseClock                0x1a014e4c   Section        0  clock_18xx_43xx.o(i.Chip_Clock_GetBaseClock)
    i.Chip_Clock_GetBaseClocktHz             0x1a014e70   Section        0  clock_18xx_43xx.o(i.Chip_Clock_GetBaseClocktHz)
    i.Chip_Clock_GetClockInputHz             0x1a014e84   Section        0  clock_18xx_43xx.o(i.Chip_Clock_GetClockInputHz)
    i.Chip_Clock_GetDivRate                  0x1a014f58   Section        0  clock_18xx_43xx.o(i.Chip_Clock_GetDivRate)
    Chip_Clock_GetDivRate                    0x1a014f59   Thumb Code    40  clock_18xx_43xx.o(i.Chip_Clock_GetDivRate)
    i.Chip_Clock_GetDividerDivisor           0x1a014f80   Section        0  clock_18xx_43xx.o(i.Chip_Clock_GetDividerDivisor)
    i.Chip_Clock_GetDividerSource            0x1a014fa0   Section        0  clock_18xx_43xx.o(i.Chip_Clock_GetDividerSource)
    i.Chip_Clock_GetEMCRate                  0x1a014fc0   Section        0  clock_18xx_43xx.o(i.Chip_Clock_GetEMCRate)
    i.Chip_Clock_GetMainPLLHz                0x1a014ff0   Section        0  clock_18xx_43xx.o(i.Chip_Clock_GetMainPLLHz)
    i.Chip_Clock_GetRate                     0x1a015068   Section        0  clock_18xx_43xx.o(i.Chip_Clock_GetRate)
    i.Chip_Clock_SetBaseClock                0x1a0150c0   Section        0  clock_18xx_43xx.o(i.Chip_Clock_SetBaseClock)
    i.Chip_Clock_SetDivider                  0x1a015108   Section        0  clock_18xx_43xx.o(i.Chip_Clock_SetDivider)
    i.Chip_EMC_Dynamic_Init                  0x1a015158   Section        0  emc_18xx_43xx.o(i.Chip_EMC_Dynamic_Init)
    i.Chip_EMC_Init                          0x1a015174   Section        0  emc_18xx_43xx.o(i.Chip_EMC_Init)
    i.Chip_EMC_Static_Init                   0x1a0151a0   Section        0  emc_18xx_43xx.o(i.Chip_EMC_Static_Init)
    i.Chip_GPIO_Init                         0x1a0151bc   Section        0  gpio_18xx_43xx.o(i.Chip_GPIO_Init)
    i.Chip_I2C_EventHandler                  0x1a0151c0   Section        0  i2c_18xx_43xx.o(i.Chip_I2C_EventHandler)
    i.Chip_I2C_EventHandlerPolling           0x1a0151e8   Section        0  i2c_18xx_43xx.o(i.Chip_I2C_EventHandlerPolling)
    i.Chip_I2C_GetMasterEventHandler         0x1a015228   Section        0  i2c_18xx_43xx.o(i.Chip_I2C_GetMasterEventHandler)
    i.Chip_I2C_Init                          0x1a01523c   Section        0  i2c_18xx_43xx.o(i.Chip_I2C_Init)
    i.Chip_I2C_IsStateChanged                0x1a015268   Section        0  i2c_18xx_43xx.o(i.Chip_I2C_IsStateChanged)
    i.Chip_I2C_MasterCmdRead                 0x1a015280   Section        0  i2c_18xx_43xx.o(i.Chip_I2C_MasterCmdRead)
    i.Chip_I2C_MasterSend                    0x1a0152ba   Section        0  i2c_18xx_43xx.o(i.Chip_I2C_MasterSend)
    i.Chip_I2C_MasterStateHandler            0x1a0152ec   Section        0  i2c_18xx_43xx.o(i.Chip_I2C_MasterStateHandler)
    i.Chip_I2C_MasterTransfer                0x1a015324   Section        0  i2c_18xx_43xx.o(i.Chip_I2C_MasterTransfer)
    i.Chip_I2C_SetClockRate                  0x1a015390   Section        0  i2c_18xx_43xx.o(i.Chip_I2C_SetClockRate)
    i.Chip_I2C_SetMasterEventHandler         0x1a0153cc   Section        0  i2c_18xx_43xx.o(i.Chip_I2C_SetMasterEventHandler)
    i.Chip_I2S_Init                          0x1a0153f4   Section        0  i2s_18xx_43xx.o(i.Chip_I2S_Init)
    i.Chip_I2S_TxConfig                      0x1a015400   Section        0  i2s_18xx_43xx.o(i.Chip_I2S_TxConfig)
    i.Chip_RGU_InReset                       0x1a01547c   Section        0  rgu_18xx_43xx.o(i.Chip_RGU_InReset)
    i.Chip_RGU_TriggerReset                  0x1a0154b4   Section        0  rgu_18xx_43xx.o(i.Chip_RGU_TriggerReset)
    i.Chip_SDIF_DmaSetup                     0x1a0154e0   Section        0  sdif_18xx_43xx.o(i.Chip_SDIF_DmaSetup)
    i.Chip_SDIF_GetResponse                  0x1a015558   Section        0  sdif_18xx_43xx.o(i.Chip_SDIF_GetResponse)
    i.Chip_SDIF_Init                         0x1a01556c   Section        0  sdif_18xx_43xx.o(i.Chip_SDIF_Init)
    i.Chip_SDIF_SendCmd                      0x1a0155bc   Section        0  sdif_18xx_43xx.o(i.Chip_SDIF_SendCmd)
    i.Chip_SDIF_SetByteCnt                   0x1a01560e   Section        0  sdmmc_18xx_43xx.o(i.Chip_SDIF_SetByteCnt)
    Chip_SDIF_SetByteCnt                     0x1a01560f   Thumb Code     4  sdmmc_18xx_43xx.o(i.Chip_SDIF_SetByteCnt)
    i.Chip_SDIF_SetCardType                  0x1a015612   Section        0  sdmmc_18xx_43xx.o(i.Chip_SDIF_SetCardType)
    Chip_SDIF_SetCardType                    0x1a015613   Thumb Code     4  sdmmc_18xx_43xx.o(i.Chip_SDIF_SetCardType)
    i.Chip_SDIF_SetClearIntFifo              0x1a015616   Section        0  sdif_18xx_43xx.o(i.Chip_SDIF_SetClearIntFifo)
    i.Chip_SDIF_SetClock                     0x1a015630   Section        0  sdif_18xx_43xx.o(i.Chip_SDIF_SetClock)
    i.Chip_SDMMC_Acquire                     0x1a015680   Section        0  sdmmc_18xx_43xx.o(i.Chip_SDMMC_Acquire)
    i.Chip_SDMMC_GetDeviceBlocks             0x1a015974   Section        0  sdmmc_18xx_43xx.o(i.Chip_SDMMC_GetDeviceBlocks)
    i.Chip_SDMMC_GetState                    0x1a015984   Section        0  sdmmc_18xx_43xx.o(i.Chip_SDMMC_GetState)
    i.Chip_SDMMC_ReadBlocks                  0x1a0159c0   Section        0  sdmmc_18xx_43xx.o(i.Chip_SDMMC_ReadBlocks)
    i.Chip_SDMMC_WriteBlocks                 0x1a015a68   Section        0  sdmmc_18xx_43xx.o(i.Chip_SDMMC_WriteBlocks)
    i.Chip_SSP_ClearIntPending               0x1a015b14   Section        0  ssp_18xx_43xx.o(i.Chip_SSP_ClearIntPending)
    Chip_SSP_ClearIntPending                 0x1a015b15   Thumb Code     4  ssp_18xx_43xx.o(i.Chip_SSP_ClearIntPending)
    i.Chip_SSP_GetClockIndex                 0x1a015b18   Section        0  ssp_18xx_43xx.o(i.Chip_SSP_GetClockIndex)
    Chip_SSP_GetClockIndex                   0x1a015b19   Thumb Code    16  ssp_18xx_43xx.o(i.Chip_SSP_GetClockIndex)
    i.Chip_SSP_GetRawIntStatus               0x1a015b2c   Section        0  ssp_18xx_43xx.o(i.Chip_SSP_GetRawIntStatus)
    Chip_SSP_GetRawIntStatus                 0x1a015b2d   Thumb Code    16  ssp_18xx_43xx.o(i.Chip_SSP_GetRawIntStatus)
    i.Chip_SSP_GetStatus                     0x1a015b3c   Section        0  ssp_18xx_43xx.o(i.Chip_SSP_GetStatus)
    Chip_SSP_GetStatus                       0x1a015b3d   Thumb Code    16  ssp_18xx_43xx.o(i.Chip_SSP_GetStatus)
    i.Chip_SSP_Init                          0x1a015b4c   Section        0  ssp_18xx_43xx.o(i.Chip_SSP_Init)
    i.Chip_SSP_ReceiveFrame                  0x1a015b88   Section        0  ssp_18xx_43xx.o(i.Chip_SSP_ReceiveFrame)
    Chip_SSP_ReceiveFrame                    0x1a015b89   Thumb Code     8  ssp_18xx_43xx.o(i.Chip_SSP_ReceiveFrame)
    i.Chip_SSP_SendFrame                     0x1a015b90   Section        0  ssp_18xx_43xx.o(i.Chip_SSP_SendFrame)
    Chip_SSP_SendFrame                       0x1a015b91   Thumb Code     6  ssp_18xx_43xx.o(i.Chip_SSP_SendFrame)
    i.Chip_SSP_SetBitRate                    0x1a015b96   Section        0  ssp_18xx_43xx.o(i.Chip_SSP_SetBitRate)
    i.Chip_SSP_SetClockRate                  0x1a015bdc   Section        0  ssp_18xx_43xx.o(i.Chip_SSP_SetClockRate)
    i.Chip_SSP_SetMaster                     0x1a015bf0   Section        0  ssp_18xx_43xx.o(i.Chip_SSP_SetMaster)
    i.Chip_SSP_Set_Mode                      0x1a015c0c   Section        0  ssp_18xx_43xx.o(i.Chip_SSP_Set_Mode)
    Chip_SSP_Set_Mode                        0x1a015c0d   Thumb Code    12  ssp_18xx_43xx.o(i.Chip_SSP_Set_Mode)
    i.Chip_SSP_WriteFrames_Blocking          0x1a015c18   Section        0  ssp_18xx_43xx.o(i.Chip_SSP_WriteFrames_Blocking)
    i.Chip_SetupCoreClock                    0x1a015d02   Section        0  sysinit_18xx_43xx.o(i.Chip_SetupCoreClock)
    i.Chip_UART_DisableDivisorAccess         0x1a015d10   Section        0  uart_18xx_43xx.o(i.Chip_UART_DisableDivisorAccess)
    Chip_UART_DisableDivisorAccess           0x1a015d11   Thumb Code    10  uart_18xx_43xx.o(i.Chip_UART_DisableDivisorAccess)
    i.Chip_UART_EnableDivisorAccess          0x1a015d1a   Section        0  uart_18xx_43xx.o(i.Chip_UART_EnableDivisorAccess)
    Chip_UART_EnableDivisorAccess            0x1a015d1b   Thumb Code    10  uart_18xx_43xx.o(i.Chip_UART_EnableDivisorAccess)
    i.Chip_UART_GetClockIndex                0x1a015d24   Section        0  uart_18xx_43xx.o(i.Chip_UART_GetClockIndex)
    Chip_UART_GetClockIndex                  0x1a015d25   Thumb Code    36  uart_18xx_43xx.o(i.Chip_UART_GetClockIndex)
    i.Chip_UART_Init                         0x1a015d54   Section        0  uart_18xx_43xx.o(i.Chip_UART_Init)
    i.Chip_UART_SetBaud                      0x1a015da0   Section        0  uart_18xx_43xx.o(i.Chip_UART_SetBaud)
    i.Chip_UART_SetDivisorLatches            0x1a015de2   Section        0  uart_18xx_43xx.o(i.Chip_UART_SetDivisorLatches)
    Chip_UART_SetDivisorLatches              0x1a015de3   Thumb Code     6  uart_18xx_43xx.o(i.Chip_UART_SetDivisorLatches)
    i.SystemCoreClockUpdate                  0x1a015de8   Section        0  chip_18xx_43xx.o(i.SystemCoreClockUpdate)
    i._is_digit                              0x1a015dfc   Section        0  __printf_wp.o(i._is_digit)
    i.clock_init_delay                       0x1a015e0a   Section        0  sysinit_18xx_43xx.o(i.clock_init_delay)
    clock_init_delay                         0x1a015e0b   Thumb Code    36  sysinit_18xx_43xx.o(i.clock_init_delay)
    i.clock_main_init                        0x1a015e30   Section        0  sysinit_18xx_43xx.o(i.clock_main_init)
    clock_main_init                          0x1a015e31   Thumb Code   168  sysinit_18xx_43xx.o(i.clock_main_init)
    i.convertTimmingParam                    0x1a015eec   Section        0  emc_18xx_43xx.o(i.convertTimmingParam)
    convertTimmingParam                      0x1a015eed   Thumb Code    50  emc_18xx_43xx.o(i.convertTimmingParam)
    i.fpuInit                                0x1a015f24   Section        0  fpu_init.o(i.fpuInit)
    i.getClkDiv                              0x1a015f74   Section        0  i2s_18xx_43xx.o(i.getClkDiv)
    getClkDiv                                0x1a015f75   Thumb Code   354  i2s_18xx_43xx.o(i.getClkDiv)
    i.getClkRate                             0x1a0160d8   Section        0  i2c_18xx_43xx.o(i.getClkRate)
    getClkRate                               0x1a0160d9   Thumb Code    22  i2c_18xx_43xx.o(i.getClkRate)
    i.getColsLen                             0x1a0160f4   Section        0  emc_18xx_43xx.o(i.getColsLen)
    getColsLen                               0x1a0160f5   Thumb Code    40  emc_18xx_43xx.o(i.getColsLen)
    i.getCurState                            0x1a01611c   Section        0  i2c_18xx_43xx.o(i.getCurState)
    getCurState                              0x1a01611d   Thumb Code    10  i2c_18xx_43xx.o(i.getCurState)
    i.handleMasterXferState                  0x1a016126   Section        0  i2c_18xx_43xx.o(i.handleMasterXferState)
    i.initDynMem                             0x1a016206   Section        0  emc_18xx_43xx.o(i.initDynMem)
    i.initStaticMem                          0x1a0163ee   Section        0  emc_18xx_43xx.o(i.initStaticMem)
    i.prv_card_acquired                      0x1a016458   Section        0  sdmmc_18xx_43xx.o(i.prv_card_acquired)
    prv_card_acquired                        0x1a016459   Thumb Code    18  sdmmc_18xx_43xx.o(i.prv_card_acquired)
    i.prv_get_bits                           0x1a016470   Section        0  sdmmc_18xx_43xx.o(i.prv_get_bits)
    prv_get_bits                             0x1a016471   Thumb Code    64  sdmmc_18xx_43xx.o(i.prv_get_bits)
    i.prv_process_csd                        0x1a0164b0   Section        0  sdmmc_18xx_43xx.o(i.prv_process_csd)
    prv_process_csd                          0x1a0164b1   Thumb Code   392  sdmmc_18xx_43xx.o(i.prv_process_csd)
    i.prv_set_card_params                    0x1a01664c   Section        0  sdmmc_18xx_43xx.o(i.prv_set_card_params)
    prv_set_card_params                      0x1a01664d   Thumb Code    82  sdmmc_18xx_43xx.o(i.prv_set_card_params)
    i.prv_set_trans_state                    0x1a0166ac   Section        0  sdmmc_18xx_43xx.o(i.prv_set_trans_state)
    prv_set_trans_state                      0x1a0166ad   Thumb Code   108  sdmmc_18xx_43xx.o(i.prv_set_trans_state)
    i.sdmmc_execute_command                  0x1a016720   Section        0  sdmmc_18xx_43xx.o(i.sdmmc_execute_command)
    sdmmc_execute_command                    0x1a016721   Thumb Code   452  sdmmc_18xx_43xx.o(i.sdmmc_execute_command)
    i.startSlaverXfer                        0x1a0168e8   Section        0  i2c_18xx_43xx.o(i.startSlaverXfer)
    startSlaverXfer                          0x1a0168e9   Thumb Code    10  i2c_18xx_43xx.o(i.startSlaverXfer)
    x$fpl$fpinit                             0x1a0168f2   Section       10  fpinit.o(x$fpl$fpinit)
    $v0                                      0x1a0168f2   Number         0  fpinit.o(x$fpl$fpinit)
    .constdata                               0x1a0168fc   Section      256  yaffs_hweight.o(.constdata)
    yaffs_count_bits_table                   0x1a0168fc   Data         256  yaffs_hweight.o(.constdata)
    .constdata                               0x1a0169fc   Section      256  yaffs_ecc.o(.constdata)
    column_parity_table                      0x1a0169fc   Data         256  yaffs_ecc.o(.constdata)
    .constdata                               0x1a016afc   Section       40  yaffs_verify.o(.constdata)
    block_state_name                         0x1a016afc   Data          40  yaffs_verify.o(.constdata)
    .constdata                               0x1a016b24   Section       44  ff.o(.constdata)
    vst                                      0x1a016b24   Data          22  ff.o(.constdata)
    cst                                      0x1a016b3a   Data          22  ff.o(.constdata)
    .constdata                               0x1a016b50   Section       64  board.o(.constdata)
    ledports                                 0x1a016b50   Data           8  board.o(.constdata)
    ledbits                                  0x1a016b58   Data           8  board.o(.constdata)
    .constdata                               0x1a016b90   Section      700  board_sysinit.o(.constdata)
    InitClkStates                            0x1a016b90   Data          16  board_sysinit.o(.constdata)
    spifipinmuxing                           0x1a016ba0   Data          24  board_sysinit.o(.constdata)
    pinmuxing                                0x1a016bb8   Data         496  board_sysinit.o(.constdata)
    pinclockmuxing                           0x1a016da8   Data          16  board_sysinit.o(.constdata)
    MT48LC4M32_config                        0x1a016db8   Data         116  board_sysinit.o(.constdata)
    S29GL64N90_config                        0x1a016e2c   Data          32  board_sysinit.o(.constdata)
    .constdata                               0x1a016e4c   Section       31  uda1380.o(.constdata)
    UDA_sys_regs_dat                         0x1a016e4c   Data          11  uda1380.o(.constdata)
    UDA_interfil_regs_dat                    0x1a016e57   Data          11  uda1380.o(.constdata)
    UDA_decimator_regs_dat                   0x1a016e62   Data           9  uda1380.o(.constdata)
    .constdata                               0x1a016e6c   Section      108  clock_18xx_43xx.o(.constdata)
    periph_to_base                           0x1a016e6c   Data         108  clock_18xx_43xx.o(.constdata)
    .constdata                               0x1a016ed8   Section       72  sysinit_18xx_43xx.o(.constdata)
    InitClkStates                            0x1a016ed8   Data          72  sysinit_18xx_43xx.o(.constdata)
    .constdata                               0x1a016f20   Section       40  _printf_hex_int_ptr.o(.constdata)
    uc_hextab                                0x1a016f20   Data          20  _printf_hex_int_ptr.o(.constdata)
    lc_hextab                                0x1a016f34   Data          20  _printf_hex_int_ptr.o(.constdata)
    .constdata                               0x1a016f48   Section       17  __printf_flags_ss_wp.o(.constdata)
    maptable                                 0x1a016f48   Data          17  __printf_flags_ss_wp.o(.constdata)
    .conststring                             0x1a016f5c   Section       79  main.o(.conststring)
    .conststring                             0x1a016fac   Section      157  yaffs_checkptrw.o(.conststring)
    .conststring                             0x1a01704c   Section      589  yaffs_guts.o(.conststring)
    .conststring                             0x1a01729c   Section       91  yaffs_packedtags2.o(.conststring)
    .conststring                             0x1a0172f8   Section      390  yaffs_verify.o(.conststring)
    .conststring                             0x1a017480   Section       98  yaffs_yaffs1.o(.conststring)
    .conststring                             0x1a0174e4   Section      652  yaffs_yaffs2.o(.conststring)

    Global Symbols

    Symbol Name                              Value     Ov Type        Size  Object(Section)

    BuildAttributes$$THM_ISAv4$E$P$D$K$B$S$7EM$VFPi3$EXTD16$VFPS$VFMA$PE$A:L22UL41UL21$X:L11$S22US41US21$IEEE1$IW$USESV6$~STKCKD$USESV7$~SHL$OSPACE$ROPI$EBA8$UX$STANDARDLIB$REQ8$PRES8$EABIv2 0x00000000   Number         0  anon$$obj.o ABSOLUTE
    __ARM_use_no_argv                        0x00000000   Number         0  main.o ABSOLUTE
    _printf_flags                            0x00000000   Number         0  printf_stubs.o ABSOLUTE
    _printf_return_value                     0x00000000   Number         0  printf_stubs.o ABSOLUTE
    _printf_sizespec                         0x00000000   Number         0  printf_stubs.o ABSOLUTE
    _printf_widthprec                        0x00000000   Number         0  printf_stubs.o ABSOLUTE
    __ARM_exceptions_init                     - Undefined Weak Reference
    __alloca_initialize                       - Undefined Weak Reference
    __arm_preinit_                            - Undefined Weak Reference
    __cpp_initialize__aeabi_                  - Undefined Weak Reference
    __cxa_finalize                            - Undefined Weak Reference
    __rt_locale                               - Undefined Weak Reference
    __sigvec_lookup                           - Undefined Weak Reference
    _atexit_init                              - Undefined Weak Reference
    _call_atexit_fns                          - Undefined Weak Reference
    _clock_init                               - Undefined Weak Reference
    _fp_trap_init                             - Undefined Weak Reference
    _fp_trap_shutdown                         - Undefined Weak Reference
    _get_lc_collate                           - Undefined Weak Reference
    _get_lc_ctype                             - Undefined Weak Reference
    _get_lc_monetary                          - Undefined Weak Reference
    _get_lc_numeric                           - Undefined Weak Reference
    _get_lc_time                              - Undefined Weak Reference
    _getenv_init                              - Undefined Weak Reference
    _handle_redirection                       - Undefined Weak Reference
    _init_alloc                               - Undefined Weak Reference
    _init_user_alloc                          - Undefined Weak Reference
    _initio                                   - Undefined Weak Reference
    _printf_mbtowc                            - Undefined Weak Reference
    _printf_truncate_signed                   - Undefined Weak Reference
    _printf_truncate_unsigned                 - Undefined Weak Reference
    _rand_init                                - Undefined Weak Reference
    _signal_finish                            - Undefined Weak Reference
    _signal_init                              - Undefined Weak Reference
    _terminate_alloc                          - Undefined Weak Reference
    _terminate_user_alloc                     - Undefined Weak Reference
    _terminateio                              - Undefined Weak Reference
    raw_ready_queue                          0x10000000   Data         508  raw-os.o(.bss)
    raw_idle_obj                             0x10000200   Data         144  raw-os.o(.bss)
    idle_stack                               0x10000290   Data         320  raw-os.o(.bss)
    tick_head                                0x100003d0   Data          64  raw-os.o(.bss)
    raw_timer_obj                            0x10000410   Data         144  raw-os.o(.bss)
    timer_task_stack                         0x100004a0   Data        1024  raw-os.o(.bss)
    timer_sem                                0x100008a0   Data          36  raw-os.o(.bss)
    timer_mutex                              0x100008c4   Data          40  raw-os.o(.bss)
    raw_task_debug                           0x100008ec   Data          56  raw-os.o(.bss)
    tick_task_obj                            0x10000928   Data         144  raw-os.o(.bss)
    tick_task_stack                          0x100009b8   Data        1024  raw-os.o(.bss)
    tick_semaphore_obj                       0x10000db8   Data          36  raw-os.o(.bss)
    shell_task_stack                         0x10000de0   Data        1600  main.o(.bss)
    shell_task_obj                           0x10001420   Data         144  main.o(.bss)
    uart_sema                                0x100014b0   Data          36  main.o(.bss)
    uart_fifo                                0x100014d4   Data          24  main.o(.bss)
    sdcardinfo                               0x100014ec   Data         872  main.o(.bss)
    fs                                       0x100018d4   Data         560  main.o(.bss)
    file                                     0x10001b04   Data         556  main.o(.bss)
    idle_task_exit                           0x10080000   Data           1  raw-os.o(.data)
    raw_sched_lock                           0x10080001   Data           1  raw-os.o(.data)
    raw_int_nesting                          0x10080002   Data           1  raw-os.o(.data)
    raw_os_active                            0x10080004   Data           2  raw-os.o(.data)
    high_ready_obj                           0x10080008   Data           4  raw-os.o(.data)
    raw_task_active                          0x1008000c   Data           4  raw-os.o(.data)
    raw_tick_count                           0x10080010   Data           4  raw-os.o(.data)
    raw_timer_count                          0x10080014   Data           4  raw-os.o(.data)
    raw_timer_ctrl                           0x10080018   Data           4  raw-os.o(.data)
    raw_idle_count                           0x10080020   Data           8  raw-os.o(.data)
    timer_head                               0x10080028   Data           8  raw-os.o(.data)
    sys_time_tick                            0x10080030   Data           8  raw-os.o(.data)
    _mem_minfragment                         0x10080038   Data           4  raw_malloc.o(.data)
    K9F_NF_CLE                               0x10080040   Data           4  k9f1g08.o(.data)
    K9F_NF_ALE                               0x10080044   Data           4  k9f1g08.o(.data)
    K9F_NF_DATA                              0x10080048   Data           4  k9f1g08.o(.data)
    yaffsfs_deviceList                       0x1008005c   Data           8  yaffsfs.o(.data)
    yaffs_wr_attempts                        0x1008006c   Data           4  yaffsfs.o(.data)
    yaffs_trace_mask                         0x10080084   Data           4  yaffscfg2k.o(.data)
    __stdout                                 0x10080094   Data           4  board.o(.data)
    __stdin                                  0x10080098   Data           4  board.o(.data)
    __stderr                                 0x1008009c   Data           4  board.o(.data)
    g_isPenDn                                0x100800a0   Data           4  board.o(.data)
    g_isNewPenDn                             0x100800a4   Data           4  board.o(.data)
    SystemCoreClock                          0x100800a8   Data           4  chip_18xx_43xx.o(.data)
    __libspace_start                         0x100834bc   Data          96  libspace.o(.bss)
    __temporary_stack_top$libspace           0x1008351c   Data           0  libspace.o(.bss)
    Stack_Mem                                0x10083620   Data        1536  keil_startup_lpc18xx43xx.o(STACK)
    __Vectors                                0x1a000000   Data           4  keil_startup_lpc18xx43xx.o(RESET)
    __main                                   0x1a000115   Thumb Code     8  __main.o(!!!main)
    __scatterload                            0x1a00011d   Thumb Code     0  __scatter.o(!!!scatter)
    __scatterload_rt2                        0x1a00011d   Thumb Code    44  __scatter.o(!!!scatter)
    __scatterload_rt2_thumb_only             0x1a00011d   Thumb Code     0  __scatter.o(!!!scatter)
    __scatterload_null                       0x1a00012b   Thumb Code     0  __scatter.o(!!!scatter)
    __scatterload_copy                       0x1a000151   Thumb Code    26  __scatter_copy.o(!!handler_copy)
    __scatterload_zeroinit                   0x1a00016d   Thumb Code    28  __scatter_zi.o(!!handler_zi)
    _printf_p                                0x1a000189   Thumb Code     0  _printf_p.o(.ARM.Collect$$_printf_percent$$00000002)
    _printf_percent                          0x1a000189   Thumb Code     0  _printf_percent.o(.ARM.Collect$$_printf_percent$$00000000)
    _printf_ll                               0x1a00018f   Thumb Code     0  _printf_ll.o(.ARM.Collect$$_printf_percent$$00000007)
    _printf_d                                0x1a000199   Thumb Code     0  _printf_d.o(.ARM.Collect$$_printf_percent$$00000009)
    _printf_u                                0x1a00019f   Thumb Code     0  _printf_u.o(.ARM.Collect$$_printf_percent$$0000000A)
    _printf_x                                0x1a0001a5   Thumb Code     0  _printf_x.o(.ARM.Collect$$_printf_percent$$0000000C)
    _printf_lld                              0x1a0001ab   Thumb Code     0  _printf_lld.o(.ARM.Collect$$_printf_percent$$0000000E)
    _printf_s                                0x1a0001b1   Thumb Code     0  _printf_s.o(.ARM.Collect$$_printf_percent$$00000014)
    _printf_percent_end                      0x1a0001b7   Thumb Code     0  _printf_percent_end.o(.ARM.Collect$$_printf_percent$$00000017)
    __rt_lib_init                            0x1a0001bb   Thumb Code     0  libinit.o(.ARM.Collect$$libinit$$00000000)
    __rt_lib_init_fp_1                       0x1a0001bd   Thumb Code     0  libinit2.o(.ARM.Collect$$libinit$$00000001)
    __rt_lib_init_alloca_1                   0x1a0001c1   Thumb Code     0  libinit2.o(.ARM.Collect$$libinit$$0000002E)
    __rt_lib_init_argv_1                     0x1a0001c1   Thumb Code     0  libinit2.o(.ARM.Collect$$libinit$$0000002C)
    __rt_lib_init_atexit_1                   0x1a0001c1   Thumb Code     0  libinit2.o(.ARM.Collect$$libinit$$0000001B)
    __rt_lib_init_clock_1                    0x1a0001c1   Thumb Code     0  libinit2.o(.ARM.Collect$$libinit$$00000021)
    __rt_lib_init_cpp_1                      0x1a0001c1   Thumb Code     0  libinit2.o(.ARM.Collect$$libinit$$00000032)
    __rt_lib_init_exceptions_1               0x1a0001c1   Thumb Code     0  libinit2.o(.ARM.Collect$$libinit$$00000030)
    __rt_lib_init_fp_trap_1                  0x1a0001c1   Thumb Code     0  libinit2.o(.ARM.Collect$$libinit$$0000001F)
    __rt_lib_init_getenv_1                   0x1a0001c1   Thumb Code     0  libinit2.o(.ARM.Collect$$libinit$$00000023)
    __rt_lib_init_heap_1                     0x1a0001c1   Thumb Code     0  libinit2.o(.ARM.Collect$$libinit$$0000000A)
    __rt_lib_init_lc_collate_1               0x1a0001c1   Thumb Code     0  libinit2.o(.ARM.Collect$$libinit$$00000011)
    __rt_lib_init_lc_ctype_1                 0x1a0001c1   Thumb Code     0  libinit2.o(.ARM.Collect$$libinit$$00000013)
    __rt_lib_init_lc_monetary_1              0x1a0001c1   Thumb Code     0  libinit2.o(.ARM.Collect$$libinit$$00000015)
    __rt_lib_init_lc_numeric_1               0x1a0001c1   Thumb Code     0  libinit2.o(.ARM.Collect$$libinit$$00000017)
    __rt_lib_init_lc_time_1                  0x1a0001c1   Thumb Code     0  libinit2.o(.ARM.Collect$$libinit$$00000019)
    __rt_lib_init_preinit_1                  0x1a0001c1   Thumb Code     0  libinit2.o(.ARM.Collect$$libinit$$00000004)
    __rt_lib_init_rand_1                     0x1a0001c1   Thumb Code     0  libinit2.o(.ARM.Collect$$libinit$$0000000E)
    __rt_lib_init_return                     0x1a0001c1   Thumb Code     0  libinit2.o(.ARM.Collect$$libinit$$00000033)
    __rt_lib_init_signal_1                   0x1a0001c1   Thumb Code     0  libinit2.o(.ARM.Collect$$libinit$$0000001D)
    __rt_lib_init_stdio_1                    0x1a0001c1   Thumb Code     0  libinit2.o(.ARM.Collect$$libinit$$00000025)
    __rt_lib_init_user_alloc_1               0x1a0001c1   Thumb Code     0  libinit2.o(.ARM.Collect$$libinit$$0000000C)
    __rt_lib_shutdown                        0x1a0001c3   Thumb Code     0  libshutdown.o(.ARM.Collect$$libshutdown$$00000000)
    __rt_lib_shutdown_cpp_1                  0x1a0001c5   Thumb Code     0  libshutdown2.o(.ARM.Collect$$libshutdown$$00000002)
    __rt_lib_shutdown_fp_trap_1              0x1a0001c5   Thumb Code     0  libshutdown2.o(.ARM.Collect$$libshutdown$$00000007)
    __rt_lib_shutdown_heap_1                 0x1a0001c5   Thumb Code     0  libshutdown2.o(.ARM.Collect$$libshutdown$$0000000F)
    __rt_lib_shutdown_return                 0x1a0001c5   Thumb Code     0  libshutdown2.o(.ARM.Collect$$libshutdown$$00000010)
    __rt_lib_shutdown_signal_1               0x1a0001c5   Thumb Code     0  libshutdown2.o(.ARM.Collect$$libshutdown$$0000000A)
    __rt_lib_shutdown_stdio_1                0x1a0001c5   Thumb Code     0  libshutdown2.o(.ARM.Collect$$libshutdown$$00000004)
    __rt_lib_shutdown_user_alloc_1           0x1a0001c5   Thumb Code     0  libshutdown2.o(.ARM.Collect$$libshutdown$$0000000C)
    __rt_entry                               0x1a0001c7   Thumb Code     0  __rtentry.o(.ARM.Collect$$rtentry$$00000000)
    __rt_entry_presh_1                       0x1a0001c7   Thumb Code     0  __rtentry2.o(.ARM.Collect$$rtentry$$00000002)
    __rt_entry_sh                            0x1a0001c7   Thumb Code     0  __rtentry4.o(.ARM.Collect$$rtentry$$00000004)
    __rt_entry_li                            0x1a0001cd   Thumb Code     0  __rtentry2.o(.ARM.Collect$$rtentry$$0000000A)
    __rt_entry_postsh_1                      0x1a0001cd   Thumb Code     0  __rtentry2.o(.ARM.Collect$$rtentry$$00000009)
    __rt_entry_main                          0x1a0001d1   Thumb Code     0  __rtentry2.o(.ARM.Collect$$rtentry$$0000000D)
    __rt_entry_postli_1                      0x1a0001d1   Thumb Code     0  __rtentry2.o(.ARM.Collect$$rtentry$$0000000C)
    __rt_exit                                0x1a0001d9   Thumb Code     0  rtexit.o(.ARM.Collect$$rtexit$$00000000)
    __rt_exit_ls                             0x1a0001db   Thumb Code     0  rtexit2.o(.ARM.Collect$$rtexit$$00000003)
    __rt_exit_prels_1                        0x1a0001db   Thumb Code     0  rtexit2.o(.ARM.Collect$$rtexit$$00000002)
    __rt_exit_exit                           0x1a0001df   Thumb Code     0  rtexit2.o(.ARM.Collect$$rtexit$$00000004)
    get_ready_task                           0x1a0001e5   Thumb Code    16  raw-os.o(.text)
    raw_sched                                0x1a0001f5   Thumb Code    46  raw-os.o(.text)
    raw_semaphore_create                     0x1a000223   Thumb Code    54  raw-os.o(.text)
    raw_task_semaphore_create                0x1a000259   Thumb Code    16  raw-os.o(.text)
    tick_list_remove                         0x1a000269   Thumb Code    24  raw-os.o(.text)
    mutex_priority_look                      0x1a000281   Thumb Code    74  raw-os.o(.text)
    change_pend_list_priority                0x1a0002cb   Thumb Code    34  raw-os.o(.text)
    add_ready_list_end                       0x1a0002ed   Thumb Code    40  raw-os.o(.text)
    add_ready_list_head                      0x1a000315   Thumb Code    40  raw-os.o(.text)
    bit_search_first_one                     0x1a00033d   Thumb Code   116  raw-os.o(.text)
    remove_ready_list                        0x1a0003b1   Thumb Code   104  raw-os.o(.text)
    change_internal_task_priority            0x1a000419   Thumb Code   168  raw-os.o(.text)
    mutex_state_change                       0x1a0004c1   Thumb Code    38  raw-os.o(.text)
    add_ready_list                           0x1a0004e7   Thumb Code    20  raw-os.o(.text)
    tick_list_update                         0x1a0004fb   Thumb Code   246  raw-os.o(.text)
    block_state_post_process                 0x1a0005f1   Thumb Code    62  raw-os.o(.text)
    tick_list_insert                         0x1a00062f   Thumb Code    62  raw-os.o(.text)
    raw_pend_object                          0x1a00066d   Thumb Code    70  raw-os.o(.text)
    raw_semaphore_get                        0x1a0006b3   Thumb Code   140  raw-os.o(.text)
    raw_task_semaphore_get                   0x1a00073f   Thumb Code    10  raw-os.o(.text)
    raw_task_create                          0x1a000765   Thumb Code   266  raw-os.o(.text)
    tick_task_start                          0x1a00086f   Thumb Code    56  raw-os.o(.text)
    raw_mutex_create                         0x1a0008a7   Thumb Code    66  raw-os.o(.text)
    raw_wake_object                          0x1a000949   Thumb Code     2  raw-os.o(.text)
    raw_mutex_put                            0x1a00094b   Thumb Code   170  raw-os.o(.text)
    raw_mutex_get                            0x1a0009f5   Thumb Code   346  raw-os.o(.text)
    raw_semaphore_set                        0x1a000b4f   Thumb Code    84  raw-os.o(.text)
    timer_task                               0x1a000ba3   Thumb Code   166  raw-os.o(.text)
    raw_timer_init                           0x1a000c49   Thumb Code    66  raw-os.o(.text)
    raw_idle_task                            0x1a000c8b   Thumb Code    30  raw-os.o(.text)
    tick_list_init                           0x1a000ca9   Thumb Code    24  raw-os.o(.text)
    run_queue_init                           0x1a000cc1   Thumb Code    26  raw-os.o(.text)
    raw_os_init                              0x1a000cdb   Thumb Code   132  raw-os.o(.text)
    raw_os_start                             0x1a000d5f   Thumb Code    36  raw-os.o(.text)
    move_to_ready_list_end                   0x1a000d83   Thumb Code    34  raw-os.o(.text)
    calculate_time_slice                     0x1a000da5   Thumb Code    76  raw-os.o(.text)
    wake_send_msg                            0x1a000df1   Thumb Code     4  raw-os.o(.text)
    wake_send_msg_size                       0x1a000df5   Thumb Code     6  raw-os.o(.text)
    delete_pend_obj                          0x1a000dfb   Thumb Code    98  raw-os.o(.text)
    raw_task_stack_check                     0x1a000e5d   Thumb Code    52  raw-os.o(.text)
    raw_isr_stack_check                      0x1a000e91   Thumb Code    14  raw-os.o(.text)
    raw_disable_sche                         0x1a000e9f   Thumb Code    42  raw-os.o(.text)
    raw_enable_sche                          0x1a000ec9   Thumb Code    58  raw-os.o(.text)
    raw_sleep                                0x1a000f03   Thumb Code   174  raw-os.o(.text)
    raw_task_yield                           0x1a000fb1   Thumb Code    36  raw-os.o(.text)
    raw_time_sleep                           0x1a000fd5   Thumb Code    94  raw-os.o(.text)
    task_suspend                             0x1a001033   Thumb Code   154  raw-os.o(.text)
    raw_task_suspend                         0x1a0010cd   Thumb Code    24  raw-os.o(.text)
    task_resume                              0x1a0010e5   Thumb Code   162  raw-os.o(.text)
    raw_task_resume                          0x1a001187   Thumb Code    10  raw-os.o(.text)
    chg_pri_mutex                            0x1a001191   Thumb Code   114  raw-os.o(.text)
    raw_task_priority_change                 0x1a001203   Thumb Code   140  raw-os.o(.text)
    raw_task_free_mutex                      0x1a00128f   Thumb Code    68  raw-os.o(.text)
    raw_task_delete                          0x1a0012d3   Thumb Code   180  raw-os.o(.text)
    raw_set_task_user_point                  0x1a001387   Thumb Code    34  raw-os.o(.text)
    raw_get_task_user_point                  0x1a0013a9   Thumb Code     8  raw-os.o(.text)
    raw_task_time_slice_change               0x1a0013b1   Thumb Code    52  raw-os.o(.text)
    raw_set_sched_way                        0x1a0013e5   Thumb Code    56  raw-os.o(.text)
    raw_get_sched_way                        0x1a00141d   Thumb Code    46  raw-os.o(.text)
    raw_task_wait_abort                      0x1a00144b   Thumb Code   164  raw-os.o(.text)
    raw_task_identify                        0x1a0014ef   Thumb Code     6  raw-os.o(.text)
    raw_iter_block_task                      0x1a0014f5   Thumb Code    72  raw-os.o(.text)
    raw_get_system_global_space              0x1a00153d   Thumb Code     6  raw-os.o(.text)
    raw_block_pool_create                    0x1a001543   Thumb Code   108  raw-os.o(.text)
    raw_block_allocate                       0x1a0015af   Thumb Code    76  raw-os.o(.text)
    raw_block_release                        0x1a0015fb   Thumb Code    52  raw-os.o(.text)
    raw_byte_pool_create                     0x1a00162f   Thumb Code    88  raw-os.o(.text)
    raw_byte_allocate                        0x1a001687   Thumb Code    94  raw-os.o(.text)
    raw_byte_release                         0x1a0016e5   Thumb Code    64  raw-os.o(.text)
    raw_event_create                         0x1a001725   Thumb Code    42  raw-os.o(.text)
    raw_event_get                            0x1a00174f   Thumb Code   238  raw-os.o(.text)
    event_set                                0x1a00183d   Thumb Code   132  raw-os.o(.text)
    raw_event_set                            0x1a0018c1   Thumb Code    22  raw-os.o(.text)
    raw_event_delete                         0x1a0018d7   Thumb Code    96  raw-os.o(.text)
    raw_mutex_delete                         0x1a001937   Thumb Code   104  raw-os.o(.text)
    raw_queue_create                         0x1a00199f   Thumb Code    78  raw-os.o(.text)
    raw_queue_block_way_set                  0x1a0019ed   Thumb Code    14  raw-os.o(.text)
    raw_queue_full_register                  0x1a0019fb   Thumb Code    32  raw-os.o(.text)
    msg_post                                 0x1a001a1b   Thumb Code   198  raw-os.o(.text)
    raw_queue_front_post                     0x1a001ae1   Thumb Code    22  raw-os.o(.text)
    raw_queue_end_post                       0x1a001af7   Thumb Code    22  raw-os.o(.text)
    raw_queue_post_notify                    0x1a001b0d   Thumb Code    22  raw-os.o(.text)
    raw_queue_all_post                       0x1a001b23   Thumb Code    20  raw-os.o(.text)
    raw_queue_send_notify                    0x1a001b37   Thumb Code    56  raw-os.o(.text)
    raw_queue_receive                        0x1a001b6f   Thumb Code   214  raw-os.o(.text)
    raw_queue_full_check                     0x1a001c45   Thumb Code    58  raw-os.o(.text)
    raw_queue_flush                          0x1a001c7f   Thumb Code    70  raw-os.o(.text)
    raw_queue_delete                         0x1a001cc5   Thumb Code    94  raw-os.o(.text)
    raw_queue_get_information                0x1a001d23   Thumb Code    82  raw-os.o(.text)
    raw_queue_buffer_create                  0x1a001d75   Thumb Code    98  raw-os.o(.text)
    queue_buffer_post                        0x1a001dd7   Thumb Code   194  raw-os.o(.text)
    raw_queue_buffer_end_post                0x1a001e99   Thumb Code    30  raw-os.o(.text)
    raw_queue_buffer_receive                 0x1a001eb7   Thumb Code   288  raw-os.o(.text)
    raw_queue_buffer_flush                   0x1a001fd7   Thumb Code    62  raw-os.o(.text)
    raw_queue_buffer_delete                  0x1a002015   Thumb Code    94  raw-os.o(.text)
    raw_queue_buffer_info_get                0x1a002073   Thumb Code    66  raw-os.o(.text)
    raw_queue_size_create                    0x1a0020b5   Thumb Code    90  raw-os.o(.text)
    raw_queue_size_full_register             0x1a00210f   Thumb Code    32  raw-os.o(.text)
    msg_size_post                            0x1a00212f   Thumb Code   198  raw-os.o(.text)
    raw_queue_size_receive                   0x1a0021f5   Thumb Code   258  raw-os.o(.text)
    raw_queue_size_front_post                0x1a0022f7   Thumb Code    30  raw-os.o(.text)
    raw_queue_size_end_post                  0x1a002315   Thumb Code    30  raw-os.o(.text)
    raw_queue_size_all_post                  0x1a002333   Thumb Code    28  raw-os.o(.text)
    raw_queue_size_full_check                0x1a00234f   Thumb Code    58  raw-os.o(.text)
    raw_queue_size_flush                     0x1a002389   Thumb Code    74  raw-os.o(.text)
    raw_queue_size_delete                    0x1a0023d3   Thumb Code    94  raw-os.o(.text)
    raw_queue_size_get_information           0x1a002431   Thumb Code    78  raw-os.o(.text)
    raw_semaphore_block_way_set              0x1a00247f   Thumb Code    26  raw-os.o(.text)
    semaphore_put                            0x1a002499   Thumb Code   138  raw-os.o(.text)
    raw_semaphore_put                        0x1a002523   Thumb Code    12  raw-os.o(.text)
    raw_semaphore_put_notify                 0x1a00252f   Thumb Code    12  raw-os.o(.text)
    raw_semaphore_put_all                    0x1a00253b   Thumb Code    12  raw-os.o(.text)
    raw_semphore_send_notify                 0x1a002547   Thumb Code    56  raw-os.o(.text)
    raw_semaphore_delete                     0x1a00257f   Thumb Code    94  raw-os.o(.text)
    raw_stack_check                          0x1a0025dd   Thumb Code    68  raw-os.o(.text)
    raw_statistics_check                     0x1a002621   Thumb Code    46  raw-os.o(.text)
    raw_finish_int                           0x1a00264f   Thumb Code    80  raw-os.o(.text)
    call_timer_task                          0x1a00269f   Thumb Code    20  raw-os.o(.text)
    raw_task_semaphore_put                   0x1a0026b3   Thumb Code     4  raw-os.o(.text)
    raw_time_tick                            0x1a0026b7   Thumb Code    48  raw-os.o(.text)
    raw_enter_interrupt                      0x1a0026e7   Thumb Code    62  raw-os.o(.text)
    raw_system_time_get                      0x1a002725   Thumb Code    36  raw-os.o(.text)
    raw_os_version_get                       0x1a002749   Thumb Code     6  raw-os.o(.text)
    raw_task_qsize_create                    0x1a00274f   Thumb Code    20  raw-os.o(.text)
    raw_task_qsize_receive                   0x1a002763   Thumb Code    20  raw-os.o(.text)
    raw_task_qsize_front_post                0x1a002777   Thumb Code     4  raw-os.o(.text)
    raw_task_qsize_end_post                  0x1a00277b   Thumb Code     4  raw-os.o(.text)
    raw_task_qsize_flush                     0x1a00277f   Thumb Code     4  raw-os.o(.text)
    raw_task_qsize_delete                    0x1a002783   Thumb Code     4  raw-os.o(.text)
    raw_task_qsize_get_information           0x1a002787   Thumb Code     4  raw-os.o(.text)
    raw_task_semaphore_set                   0x1a00278b   Thumb Code     6  raw-os.o(.text)
    raw_task_semaphore_delete                0x1a002791   Thumb Code     4  raw-os.o(.text)
    raw_timer_activate                       0x1a002795   Thumb Code   132  raw-os.o(.text)
    raw_timer_create                         0x1a002819   Thumb Code    96  raw-os.o(.text)
    raw_timer_change                         0x1a002879   Thumb Code   104  raw-os.o(.text)
    raw_timer_deactivate                     0x1a0028e1   Thumb Code   132  raw-os.o(.text)
    raw_timer_delete                         0x1a002965   Thumb Code   108  raw-os.o(.text)
    fifo_init                                0x1a002b4d   Thumb Code    68  fifo.o(.text)
    fifo_in                                  0x1a002b91   Thumb Code    92  fifo.o(.text)
    fifo_out_peek                            0x1a002c2b   Thumb Code    38  fifo.o(.text)
    fifo_out                                 0x1a002c51   Thumb Code    50  fifo.o(.text)
    fifo_out_all                             0x1a002c83   Thumb Code    62  fifo.o(.text)
    check_malloc_test                        0x1a002d93   Thumb Code     4  raw_malloc.o(.text)
    searchFreeArea                           0x1a002d97   Thumb Code    68  raw_malloc.o(.text)
    appendFreeArea                           0x1a002ddb   Thumb Code    60  raw_malloc.o(.text)
    raw_malloc                               0x1a002fc7   Thumb Code    50  raw_malloc.o(.text)
    raw_free                                 0x1a002ff9   Thumb Code    46  raw_malloc.o(.text)
    raw_calloc                               0x1a003027   Thumb Code    66  raw_malloc.o(.text)
    raw_realloc                              0x1a003069   Thumb Code    56  raw_malloc.o(.text)
    raw_malloc_init                          0x1a0030a1   Thumb Code   264  raw_malloc.o(.text)
    system_page_table_get                    0x1a0033a7   Thumb Code     4  raw_page.o(.text)
    raw_page_allocate                        0x1a0033ab   Thumb Code    50  raw_page.o(.text)
    raw_page_free                            0x1a0033dd   Thumb Code    88  raw_page.o(.text)
    raw_page_init                            0x1a003435   Thumb Code   108  raw_page.o(.text)
    OS_CPU_SR_Save                           0x1a003671   Thumb Code     0  cpu.o(.text)
    OS_CPU_SR_Restore                        0x1a003679   Thumb Code     0  cpu.o(.text)
    CPU_IntDis                               0x1a00367f   Thumb Code     0  cpu.o(.text)
    CPU_IntEn                                0x1a003683   Thumb Code     0  cpu.o(.text)
    raw_start_first_task                     0x1a003687   Thumb Code     0  cpu.o(.text)
    port_task_switch                         0x1a0036af   Thumb Code     0  cpu.o(.text)
    raw_int_switch                           0x1a0036b9   Thumb Code     0  cpu.o(.text)
    PendSV_Handler                           0x1a0036c3   Thumb Code     0  cpu.o(.text)
    port_stack_init                          0x1a00371d   Thumb Code   324  port.o(.text)
    port_isr_stack_check                     0x1a003861   Thumb Code     2  port.o(.text)
    port_isr_stack_free_check                0x1a003863   Thumb Code    20  port.o(.text)
    system_mpu_enable                        0x1a003877   Thumb Code    62  port.o(.text)
    task_stack_mpu_set                       0x1a0038b5   Thumb Code    38  port.o(.text)
    raw_os_init_hook                         0x1a0038f1   Thumb Code    14  port_hook.o(.text)
    raw_task_delete_hook                     0x1a0038ff   Thumb Code     2  port_hook.o(.text)
    raw_task_abort_hook                      0x1a003901   Thumb Code     2  port_hook.o(.text)
    raw_idle_task_hook                       0x1a003903   Thumb Code     2  port_hook.o(.text)
    raw_task_switch_hook                     0x1a003905   Thumb Code     2  port_hook.o(.text)
    raw_tick_hook                            0x1a003907   Thumb Code     2  port_hook.o(.text)
    task_create_hook                         0x1a003909   Thumb Code     2  port_hook.o(.text)
    raw_idle_coroutine_hook                  0x1a00390b   Thumb Code     4  port_hook.o(.text)
    raw_memcpy                               0x1a00390f   Thumb Code    74  user_extension.o(.text)
    raw_memset                               0x1a003959   Thumb Code    62  user_extension.o(.text)
    port_system_error_process                0x1a003997   Thumb Code    88  port_error_process.o(.text)
    cpu_timer_init                           0x1a0039f1   Thumb Code    26  port_extension.o(.text)
    user_cpu_time_get                        0x1a003a0b   Thumb Code     6  port_extension.o(.text)
    user_sys_time_get                        0x1a003a11   Thumb Code     6  port_extension.o(.text)
    Reset_Handler                            0x1a003a21   Thumb Code     8  keil_startup_lpc18xx43xx.o(.text)
    NMI_Handler                              0x1a003a29   Thumb Code     2  keil_startup_lpc18xx43xx.o(.text)
    HardFault_Handler                        0x1a003a2b   Thumb Code     2  keil_startup_lpc18xx43xx.o(.text)
    MemManage_Handler                        0x1a003a2d   Thumb Code     2  keil_startup_lpc18xx43xx.o(.text)
    BusFault_Handler                         0x1a003a2f   Thumb Code     2  keil_startup_lpc18xx43xx.o(.text)
    UsageFault_Handler                       0x1a003a31   Thumb Code     2  keil_startup_lpc18xx43xx.o(.text)
    SVC_Handler                              0x1a003a33   Thumb Code     2  keil_startup_lpc18xx43xx.o(.text)
    DebugMon_Handler                         0x1a003a35   Thumb Code     2  keil_startup_lpc18xx43xx.o(.text)
    UnHandled_Vector                         0x1a003a3b   Thumb Code     2  keil_startup_lpc18xx43xx.o(.text)
    ADC0_IRQHandler                          0x1a003a3d   Thumb Code     0  keil_startup_lpc18xx43xx.o(.text)
    ADC1_IRQHandler                          0x1a003a3d   Thumb Code     0  keil_startup_lpc18xx43xx.o(.text)
    ADCHS_IRQHandler                         0x1a003a3d   Thumb Code     0  keil_startup_lpc18xx43xx.o(.text)
    ATIMER_IRQHandler                        0x1a003a3d   Thumb Code     0  keil_startup_lpc18xx43xx.o(.text)
    CAN0_IRQHandler                          0x1a003a3d   Thumb Code     0  keil_startup_lpc18xx43xx.o(.text)
    CAN1_IRQHandler                          0x1a003a3d   Thumb Code     0  keil_startup_lpc18xx43xx.o(.text)
    DAC_IRQHandler                           0x1a003a3d   Thumb Code     0  keil_startup_lpc18xx43xx.o(.text)
    DMA_IRQHandler                           0x1a003a3d   Thumb Code     0  keil_startup_lpc18xx43xx.o(.text)
    ETH_IRQHandler                           0x1a003a3d   Thumb Code     0  keil_startup_lpc18xx43xx.o(.text)
    EVRT_IRQHandler                          0x1a003a3d   Thumb Code     0  keil_startup_lpc18xx43xx.o(.text)
    FLASHEEPROM_IRQHandler                   0x1a003a3d   Thumb Code     0  keil_startup_lpc18xx43xx.o(.text)
    GINT0_IRQHandler                         0x1a003a3d   Thumb Code     0  keil_startup_lpc18xx43xx.o(.text)
    GINT1_IRQHandler                         0x1a003a3d   Thumb Code     0  keil_startup_lpc18xx43xx.o(.text)
    GPIO0_IRQHandler                         0x1a003a3d   Thumb Code     0  keil_startup_lpc18xx43xx.o(.text)
    GPIO1_IRQHandler                         0x1a003a3d   Thumb Code     0  keil_startup_lpc18xx43xx.o(.text)
    GPIO2_IRQHandler                         0x1a003a3d   Thumb Code     0  keil_startup_lpc18xx43xx.o(.text)
    GPIO3_IRQHandler                         0x1a003a3d   Thumb Code     0  keil_startup_lpc18xx43xx.o(.text)
    GPIO4_IRQHandler                         0x1a003a3d   Thumb Code     0  keil_startup_lpc18xx43xx.o(.text)
    GPIO5_IRQHandler                         0x1a003a3d   Thumb Code     0  keil_startup_lpc18xx43xx.o(.text)
    GPIO6_IRQHandler                         0x1a003a3d   Thumb Code     0  keil_startup_lpc18xx43xx.o(.text)
    GPIO7_IRQHandler                         0x1a003a3d   Thumb Code     0  keil_startup_lpc18xx43xx.o(.text)
    I2C0_IRQHandler                          0x1a003a3d   Thumb Code     0  keil_startup_lpc18xx43xx.o(.text)
    I2C1_IRQHandler                          0x1a003a3d   Thumb Code     0  keil_startup_lpc18xx43xx.o(.text)
    I2S0_IRQHandler                          0x1a003a3d   Thumb Code     0  keil_startup_lpc18xx43xx.o(.text)
    I2S1_IRQHandler                          0x1a003a3d   Thumb Code     0  keil_startup_lpc18xx43xx.o(.text)
    LCD_IRQHandler                           0x1a003a3d   Thumb Code     0  keil_startup_lpc18xx43xx.o(.text)
    MCPWM_IRQHandler                         0x1a003a3d   Thumb Code     0  keil_startup_lpc18xx43xx.o(.text)
    MX_CORE_IRQHandler                       0x1a003a3d   Thumb Code     0  keil_startup_lpc18xx43xx.o(.text)
    QEI_IRQHandler                           0x1a003a3d   Thumb Code     0  keil_startup_lpc18xx43xx.o(.text)
    RIT_IRQHandler                           0x1a003a3d   Thumb Code     0  keil_startup_lpc18xx43xx.o(.text)
    RTC_IRQHandler                           0x1a003a3d   Thumb Code     0  keil_startup_lpc18xx43xx.o(.text)
    SCT_IRQHandler                           0x1a003a3d   Thumb Code     0  keil_startup_lpc18xx43xx.o(.text)
    SGPIO_IRQHandler                         0x1a003a3d   Thumb Code     0  keil_startup_lpc18xx43xx.o(.text)
    SPIFI_IRQHandler                         0x1a003a3d   Thumb Code     0  keil_startup_lpc18xx43xx.o(.text)
    SPI_IRQHandler                           0x1a003a3d   Thumb Code     0  keil_startup_lpc18xx43xx.o(.text)
    SSP0_IRQHandler                          0x1a003a3d   Thumb Code     0  keil_startup_lpc18xx43xx.o(.text)
    SSP1_IRQHandler                          0x1a003a3d   Thumb Code     0  keil_startup_lpc18xx43xx.o(.text)
    TIMER0_IRQHandler                        0x1a003a3d   Thumb Code     0  keil_startup_lpc18xx43xx.o(.text)
    TIMER1_IRQHandler                        0x1a003a3d   Thumb Code     0  keil_startup_lpc18xx43xx.o(.text)
    TIMER2_IRQHandler                        0x1a003a3d   Thumb Code     0  keil_startup_lpc18xx43xx.o(.text)
    TIMER3_IRQHandler                        0x1a003a3d   Thumb Code     0  keil_startup_lpc18xx43xx.o(.text)
    UART0_IRQHandler                         0x1a003a3d   Thumb Code     0  keil_startup_lpc18xx43xx.o(.text)
    UART1_IRQHandler                         0x1a003a3d   Thumb Code     0  keil_startup_lpc18xx43xx.o(.text)
    UART2_IRQHandler                         0x1a003a3d   Thumb Code     0  keil_startup_lpc18xx43xx.o(.text)
    USB0_IRQHandler                          0x1a003a3d   Thumb Code     0  keil_startup_lpc18xx43xx.o(.text)
    USB1_IRQHandler                          0x1a003a3d   Thumb Code     0  keil_startup_lpc18xx43xx.o(.text)
    WDT_IRQHandler                           0x1a003a3d   Thumb Code     0  keil_startup_lpc18xx43xx.o(.text)
    __user_initial_stackheap                 0x1a003a41   Thumb Code     0  keil_startup_lpc18xx43xx.o(.text)
    SystemInit                               0x1a003a65   Thumb Code    20  sysinit.o(.text)
    scu_pinmux                               0x1a003a81   Thumb Code    16  lpc43xx_scu.o(.text)
    emc_init                                 0x1a003a95   Thumb Code   944  lpc43xx_sdram.o(.text)
    sdram_init                               0x1a003e45   Thumb Code   144  lpc43xx_sdram.o(.text)
    k9f_init                                 0x1a003ef1   Thumb Code    88  k9f1g08.o(.text)
    k9f_id_read                              0x1a003f49   Thumb Code    42  k9f1g08.o(.text)
    k9f_bad_block_check_product              0x1a003f97   Thumb Code    96  k9f1g08.o(.text)
    k9f_block_erase                          0x1a003ff7   Thumb Code    40  k9f1g08.o(.text)
    k9f_page_read                            0x1a00401f   Thumb Code    60  k9f1g08.o(.text)
    k9f_block_read                           0x1a00405b   Thumb Code    78  k9f1g08.o(.text)
    k9f_page_write                           0x1a0040a9   Thumb Code    64  k9f1g08.o(.text)
    k9f_block_write                          0x1a0040e9   Thumb Code   128  k9f1g08.o(.text)
    k9f_random_read                          0x1a004169   Thumb Code    40  k9f1g08.o(.text)
    k9f_random_continue_read                 0x1a004191   Thumb Code    58  k9f1g08.o(.text)
    k9f_random_write                         0x1a0041cb   Thumb Code    60  k9f1g08.o(.text)
    k9f_random_continue_write                0x1a004207   Thumb Code    72  k9f1g08.o(.text)
    GPIO_SetDir                              0x1a00426d   Thumb Code    22  lpc43xx_gpio.o(.text)
    GPIO_SetValue                            0x1a004283   Thumb Code    12  lpc43xx_gpio.o(.text)
    GPIO_ClearValue                          0x1a00428f   Thumb Code    12  lpc43xx_gpio.o(.text)
    GPIO_ReadValue                           0x1a00429b   Thumb Code    12  lpc43xx_gpio.o(.text)
    yaffs_nand_install_drv                   0x1a0043d1   Thumb Code    34  yaffs_port_nand_drv.o(.text)
    SysTick_Handler                          0x1a004477   Thumb Code    18  main.o(.text)
    OS_CPU_SysTickInit                       0x1a004489   Thumb Code    48  main.o(.text)
    uart_3_recv                              0x1a0044b9   Thumb Code    76  main.o(.text)
    UART3_IRQHandler                         0x1a004505   Thumb Code    56  main.o(.text)
    shell_task                               0x1a00453d   Thumb Code  1476  main.o(.text)
    SDIO_IRQHandler                          0x1a004b01   Thumb Code    16  main.o(.text)
    main                                     0x1a004b11   Thumb Code    54  main.o(.text)
    yaffs_load_attribs                       0x1a004be1   Thumb Code    38  yaffs_attribs.o(.text)
    yaffs_load_attribs_oh                    0x1a004c07   Thumb Code    38  yaffs_attribs.o(.text)
    yaffs_load_current_time                  0x1a004c2d   Thumb Code    22  yaffs_attribs.o(.text)
    yaffs_attribs_init                       0x1a004c43   Thumb Code    30  yaffs_attribs.o(.text)
    yaffs_hweight8                           0x1a004c61   Thumb Code     6  yaffs_hweight.o(.text)
    yaffs_hweight32                          0x1a004c67   Thumb Code    30  yaffs_hweight.o(.text)
    yaffs_qsort                              0x1a004cfb   Thumb Code   606  yaffs_qsort.o(.text)
    yaffs_set_trace                          0x1a004f59   Thumb Code     6  yaffsfs.o(.text)
    yaffs_get_trace                          0x1a004f5f   Thumb Code     6  yaffsfs.o(.text)
    yaffs_dup                                0x1a00541d   Thumb Code    96  yaffsfs.o(.text)
    yaffs_open_sharing_reldir                0x1a0055c5   Thumb Code   976  yaffsfs.o(.text)
    yaffs_open_sharing_reldev                0x1a005995   Thumb Code    28  yaffsfs.o(.text)
    yaffs_open_sharing                       0x1a0059b1   Thumb Code    18  yaffsfs.o(.text)
    yaffs_open_reldir                        0x1a0059c3   Thumb Code    12  yaffsfs.o(.text)
    yaffs_open_reldev                        0x1a0059cf   Thumb Code    28  yaffsfs.o(.text)
    yaffs_open                               0x1a0059eb   Thumb Code    10  yaffsfs.o(.text)
    yaffs_fsync                              0x1a005a37   Thumb Code     4  yaffsfs.o(.text)
    yaffs_flush                              0x1a005a3b   Thumb Code     2  yaffsfs.o(.text)
    yaffs_fdatasync                          0x1a005a3d   Thumb Code     4  yaffsfs.o(.text)
    yaffs_close                              0x1a005a41   Thumb Code    88  yaffsfs.o(.text)
    yaffs_read                               0x1a005bdf   Thumb Code    12  yaffsfs.o(.text)
    yaffs_pread                              0x1a005beb   Thumb Code    12  yaffsfs.o(.text)
    yaffs_write                              0x1a005d59   Thumb Code    12  yaffsfs.o(.text)
    yaffs_pwrite                             0x1a005d65   Thumb Code    12  yaffsfs.o(.text)
    yaffs_truncate_reldir                    0x1a005d71   Thumb Code   214  yaffsfs.o(.text)
    yaffs_truncate_reldev                    0x1a005e47   Thumb Code    18  yaffsfs.o(.text)
    yaffs_truncate                           0x1a005e59   Thumb Code     8  yaffsfs.o(.text)
    yaffs_ftruncate                          0x1a005e61   Thumb Code   112  yaffsfs.o(.text)
    yaffs_lseek                              0x1a005ed1   Thumb Code   146  yaffsfs.o(.text)
    yaffs_unlink_reldir                      0x1a006065   Thumb Code     4  yaffsfs.o(.text)
    yaffs_unlink_reldev                      0x1a006069   Thumb Code    20  yaffsfs.o(.text)
    yaffs_unlink                             0x1a00607d   Thumb Code     6  yaffsfs.o(.text)
    yaffs_rename_reldir                      0x1a006083   Thumb Code   460  yaffsfs.o(.text)
    yaffs_rename_reldev                      0x1a00624f   Thumb Code    18  yaffsfs.o(.text)
    yaffs_rename                             0x1a006261   Thumb Code     8  yaffsfs.o(.text)
    yaffs_stat_reldir                        0x1a00639d   Thumb Code     4  yaffsfs.o(.text)
    yaffs_lstat_reldir                       0x1a0063a1   Thumb Code     4  yaffsfs.o(.text)
    yaffs_stat_reldev                        0x1a0063a5   Thumb Code    20  yaffsfs.o(.text)
    yaffs_lstat_reldev                       0x1a0063b9   Thumb Code    20  yaffsfs.o(.text)
    yaffs_stat                               0x1a0063cd   Thumb Code     8  yaffsfs.o(.text)
    yaffs_lstat                              0x1a0063d5   Thumb Code     8  yaffsfs.o(.text)
    yaffs_fstat                              0x1a0063dd   Thumb Code    72  yaffsfs.o(.text)
    yaffs_utime_reldir                       0x1a00647b   Thumb Code   134  yaffsfs.o(.text)
    yaffs_utime_reldev                       0x1a006501   Thumb Code    18  yaffsfs.o(.text)
    yaffs_utime                              0x1a006513   Thumb Code     8  yaffsfs.o(.text)
    yaffs_futime                             0x1a00651b   Thumb Code    48  yaffsfs.o(.text)
    yaffs_setxattr_reldir                    0x1a00661b   Thumb Code    18  yaffsfs.o(.text)
    yaffs_setxattr_reldev                    0x1a00662d   Thumb Code    32  yaffsfs.o(.text)
    yaffs_setxattr                           0x1a00664d   Thumb Code    24  yaffsfs.o(.text)
    yaffs_lsetxattr_reldir                   0x1a006665   Thumb Code    18  yaffsfs.o(.text)
    yaffs_lsetxattr_reldev                   0x1a006677   Thumb Code    32  yaffsfs.o(.text)
    yaffs_lsetxattr                          0x1a006697   Thumb Code    24  yaffsfs.o(.text)
    yaffs_fsetxattr                          0x1a0066af   Thumb Code   114  yaffsfs.o(.text)
    yaffs_getxattr_reldir                    0x1a0067ed   Thumb Code    16  yaffsfs.o(.text)
    yaffs_getxattr_reldev                    0x1a0067fd   Thumb Code    28  yaffsfs.o(.text)
    yaffs_getxattr                           0x1a006819   Thumb Code    18  yaffsfs.o(.text)
    yaffs_lgetxattr_reldir                   0x1a00682b   Thumb Code    16  yaffsfs.o(.text)
    yaffs_lgetxattr_reldev                   0x1a00683b   Thumb Code    28  yaffsfs.o(.text)
    yaffs_lgetxattr                          0x1a006857   Thumb Code    18  yaffsfs.o(.text)
    yaffs_fgetxattr                          0x1a006869   Thumb Code   110  yaffsfs.o(.text)
    yaffs_listxattr_reldir                   0x1a006991   Thumb Code    12  yaffsfs.o(.text)
    yaffs_listxattr_reldev                   0x1a00699d   Thumb Code    22  yaffsfs.o(.text)
    yaffs_listxattr                          0x1a0069b3   Thumb Code    10  yaffsfs.o(.text)
    yaffs_llistxattr_reldir                  0x1a0069bd   Thumb Code    12  yaffsfs.o(.text)
    yaffs_llistxattr_reldev                  0x1a0069c9   Thumb Code    22  yaffsfs.o(.text)
    yaffs_llistxattr                         0x1a0069df   Thumb Code    10  yaffsfs.o(.text)
    yaffs_flistxattr                         0x1a0069e9   Thumb Code    92  yaffsfs.o(.text)
    yaffs_removexattr_reldir                 0x1a006afd   Thumb Code     4  yaffsfs.o(.text)
    yaffs_removexattr_reldev                 0x1a006b01   Thumb Code    18  yaffsfs.o(.text)
    yaffs_removexattr                        0x1a006b13   Thumb Code     8  yaffsfs.o(.text)
    yaffs_lremovexattr_reldir                0x1a006b1b   Thumb Code     4  yaffsfs.o(.text)
    yaffs_lremovexattr_reldev                0x1a006b1f   Thumb Code    18  yaffsfs.o(.text)
    yaffs_lremovexattr                       0x1a006b31   Thumb Code     8  yaffsfs.o(.text)
    yaffs_fremovexattr                       0x1a006b39   Thumb Code    86  yaffsfs.o(.text)
    yaffs_access_reldir                      0x1a006bbf   Thumb Code   218  yaffsfs.o(.text)
    yaffs_access_reldev                      0x1a006c99   Thumb Code    18  yaffsfs.o(.text)
    yaffs_access                             0x1a006cab   Thumb Code     8  yaffsfs.o(.text)
    yaffs_chmod_reldir                       0x1a006cb3   Thumb Code   172  yaffsfs.o(.text)
    yaffs_chmod_reldev                       0x1a006d5f   Thumb Code    18  yaffsfs.o(.text)
    yaffs_chmod                              0x1a006d71   Thumb Code     8  yaffsfs.o(.text)
    yaffs_fchmod                             0x1a006d79   Thumb Code    76  yaffsfs.o(.text)
    yaffs_mkdir_reldir                       0x1a006dc5   Thumb Code   244  yaffsfs.o(.text)
    yaffs_mkdir_reldev                       0x1a006eb9   Thumb Code    18  yaffsfs.o(.text)
    yaffs_mkdir                              0x1a006ecb   Thumb Code     8  yaffsfs.o(.text)
    yaffs_rmdir_reldir                       0x1a006ed3   Thumb Code    98  yaffsfs.o(.text)
    yaffs_rmdir_reldev                       0x1a006f35   Thumb Code    18  yaffsfs.o(.text)
    yaffs_rmdir                              0x1a006f47   Thumb Code     6  yaffsfs.o(.text)
    yaffs_getdev                             0x1a006f4d   Thumb Code    10  yaffsfs.o(.text)
    yaffs_mount_common                       0x1a006f57   Thumb Code   176  yaffsfs.o(.text)
    yaffs_mount3_reldev                      0x1a007007   Thumb Code     8  yaffsfs.o(.text)
    yaffs_mount3                             0x1a00700f   Thumb Code    10  yaffsfs.o(.text)
    yaffs_mount2_reldev                      0x1a007019   Thumb Code     8  yaffsfs.o(.text)
    yaffs_mount2                             0x1a007021   Thumb Code    10  yaffsfs.o(.text)
    yaffs_mount_reldev                       0x1a00702b   Thumb Code     8  yaffsfs.o(.text)
    yaffs_mount                              0x1a007033   Thumb Code    10  yaffsfs.o(.text)
    yaffs_sync_common                        0x1a00703d   Thumb Code   128  yaffsfs.o(.text)
    yaffs_sync_reldev                        0x1a0070bd   Thumb Code     4  yaffsfs.o(.text)
    yaffs_sync                               0x1a0070c1   Thumb Code     6  yaffsfs.o(.text)
    yaffs_do_background_gc                   0x1a007137   Thumb Code     8  yaffsfs.o(.text)
    yaffs_do_background_gc_reldev            0x1a00713f   Thumb Code     6  yaffsfs.o(.text)
    yaffs_remount_common                     0x1a007145   Thumb Code   146  yaffsfs.o(.text)
    yaffs_remount_reldev                     0x1a0071d7   Thumb Code     8  yaffsfs.o(.text)
    yaffs_remount                            0x1a0071df   Thumb Code    10  yaffsfs.o(.text)
    yaffs_unmount2_common                    0x1a0071e9   Thumb Code   144  yaffsfs.o(.text)
    yaffs_unmount2_reldev                    0x1a007279   Thumb Code     6  yaffsfs.o(.text)
    yaffs_unmount2                           0x1a00727f   Thumb Code     8  yaffsfs.o(.text)
    yaffs_unmount_reldev                     0x1a007287   Thumb Code     4  yaffsfs.o(.text)
    yaffs_unmount                            0x1a00728b   Thumb Code     4  yaffsfs.o(.text)
    yaffs_format_common                      0x1a00728f   Thumb Code   184  yaffsfs.o(.text)
    yaffs_format_reldev                      0x1a007347   Thumb Code    16  yaffsfs.o(.text)
    yaffs_format                             0x1a007357   Thumb Code    50  yaffsfs.o(.text)
    yaffs_freespace_common                   0x1a007389   Thumb Code   106  yaffsfs.o(.text)
    yaffs_freespace_reldev                   0x1a0073f3   Thumb Code     4  yaffsfs.o(.text)
    yaffs_freespace                          0x1a0073f7   Thumb Code     6  yaffsfs.o(.text)
    yaffs_totalspace_common                  0x1a0073fd   Thumb Code   116  yaffsfs.o(.text)
    yaffs_totalspace_reldev                  0x1a007471   Thumb Code     4  yaffsfs.o(.text)
    yaffs_totalspace                         0x1a007475   Thumb Code     6  yaffsfs.o(.text)
    yaffs_inodecount_common                  0x1a00747b   Thumb Code   108  yaffsfs.o(.text)
    yaffs_inodecount_reldev                  0x1a0074e7   Thumb Code     4  yaffsfs.o(.text)
    yaffs_inodecount                         0x1a0074eb   Thumb Code     6  yaffsfs.o(.text)
    yaffs_add_device                         0x1a00755d   Thumb Code    66  yaffsfs.o(.text)
    yaffs_remove_device                      0x1a00759f   Thumb Code    14  yaffsfs.o(.text)
    yaffs_dev_rewind                         0x1a0075ad   Thumb Code    14  yaffsfs.o(.text)
    yaffs_next_dev                           0x1a0075bb   Thumb Code    30  yaffsfs.o(.text)
    yaffs_opendir_reldir                     0x1a0075d9   Thumb Code    28  yaffsfs.o(.text)
    yaffs_opendir_reldev                     0x1a0075f5   Thumb Code    18  yaffsfs.o(.text)
    yaffs_opendir                            0x1a007607   Thumb Code     6  yaffsfs.o(.text)
    yaffsfs_readdir_no_lock                  0x1a00760d   Thumb Code   140  yaffsfs.o(.text)
    yaffs_readdir                            0x1a007699   Thumb Code    24  yaffsfs.o(.text)
    yaffs_rewinddir                          0x1a0076b1   Thumb Code    22  yaffsfs.o(.text)
    yaffs_readdir_fd                         0x1a0076c7   Thumb Code    40  yaffsfs.o(.text)
    yaffs_rewinddir_fd                       0x1a0076ef   Thumb Code    36  yaffsfs.o(.text)
    yaffs_closedir                           0x1a007713   Thumb Code    24  yaffsfs.o(.text)
    yaffs_symlink_reldir                     0x1a00772b   Thumb Code   250  yaffsfs.o(.text)
    yaffs_symlink                            0x1a007825   Thumb Code     8  yaffsfs.o(.text)
    yaffs_readlink_reldir                    0x1a00782d   Thumb Code   172  yaffsfs.o(.text)
    yaffs_readlink                           0x1a0078d9   Thumb Code    10  yaffsfs.o(.text)
    yaffs_link_reldir                        0x1a0078e3   Thumb Code   350  yaffsfs.o(.text)
    yaffs_link                               0x1a007a41   Thumb Code     8  yaffsfs.o(.text)
    yaffs_mknod_reldir                       0x1a007a49   Thumb Code    16  yaffsfs.o(.text)
    yaffs_mknod_reldev                       0x1a007a59   Thumb Code    16  yaffsfs.o(.text)
    yaffs_mknod                              0x1a007a69   Thumb Code    16  yaffsfs.o(.text)
    yaffs_n_handles_reldir                   0x1a007a79   Thumb Code    96  yaffsfs.o(.text)
    yaffs_n_handles                          0x1a007ad9   Thumb Code     6  yaffsfs.o(.text)
    yaffs_get_error                          0x1a007adf   Thumb Code     4  yaffsfs.o(.text)
    yaffs_set_error                          0x1a007ae3   Thumb Code    10  yaffsfs.o(.text)
    yaffs_dump_dev_reldir                    0x1a007aed   Thumb Code     4  yaffsfs.o(.text)
    yaffs_dump_dev                           0x1a007af1   Thumb Code     4  yaffsfs.o(.text)
    yaffs_alloc_raw_tnode                    0x1a007d3d   Thumb Code    54  yaffs_allocator.o(.text)
    yaffs_free_raw_tnode                     0x1a007d73   Thumb Code    36  yaffs_allocator.o(.text)
    yaffs_alloc_raw_obj                      0x1a007e25   Thumb Code    84  yaffs_allocator.o(.text)
    yaffs_free_raw_obj                       0x1a007e79   Thumb Code    40  yaffs_allocator.o(.text)
    yaffs_deinit_raw_tnodes_and_objs         0x1a007ea1   Thumb Code    74  yaffs_allocator.o(.text)
    yaffs_init_raw_tnodes_and_objs           0x1a007eeb   Thumb Code    74  yaffs_allocator.o(.text)
    yaffs_verify_chunk_bit_id                0x1a0080d5   Thumb Code    56  yaffs_bitmap.o(.text)
    yaffs_clear_chunk_bits                   0x1a00810d   Thumb Code    20  yaffs_bitmap.o(.text)
    yaffs_clear_chunk_bit                    0x1a008121   Thumb Code    54  yaffs_bitmap.o(.text)
    yaffs_set_chunk_bit                      0x1a008157   Thumb Code    52  yaffs_bitmap.o(.text)
    yaffs_check_chunk_bit                    0x1a00818b   Thumb Code    54  yaffs_bitmap.o(.text)
    yaffs_still_some_chunks                  0x1a0081c1   Thumb Code    36  yaffs_bitmap.o(.text)
    yaffs_count_chunk_bits                   0x1a0081e5   Thumb Code    42  yaffs_bitmap.o(.text)
    yaffs2_checkpt_open                      0x1a00845f   Thumb Code   232  yaffs_checkptrw.o(.text)
    yaffs2_get_checkpt_sum                   0x1a008547   Thumb Code    14  yaffs_checkptrw.o(.text)
    yaffs2_checkpt_wr                        0x1a008635   Thumb Code   562  yaffs_checkptrw.o(.text)
    yaffs2_checkpt_rd                        0x1a008867   Thumb Code   290  yaffs_checkptrw.o(.text)
    yaffs_checkpt_close                      0x1a008989   Thumb Code   160  yaffs_checkptrw.o(.text)
    yaffs2_checkpt_invalidate_stream         0x1a008a29   Thumb Code    30  yaffs_checkptrw.o(.text)
    yaffs_ecc_calc                           0x1a008b8d   Thumb Code   186  yaffs_ecc.o(.text)
    yaffs_ecc_correct                        0x1a008c47   Thumb Code   234  yaffs_ecc.o(.text)
    yaffs_ecc_calc_other                     0x1a008d31   Thumb Code    52  yaffs_ecc.o(.text)
    yaffs_ecc_correct_other                  0x1a008d65   Thumb Code   158  yaffs_ecc.o(.text)
    yaffs_addr_to_chunk                      0x1a008e45   Thumb Code    44  yaffs_guts.o(.text)
    yaffs_get_temp_buffer                    0x1a008e71   Thumb Code    96  yaffs_guts.o(.text)
    yaffs_release_temp_buffer                0x1a008ed1   Thumb Code    84  yaffs_guts.o(.text)
    yaffs_handle_chunk_error                 0x1a008f25   Thumb Code    62  yaffs_guts.o(.text)
    yaffs_skip_rest_of_block                 0x1a008f63   Thumb Code    44  yaffs_guts.o(.text)
    yaffs_check_ff                           0x1a009047   Thumb Code    22  yaffs_guts.o(.text)
    yaffs_block_became_dirty                 0x1a0090b3   Thumb Code   840  yaffs_guts.o(.text)
    yaffs_chunk_del                          0x1a0093fb   Thumb Code   254  yaffs_guts.o(.text)
    yaffs_root                               0x1a0094f9   Thumb Code     6  yaffs_guts.o(.text)
    yaffs_lost_n_found                       0x1a0094ff   Thumb Code     6  yaffs_guts.o(.text)
    yaffs_check_alloc_available              0x1a009505   Thumb Code    36  yaffs_guts.o(.text)
    yaffs_set_obj_name                       0x1a0099f1   Thumb Code    72  yaffs_guts.o(.text)
    yaffs_set_obj_name_from_oh               0x1a009a39   Thumb Code     4  yaffs_guts.o(.text)
    yaffs_max_file_size                      0x1a009a3d   Thumb Code     6  yaffs_guts.o(.text)
    yaffs_get_tnode                          0x1a009a43   Thumb Code    40  yaffs_guts.o(.text)
    yaffs_get_group_base                     0x1a009ac1   Thumb Code    60  yaffs_guts.o(.text)
    yaffs_find_tnode_0                       0x1a009afd   Thumb Code    68  yaffs_guts.o(.text)
    yaffs_add_find_tnode_0                   0x1a009b41   Thumb Code   212  yaffs_guts.o(.text)
    yaffs_find_chunk_in_file                 0x1a009c7b   Thumb Code    68  yaffs_guts.o(.text)
    yaffs_put_chunk_in_file                  0x1a009cbf   Thumb Code   490  yaffs_guts.o(.text)
    yaffs_add_obj_to_dir                     0x1a009f9b   Thumb Code   172  yaffs_guts.o(.text)
    yaffs_oh_size_load                       0x1a00a047   Thumb Code    12  yaffs_guts.o(.text)
    yaffs_clone_str                          0x1a00a053   Thumb Code    44  yaffs_guts.o(.text)
    yaffs_find_by_number                     0x1a00a201   Thumb Code   254  yaffs_guts.o(.text)
    yaffs_update_oh                          0x1a00ab2b   Thumb Code   794  yaffs_guts.o(.text)
    yaffs_get_obj_name                       0x1a00ae45   Thumb Code   144  yaffs_guts.o(.text)
    yaffs_find_by_name                       0x1a00aed5   Thumb Code   186  yaffs_guts.o(.text)
    yaffs_flush_whole_cache                  0x1a00b163   Thumb Code    72  yaffs_guts.o(.text)
    yaffs_handle_defered_free                0x1a00b389   Thumb Code    12  yaffs_guts.o(.text)
    yaffs_find_or_create_by_number           0x1a00b563   Thumb Code    32  yaffs_guts.o(.text)
    yaffs_update_dirty_dirs                  0x1a00b5e1   Thumb Code    90  yaffs_guts.o(.text)
    yaffs_is_non_empty_dir                   0x1a00b63b   Thumb Code    28  yaffs_guts.o(.text)
    yaffs_resize_file_down                   0x1a00b83f   Thumb Code   172  yaffs_guts.o(.text)
    yaffs_resize_file                        0x1a00b8eb   Thumb Code   108  yaffs_guts.o(.text)
    yaffs_del_obj                            0x1a00b9cd   Thumb Code   112  yaffs_guts.o(.text)
    yaffs_create_file                        0x1a00bb1d   Thumb Code    36  yaffs_guts.o(.text)
    yaffs_create_dir                         0x1a00bb41   Thumb Code    34  yaffs_guts.o(.text)
    yaffs_create_special                     0x1a00bb63   Thumb Code    42  yaffs_guts.o(.text)
    yaffs_create_symlink                     0x1a00bb8d   Thumb Code    40  yaffs_guts.o(.text)
    yaffs_get_equivalent_obj                 0x1a00bbb5   Thumb Code    26  yaffs_guts.o(.text)
    yaffs_link_obj                           0x1a00bbcf   Thumb Code   142  yaffs_guts.o(.text)
    yaffs_bg_gc                              0x1a00bd57   Thumb Code    56  yaffs_guts.o(.text)
    yaffs_set_xattrib                        0x1a00be75   Thumb Code    22  yaffs_guts.o(.text)
    yaffs_remove_xattrib                     0x1a00be8b   Thumb Code    18  yaffs_guts.o(.text)
    yaffs_get_xattrib                        0x1a00be9d   Thumb Code     2  yaffs_guts.o(.text)
    yaffs_list_xattrib                       0x1a00be9f   Thumb Code     8  yaffs_guts.o(.text)
    yaffs_file_rd                            0x1a00bea7   Thumb Code   234  yaffs_guts.o(.text)
    yaffs_do_file_wr                         0x1a00bf91   Thumb Code   586  yaffs_guts.o(.text)
    yaffs_wr_file                            0x1a00c1db   Thumb Code    38  yaffs_guts.o(.text)
    yaffs_flush_file                         0x1a00c201   Thumb Code    62  yaffs_guts.o(.text)
    yaffs_retype_obj                         0x1a00c23f   Thumb Code   162  yaffs_guts.o(.text)
    yaffs_unlinker                           0x1a00c3c9   Thumb Code    14  yaffs_guts.o(.text)
    yaffs_rename_obj                         0x1a00c3d7   Thumb Code   208  yaffs_guts.o(.text)
    yaffs_handle_shadowed_obj                0x1a00c4a7   Thumb Code    62  yaffs_guts.o(.text)
    yaffs_link_fixup                         0x1a00c4e5   Thumb Code    66  yaffs_guts.o(.text)
    yaffs_get_obj_length                     0x1a00c613   Thumb Code    46  yaffs_guts.o(.text)
    yaffs_get_obj_link_count                 0x1a00c641   Thumb Code    28  yaffs_guts.o(.text)
    yaffs_get_obj_inode                      0x1a00c65d   Thumb Code    10  yaffs_guts.o(.text)
    yaffs_get_obj_type                       0x1a00c667   Thumb Code    58  yaffs_guts.o(.text)
    yaffs_get_symlink_alias                  0x1a00c6a1   Thumb Code    28  yaffs_guts.o(.text)
    yaffs_guts_ll_init                       0x1a00c737   Thumb Code   476  yaffs_guts.o(.text)
    yaffs_guts_format_dev                    0x1a00c913   Thumb Code    70  yaffs_guts.o(.text)
    yaffs_deinitialise                       0x1a00c959   Thumb Code   166  yaffs_guts.o(.text)
    yaffs_guts_initialise                    0x1a00c9ff   Thumb Code  1066  yaffs_guts.o(.text)
    yaffs_count_free_chunks                  0x1a00ce29   Thumb Code    64  yaffs_guts.o(.text)
    yaffs_get_n_free_chunks                  0x1a00ce69   Thumb Code    82  yaffs_guts.o(.text)
    yaffs_oh_to_size                         0x1a00cebb   Thumb Code     6  yaffs_guts.o(.text)
    yaffs_count_blocks_by_state              0x1a00cec1   Thumb Code    74  yaffs_guts.o(.text)
    nval_del                                 0x1a00d2ad   Thumb Code    56  yaffs_nameval.o(.text)
    nval_set                                 0x1a00d2e5   Thumb Code   160  yaffs_nameval.o(.text)
    nval_get                                 0x1a00d385   Thumb Code   100  yaffs_nameval.o(.text)
    nval_list                                0x1a00d3e9   Thumb Code   128  yaffs_nameval.o(.text)
    nval_hasvalues                           0x1a00d469   Thumb Code    18  yaffs_nameval.o(.text)
    yaffs_rd_chunk_tags_nand                 0x1a00d4a1   Thumb Code   128  yaffs_nand.o(.text)
    yaffs_wr_chunk_tags_nand                 0x1a00d521   Thumb Code   120  yaffs_nand.o(.text)
    yaffs_mark_bad                           0x1a00d599   Thumb Code    30  yaffs_nand.o(.text)
    yaffs_query_init_block_state             0x1a00d5b7   Thumb Code    18  yaffs_nand.o(.text)
    yaffs_erase_block                        0x1a00d5c9   Thumb Code    22  yaffs_nand.o(.text)
    yaffs_init_nand                          0x1a00d5df   Thumb Code    12  yaffs_nand.o(.text)
    yaffs_deinit_nand                        0x1a00d5eb   Thumb Code    12  yaffs_nand.o(.text)
    yaffs_pack_tags2_tags_only               0x1a00d743   Thumb Code   124  yaffs_packedtags2.o(.text)
    yaffs_pack_tags2                         0x1a00d7bf   Thumb Code    32  yaffs_packedtags2.o(.text)
    yaffs_unpack_tags2_tags_only             0x1a00d7df   Thumb Code   124  yaffs_packedtags2.o(.text)
    yaffs_unpack_tags2                       0x1a00d85b   Thumb Code    86  yaffs_packedtags2.o(.text)
    yaffs_summary_deinit                     0x1a00d929   Thumb Code    36  yaffs_summary.o(.text)
    yaffs_summary_init                       0x1a00d94d   Thumb Code    86  yaffs_summary.o(.text)
    yaffs_summary_read                       0x1a00da9f   Thumb Code   274  yaffs_summary.o(.text)
    yaffs_summary_add                        0x1a00dbb1   Thumb Code   102  yaffs_summary.o(.text)
    yaffs_summary_fetch                      0x1a00dc17   Thumb Code    58  yaffs_summary.o(.text)
    yaffs_summary_gc                         0x1a00dc51   Thumb Code    84  yaffs_summary.o(.text)
    yaffs_calc_tags_ecc                      0x1a00dd69   Thumb Code    52  yaffs_tagscompat.o(.text)
    yaffs_check_tags_ecc                     0x1a00dd9d   Thumb Code    70  yaffs_tagscompat.o(.text)
    yaffs_tags_compat_install                0x1a00e2a5   Thumb Code    58  yaffs_tagscompat.o(.text)
    yaffs_tags_marshall_install              0x1a00e603   Thumb Code    58  yaffs_tagsmarshall.o(.text)
    yaffs_skip_verification                  0x1a00e77d   Thumb Code    18  yaffs_verify.o(.text)
    yaffs_verify_blk                         0x1a00e78f   Thumb Code   174  yaffs_verify.o(.text)
    yaffs_verify_collected_blk               0x1a00e83d   Thumb Code    46  yaffs_verify.o(.text)
    yaffs_verify_blocks                      0x1a00e86b   Thumb Code   292  yaffs_verify.o(.text)
    yaffs_verify_oh                          0x1a00e98f   Thumb Code   224  yaffs_verify.o(.text)
    yaffs_verify_file                        0x1a00ea6f   Thumb Code  1088  yaffs_verify.o(.text)
    yaffs_verify_link                        0x1a00eeaf   Thumb Code    10  yaffs_verify.o(.text)
    yaffs_verify_symlink                     0x1a00eeb9   Thumb Code    10  yaffs_verify.o(.text)
    yaffs_verify_special                     0x1a00eec3   Thumb Code    10  yaffs_verify.o(.text)
    yaffs_verify_obj_in_dir                  0x1a00eecd   Thumb Code   172  yaffs_verify.o(.text)
    yaffs_verify_dir                         0x1a00ef79   Thumb Code   124  yaffs_verify.o(.text)
    yaffs_verify_obj                         0x1a00eff5   Thumb Code   370  yaffs_verify.o(.text)
    yaffs_verify_objects                     0x1a00f167   Thumb Code    56  yaffs_verify.o(.text)
    yaffs_verify_free_chunks                 0x1a00f19f   Thumb Code    52  yaffs_verify.o(.text)
    yaffs_verify_file_sane                   0x1a00f1d3   Thumb Code     4  yaffs_verify.o(.text)
    yaffs1_scan                              0x1a00f3f1   Thumb Code  1556  yaffs_yaffs1.o(.text)
    yaffs_calc_oldest_dirty_seq              0x1a00fa29   Thumb Code    82  yaffs_yaffs2.o(.text)
    yaffs2_find_oldest_dirty_seq             0x1a00fa7b   Thumb Code    18  yaffs_yaffs2.o(.text)
    yaffs2_clear_oldest_dirty_seq            0x1a00fa8d   Thumb Code    30  yaffs_yaffs2.o(.text)
    yaffs2_update_oldest_dirty_seq           0x1a00faab   Thumb Code    30  yaffs_yaffs2.o(.text)
    yaffs_block_ok_for_gc                    0x1a00fac9   Thumb Code    40  yaffs_yaffs2.o(.text)
    yaffs2_find_refresh_block                0x1a00faf1   Thumb Code   114  yaffs_yaffs2.o(.text)
    yaffs2_checkpt_required                  0x1a00fb63   Thumb Code    36  yaffs_yaffs2.o(.text)
    yaffs_calc_checkpt_blocks_required       0x1a00fb87   Thumb Code   104  yaffs_yaffs2.o(.text)
    yaffs2_checkpt_invalidate                0x1a0101f1   Thumb Code    46  yaffs_yaffs2.o(.text)
    yaffs_checkpoint_save                    0x1a01021f   Thumb Code    82  yaffs_yaffs2.o(.text)
    yaffs2_checkpt_restore                   0x1a010271   Thumb Code    74  yaffs_yaffs2.o(.text)
    yaffs2_handle_hole                       0x1a0102bb   Thumb Code   806  yaffs_yaffs2.o(.text)
    yaffs2_scan_backwards                    0x1a010b59   Thumb Code   748  yaffs_yaffs2.o(.text)
    yaffsfs_SetError                         0x1a0111d9   Thumb Code     6  yaffs_osglue.o(.text)
    yaffsfs_GetLastError                     0x1a0111df   Thumb Code     6  yaffs_osglue.o(.text)
    yaffsfs_CheckMemRegion                   0x1a0111e5   Thumb Code    12  yaffs_osglue.o(.text)
    yaffsfs_Lock                             0x1a0111f1   Thumb Code    10  yaffs_osglue.o(.text)
    yaffsfs_Unlock                           0x1a0111fb   Thumb Code     6  yaffs_osglue.o(.text)
    yaffsfs_LockInit                         0x1a011201   Thumb Code    12  yaffs_osglue.o(.text)
    yaffsfs_CurrentTime                      0x1a01120d   Thumb Code     4  yaffs_osglue.o(.text)
    yaffsfs_malloc                           0x1a011211   Thumb Code     4  yaffs_osglue.o(.text)
    yaffsfs_free                             0x1a011215   Thumb Code     4  yaffs_osglue.o(.text)
    yaffsfs_OSInitialisation                 0x1a011219   Thumb Code     2  yaffs_osglue.o(.text)
    yaffs_bug_fn                             0x1a01121b   Thumb Code    22  yaffs_osglue.o(.text)
    strnlen                                  0x1a011231   Thumb Code    20  yaffs_osglue.o(.text)
    yaffs_start_up                           0x1a01125d   Thumb Code    34  yaffscfg2k.o(.text)
    yaffs_nandsim_install_drv                0x1a011299   Thumb Code   104  yaffs_startup.o(.text)
    disk_initialize                          0x1a011301   Thumb Code     4  diskio.o(.text)
    disk_status                              0x1a011305   Thumb Code     4  diskio.o(.text)
    disk_read                                0x1a011309   Thumb Code    14  diskio.o(.text)
    disk_write                               0x1a011317   Thumb Code    14  diskio.o(.text)
    disk_ioctl                               0x1a011325   Thumb Code    36  diskio.o(.text)
    get_fattime                              0x1a011349   Thumb Code     4  diskio.o(.text)
    clust2sect                               0x1a011591   Thumb Code    24  ff.o(.text)
    get_fat                                  0x1a0115a9   Thumb Code   188  ff.o(.text)
    put_fat                                  0x1a011665   Thumb Code   250  ff.o(.text)
    f_mount                                  0x1a012007   Thumb Code    82  ff.o(.text)
    f_open                                   0x1a012059   Thumb Code   384  ff.o(.text)
    f_read                                   0x1a0121d9   Thumb Code   328  ff.o(.text)
    f_write                                  0x1a012321   Thumb Code   390  ff.o(.text)
    f_sync                                   0x1a0124a7   Thumb Code   152  ff.o(.text)
    f_close                                  0x1a01253f   Thumb Code    38  ff.o(.text)
    f_lseek                                  0x1a012565   Thumb Code   510  ff.o(.text)
    f_opendir                                0x1a012763   Thumb Code   132  ff.o(.text)
    f_closedir                               0x1a0127e7   Thumb Code    32  ff.o(.text)
    f_readdir                                0x1a012807   Thumb Code    78  ff.o(.text)
    f_stat                                   0x1a012855   Thumb Code    60  ff.o(.text)
    f_getfree                                0x1a012891   Thumb Code   192  ff.o(.text)
    f_truncate                               0x1a012951   Thumb Code   176  ff.o(.text)
    f_unlink                                 0x1a012a01   Thumb Code   160  ff.o(.text)
    f_mkdir                                  0x1a012aa1   Thumb Code   356  ff.o(.text)
    f_chmod                                  0x1a012c05   Thumb Code    76  ff.o(.text)
    f_rename                                 0x1a012c51   Thumb Code   252  ff.o(.text)
    f_utime                                  0x1a012d4d   Thumb Code    80  ff.o(.text)
    f_getlabel                               0x1a012d9d   Thumb Code   142  ff.o(.text)
    f_setlabel                               0x1a012e2b   Thumb Code   358  ff.o(.text)
    f_mkfs                                   0x1a012f91   Thumb Code  1320  ff.o(.text)
    Board_UARTPutChar                        0x1a013545   Thumb Code    26  board.o(.text)
    _sys_open                                0x1a01355f   Thumb Code     6  board.o(.text)
    fputc                                    0x1a013565   Thumb Code    20  board.o(.text)
    Board_UARTGetChar                        0x1a013579   Thumb Code    28  board.o(.text)
    fgetc                                    0x1a013595   Thumb Code    10  board.o(.text)
    ferror                                   0x1a01359f   Thumb Code     8  board.o(.text)
    _sys_exit                                0x1a0135a7   Thumb Code     6  board.o(.text)
    Board_UART_Init                          0x1a013747   Thumb Code    88  board.o(.text)
    Board_Debug_Init                         0x1a01379f   Thumb Code    42  board.o(.text)
    Board_UARTPutSTR                         0x1a0137c9   Thumb Code    22  board.o(.text)
    Board_LED_Set                            0x1a0137fb   Thumb Code    28  board.o(.text)
    Board_LED_Test                           0x1a013817   Thumb Code    28  board.o(.text)
    Board_LED_Toggle                         0x1a013833   Thumb Code    24  board.o(.text)
    Board_ENET_GetMacADDR                    0x1a01384b   Thumb Code    22  board.o(.text)
    Board_Init                               0x1a013861   Thumb Code    66  board.o(.text)
    Board_ADC_Init                           0x1a0138a3   Thumb Code     2  board.o(.text)
    Board_I2C_Init                           0x1a0138a5   Thumb Code    44  board.o(.text)
    Board_Audio_Init                         0x1a0138d1   Thumb Code    52  board.o(.text)
    Board_InitLCDController                  0x1a013905   Thumb Code   660  board.o(.text)
    Board_LCD_Init                           0x1a013b99   Thumb Code    36  board.o(.text)
    Board_InitTouchController                0x1a013bbd   Thumb Code   202  board.o(.text)
    Board_I2C_GetTouchPos                    0x1a013c87   Thumb Code   196  board.o(.text)
    Board_GetTouchPos                        0x1a013d4b   Thumb Code    60  board.o(.text)
    Board_SetLCDBacklight                    0x1a013d87   Thumb Code    28  board.o(.text)
    Board_SDMMC_Init                         0x1a013da3   Thumb Code    74  board.o(.text)
    Board_SSP_Init                           0x1a013ded   Thumb Code   106  board.o(.text)
    Board_Buttons_Init                       0x1a013e57   Thumb Code    24  board.o(.text)
    Board_Joystick_Init                      0x1a013e6f   Thumb Code   104  board.o(.text)
    Joystick_GetStatus                       0x1a013ed7   Thumb Code    96  board.o(.text)
    Buttons_GetStatus                        0x1a013f37   Thumb Code    24  board.o(.text)
    Board_DAC_Init                           0x1a013f4f   Thumb Code    18  board.o(.text)
    Board_SetupMuxing                        0x1a014019   Thumb Code    58  board_sysinit.o(.text)
    Board_SetupExtMemory                     0x1a014053   Thumb Code    82  board_sysinit.o(.text)
    Board_SetupClocking                      0x1a0140a5   Thumb Code   160  board_sysinit.o(.text)
    Board_SystemInit                         0x1a014145   Thumb Code    12  board_sysinit.o(.text)
    UDA1380_REG_VerifyMult                   0x1a014189   Thumb Code    72  uda1380.o(.text)
    UDA1380_REG_WriteMult                    0x1a0141d1   Thumb Code    30  uda1380.o(.text)
    UDA1380_REG_Write                        0x1a014213   Thumb Code    36  uda1380.o(.text)
    UDA1380_REG_Read                         0x1a014237   Thumb Code    42  uda1380.o(.text)
    UDA1380_REG_WriteVerify                  0x1a014261   Thumb Code    34  uda1380.o(.text)
    UDA1380_Init                             0x1a014283   Thumb Code   118  uda1380.o(.text)
    __aeabi_uldivmod                         0x1a01430d   Thumb Code     0  lludivv7m.o(.text)
    _ll_udiv                                 0x1a01430d   Thumb Code   238  lludivv7m.o(.text)
    __2printf                                0x1a0143fd   Thumb Code    20  noretval__2printf.o(.text)
    _printf_pre_padding                      0x1a014415   Thumb Code    44  _printf_pad.o(.text)
    _printf_post_padding                     0x1a014441   Thumb Code    34  _printf_pad.o(.text)
    _printf_str                              0x1a014463   Thumb Code    82  _printf_str.o(.text)
    _printf_int_dec                          0x1a0144b5   Thumb Code   104  _printf_dec.o(.text)
    _printf_longlong_dec                     0x1a01452d   Thumb Code   108  _printf_longlong_dec.o(.text)
    _printf_longlong_hex                     0x1a0145a9   Thumb Code    78  _printf_hex_int_ptr.o(.text)
    _printf_int_hex                          0x1a0145f7   Thumb Code    26  _printf_hex_int_ptr.o(.text)
    _printf_hex_ptr                          0x1a014611   Thumb Code    16  _printf_hex_int_ptr.o(.text)
    __printf                                 0x1a014625   Thumb Code   388  __printf_flags_ss_wp.o(.text)
    memcmp                                   0x1a0147ad   Thumb Code    88  memcmp.o(.text)
    strcpy                                   0x1a014805   Thumb Code    72  strcpy.o(.text)
    strncmp                                  0x1a01484d   Thumb Code   150  strncmp.o(.text)
    strcat                                   0x1a0148e3   Thumb Code    24  strcat.o(.text)
    __aeabi_memcpy                           0x1a0148fb   Thumb Code     0  rt_memcpy_v6.o(.text)
    __rt_memcpy                              0x1a0148fb   Thumb Code   138  rt_memcpy_v6.o(.text)
    _memcpy_lastbytes                        0x1a014961   Thumb Code     0  rt_memcpy_v6.o(.text)
    __aeabi_memcpy4                          0x1a014985   Thumb Code     0  rt_memcpy_w.o(.text)
    __aeabi_memcpy8                          0x1a014985   Thumb Code     0  rt_memcpy_w.o(.text)
    __rt_memcpy_w                            0x1a014985   Thumb Code   100  rt_memcpy_w.o(.text)
    _memcpy_lastbytes_aligned                0x1a0149cd   Thumb Code     0  rt_memcpy_w.o(.text)
    __aeabi_memset                           0x1a0149e9   Thumb Code    16  aeabi_memset.o(.text)
    __aeabi_memclr                           0x1a0149f9   Thumb Code     0  rt_memclr.o(.text)
    __rt_memclr                              0x1a0149f9   Thumb Code    68  rt_memclr.o(.text)
    _memset                                  0x1a0149fd   Thumb Code     0  rt_memclr.o(.text)
    __aeabi_memclr4                          0x1a014a3d   Thumb Code     0  rt_memclr_w.o(.text)
    __aeabi_memclr8                          0x1a014a3d   Thumb Code     0  rt_memclr_w.o(.text)
    __rt_memclr_w                            0x1a014a3d   Thumb Code    78  rt_memclr_w.o(.text)
    _memset_w                                0x1a014a41   Thumb Code     0  rt_memclr_w.o(.text)
    strncpy                                  0x1a014a8b   Thumb Code    86  strncpy.o(.text)
    strcmp                                   0x1a014ae1   Thumb Code   128  strcmpv7m.o(.text)
    __use_two_region_memory                  0x1a014b61   Thumb Code     2  heapauxi.o(.text)
    __rt_heap_escrow$2region                 0x1a014b63   Thumb Code     2  heapauxi.o(.text)
    __rt_heap_expand$2region                 0x1a014b65   Thumb Code     2  heapauxi.o(.text)
    _ll_udiv10                               0x1a014b67   Thumb Code   138  lludiv10.o(.text)
    _printf_int_common                       0x1a014bf1   Thumb Code   178  _printf_intcommon.o(.text)
    _printf_cs_common                        0x1a014ca3   Thumb Code    20  _printf_char.o(.text)
    _printf_char                             0x1a014cb7   Thumb Code    16  _printf_char.o(.text)
    _printf_string                           0x1a014cc7   Thumb Code     8  _printf_char.o(.text)
    _printf_char_file                        0x1a014cd1   Thumb Code    32  _printf_char_file.o(.text)
    _printf_char_common                      0x1a014cff   Thumb Code    32  _printf_char_common.o(.text)
    __user_setup_stackheap                   0x1a014d25   Thumb Code    74  sys_stackheap_outer.o(.text)
    exit                                     0x1a014d6f   Thumb Code    18  exit.o(.text)
    __user_libspace                          0x1a014d81   Thumb Code     8  libspace.o(.text)
    __user_perproc_libspace                  0x1a014d81   Thumb Code     0  libspace.o(.text)
    __user_perthread_libspace                0x1a014d81   Thumb Code     0  libspace.o(.text)
    Chip_Clock_Enable                        0x1a014d89   Thumb Code    46  clock_18xx_43xx.o(i.Chip_Clock_Enable)
    Chip_Clock_EnableOpts                    0x1a014dc1   Thumb Code    52  clock_18xx_43xx.o(i.Chip_Clock_EnableOpts)
    Chip_Clock_GetBaseClock                  0x1a014e4d   Thumb Code    32  clock_18xx_43xx.o(i.Chip_Clock_GetBaseClock)
    Chip_Clock_GetBaseClocktHz               0x1a014e71   Thumb Code    18  clock_18xx_43xx.o(i.Chip_Clock_GetBaseClocktHz)
    Chip_Clock_GetClockInputHz               0x1a014e85   Thumb Code   182  clock_18xx_43xx.o(i.Chip_Clock_GetClockInputHz)
    Chip_Clock_GetDividerDivisor             0x1a014f81   Thumb Code    18  clock_18xx_43xx.o(i.Chip_Clock_GetDividerDivisor)
    Chip_Clock_GetDividerSource              0x1a014fa1   Thumb Code    26  clock_18xx_43xx.o(i.Chip_Clock_GetDividerSource)
    Chip_Clock_GetEMCRate                    0x1a014fc1   Thumb Code    38  clock_18xx_43xx.o(i.Chip_Clock_GetEMCRate)
    Chip_Clock_GetMainPLLHz                  0x1a014ff1   Thumb Code   110  clock_18xx_43xx.o(i.Chip_Clock_GetMainPLLHz)
    Chip_Clock_GetRate                       0x1a015069   Thumb Code    78  clock_18xx_43xx.o(i.Chip_Clock_GetRate)
    Chip_Clock_SetBaseClock                  0x1a0150c1   Thumb Code    64  clock_18xx_43xx.o(i.Chip_Clock_SetBaseClock)
    Chip_Clock_SetDivider                    0x1a015109   Thumb Code    64  clock_18xx_43xx.o(i.Chip_Clock_SetDivider)
    Chip_EMC_Dynamic_Init                    0x1a015159   Thumb Code    22  emc_18xx_43xx.o(i.Chip_EMC_Dynamic_Init)
    Chip_EMC_Init                            0x1a015175   Thumb Code    40  emc_18xx_43xx.o(i.Chip_EMC_Init)
    Chip_EMC_Static_Init                     0x1a0151a1   Thumb Code    22  emc_18xx_43xx.o(i.Chip_EMC_Static_Init)
    Chip_GPIO_Init                           0x1a0151bd   Thumb Code     2  gpio_18xx_43xx.o(i.Chip_GPIO_Init)
    Chip_I2C_EventHandler                    0x1a0151c1   Thumb Code    36  i2c_18xx_43xx.o(i.Chip_I2C_EventHandler)
    Chip_I2C_EventHandlerPolling             0x1a0151e9   Thumb Code    58  i2c_18xx_43xx.o(i.Chip_I2C_EventHandlerPolling)
    Chip_I2C_GetMasterEventHandler           0x1a015229   Thumb Code    16  i2c_18xx_43xx.o(i.Chip_I2C_GetMasterEventHandler)
    Chip_I2C_Init                            0x1a01523d   Thumb Code    40  i2c_18xx_43xx.o(i.Chip_I2C_Init)
    Chip_I2C_IsStateChanged                  0x1a015269   Thumb Code    20  i2c_18xx_43xx.o(i.Chip_I2C_IsStateChanged)
    Chip_I2C_MasterCmdRead                   0x1a015281   Thumb Code    58  i2c_18xx_43xx.o(i.Chip_I2C_MasterCmdRead)
    Chip_I2C_MasterSend                      0x1a0152bb   Thumb Code    50  i2c_18xx_43xx.o(i.Chip_I2C_MasterSend)
    Chip_I2C_MasterStateHandler              0x1a0152ed   Thumb Code    50  i2c_18xx_43xx.o(i.Chip_I2C_MasterStateHandler)
    Chip_I2C_MasterTransfer                  0x1a015325   Thumb Code   102  i2c_18xx_43xx.o(i.Chip_I2C_MasterTransfer)
    Chip_I2C_SetClockRate                    0x1a015391   Thumb Code    56  i2c_18xx_43xx.o(i.Chip_I2C_SetClockRate)
    Chip_I2C_SetMasterEventHandler           0x1a0153cd   Thumb Code    34  i2c_18xx_43xx.o(i.Chip_I2C_SetMasterEventHandler)
    Chip_I2S_Init                            0x1a0153f5   Thumb Code    12  i2s_18xx_43xx.o(i.Chip_I2S_Init)
    Chip_I2S_TxConfig                        0x1a015401   Thumb Code   122  i2s_18xx_43xx.o(i.Chip_I2S_TxConfig)
    Chip_RGU_InReset                         0x1a01547d   Thumb Code    52  rgu_18xx_43xx.o(i.Chip_RGU_InReset)
    Chip_RGU_TriggerReset                    0x1a0154b5   Thumb Code    38  rgu_18xx_43xx.o(i.Chip_RGU_TriggerReset)
    Chip_SDIF_DmaSetup                       0x1a0154e1   Thumb Code   114  sdif_18xx_43xx.o(i.Chip_SDIF_DmaSetup)
    Chip_SDIF_GetResponse                    0x1a015559   Thumb Code    18  sdif_18xx_43xx.o(i.Chip_SDIF_GetResponse)
    Chip_SDIF_Init                           0x1a01556d   Thumb Code    72  sdif_18xx_43xx.o(i.Chip_SDIF_Init)
    Chip_SDIF_SendCmd                        0x1a0155bd   Thumb Code    82  sdif_18xx_43xx.o(i.Chip_SDIF_SendCmd)
    Chip_SDIF_SetClearIntFifo                0x1a015617   Thumb Code    26  sdif_18xx_43xx.o(i.Chip_SDIF_SetClearIntFifo)
    Chip_SDIF_SetClock                       0x1a015631   Thumb Code    74  sdif_18xx_43xx.o(i.Chip_SDIF_SetClock)
    Chip_SDMMC_Acquire                       0x1a015681   Thumb Code   720  sdmmc_18xx_43xx.o(i.Chip_SDMMC_Acquire)
    Chip_SDMMC_GetDeviceBlocks               0x1a015975   Thumb Code    12  sdmmc_18xx_43xx.o(i.Chip_SDMMC_GetDeviceBlocks)
    Chip_SDMMC_GetState                      0x1a015985   Thumb Code    52  sdmmc_18xx_43xx.o(i.Chip_SDMMC_GetState)
    Chip_SDMMC_ReadBlocks                    0x1a0159c1   Thumb Code   154  sdmmc_18xx_43xx.o(i.Chip_SDMMC_ReadBlocks)
    Chip_SDMMC_WriteBlocks                   0x1a015a69   Thumb Code   160  sdmmc_18xx_43xx.o(i.Chip_SDMMC_WriteBlocks)
    Chip_SSP_Init                            0x1a015b4d   Thumb Code    56  ssp_18xx_43xx.o(i.Chip_SSP_Init)
    Chip_SSP_SetBitRate                      0x1a015b97   Thumb Code    70  ssp_18xx_43xx.o(i.Chip_SSP_SetBitRate)
    Chip_SSP_SetClockRate                    0x1a015bdd   Thumb Code    20  ssp_18xx_43xx.o(i.Chip_SSP_SetClockRate)
    Chip_SSP_SetMaster                       0x1a015bf1   Thumb Code    28  ssp_18xx_43xx.o(i.Chip_SSP_SetMaster)
    Chip_SSP_WriteFrames_Blocking            0x1a015c19   Thumb Code   234  ssp_18xx_43xx.o(i.Chip_SSP_WriteFrames_Blocking)
    Chip_SetupCoreClock                      0x1a015d03   Thumb Code    14  sysinit_18xx_43xx.o(i.Chip_SetupCoreClock)
    Chip_UART_Init                           0x1a015d55   Thumb Code    72  uart_18xx_43xx.o(i.Chip_UART_Init)
    Chip_UART_SetBaud                        0x1a015da1   Thumb Code    66  uart_18xx_43xx.o(i.Chip_UART_SetBaud)
    SystemCoreClockUpdate                    0x1a015de9   Thumb Code    14  chip_18xx_43xx.o(i.SystemCoreClockUpdate)
    _is_digit                                0x1a015dfd   Thumb Code    14  __printf_wp.o(i._is_digit)
    fpuInit                                  0x1a015f25   Thumb Code    62  fpu_init.o(i.fpuInit)
    handleMasterXferState                    0x1a016127   Thumb Code   224  i2c_18xx_43xx.o(i.handleMasterXferState)
    initDynMem                               0x1a016207   Thumb Code   488  emc_18xx_43xx.o(i.initDynMem)
    initStaticMem                            0x1a0163ef   Thumb Code   104  emc_18xx_43xx.o(i.initStaticMem)
    _fp_init                                 0x1a0168f3   Thumb Code    10  fpinit.o(x$fpl$fpinit)
    __fplib_config_fpu_vfp                   0x1a0168fb   Thumb Code     0  fpinit.o(x$fpl$fpinit)
    __fplib_config_pureend_doubles           0x1a0168fb   Thumb Code     0  fpinit.o(x$fpl$fpinit)
    ad_left                                  0x1a016b60   Data           4  board.o(.constdata)
    ad_top                                   0x1a016b64   Data           4  board.o(.constdata)
    ad_right                                 0x1a016b68   Data           4  board.o(.constdata)
    ad_bottom                                0x1a016b6c   Data           4  board.o(.constdata)
    MCB4300_LCD                              0x1a016b70   Data          22  board.o(.constdata)
    ExtRateIn                                0x1a016b88   Data           4  board.o(.constdata)
    OscRateIn                                0x1a016b8c   Data           4  board.o(.constdata)
    Region$$Table$$Base                      0x1a017770   Number         0  anon$$obj.o(Region$$Table)
    Region$$Table$$Limit                     0x1a0177a0   Number         0  anon$$obj.o(Region$$Table)



==============================================================================

Memory Map of the image

  Image Entry point : 0x1a000115

  Load Region LR_IROM1 (Base: 0x1a000000, Size: 0x00017890, Max: 0x00080000, ABSOLUTE)

    Execution Region RW_IRAM1 (Base: 0x10000000, Size: 0x00001d30, Max: 0x00008000, ABSOLUTE)

    Base Addr    Size         Type   Attr      Idx    E Section Name        Object

    0x10000000   0x00000ddc   Zero   RW            2    .bss                raw-os.o
    0x10000ddc   0x00000004   PAD
    0x10000de0   0x00000f50   Zero   RW          791    .bss                main.o


    Execution Region RW_IRAM2 (Base: 0x10080000, Size: 0x00003c20, Max: 0x0000a000, ABSOLUTE)

    Base Addr    Size         Type   Attr      Idx    E Section Name        Object

    0x10080000   0x00000038   Data   RW            3    .data               raw-os.o
    0x10080038   0x00000004   Data   RW          268    .data               raw_malloc.o
    0x1008003c   0x00000004   Data   RW          314    .data               port.o
    0x10080040   0x0000000c   Data   RW          674    .data               k9f1g08.o
    0x1008004c   0x00000008   Data   RW          793    .data               main.o
    0x10080054   0x00000018   Data   RW          939    .data               yaffsfs.o
    0x1008006c   0x00000004   Data   RW          940    .data               yaffsfs.o
    0x10080070   0x00000008   Data   RW         1177    .data               yaffs_tagscompat.o
    0x10080078   0x00000004   Data   RW         1204    .data               yaffs_verify.o
    0x1008007c   0x00000004   Data   RW         1259    .data               yaffs_osglue.o
    0x10080080   0x00000004   Data   RW         1280    .data               yaffscfg2k.o
    0x10080084   0x00000004   Data   RW         1281    .data               yaffscfg2k.o
    0x10080088   0x0000000c   Data   RW         1383    .data               ff.o
    0x10080094   0x00000014   Data   RW         1416    .data               lib_lpc_board_keil_mcb_4357.lib(board.o)
    0x100800a8   0x00000004   Data   RW         1711    .data               lib_lpc_chip_43xx.lib(chip_18xx_43xx.o)
    0x100800ac   0x00000004   Data   RW         2015    .data               lib_lpc_chip_43xx.lib(sdmmc_18xx_43xx.o)
    0x100800b0   0x00000008   Data   RW         2355    .data               lib_lpc_chip_43xx.lib(clock_18xx_43xx.o)
    0x100800b8   0x00000038   Data   RW         2701    .data               lib_lpc_chip_43xx.lib(i2c_18xx_43xx.o)
    0x100800f0   0x00000050   Zero   RW          267    .bss                raw_malloc.o
    0x10080140   0x00000038   Zero   RW          293    .bss                raw_page.o
    0x10080178   0x000032f0   Zero   RW          938    .bss                yaffsfs.o
    0x10083468   0x00000020   Zero   RW         1176    .bss                yaffs_tagscompat.o
    0x10083488   0x00000028   Zero   RW         1258    .bss                yaffs_osglue.o
    0x100834b0   0x0000000c   Zero   RW         1381    .bss                ff.o
    0x100834bc   0x00000060   Zero   RW         3331    .bss                c_w.l(libspace.o)
    0x1008351c   0x00000004   PAD
    0x10083520   0x00000100   Zero   RW          383    HEAP                keil_startup_lpc18xx43xx.o
    0x10083620   0x00000600   Zero   RW          382    STACK               keil_startup_lpc18xx43xx.o


    Execution Region ER_IROM1 (Base: 0x1a000000, Size: 0x000177a0, Max: 0x00080000, ABSOLUTE)

    Base Addr    Size         Type   Attr      Idx    E Section Name        Object

    0x1a000000   0x00000114   Data   RO          384    RESET               keil_startup_lpc18xx43xx.o
    0x1a000114   0x00000008   Code   RO         3278  * !!!main             c_w.l(__main.o)
    0x1a00011c   0x00000034   Code   RO         3457    !!!scatter          c_w.l(__scatter.o)
    0x1a000150   0x0000001a   Code   RO         3459    !!handler_copy      c_w.l(__scatter_copy.o)
    0x1a00016a   0x00000002   PAD
    0x1a00016c   0x0000001c   Code   RO         3461    !!handler_zi        c_w.l(__scatter_zi.o)
    0x1a000188   0x00000000   Code   RO         3252    .ARM.Collect$$_printf_percent$$00000000  c_w.l(_printf_percent.o)
    0x1a000188   0x00000006   Code   RO         3249    .ARM.Collect$$_printf_percent$$00000002  c_w.l(_printf_p.o)
    0x1a00018e   0x0000000a   Code   RO         3294    .ARM.Collect$$_printf_percent$$00000007  c_w.l(_printf_ll.o)
    0x1a000198   0x00000006   Code   RO         3250    .ARM.Collect$$_printf_percent$$00000009  c_w.l(_printf_d.o)
    0x1a00019e   0x00000006   Code   RO         3251    .ARM.Collect$$_printf_percent$$0000000A  c_w.l(_printf_u.o)
    0x1a0001a4   0x00000006   Code   RO         3248    .ARM.Collect$$_printf_percent$$0000000C  c_w.l(_printf_x.o)
    0x1a0001aa   0x00000006   Code   RO         3253    .ARM.Collect$$_printf_percent$$0000000E  c_w.l(_printf_lld.o)
    0x1a0001b0   0x00000006   Code   RO         3247    .ARM.Collect$$_printf_percent$$00000014  c_w.l(_printf_s.o)
    0x1a0001b6   0x00000004   Code   RO         3293    .ARM.Collect$$_printf_percent$$00000017  c_w.l(_printf_percent_end.o)
    0x1a0001ba   0x00000002   Code   RO         3329    .ARM.Collect$$libinit$$00000000  c_w.l(libinit.o)
    0x1a0001bc   0x00000004   Code   RO         3341    .ARM.Collect$$libinit$$00000001  c_w.l(libinit2.o)
    0x1a0001c0   0x00000000   Code   RO         3344    .ARM.Collect$$libinit$$00000004  c_w.l(libinit2.o)
    0x1a0001c0   0x00000000   Code   RO         3347    .ARM.Collect$$libinit$$0000000A  c_w.l(libinit2.o)
    0x1a0001c0   0x00000000   Code   RO         3349    .ARM.Collect$$libinit$$0000000C  c_w.l(libinit2.o)
    0x1a0001c0   0x00000000   Code   RO         3351    .ARM.Collect$$libinit$$0000000E  c_w.l(libinit2.o)
    0x1a0001c0   0x00000000   Code   RO         3354    .ARM.Collect$$libinit$$00000011  c_w.l(libinit2.o)
    0x1a0001c0   0x00000000   Code   RO         3356    .ARM.Collect$$libinit$$00000013  c_w.l(libinit2.o)
    0x1a0001c0   0x00000000   Code   RO         3358    .ARM.Collect$$libinit$$00000015  c_w.l(libinit2.o)
    0x1a0001c0   0x00000000   Code   RO         3360    .ARM.Collect$$libinit$$00000017  c_w.l(libinit2.o)
    0x1a0001c0   0x00000000   Code   RO         3362    .ARM.Collect$$libinit$$00000019  c_w.l(libinit2.o)
    0x1a0001c0   0x00000000   Code   RO         3364    .ARM.Collect$$libinit$$0000001B  c_w.l(libinit2.o)
    0x1a0001c0   0x00000000   Code   RO         3366    .ARM.Collect$$libinit$$0000001D  c_w.l(libinit2.o)
    0x1a0001c0   0x00000000   Code   RO         3368    .ARM.Collect$$libinit$$0000001F  c_w.l(libinit2.o)
    0x1a0001c0   0x00000000   Code   RO         3370    .ARM.Collect$$libinit$$00000021  c_w.l(libinit2.o)
    0x1a0001c0   0x00000000   Code   RO         3372    .ARM.Collect$$libinit$$00000023  c_w.l(libinit2.o)
    0x1a0001c0   0x00000000   Code   RO         3374    .ARM.Collect$$libinit$$00000025  c_w.l(libinit2.o)
    0x1a0001c0   0x00000000   Code   RO         3378    .ARM.Collect$$libinit$$0000002C  c_w.l(libinit2.o)
    0x1a0001c0   0x00000000   Code   RO         3380    .ARM.Collect$$libinit$$0000002E  c_w.l(libinit2.o)
    0x1a0001c0   0x00000000   Code   RO         3382    .ARM.Collect$$libinit$$00000030  c_w.l(libinit2.o)
    0x1a0001c0   0x00000000   Code   RO         3384    .ARM.Collect$$libinit$$00000032  c_w.l(libinit2.o)
    0x1a0001c0   0x00000002   Code   RO         3385    .ARM.Collect$$libinit$$00000033  c_w.l(libinit2.o)
    0x1a0001c2   0x00000002   Code   RO         3411    .ARM.Collect$$libshutdown$$00000000  c_w.l(libshutdown.o)
    0x1a0001c4   0x00000000   Code   RO         3440    .ARM.Collect$$libshutdown$$00000002  c_w.l(libshutdown2.o)
    0x1a0001c4   0x00000000   Code   RO         3442    .ARM.Collect$$libshutdown$$00000004  c_w.l(libshutdown2.o)
    0x1a0001c4   0x00000000   Code   RO         3445    .ARM.Collect$$libshutdown$$00000007  c_w.l(libshutdown2.o)
    0x1a0001c4   0x00000000   Code   RO         3448    .ARM.Collect$$libshutdown$$0000000A  c_w.l(libshutdown2.o)
    0x1a0001c4   0x00000000   Code   RO         3450    .ARM.Collect$$libshutdown$$0000000C  c_w.l(libshutdown2.o)
    0x1a0001c4   0x00000000   Code   RO         3453    .ARM.Collect$$libshutdown$$0000000F  c_w.l(libshutdown2.o)
    0x1a0001c4   0x00000002   Code   RO         3454    .ARM.Collect$$libshutdown$$00000010  c_w.l(libshutdown2.o)
    0x1a0001c6   0x00000000   Code   RO         3280    .ARM.Collect$$rtentry$$00000000  c_w.l(__rtentry.o)
    0x1a0001c6   0x00000000   Code   RO         3296    .ARM.Collect$$rtentry$$00000002  c_w.l(__rtentry2.o)
    0x1a0001c6   0x00000006   Code   RO         3308    .ARM.Collect$$rtentry$$00000004  c_w.l(__rtentry4.o)
    0x1a0001cc   0x00000000   Code   RO         3298    .ARM.Collect$$rtentry$$00000009  c_w.l(__rtentry2.o)
    0x1a0001cc   0x00000004   Code   RO         3299    .ARM.Collect$$rtentry$$0000000A  c_w.l(__rtentry2.o)
    0x1a0001d0   0x00000000   Code   RO         3301    .ARM.Collect$$rtentry$$0000000C  c_w.l(__rtentry2.o)
    0x1a0001d0   0x00000008   Code   RO         3302    .ARM.Collect$$rtentry$$0000000D  c_w.l(__rtentry2.o)
    0x1a0001d8   0x00000002   Code   RO         3333    .ARM.Collect$$rtexit$$00000000  c_w.l(rtexit.o)
    0x1a0001da   0x00000000   Code   RO         3387    .ARM.Collect$$rtexit$$00000002  c_w.l(rtexit2.o)
    0x1a0001da   0x00000004   Code   RO         3388    .ARM.Collect$$rtexit$$00000003  c_w.l(rtexit2.o)
    0x1a0001de   0x00000006   Code   RO         3389    .ARM.Collect$$rtexit$$00000004  c_w.l(rtexit2.o)
    0x1a0001e4   0x00002968   Code   RO            1    .text               raw-os.o
    0x1a002b4c   0x00000174   Code   RO          175    .text               fifo.o
    0x1a002cc0   0x000005d8   Code   RO          266    .text               raw_malloc.o
    0x1a003298   0x000003d8   Code   RO          292    .text               raw_page.o
    0x1a003670   0x000000ac   Code   RO          309    .text               cpu.o
    0x1a00371c   0x000001d4   Code   RO          313    .text               port.o
    0x1a0038f0   0x0000001e   Code   RO          328    .text               port_hook.o
    0x1a00390e   0x00000088   Code   RO          346    .text               user_extension.o
    0x1a003996   0x00000058   Code   RO          358    .text               port_error_process.o
    0x1a0039ee   0x00000002   PAD
    0x1a0039f0   0x00000030   Code   RO          370    .text               port_extension.o
    0x1a003a20   0x00000044   Code   RO          385    .text               keil_startup_lpc18xx43xx.o
    0x1a003a64   0x0000001c   Code   RO          391    .text               sysinit.o
    0x1a003a80   0x00000014   Code   RO          617    .text               lpc43xx_scu.o
    0x1a003a94   0x0000045c   Code   RO          650    .text               lpc43xx_sdram.o
    0x1a003ef0   0x0000037c   Code   RO          673    .text               k9f1g08.o
    0x1a00426c   0x00000040   Code   RO          699    .text               lpc43xx_gpio.o
    0x1a0042ac   0x00000164   Code   RO          717    .text               yaffs_port_nand_drv.o
    0x1a004410   0x000007d0   Code   RO          790    .text               main.o
    0x1a004be0   0x00000080   Code   RO          879    .text               yaffs_attribs.o
    0x1a004c60   0x00000028   Code   RO          910    .text               yaffs_hweight.o
    0x1a004c88   0x000002d0   Code   RO          925    .text               yaffs_qsort.o
    0x1a004f58   0x00002d40   Code   RO          937    .text               yaffsfs.o
    0x1a007c98   0x000003fc   Code   RO          974    .text               yaffs_allocator.o
    0x1a008094   0x00000204   Code   RO          998    .text               yaffs_bitmap.o
    0x1a008298   0x000008f4   Code   RO         1013    .text               yaffs_checkptrw.o
    0x1a008b8c   0x0000027c   Code   RO         1032    .text               yaffs_ecc.o
    0x1a008e08   0x00004444   Code   RO         1052    .text               yaffs_guts.o
    0x1a00d24c   0x00000254   Code   RO         1096    .text               yaffs_nameval.o
    0x1a00d4a0   0x00000254   Code   RO         1108    .text               yaffs_nand.o
    0x1a00d6f4   0x000001f8   Code   RO         1140    .text               yaffs_packedtags2.o
    0x1a00d8ec   0x0000047a   Code   RO         1153    .text               yaffs_summary.o
    0x1a00dd66   0x00000002   PAD
    0x1a00dd68   0x000006b4   Code   RO         1175    .text               yaffs_tagscompat.o
    0x1a00e41c   0x00000360   Code   RO         1189    .text               yaffs_tagsmarshall.o
    0x1a00e77c   0x00000c74   Code   RO         1201    .text               yaffs_verify.o
    0x1a00f3f0   0x00000638   Code   RO         1218    .text               yaffs_yaffs1.o
    0x1a00fa28   0x000017ae   Code   RO         1243    .text               yaffs_yaffs2.o
    0x1a0111d6   0x00000002   PAD
    0x1a0111d8   0x00000084   Code   RO         1257    .text               yaffs_osglue.o
    0x1a01125c   0x0000003c   Code   RO         1279    .text               yaffscfg2k.o
    0x1a011298   0x00000068   Code   RO         1305    .text               yaffs_startup.o
    0x1a011300   0x0000004c   Code   RO         1331    .text               diskio.o
    0x1a01134c   0x000021f8   Code   RO         1380    .text               ff.o
    0x1a013544   0x00000aa8   Code   RO         1414    .text               lib_lpc_board_keil_mcb_4357.lib(board.o)
    0x1a013fec   0x0000019c   Code   RO         1654    .text               lib_lpc_board_keil_mcb_4357.lib(board_sysinit.o)
    0x1a014188   0x00000184   Code   RO         2290    .text               lib_lpc_board_keil_mcb_4357.lib(uda1380.o)
    0x1a01430c   0x000000ee   Code   RO         3190    .text               c_w.l(lludivv7m.o)
    0x1a0143fa   0x00000002   PAD
    0x1a0143fc   0x00000018   Code   RO         3194    .text               c_w.l(noretval__2printf.o)
    0x1a014414   0x0000004e   Code   RO         3198    .text               c_w.l(_printf_pad.o)
    0x1a014462   0x00000052   Code   RO         3200    .text               c_w.l(_printf_str.o)
    0x1a0144b4   0x00000078   Code   RO         3202    .text               c_w.l(_printf_dec.o)
    0x1a01452c   0x0000007c   Code   RO         3204    .text               c_w.l(_printf_longlong_dec.o)
    0x1a0145a8   0x0000007c   Code   RO         3218    .text               c_w.l(_printf_hex_int_ptr.o)
    0x1a014624   0x00000188   Code   RO         3244    .text               c_w.l(__printf_flags_ss_wp.o)
    0x1a0147ac   0x00000058   Code   RO         3254    .text               c_w.l(memcmp.o)
    0x1a014804   0x00000048   Code   RO         3256    .text               c_w.l(strcpy.o)
    0x1a01484c   0x00000096   Code   RO         3258    .text               c_w.l(strncmp.o)
    0x1a0148e2   0x00000018   Code   RO         3260    .text               c_w.l(strcat.o)
    0x1a0148fa   0x0000008a   Code   RO         3262    .text               c_w.l(rt_memcpy_v6.o)
    0x1a014984   0x00000064   Code   RO         3264    .text               c_w.l(rt_memcpy_w.o)
    0x1a0149e8   0x00000010   Code   RO         3266    .text               c_w.l(aeabi_memset.o)
    0x1a0149f8   0x00000044   Code   RO         3268    .text               c_w.l(rt_memclr.o)
    0x1a014a3c   0x0000004e   Code   RO         3270    .text               c_w.l(rt_memclr_w.o)
    0x1a014a8a   0x00000056   Code   RO         3272    .text               c_w.l(strncpy.o)
    0x1a014ae0   0x00000080   Code   RO         3274    .text               c_w.l(strcmpv7m.o)
    0x1a014b60   0x00000006   Code   RO         3276    .text               c_w.l(heapauxi.o)
    0x1a014b66   0x0000008a   Code   RO         3285    .text               c_w.l(lludiv10.o)
    0x1a014bf0   0x000000b2   Code   RO         3287    .text               c_w.l(_printf_intcommon.o)
    0x1a014ca2   0x0000002c   Code   RO         3289    .text               c_w.l(_printf_char.o)
    0x1a014cce   0x00000002   PAD
    0x1a014cd0   0x00000024   Code   RO         3291    .text               c_w.l(_printf_char_file.o)
    0x1a014cf4   0x00000030   Code   RO         3312    .text               c_w.l(_printf_char_common.o)
    0x1a014d24   0x0000004a   Code   RO         3314    .text               c_w.l(sys_stackheap_outer.o)
    0x1a014d6e   0x00000012   Code   RO         3318    .text               c_w.l(exit.o)
    0x1a014d80   0x00000008   Code   RO         3330    .text               c_w.l(libspace.o)
    0x1a014d88   0x00000038   Code   RO         2325    i.Chip_Clock_Enable  lib_lpc_chip_43xx.lib(clock_18xx_43xx.o)
    0x1a014dc0   0x0000003c   Code   RO         2329    i.Chip_Clock_EnableOpts  lib_lpc_chip_43xx.lib(clock_18xx_43xx.o)
    0x1a014dfc   0x00000050   Code   RO         2331    i.Chip_Clock_FindBaseClock  lib_lpc_chip_43xx.lib(clock_18xx_43xx.o)
    0x1a014e4c   0x00000024   Code   RO         2332    i.Chip_Clock_GetBaseClock  lib_lpc_chip_43xx.lib(clock_18xx_43xx.o)
    0x1a014e70   0x00000012   Code   RO         2334    i.Chip_Clock_GetBaseClocktHz  lib_lpc_chip_43xx.lib(clock_18xx_43xx.o)
    0x1a014e82   0x00000002   PAD
    0x1a014e84   0x000000d4   Code   RO         2335    i.Chip_Clock_GetClockInputHz  lib_lpc_chip_43xx.lib(clock_18xx_43xx.o)
    0x1a014f58   0x00000028   Code   RO         2336    i.Chip_Clock_GetDivRate  lib_lpc_chip_43xx.lib(clock_18xx_43xx.o)
    0x1a014f80   0x00000020   Code   RO         2337    i.Chip_Clock_GetDividerDivisor  lib_lpc_chip_43xx.lib(clock_18xx_43xx.o)
    0x1a014fa0   0x00000020   Code   RO         2338    i.Chip_Clock_GetDividerSource  lib_lpc_chip_43xx.lib(clock_18xx_43xx.o)
    0x1a014fc0   0x00000030   Code   RO         2339    i.Chip_Clock_GetEMCRate  lib_lpc_chip_43xx.lib(clock_18xx_43xx.o)
    0x1a014ff0   0x00000078   Code   RO         2340    i.Chip_Clock_GetMainPLLHz  lib_lpc_chip_43xx.lib(clock_18xx_43xx.o)
    0x1a015068   0x00000058   Code   RO         2342    i.Chip_Clock_GetRate  lib_lpc_chip_43xx.lib(clock_18xx_43xx.o)
    0x1a0150c0   0x00000048   Code   RO         2346    i.Chip_Clock_SetBaseClock  lib_lpc_chip_43xx.lib(clock_18xx_43xx.o)
    0x1a015108   0x00000050   Code   RO         2347    i.Chip_Clock_SetDivider  lib_lpc_chip_43xx.lib(clock_18xx_43xx.o)
    0x1a015158   0x0000001c   Code   RO         2543    i.Chip_EMC_Dynamic_Init  lib_lpc_chip_43xx.lib(emc_18xx_43xx.o)
    0x1a015174   0x0000002c   Code   RO         2545    i.Chip_EMC_Init     lib_lpc_chip_43xx.lib(emc_18xx_43xx.o)
    0x1a0151a0   0x0000001c   Code   RO         2548    i.Chip_EMC_Static_Init  lib_lpc_chip_43xx.lib(emc_18xx_43xx.o)
    0x1a0151bc   0x00000002   Code   RO         2621    i.Chip_GPIO_Init    lib_lpc_chip_43xx.lib(gpio_18xx_43xx.o)
    0x1a0151be   0x00000002   PAD
    0x1a0151c0   0x00000028   Code   RO         2675    i.Chip_I2C_EventHandler  lib_lpc_chip_43xx.lib(i2c_18xx_43xx.o)
    0x1a0151e8   0x00000040   Code   RO         2676    i.Chip_I2C_EventHandlerPolling  lib_lpc_chip_43xx.lib(i2c_18xx_43xx.o)
    0x1a015228   0x00000014   Code   RO         2678    i.Chip_I2C_GetMasterEventHandler  lib_lpc_chip_43xx.lib(i2c_18xx_43xx.o)
    0x1a01523c   0x0000002c   Code   RO         2679    i.Chip_I2C_Init     lib_lpc_chip_43xx.lib(i2c_18xx_43xx.o)
    0x1a015268   0x00000018   Code   RO         2681    i.Chip_I2C_IsStateChanged  lib_lpc_chip_43xx.lib(i2c_18xx_43xx.o)
    0x1a015280   0x0000003a   Code   RO         2682    i.Chip_I2C_MasterCmdRead  lib_lpc_chip_43xx.lib(i2c_18xx_43xx.o)
    0x1a0152ba   0x00000032   Code   RO         2684    i.Chip_I2C_MasterSend  lib_lpc_chip_43xx.lib(i2c_18xx_43xx.o)
    0x1a0152ec   0x00000038   Code   RO         2685    i.Chip_I2C_MasterStateHandler  lib_lpc_chip_43xx.lib(i2c_18xx_43xx.o)
    0x1a015324   0x0000006c   Code   RO         2686    i.Chip_I2C_MasterTransfer  lib_lpc_chip_43xx.lib(i2c_18xx_43xx.o)
    0x1a015390   0x0000003c   Code   RO         2687    i.Chip_I2C_SetClockRate  lib_lpc_chip_43xx.lib(i2c_18xx_43xx.o)
    0x1a0153cc   0x00000028   Code   RO         2688    i.Chip_I2C_SetMasterEventHandler  lib_lpc_chip_43xx.lib(i2c_18xx_43xx.o)
    0x1a0153f4   0x0000000c   Code   RO         2849    i.Chip_I2S_Init     lib_lpc_chip_43xx.lib(i2s_18xx_43xx.o)
    0x1a015400   0x0000007a   Code   RO         2853    i.Chip_I2S_TxConfig  lib_lpc_chip_43xx.lib(i2s_18xx_43xx.o)
    0x1a01547a   0x00000002   PAD
    0x1a01547c   0x00000038   Code   RO         2914    i.Chip_RGU_InReset  lib_lpc_chip_43xx.lib(rgu_18xx_43xx.o)
    0x1a0154b4   0x0000002c   Code   RO         2915    i.Chip_RGU_TriggerReset  lib_lpc_chip_43xx.lib(rgu_18xx_43xx.o)
    0x1a0154e0   0x00000078   Code   RO         1936    i.Chip_SDIF_DmaSetup  lib_lpc_chip_43xx.lib(sdif_18xx_43xx.o)
    0x1a015558   0x00000012   Code   RO         1937    i.Chip_SDIF_GetResponse  lib_lpc_chip_43xx.lib(sdif_18xx_43xx.o)
    0x1a01556a   0x00000002   PAD
    0x1a01556c   0x00000050   Code   RO         1938    i.Chip_SDIF_Init    lib_lpc_chip_43xx.lib(sdif_18xx_43xx.o)
    0x1a0155bc   0x00000052   Code   RO         1939    i.Chip_SDIF_SendCmd  lib_lpc_chip_43xx.lib(sdif_18xx_43xx.o)
    0x1a01560e   0x00000004   Code   RO         2001    i.Chip_SDIF_SetByteCnt  lib_lpc_chip_43xx.lib(sdmmc_18xx_43xx.o)
    0x1a015612   0x00000004   Code   RO         2002    i.Chip_SDIF_SetCardType  lib_lpc_chip_43xx.lib(sdmmc_18xx_43xx.o)
    0x1a015616   0x0000001a   Code   RO         1940    i.Chip_SDIF_SetClearIntFifo  lib_lpc_chip_43xx.lib(sdif_18xx_43xx.o)
    0x1a015630   0x00000050   Code   RO         1941    i.Chip_SDIF_SetClock  lib_lpc_chip_43xx.lib(sdif_18xx_43xx.o)
    0x1a015680   0x000002f4   Code   RO         2003    i.Chip_SDMMC_Acquire  lib_lpc_chip_43xx.lib(sdmmc_18xx_43xx.o)
    0x1a015974   0x00000010   Code   RO         2004    i.Chip_SDMMC_GetDeviceBlocks  lib_lpc_chip_43xx.lib(sdmmc_18xx_43xx.o)
    0x1a015984   0x0000003c   Code   RO         2006    i.Chip_SDMMC_GetState  lib_lpc_chip_43xx.lib(sdmmc_18xx_43xx.o)
    0x1a0159c0   0x000000a8   Code   RO         2007    i.Chip_SDMMC_ReadBlocks  lib_lpc_chip_43xx.lib(sdmmc_18xx_43xx.o)
    0x1a015a68   0x000000ac   Code   RO         2008    i.Chip_SDMMC_WriteBlocks  lib_lpc_chip_43xx.lib(sdmmc_18xx_43xx.o)
    0x1a015b14   0x00000004   Code   RO         2945    i.Chip_SSP_ClearIntPending  lib_lpc_chip_43xx.lib(ssp_18xx_43xx.o)
    0x1a015b18   0x00000014   Code   RO         2947    i.Chip_SSP_GetClockIndex  lib_lpc_chip_43xx.lib(ssp_18xx_43xx.o)
    0x1a015b2c   0x00000010   Code   RO         2948    i.Chip_SSP_GetRawIntStatus  lib_lpc_chip_43xx.lib(ssp_18xx_43xx.o)
    0x1a015b3c   0x00000010   Code   RO         2949    i.Chip_SSP_GetStatus  lib_lpc_chip_43xx.lib(ssp_18xx_43xx.o)
    0x1a015b4c   0x0000003c   Code   RO         2950    i.Chip_SSP_Init     lib_lpc_chip_43xx.lib(ssp_18xx_43xx.o)
    0x1a015b88   0x00000008   Code   RO         2956    i.Chip_SSP_ReceiveFrame  lib_lpc_chip_43xx.lib(ssp_18xx_43xx.o)
    0x1a015b90   0x00000006   Code   RO         2957    i.Chip_SSP_SendFrame  lib_lpc_chip_43xx.lib(ssp_18xx_43xx.o)
    0x1a015b96   0x00000046   Code   RO         2958    i.Chip_SSP_SetBitRate  lib_lpc_chip_43xx.lib(ssp_18xx_43xx.o)
    0x1a015bdc   0x00000014   Code   RO         2959    i.Chip_SSP_SetClockRate  lib_lpc_chip_43xx.lib(ssp_18xx_43xx.o)
    0x1a015bf0   0x0000001c   Code   RO         2960    i.Chip_SSP_SetMaster  lib_lpc_chip_43xx.lib(ssp_18xx_43xx.o)
    0x1a015c0c   0x0000000c   Code   RO         2961    i.Chip_SSP_Set_Mode  lib_lpc_chip_43xx.lib(ssp_18xx_43xx.o)
    0x1a015c18   0x000000ea   Code   RO         2962    i.Chip_SSP_WriteFrames_Blocking  lib_lpc_chip_43xx.lib(ssp_18xx_43xx.o)
    0x1a015d02   0x0000000e   Code   RO         3083    i.Chip_SetupCoreClock  lib_lpc_chip_43xx.lib(sysinit_18xx_43xx.o)
    0x1a015d10   0x0000000a   Code   RO         2103    i.Chip_UART_DisableDivisorAccess  lib_lpc_chip_43xx.lib(uart_18xx_43xx.o)
    0x1a015d1a   0x0000000a   Code   RO         2104    i.Chip_UART_EnableDivisorAccess  lib_lpc_chip_43xx.lib(uart_18xx_43xx.o)
    0x1a015d24   0x00000030   Code   RO         2106    i.Chip_UART_GetClockIndex  lib_lpc_chip_43xx.lib(uart_18xx_43xx.o)
    0x1a015d54   0x0000004c   Code   RO         2108    i.Chip_UART_Init    lib_lpc_chip_43xx.lib(uart_18xx_43xx.o)
    0x1a015da0   0x00000042   Code   RO         2120    i.Chip_UART_SetBaud  lib_lpc_chip_43xx.lib(uart_18xx_43xx.o)
    0x1a015de2   0x00000006   Code   RO         2122    i.Chip_UART_SetDivisorLatches  lib_lpc_chip_43xx.lib(uart_18xx_43xx.o)
    0x1a015de8   0x00000014   Code   RO         1709    i.SystemCoreClockUpdate  lib_lpc_chip_43xx.lib(chip_18xx_43xx.o)
    0x1a015dfc   0x0000000e   Code   RO         3237    i._is_digit         c_w.l(__printf_wp.o)
    0x1a015e0a   0x00000024   Code   RO         3087    i.clock_init_delay  lib_lpc_chip_43xx.lib(sysinit_18xx_43xx.o)
    0x1a015e2e   0x00000002   PAD
    0x1a015e30   0x000000bc   Code   RO         3088    i.clock_main_init   lib_lpc_chip_43xx.lib(sysinit_18xx_43xx.o)
    0x1a015eec   0x00000038   Code   RO         2549    i.convertTimmingParam  lib_lpc_chip_43xx.lib(emc_18xx_43xx.o)
    0x1a015f24   0x00000050   Code   RO         2267    i.fpuInit           lib_lpc_chip_43xx.lib(fpu_init.o)
    0x1a015f74   0x00000162   Code   RO         2854    i.getClkDiv         lib_lpc_chip_43xx.lib(i2s_18xx_43xx.o)
    0x1a0160d6   0x00000002   PAD
    0x1a0160d8   0x0000001c   Code   RO         2691    i.getClkRate        lib_lpc_chip_43xx.lib(i2c_18xx_43xx.o)
    0x1a0160f4   0x00000028   Code   RO         2550    i.getColsLen        lib_lpc_chip_43xx.lib(emc_18xx_43xx.o)
    0x1a01611c   0x0000000a   Code   RO         2692    i.getCurState       lib_lpc_chip_43xx.lib(i2c_18xx_43xx.o)
    0x1a016126   0x000000e0   Code   RO         2694    i.handleMasterXferState  lib_lpc_chip_43xx.lib(i2c_18xx_43xx.o)
    0x1a016206   0x000001e8   Code   RO         2551    i.initDynMem        lib_lpc_chip_43xx.lib(emc_18xx_43xx.o)
    0x1a0163ee   0x00000068   Code   RO         2552    i.initStaticMem     lib_lpc_chip_43xx.lib(emc_18xx_43xx.o)
    0x1a016456   0x00000002   PAD
    0x1a016458   0x00000018   Code   RO         2009    i.prv_card_acquired  lib_lpc_chip_43xx.lib(sdmmc_18xx_43xx.o)
    0x1a016470   0x00000040   Code   RO         2010    i.prv_get_bits      lib_lpc_chip_43xx.lib(sdmmc_18xx_43xx.o)
    0x1a0164b0   0x0000019c   Code   RO         2011    i.prv_process_csd   lib_lpc_chip_43xx.lib(sdmmc_18xx_43xx.o)
    0x1a01664c   0x00000060   Code   RO         2012    i.prv_set_card_params  lib_lpc_chip_43xx.lib(sdmmc_18xx_43xx.o)
    0x1a0166ac   0x00000074   Code   RO         2013    i.prv_set_trans_state  lib_lpc_chip_43xx.lib(sdmmc_18xx_43xx.o)
    0x1a016720   0x000001c8   Code   RO         2014    i.sdmmc_execute_command  lib_lpc_chip_43xx.lib(sdmmc_18xx_43xx.o)
    0x1a0168e8   0x0000000a   Code   RO         2699    i.startSlaverXfer   lib_lpc_chip_43xx.lib(i2c_18xx_43xx.o)
    0x1a0168f2   0x0000000a   Code   RO         3399    x$fpl$fpinit        fz_wm.l(fpinit.o)
    0x1a0168fc   0x00000100   Data   RO          911    .constdata          yaffs_hweight.o
    0x1a0169fc   0x00000100   Data   RO         1033    .constdata          yaffs_ecc.o
    0x1a016afc   0x00000028   Data   RO         1202    .constdata          yaffs_verify.o
    0x1a016b24   0x0000002c   Data   RO         1382    .constdata          ff.o
    0x1a016b50   0x00000040   Data   RO         1415    .constdata          lib_lpc_board_keil_mcb_4357.lib(board.o)
    0x1a016b90   0x000002bc   Data   RO         1655    .constdata          lib_lpc_board_keil_mcb_4357.lib(board_sysinit.o)
    0x1a016e4c   0x0000001f   Data   RO         2291    .constdata          lib_lpc_board_keil_mcb_4357.lib(uda1380.o)
    0x1a016e6b   0x00000001   PAD
    0x1a016e6c   0x0000006c   Data   RO         2354    .constdata          lib_lpc_chip_43xx.lib(clock_18xx_43xx.o)
    0x1a016ed8   0x00000048   Data   RO         3089    .constdata          lib_lpc_chip_43xx.lib(sysinit_18xx_43xx.o)
    0x1a016f20   0x00000028   Data   RO         3219    .constdata          c_w.l(_printf_hex_int_ptr.o)
    0x1a016f48   0x00000011   Data   RO         3245    .constdata          c_w.l(__printf_flags_ss_wp.o)
    0x1a016f59   0x00000003   PAD
    0x1a016f5c   0x0000004f   Data   RO          792    .conststring        main.o
    0x1a016fab   0x00000001   PAD
    0x1a016fac   0x0000009d   Data   RO         1014    .conststring        yaffs_checkptrw.o
    0x1a017049   0x00000003   PAD
    0x1a01704c   0x0000024d   Data   RO         1053    .conststring        yaffs_guts.o
    0x1a017299   0x00000003   PAD
    0x1a01729c   0x0000005b   Data   RO         1141    .conststring        yaffs_packedtags2.o
    0x1a0172f7   0x00000001   PAD
    0x1a0172f8   0x00000186   Data   RO         1203    .conststring        yaffs_verify.o
    0x1a01747e   0x00000002   PAD
    0x1a017480   0x00000062   Data   RO         1219    .conststring        yaffs_yaffs1.o
    0x1a0174e2   0x00000002   PAD
    0x1a0174e4   0x0000028c   Data   RO         1244    .conststring        yaffs_yaffs2.o
    0x1a017770   0x00000030   Data   RO         3455    Region$$Table       anon$$obj.o


==============================================================================

Image component sizes


      Code (inc. data)   RO Data    RW Data    ZI Data      Debug   Object Name

       172         16          0          0          0        400   cpu.o
        76          0          0          0          0       6182   diskio.o
      8696        134         44         12         12      32226   ff.o
       372          0          0          0          0       8968   fifo.o
       892          8          0         12          0       7175   k9f1g08.o
        68         28        276          0       1792        952   keil_startup_lpc18xx43xx.o
