Component: ARM Compiler 5.06 (build 20) Tool: armlink [4d35a3]

==============================================================================

Section Cross References

    raw-os.o(.text) refers to cpu.o(.text) for OS_CPU_SR_Save
    raw-os.o(.text) refers to port_error_process.o(.text) for port_system_error_process
    raw-os.o(.text) refers to raw-os.o(.data) for .data
    raw-os.o(.text) refers to raw-os.o(.bss) for .bss
    raw-os.o(.text) refers to user_extension.o(.text) for raw_memset
    raw-os.o(.text) refers to port.o(.text) for port_stack_init
    raw-os.o(.text) refers to port_hook.o(.text) for task_create_hook
    raw-os.o(.text) refers to port_extension.o(.text) for user_sys_time_get
    raw-os.o(.text) refers to lludivv7m.o(.text) for __aeabi_uldivmod
    fifo.o(.text) refers to cpu.o(.text) for OS_CPU_SR_Save
    fifo.o(.text) refers to user_extension.o(.text) for raw_memcpy
    rsh.o(.text) refers to cpu.o(.text) for OS_CPU_SR_Save
    rsh.o(.text) refers to string.o(.text) for raw_strncmp
    rsh.o(.text) refers to user_extension.o(.text) for raw_memset
    rsh.o(.text) refers to rsh.o(.data) for .data
    rsh.o(.text) refers to rsh.o(.conststring) for .conststring
    rsh.o(.constdata) refers to rsh.o(.conststring) for .conststring
    rsh.o(.constdata) refers to rsh.o(.text) for rsh_help_command
==============================================================================

Removing Unused input sections from the image.

    Removing rsh.o(.text), (472 bytes).
    Removing rsh.o(.constdata), (16 bytes).
    Removing rsh.o(.conststring), (50 bytes).
    Removing rsh.o(.conststring), (173 bytes).
    Removing rsh.o(.data), (20 bytes).
    Removing string.o(.text), (592 bytes).
    Removing sysinit.o(.rev16_text), (4 bytes).
    Removing sysinit.o(.revsh_text), (4 bytes).
    Removing lpc43xx_scu.o(.rev16_text), (4 bytes).
    Removing lpc43xx_scu.o(.revsh_text), (4 bytes).
    Removing lpc43xx_sdram.o(.rev16_text), (4 bytes).
    Removing lpc43xx_sdram.o(.revsh_text), (4 bytes).
    Removing main.o(.rev16_text), (4 bytes).
    Removing main.o(.revsh_text), (4 bytes).
    Removing main.o(.data), (4 bytes).
    Removing lpc43xx_gpio.o(.rev16_text), (4 bytes).
    Removing lpc43xx_gpio.o(.revsh_text), (4 bytes).
    Removing client.o(.data), (8 bytes).
==============================================================================

Image Symbol Table

    Local Symbols

    Symbol Name                              Value     Ov Type        Size  Object(Section)

    ../clib/angel/boardlib.s                 0x00000000   Number         0  boardinit2.o ABSOLUTE
    ../clib/angel/boardlib.s                 0x00000000   Number         0  boardshut.o ABSOLUTE
    ../clib/angel/boardlib.s                 0x00000000   Number         0  boardinit3.o ABSOLUTE
    ../clib/angel/boardlib.s                 0x00000000   Number         0  boardinit1.o ABSOLUTE
    ../clib/angel/dczerorl2.s                0x00000000   Number         0  __dczerorl2.o ABSOLUTE
    ../clib/angel/handlers.s                 0x00000000   Number         0  __scatter_copy.o ABSOLUTE
    ../clib/angel/handlers.s                 0x00000000   Number         0  __scatter_zi.o ABSOLUTE
    ../clib/angel/kernel.s                   0x00000000   Number         0  __rtentry.o ABSOLUTE
    ../clib/angel/kernel.s                   0x00000000   Number         0  __rtentry2.o ABSOLUTE
    ../clib/angel/kernel.s                   0x00000000   Number         0  rtexit.o ABSOLUTE
    ../clib/angel/kernel.s                   0x00000000   Number         0  rtexit2.o ABSOLUTE
    ../clib/angel/kernel.s                   0x00000000   Number         0  __rtentry4.o ABSOLUTE
    ../clib/angel/rt.s                       0x00000000   Number         0  rt_div0.o ABSOLUTE
    ../clib/angel/rt.s                       0x00000000   Number         0  aeabi_ldiv0_sigfpe.o ABSOLUTE
    ../clib/angel/rt.s                       0x00000000   Number         0  aeabi_ldiv0.o ABSOLUTE
    ../clib/angel/rt.s                       0x00000000   Number         0  rt_raise.o ABSOLUTE
    ../clib/angel/scatter.s                  0x00000000   Number         0  __scatter.o ABSOLUTE
    ../clib/angel/startup.s                  0x00000000   Number         0  __main.o ABSOLUTE
    ../clib/angel/sys.s                      0x00000000   Number         0  indicate_semi.o ABSOLUTE
    ../clib/angel/sys.s                      0x00000000   Number         0  libspace.o ABSOLUTE
    ../clib/angel/sys.s                      0x00000000   Number         0  sys_stackheap_outer.o ABSOLUTE
    ../clib/angel/sys.s                      0x00000000   Number         0  use_no_semi.o ABSOLUTE
    ../clib/angel/sysapp.c                   0x00000000   Number         0  sys_command.o ABSOLUTE
    ../clib/angel/sysapp.c                   0x00000000   Number         0  sys_wrch.o ABSOLUTE
    ../clib/armsys.c                         0x00000000   Number         0  argv_veneer.o ABSOLUTE
    ../clib/armsys.c                         0x00000000   Number         0  argv_veneer.o ABSOLUTE
    ../clib/armsys.c                         0x00000000   Number         0  _get_argv_nomalloc.o ABSOLUTE
    ../clib/armsys.c                         0x00000000   Number         0  no_argv.o ABSOLUTE
    ../clib/heapalloc.c                      0x00000000   Number         0  hrguard.o ABSOLUTE
    ../clib/heapaux.c                        0x00000000   Number         0  heapauxi.o ABSOLUTE
    ../clib/libinit.s                        0x00000000   Number         0  libshutdown2.o ABSOLUTE
    ../clib/libinit.s                        0x00000000   Number         0  libshutdown.o ABSOLUTE
    ../clib/libinit.s                        0x00000000   Number         0  libinit2.o ABSOLUTE
    ../clib/libinit.s                        0x00000000   Number         0  libinit.o ABSOLUTE
    ../clib/longlong.s                       0x00000000   Number         0  lludivv7m.o ABSOLUTE
    ../clib/memcpset.s                       0x00000000   Number         0  rt_memcpy_v6.o ABSOLUTE
    ../clib/memcpset.s                       0x00000000   Number         0  rt_memclr_w.o ABSOLUTE
    ../clib/memcpset.s                       0x00000000   Number         0  rt_memcpy_w.o ABSOLUTE
    ../clib/printf.c                         0x00000000   Number         0  __printf_flags_ss_wp.o ABSOLUTE
    ../clib/printf.c                         0x00000000   Number         0  __printf.o ABSOLUTE
    ../clib/printf.c                         0x00000000   Number         0  noretval__2printf.o ABSOLUTE
    ../clib/printf.c                         0x00000000   Number         0  __2printf.o ABSOLUTE
    ../clib/printf.c                         0x00000000   Number         0  _printf_dec.o ABSOLUTE
    ../clib/printf.c                         0x00000000   Number         0  _printf_hex_ll_ptr.o ABSOLUTE
    ../clib/printf.c                         0x00000000   Number         0  __printf_flags.o ABSOLUTE
    ../clib/printf.c                         0x00000000   Number         0  __printf_flags_ss.o ABSOLUTE
    ../clib/printf.c                         0x00000000   Number         0  __printf_wp.o ABSOLUTE
    ../clib/printf.c                         0x00000000   Number         0  __printf_flags_wp.o ABSOLUTE
    ../clib/printf.c                         0x00000000   Number         0  __printf_ss_wp.o ABSOLUTE
    ../clib/printf.c                         0x00000000   Number         0  _printf_hex_int_ll_ptr.o ABSOLUTE
    ../clib/printf.c                         0x00000000   Number         0  __printf_nopercent.o ABSOLUTE
    ../clib/printf.c                         0x00000000   Number         0  _printf_char_file.o ABSOLUTE
    ../clib/printf.c                         0x00000000   Number         0  _printf_intcommon.o ABSOLUTE
    ../clib/printf.c                         0x00000000   Number         0  _printf_char_common.o ABSOLUTE
    ../clib/printf.c                         0x00000000   Number         0  __printf_ss.o ABSOLUTE
    ../clib/printf.c                         0x00000000   Number         0  _printf_hex_int_ptr.o ABSOLUTE
    ../clib/printf.c                         0x00000000   Number         0  _printf_hex_ptr.o ABSOLUTE
    ../clib/printf.c                         0x00000000   Number         0  _printf_hex_int_ll.o ABSOLUTE
    ../clib/printf.c                         0x00000000   Number         0  _printf_hex_int.o ABSOLUTE
    ../clib/printf.c                         0x00000000   Number         0  _printf_hex_ll.o ABSOLUTE
    ../clib/printf_percent.s                 0x00000000   Number         0  _printf_x.o ABSOLUTE
    ../clib/printf_percent.s                 0x00000000   Number         0  _printf_d.o ABSOLUTE
    ../clib/printf_percent.s                 0x00000000   Number         0  _printf_percent.o ABSOLUTE
    ../clib/printf_percent.s                 0x00000000   Number         0  _printf_percent_end.o ABSOLUTE
    ../clib/signal.c                         0x00000000   Number         0  defsig_stak_inner.o ABSOLUTE
    ../clib/signal.c                         0x00000000   Number         0  defsig_cppl_inner.o ABSOLUTE
    ../clib/signal.c                         0x00000000   Number         0  defsig_segv_inner.o ABSOLUTE
    ../clib/signal.c                         0x00000000   Number         0  defsig_other.o ABSOLUTE
    ../clib/signal.c                         0x00000000   Number         0  defsig_rtmem_outer.o ABSOLUTE
    ../clib/signal.c                         0x00000000   Number         0  defsig_pvfn_inner.o ABSOLUTE
    ../clib/signal.c                         0x00000000   Number         0  defsig_exit.o ABSOLUTE
    ../clib/signal.c                         0x00000000   Number         0  defsig_fpe_inner.o ABSOLUTE
    ../clib/signal.c                         0x00000000   Number         0  defsig_general.o ABSOLUTE
    ../clib/signal.c                         0x00000000   Number         0  defsig_rtmem_formal.o ABSOLUTE
    ../clib/signal.c                         0x00000000   Number         0  defsig_fpe_outer.o ABSOLUTE
    ../clib/signal.c                         0x00000000   Number         0  defsig_fpe_formal.o ABSOLUTE
    ../clib/signal.c                         0x00000000   Number         0  defsig_rtmem_inner.o ABSOLUTE
    ../clib/signal.c                         0x00000000   Number         0  defsig_rtred_inner.o ABSOLUTE
    ../clib/signal.c                         0x00000000   Number         0  defsig_abrt_inner.o ABSOLUTE
    ../clib/signal.c                         0x00000000   Number         0  __raise.o ABSOLUTE
    ../clib/signal.s                         0x00000000   Number         0  defsig.o ABSOLUTE
    ../clib/stdlib.c                         0x00000000   Number         0  exit.o ABSOLUTE
    ../clib/string.c                         0x00000000   Number         0  memcmp.o ABSOLUTE
    ../clib/string.c                         0x00000000   Number         0  strlen.o ABSOLUTE
    ../fplib/fpinit.s                        0x00000000   Number         0  fpinit.o ABSOLUTE
    ..\..\..\..\software\common\lpc43xx_gpio.c 0x00000000   Number         0  lpc43xx_gpio.o ABSOLUTE
    ..\..\..\..\software\common\lpc43xx_scu.c 0x00000000   Number         0  lpc43xx_scu.o ABSOLUTE
    ..\..\..\..\software\common\lpc43xx_sdram.c 0x00000000   Number         0  lpc43xx_sdram.o ABSOLUTE
    ..\..\..\..\software\kernel\port\cpu.asm 0x00000000   Number         0  cpu.o ABSOLUTE
    ..\..\..\..\software\kernel\port\port.c  0x00000000   Number         0  port.o ABSOLUTE
    ..\..\..\..\software\kernel\port\port_error_process.c 0x00000000   Number         0  port_error_process.o ABSOLUTE
    ..\..\..\..\software\kernel\port\port_extension.c 0x00000000   Number         0  port_extension.o ABSOLUTE
    ..\..\..\..\software\kernel\port\port_hook.c 0x00000000   Number         0  port_hook.o ABSOLUTE
    ..\..\..\..\software\kernel\port\raw_trace_port.c 0x00000000   Number         0  raw_trace_port.o ABSOLUTE
    ..\..\..\..\software\kernel\port\user_extension.c 0x00000000   Number         0  user_extension.o ABSOLUTE
    ..\..\..\..\software\kernel\raw-os\extension\lib\fifo.c 0x00000000   Number         0  fifo.o ABSOLUTE
    ..\..\..\..\software\kernel\raw-os\extension\lib\string.c 0x00000000   Number         0  string.o ABSOLUTE
    ..\..\..\..\software\kernel\raw-os\extension\shell\rsh.c 0x00000000   Number         0  rsh.o ABSOLUTE
    ..\..\..\..\software\kernel\raw-os\raw-os.c 0x00000000   Number         0  raw-os.o ABSOLUTE
    ..\..\..\..\software\lwip\lwip\src\api\api_lib.c 0x00000000   Number         0  api_lib.o ABSOLUTE
    ..\..\..\..\software\lwip\lwip\src\api\api_msg.c 0x00000000   Number         0  api_msg.o ABSOLUTE
    ..\..\..\..\software\lwip\lwip\src\api\err.c 0x00000000   Number         0  err.o ABSOLUTE
    ..\..\..\..\software\lwip\lwip\src\api\netbuf.c 0x00000000   Number         0  netbuf.o ABSOLUTE
    ..\..\..\..\software\lwip\lwip\src\api\netdb.c 0x00000000   Number         0  netdb.o ABSOLUTE
    ..\..\..\..\software\lwip\lwip\src\api\netifapi.c 0x00000000   Number         0  netifapi.o ABSOLUTE
    ..\..\..\..\software\lwip\lwip\src\api\sockets.c 0x00000000   Number         0  sockets.o ABSOLUTE
    ..\..\..\..\software\lwip\lwip\src\api\tcpip.c 0x00000000   Number         0  tcpip.o ABSOLUTE
    ..\..\..\..\software\lwip\lwip\src\core\def.c 0x00000000   Number         0  def.o ABSOLUTE
    ..\..\..\..\software\lwip\lwip\src\core\dhcp.c 0x00000000   Number         0  dhcp.o ABSOLUTE
    ..\..\..\..\software\lwip\lwip\src\core\dns.c 0x00000000   Number         0  dns.o ABSOLUTE
    ..\..\..\..\software\lwip\lwip\src\core\init.c 0x00000000   Number         0  init.o ABSOLUTE
    ..\..\..\..\software\lwip\lwip\src\core\ipv4\autoip.c 0x00000000   Number         0  autoip.o ABSOLUTE
    ..\..\..\..\software\lwip\lwip\src\core\ipv4\icmp.c 0x00000000   Number         0  icmp.o ABSOLUTE
    ..\..\..\..\software\lwip\lwip\src\core\ipv4\igmp.c 0x00000000   Number         0  igmp.o ABSOLUTE
    ..\..\..\..\software\lwip\lwip\src\core\ipv4\inet.c 0x00000000   Number         0  inet.o ABSOLUTE
    ..\..\..\..\software\lwip\lwip\src\core\ipv4\inet_chksum.c 0x00000000   Number         0  inet_chksum.o ABSOLUTE
    ..\..\..\..\software\lwip\lwip\src\core\ipv4\ip.c 0x00000000   Number         0  ip.o ABSOLUTE
    ..\..\..\..\software\lwip\lwip\src\core\ipv4\ip_addr.c 0x00000000   Number         0  ip_addr.o ABSOLUTE
    ..\..\..\..\software\lwip\lwip\src\core\ipv4\ip_frag.c 0x00000000   Number         0  ip_frag.o ABSOLUTE
    ..\..\..\..\software\lwip\lwip\src\core\mem.c 0x00000000   Number         0  mem.o ABSOLUTE
    ..\..\..\..\software\lwip\lwip\src\core\memp.c 0x00000000   Number         0  memp.o ABSOLUTE
    ..\..\..\..\software\lwip\lwip\src\core\netif.c 0x00000000   Number         0  netif.o ABSOLUTE
    ..\..\..\..\software\lwip\lwip\src\core\pbuf.c 0x00000000   Number         0  pbuf.o ABSOLUTE
    ..\..\..\..\software\lwip\lwip\src\core\raw.c 0x00000000   Number         0  raw.o ABSOLUTE
    ..\..\..\..\software\lwip\lwip\src\core\snmp\asn1_dec.c 0x00000000   Number         0  asn1_dec.o ABSOLUTE
    ..\..\..\..\software\lwip\lwip\src\core\snmp\asn1_enc.c 0x00000000   Number         0  asn1_enc.o ABSOLUTE
    ..\..\..\..\software\lwip\lwip\src\core\snmp\mib2.c 0x00000000   Number         0  mib2.o ABSOLUTE
    ..\..\..\..\software\lwip\lwip\src\core\snmp\mib_structs.c 0x00000000   Number         0  mib_structs.o ABSOLUTE
    ..\..\..\..\software\lwip\lwip\src\core\snmp\msg_in.c 0x00000000   Number         0  msg_in.o ABSOLUTE
    ..\..\..\..\software\lwip\lwip\src\core\snmp\msg_out.c 0x00000000   Number         0  msg_out.o ABSOLUTE
    ..\..\..\..\software\lwip\lwip\src\core\stats.c 0x00000000   Number         0  stats.o ABSOLUTE
    ..\..\..\..\software\lwip\lwip\src\core\sys.c 0x00000000   Number         0  sys.o ABSOLUTE
    ..\..\..\..\software\lwip\lwip\src\core\tcp.c 0x00000000   Number         0  tcp.o ABSOLUTE
    ..\..\..\..\software\lwip\lwip\src\core\tcp_in.c 0x00000000   Number         0  tcp_in.o ABSOLUTE
    ..\..\..\..\software\lwip\lwip\src\core\tcp_out.c 0x00000000   Number         0  tcp_out.o ABSOLUTE
    ..\..\..\..\software\lwip\lwip\src\core\timers.c 0x00000000   Number         0  timers.o ABSOLUTE
    ..\..\..\..\software\lwip\lwip\src\core\udp.c 0x00000000   Number         0  udp.o ABSOLUTE
    ..\..\..\..\software\lwip\lwip\src\netif\etharp.c 0x00000000   Number         0  etharp.o ABSOLUTE
    ..\..\..\..\software\lwip\lwip\src\netif\ethernetif.c 0x00000000   Number         0  ethernetif.o ABSOLUTE
    ..\..\..\..\software\lwip\lwip\src\netif\slipif.c 0x00000000   Number         0  slipif.o ABSOLUTE
    ..\..\..\..\software\lwip\lwip_port\arch\lpc18xx_43xx_emac.c 0x00000000   Number         0  lpc18xx_43xx_emac.o ABSOLUTE
    ..\..\..\..\software\lwip\lwip_port\arch\lwip_emac.c 0x00000000   Number         0  lwip_emac.o ABSOLUTE
    ..\..\..\..\software\lwip\lwip_port\arch\sys_arch.c 0x00000000   Number         0  sys_arch.o ABSOLUTE
    ..\..\board_common\lpc_phy_dp83848.c     0x00000000   Number         0  lpc_phy_dp83848.o ABSOLUTE
    ..\..\board_common\uda1380.c             0x00000000   Number         0  uda1380.o ABSOLUTE
    ..\..\examples\lwip_tftp\client.c        0x00000000   Number         0  client.o ABSOLUTE
    ..\..\examples\lwip_tftp\main.c          0x00000000   Number         0  main.o ABSOLUTE
    ..\..\startup_code\keil_startup_lpc18xx43xx.s 0x00000000   Number         0  keil_startup_lpc18xx43xx.o ABSOLUTE
    ..\..\startup_code\sysinit.c             0x00000000   Number         0  sysinit.o ABSOLUTE
    ..\\..\\..\\..\\software\\common\\lpc43xx_gpio.c 0x00000000   Number         0  lpc43xx_gpio.o ABSOLUTE
    ..\\..\\..\\..\\software\\common\\lpc43xx_scu.c 0x00000000   Number         0  lpc43xx_scu.o ABSOLUTE
    ..\\..\\..\\..\\software\\common\\lpc43xx_sdram.c 0x00000000   Number         0  lpc43xx_sdram.o ABSOLUTE
    ..\\..\\..\\..\\software\\lwip\\lwip_port\\arch\\lpc18xx_43xx_emac.c 0x00000000   Number         0  lpc18xx_43xx_emac.o ABSOLUTE
    ..\\..\\..\\..\\software\\lwip\\lwip_port\\arch\\lwip_emac.c 0x00000000   Number         0  lwip_emac.o ABSOLUTE
    ..\\..\\board_common\\lpc_phy_dp83848.c  0x00000000   Number         0  lpc_phy_dp83848.o ABSOLUTE
    ..\\..\\board_common\\uda1380.c          0x00000000   Number         0  uda1380.o ABSOLUTE
    ..\\..\\examples\\lwip_tftp\\main.c      0x00000000   Number         0  main.o ABSOLUTE
    ..\\..\\startup_code\\sysinit.c          0x00000000   Number         0  sysinit.o ABSOLUTE
    ..\\chip_common\\fpu_init.c              0x00000000   Number         0  fpu_init.o ABSOLUTE
    ..\chip_common\fpu_init.c                0x00000000   Number         0  fpu_init.o ABSOLUTE
    ..\chip_common\ring_buffer.c             0x00000000   Number         0  ring_buffer.o ABSOLUTE
    board.c                                  0x00000000   Number         0  board.o ABSOLUTE
    board.c                                  0x00000000   Number         0  board.o ABSOLUTE
    board_sysinit.c                          0x00000000   Number         0  board_sysinit.o ABSOLUTE
    board_sysinit.c                          0x00000000   Number         0  board_sysinit.o ABSOLUTE
    chip_18xx_43xx.c                         0x00000000   Number         0  chip_18xx_43xx.o ABSOLUTE
    chip_18xx_43xx.c                         0x00000000   Number         0  chip_18xx_43xx.o ABSOLUTE
    clock_18xx_43xx.c                        0x00000000   Number         0  clock_18xx_43xx.o ABSOLUTE
    clock_18xx_43xx.c                        0x00000000   Number         0  clock_18xx_43xx.o ABSOLUTE
    dc.s                                     0x00000000   Number         0  dc.o ABSOLUTE
    emc_18xx_43xx.c                          0x00000000   Number         0  emc_18xx_43xx.o ABSOLUTE
    emc_18xx_43xx.c                          0x00000000   Number         0  emc_18xx_43xx.o ABSOLUTE
    enet_18xx_43xx.c                         0x00000000   Number         0  enet_18xx_43xx.o ABSOLUTE
    enet_18xx_43xx.c                         0x00000000   Number         0  enet_18xx_43xx.o ABSOLUTE
    gpio_18xx_43xx.c                         0x00000000   Number         0  gpio_18xx_43xx.o ABSOLUTE
    gpio_18xx_43xx.c                         0x00000000   Number         0  gpio_18xx_43xx.o ABSOLUTE
    i2c_18xx_43xx.c                          0x00000000   Number         0  i2c_18xx_43xx.o ABSOLUTE
    i2c_18xx_43xx.c                          0x00000000   Number         0  i2c_18xx_43xx.o ABSOLUTE
    i2s_18xx_43xx.c                          0x00000000   Number         0  i2s_18xx_43xx.o ABSOLUTE
    i2s_18xx_43xx.c                          0x00000000   Number         0  i2s_18xx_43xx.o ABSOLUTE
    rgu_18xx_43xx.c                          0x00000000   Number         0  rgu_18xx_43xx.o ABSOLUTE
    rgu_18xx_43xx.c                          0x00000000   Number         0  rgu_18xx_43xx.o ABSOLUTE
    ssp_18xx_43xx.c                          0x00000000   Number         0  ssp_18xx_43xx.o ABSOLUTE
    ssp_18xx_43xx.c                          0x00000000   Number         0  ssp_18xx_43xx.o ABSOLUTE
    sysinit_18xx_43xx.c                      0x00000000   Number         0  sysinit_18xx_43xx.o ABSOLUTE
    sysinit_18xx_43xx.c                      0x00000000   Number         0  sysinit_18xx_43xx.o ABSOLUTE
    uart_18xx_43xx.c                         0x00000000   Number         0  uart_18xx_43xx.o ABSOLUTE
    uart_18xx_43xx.c                         0x00000000   Number         0  uart_18xx_43xx.o ABSOLUTE
    .data                                    0x10000000   Section       56  raw-os.o(.data)
    .data                                    0x10000038   Section        4  port.o(.data)
    mpu_region_numbers                       0x10000038   Data           4  port.o(.data)
    .data                                    0x1000003c   Section       12  main.o(.data)
    .data                                    0x10000048   Section       12  netif.o(.data)
    netif_num                                0x10000048   Data           1  netif.o(.data)
    .data                                    0x10000054   Section        4  raw.o(.data)
    raw_pcbs                                 0x10000054   Data           4  raw.o(.data)
    .data                                    0x10000058   Section        8  timers.o(.data)
    next_timeout                             0x10000058   Data           4  timers.o(.data)
    tcpip_tcp_timer_active                   0x1000005c   Data           4  timers.o(.data)
    .data                                    0x10000060   Section       20  ip.o(.data)
    ip_id                                    0x10000060   Data           2  ip.o(.data)
    .data                                    0x10000074   Section        8  ip_frag.o(.data)
    ip_reass_pbufcount                       0x10000074   Data           2  ip_frag.o(.data)
    reassdatagrams                           0x10000078   Data           4  ip_frag.o(.data)
    .data                                    0x1000007c   Section        4  sys_arch.o(.data)
    .data                                    0x10000080   Section        4  enet_18xx_43xx.o(.data)
    phyCfg                                   0x10000080   Data           4  enet_18xx_43xx.o(.data)
    .bss                                     0x10000084   Section     4112  client.o(.bss)
    dest_addr                                0x10000084   Data          16  client.o(.bss)
    send_buffer                              0x10000094   Data        2048  client.o(.bss)
    recv_buffer                              0x10000894   Data        2048  client.o(.bss)
    .bss                                     0x10001094   Section       96  sockets.o(.bss)
    sockets                                  0x10001094   Data          96  sockets.o(.bss)
    .bss                                     0x100010f4   Section       50  dhcp.o(.bss)
    .bss                                     0x10001128   Section       20  tcp_in.o(.bss)
    inseg                                    0x10001128   Data          20  tcp_in.o(.bss)
    .bss                                     0x1000113c   Section       16  ip_addr.o(.bss)
    str                                      0x1000113c   Data          16  ip_addr.o(.bss)
    .bss                                     0x1000114c   Section      200  etharp.o(.bss)
    arp_table                                0x1000114c   Data         200  etharp.o(.bss)
    .bss                                     0x10001214   Section       72  sys_arch.o(.bss)
    system_mutex                             0x10001214   Data          40  sys_arch.o(.bss)
    HEAP                                     0x10001260   Section      256  keil_startup_lpc18xx43xx.o(HEAP)
    Heap_Mem                                 0x10001260   Data         256  keil_startup_lpc18xx43xx.o(HEAP)
    STACK                                    0x10001360   Section     1536  keil_startup_lpc18xx43xx.o(STACK)
    __initial_sp                             0x10001960   Data           0  keil_startup_lpc18xx43xx.o(STACK)
    RESET                                    0x1a000000   Section      276  keil_startup_lpc18xx43xx.o(RESET)
    !!!main                                  0x1a000114   Section        8  __main.o(!!!main)
    !!!scatter                               0x1a00011c   Section       52  __scatter.o(!!!scatter)
    !!dczerorl2                              0x1a000150   Section       90  __dczerorl2.o(!!dczerorl2)
    !!handler_copy                           0x1a0001ac   Section       26  __scatter_copy.o(!!handler_copy)
    !!handler_zi                             0x1a0001c8   Section       28  __scatter_zi.o(!!handler_zi)
    .ARM.Collect$$_printf_percent$$00000000  0x1a0001e4   Section        0  _printf_percent.o(.ARM.Collect$$_printf_percent$$00000000)
    .ARM.Collect$$_printf_percent$$00000009  0x1a0001e4   Section        6  _printf_d.o(.ARM.Collect$$_printf_percent$$00000009)
    .ARM.Collect$$_printf_percent$$0000000C  0x1a0001ea   Section        6  _printf_x.o(.ARM.Collect$$_printf_percent$$0000000C)
    .ARM.Collect$$_printf_percent$$00000017  0x1a0001f0   Section        4  _printf_percent_end.o(.ARM.Collect$$_printf_percent$$00000017)
    .ARM.Collect$$libinit$$00000000          0x1a0001f4   Section        2  libinit.o(.ARM.Collect$$libinit$$00000000)
    .ARM.Collect$$libinit$$00000001          0x1a0001f6   Section        4  libinit2.o(.ARM.Collect$$libinit$$00000001)
    .ARM.Collect$$libinit$$00000004          0x1a0001fa   Section        0  libinit2.o(.ARM.Collect$$libinit$$00000004)
    .ARM.Collect$$libinit$$0000000A          0x1a0001fa   Section        0  libinit2.o(.ARM.Collect$$libinit$$0000000A)
    .ARM.Collect$$libinit$$0000000C          0x1a0001fa   Section        0  libinit2.o(.ARM.Collect$$libinit$$0000000C)
    .ARM.Collect$$libinit$$0000000E          0x1a0001fa   Section        0  libinit2.o(.ARM.Collect$$libinit$$0000000E)
    .ARM.Collect$$libinit$$00000011          0x1a0001fa   Section        0  libinit2.o(.ARM.Collect$$libinit$$00000011)
    .ARM.Collect$$libinit$$00000013          0x1a0001fa   Section        0  libinit2.o(.ARM.Collect$$libinit$$00000013)
    .ARM.Collect$$libinit$$00000015          0x1a0001fa   Section        0  libinit2.o(.ARM.Collect$$libinit$$00000015)
    .ARM.Collect$$libinit$$00000017          0x1a0001fa   Section        0  libinit2.o(.ARM.Collect$$libinit$$00000017)
    .ARM.Collect$$libinit$$00000019          0x1a0001fa   Section        0  libinit2.o(.ARM.Collect$$libinit$$00000019)
    .ARM.Collect$$libinit$$0000001B          0x1a0001fa   Section        0  libinit2.o(.ARM.Collect$$libinit$$0000001B)
    .ARM.Collect$$libinit$$0000001D          0x1a0001fa   Section        0  libinit2.o(.ARM.Collect$$libinit$$0000001D)
    .ARM.Collect$$libinit$$0000001F          0x1a0001fa   Section        0  libinit2.o(.ARM.Collect$$libinit$$0000001F)
    .ARM.Collect$$libinit$$00000021          0x1a0001fa   Section        0  libinit2.o(.ARM.Collect$$libinit$$00000021)
    .ARM.Collect$$libinit$$00000023          0x1a0001fa   Section        0  libinit2.o(.ARM.Collect$$libinit$$00000023)
    .ARM.Collect$$libinit$$00000025          0x1a0001fa   Section        0  libinit2.o(.ARM.Collect$$libinit$$00000025)
    .ARM.Collect$$libinit$$0000002C          0x1a0001fa   Section        0  libinit2.o(.ARM.Collect$$libinit$$0000002C)
    .ARM.Collect$$libinit$$0000002E          0x1a0001fa   Section        0  libinit2.o(.ARM.Collect$$libinit$$0000002E)
    .ARM.Collect$$libinit$$00000030          0x1a0001fa   Section        0  libinit2.o(.ARM.Collect$$libinit$$00000030)
    .ARM.Collect$$libinit$$00000032          0x1a0001fa   Section        0  libinit2.o(.ARM.Collect$$libinit$$00000032)
    .ARM.Collect$$libinit$$00000033          0x1a0001fa   Section        2  libinit2.o(.ARM.Collect$$libinit$$00000033)
    .ARM.Collect$$libshutdown$$00000000      0x1a0001fc   Section        2  libshutdown.o(.ARM.Collect$$libshutdown$$00000000)
    .ARM.Collect$$libshutdown$$00000002      0x1a0001fe   Section        0  libshutdown2.o(.ARM.Collect$$libshutdown$$00000002)
    .ARM.Collect$$libshutdown$$00000004      0x1a0001fe   Section        0  libshutdown2.o(.ARM.Collect$$libshutdown$$00000004)
    .ARM.Collect$$libshutdown$$00000007      0x1a0001fe   Section        0  libshutdown2.o(.ARM.Collect$$libshutdown$$00000007)
    .ARM.Collect$$libshutdown$$0000000A      0x1a0001fe   Section        0  libshutdown2.o(.ARM.Collect$$libshutdown$$0000000A)
    .ARM.Collect$$libshutdown$$0000000C      0x1a0001fe   Section        0  libshutdown2.o(.ARM.Collect$$libshutdown$$0000000C)
    .ARM.Collect$$libshutdown$$0000000F      0x1a0001fe   Section        0  libshutdown2.o(.ARM.Collect$$libshutdown$$0000000F)
    .ARM.Collect$$libshutdown$$00000010      0x1a0001fe   Section        2  libshutdown2.o(.ARM.Collect$$libshutdown$$00000010)
    .ARM.Collect$$rtentry$$00000000          0x1a000200   Section        0  __rtentry.o(.ARM.Collect$$rtentry$$00000000)
    .ARM.Collect$$rtentry$$00000002          0x1a000200   Section        0  __rtentry2.o(.ARM.Collect$$rtentry$$00000002)
    .ARM.Collect$$rtentry$$00000004          0x1a000200   Section        6  __rtentry4.o(.ARM.Collect$$rtentry$$00000004)
    .ARM.Collect$$rtentry$$00000009          0x1a000206   Section        0  __rtentry2.o(.ARM.Collect$$rtentry$$00000009)
    .ARM.Collect$$rtentry$$0000000A          0x1a000206   Section        4  __rtentry2.o(.ARM.Collect$$rtentry$$0000000A)
    .ARM.Collect$$rtentry$$0000000C          0x1a00020a   Section        0  __rtentry2.o(.ARM.Collect$$rtentry$$0000000C)
    .ARM.Collect$$rtentry$$0000000D          0x1a00020a   Section        8  __rtentry2.o(.ARM.Collect$$rtentry$$0000000D)
    .ARM.Collect$$rtexit$$00000000           0x1a000212   Section        2  rtexit.o(.ARM.Collect$$rtexit$$00000000)
    .ARM.Collect$$rtexit$$00000002           0x1a000214   Section        0  rtexit2.o(.ARM.Collect$$rtexit$$00000002)
    .ARM.Collect$$rtexit$$00000003           0x1a000214   Section        4  rtexit2.o(.ARM.Collect$$rtexit$$00000003)
    .ARM.Collect$$rtexit$$00000004           0x1a000218   Section        6  rtexit2.o(.ARM.Collect$$rtexit$$00000004)
    .text                                    0x1a000220   Section        0  raw-os.o(.text)
    tick_task_process                        0x1a000785   Thumb Code    28  raw-os.o(.text)
    pend_task_wake_up                        0x1a000925   Thumb Code    96  raw-os.o(.text)
    is_list_empty                            0x1a002a1d   Thumb Code    14  raw-os.o(.text)
    list_insert                              0x1a002a2b   Thumb Code    14  raw-os.o(.text)
    list_delete                              0x1a002a39   Thumb Code    12  raw-os.o(.text)
    add_to_priority_list                     0x1a002a45   Thumb Code    30  raw-os.o(.text)
    bit_set                                  0x1a002a63   Thumb Code    20  raw-os.o(.text)
    release_mutex                            0x1a002a77   Thumb Code    30  raw-os.o(.text)
    timer_list_remove                        0x1a002a95   Thumb Code    22  raw-os.o(.text)
    timer_list_priority_insert               0x1a002aab   Thumb Code    32  raw-os.o(.text)
    raw_byte_pool_search                     0x1a002acb   Thumb Code   188  raw-os.o(.text)
    .text                                    0x1a002b98   Section        0  fifo.o(.text)
    internal_fifo_out_peek                   0x1a002c39   Thumb Code    62  fifo.o(.text)
    .text                                    0x1a002d0c   Section      172  cpu.o(.text)
    $v0                                      0x1a002d0c   Number         0  cpu.o(.text)
    .text                                    0x1a002db8   Section        0  port.o(.text)
    .text                                    0x1a002f98   Section        0  port_hook.o(.text)
    .text                                    0x1a002fb8   Section        0  user_extension.o(.text)
    .text                                    0x1a003040   Section        0  port_error_process.o(.text)
    .text                                    0x1a003098   Section        0  port_extension.o(.text)
    .text                                    0x1a0030c8   Section       68  keil_startup_lpc18xx43xx.o(.text)
    $v0                                      0x1a0030c8   Number         0  keil_startup_lpc18xx43xx.o(.text)
    .text                                    0x1a00310c   Section        0  sysinit.o(.text)
    .text                                    0x1a003128   Section        0  lpc43xx_scu.o(.text)
    .text                                    0x1a00313c   Section        0  lpc43xx_sdram.o(.text)
    .text                                    0x1a003598   Section        0  main.o(.text)
    NVIC_EnableIRQ                           0x1a0037a7   Thumb Code    22  main.o(.text)
    NVIC_SetPriority                         0x1a0037bd   Thumb Code    32  main.o(.text)
    .text                                    0x1a003874   Section        0  lpc43xx_gpio.o(.text)
    .text                                    0x1a0038b4   Section        0  client.o(.text)
    tftp_get_file                            0x1a0038b5   Thumb Code   484  client.o(.text)
    tftp_client_thread                       0x1a003a99   Thumb Code    92  client.o(.text)
    .text                                    0x1a003ce0   Section        0  api_lib.o(.text)
    netconn_recv_data                        0x1a003ff7   Thumb Code   306  api_lib.o(.text)
    netconn_close_shutdown                   0x1a00435f   Thumb Code    74  api_lib.o(.text)
    .text                                    0x1a0043cc   Section        0  api_msg.o(.text)
    recv_raw                                 0x1a0043cd   Thumb Code   118  api_msg.o(.text)
    recv_udp                                 0x1a004443   Thumb Code   202  api_msg.o(.text)
    recv_tcp                                 0x1a00450d   Thumb Code   174  api_msg.o(.text)
    err_tcp                                  0x1a0045bb   Thumb Code   214  api_msg.o(.text)
    do_writemore                             0x1a004691   Thumb Code   460  api_msg.o(.text)
    sent_tcp                                 0x1a00485d   Thumb Code   104  api_msg.o(.text)
    do_close_internal                        0x1a0048c5   Thumb Code   364  api_msg.o(.text)
    poll_tcp                                 0x1a004a31   Thumb Code   104  api_msg.o(.text)
    setup_tcp                                0x1a004a99   Thumb Code    50  api_msg.o(.text)
    accept_function                          0x1a004bb7   Thumb Code   150  api_msg.o(.text)
    netconn_drain                            0x1a004c6d   Thumb Code   172  api_msg.o(.text)
    do_connected                             0x1a004e5d   Thumb Code   158  api_msg.o(.text)
    pcb_new                                  0x1a0052d5   Thumb Code   166  api_msg.o(.text)
    .text                                    0x1a00537c   Section        0  netbuf.o(.text)
    .text                                    0x1a00558c   Section        0  sockets.o(.text)
    alloc_socket                             0x1a00558f   Thumb Code    94  sockets.o(.text)
    event_callback                           0x1a0055ed   Thumb Code   304  sockets.o(.text)
    lwip_selscan                             0x1a005de7   Thumb Code   272  sockets.o(.text)
    lwip_getaddrname                         0x1a006227   Thumb Code   106  sockets.o(.text)
    lwip_getsockopt_internal                 0x1a006299   Thumb Code   348  sockets.o(.text)
    lwip_setsockopt_internal                 0x1a0064e7   Thumb Code   308  sockets.o(.text)
    get_socket                               0x1a006783   Thumb Code    24  sockets.o(.text)
    tryget_socket                            0x1a00679b   Thumb Code    26  sockets.o(.text)
    .text                                    0x1a0067c0   Section        0  tcpip.o(.text)
    tcpip_thread                             0x1a0067c1   Thumb Code   138  tcpip.o(.text)
    pbuf_free_int                            0x1a006a15   Thumb Code     4  tcpip.o(.text)
    .text                                    0x1a006a4c   Section        0  def.o(.text)
    .text                                    0x1a006a5c   Section        0  dhcp.o(.text)
    dhcp_delete_msg                          0x1a006a5d   Thumb Code    84  dhcp.o(.text)
    dhcp_option_trailer                      0x1a006ab1   Thumb Code   110  dhcp.o(.text)
    dhcp_option                              0x1a006b1f   Thumb Code    66  dhcp.o(.text)
    dhcp_option_short                        0x1a006b61   Thumb Code    64  dhcp.o(.text)
    dhcp_create_msg                          0x1a006ba1   Thumb Code   380  dhcp.o(.text)
    dhcp_discover                            0x1a006d1d   Thumb Code   184  dhcp.o(.text)
    dhcp_check                               0x1a006dd5   Thumb Code    48  dhcp.o(.text)
    dhcp_option_hostname                     0x1a006e05   Thumb Code    88  dhcp.o(.text)
    dhcp_option_long                         0x1a006e5d   Thumb Code    96  dhcp.o(.text)
    dhcp_select                              0x1a006ebd   Thumb Code   236  dhcp.o(.text)
    dhcp_rebind                              0x1a007045   Thumb Code   138  dhcp.o(.text)
    dhcp_reboot                              0x1a007129   Thumb Code   156  dhcp.o(.text)
    dhcp_bind                                0x1a007265   Thumb Code   230  dhcp.o(.text)
    dhcp_parse_reply                         0x1a007441   Thumb Code   794  dhcp.o(.text)
    dhcp_recv                                0x1a00775b   Thumb Code   282  dhcp.o(.text)
    dhcp_option_byte                         0x1a007a73   Thumb Code    46  dhcp.o(.text)
    dhcp_set_state                           0x1a007aa1   Thumb Code    16  dhcp.o(.text)
    dhcp_timeout                             0x1a007ab1   Thumb Code   136  dhcp.o(.text)
    dhcp_handle_ack                          0x1a007b39   Thumb Code    88  dhcp.o(.text)
    dhcp_decline                             0x1a007b91   Thumb Code   114  dhcp.o(.text)
    .text                                    0x1a007c10   Section        0  init.o(.text)
    .text                                    0x1a007c30   Section        0  netif.o(.text)
    .text                                    0x1a007e3c   Section        0  pbuf.o(.text)
    pbuf_free_ooseq_callback                 0x1a007e3d   Thumb Code    42  pbuf.o(.text)
    pbuf_pool_is_empty                       0x1a007e67   Thumb Code    54  pbuf.o(.text)
    .text                                    0x1a0087b0   Section        0  raw.o(.text)
    .text                                    0x1a008970   Section        0  tcp.o(.text)
    tcp_close_shutdown                       0x1a008dad   Thumb Code   318  tcp.o(.text)
    tcp_new_port                             0x1a0091ad   Thumb Code    84  tcp.o(.text)
    tcp_accept_null                          0x1a009291   Thumb Code     6  tcp.o(.text)
    .text                                    0x1a00962c   Section        0  tcp_in.o(.text)
    tcp_oos_insert_segment                   0x1a00962d   Thumb Code   114  tcp_in.o(.text)
    tcp_receive                              0x1a00969f   Thumb Code  2198  tcp_in.o(.text)
    tcp_parseopt                             0x1a009f35   Thumb Code   124  tcp_in.o(.text)
    tcp_process                              0x1a009fb1   Thumb Code   908  tcp_in.o(.text)
    tcp_listen_input                         0x1a00a33d   Thumb Code   208  tcp_in.o(.text)
    tcp_timewait_input                       0x1a00a7dd   Thumb Code    92  tcp_in.o(.text)
    .text                                    0x1a00a854   Section        0  tcp_out.o(.text)
    tcp_output_alloc_header                  0x1a00a855   Thumb Code   138  tcp_out.o(.text)
    tcp_create_segment                       0x1a00a8df   Thumb Code   182  tcp_out.o(.text)
    tcp_pbuf_prealloc                        0x1a00ab03   Thumb Code    98  tcp_out.o(.text)
    tcp_output_segment                       0x1a00b039   Thumb Code   272  tcp_out.o(.text)
    tcp_seg_add_chksum                       0x1a00b56f   Thumb Code    32  tcp_out.o(.text)
    tcp_write_checks                         0x1a00b58f   Thumb Code   118  tcp_out.o(.text)
    .text                                    0x1a00b604   Section        0  timers.o(.text)
    tcpip_tcp_timer                          0x1a00b66f   Thumb Code    38  timers.o(.text)
    ip_reass_timer                           0x1a00b6b7   Thumb Code    20  timers.o(.text)
    arp_timer                                0x1a00b6cb   Thumb Code    20  timers.o(.text)
    dhcp_timer_coarse                        0x1a00b6df   Thumb Code    20  timers.o(.text)
    dhcp_timer_fine                          0x1a00b6f3   Thumb Code    20  timers.o(.text)
    .text                                    0x1a00b800   Section        0  udp.o(.text)
    .text                                    0x1a00bcc0   Section        0  icmp.o(.text)
    icmp_send_response                       0x1a00be25   Thumb Code   124  icmp.o(.text)
    .text                                    0x1a00beb4   Section        0  inet_chksum.o(.text)
    lwip_standard_chksum                     0x1a00beb5   Thumb Code    60  inet_chksum.o(.text)
    .text                                    0x1a00c098   Section        0  ip.o(.text)
    .text                                    0x1a00c3b8   Section        0  ip_addr.o(.text)
    .text                                    0x1a00c5ac   Section        0  ip_frag.o(.text)
    ip_reass_dequeue_datagram                0x1a00c5ad   Thumb Code    54  ip_frag.o(.text)
    ip_reass_free_complete_datagram          0x1a00c5e3   Thumb Code   222  ip_frag.o(.text)
    ip_reass_remove_oldest_datagram          0x1a00c6e9   Thumb Code   110  ip_frag.o(.text)
    ip_reass_chain_frag_into_datagram_and_validate 0x1a00c757   Thumb Code   354  ip_frag.o(.text)
    ipfrag_free_pbuf_custom                  0x1a00ca5f   Thumb Code    64  ip_frag.o(.text)
    ip_frag_free_pbuf_custom_ref             0x1a00cc1b   Thumb Code    34  ip_frag.o(.text)
    .text                                    0x1a00cc44   Section        0  etharp.o(.text)
    etharp_free_entry                        0x1a00cc45   Thumb Code    32  etharp.o(.text)
    etharp_find_entry                        0x1a00cca7   Thumb Code   350  etharp.o(.text)
    etharp_send_ip                           0x1a00ce05   Thumb Code    76  etharp.o(.text)
    etharp_update_arp_entry                  0x1a00ce51   Thumb Code   144  etharp.o(.text)
    etharp_arp_input                         0x1a00cf57   Thumb Code   264  etharp.o(.text)
    etharp_output_to_arp_index               0x1a00d07f   Thumb Code    86  etharp.o(.text)
    etharp_raw                               0x1a00d3bf   Thumb Code   238  etharp.o(.text)
    .text                                    0x1a00d4ac   Section        0  lpc18xx_43xx_emac.o(.text)
    lpc_rxqueue_pbuf                         0x1a00d4ad   Thumb Code    86  lpc18xx_43xx_emac.o(.text)
    lpc_low_level_output                     0x1a00d559   Thumb Code   210  lpc18xx_43xx_emac.o(.text)
    lpc_etharp_output                        0x1a00d62b   Thumb Code    18  lpc18xx_43xx_emac.o(.text)
    vPacketReceiveTask                       0x1a00d677   Thumb Code    40  lpc18xx_43xx_emac.o(.text)
    vTransmitCleanupTask                     0x1a00d713   Thumb Code    22  lpc18xx_43xx_emac.o(.text)
    low_level_init                           0x1a00d729   Thumb Code   410  lpc18xx_43xx_emac.o(.text)
    lpc_low_level_input                      0x1a00da7f   Thumb Code   168  lpc18xx_43xx_emac.o(.text)
    .text                                    0x1a00db48   Section        0  sys_arch.o(.text)
    .text                                    0x1a00e040   Section        0  lwip_emac.o(.text)
    read_PHY                                 0x1a00e06b   Thumb Code    50  lwip_emac.o(.text)
    .text                                    0x1a00e198   Section        0  board.o(.text)
    delay                                    0x1a00e201   Thumb Code    12  board.o(.text)
    Board_Audio_CodecInit                    0x1a00e20d   Thumb Code    32  board.o(.text)
    writeLCD00_16                            0x1a00e22d   Thumb Code    58  board.o(.text)
    writeLCD01_16                            0x1a00e267   Thumb Code    72  board.o(.text)
    writeLCDReg                              0x1a00e2af   Thumb Code    20  board.o(.text)
    pinConfig                                0x1a00e2c3   Thumb Code    14  board.o(.text)
    writeTSCReg                              0x1a00e2d1   Thumb Code    28  board.o(.text)
    readTSCReg                               0x1a00e2ed   Thumb Code    24  board.o(.text)
    detectTSCTouch                           0x1a00e305   Thumb Code    36  board.o(.text)
    getTSCCoord                              0x1a00e329   Thumb Code   114  board.o(.text)
    Board_LED_Init                           0x1a00e433   Thumb Code    28  board.o(.text)
    Chip_SCU_PinMuxSet                       0x1a00ebb5   Thumb Code    12  board.o(.text)
    Chip_GPIO_SetPinState                    0x1a00ebc1   Thumb Code    10  board.o(.text)
    Chip_GPIO_GetPinState                    0x1a00ebcb   Thumb Code    18  board.o(.text)
    Chip_GPIO_SetPinDIROutput                0x1a00ebdd   Thumb Code    72  board.o(.text)
    Chip_GPIO_SetPinDIRInput                 0x1a00ec25   Thumb Code    28  board.o(.text)
    .text                                    0x1a00ec40   Section        0  board_sysinit.o(.text)
    Chip_SCU_SetPinMuxing                    0x1a00ec41   Thumb Code    44  board_sysinit.o(.text)
    .text                                    0x1a00eddc   Section        0  lpc_phy_dp83848.o(.text)
    lpc_mii_write                            0x1a00eddd   Thumb Code    62  lpc_phy_dp83848.o(.text)
    lpc_mii_read                             0x1a00ee1b   Thumb Code    70  lpc_phy_dp83848.o(.text)
    lpc_update_phy_sts                       0x1a00ee61   Thumb Code   138  lpc_phy_dp83848.o(.text)
    .text                                    0x1a00efe8   Section        0  uda1380.o(.text)
    Audio_Codec_SetDefaultValues             0x1a00f04f   Thumb Code    36  uda1380.o(.text)
    .text                                    0x1a00f16c   Section      238  lludivv7m.o(.text)
    .text                                    0x1a00f25c   Section        0  noretval__2printf.o(.text)
    .text                                    0x1a00f274   Section        0  __printf.o(.text)
    .text                                    0x1a00f2dc   Section        0  _printf_dec.o(.text)
    .text                                    0x1a00f354   Section        0  _printf_hex_int.o(.text)
    .text                                    0x1a00f3ac   Section        0  memcmp.o(.text)
    .text                                    0x1a00f404   Section        0  strlen.o(.text)
    .text                                    0x1a00f442   Section      138  rt_memcpy_v6.o(.text)
    .text                                    0x1a00f4cc   Section      100  rt_memcpy_w.o(.text)
    .text                                    0x1a00f530   Section       78  rt_memclr_w.o(.text)
    .text                                    0x1a00f57e   Section        0  heapauxi.o(.text)
    .text                                    0x1a00f584   Section        0  _printf_intcommon.o(.text)
    .text                                    0x1a00f638   Section        0  _printf_char_file.o(.text)
    .text                                    0x1a00f65c   Section        0  _printf_char_common.o(.text)
    _printf_input_char                       0x1a00f65d   Thumb Code    10  _printf_char_common.o(.text)
    .text                                    0x1a00f68c   Section       74  sys_stackheap_outer.o(.text)
    .text                                    0x1a00f6d6   Section        0  exit.o(.text)
    .text                                    0x1a00f6e8   Section        8  libspace.o(.text)
    i.Chip_Clock_Enable                      0x1a00f6f0   Section        0  clock_18xx_43xx.o(i.Chip_Clock_Enable)
    i.Chip_Clock_EnableOpts                  0x1a00f728   Section        0  clock_18xx_43xx.o(i.Chip_Clock_EnableOpts)
    i.Chip_Clock_FindBaseClock               0x1a00f764   Section        0  clock_18xx_43xx.o(i.Chip_Clock_FindBaseClock)
    Chip_Clock_FindBaseClock                 0x1a00f765   Thumb Code    74  clock_18xx_43xx.o(i.Chip_Clock_FindBaseClock)
    i.Chip_Clock_GetBaseClock                0x1a00f7b4   Section        0  clock_18xx_43xx.o(i.Chip_Clock_GetBaseClock)
    i.Chip_Clock_GetBaseClocktHz             0x1a00f7d8   Section        0  clock_18xx_43xx.o(i.Chip_Clock_GetBaseClocktHz)
    i.Chip_Clock_GetClockInputHz             0x1a00f7ec   Section        0  clock_18xx_43xx.o(i.Chip_Clock_GetClockInputHz)
    i.Chip_Clock_GetDivRate                  0x1a00f8c0   Section        0  clock_18xx_43xx.o(i.Chip_Clock_GetDivRate)
    Chip_Clock_GetDivRate                    0x1a00f8c1   Thumb Code    40  clock_18xx_43xx.o(i.Chip_Clock_GetDivRate)
    i.Chip_Clock_GetDividerDivisor           0x1a00f8e8   Section        0  clock_18xx_43xx.o(i.Chip_Clock_GetDividerDivisor)
    i.Chip_Clock_GetDividerSource            0x1a00f908   Section        0  clock_18xx_43xx.o(i.Chip_Clock_GetDividerSource)
    i.Chip_Clock_GetEMCRate                  0x1a00f928   Section        0  clock_18xx_43xx.o(i.Chip_Clock_GetEMCRate)
    i.Chip_Clock_GetMainPLLHz                0x1a00f958   Section        0  clock_18xx_43xx.o(i.Chip_Clock_GetMainPLLHz)
    i.Chip_Clock_GetRate                     0x1a00f9d0   Section        0  clock_18xx_43xx.o(i.Chip_Clock_GetRate)
    i.Chip_Clock_SetBaseClock                0x1a00fa28   Section        0  clock_18xx_43xx.o(i.Chip_Clock_SetBaseClock)
    i.Chip_Clock_SetDivider                  0x1a00fa70   Section        0  clock_18xx_43xx.o(i.Chip_Clock_SetDivider)
    i.Chip_EMC_Dynamic_Init                  0x1a00fac0   Section        0  emc_18xx_43xx.o(i.Chip_EMC_Dynamic_Init)
    i.Chip_EMC_Init                          0x1a00fadc   Section        0  emc_18xx_43xx.o(i.Chip_EMC_Init)
    i.Chip_EMC_Static_Init                   0x1a00fb08   Section        0  emc_18xx_43xx.o(i.Chip_EMC_Static_Init)
    i.Chip_ENET_StartMIIRead                 0x1a00fb24   Section        0  enet_18xx_43xx.o(i.Chip_ENET_StartMIIRead)
    i.Chip_ENET_StartMIIWrite                0x1a00fb3c   Section        0  enet_18xx_43xx.o(i.Chip_ENET_StartMIIWrite)
    i.Chip_GPIO_Init                         0x1a00fb5c   Section        0  gpio_18xx_43xx.o(i.Chip_GPIO_Init)
    i.Chip_I2C_EventHandler                  0x1a00fb60   Section        0  i2c_18xx_43xx.o(i.Chip_I2C_EventHandler)
    i.Chip_I2C_EventHandlerPolling           0x1a00fb88   Section        0  i2c_18xx_43xx.o(i.Chip_I2C_EventHandlerPolling)
    i.Chip_I2C_GetMasterEventHandler         0x1a00fbc8   Section        0  i2c_18xx_43xx.o(i.Chip_I2C_GetMasterEventHandler)
    i.Chip_I2C_Init                          0x1a00fbdc   Section        0  i2c_18xx_43xx.o(i.Chip_I2C_Init)
    i.Chip_I2C_IsStateChanged                0x1a00fc08   Section        0  i2c_18xx_43xx.o(i.Chip_I2C_IsStateChanged)
    i.Chip_I2C_MasterCmdRead                 0x1a00fc20   Section        0  i2c_18xx_43xx.o(i.Chip_I2C_MasterCmdRead)
    i.Chip_I2C_MasterSend                    0x1a00fc5a   Section        0  i2c_18xx_43xx.o(i.Chip_I2C_MasterSend)
    i.Chip_I2C_MasterStateHandler            0x1a00fc8c   Section        0  i2c_18xx_43xx.o(i.Chip_I2C_MasterStateHandler)
    i.Chip_I2C_MasterTransfer                0x1a00fcc4   Section        0  i2c_18xx_43xx.o(i.Chip_I2C_MasterTransfer)
    i.Chip_I2C_SetClockRate                  0x1a00fd30   Section        0  i2c_18xx_43xx.o(i.Chip_I2C_SetClockRate)
    i.Chip_I2C_SetMasterEventHandler         0x1a00fd6c   Section        0  i2c_18xx_43xx.o(i.Chip_I2C_SetMasterEventHandler)
    i.Chip_I2S_Init                          0x1a00fd94   Section        0  i2s_18xx_43xx.o(i.Chip_I2S_Init)
    i.Chip_I2S_TxConfig                      0x1a00fda0   Section        0  i2s_18xx_43xx.o(i.Chip_I2S_TxConfig)
    i.Chip_RGU_InReset                       0x1a00fe1c   Section        0  rgu_18xx_43xx.o(i.Chip_RGU_InReset)
    i.Chip_RGU_TriggerReset                  0x1a00fe54   Section        0  rgu_18xx_43xx.o(i.Chip_RGU_TriggerReset)
    i.Chip_SSP_ClearIntPending               0x1a00fe80   Section        0  ssp_18xx_43xx.o(i.Chip_SSP_ClearIntPending)
    Chip_SSP_ClearIntPending                 0x1a00fe81   Thumb Code     4  ssp_18xx_43xx.o(i.Chip_SSP_ClearIntPending)
    i.Chip_SSP_GetClockIndex                 0x1a00fe84   Section        0  ssp_18xx_43xx.o(i.Chip_SSP_GetClockIndex)
    Chip_SSP_GetClockIndex                   0x1a00fe85   Thumb Code    16  ssp_18xx_43xx.o(i.Chip_SSP_GetClockIndex)
    i.Chip_SSP_GetRawIntStatus               0x1a00fe98   Section        0  ssp_18xx_43xx.o(i.Chip_SSP_GetRawIntStatus)
    Chip_SSP_GetRawIntStatus                 0x1a00fe99   Thumb Code    16  ssp_18xx_43xx.o(i.Chip_SSP_GetRawIntStatus)
    i.Chip_SSP_GetStatus                     0x1a00fea8   Section        0  ssp_18xx_43xx.o(i.Chip_SSP_GetStatus)
    Chip_SSP_GetStatus                       0x1a00fea9   Thumb Code    16  ssp_18xx_43xx.o(i.Chip_SSP_GetStatus)
    i.Chip_SSP_Init                          0x1a00feb8   Section        0  ssp_18xx_43xx.o(i.Chip_SSP_Init)
    i.Chip_SSP_ReceiveFrame                  0x1a00fef4   Section        0  ssp_18xx_43xx.o(i.Chip_SSP_ReceiveFrame)
    Chip_SSP_ReceiveFrame                    0x1a00fef5   Thumb Code     8  ssp_18xx_43xx.o(i.Chip_SSP_ReceiveFrame)
    i.Chip_SSP_SendFrame                     0x1a00fefc   Section        0  ssp_18xx_43xx.o(i.Chip_SSP_SendFrame)
    Chip_SSP_SendFrame                       0x1a00fefd   Thumb Code     6  ssp_18xx_43xx.o(i.Chip_SSP_SendFrame)
    i.Chip_SSP_SetBitRate                    0x1a00ff02   Section        0  ssp_18xx_43xx.o(i.Chip_SSP_SetBitRate)
    i.Chip_SSP_SetClockRate                  0x1a00ff48   Section        0  ssp_18xx_43xx.o(i.Chip_SSP_SetClockRate)
    i.Chip_SSP_SetMaster                     0x1a00ff5c   Section        0  ssp_18xx_43xx.o(i.Chip_SSP_SetMaster)
    i.Chip_SSP_Set_Mode                      0x1a00ff78   Section        0  ssp_18xx_43xx.o(i.Chip_SSP_Set_Mode)
    Chip_SSP_Set_Mode                        0x1a00ff79   Thumb Code    12  ssp_18xx_43xx.o(i.Chip_SSP_Set_Mode)
    i.Chip_SSP_WriteFrames_Blocking          0x1a00ff84   Section        0  ssp_18xx_43xx.o(i.Chip_SSP_WriteFrames_Blocking)
    i.Chip_SetupCoreClock                    0x1a01006e   Section        0  sysinit_18xx_43xx.o(i.Chip_SetupCoreClock)
    i.Chip_UART_DisableDivisorAccess         0x1a01007c   Section        0  uart_18xx_43xx.o(i.Chip_UART_DisableDivisorAccess)
    Chip_UART_DisableDivisorAccess           0x1a01007d   Thumb Code    10  uart_18xx_43xx.o(i.Chip_UART_DisableDivisorAccess)
    i.Chip_UART_EnableDivisorAccess          0x1a010086   Section        0  uart_18xx_43xx.o(i.Chip_UART_EnableDivisorAccess)
    Chip_UART_EnableDivisorAccess            0x1a010087   Thumb Code    10  uart_18xx_43xx.o(i.Chip_UART_EnableDivisorAccess)
    i.Chip_UART_GetClockIndex                0x1a010090   Section        0  uart_18xx_43xx.o(i.Chip_UART_GetClockIndex)
    Chip_UART_GetClockIndex                  0x1a010091   Thumb Code    36  uart_18xx_43xx.o(i.Chip_UART_GetClockIndex)
    i.Chip_UART_Init                         0x1a0100c0   Section        0  uart_18xx_43xx.o(i.Chip_UART_Init)
    i.Chip_UART_SetBaud                      0x1a01010c   Section        0  uart_18xx_43xx.o(i.Chip_UART_SetBaud)
    i.Chip_UART_SetDivisorLatches            0x1a01014e   Section        0  uart_18xx_43xx.o(i.Chip_UART_SetDivisorLatches)
    Chip_UART_SetDivisorLatches              0x1a01014f   Thumb Code     6  uart_18xx_43xx.o(i.Chip_UART_SetDivisorLatches)
    i.SystemCoreClockUpdate                  0x1a010154   Section        0  chip_18xx_43xx.o(i.SystemCoreClockUpdate)
    i.clock_init_delay                       0x1a010168   Section        0  sysinit_18xx_43xx.o(i.clock_init_delay)
    clock_init_delay                         0x1a010169   Thumb Code    36  sysinit_18xx_43xx.o(i.clock_init_delay)
    i.clock_main_init                        0x1a01018c   Section        0  sysinit_18xx_43xx.o(i.clock_main_init)
    clock_main_init                          0x1a01018d   Thumb Code   168  sysinit_18xx_43xx.o(i.clock_main_init)
    i.convertTimmingParam                    0x1a010248   Section        0  emc_18xx_43xx.o(i.convertTimmingParam)
    convertTimmingParam                      0x1a010249   Thumb Code    50  emc_18xx_43xx.o(i.convertTimmingParam)
    i.fpuInit                                0x1a010280   Section        0  fpu_init.o(i.fpuInit)
    i.getClkDiv                              0x1a0102d0   Section        0  i2s_18xx_43xx.o(i.getClkDiv)
    getClkDiv                                0x1a0102d1   Thumb Code   354  i2s_18xx_43xx.o(i.getClkDiv)
    i.getClkRate                             0x1a010434   Section        0  i2c_18xx_43xx.o(i.getClkRate)
    getClkRate                               0x1a010435   Thumb Code    22  i2c_18xx_43xx.o(i.getClkRate)
    i.getColsLen                             0x1a010450   Section        0  emc_18xx_43xx.o(i.getColsLen)
    getColsLen                               0x1a010451   Thumb Code    40  emc_18xx_43xx.o(i.getColsLen)
    i.getCurState                            0x1a010478   Section        0  i2c_18xx_43xx.o(i.getCurState)
    getCurState                              0x1a010479   Thumb Code    10  i2c_18xx_43xx.o(i.getCurState)
    i.handleMasterXferState                  0x1a010482   Section        0  i2c_18xx_43xx.o(i.handleMasterXferState)
    i.initDynMem                             0x1a010562   Section        0  emc_18xx_43xx.o(i.initDynMem)
    i.initStaticMem                          0x1a01074a   Section        0  emc_18xx_43xx.o(i.initStaticMem)
    i.startSlaverXfer                        0x1a0107b2   Section        0  i2c_18xx_43xx.o(i.startSlaverXfer)
    startSlaverXfer                          0x1a0107b3   Thumb Code    10  i2c_18xx_43xx.o(i.startSlaverXfer)
    x$fpl$fpinit                             0x1a0107bc   Section       10  fpinit.o(x$fpl$fpinit)
    $v0                                      0x1a0107bc   Number         0  fpinit.o(x$fpl$fpinit)
    .constdata                               0x1a0107c8   Section      512  client.o(.constdata)
    .constdata                               0x1a0109c8   Section       64  sockets.o(.constdata)
    err_to_errno_table                       0x1a0109c8   Data          64  sockets.o(.constdata)
    .constdata                               0x1a010a08   Section       28  memp.o(.constdata)
    .constdata                               0x1a010a24   Section       84  tcp.o(.constdata)
    .constdata                               0x1a010a78   Section        4  ip_addr.o(.constdata)
    .constdata                               0x1a010a7c   Section        4  ip_addr.o(.constdata)
    .constdata                               0x1a010a80   Section       12  etharp.o(.constdata)
    .constdata                               0x1a010a8c   Section       64  board.o(.constdata)
    ledports                                 0x1a010a8c   Data           8  board.o(.constdata)
    ledbits                                  0x1a010a94   Data           8  board.o(.constdata)
    .constdata                               0x1a010acc   Section      700  board_sysinit.o(.constdata)
    InitClkStates                            0x1a010acc   Data          16  board_sysinit.o(.constdata)
    spifipinmuxing                           0x1a010adc   Data          24  board_sysinit.o(.constdata)
    pinmuxing                                0x1a010af4   Data         496  board_sysinit.o(.constdata)
    pinclockmuxing                           0x1a010ce4   Data          16  board_sysinit.o(.constdata)
    MT48LC4M32_config                        0x1a010cf4   Data         116  board_sysinit.o(.constdata)
    S29GL64N90_config                        0x1a010d68   Data          32  board_sysinit.o(.constdata)
    .constdata                               0x1a010d88   Section      108  clock_18xx_43xx.o(.constdata)
    periph_to_base                           0x1a010d88   Data         108  clock_18xx_43xx.o(.constdata)
    .constdata                               0x1a010df4   Section       31  uda1380.o(.constdata)
    UDA_sys_regs_dat                         0x1a010df4   Data          11  uda1380.o(.constdata)
    UDA_interfil_regs_dat                    0x1a010dff   Data          11  uda1380.o(.constdata)
    UDA_decimator_regs_dat                   0x1a010e0a   Data           9  uda1380.o(.constdata)
    .constdata                               0x1a010e13   Section       72  sysinit_18xx_43xx.o(.constdata)
    InitClkStates                            0x1a010e13   Data          72  sysinit_18xx_43xx.o(.constdata)
    .constdata                               0x1a010e5b   Section       40  _printf_hex_int.o(.constdata)
    uc_hextab                                0x1a010e5b   Data          20  _printf_hex_int.o(.constdata)
    lc_hextab                                0x1a010e6f   Data          20  _printf_hex_int.o(.constdata)
    .conststring                             0x1a010e84   Section      117  tcp.o(.conststring)
    .data                                    0x20000000   Section        8  sockets.o(.data)
    select_cb_list                           0x20000000   Data           4  sockets.o(.data)
    select_cb_ctr                            0x20000004   Data           4  sockets.o(.data)
    .data                                    0x20000008   Section       12  tcpip.o(.data)
    tcpip_init_done                          0x20000008   Data           4  tcpip.o(.data)
    tcpip_init_done_arg                      0x2000000c   Data           4  tcpip.o(.data)
    mbox                                     0x20000010   Data           4  tcpip.o(.data)
    .data                                    0x20000014   Section        4  dhcp.o(.data)
    xid                                      0x20000014   Data           4  dhcp.o(.data)
    .data                                    0x20000018   Section        1  pbuf.o(.data)
    .data                                    0x2000001c   Section       36  tcp.o(.data)
    tcp_timer                                0x2000001d   Data           1  tcp.o(.data)
    tcp_timer_ctr                            0x2000001e   Data           1  tcp.o(.data)
    tcp_port                                 0x20000020   Data           2  tcp.o(.data)
    iss                                      0x20000024   Data           4  tcp.o(.data)
    .data                                    0x20000040   Section       28  tcp_in.o(.data)
    flags                                    0x20000040   Data           1  tcp_in.o(.data)
    recv_flags                               0x20000041   Data           1  tcp_in.o(.data)
    tcplen                                   0x20000042   Data           2  tcp_in.o(.data)
    tcphdr                                   0x20000044   Data           4  tcp_in.o(.data)
    iphdr                                    0x20000048   Data           4  tcp_in.o(.data)
    seqno                                    0x2000004c   Data           4  tcp_in.o(.data)
    ackno                                    0x20000050   Data           4  tcp_in.o(.data)
    recv_data                                0x20000054   Data           4  tcp_in.o(.data)
    .data                                    0x2000005c   Section        8  udp.o(.data)
    udp_port                                 0x2000005c   Data           2  udp.o(.data)
    .data                                    0x20000064   Section        1  etharp.o(.data)
    etharp_cached_entry                      0x20000064   Data           1  etharp.o(.data)
    .data                                    0x20000068   Section        4  lpc18xx_43xx_emac.o(.data)
    intMask                                  0x20000068   Data           4  lpc18xx_43xx_emac.o(.data)
    .data                                    0x2000006c   Section       20  board.o(.data)
    .data                                    0x20000080   Section       16  lpc_phy_dp83848.o(.data)
    physts                                   0x20000080   Data           4  lpc_phy_dp83848.o(.data)
    olddphysts                               0x20000084   Data           4  lpc_phy_dp83848.o(.data)
    phyustate                                0x20000088   Data           4  lpc_phy_dp83848.o(.data)
    pDelayMs                                 0x2000008c   Data           4  lpc_phy_dp83848.o(.data)
    .data                                    0x20000090   Section        4  chip_18xx_43xx.o(.data)
    .data                                    0x20000094   Section        8  clock_18xx_43xx.o(.data)
    audio_usb_pll_freq                       0x20000094   Data           8  clock_18xx_43xx.o(.data)
    .data                                    0x2000009c   Section       56  i2c_18xx_43xx.o(.data)
    i2c                                      0x2000009c   Data          56  i2c_18xx_43xx.o(.data)
    .bss                                     0x200000d8   Section     3548  raw-os.o(.bss)
    .bss                                     0x20000eb8   Section     1988  main.o(.bss)
    fifo_buffer                              0x200015c4   Data         128  main.o(.bss)
    .bss                                     0x2000167c   Section      652  lpc18xx_43xx_emac.o(.bss)
    lpc_enetdata                             0x2000167c   Data         652  lpc18xx_43xx_emac.o(.bss)
    .bss                                     0x20001908   Section       96  libspace.o(.bss)

    Global Symbols

    Symbol Name                              Value     Ov Type        Size  Object(Section)

    BuildAttributes$$THM_ISAv4$E$P$D$K$B$S$7EM$VFPi3$EXTD16$VFPS$VFMA$PE$A:L22UL41UL21$X:L11$S22US41US21$IEEE1$IW$USESV6$~STKCKD$USESV7$~SHL$OSPACE$ROPI$EBA8$UX$STANDARDLIB$REQ8$PRES8$EABIv2 0x00000000   Number         0  anon$$obj.o ABSOLUTE
    __ARM_use_no_argv                        0x00000000   Number         0  main.o ABSOLUTE
    __ARM_exceptions_init                     - Undefined Weak Reference
    __alloca_initialize                       - Undefined Weak Reference
    __arm_preinit_                            - Undefined Weak Reference
    __cpp_initialize__aeabi_                  - Undefined Weak Reference
    __cxa_finalize                            - Undefined Weak Reference
    __rt_locale                               - Undefined Weak Reference
    __sigvec_lookup                           - Undefined Weak Reference
    _atexit_init                              - Undefined Weak Reference
    _call_atexit_fns                          - Undefined Weak Reference
    _clock_init                               - Undefined Weak Reference
    _fp_trap_init                             - Undefined Weak Reference
    _fp_trap_shutdown                         - Undefined Weak Reference
    _get_lc_collate                           - Undefined Weak Reference
    _get_lc_ctype                             - Undefined Weak Reference
    _get_lc_monetary                          - Undefined Weak Reference
    _get_lc_numeric                           - Undefined Weak Reference
    _get_lc_time                              - Undefined Weak Reference
    _getenv_init                              - Undefined Weak Reference
    _handle_redirection                       - Undefined Weak Reference
    _init_alloc                               - Undefined Weak Reference
    _init_user_alloc                          - Undefined Weak Reference
    _initio                                   - Undefined Weak Reference
    _printf_post_padding                      - Undefined Weak Reference
    _printf_pre_padding                       - Undefined Weak Reference
    _printf_truncate_signed                   - Undefined Weak Reference
    _printf_truncate_unsigned                 - Undefined Weak Reference
    _rand_init                                - Undefined Weak Reference
    _signal_finish                            - Undefined Weak Reference
    _signal_init                              - Undefined Weak Reference
    _terminate_alloc                          - Undefined Weak Reference
    _terminate_user_alloc                     - Undefined Weak Reference
    _terminateio                              - Undefined Weak Reference
    idle_task_exit                           0x10000000   Data           1  raw-os.o(.data)
    raw_sched_lock                           0x10000001   Data           1  raw-os.o(.data)
    raw_int_nesting                          0x10000002   Data           1  raw-os.o(.data)
    raw_os_active                            0x10000004   Data           2  raw-os.o(.data)
    high_ready_obj                           0x10000008   Data           4  raw-os.o(.data)
    raw_task_active                          0x1000000c   Data           4  raw-os.o(.data)
    raw_tick_count                           0x10000010   Data           4  raw-os.o(.data)
    raw_timer_count                          0x10000014   Data           4  raw-os.o(.data)
    raw_timer_ctrl                           0x10000018   Data           4  raw-os.o(.data)
    system_context_switch_times              0x1000001c   Data           4  raw-os.o(.data)
    raw_idle_count                           0x10000020   Data           8  raw-os.o(.data)
    timer_head                               0x10000028   Data           8  raw-os.o(.data)
    sys_time_tick                            0x10000030   Data           8  raw-os.o(.data)
    tftp_client_ipaddr                       0x1000003c   Data           4  main.o(.data)
    tftp_client_netmask                      0x10000040   Data           4  main.o(.data)
    tftp_client_gw                           0x10000044   Data           4  main.o(.data)
    netif_list                               0x1000004c   Data           4  netif.o(.data)
    netif_default                            0x10000050   Data           4  netif.o(.data)
    current_netif                            0x10000064   Data           4  ip.o(.data)
    current_header                           0x10000068   Data           4  ip.o(.data)
    current_iphdr_src                        0x1000006c   Data           4  ip.o(.data)
    current_iphdr_dest                       0x10000070   Data           4  ip.o(.data)
    msg_fake_null                            0x1000007c   Data           4  sys_arch.o(.data)
    dhcp_rx_options_val                      0x100010f4   Data          40  dhcp.o(.bss)
    dhcp_rx_options_given                    0x1000111c   Data          10  dhcp.o(.bss)
    lwip_mem_pool1                           0x1000123c   Data          32  sys_arch.o(.bss)
    Stack_Mem                                0x10001360   Data        1536  keil_startup_lpc18xx43xx.o(STACK)
    __Vectors                                0x1a000000   Data           4  keil_startup_lpc18xx43xx.o(RESET)
    __main                                   0x1a000115   Thumb Code     8  __main.o(!!!main)
    __scatterload                            0x1a00011d   Thumb Code     0  __scatter.o(!!!scatter)
    __scatterload_rt2                        0x1a00011d   Thumb Code    44  __scatter.o(!!!scatter)
    __scatterload_rt2_thumb_only             0x1a00011d   Thumb Code     0  __scatter.o(!!!scatter)
    __scatterload_null                       0x1a00012b   Thumb Code     0  __scatter.o(!!!scatter)
    __decompress                             0x1a000151   Thumb Code    90  __dczerorl2.o(!!dczerorl2)
    __decompress1                            0x1a000151   Thumb Code     0  __dczerorl2.o(!!dczerorl2)
    __scatterload_copy                       0x1a0001ad   Thumb Code    26  __scatter_copy.o(!!handler_copy)
    __scatterload_zeroinit                   0x1a0001c9   Thumb Code    28  __scatter_zi.o(!!handler_zi)
    _printf_d                                0x1a0001e5   Thumb Code     0  _printf_d.o(.ARM.Collect$$_printf_percent$$00000009)
    _printf_percent                          0x1a0001e5   Thumb Code     0  _printf_percent.o(.ARM.Collect$$_printf_percent$$00000000)
    _printf_x                                0x1a0001eb   Thumb Code     0  _printf_x.o(.ARM.Collect$$_printf_percent$$0000000C)
    _printf_percent_end                      0x1a0001f1   Thumb Code     0  _printf_percent_end.o(.ARM.Collect$$_printf_percent$$00000017)
    __rt_lib_init                            0x1a0001f5   Thumb Code     0  libinit.o(.ARM.Collect$$libinit$$00000000)
    __rt_lib_init_fp_1                       0x1a0001f7   Thumb Code     0  libinit2.o(.ARM.Collect$$libinit$$00000001)
    __rt_lib_init_alloca_1                   0x1a0001fb   Thumb Code     0  libinit2.o(.ARM.Collect$$libinit$$0000002E)
    __rt_lib_init_argv_1                     0x1a0001fb   Thumb Code     0  libinit2.o(.ARM.Collect$$libinit$$0000002C)
    __rt_lib_init_atexit_1                   0x1a0001fb   Thumb Code     0  libinit2.o(.ARM.Collect$$libinit$$0000001B)
    __rt_lib_init_clock_1                    0x1a0001fb   Thumb Code     0  libinit2.o(.ARM.Collect$$libinit$$00000021)
    __rt_lib_init_cpp_1                      0x1a0001fb   Thumb Code     0  libinit2.o(.ARM.Collect$$libinit$$00000032)
    __rt_lib_init_exceptions_1               0x1a0001fb   Thumb Code     0  libinit2.o(.ARM.Collect$$libinit$$00000030)
    __rt_lib_init_fp_trap_1                  0x1a0001fb   Thumb Code     0  libinit2.o(.ARM.Collect$$libinit$$0000001F)
    __rt_lib_init_getenv_1                   0x1a0001fb   Thumb Code     0  libinit2.o(.ARM.Collect$$libinit$$00000023)
    __rt_lib_init_heap_1                     0x1a0001fb   Thumb Code     0  libinit2.o(.ARM.Collect$$libinit$$0000000A)
    __rt_lib_init_lc_collate_1               0x1a0001fb   Thumb Code     0  libinit2.o(.ARM.Collect$$libinit$$00000011)
    __rt_lib_init_lc_ctype_1                 0x1a0001fb   Thumb Code     0  libinit2.o(.ARM.Collect$$libinit$$00000013)
    __rt_lib_init_lc_monetary_1              0x1a0001fb   Thumb Code     0  libinit2.o(.ARM.Collect$$libinit$$00000015)
    __rt_lib_init_lc_numeric_1               0x1a0001fb   Thumb Code     0  libinit2.o(.ARM.Collect$$libinit$$00000017)
    __rt_lib_init_lc_time_1                  0x1a0001fb   Thumb Code     0  libinit2.o(.ARM.Collect$$libinit$$00000019)
    __rt_lib_init_preinit_1                  0x1a0001fb   Thumb Code     0  libinit2.o(.ARM.Collect$$libinit$$00000004)
    __rt_lib_init_rand_1                     0x1a0001fb   Thumb Code     0  libinit2.o(.ARM.Collect$$libinit$$0000000E)
    __rt_lib_init_return                     0x1a0001fb   Thumb Code     0  libinit2.o(.ARM.Collect$$libinit$$00000033)
    __rt_lib_init_signal_1                   0x1a0001fb   Thumb Code     0  libinit2.o(.ARM.Collect$$libinit$$0000001D)
    __rt_lib_init_stdio_1                    0x1a0001fb   Thumb Code     0  libinit2.o(.ARM.Collect$$libinit$$00000025)
    __rt_lib_init_user_alloc_1               0x1a0001fb   Thumb Code     0  libinit2.o(.ARM.Collect$$libinit$$0000000C)
    __rt_lib_shutdown                        0x1a0001fd   Thumb Code     0  libshutdown.o(.ARM.Collect$$libshutdown$$00000000)
    __rt_lib_shutdown_cpp_1                  0x1a0001ff   Thumb Code     0  libshutdown2.o(.ARM.Collect$$libshutdown$$00000002)
    __rt_lib_shutdown_fp_trap_1              0x1a0001ff   Thumb Code     0  libshutdown2.o(.ARM.Collect$$libshutdown$$00000007)
    __rt_lib_shutdown_heap_1                 0x1a0001ff   Thumb Code     0  libshutdown2.o(.ARM.Collect$$libshutdown$$0000000F)
    __rt_lib_shutdown_return                 0x1a0001ff   Thumb Code     0  libshutdown2.o(.ARM.Collect$$libshutdown$$00000010)
    __rt_lib_shutdown_signal_1               0x1a0001ff   Thumb Code     0  libshutdown2.o(.ARM.Collect$$libshutdown$$0000000A)
    __rt_lib_shutdown_stdio_1                0x1a0001ff   Thumb Code     0  libshutdown2.o(.ARM.Collect$$libshutdown$$00000004)
    __rt_lib_shutdown_user_alloc_1           0x1a0001ff   Thumb Code     0  libshutdown2.o(.ARM.Collect$$libshutdown$$0000000C)
    __rt_entry                               0x1a000201   Thumb Code     0  __rtentry.o(.ARM.Collect$$rtentry$$00000000)
    __rt_entry_presh_1                       0x1a000201   Thumb Code     0  __rtentry2.o(.ARM.Collect$$rtentry$$00000002)
    __rt_entry_sh                            0x1a000201   Thumb Code     0  __rtentry4.o(.ARM.Collect$$rtentry$$00000004)
    __rt_entry_li                            0x1a000207   Thumb Code     0  __rtentry2.o(.ARM.Collect$$rtentry$$0000000A)
    __rt_entry_postsh_1                      0x1a000207   Thumb Code     0  __rtentry2.o(.ARM.Collect$$rtentry$$00000009)
    __rt_entry_main                          0x1a00020b   Thumb Code     0  __rtentry2.o(.ARM.Collect$$rtentry$$0000000D)
    __rt_entry_postli_1                      0x1a00020b   Thumb Code     0  __rtentry2.o(.ARM.Collect$$rtentry$$0000000C)
    __rt_exit                                0x1a000213   Thumb Code     0  rtexit.o(.ARM.Collect$$rtexit$$00000000)
    __rt_exit_ls                             0x1a000215   Thumb Code     0  rtexit2.o(.ARM.Collect$$rtexit$$00000003)
    __rt_exit_prels_1                        0x1a000215   Thumb Code     0  rtexit2.o(.ARM.Collect$$rtexit$$00000002)
    __rt_exit_exit                           0x1a000219   Thumb Code     0  rtexit2.o(.ARM.Collect$$rtexit$$00000004)
    get_ready_task                           0x1a000221   Thumb Code    16  raw-os.o(.text)
    raw_sched                                0x1a000231   Thumb Code    46  raw-os.o(.text)
    raw_semaphore_create                     0x1a00025f   Thumb Code    54  raw-os.o(.text)
    raw_task_semaphore_create                0x1a000295   Thumb Code    16  raw-os.o(.text)
    tick_list_remove                         0x1a0002a5   Thumb Code    24  raw-os.o(.text)
    mutex_priority_look                      0x1a0002bd   Thumb Code    74  raw-os.o(.text)
    change_pend_list_priority                0x1a000307   Thumb Code    34  raw-os.o(.text)
    add_ready_list_end                       0x1a000329   Thumb Code    40  raw-os.o(.text)
    add_ready_list_head                      0x1a000351   Thumb Code    40  raw-os.o(.text)
    bit_search_first_one                     0x1a000379   Thumb Code   116  raw-os.o(.text)
    remove_ready_list                        0x1a0003ed   Thumb Code   104  raw-os.o(.text)
    change_internal_task_priority            0x1a000455   Thumb Code   168  raw-os.o(.text)
    mutex_state_change                       0x1a0004fd   Thumb Code    38  raw-os.o(.text)
    add_ready_list                           0x1a000523   Thumb Code    20  raw-os.o(.text)
    tick_list_update                         0x1a000537   Thumb Code   246  raw-os.o(.text)
    block_state_post_process                 0x1a00062d   Thumb Code    62  raw-os.o(.text)
    tick_list_insert                         0x1a00066b   Thumb Code    62  raw-os.o(.text)
    raw_pend_object                          0x1a0006a9   Thumb Code    70  raw-os.o(.text)
    raw_semaphore_get                        0x1a0006ef   Thumb Code   140  raw-os.o(.text)
    raw_task_semaphore_get                   0x1a00077b   Thumb Code    10  raw-os.o(.text)
    raw_task_create                          0x1a0007a1   Thumb Code   266  raw-os.o(.text)
    tick_task_start                          0x1a0008ab   Thumb Code    56  raw-os.o(.text)
    raw_mutex_create                         0x1a0008e3   Thumb Code    66  raw-os.o(.text)
    raw_wake_object                          0x1a000985   Thumb Code     2  raw-os.o(.text)
    raw_mutex_put                            0x1a000987   Thumb Code   170  raw-os.o(.text)
    raw_mutex_get                            0x1a000a31   Thumb Code   346  raw-os.o(.text)
    raw_semaphore_set                        0x1a000b8b   Thumb Code    84  raw-os.o(.text)
    timer_task                               0x1a000bdf   Thumb Code   166  raw-os.o(.text)
    raw_timer_init                           0x1a000c85   Thumb Code    66  raw-os.o(.text)
    raw_idle_task                            0x1a000cc7   Thumb Code    30  raw-os.o(.text)
    tick_list_init                           0x1a000ce5   Thumb Code    24  raw-os.o(.text)
    run_queue_init                           0x1a000cfd   Thumb Code    26  raw-os.o(.text)
    raw_os_init                              0x1a000d17   Thumb Code   132  raw-os.o(.text)
    raw_os_start                             0x1a000d9b   Thumb Code    40  raw-os.o(.text)
    move_to_ready_list_end                   0x1a000dc3   Thumb Code    34  raw-os.o(.text)
    calculate_time_slice                     0x1a000de5   Thumb Code    76  raw-os.o(.text)
    wake_send_msg                            0x1a000e31   Thumb Code     4  raw-os.o(.text)
    wake_send_msg_size                       0x1a000e35   Thumb Code     6  raw-os.o(.text)
    delete_pend_obj                          0x1a000e3b   Thumb Code    98  raw-os.o(.text)
    raw_task_stack_check                     0x1a000e9d   Thumb Code    52  raw-os.o(.text)
    raw_isr_stack_check                      0x1a000ed1   Thumb Code    14  raw-os.o(.text)
    raw_disable_sche                         0x1a000edf   Thumb Code    42  raw-os.o(.text)
    raw_enable_sche                          0x1a000f09   Thumb Code    58  raw-os.o(.text)
    raw_sleep                                0x1a000f43   Thumb Code   174  raw-os.o(.text)
    raw_task_yield                           0x1a000ff1   Thumb Code    36  raw-os.o(.text)
    raw_time_sleep                           0x1a001015   Thumb Code    94  raw-os.o(.text)
    task_suspend                             0x1a001073   Thumb Code   154  raw-os.o(.text)
    raw_task_suspend                         0x1a00110d   Thumb Code    24  raw-os.o(.text)
    task_resume                              0x1a001125   Thumb Code   162  raw-os.o(.text)
    raw_task_resume                          0x1a0011c7   Thumb Code    10  raw-os.o(.text)
    chg_pri_mutex                            0x1a0011d1   Thumb Code   114  raw-os.o(.text)
    raw_task_priority_change                 0x1a001243   Thumb Code   140  raw-os.o(.text)
    raw_task_free_mutex                      0x1a0012cf   Thumb Code    68  raw-os.o(.text)
    raw_task_delete                          0x1a001313   Thumb Code   180  raw-os.o(.text)
    raw_set_task_user_point                  0x1a0013c7   Thumb Code    34  raw-os.o(.text)
    raw_get_task_user_point                  0x1a0013e9   Thumb Code     8  raw-os.o(.text)
    raw_task_time_slice_change               0x1a0013f1   Thumb Code    52  raw-os.o(.text)
    raw_set_sched_way                        0x1a001425   Thumb Code    56  raw-os.o(.text)
    raw_get_sched_way                        0x1a00145d   Thumb Code    46  raw-os.o(.text)
    raw_task_wait_abort                      0x1a00148b   Thumb Code   164  raw-os.o(.text)
    raw_task_identify                        0x1a00152f   Thumb Code     6  raw-os.o(.text)
    raw_iter_block_task                      0x1a001535   Thumb Code    72  raw-os.o(.text)
    raw_get_system_global_space              0x1a00157d   Thumb Code     6  raw-os.o(.text)
    raw_block_pool_create                    0x1a001583   Thumb Code   108  raw-os.o(.text)
    raw_block_allocate                       0x1a0015ef   Thumb Code    76  raw-os.o(.text)
    raw_block_release                        0x1a00163b   Thumb Code    52  raw-os.o(.text)
    raw_byte_pool_create                     0x1a00166f   Thumb Code    88  raw-os.o(.text)
    raw_byte_allocate                        0x1a0016c7   Thumb Code    94  raw-os.o(.text)
    raw_byte_release                         0x1a001725   Thumb Code    64  raw-os.o(.text)
    raw_event_create                         0x1a001765   Thumb Code    42  raw-os.o(.text)
    raw_event_get                            0x1a00178f   Thumb Code   238  raw-os.o(.text)
    event_set                                0x1a00187d   Thumb Code   132  raw-os.o(.text)
    raw_event_set                            0x1a001901   Thumb Code    22  raw-os.o(.text)
    raw_event_delete                         0x1a001917   Thumb Code    96  raw-os.o(.text)
    raw_mutex_delete                         0x1a001977   Thumb Code   104  raw-os.o(.text)
    raw_queue_create                         0x1a0019df   Thumb Code    78  raw-os.o(.text)
    raw_queue_block_way_set                  0x1a001a2d   Thumb Code    14  raw-os.o(.text)
    raw_queue_full_register                  0x1a001a3b   Thumb Code    32  raw-os.o(.text)
    msg_post                                 0x1a001a5b   Thumb Code   198  raw-os.o(.text)
    raw_queue_front_post                     0x1a001b21   Thumb Code    22  raw-os.o(.text)
    raw_queue_end_post                       0x1a001b37   Thumb Code    22  raw-os.o(.text)
    raw_queue_post_notify                    0x1a001b4d   Thumb Code    22  raw-os.o(.text)
    raw_queue_all_post                       0x1a001b63   Thumb Code    20  raw-os.o(.text)
    raw_queue_send_notify                    0x1a001b77   Thumb Code    56  raw-os.o(.text)
    raw_queue_receive                        0x1a001baf   Thumb Code   214  raw-os.o(.text)
    raw_queue_full_check                     0x1a001c85   Thumb Code    58  raw-os.o(.text)
    raw_queue_flush                          0x1a001cbf   Thumb Code    70  raw-os.o(.text)
    raw_queue_delete                         0x1a001d05   Thumb Code    94  raw-os.o(.text)
    raw_queue_get_information                0x1a001d63   Thumb Code    82  raw-os.o(.text)
    raw_queue_buffer_create                  0x1a001db5   Thumb Code    98  raw-os.o(.text)
    queue_buffer_post                        0x1a001e17   Thumb Code   194  raw-os.o(.text)
    raw_queue_buffer_end_post                0x1a001ed9   Thumb Code    30  raw-os.o(.text)
    raw_queue_buffer_receive                 0x1a001ef7   Thumb Code   288  raw-os.o(.text)
    raw_queue_buffer_flush                   0x1a002017   Thumb Code    62  raw-os.o(.text)
    raw_queue_buffer_delete                  0x1a002055   Thumb Code    94  raw-os.o(.text)
    raw_queue_buffer_info_get                0x1a0020b3   Thumb Code    66  raw-os.o(.text)
    raw_queue_size_create                    0x1a0020f5   Thumb Code    90  raw-os.o(.text)
    raw_queue_size_full_register             0x1a00214f   Thumb Code    32  raw-os.o(.text)
    msg_size_post                            0x1a00216f   Thumb Code   198  raw-os.o(.text)
    raw_queue_size_receive                   0x1a002235   Thumb Code   258  raw-os.o(.text)
    raw_queue_size_front_post                0x1a002337   Thumb Code    30  raw-os.o(.text)
    raw_queue_size_end_post                  0x1a002355   Thumb Code    30  raw-os.o(.text)
    raw_queue_size_all_post                  0x1a002373   Thumb Code    28  raw-os.o(.text)
    raw_queue_size_full_check                0x1a00238f   Thumb Code    58  raw-os.o(.text)
    raw_queue_size_flush                     0x1a0023c9   Thumb Code    74  raw-os.o(.text)
    raw_queue_size_delete                    0x1a002413   Thumb Code    94  raw-os.o(.text)
    raw_queue_size_get_information           0x1a002471   Thumb Code    78  raw-os.o(.text)
    raw_semaphore_block_way_set              0x1a0024bf   Thumb Code    26  raw-os.o(.text)
    semaphore_put                            0x1a0024d9   Thumb Code   138  raw-os.o(.text)
    raw_semaphore_put                        0x1a002563   Thumb Code    12  raw-os.o(.text)
    raw_semaphore_put_notify                 0x1a00256f   Thumb Code    12  raw-os.o(.text)
    raw_semaphore_put_all                    0x1a00257b   Thumb Code    12  raw-os.o(.text)
    raw_semphore_send_notify                 0x1a002587   Thumb Code    56  raw-os.o(.text)
    raw_semaphore_delete                     0x1a0025bf   Thumb Code    94  raw-os.o(.text)
    raw_stack_check                          0x1a00261d   Thumb Code    68  raw-os.o(.text)
    raw_statistics_check                     0x1a002661   Thumb Code    52  raw-os.o(.text)
    raw_finish_int                           0x1a002695   Thumb Code    80  raw-os.o(.text)
    call_timer_task                          0x1a0026e5   Thumb Code    20  raw-os.o(.text)
    raw_task_semaphore_put                   0x1a0026f9   Thumb Code     4  raw-os.o(.text)
    raw_time_tick                            0x1a0026fd   Thumb Code    48  raw-os.o(.text)
    raw_enter_interrupt                      0x1a00272d   Thumb Code    62  raw-os.o(.text)
    raw_system_time_get                      0x1a00276b   Thumb Code    36  raw-os.o(.text)
    raw_system_tick_get                      0x1a00278f   Thumb Code     8  raw-os.o(.text)
    raw_os_version_get                       0x1a002797   Thumb Code     6  raw-os.o(.text)
    raw_task_qsize_create                    0x1a00279d   Thumb Code    20  raw-os.o(.text)
    raw_task_qsize_receive                   0x1a0027b1   Thumb Code    20  raw-os.o(.text)
    raw_task_qsize_front_post                0x1a0027c5   Thumb Code     4  raw-os.o(.text)
    raw_task_qsize_end_post                  0x1a0027c9   Thumb Code     4  raw-os.o(.text)
    raw_task_qsize_flush                     0x1a0027cd   Thumb Code     4  raw-os.o(.text)
    raw_task_qsize_delete                    0x1a0027d1   Thumb Code     4  raw-os.o(.text)
    raw_task_qsize_get_information           0x1a0027d5   Thumb Code     4  raw-os.o(.text)
    raw_task_semaphore_set                   0x1a0027d9   Thumb Code     6  raw-os.o(.text)
    raw_task_semaphore_delete                0x1a0027df   Thumb Code     4  raw-os.o(.text)
    raw_timer_activate                       0x1a0027e3   Thumb Code   132  raw-os.o(.text)
    raw_timer_create                         0x1a002867   Thumb Code    96  raw-os.o(.text)
    raw_timer_change                         0x1a0028c7   Thumb Code   104  raw-os.o(.text)
    raw_timer_deactivate                     0x1a00292f   Thumb Code   130  raw-os.o(.text)
    raw_timer_delete                         0x1a0029b1   Thumb Code   108  raw-os.o(.text)
    fifo_init                                0x1a002b99   Thumb Code    68  fifo.o(.text)
    fifo_in                                  0x1a002bdd   Thumb Code    92  fifo.o(.text)
    fifo_out_peek                            0x1a002c77   Thumb Code    38  fifo.o(.text)
    fifo_out                                 0x1a002c9d   Thumb Code    50  fifo.o(.text)
    fifo_out_all                             0x1a002ccf   Thumb Code    62  fifo.o(.text)
    OS_CPU_SR_Save                           0x1a002d0d   Thumb Code     0  cpu.o(.text)
    OS_CPU_SR_Restore                        0x1a002d15   Thumb Code     0  cpu.o(.text)
    CPU_IntDis                               0x1a002d1b   Thumb Code     0  cpu.o(.text)
    CPU_IntEn                                0x1a002d1f   Thumb Code     0  cpu.o(.text)
    raw_start_first_task                     0x1a002d23   Thumb Code     0  cpu.o(.text)
    port_task_switch                         0x1a002d4b   Thumb Code     0  cpu.o(.text)
    raw_int_switch                           0x1a002d55   Thumb Code     0  cpu.o(.text)
    PendSV_Handler                           0x1a002d5f   Thumb Code     0  cpu.o(.text)
    port_stack_init                          0x1a002db9   Thumb Code   324  port.o(.text)
    port_isr_stack_check                     0x1a002efd   Thumb Code     2  port.o(.text)
    port_isr_stack_free_check                0x1a002eff   Thumb Code    20  port.o(.text)
    system_mpu_enable                        0x1a002f13   Thumb Code    72  port.o(.text)
    task_stack_mpu_set                       0x1a002f5b   Thumb Code    42  port.o(.text)
    raw_os_init_hook                         0x1a002f99   Thumb Code    14  port_hook.o(.text)
    raw_os_start_hook                        0x1a002fa7   Thumb Code     2  port_hook.o(.text)
    raw_task_delete_hook                     0x1a002fa9   Thumb Code     2  port_hook.o(.text)
    raw_task_abort_hook                      0x1a002fab   Thumb Code     2  port_hook.o(.text)
    raw_idle_task_hook                       0x1a002fad   Thumb Code     2  port_hook.o(.text)
    raw_task_switch_hook                     0x1a002faf   Thumb Code     2  port_hook.o(.text)
    raw_tick_hook                            0x1a002fb1   Thumb Code     2  port_hook.o(.text)
    task_create_hook                         0x1a002fb3   Thumb Code     2  port_hook.o(.text)
    raw_idle_coroutine_hook                  0x1a002fb5   Thumb Code     4  port_hook.o(.text)
    raw_memcpy                               0x1a002fb9   Thumb Code    74  user_extension.o(.text)
    raw_memset                               0x1a003003   Thumb Code    62  user_extension.o(.text)
    port_system_error_process                0x1a003041   Thumb Code    88  port_error_process.o(.text)
    cpu_timer_init                           0x1a003099   Thumb Code    26  port_extension.o(.text)
    user_cpu_time_get                        0x1a0030b3   Thumb Code     6  port_extension.o(.text)
    user_sys_time_get                        0x1a0030b9   Thumb Code     6  port_extension.o(.text)
    Reset_Handler                            0x1a0030c9   Thumb Code     8  keil_startup_lpc18xx43xx.o(.text)
    NMI_Handler                              0x1a0030d1   Thumb Code     2  keil_startup_lpc18xx43xx.o(.text)
    HardFault_Handler                        0x1a0030d3   Thumb Code     2  keil_startup_lpc18xx43xx.o(.text)
    MemManage_Handler                        0x1a0030d5   Thumb Code     2  keil_startup_lpc18xx43xx.o(.text)
    BusFault_Handler                         0x1a0030d7   Thumb Code     2  keil_startup_lpc18xx43xx.o(.text)
    UsageFault_Handler                       0x1a0030d9   Thumb Code     2  keil_startup_lpc18xx43xx.o(.text)
    SVC_Handler                              0x1a0030db   Thumb Code     2  keil_startup_lpc18xx43xx.o(.text)
    DebugMon_Handler                         0x1a0030dd   Thumb Code     2  keil_startup_lpc18xx43xx.o(.text)
    UnHandled_Vector                         0x1a0030e3   Thumb Code     2  keil_startup_lpc18xx43xx.o(.text)
    ADC0_IRQHandler                          0x1a0030e5   Thumb Code     0  keil_startup_lpc18xx43xx.o(.text)
    ADC1_IRQHandler                          0x1a0030e5   Thumb Code     0  keil_startup_lpc18xx43xx.o(.text)
    ADCHS_IRQHandler                         0x1a0030e5   Thumb Code     0  keil_startup_lpc18xx43xx.o(.text)
    ATIMER_IRQHandler                        0x1a0030e5   Thumb Code     0  keil_startup_lpc18xx43xx.o(.text)
    CAN0_IRQHandler                          0x1a0030e5   Thumb Code     0  keil_startup_lpc18xx43xx.o(.text)
    CAN1_IRQHandler                          0x1a0030e5   Thumb Code     0  keil_startup_lpc18xx43xx.o(.text)
    DAC_IRQHandler                           0x1a0030e5   Thumb Code     0  keil_startup_lpc18xx43xx.o(.text)
    DMA_IRQHandler                           0x1a0030e5   Thumb Code     0  keil_startup_lpc18xx43xx.o(.text)
    EVRT_IRQHandler                          0x1a0030e5   Thumb Code     0  keil_startup_lpc18xx43xx.o(.text)
    FLASHEEPROM_IRQHandler                   0x1a0030e5   Thumb Code     0  keil_startup_lpc18xx43xx.o(.text)
    GINT0_IRQHandler                         0x1a0030e5   Thumb Code     0  keil_startup_lpc18xx43xx.o(.text)
    GINT1_IRQHandler                         0x1a0030e5   Thumb Code     0  keil_startup_lpc18xx43xx.o(.text)
    GPIO0_IRQHandler                         0x1a0030e5   Thumb Code     0  keil_startup_lpc18xx43xx.o(.text)
    GPIO1_IRQHandler                         0x1a0030e5   Thumb Code     0  keil_startup_lpc18xx43xx.o(.text)
    GPIO2_IRQHandler                         0x1a0030e5   Thumb Code     0  keil_startup_lpc18xx43xx.o(.text)
    GPIO3_IRQHandler                         0x1a0030e5   Thumb Code     0  keil_startup_lpc18xx43xx.o(.text)
    GPIO4_IRQHandler                         0x1a0030e5   Thumb Code     0  keil_startup_lpc18xx43xx.o(.text)
    GPIO5_IRQHandler                         0x1a0030e5   Thumb Code     0  keil_startup_lpc18xx43xx.o(.text)
    GPIO6_IRQHandler                         0x1a0030e5   Thumb Code     0  keil_startup_lpc18xx43xx.o(.text)
    GPIO7_IRQHandler                         0x1a0030e5   Thumb Code     0  keil_startup_lpc18xx43xx.o(.text)
    I2C0_IRQHandler                          0x1a0030e5   Thumb Code     0  keil_startup_lpc18xx43xx.o(.text)
    I2C1_IRQHandler                          0x1a0030e5   Thumb Code     0  keil_startup_lpc18xx43xx.o(.text)
    I2S0_IRQHandler                          0x1a0030e5   Thumb Code     0  keil_startup_lpc18xx43xx.o(.text)
    I2S1_IRQHandler                          0x1a0030e5   Thumb Code     0  keil_startup_lpc18xx43xx.o(.text)
    LCD_IRQHandler                           0x1a0030e5   Thumb Code     0  keil_startup_lpc18xx43xx.o(.text)
    MCPWM_IRQHandler                         0x1a0030e5   Thumb Code     0  keil_startup_lpc18xx43xx.o(.text)
    MX_CORE_IRQHandler                       0x1a0030e5   Thumb Code     0  keil_startup_lpc18xx43xx.o(.text)
    QEI_IRQHandler                           0x1a0030e5   Thumb Code     0  keil_startup_lpc18xx43xx.o(.text)
    RIT_IRQHandler                           0x1a0030e5   Thumb Code     0  keil_startup_lpc18xx43xx.o(.text)
    RTC_IRQHandler                           0x1a0030e5   Thumb Code     0  keil_startup_lpc18xx43xx.o(.text)
    SCT_IRQHandler                           0x1a0030e5   Thumb Code     0  keil_startup_lpc18xx43xx.o(.text)
    SDIO_IRQHandler                          0x1a0030e5   Thumb Code     0  keil_startup_lpc18xx43xx.o(.text)
    SGPIO_IRQHandler                         0x1a0030e5   Thumb Code     0  keil_startup_lpc18xx43xx.o(.text)
    SPIFI_IRQHandler                         0x1a0030e5   Thumb Code     0  keil_startup_lpc18xx43xx.o(.text)
    SPI_IRQHandler                           0x1a0030e5   Thumb Code     0  keil_startup_lpc18xx43xx.o(.text)
    SSP0_IRQHandler                          0x1a0030e5   Thumb Code     0  keil_startup_lpc18xx43xx.o(.text)
    SSP1_IRQHandler                          0x1a0030e5   Thumb Code     0  keil_startup_lpc18xx43xx.o(.text)
    TIMER0_IRQHandler                        0x1a0030e5   Thumb Code     0  keil_startup_lpc18xx43xx.o(.text)
    TIMER1_IRQHandler                        0x1a0030e5   Thumb Code     0  keil_startup_lpc18xx43xx.o(.text)
    TIMER2_IRQHandler                        0x1a0030e5   Thumb Code     0  keil_startup_lpc18xx43xx.o(.text)
    TIMER3_IRQHandler                        0x1a0030e5   Thumb Code     0  keil_startup_lpc18xx43xx.o(.text)
    UART0_IRQHandler                         0x1a0030e5   Thumb Code     0  keil_startup_lpc18xx43xx.o(.text)
    UART1_IRQHandler                         0x1a0030e5   Thumb Code     0  keil_startup_lpc18xx43xx.o(.text)
    UART2_IRQHandler                         0x1a0030e5   Thumb Code     0  keil_startup_lpc18xx43xx.o(.text)
    USB0_IRQHandler                          0x1a0030e5   Thumb Code     0  keil_startup_lpc18xx43xx.o(.text)
    USB1_IRQHandler                          0x1a0030e5   Thumb Code     0  keil_startup_lpc18xx43xx.o(.text)
    WDT_IRQHandler                           0x1a0030e5   Thumb Code     0  keil_startup_lpc18xx43xx.o(.text)
    __user_initial_stackheap                 0x1a0030e9   Thumb Code     0  keil_startup_lpc18xx43xx.o(.text)
    SystemInit                               0x1a00310d   Thumb Code    20  sysinit.o(.text)
    scu_pinmux                               0x1a003129   Thumb Code    16  lpc43xx_scu.o(.text)
    emc_init                                 0x1a00313d   Thumb Code   944  lpc43xx_sdram.o(.text)
    sdram_init                               0x1a0034ed   Thumb Code   144  lpc43xx_sdram.o(.text)
    SysTick_Handler                          0x1a003599   Thumb Code    18  main.o(.text)
    OS_CPU_SysTickInit                       0x1a0035ab   Thumb Code    48  main.o(.text)
    uart_3_recv                              0x1a0035db   Thumb Code    76  main.o(.text)
    UART3_IRQHandler                         0x1a003627   Thumb Code    56  main.o(.text)
    shell_task                               0x1a00365f   Thumb Code   272  main.o(.text)
    main                                     0x1a00376f   Thumb Code    56  main.o(.text)
    GPIO_SetDir                              0x1a003875   Thumb Code    22  lpc43xx_gpio.o(.text)
    GPIO_SetValue                            0x1a00388b   Thumb Code    12  lpc43xx_gpio.o(.text)
    GPIO_ClearValue                          0x1a003897   Thumb Code    12  lpc43xx_gpio.o(.text)
    GPIO_ReadValue                           0x1a0038a3   Thumb Code    12  lpc43xx_gpio.o(.text)
    tftp_client_init                         0x1a003af5   Thumb Code    22  client.o(.text)
    netconn_new_with_proto_and_callback      0x1a003ce1   Thumb Code   170  api_lib.o(.text)
    netconn_delete                           0x1a003d8b   Thumb Code    32  api_lib.o(.text)
    netconn_getaddr                          0x1a003dab   Thumb Code   120  api_lib.o(.text)
    netconn_bind                             0x1a003e23   Thumb Code    76  api_lib.o(.text)
    netconn_connect                          0x1a003e6f   Thumb Code    76  api_lib.o(.text)
    netconn_disconnect                       0x1a003ebb   Thumb Code    70  api_lib.o(.text)
    netconn_listen_with_backlog              0x1a003f01   Thumb Code    70  api_lib.o(.text)
    netconn_accept                           0x1a003f47   Thumb Code   176  api_lib.o(.text)
    netconn_recv_tcp_pbuf                    0x1a004129   Thumb Code    40  api_lib.o(.text)
    netconn_recv                             0x1a004151   Thumb Code   208  api_lib.o(.text)
    netconn_recved                           0x1a004221   Thumb Code    40  api_lib.o(.text)
    netconn_send                             0x1a004249   Thumb Code    72  api_lib.o(.text)
    netconn_sendto                           0x1a004291   Thumb Code    18  api_lib.o(.text)
    netconn_write_partly                     0x1a0042a3   Thumb Code   188  api_lib.o(.text)
    netconn_close                            0x1a0043a9   Thumb Code     4  api_lib.o(.text)
    netconn_shutdown                         0x1a0043ad   Thumb Code    12  api_lib.o(.text)
    netconn_free                             0x1a004acb   Thumb Code    98  api_msg.o(.text)
    netconn_alloc                            0x1a004b2d   Thumb Code   138  api_msg.o(.text)
    do_newconn                               0x1a004c4d   Thumb Code    32  api_msg.o(.text)
    do_delconn                               0x1a004d19   Thumb Code   242  api_msg.o(.text)
    do_bind                                  0x1a004e0b   Thumb Code    82  api_msg.o(.text)
    do_connect                               0x1a004efb   Thumb Code   166  api_msg.o(.text)
    do_disconnect                            0x1a004fa1   Thumb Code    42  api_msg.o(.text)
    do_listen                                0x1a004fcb   Thumb Code   168  api_msg.o(.text)
    do_send                                  0x1a005073   Thumb Code   148  api_msg.o(.text)
    do_recv                                  0x1a005107   Thumb Code    68  api_msg.o(.text)
    do_write                                 0x1a00514b   Thumb Code   122  api_msg.o(.text)
    do_getaddr                               0x1a0051c5   Thumb Code   134  api_msg.o(.text)
    do_close                                 0x1a00524b   Thumb Code   138  api_msg.o(.text)
    netbuf_new                               0x1a00537d   Thumb Code    32  netbuf.o(.text)
    netbuf_delete                            0x1a00539d   Thumb Code    32  netbuf.o(.text)
    netbuf_alloc                             0x1a0053bd   Thumb Code    86  netbuf.o(.text)
    netbuf_free                              0x1a005413   Thumb Code    42  netbuf.o(.text)
    netbuf_ref                               0x1a00543d   Thumb Code    84  netbuf.o(.text)
    netbuf_chain                             0x1a005491   Thumb Code    72  netbuf.o(.text)
    netbuf_data                              0x1a0054d9   Thumb Code    94  netbuf.o(.text)
    netbuf_next                              0x1a005537   Thumb Code    50  netbuf.o(.text)
    netbuf_first                             0x1a005569   Thumb Code    30  netbuf.o(.text)
    lwip_socket_init                         0x1a00558d   Thumb Code     2  sockets.o(.text)
    lwip_accept                              0x1a00571d   Thumb Code   358  sockets.o(.text)
    lwip_bind                                0x1a005883   Thumb Code   112  sockets.o(.text)
    lwip_close                               0x1a0058f3   Thumb Code   100  sockets.o(.text)
    lwip_connect                             0x1a005957   Thumb Code   126  sockets.o(.text)
    lwip_listen                              0x1a0059d5   Thumb Code    86  sockets.o(.text)
    lwip_recvfrom                            0x1a005a2b   Thumb Code   478  sockets.o(.text)
    lwip_read                                0x1a005c09   Thumb Code    14  sockets.o(.text)
    lwip_recv                                0x1a005c17   Thumb Code    14  sockets.o(.text)
    lwip_sendto                              0x1a005c25   Thumb Code   218  sockets.o(.text)
    lwip_send                                0x1a005cff   Thumb Code   116  sockets.o(.text)
    lwip_socket                              0x1a005d73   Thumb Code   112  sockets.o(.text)
    lwip_write                               0x1a005de3   Thumb Code     4  sockets.o(.text)
    lwip_select                              0x1a005ef7   Thumb Code   708  sockets.o(.text)
    lwip_shutdown                            0x1a0061bb   Thumb Code   108  sockets.o(.text)
    lwip_getpeername                         0x1a006291   Thumb Code     4  sockets.o(.text)
    lwip_getsockname                         0x1a006295   Thumb Code     4  sockets.o(.text)
    lwip_getsockopt                          0x1a0063f5   Thumb Code   242  sockets.o(.text)
    lwip_setsockopt                          0x1a00661b   Thumb Code   222  sockets.o(.text)
    lwip_ioctl                               0x1a0066f9   Thumb Code    68  sockets.o(.text)
    lwip_fcntl                               0x1a00673d   Thumb Code    70  sockets.o(.text)
    tcpip_input                              0x1a00684b   Thumb Code    72  tcpip.o(.text)
    tcpip_callback_with_block                0x1a006893   Thumb Code    90  tcpip.o(.text)
    tcpip_timeout                            0x1a0068ed   Thumb Code    62  tcpip.o(.text)
    tcpip_untimeout                          0x1a00692b   Thumb Code    58  tcpip.o(.text)
    tcpip_apimsg                             0x1a006965   Thumb Code    56  tcpip.o(.text)
    tcpip_callbackmsg_new                    0x1a00699d   Thumb Code    28  tcpip.o(.text)
    tcpip_callbackmsg_delete                 0x1a0069b9   Thumb Code     4  tcpip.o(.text)
    tcpip_trycallback                        0x1a0069bd   Thumb Code    24  tcpip.o(.text)
    tcpip_init                               0x1a0069d5   Thumb Code    64  tcpip.o(.text)
    pbuf_free_callback                       0x1a006a19   Thumb Code     8  tcpip.o(.text)
    mem_free_callback                        0x1a006a21   Thumb Code     8  tcpip.o(.text)
    lwip_htons                               0x1a006a4d   Thumb Code     4  def.o(.text)
    lwip_ntohs                               0x1a006a51   Thumb Code     4  def.o(.text)
    lwip_htonl                               0x1a006a55   Thumb Code     4  def.o(.text)
    lwip_ntohl                               0x1a006a59   Thumb Code     4  def.o(.text)
    dhcp_renew                               0x1a006fa9   Thumb Code   156  dhcp.o(.text)
    dhcp_coarse_tmr                          0x1a0070cf   Thumb Code    90  dhcp.o(.text)
    dhcp_release                             0x1a0071c5   Thumb Code   160  dhcp.o(.text)
    dhcp_fine_tmr                            0x1a00734b   Thumb Code    46  dhcp.o(.text)
    dhcp_set_struct                          0x1a007379   Thumb Code    78  dhcp.o(.text)
    dhcp_cleanup                             0x1a0073c7   Thumb Code    40  dhcp.o(.text)
    dhcp_stop                                0x1a0073ef   Thumb Code    82  dhcp.o(.text)
    dhcp_start                               0x1a007875   Thumb Code   226  dhcp.o(.text)
    dhcp_inform                              0x1a007957   Thumb Code   166  dhcp.o(.text)
    dhcp_network_changed                     0x1a0079fd   Thumb Code    66  dhcp.o(.text)
    dhcp_arp_reply                           0x1a007a3f   Thumb Code    52  dhcp.o(.text)
    lwip_init                                0x1a007c11   Thumb Code    30  init.o(.text)
    netif_init                               0x1a007c31   Thumb Code     2  netif.o(.text)
    netif_set_gw                             0x1a007c33   Thumb Code     8  netif.o(.text)
    netif_set_netmask                        0x1a007c3b   Thumb Code     8  netif.o(.text)
    netif_set_ipaddr                         0x1a007c43   Thumb Code    96  netif.o(.text)
    netif_set_addr                           0x1a007ca3   Thumb Code    30  netif.o(.text)
    netif_add                                0x1a007cc1   Thumb Code   104  netif.o(.text)
    netif_set_default                        0x1a007d29   Thumb Code     6  netif.o(.text)
    netif_set_down                           0x1a007d2f   Thumb Code    26  netif.o(.text)
    netif_remove                             0x1a007d49   Thumb Code    68  netif.o(.text)
    netif_find                               0x1a007d8d   Thumb Code    58  netif.o(.text)
    netif_set_up                             0x1a007dc7   Thumb Code    32  netif.o(.text)
    netif_set_link_up                        0x1a007de7   Thumb Code    56  netif.o(.text)
    netif_set_link_down                      0x1a007e1f   Thumb Code    18  netif.o(.text)
    pbuf_free                                0x1a007e9d   Thumb Code   168  pbuf.o(.text)
    pbuf_alloc                               0x1a007f45   Thumb Code   486  pbuf.o(.text)
    pbuf_alloced_custom                      0x1a00812b   Thumb Code   100  pbuf.o(.text)
    pbuf_realloc                             0x1a00818f   Thumb Code   194  pbuf.o(.text)
    pbuf_header                              0x1a008251   Thumb Code   152  pbuf.o(.text)
    pbuf_clen                                0x1a0082e9   Thumb Code    18  pbuf.o(.text)
    pbuf_ref                                 0x1a0082fb   Thumb Code    26  pbuf.o(.text)
    pbuf_cat                                 0x1a008315   Thumb Code   100  pbuf.o(.text)
    pbuf_chain                               0x1a008379   Thumb Code    16  pbuf.o(.text)
    pbuf_dechain                             0x1a008389   Thumb Code    96  pbuf.o(.text)
    pbuf_copy                                0x1a0083e9   Thumb Code   262  pbuf.o(.text)
    pbuf_copy_partial                        0x1a0084ef   Thumb Code   136  pbuf.o(.text)
    pbuf_take                                0x1a008577   Thumb Code   154  pbuf.o(.text)
    pbuf_coalesce                            0x1a008611   Thumb Code    64  pbuf.o(.text)
    pbuf_fill_chksum                         0x1a008651   Thumb Code   152  pbuf.o(.text)
    pbuf_get_at                              0x1a0086e9   Thumb Code    24  pbuf.o(.text)
    pbuf_memcmp                              0x1a008701   Thumb Code    68  pbuf.o(.text)
    pbuf_memfind                             0x1a008745   Thumb Code    56  pbuf.o(.text)
    pbuf_strstr                              0x1a00877d   Thumb Code    50  pbuf.o(.text)
    raw_input                                0x1a0087b1   Thumb Code   128  raw.o(.text)
    raw_bind                                 0x1a008831   Thumb Code    10  raw.o(.text)
    raw_connect                              0x1a00883b   Thumb Code    10  raw.o(.text)
    raw_recv                                 0x1a008845   Thumb Code     6  raw.o(.text)
    raw_sendto                               0x1a00884b   Thumb Code   198  raw.o(.text)
    raw_send                                 0x1a008911   Thumb Code     4  raw.o(.text)
    raw_remove                               0x1a008915   Thumb Code    36  raw.o(.text)
    raw_new                                  0x1a008939   Thumb Code    40  raw.o(.text)
    tcp_init                                 0x1a008971   Thumb Code     2  tcp.o(.text)
    tcp_seg_free                             0x1a008973   Thumb Code    26  tcp.o(.text)
    tcp_segs_free                            0x1a00898d   Thumb Code    18  tcp.o(.text)
    tcp_pcb_purge                            0x1a00899f   Thumb Code    66  tcp.o(.text)
    tcp_slowtmr                              0x1a0089e1   Thumb Code   822  tcp.o(.text)
    tcp_pcb_remove                           0x1a008d17   Thumb Code   150  tcp.o(.text)
    tcp_close                                0x1a008eeb   Thumb Code    18  tcp.o(.text)
    tcp_update_rcv_ann_wnd                   0x1a008efd   Thumb Code    78  tcp.o(.text)
    tcp_recved                               0x1a008f4b   Thumb Code   110  tcp.o(.text)
    tcp_recv_null                            0x1a008fb9   Thumb Code    34  tcp.o(.text)
    tcp_process_refused_data                 0x1a008fdb   Thumb Code   104  tcp.o(.text)
    tcp_fasttmr                              0x1a009043   Thumb Code    88  tcp.o(.text)
    tcp_tmr                                  0x1a00909b   Thumb Code    28  tcp.o(.text)
    tcp_shutdown                             0x1a0090b7   Thumb Code    76  tcp.o(.text)
    tcp_abandon                              0x1a009103   Thumb Code   166  tcp.o(.text)
    tcp_abort                                0x1a0091a9   Thumb Code     4  tcp.o(.text)
    tcp_bind                                 0x1a009201   Thumb Code   144  tcp.o(.text)
    tcp_listen_with_backlog                  0x1a009297   Thumb Code   142  tcp.o(.text)
    tcp_eff_send_mss                         0x1a009325   Thumb Code    32  tcp.o(.text)
    tcp_next_iss                             0x1a009345   Thumb Code    12  tcp.o(.text)
    tcp_connect                              0x1a009351   Thumb Code   260  tcp.o(.text)
    tcp_setprio                              0x1a009455   Thumb Code     4  tcp.o(.text)
    tcp_seg_copy                             0x1a009459   Thumb Code    38  tcp.o(.text)
    tcp_alloc                                0x1a00947f   Thumb Code   242  tcp.o(.text)
    tcp_new                                  0x1a009571   Thumb Code     4  tcp.o(.text)
    tcp_arg                                  0x1a009575   Thumb Code     4  tcp.o(.text)
    tcp_recv                                 0x1a009579   Thumb Code    36  tcp.o(.text)
    tcp_sent                                 0x1a00959d   Thumb Code    34  tcp.o(.text)
    tcp_err                                  0x1a0095bf   Thumb Code    36  tcp.o(.text)
    tcp_accept                               0x1a0095e3   Thumb Code     4  tcp.o(.text)
    tcp_poll                                 0x1a0095e7   Thumb Code    42  tcp.o(.text)
    tcp_debug_state_str                      0x1a009611   Thumb Code     8  tcp.o(.text)
    tcp_input                                0x1a00a40d   Thumb Code   976  tcp_in.o(.text)
    tcp_enqueue_flags                        0x1a00a995   Thumb Code   298  tcp_out.o(.text)
    tcp_send_fin                             0x1a00aabf   Thumb Code    68  tcp_out.o(.text)
    tcp_write                                0x1a00ab65   Thumb Code  1144  tcp_out.o(.text)
    tcp_send_empty_ack                       0x1a00afdd   Thumb Code    92  tcp_out.o(.text)
    tcp_output                               0x1a00b149   Thumb Code   434  tcp_out.o(.text)
    tcp_rst                                  0x1a00b2fb   Thumb Code   160  tcp_out.o(.text)
    tcp_rexmit_rto                           0x1a00b39b   Thumb Code    44  tcp_out.o(.text)
    tcp_rexmit                               0x1a00b3c7   Thumb Code    82  tcp_out.o(.text)
    tcp_rexmit_fast                          0x1a00b419   Thumb Code    88  tcp_out.o(.text)
    tcp_keepalive                            0x1a00b471   Thumb Code    90  tcp_out.o(.text)
    tcp_zero_window_probe                    0x1a00b4cb   Thumb Code   164  tcp_out.o(.text)
    sys_timeout                              0x1a00b605   Thumb Code   106  timers.o(.text)
    tcp_timer_needed                         0x1a00b695   Thumb Code    34  timers.o(.text)
    sys_timeouts_init                        0x1a00b707   Thumb Code    52  timers.o(.text)
    sys_untimeout                            0x1a00b73b   Thumb Code    66  timers.o(.text)
    sys_timeouts_mbox_fetch                  0x1a00b77d   Thumb Code    96  timers.o(.text)
    udp_init                                 0x1a00b801   Thumb Code     2  udp.o(.text)
    udp_input                                0x1a00b803   Thumb Code   432  udp.o(.text)
    udp_bind                                 0x1a00b9b3   Thumb Code   190  udp.o(.text)
    udp_sendto_if_chksum                     0x1a00ba71   Thumb Code   310  udp.o(.text)
    udp_sendto_chksum                        0x1a00bba7   Thumb Code    52  udp.o(.text)
    udp_sendto                               0x1a00bbdb   Thumb Code    14  udp.o(.text)
    udp_send                                 0x1a00bbe9   Thumb Code     6  udp.o(.text)
    udp_send_chksum                          0x1a00bbef   Thumb Code    16  udp.o(.text)
    udp_sendto_if                            0x1a00bbff   Thumb Code    30  udp.o(.text)
    udp_connect                              0x1a00bc1d   Thumb Code    70  udp.o(.text)
    udp_disconnect                           0x1a00bc63   Thumb Code    16  udp.o(.text)
    udp_recv                                 0x1a00bc73   Thumb Code     6  udp.o(.text)
    udp_remove                               0x1a00bc79   Thumb Code    36  udp.o(.text)
    udp_new                                  0x1a00bc9d   Thumb Code    28  udp.o(.text)
    icmp_input                               0x1a00bcc1   Thumb Code   356  icmp.o(.text)
    icmp_dest_unreach                        0x1a00bea1   Thumb Code     6  icmp.o(.text)
    icmp_time_exceeded                       0x1a00bea7   Thumb Code     6  icmp.o(.text)
    inet_chksum_pseudo                       0x1a00bef1   Thumb Code   136  inet_chksum.o(.text)
    inet_chksum_pseudo_partial               0x1a00bf79   Thumb Code   182  inet_chksum.o(.text)
    inet_chksum                              0x1a00c02f   Thumb Code    12  inet_chksum.o(.text)
    inet_chksum_pbuf                         0x1a00c03b   Thumb Code    72  inet_chksum.o(.text)
    lwip_chksum_copy                         0x1a00c083   Thumb Code    20  inet_chksum.o(.text)
    ip_route                                 0x1a00c099   Thumb Code    54  ip.o(.text)
    ip_input                                 0x1a00c0cf   Thumb Code   378  ip.o(.text)
    ip_output_if                             0x1a00c249   Thumb Code   280  ip.o(.text)
    ip_output                                0x1a00c361   Thumb Code    76  ip.o(.text)
    ip4_addr_isbroadcast                     0x1a00c3b9   Thumb Code    46  ip_addr.o(.text)
    ip4_addr_netmask_valid                   0x1a00c3e7   Thumb Code    38  ip_addr.o(.text)
    ipaddr_aton                              0x1a00c40d   Thumb Code   266  ip_addr.o(.text)
    ipaddr_addr                              0x1a00c517   Thumb Code    20  ip_addr.o(.text)
    ipaddr_ntoa_r                            0x1a00c52b   Thumb Code   118  ip_addr.o(.text)
    ipaddr_ntoa                              0x1a00c5a1   Thumb Code     6  ip_addr.o(.text)
    ip_reass_tmr                             0x1a00c6c1   Thumb Code    40  ip_frag.o(.text)
    ip_reass                                 0x1a00c8b9   Thumb Code   422  ip_frag.o(.text)
    ip_frag                                  0x1a00ca9f   Thumb Code   380  ip_frag.o(.text)
    etharp_tmr                               0x1a00cc65   Thumb Code    66  etharp.o(.text)
    etharp_cleanup_netif                     0x1a00cee1   Thumb Code    42  etharp.o(.text)
    etharp_find_addr                         0x1a00cf0b   Thumb Code    76  etharp.o(.text)
    etharp_request                           0x1a00d05f   Thumb Code    32  etharp.o(.text)
    etharp_query                             0x1a00d0d5   Thumb Code   290  etharp.o(.text)
    etharp_output                            0x1a00d1f7   Thumb Code   296  etharp.o(.text)
    ethernet_input                           0x1a00d31f   Thumb Code   160  etharp.o(.text)
    lpc_rx_queue                             0x1a00d503   Thumb Code    78  lpc18xx_43xx_emac.o(.text)
    lpc_tx_ready                             0x1a00d551   Thumb Code     8  lpc18xx_43xx_emac.o(.text)
    lpc_enetif_input                         0x1a00d63d   Thumb Code    58  lpc18xx_43xx_emac.o(.text)
    lpc_tx_reclaim                           0x1a00d69f   Thumb Code   116  lpc18xx_43xx_emac.o(.text)
    ETH_IRQHandler                           0x1a00d8c3   Thumb Code    50  lpc18xx_43xx_emac.o(.text)
    lpc_emac_set_duplex                      0x1a00d8f5   Thumb Code    22  lpc18xx_43xx_emac.o(.text)
    lpc_emac_set_speed                       0x1a00d90b   Thumb Code    22  lpc18xx_43xx_emac.o(.text)
    lpc_enetif_init                          0x1a00d921   Thumb Code   350  lpc18xx_43xx_emac.o(.text)
    sys_now                                  0x1a00db49   Thumb Code     6  sys_arch.o(.text)
    sys_arch_protect                         0x1a00db4f   Thumb Code    16  sys_arch.o(.text)
    sys_arch_unprotect                       0x1a00db5f   Thumb Code     6  sys_arch.o(.text)
    sys_init                                 0x1a00db65   Thumb Code    34  sys_arch.o(.text)
    port_malloc                              0x1a00db87   Thumb Code    38  sys_arch.o(.text)
    port_free                                0x1a00dbad   Thumb Code    10  sys_arch.o(.text)
    port_calloc                              0x1a00dbb7   Thumb Code    32  sys_arch.o(.text)
    sys_sem_new                              0x1a00dbd7   Thumb Code    70  sys_arch.o(.text)
    sys_sem_free                             0x1a00dc1d   Thumb Code    48  sys_arch.o(.text)
    sys_arch_sem_wait                        0x1a00dc4d   Thumb Code   144  sys_arch.o(.text)
    sys_sem_signal                           0x1a00dcdd   Thumb Code    58  sys_arch.o(.text)
    sys_thread_new                           0x1a00dd17   Thumb Code   144  sys_arch.o(.text)
    sys_mbox_new                             0x1a00dda7   Thumb Code   156  sys_arch.o(.text)
    sys_mbox_free                            0x1a00de43   Thumb Code    56  sys_arch.o(.text)
    sys_mbox_post                            0x1a00de7b   Thumb Code    66  sys_arch.o(.text)
    sys_mbox_trypost                         0x1a00debd   Thumb Code    76  sys_arch.o(.text)
    sys_arch_mbox_fetch                      0x1a00df09   Thumb Code   222  sys_arch.o(.text)
    sys_arch_mbox_tryfetch                   0x1a00dfe7   Thumb Code    86  sys_arch.o(.text)
    mac_reset                                0x1a00e041   Thumb Code    42  lwip_emac.o(.text)
    phy_reset                                0x1a00e09d   Thumb Code   180  lwip_emac.o(.text)
    ethIsLink                                0x1a00e151   Thumb Code    20  lwip_emac.o(.text)
    Board_UARTPutChar                        0x1a00e199   Thumb Code    26  board.o(.text)
    _sys_open                                0x1a00e1b3   Thumb Code     6  board.o(.text)
    fputc                                    0x1a00e1b9   Thumb Code    20  board.o(.text)
    Board_UARTGetChar                        0x1a00e1cd   Thumb Code    28  board.o(.text)
    fgetc                                    0x1a00e1e9   Thumb Code    10  board.o(.text)
    ferror                                   0x1a00e1f3   Thumb Code     8  board.o(.text)
    _sys_exit                                0x1a00e1fb   Thumb Code     6  board.o(.text)
    Board_UART_Init                          0x1a00e39b   Thumb Code    88  board.o(.text)
    Board_Debug_Init                         0x1a00e3f3   Thumb Code    42  board.o(.text)
    Board_UARTPutSTR                         0x1a00e41d   Thumb Code    22  board.o(.text)
    Board_LED_Set                            0x1a00e44f   Thumb Code    28  board.o(.text)
    Board_LED_Test                           0x1a00e46b   Thumb Code    28  board.o(.text)
    Board_LED_Toggle                         0x1a00e487   Thumb Code    24  board.o(.text)
    Board_ENET_GetMacADDR                    0x1a00e49f   Thumb Code    22  board.o(.text)
    Board_Init                               0x1a00e4b5   Thumb Code    66  board.o(.text)
    Board_ADC_Init                           0x1a00e4f7   Thumb Code     2  board.o(.text)
    Board_I2C_Init                           0x1a00e4f9   Thumb Code    44  board.o(.text)
    Board_Audio_Init                         0x1a00e525   Thumb Code    52  board.o(.text)
    Board_InitLCDController                  0x1a00e559   Thumb Code   660  board.o(.text)
    Board_LCD_Init                           0x1a00e7ed   Thumb Code    36  board.o(.text)
    Board_InitTouchController                0x1a00e811   Thumb Code   202  board.o(.text)
    Board_I2C_GetTouchPos                    0x1a00e8db   Thumb Code   196  board.o(.text)
    Board_GetTouchPos                        0x1a00e99f   Thumb Code    60  board.o(.text)
    Board_SetLCDBacklight                    0x1a00e9db   Thumb Code    28  board.o(.text)
    Board_SDMMC_Init                         0x1a00e9f7   Thumb Code    74  board.o(.text)
    Board_SSP_Init                           0x1a00ea41   Thumb Code   106  board.o(.text)
    Board_Buttons_Init                       0x1a00eaab   Thumb Code    24  board.o(.text)
    Board_Joystick_Init                      0x1a00eac3   Thumb Code   104  board.o(.text)
    Joystick_GetStatus                       0x1a00eb2b   Thumb Code    96  board.o(.text)
    Buttons_GetStatus                        0x1a00eb8b   Thumb Code    24  board.o(.text)
    Board_DAC_Init                           0x1a00eba3   Thumb Code    18  board.o(.text)
    Board_SetupMuxing                        0x1a00ec6d   Thumb Code    58  board_sysinit.o(.text)
    Board_SetupExtMemory                     0x1a00eca7   Thumb Code    82  board_sysinit.o(.text)
    Board_SetupClocking                      0x1a00ecf9   Thumb Code   160  board_sysinit.o(.text)
    Board_SystemInit                         0x1a00ed99   Thumb Code    12  board_sysinit.o(.text)
    lpc_phy_init                             0x1a00eeeb   Thumb Code   128  lpc_phy_dp83848.o(.text)
    lpcPHYStsPoll                            0x1a00ef6b   Thumb Code   106  lpc_phy_dp83848.o(.text)
    UDA1380_REG_VerifyMult                   0x1a00efe9   Thumb Code    72  uda1380.o(.text)
    UDA1380_REG_WriteMult                    0x1a00f031   Thumb Code    30  uda1380.o(.text)
    UDA1380_REG_Write                        0x1a00f073   Thumb Code    36  uda1380.o(.text)
    UDA1380_REG_Read                         0x1a00f097   Thumb Code    42  uda1380.o(.text)
    UDA1380_REG_WriteVerify                  0x1a00f0c1   Thumb Code    34  uda1380.o(.text)
    UDA1380_Init                             0x1a00f0e3   Thumb Code   118  uda1380.o(.text)
    __aeabi_uldivmod                         0x1a00f16d   Thumb Code     0  lludivv7m.o(.text)
    _ll_udiv                                 0x1a00f16d   Thumb Code   238  lludivv7m.o(.text)
    __2printf                                0x1a00f25d   Thumb Code    20  noretval__2printf.o(.text)
    __printf                                 0x1a00f275   Thumb Code   104  __printf.o(.text)
    _printf_int_dec                          0x1a00f2dd   Thumb Code   104  _printf_dec.o(.text)
    _printf_int_hex                          0x1a00f355   Thumb Code    84  _printf_hex_int.o(.text)
    _printf_longlong_hex                     0x1a00f355   Thumb Code     0  _printf_hex_int.o(.text)
    memcmp                                   0x1a00f3ad   Thumb Code    88  memcmp.o(.text)
    strlen                                   0x1a00f405   Thumb Code    62  strlen.o(.text)
    __aeabi_memcpy                           0x1a00f443   Thumb Code     0  rt_memcpy_v6.o(.text)
    __rt_memcpy                              0x1a00f443   Thumb Code   138  rt_memcpy_v6.o(.text)
    _memcpy_lastbytes                        0x1a00f4a9   Thumb Code     0  rt_memcpy_v6.o(.text)
    __aeabi_memcpy4                          0x1a00f4cd   Thumb Code     0  rt_memcpy_w.o(.text)
    __aeabi_memcpy8                          0x1a00f4cd   Thumb Code     0  rt_memcpy_w.o(.text)
    __rt_memcpy_w                            0x1a00f4cd   Thumb Code   100  rt_memcpy_w.o(.text)
    _memcpy_lastbytes_aligned                0x1a00f515   Thumb Code     0  rt_memcpy_w.o(.text)
    __aeabi_memclr4                          0x1a00f531   Thumb Code     0  rt_memclr_w.o(.text)
    __aeabi_memclr8                          0x1a00f531   Thumb Code     0  rt_memclr_w.o(.text)
    __rt_memclr_w                            0x1a00f531   Thumb Code    78  rt_memclr_w.o(.text)
    _memset_w                                0x1a00f535   Thumb Code     0  rt_memclr_w.o(.text)
    __use_two_region_memory                  0x1a00f57f   Thumb Code     2  heapauxi.o(.text)
    __rt_heap_escrow$2region                 0x1a00f581   Thumb Code     2  heapauxi.o(.text)
    __rt_heap_expand$2region                 0x1a00f583   Thumb Code     2  heapauxi.o(.text)
    _printf_int_common                       0x1a00f585   Thumb Code   178  _printf_intcommon.o(.text)
    _printf_char_file                        0x1a00f639   Thumb Code    32  _printf_char_file.o(.text)
    _printf_char_common                      0x1a00f667   Thumb Code    32  _printf_char_common.o(.text)
    __user_setup_stackheap                   0x1a00f68d   Thumb Code    74  sys_stackheap_outer.o(.text)
    exit                                     0x1a00f6d7   Thumb Code    18  exit.o(.text)
    __user_libspace                          0x1a00f6e9   Thumb Code     8  libspace.o(.text)
    __user_perproc_libspace                  0x1a00f6e9   Thumb Code     0  libspace.o(.text)
    __user_perthread_libspace                0x1a00f6e9   Thumb Code     0  libspace.o(.text)
    Chip_Clock_Enable                        0x1a00f6f1   Thumb Code    46  clock_18xx_43xx.o(i.Chip_Clock_Enable)
    Chip_Clock_EnableOpts                    0x1a00f729   Thumb Code    52  clock_18xx_43xx.o(i.Chip_Clock_EnableOpts)
    Chip_Clock_GetBaseClock                  0x1a00f7b5   Thumb Code    32  clock_18xx_43xx.o(i.Chip_Clock_GetBaseClock)
    Chip_Clock_GetBaseClocktHz               0x1a00f7d9   Thumb Code    18  clock_18xx_43xx.o(i.Chip_Clock_GetBaseClocktHz)
    Chip_Clock_GetClockInputHz               0x1a00f7ed   Thumb Code   182  clock_18xx_43xx.o(i.Chip_Clock_GetClockInputHz)
    Chip_Clock_GetDividerDivisor             0x1a00f8e9   Thumb Code    18  clock_18xx_43xx.o(i.Chip_Clock_GetDividerDivisor)
    Chip_Clock_GetDividerSource              0x1a00f909   Thumb Code    26  clock_18xx_43xx.o(i.Chip_Clock_GetDividerSource)
    Chip_Clock_GetEMCRate                    0x1a00f929   Thumb Code    38  clock_18xx_43xx.o(i.Chip_Clock_GetEMCRate)
    Chip_Clock_GetMainPLLHz                  0x1a00f959   Thumb Code   110  clock_18xx_43xx.o(i.Chip_Clock_GetMainPLLHz)
    Chip_Clock_GetRate                       0x1a00f9d1   Thumb Code    78  clock_18xx_43xx.o(i.Chip_Clock_GetRate)
    Chip_Clock_SetBaseClock                  0x1a00fa29   Thumb Code    64  clock_18xx_43xx.o(i.Chip_Clock_SetBaseClock)
    Chip_Clock_SetDivider                    0x1a00fa71   Thumb Code    64  clock_18xx_43xx.o(i.Chip_Clock_SetDivider)
    Chip_EMC_Dynamic_Init                    0x1a00fac1   Thumb Code    22  emc_18xx_43xx.o(i.Chip_EMC_Dynamic_Init)
    Chip_EMC_Init                            0x1a00fadd   Thumb Code    40  emc_18xx_43xx.o(i.Chip_EMC_Init)
    Chip_EMC_Static_Init                     0x1a00fb09   Thumb Code    22  emc_18xx_43xx.o(i.Chip_EMC_Static_Init)
    Chip_ENET_StartMIIRead                   0x1a00fb25   Thumb Code    20  enet_18xx_43xx.o(i.Chip_ENET_StartMIIRead)
    Chip_ENET_StartMIIWrite                  0x1a00fb3d   Thumb Code    26  enet_18xx_43xx.o(i.Chip_ENET_StartMIIWrite)
    Chip_GPIO_Init                           0x1a00fb5d   Thumb Code     2  gpio_18xx_43xx.o(i.Chip_GPIO_Init)
    Chip_I2C_EventHandler                    0x1a00fb61   Thumb Code    36  i2c_18xx_43xx.o(i.Chip_I2C_EventHandler)
    Chip_I2C_EventHandlerPolling             0x1a00fb89   Thumb Code    58  i2c_18xx_43xx.o(i.Chip_I2C_EventHandlerPolling)
    Chip_I2C_GetMasterEventHandler           0x1a00fbc9   Thumb Code    16  i2c_18xx_43xx.o(i.Chip_I2C_GetMasterEventHandler)
    Chip_I2C_Init                            0x1a00fbdd   Thumb Code    40  i2c_18xx_43xx.o(i.Chip_I2C_Init)
    Chip_I2C_IsStateChanged                  0x1a00fc09   Thumb Code    20  i2c_18xx_43xx.o(i.Chip_I2C_IsStateChanged)
    Chip_I2C_MasterCmdRead                   0x1a00fc21   Thumb Code    58  i2c_18xx_43xx.o(i.Chip_I2C_MasterCmdRead)
    Chip_I2C_MasterSend                      0x1a00fc5b   Thumb Code    50  i2c_18xx_43xx.o(i.Chip_I2C_MasterSend)
    Chip_I2C_MasterStateHandler              0x1a00fc8d   Thumb Code    50  i2c_18xx_43xx.o(i.Chip_I2C_MasterStateHandler)
    Chip_I2C_MasterTransfer                  0x1a00fcc5   Thumb Code   102  i2c_18xx_43xx.o(i.Chip_I2C_MasterTransfer)
    Chip_I2C_SetClockRate                    0x1a00fd31   Thumb Code    56  i2c_18xx_43xx.o(i.Chip_I2C_SetClockRate)
    Chip_I2C_SetMasterEventHandler           0x1a00fd6d   Thumb Code    34  i2c_18xx_43xx.o(i.Chip_I2C_SetMasterEventHandler)
    Chip_I2S_Init                            0x1a00fd95   Thumb Code    12  i2s_18xx_43xx.o(i.Chip_I2S_Init)
    Chip_I2S_TxConfig                        0x1a00fda1   Thumb Code   122  i2s_18xx_43xx.o(i.Chip_I2S_TxConfig)
    Chip_RGU_InReset                         0x1a00fe1d   Thumb Code    52  rgu_18xx_43xx.o(i.Chip_RGU_InReset)
    Chip_RGU_TriggerReset                    0x1a00fe55   Thumb Code    38  rgu_18xx_43xx.o(i.Chip_RGU_TriggerReset)
    Chip_SSP_Init                            0x1a00feb9   Thumb Code    56  ssp_18xx_43xx.o(i.Chip_SSP_Init)
    Chip_SSP_SetBitRate                      0x1a00ff03   Thumb Code    70  ssp_18xx_43xx.o(i.Chip_SSP_SetBitRate)
    Chip_SSP_SetClockRate                    0x1a00ff49   Thumb Code    20  ssp_18xx_43xx.o(i.Chip_SSP_SetClockRate)
    Chip_SSP_SetMaster                       0x1a00ff5d   Thumb Code    28  ssp_18xx_43xx.o(i.Chip_SSP_SetMaster)
    Chip_SSP_WriteFrames_Blocking            0x1a00ff85   Thumb Code   234  ssp_18xx_43xx.o(i.Chip_SSP_WriteFrames_Blocking)
    Chip_SetupCoreClock                      0x1a01006f   Thumb Code    14  sysinit_18xx_43xx.o(i.Chip_SetupCoreClock)
    Chip_UART_Init                           0x1a0100c1   Thumb Code    72  uart_18xx_43xx.o(i.Chip_UART_Init)
    Chip_UART_SetBaud                        0x1a01010d   Thumb Code    66  uart_18xx_43xx.o(i.Chip_UART_SetBaud)
    SystemCoreClockUpdate                    0x1a010155   Thumb Code    14  chip_18xx_43xx.o(i.SystemCoreClockUpdate)
    fpuInit                                  0x1a010281   Thumb Code    62  fpu_init.o(i.fpuInit)
    handleMasterXferState                    0x1a010483   Thumb Code   224  i2c_18xx_43xx.o(i.handleMasterXferState)
    initDynMem                               0x1a010563   Thumb Code   488  emc_18xx_43xx.o(i.initDynMem)
    initStaticMem                            0x1a01074b   Thumb Code   104  emc_18xx_43xx.o(i.initStaticMem)
    _fp_init                                 0x1a0107bd   Thumb Code    10  fpinit.o(x$fpl$fpinit)
    __fplib_config_fpu_vfp                   0x1a0107c5   Thumb Code     0  fpinit.o(x$fpl$fpinit)
    __fplib_config_pureend_doubles           0x1a0107c5   Thumb Code     0  fpinit.o(x$fpl$fpinit)
    memp_sizes                               0x1a010a08   Data          28  memp.o(.constdata)
    tcp_persist_backoff                      0x1a010a24   Data           7  tcp.o(.constdata)
    tcp_state_str                            0x1a010a2c   Data          44  tcp.o(.constdata)
    tcp_backoff                              0x1a010a58   Data          13  tcp.o(.constdata)
    tcp_pcb_lists                            0x1a010a68   Data          16  tcp.o(.constdata)
    ip_addr_any                              0x1a010a78   Data           4  ip_addr.o(.constdata)
    ip_addr_broadcast                        0x1a010a7c   Data           4  ip_addr.o(.constdata)
    ethbroadcast                             0x1a010a80   Data           6  etharp.o(.constdata)
    ethzero                                  0x1a010a86   Data           6  etharp.o(.constdata)
    ad_left                                  0x1a010a9c   Data           4  board.o(.constdata)
    ad_top                                   0x1a010aa0   Data           4  board.o(.constdata)
    ad_right                                 0x1a010aa4   Data           4  board.o(.constdata)
    ad_bottom                                0x1a010aa8   Data           4  board.o(.constdata)
    MCB4300_LCD                              0x1a010aac   Data          22  board.o(.constdata)
    ExtRateIn                                0x1a010ac4   Data           4  board.o(.constdata)
    OscRateIn                                0x1a010ac8   Data           4  board.o(.constdata)
    Region$$Table$$Base                      0x1a010efc   Number         0  anon$$obj.o(Region$$Table)
    Region$$Table$$Limit                     0x1a010f3c   Number         0  anon$$obj.o(Region$$Table)
    pbuf_free_ooseq_pending                  0x20000018   Data           1  pbuf.o(.data)
    tcp_active_pcbs_changed                  0x2000001c   Data           1  tcp.o(.data)
    tcp_ticks                                0x20000028   Data           4  tcp.o(.data)
    tcp_bound_pcbs                           0x2000002c   Data           4  tcp.o(.data)
    tcp_listen_pcbs                          0x20000030   Data           4  tcp.o(.data)
    tcp_active_pcbs                          0x20000034   Data           4  tcp.o(.data)
    tcp_tw_pcbs                              0x20000038   Data           4  tcp.o(.data)
    tcp_tmp_pcb                              0x2000003c   Data           4  tcp.o(.data)
    tcp_input_pcb                            0x20000058   Data           4  tcp_in.o(.data)
    udp_pcbs                                 0x20000060   Data           4  udp.o(.data)
    __stdout                                 0x2000006c   Data           4  board.o(.data)
    __stdin                                  0x20000070   Data           4  board.o(.data)
    __stderr                                 0x20000074   Data           4  board.o(.data)
    g_isPenDn                                0x20000078   Data           4  board.o(.data)
    g_isNewPenDn                             0x2000007c   Data           4  board.o(.data)
    SystemCoreClock                          0x20000090   Data           4  chip_18xx_43xx.o(.data)
    raw_ready_queue                          0x200000d8   Data         508  raw-os.o(.bss)
    raw_idle_obj                             0x200002d8   Data         144  raw-os.o(.bss)
    idle_stack                               0x20000368   Data         320  raw-os.o(.bss)
    tick_head                                0x200004a8   Data          64  raw-os.o(.bss)
    raw_timer_obj                            0x200004e8   Data         144  raw-os.o(.bss)
    timer_task_stack                         0x20000578   Data        1024  raw-os.o(.bss)
    timer_sem                                0x20000978   Data          36  raw-os.o(.bss)
    timer_mutex                              0x2000099c   Data          40  raw-os.o(.bss)
    raw_task_debug                           0x200009c4   Data          56  raw-os.o(.bss)
    tick_task_obj                            0x20000a00   Data         144  raw-os.o(.bss)
    tick_task_stack                          0x20000a90   Data        1024  raw-os.o(.bss)
    tick_semaphore_obj                       0x20000e90   Data          36  raw-os.o(.bss)
    shell_task_stack                         0x20000eb8   Data        1600  main.o(.bss)
    shell_task_obj                           0x200014f8   Data         144  main.o(.bss)
    uart_sema                                0x20001588   Data          36  main.o(.bss)
    uart_fifo                                0x200015ac   Data          24  main.o(.bss)
    tftp_client_netif                        0x20001644   Data          56  main.o(.bss)
    __libspace_start                         0x20001908   Data          96  libspace.o(.bss)
    __temporary_stack_top$libspace           0x20001968   Data           0  libspace.o(.bss)



==============================================================================

Memory Map of the image

  Image Entry point : 0x1a000115

  Load Region LR_IROM1 (Base: 0x1a000000, Size: 0x00011094, Max: 0x00080000, ABSOLUTE)

    Execution Region RW_IRAM1 (Base: 0x10000000, Size: 0x00001960, Max: 0x00008000, ABSOLUTE)

    Base Addr    Size         Type   Attr      Idx    E Section Name        Object

    0x10000000   0x00000038   Data   RW            3    .data               raw-os.o
    0x10000038   0x00000004   Data   RW          271    .data               port.o
    0x1000003c   0x0000000c   Data   RW          633    .data               main.o
    0x10000048   0x0000000c   Data   RW         1203    .data               netif.o
    0x10000054   0x00000004   Data   RW         1271    .data               raw.o
    0x10000058   0x00000008   Data   RW         1366    .data               timers.o
    0x10000060   0x00000014   Data   RW         1518    .data               ip.o
    0x10000074   0x00000008   Data   RW         1577    .data               ip_frag.o
    0x1000007c   0x00000004   Data   RW         1684    .data               sys_arch.o
    0x10000080   0x00000004   Data   RW         2837    .data               lib_lpc_chip_43xx.lib(enet_18xx_43xx.o)
    0x10000084   0x00001010   Zero   RW          800    .bss                client.o
    0x10001094   0x00000060   Zero   RW          972    .bss                sockets.o
    0x100010f4   0x00000032   Zero   RW         1070    .bss                dhcp.o
    0x10001126   0x00000002   PAD
    0x10001128   0x00000014   Zero   RW         1331    .bss                tcp_in.o
    0x1000113c   0x00000010   Zero   RW         1553    .bss                ip_addr.o
    0x1000114c   0x000000c8   Zero   RW         1597    .bss                etharp.o
    0x10001214   0x00000048   Zero   RW         1683    .bss                sys_arch.o
    0x1000125c   0x00000004   PAD
    0x10001260   0x00000100   Zero   RW          340    HEAP                keil_startup_lpc18xx43xx.o
    0x10001360   0x00000600   Zero   RW          339    STACK               keil_startup_lpc18xx43xx.o


    Execution Region ER_IROM1 (Base: 0x1a000000, Size: 0x00010f3c, Max: 0x00080000, ABSOLUTE)

    Base Addr    Size         Type   Attr      Idx    E Section Name        Object

    0x1a000000   0x00000114   Data   RO          341    RESET               keil_startup_lpc18xx43xx.o
    0x1a000114   0x00000008   Code   RO         3498  * !!!main             c_w.l(__main.o)
    0x1a00011c   0x00000034   Code   RO         3674    !!!scatter          c_w.l(__scatter.o)
    0x1a000150   0x0000005a   Code   RO         3672    !!dczerorl2         c_w.l(__dczerorl2.o)
    0x1a0001aa   0x00000002   PAD
    0x1a0001ac   0x0000001a   Code   RO         3676    !!handler_copy      c_w.l(__scatter_copy.o)
    0x1a0001c6   0x00000002   PAD
    0x1a0001c8   0x0000001c   Code   RO         3678    !!handler_zi        c_w.l(__scatter_zi.o)
    0x1a0001e4   0x00000000   Code   RO         3485    .ARM.Collect$$_printf_percent$$00000000  c_w.l(_printf_percent.o)
    0x1a0001e4   0x00000006   Code   RO         3484    .ARM.Collect$$_printf_percent$$00000009  c_w.l(_printf_d.o)
    0x1a0001ea   0x00000006   Code   RO         3483    .ARM.Collect$$_printf_percent$$0000000C  c_w.l(_printf_x.o)
    0x1a0001f0   0x00000004   Code   RO         3509    .ARM.Collect$$_printf_percent$$00000017  c_w.l(_printf_percent_end.o)
    0x1a0001f4   0x00000002   Code   RO         3544    .ARM.Collect$$libinit$$00000000  c_w.l(libinit.o)
    0x1a0001f6   0x00000004   Code   RO         3556    .ARM.Collect$$libinit$$00000001  c_w.l(libinit2.o)
    0x1a0001fa   0x00000000   Code   RO         3559    .ARM.Collect$$libinit$$00000004  c_w.l(libinit2.o)
    0x1a0001fa   0x00000000   Code   RO         3562    .ARM.Collect$$libinit$$0000000A  c_w.l(libinit2.o)
    0x1a0001fa   0x00000000   Code   RO         3564    .ARM.Collect$$libinit$$0000000C  c_w.l(libinit2.o)
    0x1a0001fa   0x00000000   Code   RO         3566    .ARM.Collect$$libinit$$0000000E  c_w.l(libinit2.o)
    0x1a0001fa   0x00000000   Code   RO         3569    .ARM.Collect$$libinit$$00000011  c_w.l(libinit2.o)
    0x1a0001fa   0x00000000   Code   RO         3571    .ARM.Collect$$libinit$$00000013  c_w.l(libinit2.o)
    0x1a0001fa   0x00000000   Code   RO         3573    .ARM.Collect$$libinit$$00000015  c_w.l(libinit2.o)
    0x1a0001fa   0x00000000   Code   RO         3575    .ARM.Collect$$libinit$$00000017  c_w.l(libinit2.o)
    0x1a0001fa   0x00000000   Code   RO         3577    .ARM.Collect$$libinit$$00000019  c_w.l(libinit2.o)
    0x1a0001fa   0x00000000   Code   RO         3579    .ARM.Collect$$libinit$$0000001B  c_w.l(libinit2.o)
    0x1a0001fa   0x00000000   Code   RO         3581    .ARM.Collect$$libinit$$0000001D  c_w.l(libinit2.o)
    0x1a0001fa   0x00000000   Code   RO         3583    .ARM.Collect$$libinit$$0000001F  c_w.l(libinit2.o)
    0x1a0001fa   0x00000000   Code   RO         3585    .ARM.Collect$$libinit$$00000021  c_w.l(libinit2.o)
    0x1a0001fa   0x00000000   Code   RO         3587    .ARM.Collect$$libinit$$00000023  c_w.l(libinit2.o)
    0x1a0001fa   0x00000000   Code   RO         3589    .ARM.Collect$$libinit$$00000025  c_w.l(libinit2.o)
    0x1a0001fa   0x00000000   Code   RO         3593    .ARM.Collect$$libinit$$0000002C  c_w.l(libinit2.o)
    0x1a0001fa   0x00000000   Code   RO         3595    .ARM.Collect$$libinit$$0000002E  c_w.l(libinit2.o)
    0x1a0001fa   0x00000000   Code   RO         3597    .ARM.Collect$$libinit$$00000030  c_w.l(libinit2.o)
    0x1a0001fa   0x00000000   Code   RO         3599    .ARM.Collect$$libinit$$00000032  c_w.l(libinit2.o)
    0x1a0001fa   0x00000002   Code   RO         3600    .ARM.Collect$$libinit$$00000033  c_w.l(libinit2.o)
    0x1a0001fc   0x00000002   Code   RO         3626    .ARM.Collect$$libshutdown$$00000000  c_w.l(libshutdown.o)
    0x1a0001fe   0x00000000   Code   RO         3655    .ARM.Collect$$libshutdown$$00000002  c_w.l(libshutdown2.o)
    0x1a0001fe   0x00000000   Code   RO         3657    .ARM.Collect$$libshutdown$$00000004  c_w.l(libshutdown2.o)
    0x1a0001fe   0x00000000   Code   RO         3660    .ARM.Collect$$libshutdown$$00000007  c_w.l(libshutdown2.o)
    0x1a0001fe   0x00000000   Code   RO         3663    .ARM.Collect$$libshutdown$$0000000A  c_w.l(libshutdown2.o)
    0x1a0001fe   0x00000000   Code   RO         3665    .ARM.Collect$$libshutdown$$0000000C  c_w.l(libshutdown2.o)
    0x1a0001fe   0x00000000   Code   RO         3668    .ARM.Collect$$libshutdown$$0000000F  c_w.l(libshutdown2.o)
    0x1a0001fe   0x00000002   Code   RO         3669    .ARM.Collect$$libshutdown$$00000010  c_w.l(libshutdown2.o)
    0x1a000200   0x00000000   Code   RO         3500    .ARM.Collect$$rtentry$$00000000  c_w.l(__rtentry.o)
    0x1a000200   0x00000000   Code   RO         3511    .ARM.Collect$$rtentry$$00000002  c_w.l(__rtentry2.o)
    0x1a000200   0x00000006   Code   RO         3523    .ARM.Collect$$rtentry$$00000004  c_w.l(__rtentry4.o)
    0x1a000206   0x00000000   Code   RO         3513    .ARM.Collect$$rtentry$$00000009  c_w.l(__rtentry2.o)
    0x1a000206   0x00000004   Code   RO         3514    .ARM.Collect$$rtentry$$0000000A  c_w.l(__rtentry2.o)
    0x1a00020a   0x00000000   Code   RO         3516    .ARM.Collect$$rtentry$$0000000C  c_w.l(__rtentry2.o)
    0x1a00020a   0x00000008   Code   RO         3517    .ARM.Collect$$rtentry$$0000000D  c_w.l(__rtentry2.o)
    0x1a000212   0x00000002   Code   RO         3548    .ARM.Collect$$rtexit$$00000000  c_w.l(rtexit.o)
    0x1a000214   0x00000000   Code   RO         3602    .ARM.Collect$$rtexit$$00000002  c_w.l(rtexit2.o)
    0x1a000214   0x00000004   Code   RO         3603    .ARM.Collect$$rtexit$$00000003  c_w.l(rtexit2.o)
    0x1a000218   0x00000006   Code   RO         3604    .ARM.Collect$$rtexit$$00000004  c_w.l(rtexit2.o)
    0x1a00021e   0x00000002   PAD
    0x1a000220   0x00002978   Code   RO            1    .text               raw-os.o
    0x1a002b98   0x00000174   Code   RO          175    .text               fifo.o
    0x1a002d0c   0x000000ac   Code   RO          266    .text               cpu.o
    0x1a002db8   0x000001e0   Code   RO          270    .text               port.o
    0x1a002f98   0x00000020   Code   RO          285    .text               port_hook.o
    0x1a002fb8   0x00000088   Code   RO          303    .text               user_extension.o
    0x1a003040   0x00000058   Code   RO          315    .text               port_error_process.o
    0x1a003098   0x00000030   Code   RO          327    .text               port_extension.o
    0x1a0030c8   0x00000044   Code   RO          342    .text               keil_startup_lpc18xx43xx.o
    0x1a00310c   0x0000001c   Code   RO          348    .text               sysinit.o
    0x1a003128   0x00000014   Code   RO          574    .text               lpc43xx_scu.o
    0x1a00313c   0x0000045c   Code   RO          607    .text               lpc43xx_sdram.o
    0x1a003598   0x000002dc   Code   RO          630    .text               main.o
    0x1a003874   0x00000040   Code   RO          778    .text               lpc43xx_gpio.o
    0x1a0038b4   0x0000042c   Code   RO          799    .text               client.o
    0x1a003ce0   0x000006ec   Code   RO          824    .text               api_lib.o
    0x1a0043cc   0x00000fae   Code   RO          888    .text               api_msg.o
    0x1a00537a   0x00000002   PAD
    0x1a00537c   0x00000210   Code   RO          937    .text               netbuf.o
    0x1a00558c   0x00001234   Code   RO          971    .text               sockets.o
    0x1a0067c0   0x0000028c   Code   RO         1006    .text               tcpip.o
    0x1a006a4c   0x00000010   Code   RO         1056    .text               def.o
    0x1a006a5c   0x000011b4   Code   RO         1069    .text               dhcp.o
    0x1a007c10   0x0000001e   Code   RO         1115    .text               init.o
    0x1a007c2e   0x00000002   PAD
    0x1a007c30   0x0000020c   Code   RO         1202    .text               netif.o
    0x1a007e3c   0x00000972   Code   RO         1242    .text               pbuf.o
    0x1a0087ae   0x00000002   PAD
    0x1a0087b0   0x000001c0   Code   RO         1270    .text               raw.o
    0x1a008970   0x00000cbc   Code   RO         1302    .text               tcp.o
    0x1a00962c   0x00001228   Code   RO         1330    .text               tcp_in.o
    0x1a00a854   0x00000db0   Code   RO         1353    .text               tcp_out.o
    0x1a00b604   0x000001fc   Code   RO         1365    .text               timers.o
    0x1a00b800   0x000004c0   Code   RO         1409    .text               udp.o
    0x1a00bcc0   0x000001f4   Code   RO         1481    .text               icmp.o
    0x1a00beb4   0x000001e2   Code   RO         1505    .text               inet_chksum.o
    0x1a00c096   0x00000002   PAD
    0x1a00c098   0x00000320   Code   RO         1517    .text               ip.o
    0x1a00c3b8   0x000001f4   Code   RO         1552    .text               ip_addr.o
    0x1a00c5ac   0x00000698   Code   RO         1576    .text               ip_frag.o
    0x1a00cc44   0x00000868   Code   RO         1596    .text               etharp.o
    0x1a00d4ac   0x0000069c   Code   RO         1642    .text               lpc18xx_43xx_emac.o
    0x1a00db48   0x000004f8   Code   RO         1682    .text               sys_arch.o
    0x1a00e040   0x00000158   Code   RO         1701    .text               lwip_emac.o
    0x1a00e198   0x00000aa8   Code   RO         1724    .text               lib_lpc_board_keil_mcb_4357.lib(board.o)
    0x1a00ec40   0x0000019c   Code   RO         1964    .text               lib_lpc_board_keil_mcb_4357.lib(board_sysinit.o)
    0x1a00eddc   0x0000020c   Code   RO         2016    .text               lib_lpc_board_keil_mcb_4357.lib(lpc_phy_dp83848.o)
    0x1a00efe8   0x00000184   Code   RO         2730    .text               lib_lpc_board_keil_mcb_4357.lib(uda1380.o)
    0x1a00f16c   0x000000ee   Code   RO         3432    .text               c_w.l(lludivv7m.o)
    0x1a00f25a   0x00000002   PAD
    0x1a00f25c   0x00000018   Code   RO         3436    .text               c_w.l(noretval__2printf.o)
    0x1a00f274   0x00000068   Code   RO         3438    .text               c_w.l(__printf.o)
    0x1a00f2dc   0x00000078   Code   RO         3440    .text               c_w.l(_printf_dec.o)
    0x1a00f354   0x00000058   Code   RO         3445    .text               c_w.l(_printf_hex_int.o)
    0x1a00f3ac   0x00000058   Code   RO         3486    .text               c_w.l(memcmp.o)
    0x1a00f404   0x0000003e   Code   RO         3488    .text               c_w.l(strlen.o)
    0x1a00f442   0x0000008a   Code   RO         3490    .text               c_w.l(rt_memcpy_v6.o)
    0x1a00f4cc   0x00000064   Code   RO         3492    .text               c_w.l(rt_memcpy_w.o)
    0x1a00f530   0x0000004e   Code   RO         3494    .text               c_w.l(rt_memclr_w.o)
    0x1a00f57e   0x00000006   Code   RO         3496    .text               c_w.l(heapauxi.o)
    0x1a00f584   0x000000b2   Code   RO         3505    .text               c_w.l(_printf_intcommon.o)
    0x1a00f636   0x00000002   PAD
    0x1a00f638   0x00000024   Code   RO         3507    .text               c_w.l(_printf_char_file.o)
    0x1a00f65c   0x00000030   Code   RO         3527    .text               c_w.l(_printf_char_common.o)
    0x1a00f68c   0x0000004a   Code   RO         3529    .text               c_w.l(sys_stackheap_outer.o)
    0x1a00f6d6   0x00000012   Code   RO         3533    .text               c_w.l(exit.o)
    0x1a00f6e8   0x00000008   Code   RO         3545    .text               c_w.l(libspace.o)
    0x1a00f6f0   0x00000038   Code   RO         2283    i.Chip_Clock_Enable  lib_lpc_chip_43xx.lib(clock_18xx_43xx.o)
    0x1a00f728   0x0000003c   Code   RO         2287    i.Chip_Clock_EnableOpts  lib_lpc_chip_43xx.lib(clock_18xx_43xx.o)
    0x1a00f764   0x00000050   Code   RO         2289    i.Chip_Clock_FindBaseClock  lib_lpc_chip_43xx.lib(clock_18xx_43xx.o)
    0x1a00f7b4   0x00000024   Code   RO         2290    i.Chip_Clock_GetBaseClock  lib_lpc_chip_43xx.lib(clock_18xx_43xx.o)
    0x1a00f7d8   0x00000012   Code   RO         2292    i.Chip_Clock_GetBaseClocktHz  lib_lpc_chip_43xx.lib(clock_18xx_43xx.o)
    0x1a00f7ea   0x00000002   PAD
    0x1a00f7ec   0x000000d4   Code   RO         2293    i.Chip_Clock_GetClockInputHz  lib_lpc_chip_43xx.lib(clock_18xx_43xx.o)
    0x1a00f8c0   0x00000028   Code   RO         2294    i.Chip_Clock_GetDivRate  lib_lpc_chip_43xx.lib(clock_18xx_43xx.o)
    0x1a00f8e8   0x00000020   Code   RO         2295    i.Chip_Clock_GetDividerDivisor  lib_lpc_chip_43xx.lib(clock_18xx_43xx.o)
    0x1a00f908   0x00000020   Code   RO         2296    i.Chip_Clock_GetDividerSource  lib_lpc_chip_43xx.lib(clock_18xx_43xx.o)
    0x1a00f928   0x00000030   Code   RO         2297    i.Chip_Clock_GetEMCRate  lib_lpc_chip_43xx.lib(clock_18xx_43xx.o)
    0x1a00f958   0x00000078   Code   RO         2298    i.Chip_Clock_GetMainPLLHz  lib_lpc_chip_43xx.lib(clock_18xx_43xx.o)
    0x1a00f9d0   0x00000058   Code   RO         2300    i.Chip_Clock_GetRate  lib_lpc_chip_43xx.lib(clock_18xx_43xx.o)
    0x1a00fa28   0x00000048   Code   RO         2304    i.Chip_Clock_SetBaseClock  lib_lpc_chip_43xx.lib(clock_18xx_43xx.o)
    0x1a00fa70   0x00000050   Code   RO         2305    i.Chip_Clock_SetDivider  lib_lpc_chip_43xx.lib(clock_18xx_43xx.o)
    0x1a00fac0   0x0000001c   Code   RO         2753    i.Chip_EMC_Dynamic_Init  lib_lpc_chip_43xx.lib(emc_18xx_43xx.o)
    0x1a00fadc   0x0000002c   Code   RO         2755    i.Chip_EMC_Init     lib_lpc_chip_43xx.lib(emc_18xx_43xx.o)
    0x1a00fb08   0x0000001c   Code   RO         2758    i.Chip_EMC_Static_Init  lib_lpc_chip_43xx.lib(emc_18xx_43xx.o)
    0x1a00fb24   0x00000018   Code   RO         2835    i.Chip_ENET_StartMIIRead  lib_lpc_chip_43xx.lib(enet_18xx_43xx.o)
    0x1a00fb3c   0x00000020   Code   RO         2836    i.Chip_ENET_StartMIIWrite  lib_lpc_chip_43xx.lib(enet_18xx_43xx.o)
    0x1a00fb5c   0x00000002   Code   RO         2892    i.Chip_GPIO_Init    lib_lpc_chip_43xx.lib(gpio_18xx_43xx.o)
    0x1a00fb5e   0x00000002   PAD
    0x1a00fb60   0x00000028   Code   RO         2946    i.Chip_I2C_EventHandler  lib_lpc_chip_43xx.lib(i2c_18xx_43xx.o)
    0x1a00fb88   0x00000040   Code   RO         2947    i.Chip_I2C_EventHandlerPolling  lib_lpc_chip_43xx.lib(i2c_18xx_43xx.o)
    0x1a00fbc8   0x00000014   Code   RO         2949    i.Chip_I2C_GetMasterEventHandler  lib_lpc_chip_43xx.lib(i2c_18xx_43xx.o)
    0x1a00fbdc   0x0000002c   Code   RO         2950    i.Chip_I2C_Init     lib_lpc_chip_43xx.lib(i2c_18xx_43xx.o)
    0x1a00fc08   0x00000018   Code   RO         2952    i.Chip_I2C_IsStateChanged  lib_lpc_chip_43xx.lib(i2c_18xx_43xx.o)
    0x1a00fc20   0x0000003a   Code   RO         2953    i.Chip_I2C_MasterCmdRead  lib_lpc_chip_43xx.lib(i2c_18xx_43xx.o)
    0x1a00fc5a   0x00000032   Code   RO         2955    i.Chip_I2C_MasterSend  lib_lpc_chip_43xx.lib(i2c_18xx_43xx.o)
    0x1a00fc8c   0x00000038   Code   RO         2956    i.Chip_I2C_MasterStateHandler  lib_lpc_chip_43xx.lib(i2c_18xx_43xx.o)
    0x1a00fcc4   0x0000006c   Code   RO         2957    i.Chip_I2C_MasterTransfer  lib_lpc_chip_43xx.lib(i2c_18xx_43xx.o)
    0x1a00fd30   0x0000003c   Code   RO         2958    i.Chip_I2C_SetClockRate  lib_lpc_chip_43xx.lib(i2c_18xx_43xx.o)
    0x1a00fd6c   0x00000028   Code   RO         2959    i.Chip_I2C_SetMasterEventHandler  lib_lpc_chip_43xx.lib(i2c_18xx_43xx.o)
    0x1a00fd94   0x0000000c   Code   RO         3120    i.Chip_I2S_Init     lib_lpc_chip_43xx.lib(i2s_18xx_43xx.o)
    0x1a00fda0   0x0000007a   Code   RO         3124    i.Chip_I2S_TxConfig  lib_lpc_chip_43xx.lib(i2s_18xx_43xx.o)
    0x1a00fe1a   0x00000002   PAD
    0x1a00fe1c   0x00000038   Code   RO         2508    i.Chip_RGU_InReset  lib_lpc_chip_43xx.lib(rgu_18xx_43xx.o)
    0x1a00fe54   0x0000002c   Code   RO         2509    i.Chip_RGU_TriggerReset  lib_lpc_chip_43xx.lib(rgu_18xx_43xx.o)
    0x1a00fe80   0x00000004   Code   RO         3184    i.Chip_SSP_ClearIntPending  lib_lpc_chip_43xx.lib(ssp_18xx_43xx.o)
    0x1a00fe84   0x00000014   Code   RO         3186    i.Chip_SSP_GetClockIndex  lib_lpc_chip_43xx.lib(ssp_18xx_43xx.o)
    0x1a00fe98   0x00000010   Code   RO         3187    i.Chip_SSP_GetRawIntStatus  lib_lpc_chip_43xx.lib(ssp_18xx_43xx.o)
    0x1a00fea8   0x00000010   Code   RO         3188    i.Chip_SSP_GetStatus  lib_lpc_chip_43xx.lib(ssp_18xx_43xx.o)
    0x1a00feb8   0x0000003c   Code   RO         3189    i.Chip_SSP_Init     lib_lpc_chip_43xx.lib(ssp_18xx_43xx.o)
    0x1a00fef4   0x00000008   Code   RO         3195    i.Chip_SSP_ReceiveFrame  lib_lpc_chip_43xx.lib(ssp_18xx_43xx.o)
    0x1a00fefc   0x00000006   Code   RO         3196    i.Chip_SSP_SendFrame  lib_lpc_chip_43xx.lib(ssp_18xx_43xx.o)
    0x1a00ff02   0x00000046   Code   RO         3197    i.Chip_SSP_SetBitRate  lib_lpc_chip_43xx.lib(ssp_18xx_43xx.o)
    0x1a00ff48   0x00000014   Code   RO         3198    i.Chip_SSP_SetClockRate  lib_lpc_chip_43xx.lib(ssp_18xx_43xx.o)
    0x1a00ff5c   0x0000001c   Code   RO         3199    i.Chip_SSP_SetMaster  lib_lpc_chip_43xx.lib(ssp_18xx_43xx.o)
    0x1a00ff78   0x0000000c   Code   RO         3200    i.Chip_SSP_Set_Mode  lib_lpc_chip_43xx.lib(ssp_18xx_43xx.o)
    0x1a00ff84   0x000000ea   Code   RO         3201    i.Chip_SSP_WriteFrames_Blocking  lib_lpc_chip_43xx.lib(ssp_18xx_43xx.o)
    0x1a01006e   0x0000000e   Code   RO         3322    i.Chip_SetupCoreClock  lib_lpc_chip_43xx.lib(sysinit_18xx_43xx.o)
    0x1a01007c   0x0000000a   Code   RO         2543    i.Chip_UART_DisableDivisorAccess  lib_lpc_chip_43xx.lib(uart_18xx_43xx.o)
    0x1a010086   0x0000000a   Code   RO         2544    i.Chip_UART_EnableDivisorAccess  lib_lpc_chip_43xx.lib(uart_18xx_43xx.o)
    0x1a010090   0x00000030   Code   RO         2546    i.Chip_UART_GetClockIndex  lib_lpc_chip_43xx.lib(uart_18xx_43xx.o)
    0x1a0100c0   0x0000004c   Code   RO         2548    i.Chip_UART_Init    lib_lpc_chip_43xx.lib(uart_18xx_43xx.o)
    0x1a01010c   0x00000042   Code   RO         2560    i.Chip_UART_SetBaud  lib_lpc_chip_43xx.lib(uart_18xx_43xx.o)
    0x1a01014e   0x00000006   Code   RO         2562    i.Chip_UART_SetDivisorLatches  lib_lpc_chip_43xx.lib(uart_18xx_43xx.o)
    0x1a010154   0x00000014   Code   RO         2051    i.SystemCoreClockUpdate  lib_lpc_chip_43xx.lib(chip_18xx_43xx.o)
    0x1a010168   0x00000024   Code   RO         3326    i.clock_init_delay  lib_lpc_chip_43xx.lib(sysinit_18xx_43xx.o)
    0x1a01018c   0x000000bc   Code   RO         3327    i.clock_main_init   lib_lpc_chip_43xx.lib(sysinit_18xx_43xx.o)
    0x1a010248   0x00000038   Code   RO         2759    i.convertTimmingParam  lib_lpc_chip_43xx.lib(emc_18xx_43xx.o)
    0x1a010280   0x00000050   Code   RO         2707    i.fpuInit           lib_lpc_chip_43xx.lib(fpu_init.o)
    0x1a0102d0   0x00000162   Code   RO         3125    i.getClkDiv         lib_lpc_chip_43xx.lib(i2s_18xx_43xx.o)
    0x1a010432   0x00000002   PAD
    0x1a010434   0x0000001c   Code   RO         2962    i.getClkRate        lib_lpc_chip_43xx.lib(i2c_18xx_43xx.o)
    0x1a010450   0x00000028   Code   RO         2760    i.getColsLen        lib_lpc_chip_43xx.lib(emc_18xx_43xx.o)
    0x1a010478   0x0000000a   Code   RO         2963    i.getCurState       lib_lpc_chip_43xx.lib(i2c_18xx_43xx.o)
    0x1a010482   0x000000e0   Code   RO         2965    i.handleMasterXferState  lib_lpc_chip_43xx.lib(i2c_18xx_43xx.o)
    0x1a010562   0x000001e8   Code   RO         2761    i.initDynMem        lib_lpc_chip_43xx.lib(emc_18xx_43xx.o)
    0x1a01074a   0x00000068   Code   RO         2762    i.initStaticMem     lib_lpc_chip_43xx.lib(emc_18xx_43xx.o)
    0x1a0107b2   0x0000000a   Code   RO         2970    i.startSlaverXfer   lib_lpc_chip_43xx.lib(i2c_18xx_43xx.o)
    0x1a0107bc   0x0000000a   Code   RO         3614    x$fpl$fpinit        fz_wm.l(fpinit.o)
    0x1a0107c6   0x00000002   PAD
    0x1a0107c8   0x00000200   Data   RO          801    .constdata          client.o
    0x1a0109c8   0x00000040   Data   RO          973    .constdata          sockets.o
    0x1a010a08   0x0000001c   Data   RO         1172    .constdata          memp.o
    0x1a010a24   0x00000054   Data   RO         1303    .constdata          tcp.o
    0x1a010a78   0x00000004   Data   RO         1554    .constdata          ip_addr.o
    0x1a010a7c   0x00000004   Data   RO         1555    .constdata          ip_addr.o
    0x1a010a80   0x0000000c   Data   RO         1598    .constdata          etharp.o
    0x1a010a8c   0x00000040   Data   RO         1725    .constdata          lib_lpc_board_keil_mcb_4357.lib(board.o)
    0x1a010acc   0x000002bc   Data   RO         1965    .constdata          lib_lpc_board_keil_mcb_4357.lib(board_sysinit.o)
    0x1a010d88   0x0000006c   Data   RO         2312    .constdata          lib_lpc_chip_43xx.lib(clock_18xx_43xx.o)
    0x1a010df4   0x0000001f   Data   RO         2731    .constdata          lib_lpc_board_keil_mcb_4357.lib(uda1380.o)
    0x1a010e13   0x00000048   Data   RO         3328    .constdata          lib_lpc_chip_43xx.lib(sysinit_18xx_43xx.o)
    0x1a010e5b   0x00000028   Data   RO         3446    .constdata          c_w.l(_printf_hex_int.o)
    0x1a010e83   0x00000001   PAD
    0x1a010e84   0x00000075   Data   RO         1304    .conststring        tcp.o
    0x1a010ef9   0x00000003   PAD
    0x1a010efc   0x00000040   Data   RO         3670    Region$$Table       anon$$obj.o


    Execution Region RW_IRAM2 (Base: 0x20000000, Size: 0x00001968, Max: 0x00008000, ABSOLUTE)

    Base Addr    Size         Type   Attr      Idx    E Section Name        Object

    0x20000000   0x00000008   Data   RW          974    .data               sockets.o
    0x20000008   0x0000000c   Data   RW         1007    .data               tcpip.o
    0x20000014   0x00000004   Data   RW         1071    .data               dhcp.o
    0x20000018   0x00000001   Data   RW         1243    .data               pbuf.o
    0x20000019   0x00000003   PAD
    0x2000001c   0x00000024   Data   RW         1305    .data               tcp.o
    0x20000040   0x0000001c   Data   RW         1332    .data               tcp_in.o
    0x2000005c   0x00000008   Data   RW         1410    .data               udp.o
    0x20000064   0x00000001   Data   RW         1599    .data               etharp.o
    0x20000065   0x00000003   PAD
    0x20000068   0x00000004   Data   RW         1645    .data               lpc18xx_43xx_emac.o
    0x2000006c   0x00000014   Data   RW         1726    .data               lib_lpc_board_keil_mcb_4357.lib(board.o)
    0x20000080   0x00000010   Data   RW         2017    .data               lib_lpc_board_keil_mcb_4357.lib(lpc_phy_dp83848.o)
    0x20000090   0x00000004   Data   RW         2053    .data               lib_lpc_chip_43xx.lib(chip_18xx_43xx.o)
    0x20000094   0x00000008   Data   RW         2313    .data               lib_lpc_chip_43xx.lib(clock_18xx_43xx.o)
    0x2000009c   0x00000038   Data   RW         2972    .data               lib_lpc_chip_43xx.lib(i2c_18xx_43xx.o)
    0x200000d4   0x00000004   PAD
    0x200000d8   0x00000ddc   Zero   RW            2    .bss                raw-os.o
    0x20000eb4   0x00000004   PAD
    0x20000eb8   0x000007c4   Zero   RW          631    .bss                main.o
    0x2000167c   0x0000028c   Zero   RW         1643    .bss                lpc18xx_43xx_emac.o
    0x20001908   0x00000060   Zero   RW         3546    .bss                c_w.l(libspace.o)


==============================================================================

Image component sizes


      Code (inc. data)   RO Data    RW Data    ZI Data      Debug   Object Name

      1772         52          0          0          0      28260   api_lib.o
      4014         54          0          0          0      23826   api_msg.o
      1068        482        512          0       4112       3623   client.o
       172         16          0          0          0        392   cpu.o
        16          0          0          0          0       1512   def.o
      4532         56          0          4         50      24600   dhcp.o
      2152         16         12          1        200      13776   etharp.o
       372          0          0          0          0      10448   fifo.o
       500          8          0          0          0       2858   icmp.o
       482          0          0          0          0       3786   inet_chksum.o
        30          0          0          0          0      16648   init.o
       800         12          0         20          0      13301   ip.o
       500         12          8          0         16       9975   ip_addr.o
      1688         16          0          8          0       8728   ip_frag.o
        68         28        276          0       1792        944   keil_startup_lpc18xx43xx.o
      1692        126          0          4        652       9531   lpc18xx_43xx_emac.o
        64          6          0          0          0       1355   lpc43xx_gpio.o
        20          4          0          0          0       1061   lpc43xx_scu.o
      1116         28          0          0          0       2166   lpc43xx_sdram.o
       344         52          0          0          0      11600   lwip_emac.o
       732        152          0         12       1988      67945   main.o
         0          0         28          0          0       1245   memp.o
       528          6          0          0          0       9109   netbuf.o
       524         12          0         12          0      20503   netif.o
      2418         18          0          1          0      13850   pbuf.o
       480         20          0          4          0       3978   port.o
        88          0          0          0          0       1352   port_error_process.o
        48         10          0          0          0        945   port_extension.o
        32          0          0          0          0       2073   port_hook.o
     10616        300          0         56       3548      84599   raw-os.o
       448         16          0          4          0       3977   raw.o
      4660         62         64          8         96      29041   sockets.o
      1272         60          0          4         72       8000   sys_arch.o
        28          8          0          0          0      12793   sysinit.o
      3260         54        201         36          0      24274   tcp.o
      4648        108          0         28         20      17663   tcp_in.o
      3504         12          0          0          0      13103   tcp_out.o
       652         42          0         12          0      19154   tcpip.o
       508         36          0          8          0       4003   timers.o
      1216         20          0          8          0      16954   udp.o
       136          0          0          0          0       1868   user_extension.o

    ----------------------------------------------------------------------
     57208       1904       1168        236      12556     544819   Object Totals
         0          0         64          0          0          0   (incl. Generated)
         8          0          3          6         10          0   (incl. Padding)

    ----------------------------------------------------------------------

      Code (inc. data)   RO Data    RW Data    ZI Data      Debug   Library Member Name

        90          0          0          0          0          0   __dczerorl2.o
         8          0          0          0          0         68   __main.o
       104          0          0          0          0         84   __printf.o
         0          0          0          0          0          0   __rtentry.o
        12          0          0          0          0          0   __rtentry2.o
         6          0          0          0          0          0   __rtentry4.o
        52          8          0          0          0          0   __scatter.o
        26          0          0          0          0          0   __scatter_copy.o
        28          0          0          0          0          0   __scatter_zi.o
        48          6          0          0          0         96   _printf_char_common.o
        36          4          0          0          0         80   _printf_char_file.o
         6          0          0          0          0          0   _printf_d.o
       120         16          0          0          0         92   _printf_dec.o
        88          4         40          0          0         88   _printf_hex_int.o
       178          0          0          0          0         88   _printf_intcommon.o
         0          0          0          0          0          0   _printf_percent.o
         4          0          0          0          0          0   _printf_percent_end.o
         6          0          0          0          0          0   _printf_x.o
        18          0          0          0          0         80   exit.o
         6          0          0          0          0        152   heapauxi.o
         2          0          0          0          0          0   libinit.o
         6          0          0          0          0          0   libinit2.o
         2          0          0          0          0          0   libshutdown.o
         2          0          0          0          0          0   libshutdown2.o
         8          4          0          0         96         68   libspace.o
       238          0          0          0          0        100   lludivv7m.o
        88          0          0          0          0         76   memcmp.o
        24          4          0          0          0         84   noretval__2printf.o
        78          0          0          0          0         80   rt_memclr_w.o
       138          0          0          0          0         68   rt_memcpy_v6.o
       100          0          0          0          0         80   rt_memcpy_w.o
         2          0          0          0          0          0   rtexit.o
        10          0          0          0          0          0   rtexit2.o
        62          0          0          0          0         76   strlen.o
        74          0          0          0          0         80   sys_stackheap_outer.o
        10          0          0          0          0        116   fpinit.o
      2728        102         64         20          0      66114   board.o
       412         56        700          0          0      10122   board_sysinit.o
       524         20          0         16          0      11265   lpc_phy_dp83848.o
       388         20         31          0          0       3135   uda1380.o
        20          6          0          4          0      26534   chip_18xx_43xx.o
       974        150        108          8          0       9866   clock_18xx_43xx.o
       788         22          0          0          0       5204   emc_18xx_43xx.o
        56         10          0          4          0       8843   enet_18xx_43xx.o
        80         18          0          0          0       1234   fpu_init.o
         2          0          0          0          0       3265   gpio_18xx_43xx.o
       836         62          0         56          0      10510   i2c_18xx_43xx.o
       488          0          0          0          0       2828   i2s_18xx_43xx.o
       100         10          0          0          0       1447   rgu_18xx_43xx.o
       494          8          0          0          0      11299   ssp_18xx_43xx.o
       238         20         72          0          0       2286   sysinit_18xx_43xx.o
       216         16          0          0          0       9189   uart_18xx_43xx.o

    ----------------------------------------------------------------------
     10044        566       1016        108        100     184797   Library Totals
        20          0          1          0          4          0   (incl. Padding)

    ----------------------------------------------------------------------

      Code (inc. data)   RO Data    RW Data    ZI Data      Debug   Library Name

      1670         46         40          0         96       1540   c_w.l
        10          0          0          0          0        116   fz_wm.l
      4052        198        795         36          0      90636   lib_lpc_board_keil_mcb_4357.lib
      4292        322        180         72          0      92505   lib_lpc_chip_43xx.lib

    ----------------------------------------------------------------------
     10044        566       1016        108        100     184797   Library Totals

    ----------------------------------------------------------------------

==============================================================================


      Code (inc. data)   RO Data    RW Data    ZI Data      Debug   

     67252       2470       2184        344      12656     715056   Grand Totals
     67252       2470       2184        344      12656     715056   ELF Image Totals
     67252       2470       2184        344          0          0   ROM Totals

==============================================================================

    Total RO  Size (Code + RO Data)                69436 (  67.81kB)
    Total RW  Size (RW Data + ZI Data)             13000 (  12.70kB)
    Total ROM Size (Code + RO Data + RW Data)      69780 (  68.14kB)

==============================================================================

