:020000041400E6
:1000000018200010892F0014912F0014932F001432
:10001000952F0014972F0014992F00145A5A5A5AEA
:10002000A32F0014A32F0014A32F00149B2F001440
:100030009D2F0014A32F0014EB2C0014E92F0014A3
:10004000A52F0014A52F0014A52F0014A32F001412
:10005000A52F0014A52F0014A52F0014A52F001400
:10006000A52F0014A52F0014A52F0014A52F0014F0
:10007000A52F0014A52F0014A52F0014A52F0014E0
:10008000A52F0014A52F0014A52F0014A52F0014D0
:10009000A52F0014A52F0014A52F0014A52F0014C0
:1000A000A52F0014A52F0014A52F00144331001410
:1000B000A52F0014A52F0014A52F0014A52F0014A0
:1000C000A52F0014A52F0014A52F0014A52F001490
:1000D000A52F0014A52F0014A52F0014A52F001480
:1000E000A52F0014A52F0014A52F0014A52F001470
:1000F000A32F0014A52F0014A52F0014A52F001462
:10010000A32F0014A52F0014A32F0014A52F001453
:10011000A52F001400F002F800F047F80AA090E8BC
:10012000000C82448344AAF10107DA4501D100F0B2
:100130003CF8AFF2090EBAE80F0013F0010F18BF38
:10014000FB1A43F0010318476C4300008C43000086
:10015000103A24BF78C878C1FAD8520724BF30C8F3
:1001600030C144BF04680C607047000000230024C5
:1001700000250026103A28BF78C1FBD8520728BFB7
:1001800030C148BF0B607047642903F0E1816329E7
:1001900003F0A782732903F0AC82002070471FB5DB
:1001A00003F0BCFE1FBD10B510BD03F0D1FA11461F
:1001B000FFF7F5FF03F027F803F0EFFA03B4FFF7BA
:1001C000F2FF03BC03F000FE017800EBC100F84928
:1001D0004068001F8860704770B5F54CE078A178E2
:1001E000084310D102F058FD0546F248FFF7ECFF36
:1001F000D4E90201884201D002F06DFD2846BDE835
:10020000704002F04DBD70BD68B1531C0DD0006050
:1002100002614261C0E90101002101738161012194
:10022000417300207047252070471520704710B497
:10023000144601660846214610BC1A46E4E710B58C
:100240000446006C002805D004F1300002F0B6F935
:100250000020206410BD3EB5D54C0B4605462179E3
:10026000806D03290AD900200090019003460246C0
:1002700001460290442002F051FE3EBD491CC9B225
:1002800021716279914200D96171417B02290FD1BC
:10029000017E02290CD10069697E427E8A4202D920
:1002A00000F0ABF804E09A4202D1002100F0D2F84D
:1002B0002079401E20713EBD10B50446806D007B44
:1002C000002808D1201D02F079F92146A06DBDE873
:1002D000104002F079B910BD70B54C7E054600EBB8
:1002E000C400001D091D02F062F9214605F5FA70EF
:1002F00002F078F92878A04200D92C7070BD70B552
:100300004C7E054600EBC400091D406802F04FF921
:10031000214605F5FA7002F065F92878A04200D967
:100320002C7070BD70B54B0900EB83044FEA51137C
:10033000CD0650F8233001F01F0103D00120884082
:10034000401E83430020461EC1F1200520E0CBB1B2
:1003500000B948421904090C01D11B0C103013F0EC
:10036000FF0F01D11B0A0830190701D11B09001D1D
:10037000990701D19B08801CD90700D1401C9042ED
:1003800009DB07E008B1203000E0284654F8043FBC
:100390009042DCDB304670BD3EB505464C7E081D04
:1003A00002F00CF905EBC400001D02F0F9F800287A
:1003B00017D005F5FA7303EBD40004F0070201210E
:1003C000914002788A4302702878A04209D1C4F192
:1003D0003E0221461846FFF7A5FF002802DB204415
:1003E00028703EBD00200090019003460246014661
:1003F0000290452002F092FD3EBD70B5044690F893
:1004000054000D46082823D2DFE800F00417171720
:100410001517151521466748FFF7BEFF6448657636
:100420002146C0688442634802D1FFF768FF0DE0AF
:10043000FFF752FF0AE0657608E0667E65762046A3
:10044000FFF73AFF31462046FFF705FF002070BD59
:10045000102070BD2DE9F041867E0746884635465E
:100460001C3016E0444502D16169016011E0207E34
:10047000022803D0032807D1657E05E0204602F05C
:100480008FF808B92068457DAE4200D92E4604F1A8
:1004900014000468002CE5D1787EB04204D03146C7
:1004A0003846BDE8F041A8E7BDE8F0810146806D1F
:1004B000427B022A09D1027E022A06D10069497EC6
:1004C000427E8A4201D10021C4E77047384B4A7E00
:1004D000DB685B7E9A4200D1FEE610E72DE9FE4F15
:1004E00002F0DAFBDFF8C8A083460AF12807DAF841
:1004F00010004FF00208401CCAF810003C684FF092
:1005000004090025BC424ED054F8086BDAF81000FC
:1005100054F83819814246D194F8540002281CD06E
:10052000032829D006280CD0072834D000230095B2
:1005300001951A4619464520029502F0EFFC344613
:10054000E0E784F8555084F854502046FFF777FED2
:1005500021461848FFF7BAFFF1E72046FFF76FFE84
:10056000201D02F02BF821461248FFF7AFFF84F858
:10057000558084F8545009E02046FFF760FE201DA6
:1005800002F01CF884F8558084F854902046FFF758
:100590008DFFA565D3E784F8549084F85550204624
:1005A000FFF74DFECBE75846BDE8FE4F02F078BBA3
:1005B00000000010B000001038B590F8552082B14E
:1005C000012A13D0022A13D0032A13D000208DF859
:1005D000000002F061FB9DF800000028FBD02046DF
:1005E00038BD09B1406C08600024F8E70824F6E73C
:1005F0000924F4E70A24F2E770B50446002916D06E
:10060000FC48FC4D06697018C4E90E0128352146E6
:10061000E36B286804E08268921B9A4202D8006863
:10062000A842F8D104F1300101F0C1FF256470BD8A
:1006300070B50C4688650546511C13D011462046FE
:10064000FFF7DAFF022084F854002146EA48FFF75A
:10065000A3FE287B012807D021462846BDE870402C
:1006600001F0B2BF0120EEE7211D2846BDE8704031
:1006700001F09DBF2DE9F0410F46050004D0DD4E8D
:10068000F07818B127200FE725200DE702F004FBD2
:100690000446687B012804D0204602F001FB362086
:1006A00002E7286930B1401E2861204602F0F8FABE
:1006B0000020F9E637B1B07848B1204602F0F0FAF0
:1006C0000720F1E6204602F0EBFA0620ECE63A4677
:1006D0002846F168FFF7ACFF204602F0E1FAFFF789
:1006E0007BFDF068BDE8F041002165E70146C148A7
:1006F000C068006EBEE7BF4C4FF0FF352846FFF7DD
:10070000F5FF0028FAD120780428F7D1FFF7E6FE9C
:10071000F4E72DE9FF5F1D46DDE90F68DDF838A03D
:10072000129F040005D03E2D05D3132004B0BDE870
:10073000F09F2520FAE746B1119830B1DFF8B49266
:1007400099F8030018B12720F0E72320EEE702F024
:10075000A3FA4FF0010B3D2D08D199F801201AB1F1
:1007600002F09EFA0120E1E789F801B002F098FA60
:1007700070220021204602F0B2FBBAF1000008D03E
:100780006061206102202076002227B184F8542085
:1007900006E03220F4E7042084F8540084F81BB00B
:1007A00030460021E66201E004C0491C4145FBD30C
:1007B000019820656576A576C4F82880E06A8F499F
:1007C000016041463046119B029A02F0B7FA206060
:1007D000204602F05CFB02F05FFA0546854804F112
:1007E0002001383001F0E3FE1FB121468248FFF7B7
:1007F00073FD99F800000428284603D002F050FA4F
:10080000052093E702F04CFA0FB1FFF7E5FC00205A
:100810008CE700B585B001237A480DF1040C784AC5
:1008200019028CE80F00002002460090754876A15E
:100830007038FFF76EFF7E4905B0002377A2A1F55F
:100840008E605DF804EBF2E410B538B1032A07D0EE
:10085000022A05D0042A03D01C2010BD252010BD7B
:10086000006040600024047304614461816002768A
:10087000437602214173204610BD3EB5044690F8F0
:1008800054000025012815D0022813D003281BD0BE
:10089000052819D00023009501951A4619464520D0
:1008A000029502F03BFB2046FFF7C9FC84F8555047
:1008B000A5653EBD201D01F081FE21464E48FFF793
:1008C00005FE84F85450EEE7201D01F077FE042069
:1008D00084F85400E7E7D0E770B5040004D0454D34
:1008E000E87818B1272070BD252070BD02F0D4F93A
:1008F0000646607B022804D0304602F0D1F936204B
:1009000070BD2169E868814204D0304602F0C8F920
:10091000172070BDA17E491E11F0FF01A17604D001
:10092000304602F0BDF9182070BD2146FFF792FD58
:10093000204601F035FE28B100202061304602F04B
:10094000AFF919E025682D1F2846FFF796FF2561AE
:10095000E86960610120EC61A076207E032806D161
:10096000687E617E884202D92846FFF746FD304600
:1009700002F096F9FFF730FC002070BDFEB50F467F
:10098000040004D01B4EF07818B12720FEBD2520AE
:10099000FEBD02F081F90546607B022804D028469E
:1009A00002F07EF93620FEBD2269F068824214D141
:1009B000A07EFF2806D0401CA076284602F070F9E1
:1009C0001820FEBD0020009001900346024601461B
:1009D00002904A2002F0A2FAEFE7217E032929D1F2
:1009E000837E94F819C0634524D2284602F058F952
:1009F0001A20FEBD00000010B0000010AFBEADDE3A
:100A0000F7060014340C00107469636B5F74617333
:100A10006B5F6F626A656374000000007469636BEA
:100A20005F73656D6170686F72655F6F626A000009
:100A3000341000103AB1D7B1B378EBB1284602F0C8
:100A40002FF90720FEBD2061C16961610121C461E8
:100A5000A176217E032905D1427E617E8A4201D999
:100A6000FFF7CBFC284602F01BF90020FEBD28460C
:100A700002F016F90620FEBD022906D1417E507E05
:100A8000814202D21046FFF7B8FC3A462046F16890
:100A9000FFF7CEFD284602F003F9FFF79DFBF06853
:100AA00003B00021BDE8F04086E570B50D460400B6
:100AB00004D0F748C07818B1272070BD252070BD3C
:100AC00002F0EAF80646607B012804D0304602F0C6
:100AD000E7F8362070BD206918B9204601F060FDA6
:100AE00028B13046256102F0DBF8002070BD3046A9
:100AF00002F0D6F8162070BD08B50021E548FFF7D2
:100B0000D4FFE34F4FF0FF394FF001084C46494600
:100B1000E048FFF7AFFDDF4821461C30FFF72EFF0E
:100B200040B100208DF8000002F0B6F89DF80000FA
:100B30000028FBD07869D64D401C303578612C6890
:100B4000AC4227D0606979692668884222D1204664
:100B500001F052FD206A50B1A061796908446061DA
:100B6000CB4821463030A06001F051FD01E084F80F
:100B70002880216961B1606A8847882808D194F883
:100B80002800012804D0204601F036FD84F8288092
:100B90003446D5E7BF481C30FFF79EFEB6E700B5E8
:100BA000BB4885B001218161303000604060AFF208
:100BB000B7000A020292CDE90301B74B0020CDE94C
:100BC00000030246B4480523B4A17038FFF7A1FD25
:100BD00005B00022B5A1AF485DF804EBFFF714BBE8
:100BE000AB4C02F059F8D4E90812491C42F100025A
:100BF000C4E9081202F054F802F04AF9F1E7A448F7
:100C000028300060406070473E210170002200EBF8
:100C1000C201091D521C0960D2B249603E2AF6D3B6
:100C2000704700B59A4985B005200870A248FFF7C3
:100C3000EBFF974828300060406010300060406053
:100C400002F01FF90123AFF267029C480DF1040C7A
:100C500019028CE80F0000200246009097483D23BF
:100C600097A17038FFF755FDFFF799FF89480023DA
:100C7000022296A11C30FFF7E7FDFFF7CAFD05B081
:100C8000002000BD824A10B51078052801D004204C
:100C900010BD8948FFF798FA9068D0600420107062
:100CA00002F005F8032010BD70B50C46497E00EB3C
:100CB000C105201D2D1D01F081FC211D2846BDE828
:100CC000704001F074BC70B57B4901EBC0052D1D6F
:100CD00001F0E2FF0646284601F062FC68B92C6884
:100CE0002046217D241F012907D00068A84204D096
:100CF000206938B1401E206104D03046BDE8704004
:100D000001F0CEBF21466C48FFF7CEFF606920613D
:100D1000F3E74164B1E5C0E91112AEE53EB5044622
:100D200090F854000025012816D0022814D003287A
:100D30001CD005281AD00023009501951A461946A3
:100D40004520029502F0EAF82046FFF778FA0320E2
:100D500084F85500A5653EBD201D01F02FFC2146FD
:100D60005548FFF7B3FB84F85450EDE7201D01F020
:100D700025FC042084F85400E6E7002238B141B194
:100D800090F85430082B06D0C06A001D06E02520DC
:100D90007047232070474B207047521C08C8002B17
:100DA000FBD000200A60704710B5394CE07808B1DC
:100DB000272010BDA078FA2801D30F2010BD01F024
:100DC0006BFFA178491CA17001F06AFF002010BDE3
:100DD00010B52F4CE07808B1272010BDA07858B18D
:100DE00001F05AFFA178491E11F0FF01A17005D052
:100DF00001F056FF0D2010BD0E2010BD01F050FF78
:100E0000FFF7EAF9002010BD70B5214C0546E078E7
:100E100008B1272070BD01F03FFF064695B1A078CC
:100E200020B1304601F03CFF072070BDE06806218C
:100E300080F854102946FFF7DFFB1F48E168FFF7F1
:100E4000ABFA03E01C48E168FFF72EFF304601F0E3
:100E500027FFFFF7C1F92DB1E068BDE87040002120
:100E6000FFF7AABB002070BDF0B4094CE47814B1C0
:100E70002720F0BC704742F20F74A14201D93920FB
:100E8000F7E74FF47A75A84226D33820F1E700003F
:100E9000000000108C0B00108C07001074696D6549
:100EA000725F6F626A6563740000000074696D654B
:100EB000725F73656D000000B00000101C0300102D
:100EC00069646C655F7461736B00000074696D65C3
:100ED000725F6D757465780064244FF4FA76B6FB22
:100EE000F4F633446343B3FBF5F34FF461656843B1
:100EF000C1EB011100EB8100104400FB043008B18C
:100F0000F0BC81E73A20B4E770B5044601F0C4FEB6
:100F10000546F748C1688C4206D1807820B1284642
:100F200001F0BEFE072070BD94F85410012008297E
:100F300024D2DFE801F00410151818180D18E07617
:100F4000042084F854002146EA48FFF725FA1AE005
:100F5000E076072001E0E076052084F8540012E0F6
:100F6000E0760320F9E7E07E401CC0B2E076FA2884
:100F700009D3284601F094FE112070BD284601F0E7
:100F80008FFE102070BD284601F08AFEFFF724F97D
:100F9000002070BD18B1417E3D2902D0B4E7252064
:100FA00070472E20704770B5044601F075FE054667
:100FB00094F85400082837D2DFE800F0040404262F
:100FC000091E0416284601F06BFE122070BDE07E5B
:100FD000401E10F0FF00E0761FD184F85400214637
:100FE000C448FFF773FA18E0E07E401E10F0FF00DF
:100FF000E07612D106200EE0E07E401E10F0FF00E9
:10100000E0760AD1012006E0E07E401E10F0FF00ED
:10101000E07602D1022084F85400284601F040FE18
:10102000FFF7DAF8002070BD284601F039FE1020E5
:1010300070BD00B1B7E7252070472DE9F04788461D
:101040000146806D91464746002648B1427B022A00
:1010500006D1027E032A03D1407E002800D906462D
:101060004446CD6913E0287E022806D003280AD121
:101070006C7EB44207D9264605E0284601F090FA76
:1010800008B92868447DBC4200D227466D69002D0E
:10109000E9D1B04505D21A2189F800103046BDE8E3
:1010A000F087002189F800103846F8E7F8B50446C3
:1010B0008F4815460F46C07808B12720F8BD8CB17F
:1010C00085B1607E3D280FD23D2F0DD001F0E4FDAB
:1010D00006466A4639462046FFF7AFFF9DF80010E6
:1010E00071B903E02520F8BD2B20F8BDA776014695
:1010F000607E28702046FFF780F98DF8000028B147
:10110000304601F0CDFD9DF80000F8BD304601F0FD
:10111000C7FDFFF761F80020F8BD70B5C66906E0AD
:101120002046666901F03CFA20B1002020613400BD
:10113000F6D170BD25682D1F2846FFF79EFB25615F
:10114000E8696061EC61207E0328F0D1687E617EF1
:101150008842ECD92846FFF750F9E8E770B504005B
:1011600004D0634EF07818B1272070BD252070BDE3
:10117000607E3D280CD001F08FFD0546F06884426A
:1011800008D1B07830B1284601F08AFD072070BD43
:101190002D2070BD2046FFF7C0FF94F854000826AC
:1011A000082829D2DFE800F0040D0D0D180D0909FB
:1011B00021465048FFF7F0F80EE02046FFF73FF8D1
:1011C0000AE02046FFF73BF8201D01F0F7F984F80C
:1011D00054602046FFF76AF984F8546004F1200057
:1011E00001F0ECF9204601F04DFE284601F058FDD3
:1011F000FEF7F2FF002070BD284601F051FD1020DF
:1012000070BD70B514460D46064601F045FD06EB6F
:101210008401CD60BDE8704001F042BD00EB81006B
:10122000C068704770B50D46040004D03048C078DF
:1012300018B1272070BD252070BD01F02DFD15B11E
:101240002946656101E032216161216101F028FDDB
:10125000002070BD70B50C46050005D0012C05D0EE
:10126000022C03D0262070BD252070BD2048C078F8
:1012700008B1272070BD01F00FFD2C7601F010FDA4
:10128000002070BD70B50C46050005D024B118488B
:10129000C07818B1272070BD252070BD01F0FCFC7E
:1012A000297E217001F0FCFC002070BD2DE9F04189
:1012B000040005D00E48C07820B12720BDE8F08199
:1012C0002520FBE701F0E8FC074694F854000025D0
:1012D0000126082838D2DFE800F02D1B1B1B041B59
:1012E0000F0F84F8545021460248FFF7EFF821E031
:1012F00000000010B00000102046FEF7A0FF2146BD
:10130000F748FFF7E3F884F8545084F8556011E08B
:101310002046FEF794FF201D01F050F92146F048C9
:10132000FFF7D4F884F8545084F855602046FFF74E
:10133000BDF8A565384601F0B3FC204601F0A3FDD9
:10134000FEF74AFF0020B9E7384601F0A9FC10205B
:10135000B4E7E448C06870472DE9F0410446E1482D
:1013600017460E46C07808B12720A7E701F094FC85
:101370008046206809E005680EB1001FB0471FB124
:101380002068001FFFF779FA2846A042F3D14046B3
:1013900001F086FCFEF720FF00208FE740F6B270D8
:1013A000704770B55500049CA54201D9302070BD2E
:1013B00020B12BB113F0030F0AD103E0252070BD3B
:1013C000232070BD14F0030F02D112F0030F01D0DF
:1013D000332070BD1E1981600025194604E005F117
:1013E000010504D00C6021468C18B442F7D94FF0A7
:1013F00000040C6005614FF00701C0E9052341734B
:10140000204670BD70B50D46040005D035B1607B37
:10141000072805D0362070BD252070BD232070BD63
:1014200001F03AFC0146206938B1401E2061A069F4
:1014300028600068A061002402E000201D242860CC
:10144000084601F02DFC204670BD70B50D00044625
:1014500005D024B1607B072803D0362070BD25203D
:1014600070BD01F019FCA1692960A5612169491CC1
:10147000216101F015FC002070BD10B520B11AB13A
:10148000642B03D2312010BD232010BD12F0030FB6
:1014900002D113F0030F01D0332010BD8160002171
:1014A000C0E90621A3F10801016102214161D118BF
:1014B0008D4B41F8043C41F8082D11608B49516077
:1014C00006214173002010BD2DE9F0410F460400B4
:1014D00005D027B1607B062803D03620EEE6232016
:1014E000ECE622F0030000F104087E48C56801F034
:1014F000D3FBE56101F0D4FB4146204601F097F8AB
:10150000064601F0C9FB16B100243E6005E0E16922
:10151000A942EED100211D24396001F0C1FB204613
:10152000CCE670B5040005D021B1607B062803D05D
:10153000362070BD232070BDA1F1080501F0ACFB81
:101540006849C968E161694969602A682169521B73
:101550001144A561216101F0A3FB002070BD48B1D9
:1015600000604060002303730261816009214173C0
:1015700018467047252070472DE9F0479946DDF859
:1015800020A014460F46050006D0DFF8588198F8D1
:10159000030018B1272082E5252080E5022C06D023
:1015A0002CB1032C03D0012C01D02F2077E501F0C2
:1015B00073FB0646687B092804D0304601F070FBB7
:1015C00036206CE5A007286903D537EA000002D071
:1015D0000EE038420CD02969C9F80010E00702D0AB
:1015E0002869B8432861304601F05AFB002056E5CF
:1015F000BAF1000F07D098F8020048B1304601F068
:101600004FFB07204BE5304601F04AFB062046E53C
:10161000D8F80C105246284681F86440C1E91A797E
:10162000FFF706F8304601F03BFBFEF7D5FDD8F892
:101630000C00BDE8F0470021FEF7BEBF2DE9F041E8
:1016400016460C46054601F027FB8046687B0928B4
:1016500004D0404601F024FB36202FE6B00706D523
:10166000286920402861404601F01AFB24E02E69D9
:1016700026432E612F6818E03C1F3F6894F86400F1
:101680008007A06E02D5B0430FD101E030420CD0EC
:10169000E06E06602046FFF7F0F894F86400C0079B
:1016A00003D02869A16E88432861AF42E4D1404647
:1016B00001F0F6FAFEF790FD0020FFE520B1022AC6
:1016C00004D01AB12F20704725207047B6E770B5B7
:1016D00004000DD00348C07860B1272070BD000021
:1016E000B000001000000010ABDCCDABDBECFDFE69
:1016F0002520F3E701F0D0FA0546607B092804D0E5
:10170000284601F0CDFA3620E8E70026667303E0AC
:101710002068001FFFF702FB204600F041FF002871
:10172000F6D02846266101F0BBFAFEF755FD0020F1
:10173000D4E770B504000AD001F0AEFA0546607B2C
:10174000022806D0284601F0ABFA3620C6E725204D
:10175000C4E700206073206938B12146FEF77AFEA5
:1017600003E02068001FFFF7D9FA204600F018FFB9
:101770000028F6D0284601F093FAFEF72DFD002050
:10178000ACE710B5A8B1B2B1BBB10060C0E90101CE
:101790000021017302EB8304C0E904248261C26169
:1017A000C0E908318162C1620163032141730020F5
:1017B00010BD252010BD232010BD292010BD70B5FF
:1017C0000546FB480C46C07808B1272086E701F0A3
:1017D00063FA2C6301F064FA00207FE72DE9F04101
:1017E0001F4690460E46044601F056FA0546607BB9
:1017F000032804D0284601F053FA36205EE5D4E9E8
:101800000801814209D3284601F04AFA226B12B13D
:101810003146204690470B2050E5204600F0C0FEA0
:1018200030B3606A401C6062A16A884200D9A0623D
:10183000B8F1020F11D02169E069884201D16069D5
:10184000E061001FE0610660284601F029FAE16AC4
:1018500009B120468847002030E5A069011DA1613B
:101860000660D4E905018142EED12069A061EBE771
:101870002FB90AE020683146001FFFF74AFA2046D8
:1018800000F08EFE0028F5D004E020683146001FED
:10189000FFF73FFA284601F003FAFEF79DFCDAE76E
:1018A00018B121B10023012298E725207047232099
:1018B000704718B121B1002302228FE7252070471D
:1018C0002320704718B121B10023022286E725208A
:1018D00070472320704710B119B101237EE72520FE
:1018E00070472320704770B50D46040004D0B048FF
:1018F000C07818B12720F1E62520EFE601F0CCF9F9
:10190000617B032903D001F0CBF93620E6E6E562DE
:1019100001F0C6F90020E1E62DE9F047DFF89092EA
:101920000446164699F80300884620B1B8F1000F26
:1019300001D027202FE65CB166B101F0ADF9054674
:10194000607B032808D0284601F0AAF9362022E659
:10195000252020E623201EE6606A88B1E169081D83
:10196000E06162690968904201D12069E0613160FB
:10197000606A401E6062284601F092F900200AE683
:101980000027B8F1000F08D099F8021059B1284685
:10199000376001F085F90720FDE52846376001F042
:1019A0007FF90620F7E54246C8462046D9F80C10D4
:1019B000FEF73EFE284601F073F9FEF70DFC376096
:1019C0003146D8F80C00BDE8F047FEF7F5BD10B57C
:1019D000040008D001F060F9617B032905D001F013
:1019E0005FF9362010BD252010BDD4E908128A42C7
:1019F00001D3462400E0472401F052F9204610BDEF
:101A000010B5040004D06A48C07818B1272010BD72
:101A1000252010BD01F040F9617B032903D001F0BE
:101A20003FF9362010BD2169A161E16100216162A9
:101A300001F036F9002010BD70B5040004D05C48F8
:101A4000C07818B1272049E6252047E601F024F99F
:101A50000546607B032804D0284601F021F9362092
:101A60003CE60020607303E02068001FFFF756F992
:101A7000204600F095FD0028F6D0284601F010F928
:101A8000FEF7AAFB002029E670B50D46040009D038
:101A900055B101F001F9617B032907D001F000F98C
:101AA00036201BE6252019E6232017E6A16AA96146
:101AB000616A69612169296061696960E169E96058
:101AC000A169A960216A29612168E96101F0E8F84A
:101AD000002003E630B5039D40B14AB1DC1C34F070
:101AE000030407D09C4207D03C2030BD252030BDE8
:101AF000232030BD3B2030BD12F0030F01D0332036
:101B000030BD0060C0E9044542620022C0E90642DF
:101B10000262C0E90101027304214173104630BD25
:101B20002DE9F04716460D46044601F0B5F8824609
:101B3000607B042804D0504601F0B2F836202AE534
:101B4000A169301D814236D3204600F029FD88B3BB
:101B5000A846F01CA16920F00300D4E90857081A30
:101B6000001FA0617E5120692D1DA84200D80025CC
:101B7000A0EB0509B14508D278194A46414601F063
:101B800089F9C844A6EB0906002578193246414672
:101B900001F080F9F61C26F00300216928448142F7
:101BA00000D800202062504601F07AF80020F2E4CC
:101BB0000000001004E0504601F072F83D20EAE415
:101BC000246832462946206C241F01F063F9204620
:101BD000E664FEF752FE504601F062F8FEF7FCFAAA
:101BE000E4E728B131B14369934205D23E20704702
:101BF000252070472320704792E72DE9F84FF94ED2
:101C000004469B46F07815460F4610B12720BDE8E4
:101C1000F88F5CB165B101F03FF80090607B04285B
:101C200008D0009801F03CF83620F0E72520EEE7D8
:101C30002320ECE7A1692069814207D1BFB3B078C6
:101C4000B0B3009801F02CF80720E0E7A846676AD7
:101C5000E5697E592D1DF21C22F00302121D11446C
:101C6000B246A161A84200D80025401B8146B0427F
:101C700008D202467919404601F00CF9C844A6EB97
:101C80000906002579193246404601F003F9F61C91
:101C900026F0030021692844814200D80020E06139
:101CA000CBF800A0009800F0FBFF0020AFE700E0B9
:101CB00004E0009800F0F4FF0620A8E7F1683A4637
:101CC00020464D64FEF7B4FC009800F0E9FFFEF7F3
:101CD00083FA0021F068FEF76FFC002897D1F168C5
:101CE000CA6CCBF8002092E710B50446BD48C07816
:101CF00008B1272010BD44B100F0CEFF617B04295C
:101D000005D000F0CDFF362010BD252010BD216983
:101D1000A1610021E161216200F0C2FF002010BD3D
:101D200070B5040004D0AF48C07818B12720D5E4BE
:101D30002520D3E400F0B0FF0546607B042804D0E2
:101D4000284600F0ADFF3620C8E40020607303E0B1
:101D50002068001FFEF7E2FF204600F021FC00286B
:101D6000F6D0284600F09CFFFEF736FA0020B5E4D6
:101D700070B515460E4604000AD04EB145B100F0CC
:101D80008BFF617B042905D000F08AFF3620A5E493
:101D90002520A3E4A16931602169296000F080FF5A
:101DA00000209BE410B570B17AB183B10060C0E946
:101DB000010100210173816281614362026102F1CC
:101DC0000C04C16209E0252010BD232010BD29208C
:101DD00010BDE2E802410C3402C25B1EF9D1116071
:101DE0005160916005214173002010BD70B505461A
:101DF0007C480C46C07808B127206FE400F04CFF07
:101E0000EC6200F04DFF002068E42DE9F0471E462B
:101E1000174688460446DDF8209000F03DFF054651
:101E2000607B052804D0284600F03AFF362081E583
:101E3000D4E9090181420AD3284600F031FFE36A60
:101E40001BB13A464146204698470B2072E5204692
:101E500000F0A6FBF0B1206901682161A16A89B197
:101E6000022E11D0216A01602062A16A491CA16280
:101E7000A269914200D9A161C0E90187284600F01A
:101E80000FFF22E0E061EFE7E169086000210160F7
:101E9000E061EAE7B9F1000F06D10BE020683A46AD
:101EA0004146001FFEF737FF204600F079FB00286F
:101EB000F4D005E020683A464146001FFEF72BFFAC
:101EC000284600F0EDFEFEF787F9002032E52DE907
:101ED000F047DFF810A104461D469AF803001646A5
:101EE000894620B1B9F1000F01D0272022E564B165
:101EF0006EB165B100F0D0FE0746607B052808D0C2
:101F0000384600F0CDFE362014E5252012E52320CA
:101F100010E5A06A4FF00008B0B1206A4168316056
:101F2000816829600168216211B1A16A491E02E03D
:101F30004146C4F81C80A1622169016020613846D5
:101F400000F0AEFE0020F5E4B9F1000F0BD09AF8D6
:101F5000021089B1C6F800803846C5F8008000F04C
:101F60009FFE0720E6E4C6F800803846C5F80080EA
:101F700000F096FE0620DDE44A46D1462046DAF817
:101F80000C10FEF755FB384600F08AFEFEF724F9E8
:101F90000021D9F80C00FEF70FFB20B1C6F8008035
:101FA000C5F80080C6E4D9F80C20926C2A60D9F8F4
:101FB0000C10496C3160BDE408B530B139B1002373
:101FC00000930123FFF721FF08BD252008BD232032
:101FD00008BD08B540B149B1002300930223FFF7C3
:101FE00014FF08BD000000102520FAE72320F8E7C1
:101FF00038B528B131B101240094FFF706FF38BD90
:10200000252038BD232038BD10B5040008D000F0CD
:1020100043FE617B052905D000F042FE362010BD4D
:10202000252010BDD4E909128A4201D3482400E0DA
:10203000492400F035FE204610BD10B5040004D040
:10204000FB48C07818B1272010BD252010BD00F036
:1020500023FE617B052903D000F022FE362010BD4F
:10206000A16A41B1E16922690A60216A2161002106
:10207000A1622162E16100F013FE002010BD70B585
:10208000040004D0EA48C07818B1272033E42520A2
:1020900031E400F001FE0546607B052804D02846A7
:1020A00000F0FEFD362026E40020607303E0206887
:1020B000001FFEF733FE204600F072FA0028F6D02B
:1020C000284600F0EDFDFEF787F8002013E42DE927
:1020D000F0411D4617460E4604000BD066B15DB1B7
:1020E00000F0DAFD617B052908D000F0D9FD36202B
:1020F000BDE8F0812520FBE72320F9E7D4E90912A8
:10210000891A3160A16A2960A169396000F0C8FDAF
:102110000020EDE770B50E46044600F0BDFD054613
:10212000607B012804D0284600F0BAFD36208AE4FE
:10213000204600F035FAB0B12069411C0ED0401C99
:1021400020616169884200D96061284600F0A8FDDD
:10215000A16909B120468847002074E4284600F0B0
:102160009FFD15206FE426B909E02068001FFEF7E7
:1021700084FB204600F014FA0028F6D003E0206823
:10218000001FFEF77AFB284600F08AFDFEF724F8D0
:10219000E2E708B10021BDE72520704708B1002122
:1021A000B8E72520704708B10121B3E72520704723
:1021B00070B50D46040004D09D48C07818B12720A2
:1021C00041E425203FE400F067FD617B012903D055
:1021D00000F066FD362036E4A56100F061FD0020C8
:1021E00031E470B5040004D09148C07818B12720BC
:1021F00029E4252027E400F04FFD0546607B0128F7
:1022000004D0284600F04CFD36201CE4002060730A
:1022100003E02068001FFEF781FD204600F0C0F9B2
:102220000028F6D0284600F03BFDFDF7D5FF002042
:1022300009E4FEB57E4E7F490025F068C46A206837
:10224000884208D00023009501951A46194645207A
:10225000029500F063FEF0680068A04208D20023F7
:10226000009501951A4619464520029500F056FE44
:10227000FEBD38B500F004FE6D4DE87840B9002091
:102280008DF8000000F008FD9DF800000028FBD04C
:1022900000F002FD0446E878401E10F0FF00E870F0
:1022A0000AD1A87840B96448FDF78EFFD5E902014C
:1022B000884201D000F014FD2046BDE8384000F00F
:1022C000EFBC5B498869401E886103D101208861A9
:1022D0005A485EE77047006E5BE710B500F0D6FD28
:1022E00056483830006EFFF754FF5148C068407EB2
:1022F000FEF7E9FCBDE81040E3E70EB500F0CCFCCA
:102300004B4AD17864290DD300F0CAFC002000901C
:10231000019003460246014602903F2000F0FEFD78
:102320003F200EBD491CD17000F0BAFC00200EBD4C
:102330003F480069704770B53D4D0446E87808B1E4
:102340002720F4E400F0A8FC2C6100F0A9FC002098
:10235000EDE430B41C46029B1546C1650846224692
:10236000294630BC1EE530B40446314813460A46BF
:10237000C0682146C06D30BCA9E5C06D1CE6C06DCB
:1023800027E6C06D59E6C06D79E6C06D9FE6006E28
:10239000FEF78BBB006E24E738B5040004D0244D53
:1023A000E87818B1272038BD252038BD94F82900D9
:1023B000082801D0362038BD94F82800022826D0FD
:1023C000032824D01D4861624FF0FF311C30FEF716
:1023D000D5FA40B100208DF8000000F05DFC9DF8BA
:1023E00000000028FBD0E06969690144C4E90510D8
:1023F0000F4821463030A06000F009F9022084F82F
:1024000028000E481C30FEF767FA002038BD212056
:1024100038BD2DE9F0410D46DDE90761069C78B134
:1024200082B18CB1024FFF7887B1272060E60000AF
:1024300000000010AFBEADDEB00000108C0B00102D
:10244000252055E6232053E6222051E64362C0E9C9
:10245000035200F11807002287E85400012442616A
:1024600080F82840826000604060082280F82920BF
:1024700011B11946FFF790FF002039E6F8B515466F
:102480000E46040004D09948C07818B12720F8BD42
:102490002520F8BD94F82900082801D03620F8BD81
:1024A00094F82800012801D02120F8BD4FF0FF3119
:1024B0008F48FEF763FA40B100208DF8000000F06D
:1024C000EBFB9DF800000028FBD0C4E907658848B5
:1024D000FEF702FA0020F8BD38B5040004D08348A6
:1024E000C07818B1272038BD252038BD94F82900C0
:1024F000082801D0362038BD94F8280001281BD0C8
:10250000032819D04FF0FF317948FEF737FA40B170
:1025100000208DF8000000F0BFFB9DF800000028AF
:10252000FBD0204600F068F8012084F828007048AD
:10253000FEF7D2F9002038BD212038BD38B504009F
:1025400004D06A48C07818B1272038BD252038BD8E
:1025500094F82900082801D0362038BD94F82800C6
:1025600003281BD04FF0FF316148FEF707FA002522
:1025700038B18DF8005000F08FFB9DF80000002866
:10258000FBD084F82950204600F036F8032084F868
:1025900028005748FEF7A0F9002038BD212038BD9B
:1025A0000168814201D101207047002070474268D4
:1025B000C1E900024268116041607047D0E9001231
:1025C000116003C84160704730B402464B7E00681A
:1025D00003E0447D9C4202D800689042F9D130BCAF
:1025E000091DE4E700EBD10001F007020121914051
:1025F00002780A430270704710B5044680680028CC
:1026000004D02046FFF7DAFF0020A06010BD30B4F0
:10261000364B04468A6900685B6904E04569ED1A37
:10262000954202D80068A042F8D130BCBFE72DE93E
:10263000F0478846054600F02FFB2A6901464245CF
:1026400004D8084600F02CFB00203FE4D5E90564DF
:102650000027DFF8A090DFF894A0761C606848455A
:1026600012D12068071B083F474521D24368002745
:102670004B4505D1006820606869401E686104E030
:10268000046826B1761E00E0246806B1761E08466E
:1026900000F006FB00F000FB0146EA69DAF80C00E6
:1026A000824203D0D5E90564761CE861002ED5D1BD
:1026B000AFB1A7EB0800142809D304EB0800226887
:1026C000E0E902296A694746521C6A6120600A48AB
:1026D00060602869C01B08380834286100E00024C5
:1026E000084600F0DDFA20460EE40000000000106D
:1026F000A80B0010DBECFDFEABDCCDAB2DE9F84305
:10270000154688460446561E4FF0000701D3354251
:1027100007D08DF8007000F0BFFA9DF80000002887
:10272000FBD02760C4F80C806760022D03D2012023
:10273000A760BDE8F8832561A66000206561F8E721
:102740002DE9F04115460F46044600F0A5FA8046F3
:10275000D4E90020111AA068411A491C8D4200D901
:102760000D46411C10400E1AAE4200D32E46E168C1
:1027700032460844394600F08DFBAA1BB919E068BF
:1027800000F088FB2068284420602069401B2061FD
:10279000404600F085FA2846BDE8F0812DE9F04179
:1027A00004461546D4E90002801A0F46854200D936
:1027B0000546A068411C10400E1AAE4200D32E46BA
:1027C000E16832460144384600F064FBAA1BB819A0
:1027D000E16800F05FFB2846DEE72DE9F041144692
:1027E0000D46064600F058FA07462246294630466E
:1027F000FFF7D4FF0446384600F052FA2046CBE7F4
:102800002DE9F04117460D46044600F045FA06460C
:102810003A4629462046FFF7C1FF0546606828442E
:102820006060206928442061304600F039FA28466B
:10283000B2E770B50D46044600F02EFA0646D4E91C
:1028400004010A1A0FD029462046FFF7A7FF0546C4
:10285000606828446060206928442061304600F0A8
:102860001FFA284670BD304600F01AFA002070BDED
:10287000F8B50C4606004FF0000507D18DF8005062
:1028800000F00AFA9DF800100029FBD03CB98DF841
:10289000005000F001FA9DF800000028FBD06748C6
:1028A000C4E9006501684C600460F8BD2DE9F84F8B
:1028B0004FF0000492468B465FEA0008254607D198
:1028C0008DF8005000F0E8F99DF800000028FBD0DA
:1028D000BBF1000F07D18DF8005000F0DDF99DF835
:1028E00000000028FBD0BAF1000F07D18DF800508E
:1028F00000F0D2F99DF800000028FBD04F4E706820
:10290000A8BB06F10C0014E000680068814600F0E6
:1029100089F80746404600F085F8B84201D90246DA
:1029200000E03A464946404600F0F3F828B17068A6
:10293000406870600028E7D136E0D6F804C0DCF8C3
:10294000000090F90C70002F0EDB002240460121A0
:1029500003E0202B12D00121401C90F90030002B05
:10296000F7D1BA4200D00124BCF1000F1CD052466E
:1029700054B13349584600F094F813E00029EBD0E5
:10298000521C52B20021E7E70021584600F0A7FA96
:102990007068424651460068836858469847044626
:1029A000012807D1756005E052462649584600F0D7
:1029B00078F801242046BDE8F88F30B500231D4685
:1029C000136017E0401C90F90040ACB1202CF9D105
:1029D00010F9014F84B1202CFAD05B1C8B4209D135
:1029E00005461168491C116010F9011F21B1202909
:1029F000F7D101E08B42E6DB284630BD10B50F4C25
:102A00000A46A16811B904F10C01A160096849687E
:102A100000F047F8A0684068A06008B1002010BD31
:102A2000012010BD014600E0491C91F900200AB1C7
:102A3000202AF9D1081AC0B27047000040000010E7
:102A40002C4300148843001410B5884208D803466C
:102A500003E011F8014B03F8014B521EF9D210BDEF
:102A60008418114403E011F8013D04F8013D521EA1
:102A7000F9D210BD10B5002306E003780C781B1BBB
:102A800004D1401C491C521E002AF6D1184610BD24
:102A9000034611F8012B00F8012B002AF9D1184642
:102AA000704710B5034605E00C781C7004B1491C52
:102AB000521E5B1C002AF7D110BD034600E0401CEB
:102AC0000278002AFBD111F8012B00F8012B002A13
:102AD000F9D11846704710B504460AB90CE0401CFD
:102AE0000378002BFBD101E0521E07D011F8013B07
:102AF00000F8013B002BF7D1204610BD00210170EA
:102B0000FAE7014600E0491C0A78002AFBD1081ABE
:102B1000704710B50EE010F8013B11F8014BA342CD
:102B200006D0A34202D24FF0FF3010BD012010BDED
:102B300013B1521E002AEED1002010BD10F8012B57
:102B400011F8013B9A4206D09A4202D24FF0FF3070
:102B5000704701207047002AF0D1002070472DE90E
:102B6000F04389460FF2081C0026012700E0401CB4
:102B700001782029FBD00929F9D0C9B22B2903D02B
:102B80002D2902D14FF0FF37401C102A01D072B11D
:102B900011E0017830290ED110F8011FA1F1610375
:102BA000192B00D8203958292ED1401C03E0017878
:102BB000302905D00A22911E232925D30A2223E099
:102BC00010F8011FA1F16102192A00D820395829F3
:102BD00001D00822EFE71022E7E7644600210CE06D
:102BE000A3F16105192D01D8413500E01D4694F887
:102BF0000080454503D0491C641C9142F0DB9142A2
:102C000005DA06FB0216401C0378002BE5D1B9F16A
:102C1000000F01D0C9F8000006FB07F0BDE8F08303
:102C200070B504460E460846FFF76BFF05461AE0EE
:102C30003178884212D1204600E0401C0378202BD6
:102C400001D9232BF9D1001BA84207D12A463146CE
:102C50002046FFF70FFF08B9204670BD207828B145
:102C6000641C0A28FAD120780028E1D1002070BD28
:102C700030313233343536373839414243444546B2
:102C80004748494A4B4C4D4E4F505152535455565C
:102C90005758595A00000000EFF3108072B6704781
:102CA00080F31088704772B6704762B670471F484D
:102CB0004FF0FF010170002080F30988EFF30880D6
:102CC000C008C00080F3088819484FF080510160A7
:102CD00062B6FEE700BF16484FF0805101607047B2
:102CE00013484FF080510160704772B6EFF30980CE
:102CF00060B120ED108B203880E8F00F0D49096895
:102D0000086000B5FFF795FA5DF804EB09480A4939
:102D10000A680260106890E8F00F2030B0EC108B69
:102D200080F309884EF0040E62B6704722ED00E091
:102D300004ED00E00C0000100800001000EB810022
:102D400020F00700AA2140F8041C0A2140F8081CC2
:102D5000152140F80C1C142140F8101C132140F8D8
:102D6000141C122140F8181C112140F81C1C1021C1
:102D700040F8201C092140F8241C082140F8281C98
:102D8000072140F82C1C062140F8301C052140F892
:102D9000341C042140F8381C032140F83C1C02215B
:102DA00040F8401C012140F8441C002140F8481C18
:102DB0004FF0807140E914316FF0010140F8541C6C
:102DC0004FF0123140F8581C4FF0033140F85C1CB2
:102DD0004FF0023140F8601C491040E91A213121BE
:102DE00040F86C1C302140F8701C292140F8741CFC
:102DF000282140F8781C272140F87C1C262140F827
:102E0000801C252140F8841C242140F8881C2321A3
:102E100040F88C1C222140F8901C212140F8941C81
:102E2000202140F8981C192140F89C1C182140F8DA
:102E3000A01C172140F8A41C162140F8A81C4FF034
:102E4000113140F8AC1C4FF0103140F8B01C4FF07D
:102E5000093140F8B41C4FF0083140F8B81C4FF06D
:102E6000073140F8BC1C4FF0063140F8C01C4FF051
:102E7000053140F8C41D4FF0043140F8041D70477F
:102E8000704770477047704770477047704770478A
:102E900030BF704710B50346102A1DD38C071BD1D5
:102EA000840719D110C9103A10C310C9102A10C3D1
:102EB00051F8084B43F8084B51F8044C43F8044CC4
:102EC000F0D202E010C9121F10C3042AFAD203E0A4
:102ED00011F8014B03F8014B521EF9D210BD10B589
:102EE0000346042A17D3840715D141EA012444EA92
:102EF000044406E010C3103A10C343F8084B43F8EB
:102F0000044C102AF6D201E010C3121F042AFBD28F
:102F100001E003F8011B521EFBD210BD08B50021D1
:102F20003F2827D044280CD0452813D04A288DF8B4
:102F3000001018D0FFF7B0FE9DF800000028FBD06D
:102F400008BD8DF80010FFF7A7FE9DF800000028CF
:102F5000FBD008BD8DF80010FFF79EFE9DF8000025
:102F60000028FBD008BDFFF797FE9DF80000002861
:102F7000FBD008BD8DF80010FFF78EFE9DF8000015
:102F80000028FBD008BD00000A4880470A480047D7
:102F9000FEE7FEE7FEE7FEE7FEE7FEE7FEE7FEE709
:102FA000FEE7FEE7FEE7000004480549054A064B38
:102FB00070470000CD2F00141501001418190010DF
:102FC00018200010181A0010181A0010044810B524
:102FD0000449016000F070FFBDE8104000F06ABCD9
:102FE00008ED00E00000001410B5FFF786F9FFF7C8
:102FF00074F9BDE81040FFF73CB910B500F0DAFEF7
:103000009C4864210068B0FBF1F0401EB0F1807F65
:103010000AD24FF0E02460610721601700F01AF92E
:103020000020A0610720206110BDF8B514460D46B0
:103030000A4606460021FFF752FF21468E48FDF75B
:1030400019FB040002D0092C12D012E08A48314644
:103050001C30FFF7EEFB0446A8420ADD00208DF885
:103060000000FFF719FE9DF800000028FBD000E0EB
:1030700000242046F8BD2DE9F047C0B0342132A825
:1030800000F0A2FAC821684600F09EFA0024621EF1
:10309000322132A8FFF7C9FF774E002781460DF194
:1030A000C80AB436754D0FE01AF804100D2910D077
:1030B0000A2914D0286808293AD03154401C2860C5
:1030C0006FA000F0DBF9641C4C45EDDB40B0BDE8BF
:1030D000F0870AEB040040780A2800D1641C2868B5
:1030E000375468A000F0CAF9307890B16248C8221D
:1030F0006946B430FFF7DAFB8046694662A000F00B
:10310000BDF9C82200216846FFF7E9FEB8F1000FBB
:10311000ECD05FA000F0B2F95EA000F0AFF9564825
:103120004FF480720021B430FFF7D9FE2F60CAE758
:103130000028C8D0401E2860375459A000F09EF9DE
:10314000C1E700B589B0FFF7D8F8002255486B46B3
:1031500003E001689954521CD2B24169C907F8D101
:10316000454819461C30FFF7EBFA4348FFF711F8C2
:1031700009B05DF804EBFFF77CB808B5FFF73DFF39
:10318000002249A13C48FDF73FF83B4980223431F9
:10319000A1F11800FFF7B2FA45486A463C210068E1
:1031A000FDF784FF3F4C204600F09AFB204600F0DC
:1031B000B7FD4FF4E131204600F0D8FD0120E06575
:1031C0000F20A06001211B2000F044F81B2000F01C
:1031D00036F8606840F00500606001211B2000F0B7
:1031E00039F81B2000F02BF800F0BDF800F0C0F813
:1031F00000F020F926A000F041F926A000F03EF9E9
:10320000FFF739FFFCE700B585B0FDF70AFD0123A4
:10321000AFF2990227480DF1040C4FF4C8718CE805
:103220000F000020024600901348022322A17038AC
:10323000FDF76FFAFDF726FD05B0002000BD00F098
:103240001F02012191404009800000F1E020C0F8F8
:10325000001170474907090E002806DA00F00F0038
:1032600000F1E02080F8141D704700F1E02080F8A4
:1032700000147047A4000010001700105400001044
:10328000256300000A0000000D0A257300000000FD
:103290000D0A00007261776F732023200000000088
:1032A0000820080000200C40755F73656D61000008
:1032B0000C000010501000107461736B310000009E
:1032C00070B50346002002466FF02F051C7807E01A
:1032D0009E5C00EB800005EB4000304480B2521C45
:1032E000002C01D08A42F3DB70BD30B514469BB090
:1032F00019AA01212046FFF760FB01466846199A8A
:10330000FFF7C8FD199A002002210DF8020019AA42
:103310002046FFF752FB1999FFF7D2FF054619AA7D
:1033200003212046FFF749FB1999FFF7C9FF04461F
:1033300012A000F0A3F8694611A000F09FF82946FA
:1033400017A000F09BF821461DA000F097F81BB0D5
:10335000012030BD10B509A000F090F820A000F0C9
:103360008DF8012010BD284901F12000FFF780BA37
:103370002549083101F10800FFF77ABA0D00000075
:1033800054686520666972737420706172616D653E
:10339000746572732069732025730D0A00000000A4
:1033A000546865207365636F6E6420706172616D2F
:1033B00065746572732069732025640D0A0000002E
:1033C00054686520746869726420706172616D650B
:1033D000746572732069732025640D0A0000000073
:1033E000636F6D6D616E645F636173655F6E6F5F68
:1033F000706172616D65746572732072756E6E694D
:103400006E670D0A0000000058000010F8B50B4E62
:1034100034680BE054F8205969462046FDF7ADFCAE
:10342000216D07A0009A00F029F82C46B442F1D192
:103430000120F8BD0F491048FFF71ABA38000010F4
:103440000D0A7461736B206E616D652069732025B0
:1034500073202A2A2A207461736B206672656520A6
:10346000737461636B2073697A65206973202564C6
:103470000000000088000010383F00140FB4044919
:1034800010B503AA029800F039F910BC5DF814FBDE
:10349000900000102DE9F0410E4604460020206205
:1034A0002046E168884730B3252805D0D4E90121BA
:1034B0009047206A401CF2E7E168204600278847D1
:1034C000050018D0A5F14100192802D820354FF485
:1034D00000673246294620462760FCF755FE40B17A
:1034E000012804D0F61D26F007060836D8E7361D59
:1034F000D6E72846DAE7206ABDE8F08170B50C46C9
:103500000546012A05D02878800600D5EA690023FF
:1035100002E0012305E05B1C934202D2E05C00283C
:10352000F9D1A869E618C01AA861286A1844286267
:103530002846AFF3008004E0D5E9012114F8010B1F
:103540009047B442F8D32846AFF3008070BD000026
:103550002DE9F0410646002410687529314616A56C
:1035600010D0AFF30080002802DA404213A507E034
:1035700031688A0701D512A502E0490704D511A5D3
:10358000012401E0AFF3008000210A2206F12407A4
:1035900009E0B0FBF2FCB0FBF2F302FB1C003030A0
:1035A00078541846491C0028F3D123462A46304651
:1035B000BDE8F04100F032B8000000002D0000002E
:1035C0002B000000200000004FF0000200B5134661
:1035D00094469646203922BFA0E80C50A0E80C5033
:1035E000B1F12001BFF4F7AF090728BFA0E80C50E4
:1035F00048BF0CC05DF804EB890028BF40F8042BDD
:1036000008BF704748BF20F8022B11F0804F18BF49
:1036100000F8012B70477047704770472DE9F0475D
:103620000D4699469246044600F124080168880632
:1036300004D5E06921F01001216000E00120A842DA
:1036400001DD471B00E00027A1697A1902EB0900A0
:10365000081AA0612078C00602D42046AFF300808B
:10366000002608E0D4E901211AF806009047206AF4
:10367000401C761C20624E45F4DB2078C0060AD53B
:103680002046AFF3008006E0D4E9012130209047C6
:10369000206A401C2062381EA7F10107F4DC07E015
:1036A000D4E9012118F805009047206A401C2062E7
:1036B000281EA5F10105F3DC2046AFF30080207839
:1036C000000602D50220BDE8F0870120FBE710B517
:1036D000436913B1AFF3008001E0FFF70FFF012052
:1036E00010BD127800F124010A7000224A700122F4
:1036F000EDE711684FF0FF32E9E70000074B70B5C6
:103700000D467B4400F011F80446284600F0D0FB3B
:1037100010B14FF0FF3070BD204670BD03080000AF
:1037200001694A1C02610878704700B58FB0CDE985
:1037300001310021059105497944CDE90310114675
:103740006846FFF7A7FE0FB000BD0000E5FFFFFFD2
:10375000754600F02BF8AE4605006946534620F04A
:103760000700854618B020B5FFF71EFCBDE82040D5
:103770004FF000064FF000074FF000084FF0000B2D
:1037800021F00701AC46ACE8C009ACE8C009ACE8E0
:10379000C009ACE8C0098D46704710B50446AFF3C8
:1037A00000802046BDE81040FCF708BD0048704787
:1037B000B418001070B52748274AB0FBF2F1274A29
:1037C000126822F4704242EA0132254BC3F82021EC
:1037D000224A121D126822F4704242EA0132C3F8F2
:1037E000242100BF01220146062000F06FFA0024C8
:1037F00011E01C4D05EB8405EB781A4D05EB8405B3
:10380000AA78184D05EB84056978164D15F8240043
:1038100000F0F0F9641C042CEBD31148406820F050
:103820000C000F4948600846406840F003004860BB
:1038300005220921042000F001FA002301221021B1
:10384000052000F0D7F902220921104600F0F6F910
:1038500070BD000000CB280C7037480120310440B7
:1038600000300440883F001410B57C210D4800F062
:1038700015FA002004460DE00B4A02EB8402507852
:10388000094A02EB84025188084A42F8201000BF1E
:10389000601C0446042CEFD30621054800F0FEF915
:1038A00010BD0000B03F0014A0410014006C08409F
:1038B000983F001410B5FFF7D7FFFFF77BFF10BD4F
:1038C00000BF00BF0549496901F020010029F8D077
:1038D00000BF0249086000BF7047000000200C4094
:1038E00010B504460D4884420AD119220021022055
:1038F00000F0CCF9D1220121022000F0C7F90CE040
:103900000748844209D11A220321022000F0BEF99F
:10391000D2220421022000F0B9F910BD00100840A5
:1039200000200C4070B50446012009B140F00200AF
:103930000AB140F00400022B01D140F02000B4F5A0
:10394000A17F05DB044DA4F5A17645F8360002E021
:10395000024D45F8340070BD0021054000110540BE
:1039600010B502461C20002114E001EB41030F4C6E
:1039700034F8133093420CDC01EB410304EB4303B6
:103980005B88934205DB01EB410304EB43031879A9
:1039900000E0491C1C2807D101EB4103034C04EB58
:1039A00043031B798342E0D110BD00004442001460
:1039B00001461C2901DB11207047054850F82120E1
:1039C00002F0010008B11120F6E7C2F30460F3E74A
:1039D0005C00054070B504462046FFF7E9FF054648
:1039E00000F002F870BD000070B504460025122CEE
:1039F00051D2DFE804F0090C0E1620502326292CA2
:103A0000505030363C42484E4FF4004544E0244D7F
:103A100042E02448006800F00700042800D0224D4E
:103A20003AE02048006800F00700042801D01E4D4D
:103A300000E01E4D30E01E4805682DE01D48056879
:103A40002AE01D48056827E01B48456824E000F08F
:103A500069F8054620E00021204600F02FF80546D1
:103A60001AE00121204600F029F8054614E0022161
:103A7000204600F023F805460EE00321204600F022
:103A80001DF8054608E00421204600F017F8054619
:103A900002E0002500E000BF00BF284670BD000026
:103AA000001BB7002C31044040787D0180F0FA0201
:103AB000803F0014843F0014A80000102DE9F0415D
:103AC00007460C46204600F01DF80646204600F04A
:103AD00009F805463046FFF787FF691CB0FBF1F097
:103AE000BDE8F0810146044850F8210003A2525C71
:103AF00002EA90007047000048000540030F0F0FD6
:103B0000FF0000000146064B03EB8100826C02F0CF
:103B1000010008B111207047C2F30460FBE7000008
:103B2000000005402DE9FE4F1A48446CC4F30360C1
:103B3000FFF75AFF074618A0006800901548006C70
:103B400000F0010010B90020BDE8FE8FC4F3074863
:103B5000C4F30139C4F3012AC4F3C01BC4F38010B9
:103B6000029008F1010509F101061DF80A00019013
:103B7000BBF1000F01D1029818B1B7FBF6F0684312
:103B8000E2E701984000B5FBF0F0B7FBF6F14843DF
:103B9000DAE7000000000540010204082DE9F041C9
:103BA0000446B4F5A17F05DB1048A4F5A17150F8D7
:103BB000315002E00E4850F8345005F0010080B159
:103BC0002046FFF7CDFE80464046FFF703FF06463E
:103BD000C5F3421008B9012700E00227B6FBF7F64B
:103BE00000E000263046BDE8F081000000210540DD
:103BF0000011054070B504460E4E06EB8405E86DD5
:103C00001C2C10DA112914D00B4D28400AB140F4B5
:103C100000600BB140F0010040EA0160054D5C35E9
:103C200045F8240005E040F00106024D5C3545F8FA
:103C3000246070BD00000540FEF7FFE030B50F4D79
:103C400005EB8004A36C521E112910D00CA4245C37
:103C50000D4D45EA8404A34343F4006444EA01643F
:103C600044EA8205054C483444F8205005E043F00E
:103C70000105024C483444F8205030BD0000054096
:103C8000030F0F0FFF0000000100001F024B03EBAA
:103C9000C01343F8212070470060084070B5024609
:103CA00000200EE012F8203002EB8006747802EB60
:103CB00080067588044E06EBC31646F8245000BFF4
:103CC000401C8842EED370BD0060084070B50446C9
:103CD0000D46164600F08EF870BDC16821F08001D7
:103CE000C1607047C16841F08001C1607047000049
:103CF0000146084A914201D1A2200AE0064A9142B7
:103D000001D1A12005E0054A914201D1822000E0C5
:103D10008120704700200C4000100C40002008401B
:103D200070B504462046FFF7E3FF064601231A4616
:103D30001946FFF7F7FD0720A06000BF00BF002075
:103D4000E06500BF6060E0602062E064606520655F
:103D50000548844202D100202061A5690320E0606B
:103D600000BF1020A06270BD002008402DE9F04780
:103D700080460E464046FFF7BBFF8246FFF70EFF28
:103D800007463001B7FBF0F4250AA4EB05294046AD
:103D9000FFF7A8FFEAB209F0FF01404600F007F87C
:103DA0004046FFF79AFFB7FBF4F0BDE8F0870160EB
:103DB0004260704710B56920FFF7F0FE01490860C6
:103DC00010BD0000A400001000BF30BFFDE708B523
:103DD0000020009008E00098401C00900098401ED1
:103DE00000900098401C00900098B0F5806FF2D3CE
:103DF00008BD000070B52948806920F004002749FB
:103E000088610846806920F001008861FFF7DFFFC4
:103E10002248406C20F07060204948640846406C9D
:103E200040F0C06048640846406C40F4006048645C
:103E30000846406C1A490840184948640846406CD6
:103E400018490843154948640846406C20F00100B1
:103E5000486400BF1148006C00F001000028F9D050
:103E6000FFF7B5FF10480D49C866FFF7B0FF002403
:103E700011E00E4D05EB8405EB780C4D05EB840548
:103E8000AA780A4D05EB84056978084D15F82400D9
:103E9000FFF7B0FE641C122CEBD370BD0000054090
:103EA0003DCC00FFC001100000080009B042001422
:103EB00001464FF0FF3070473EB50F480F4B191DBC
:103EC00000221C6801940C6800940D4D019CAC42CA
:103ED00005D10C4D009CAC4201D1012400E000242E
:103EE00022463AB104680294029C44F4700402949D
:103EF000029C04603EBD000088ED00E040EF00E061
:103F0000210011101100001110B502460C46D3B269
:103F10001846FFF7D5FC00BF002010BD4FF04070E1
:103F2000E1EE100A7047000024430014F842001428
:103F3000FD29001400000000AC4400148444001467
:103F40000D340014000000000606060606040404F2
:103F500018191A1B1C0C0D0EE50E0000DD0E0000DA
:103F600068010000ED00000008040400F0000403F4
:103F700004004001000101010106020000000000F0
:103F800000000000001BB700080301000703010048
:103F90000B0E0100030F01010303F3000304F30000
:103FA0000305F3000306F3000307F3000308F3001F
:103FB0000113F0000001B6000112B3000114B300B8
:103FC0000111F3000C01B3000110F700010FF30021
:103FD0000000F2000107F3000108F3000109F300FB
:103FE000010AF300010BF300010CF300010DF300D3
:103FF000010EF3000504F2000505F2000506F200CB
:104000000507F2000500F2000501F2000502F200CA
:104010000503F2000D02F2000D03F2000D04F200A0
:104020000D05F2000D06F2000D07F2000D08F2007A
:104030000D09F2000E05F3000E06F3000E07F30063
:104040000E08F3000E09F3000E0AF3000E0BF30046
:104050000E0CF3000209F300020AF300020BF30056
:10406000020CF300020DF3000100F2000101F20066
:104070000102F2000208F3000207F3000206F20058
:104080000202F2000201F2000200F2000608F10052
:104090000607F1000D10F2000D0FF2000E00F30004
:1040A0000E01F3000E02F3000E03F3000E04F30002
:1040B0000A04F3000104F3000606F1000D0DF200FE
:1040C0000D0AF2000609F3000106F3000604F300EE
:1040D0000605F300060BF300060CF300060AF300D6
:1040E0000D00F2000E0DF3000103F3000104F300D4
:1040F0000606F1000105F3000106F3000D0A540065
:104100000D0B54000D0C54000D0D54000D0E5400F9
:104110000900500009015000090250000F00F00092
:104120000F01F4000F02F2000F03F200040105007A
:104130000402020004050200040602000407000055
:1041400004090200040A0200070000000706030039
:104150000803030008040300080503000806030021
:10416000080703000B0002000B0102000B02020013
:104170000B0302000B0402000B0502000B060200F9
:104180000300F2000600F4000702F2000602F3004A
:104190000701F2000601F3000302120003015200BE
:1041A0000000F0000001F0000002F0000003F00049
:1041B00000093D000100000000120000002A00007C
:1041C0000046000000FFFFFF00FBFFFF000C0000A7
:1041D000003C0000003C000000460000000C000015
:1041E00000FEFFFF00000028030000003200000076
:1041F000005500000000000000000000000000006A
:1042000000000000000000000000000000000000AE
:10421000000000000000000000000000000000009E
:10422000000000000000000082000000000000000C
:1042300000410000005A0000005A00000023000066
:1042400000FCFFFF000005000A0020002400090018
:104250004000400005006000A6000400C000C3004C
:104260000200E000E0000100000100010300200165
:1042700020010600400140010C00420142011900EA
:10428000620162011300820182011200A201A201F7
:104290001100C201C2011000E201E2010F0002029E
:1042A00002020E00220222020D00230223021C0041
:1042B00000010100090901000A09010001070101CB
:1042C00002090100060901000C0901010D090100A4
:1042D0000E0901000F090100100901001109010078
:1042E0001209010013090100141101001911010044
:1042F0001A1101001B11010068656C703A204C69AD
:1043000073747320616C6C207468652072656769D2
:1043100073746572656420636F6D6D616E64730D97
:104320000A00000068656C70000000000D496E63B3
:104330006F727265637420636F6D6D616E6420705F
:104340006172616D657465722873292E2020456E37
:10435000746572202268656C702220746F20766903
:1043600065772061206C697374206F6620617661C7
:10437000696C61626C6520636F6D6D616E64732E34
:104380000D0A0D0A000000000D436F6D6D616E6433
:10439000206E6F74207265636F676E697365642E3B
:1043A0002020456E746572202268656C702220742E
:1043B0006F20766965772061206C697374206F6661
:1043C00020617661696C61626C6520636F6D6D61FF
:1043D0006E64732E0D0A0D0A00000000746573747C
:1043E0003A0D0A096F6E6C792074657374210D0A99
:1043F000000000006563686F5F335F706172616D1C
:1044000065746572733A0D0A093C706172616D31B1
:104410005F737472696E673E203C706172616D32C9
:104420005F696E743E203C706172616D335F696ECE
:10443000743E3A200D0A09457870656374732074E0
:104440006872656520706172616D65746572732C48
:10445000206563686F73206561636820696E2074EE
:1044600075726E0D0A0000006563686F5F335F70E0
:104470006172616D657465727300000074657374B8
:1044800000000000737461636B202D2D2073686F32
:104490007720616C6C2066726565207461736B2097
:1044A000737461636B2073697A650A007374616366
:1044B0006B000000D444001400000010B0000000A5
:1044C0005001001484450014B0000010681F000063
:1044D0006C0100140000000000000000000000005B
:1044E00000000000000000000000000000000000CC
:1044F00000000000000000000000000000000000BC
:1045000000000000000000000000000000000000AB
:10451000000000004C00001000000000000000003F
:10452000283F001400000000000000000000000010
:104530000000000000000000000000007C440014A7
:10454000DC430014553300140000000068440014DC
:10455000F4430014EB3200140300000000000000DC
:10456000000000000000000000000000000000004B
:10457000000000000000000000000000000000003B
:044580000000000037
:0400000514000115CD
:00000001FF
