Component: ARM Compiler 5.06 (build 20) Tool: armlink [4d35a3]

==============================================================================

Section Cross References

    raw-os.o(.text) refers to cpu.o(.text) for OS_CPU_SR_Save
    raw-os.o(.text) refers to port_error_process.o(.text) for port_system_error_process
    raw-os.o(.text) refers to raw-os.o(.data) for .data
    raw-os.o(.text) refers to raw-os.o(.bss) for .bss
    raw-os.o(.text) refers to user_extension.o(.text) for raw_memset
    raw-os.o(.text) refers to port.o(.text) for port_stack_init
    raw-os.o(.text) refers to port_hook.o(.text) for task_create_hook
    fifo.o(.text) refers to cpu.o(.text) for OS_CPU_SR_Save
    fifo.o(.text) refers to user_extension.o(.text) for raw_memcpy
    rsh.o(.text) refers to cpu.o(.text) for OS_CPU_SR_Save
    rsh.o(.text) refers to string.o(.text) for raw_strncmp
    rsh.o(.text) refers to user_extension.o(.text) for raw_memset
    rsh.o(.text) refers to rsh.o(.data) for .data
    rsh.o(.text) refers to rsh.o(.conststring) for .conststring
    rsh.o(.constdata) refers to rsh.o(.conststring) for .conststring
    rsh.o(.constdata) refers to rsh.o(.text) for rsh_help_command
    rsh.o(.data) refers to rsh.o(.constdata) for xHelpCommand
    cpu.o(.text) refers to raw-os.o(.text) for raw_stack_check
==============================================================================

Removing Unused input sections from the image.

    Removing sysinit.o(.rev16_text), (4 bytes).
    Removing sysinit.o(.revsh_text), (4 bytes).
    Removing main.o(.rev16_text), (4 bytes).
    Removing main.o(.revsh_text), (4 bytes).
    Removing main.o(.data), (4 bytes).
    Removing board.o(.rev16_text), (4 bytes).
    Removing board.o(.revsh_text), (4 bytes).
    Removing board.o(i.Board_ADC_Init), (2 bytes).
    Removing board.o(i.Board_Audio_CodecInit), (32 bytes).
    Removing board.o(i.Board_Audio_Init), (56 bytes).
    Removing board.o(i.Board_Buttons_Init), (28 bytes).
    Removing board.o(i.Board_DAC_Init), (24 bytes).
    Removing board.o(i.Board_Debug_Init), (48 bytes).
    Removing board.o(i.Board_ENET_GetMacADDR), (32 bytes).
    Removing board.o(i.Board_GetTouchPos), (64 bytes).
    Removing board.o(i.Board_I2C_GetTouchPos), (208 bytes).
    Removing board.o(i.Board_I2C_Init), (48 bytes).
    Removing board.o(i.Board_Init), (80 bytes).
==============================================================================

Image Symbol Table

    Local Symbols

    Symbol Name                              Value     Ov Type        Size  Object(Section)

    ../clib/angel/boardlib.s                 0x00000000   Number         0  boardshut.o ABSOLUTE
    ../clib/angel/boardlib.s                 0x00000000   Number         0  boardinit1.o ABSOLUTE
    ../clib/angel/boardlib.s                 0x00000000   Number         0  boardinit2.o ABSOLUTE
    ../clib/angel/boardlib.s                 0x00000000   Number         0  boardinit3.o ABSOLUTE
    ../clib/angel/handlers.s                 0x00000000   Number         0  __scatter_copy.o ABSOLUTE
    ../clib/angel/handlers.s                 0x00000000   Number         0  __scatter_zi.o ABSOLUTE
    ../clib/angel/kernel.s                   0x00000000   Number         0  __rtentry4.o ABSOLUTE
    ../clib/angel/kernel.s                   0x00000000   Number         0  __rtentry2.o ABSOLUTE
    ../clib/angel/kernel.s                   0x00000000   Number         0  rtexit.o ABSOLUTE
    ../clib/angel/kernel.s                   0x00000000   Number         0  __rtentry.o ABSOLUTE
    ../clib/angel/kernel.s                   0x00000000   Number         0  rtexit2.o ABSOLUTE
    ../clib/angel/rt.s                       0x00000000   Number         0  rt_raise.o ABSOLUTE
    ../clib/angel/rt.s                       0x00000000   Number         0  rt_div0.o ABSOLUTE
    ../clib/angel/rt.s                       0x00000000   Number         0  aeabi_ldiv0.o ABSOLUTE
    ../clib/angel/rt.s                       0x00000000   Number         0  aeabi_ldiv0_sigfpe.o ABSOLUTE
    ../clib/angel/scatter.s                  0x00000000   Number         0  __scatter.o ABSOLUTE
    ../clib/angel/startup.s                  0x00000000   Number         0  __main.o ABSOLUTE
    ../clib/angel/sys.s                      0x00000000   Number         0  libspace.o ABSOLUTE
    ../clib/angel/sys.s                      0x00000000   Number         0  sys_stackheap_outer.o ABSOLUTE
    ../clib/angel/sys.s                      0x00000000   Number         0  indicate_semi.o ABSOLUTE
    ../clib/angel/sys.s                      0x00000000   Number         0  use_no_semi.o ABSOLUTE
    ../clib/angel/sysapp.c                   0x00000000   Number         0  sys_wrch.o ABSOLUTE
    ../clib/angel/sysapp.c                   0x00000000   Number         0  sys_command.o ABSOLUTE
    ../clib/armsys.c                         0x00000000   Number         0  argv_veneer.o ABSOLUTE
    ../clib/armsys.c                         0x00000000   Number         0  argv_veneer.o ABSOLUTE
    ../clib/armsys.c                         0x00000000   Number         0  _get_argv_nomalloc.o ABSOLUTE
    ../clib/armsys.c                         0x00000000   Number         0  no_argv.o ABSOLUTE
    ../clib/heapalloc.c                      0x00000000   Number         0  hrguard.o ABSOLUTE
    ../clib/heapaux.c                        0x00000000   Number         0  heapauxi.o ABSOLUTE
    ../clib/libinit.s                        0x00000000   Number         0  libinit.o ABSOLUTE
    ../clib/libinit.s                        0x00000000   Number         0  libshutdown.o ABSOLUTE
    ../clib/libinit.s                        0x00000000   Number         0  libinit2.o ABSOLUTE
    ../clib/libinit.s                        0x00000000   Number         0  libshutdown2.o ABSOLUTE
    ../clib/longlong.s                       0x00000000   Number         0  lludivv7m.o ABSOLUTE
    ../clib/memcpset.s                       0x00000000   Number         0  rt_memcpy_w.o ABSOLUTE
    ../clib/memcpset.s                       0x00000000   Number         0  rt_memclr_w.o ABSOLUTE
    ../clib/memcpset.s                       0x00000000   Number         0  rt_memcpy_v6.o ABSOLUTE
    ../clib/printf.c                         0x00000000   Number         0  _printf_char_common.o ABSOLUTE
    ../clib/printf.c                         0x00000000   Number         0  __printf_nopercent.o ABSOLUTE
    ../clib/printf.c                         0x00000000   Number         0  __printf_flags.o ABSOLUTE
    ../clib/printf.c                         0x00000000   Number         0  _printf_char_file.o ABSOLUTE
    ../clib/printf.c                         0x00000000   Number         0  _printf_char.o ABSOLUTE
    ../clib/printf.c                         0x00000000   Number         0  _printf_intcommon.o ABSOLUTE
    ../clib/printf.c                         0x00000000   Number         0  __printf_flags_ss_wp.o ABSOLUTE
    ../clib/printf.c                         0x00000000   Number         0  __printf_ss_wp.o ABSOLUTE
    ../clib/printf.c                         0x00000000   Number         0  __printf_flags_wp.o ABSOLUTE
    ../clib/printf.c                         0x00000000   Number         0  __printf_wp.o ABSOLUTE
    ../clib/printf.c                         0x00000000   Number         0  __printf_flags_ss.o ABSOLUTE
    ../clib/printf.c                         0x00000000   Number         0  __printf_ss.o ABSOLUTE
    ../clib/printf.c                         0x00000000   Number         0  _printf_dec.o ABSOLUTE
    ../clib/printf.c                         0x00000000   Number         0  _printf_str.o ABSOLUTE
    ../clib/printf.c                         0x00000000   Number         0  __printf.o ABSOLUTE
    ../clib/printf.c                         0x00000000   Number         0  noretval__2printf.o ABSOLUTE
    ../clib/printf.c                         0x00000000   Number         0  __2printf.o ABSOLUTE
    ../clib/printf_percent.s                 0x00000000   Number         0  _printf_c.o ABSOLUTE
    ../clib/printf_percent.s                 0x00000000   Number         0  _printf_d.o ABSOLUTE
    ../clib/printf_percent.s                 0x00000000   Number         0  _printf_percent_end.o ABSOLUTE
    ../clib/printf_percent.s                 0x00000000   Number         0  _printf_s.o ABSOLUTE
    ../clib/printf_percent.s                 0x00000000   Number         0  _printf_percent.o ABSOLUTE
    ../clib/signal.c                         0x00000000   Number         0  defsig_abrt_inner.o ABSOLUTE
    ../clib/signal.c                         0x00000000   Number         0  defsig_fpe_formal.o ABSOLUTE
    ../clib/signal.c                         0x00000000   Number         0  defsig_fpe_outer.o ABSOLUTE
    ../clib/signal.c                         0x00000000   Number         0  defsig_other.o ABSOLUTE
    ../clib/signal.c                         0x00000000   Number         0  defsig_segv_inner.o ABSOLUTE
    ../clib/signal.c                         0x00000000   Number         0  defsig_cppl_inner.o ABSOLUTE
    ../clib/signal.c                         0x00000000   Number         0  defsig_pvfn_inner.o ABSOLUTE
    ../clib/signal.c                         0x00000000   Number         0  defsig_stak_inner.o ABSOLUTE
    ../clib/signal.c                         0x00000000   Number         0  defsig_rtmem_formal.o ABSOLUTE
    ../clib/signal.c                         0x00000000   Number         0  defsig_rtmem_outer.o ABSOLUTE
    ../clib/signal.c                         0x00000000   Number         0  defsig_rtmem_inner.o ABSOLUTE
    ../clib/signal.c                         0x00000000   Number         0  defsig_rtred_inner.o ABSOLUTE
    ../clib/signal.c                         0x00000000   Number         0  __raise.o ABSOLUTE
    ../clib/signal.c                         0x00000000   Number         0  defsig_fpe_inner.o ABSOLUTE
    ../clib/signal.c                         0x00000000   Number         0  defsig_exit.o ABSOLUTE
    ../clib/signal.c                         0x00000000   Number         0  defsig_general.o ABSOLUTE
    ../clib/signal.s                         0x00000000   Number         0  defsig.o ABSOLUTE
    ../clib/stdlib.c                         0x00000000   Number         0  exit.o ABSOLUTE
    ../fplib/fpinit.s                        0x00000000   Number         0  fpinit.o ABSOLUTE
    ..\..\..\..\software\kernel\port\cpu.asm 0x00000000   Number         0  cpu.o ABSOLUTE
    ..\..\..\..\software\kernel\port\port.c  0x00000000   Number         0  port.o ABSOLUTE
    ..\..\..\..\software\kernel\port\port_error_process.c 0x00000000   Number         0  port_error_process.o ABSOLUTE
    ..\..\..\..\software\kernel\port\port_hook.c 0x00000000   Number         0  port_hook.o ABSOLUTE
    ..\..\..\..\software\kernel\port\raw_trace_port.c 0x00000000   Number         0  raw_trace_port.o ABSOLUTE
    ..\..\..\..\software\kernel\port\user_extension.c 0x00000000   Number         0  user_extension.o ABSOLUTE
    ..\..\..\..\software\kernel\raw-os\extension\lib\fifo.c 0x00000000   Number         0  fifo.o ABSOLUTE
    ..\..\..\..\software\kernel\raw-os\extension\lib\string.c 0x00000000   Number         0  string.o ABSOLUTE
    ..\..\..\..\software\kernel\raw-os\extension\shell\rsh.c 0x00000000   Number         0  rsh.o ABSOLUTE
    ..\..\..\..\software\kernel\raw-os\raw-os.c 0x00000000   Number         0  raw-os.o ABSOLUTE
    ..\..\board_common\uda1380.c             0x00000000   Number         0  uda1380.o ABSOLUTE
    ..\..\examples\shell\command_example.c   0x00000000   Number         0  command_example.o ABSOLUTE
    ..\..\examples\shell\main.c              0x00000000   Number         0  main.o ABSOLUTE
    ..\..\examples\shell\task_stack_detect.c 0x00000000   Number         0  task_stack_detect.o ABSOLUTE
    ..\..\startup_code\keil_startup_lpc18xx43xx.s 0x00000000   Number         0  keil_startup_lpc18xx43xx.o ABSOLUTE
    ..\..\startup_code\sysinit.c             0x00000000   Number         0  sysinit.o ABSOLUTE
    ..\\..\\board_common\\uda1380.c          0x00000000   Number         0  uda1380.o ABSOLUTE
    ..\\..\\examples\\shell\\main.c          0x00000000   Number         0  main.o ABSOLUTE
    ..\\..\\startup_code\\sysinit.c          0x00000000   Number         0  sysinit.o ABSOLUTE
    ..\\chip_common\\fpu_init.c              0x00000000   Number         0  fpu_init.o ABSOLUTE
    ..\chip_common\fpu_init.c                0x00000000   Number         0  fpu_init.o ABSOLUTE
    ..\chip_common\ring_buffer.c             0x00000000   Number         0  ring_buffer.o ABSOLUTE
    board.c                                  0x00000000   Number         0  board.o ABSOLUTE
    board.c                                  0x00000000   Number         0  board.o ABSOLUTE
    board_sysinit.c                          0x00000000   Number         0  board_sysinit.o ABSOLUTE
    board_sysinit.c                          0x00000000   Number         0  board_sysinit.o ABSOLUTE
    chip_18xx_43xx.c                         0x00000000   Number         0  chip_18xx_43xx.o ABSOLUTE
    chip_18xx_43xx.c                         0x00000000   Number         0  chip_18xx_43xx.o ABSOLUTE
    clock_18xx_43xx.c                        0x00000000   Number         0  clock_18xx_43xx.o ABSOLUTE
    clock_18xx_43xx.c                        0x00000000   Number         0  clock_18xx_43xx.o ABSOLUTE
    dc.s                                     0x00000000   Number         0  dc.o ABSOLUTE
    emc_18xx_43xx.c                          0x00000000   Number         0  emc_18xx_43xx.o ABSOLUTE
    emc_18xx_43xx.c                          0x00000000   Number         0  emc_18xx_43xx.o ABSOLUTE
    gpio_18xx_43xx.c                         0x00000000   Number         0  gpio_18xx_43xx.o ABSOLUTE
    gpio_18xx_43xx.c                         0x00000000   Number         0  gpio_18xx_43xx.o ABSOLUTE
    i2c_18xx_43xx.c                          0x00000000   Number         0  i2c_18xx_43xx.o ABSOLUTE
    i2c_18xx_43xx.c                          0x00000000   Number         0  i2c_18xx_43xx.o ABSOLUTE
    i2s_18xx_43xx.c                          0x00000000   Number         0  i2s_18xx_43xx.o ABSOLUTE
    i2s_18xx_43xx.c                          0x00000000   Number         0  i2s_18xx_43xx.o ABSOLUTE
    rgu_18xx_43xx.c                          0x00000000   Number         0  rgu_18xx_43xx.o ABSOLUTE
    rgu_18xx_43xx.c                          0x00000000   Number         0  rgu_18xx_43xx.o ABSOLUTE
    ssp_18xx_43xx.c                          0x00000000   Number         0  ssp_18xx_43xx.o ABSOLUTE
    ssp_18xx_43xx.c                          0x00000000   Number         0  ssp_18xx_43xx.o ABSOLUTE
    sysinit_18xx_43xx.c                      0x00000000   Number         0  sysinit_18xx_43xx.o ABSOLUTE
    sysinit_18xx_43xx.c                      0x00000000   Number         0  sysinit_18xx_43xx.o ABSOLUTE
    uart_18xx_43xx.c                         0x00000000   Number         0  uart_18xx_43xx.o ABSOLUTE
    uart_18xx_43xx.c                         0x00000000   Number         0  uart_18xx_43xx.o ABSOLUTE
    .data                                    0x10000000   Section       64  raw-os.o(.data)
    .data                                    0x10000040   Section       20  rsh.o(.data)
    current_command_list_point               0x10000040   Data           4  rsh.o(.data)
    current_process_command_point            0x10000044   Data           4  rsh.o(.data)
    current_help_command_point               0x10000048   Data           4  rsh.o(.data)
    xRegisteredCommands                      0x1000004c   Data           8  rsh.o(.data)
    .data                                    0x10000054   Section        4  main.o(.data)
    cmdlen                                   0x10000054   Data           4  main.o(.data)
    .data                                    0x10000058   Section       48  command_example.o(.data)
    pxNewListItem3                           0x10000058   Data           8  command_example.o(.data)
    pxNewListItem1                           0x10000060   Data           8  command_example.o(.data)
    test_rsh_command                         0x10000068   Data          16  command_example.o(.data)
    three_parameters_case                    0x10000078   Data          16  command_example.o(.data)
    .data                                    0x10000088   Section        8  task_stack_detect.o(.data)
    task_stack_item                          0x10000088   Data           8  task_stack_detect.o(.data)
    .data                                    0x10000090   Section       20  board.o(.data)
    .data                                    0x100000a4   Section        4  chip_18xx_43xx.o(.data)
    .data                                    0x100000a8   Section        8  clock_18xx_43xx.o(.data)
    audio_usb_pll_freq                       0x100000a8   Data           8  clock_18xx_43xx.o(.data)
    .bss                                     0x100000b0   Section     4000  raw-os.o(.bss)
    .bss                                     0x10001050   Section     2148  main.o(.bss)
    fifo_buffer                              0x10001734   Data         128  main.o(.bss)
    cmdbuf                                   0x100017b4   Data         256  main.o(.bss)
    .bss                                     0x100018b4   Section       96  libspace.o(.bss)
    HEAP                                     0x10001918   Section      256  keil_startup_lpc18xx43xx.o(HEAP)
    Heap_Mem                                 0x10001918   Data         256  keil_startup_lpc18xx43xx.o(HEAP)
    STACK                                    0x10001a18   Section     1536  keil_startup_lpc18xx43xx.o(STACK)
    Stack_Mem                                0x10001a18   Data        1536  keil_startup_lpc18xx43xx.o(STACK)
    __initial_sp                             0x10002018   Data           0  keil_startup_lpc18xx43xx.o(STACK)
    RESET                                    0x14000000   Section      276  keil_startup_lpc18xx43xx.o(RESET)
    !!!main                                  0x14000114   Section        8  __main.o(!!!main)
    !!!scatter                               0x1400011c   Section       52  __scatter.o(!!!scatter)
    !!handler_copy                           0x14000150   Section       26  __scatter_copy.o(!!handler_copy)
    !!handler_zi                             0x1400016c   Section       28  __scatter_zi.o(!!handler_zi)
    .ARM.Collect$$_printf_percent$$00000000  0x14000188   Section        0  _printf_percent.o(.ARM.Collect$$_printf_percent$$00000000)
    .ARM.Collect$$_printf_percent$$00000009  0x14000188   Section        6  _printf_d.o(.ARM.Collect$$_printf_percent$$00000009)
    .ARM.Collect$$_printf_percent$$00000013  0x1400018e   Section        6  _printf_c.o(.ARM.Collect$$_printf_percent$$00000013)
    .ARM.Collect$$_printf_percent$$00000014  0x14000194   Section        6  _printf_s.o(.ARM.Collect$$_printf_percent$$00000014)
    .ARM.Collect$$_printf_percent$$00000017  0x1400019a   Section        4  _printf_percent_end.o(.ARM.Collect$$_printf_percent$$00000017)
    .ARM.Collect$$libinit$$00000000          0x1400019e   Section        2  libinit.o(.ARM.Collect$$libinit$$00000000)
    .ARM.Collect$$libinit$$00000001          0x140001a0   Section        4  libinit2.o(.ARM.Collect$$libinit$$00000001)
    .ARM.Collect$$libinit$$00000004          0x140001a4   Section        0  libinit2.o(.ARM.Collect$$libinit$$00000004)
    .ARM.Collect$$libinit$$0000000A          0x140001a4   Section        0  libinit2.o(.ARM.Collect$$libinit$$0000000A)
    .ARM.Collect$$libinit$$0000000C          0x140001a4   Section        0  libinit2.o(.ARM.Collect$$libinit$$0000000C)
    .ARM.Collect$$libinit$$0000000E          0x140001a4   Section        0  libinit2.o(.ARM.Collect$$libinit$$0000000E)
    .ARM.Collect$$libinit$$00000011          0x140001a4   Section        0  libinit2.o(.ARM.Collect$$libinit$$00000011)
    .ARM.Collect$$libinit$$00000013          0x140001a4   Section        0  libinit2.o(.ARM.Collect$$libinit$$00000013)
    .ARM.Collect$$libinit$$00000015          0x140001a4   Section        0  libinit2.o(.ARM.Collect$$libinit$$00000015)
    .ARM.Collect$$libinit$$00000017          0x140001a4   Section        0  libinit2.o(.ARM.Collect$$libinit$$00000017)
    .ARM.Collect$$libinit$$00000019          0x140001a4   Section        0  libinit2.o(.ARM.Collect$$libinit$$00000019)
    .ARM.Collect$$libinit$$0000001B          0x140001a4   Section        0  libinit2.o(.ARM.Collect$$libinit$$0000001B)
    .ARM.Collect$$libinit$$0000001D          0x140001a4   Section        0  libinit2.o(.ARM.Collect$$libinit$$0000001D)
    .ARM.Collect$$libinit$$0000001F          0x140001a4   Section        0  libinit2.o(.ARM.Collect$$libinit$$0000001F)
    .ARM.Collect$$libinit$$00000021          0x140001a4   Section        0  libinit2.o(.ARM.Collect$$libinit$$00000021)
    .ARM.Collect$$libinit$$00000023          0x140001a4   Section        0  libinit2.o(.ARM.Collect$$libinit$$00000023)
    .ARM.Collect$$libinit$$00000025          0x140001a4   Section        0  libinit2.o(.ARM.Collect$$libinit$$00000025)
    .ARM.Collect$$libinit$$0000002C          0x140001a4   Section        0  libinit2.o(.ARM.Collect$$libinit$$0000002C)
    .ARM.Collect$$libinit$$0000002E          0x140001a4   Section        0  libinit2.o(.ARM.Collect$$libinit$$0000002E)
    .ARM.Collect$$libinit$$00000030          0x140001a4   Section        0  libinit2.o(.ARM.Collect$$libinit$$00000030)
    .ARM.Collect$$libinit$$00000032          0x140001a4   Section        0  libinit2.o(.ARM.Collect$$libinit$$00000032)
    .ARM.Collect$$libinit$$00000033          0x140001a4   Section        2  libinit2.o(.ARM.Collect$$libinit$$00000033)
    .ARM.Collect$$libshutdown$$00000000      0x140001a6   Section        2  libshutdown.o(.ARM.Collect$$libshutdown$$00000000)
    .ARM.Collect$$libshutdown$$00000002      0x140001a8   Section        0  libshutdown2.o(.ARM.Collect$$libshutdown$$00000002)
    .ARM.Collect$$libshutdown$$00000004      0x140001a8   Section        0  libshutdown2.o(.ARM.Collect$$libshutdown$$00000004)
    .ARM.Collect$$libshutdown$$00000007      0x140001a8   Section        0  libshutdown2.o(.ARM.Collect$$libshutdown$$00000007)
    .ARM.Collect$$libshutdown$$0000000A      0x140001a8   Section        0  libshutdown2.o(.ARM.Collect$$libshutdown$$0000000A)
    .ARM.Collect$$libshutdown$$0000000C      0x140001a8   Section        0  libshutdown2.o(.ARM.Collect$$libshutdown$$0000000C)
    .ARM.Collect$$libshutdown$$0000000F      0x140001a8   Section        0  libshutdown2.o(.ARM.Collect$$libshutdown$$0000000F)
    .ARM.Collect$$libshutdown$$00000010      0x140001a8   Section        2  libshutdown2.o(.ARM.Collect$$libshutdown$$00000010)
    .ARM.Collect$$rtentry$$00000000          0x140001aa   Section        0  __rtentry.o(.ARM.Collect$$rtentry$$00000000)
    .ARM.Collect$$rtentry$$00000002          0x140001aa   Section        0  __rtentry2.o(.ARM.Collect$$rtentry$$00000002)
    .ARM.Collect$$rtentry$$00000004          0x140001aa   Section        6  __rtentry4.o(.ARM.Collect$$rtentry$$00000004)
    .ARM.Collect$$rtentry$$00000009          0x140001b0   Section        0  __rtentry2.o(.ARM.Collect$$rtentry$$00000009)
    .ARM.Collect$$rtentry$$0000000A          0x140001b0   Section        4  __rtentry2.o(.ARM.Collect$$rtentry$$0000000A)
    .ARM.Collect$$rtentry$$0000000C          0x140001b4   Section        0  __rtentry2.o(.ARM.Collect$$rtentry$$0000000C)
    .ARM.Collect$$rtentry$$0000000D          0x140001b4   Section        8  __rtentry2.o(.ARM.Collect$$rtentry$$0000000D)
    .ARM.Collect$$rtexit$$00000000           0x140001bc   Section        2  rtexit.o(.ARM.Collect$$rtexit$$00000000)
    .ARM.Collect$$rtexit$$00000002           0x140001be   Section        0  rtexit2.o(.ARM.Collect$$rtexit$$00000002)
    .ARM.Collect$$rtexit$$00000003           0x140001be   Section        4  rtexit2.o(.ARM.Collect$$rtexit$$00000003)
    .ARM.Collect$$rtexit$$00000004           0x140001c2   Section        6  rtexit2.o(.ARM.Collect$$rtexit$$00000004)
    .text                                    0x140001c8   Section        0  raw-os.o(.text)
    release_mutex                            0x14000455   Thumb Code    88  raw-os.o(.text)
    tick_task_process                        0x140006f7   Thumb Code    28  raw-os.o(.text)
    pend_task_wake_up                        0x1400087b   Thumb Code    92  raw-os.o(.text)
    is_list_empty                            0x140025a1   Thumb Code    14  raw-os.o(.text)
    list_insert                              0x140025af   Thumb Code    14  raw-os.o(.text)
    list_delete                              0x140025bd   Thumb Code    12  raw-os.o(.text)
    add_to_priority_list                     0x140025c9   Thumb Code    28  raw-os.o(.text)
    bit_set                                  0x140025e5   Thumb Code    20  raw-os.o(.text)
    timer_list_remove                        0x140025f9   Thumb Code    22  raw-os.o(.text)
    timer_list_priority_insert               0x1400260f   Thumb Code    32  raw-os.o(.text)
    raw_byte_pool_search                     0x1400262f   Thumb Code   188  raw-os.o(.text)
    .text                                    0x140026fc   Section        0  fifo.o(.text)
    internal_fifo_out_peek                   0x1400279d   Thumb Code    62  fifo.o(.text)
    .text                                    0x14002870   Section        0  rsh.o(.text)
    rsh_help_command                         0x140029fd   Thumb Code    40  rsh.o(.text)
    command_length_get                       0x14002a25   Thumb Code    22  rsh.o(.text)
    .text                                    0x14002a48   Section        0  string.o(.text)
    .text                                    0x14002c98   Section      164  cpu.o(.text)
    $v0                                      0x14002c98   Number         0  cpu.o(.text)
    .text                                    0x14002d3c   Section        0  port.o(.text)
    .text                                    0x14002e82   Section        0  port_hook.o(.text)
    .text                                    0x14002e94   Section        0  user_extension.o(.text)
    .text                                    0x14002f1c   Section        0  port_error_process.o(.text)
    .text                                    0x14002f88   Section       68  keil_startup_lpc18xx43xx.o(.text)
    $v0                                      0x14002f88   Number         0  keil_startup_lpc18xx43xx.o(.text)
    .text                                    0x14002fcc   Section        0  sysinit.o(.text)
    .text                                    0x14002fe8   Section        0  main.o(.text)
    NVIC_EnableIRQ                           0x1400323f   Thumb Code    22  main.o(.text)
    NVIC_SetPriority                         0x14003255   Thumb Code    32  main.o(.text)
    .text                                    0x140032c0   Section        0  command_example.o(.text)
    command_case_three_parameters            0x140032eb   Thumb Code   106  command_example.o(.text)
    command_case_no_parameters               0x14003355   Thumb Code    18  command_example.o(.text)
    .text                                    0x1400340c   Section        0  task_stack_detect.o(.text)
    rsh_task_task_command                    0x1400340d   Thumb Code    40  task_stack_detect.o(.text)
    .text                                    0x1400347c   Section        0  noretval__2printf.o(.text)
    .text                                    0x14003494   Section        0  __printf.o(.text)
    .text                                    0x140034fc   Section        0  _printf_str.o(.text)
    .text                                    0x14003550   Section        0  _printf_dec.o(.text)
    .text                                    0x140035c8   Section       78  rt_memclr_w.o(.text)
    .text                                    0x14003616   Section        0  heapauxi.o(.text)
    .text                                    0x1400361c   Section        0  _printf_intcommon.o(.text)
    .text                                    0x140036ce   Section        0  _printf_char.o(.text)
    .text                                    0x140036fc   Section        0  _printf_char_file.o(.text)
    .text                                    0x14003720   Section        0  _printf_char_common.o(.text)
    _printf_input_char                       0x14003721   Thumb Code    10  _printf_char_common.o(.text)
    .text                                    0x14003750   Section       74  sys_stackheap_outer.o(.text)
    .text                                    0x1400379a   Section        0  exit.o(.text)
    .text                                    0x140037ac   Section        8  libspace.o(.text)
    i.Board_SetupClocking                    0x140037b4   Section        0  board_sysinit.o(i.Board_SetupClocking)
    i.Board_SetupMuxing                      0x14003868   Section        0  board_sysinit.o(i.Board_SetupMuxing)
    i.Board_SystemInit                       0x140038b4   Section        0  board_sysinit.o(i.Board_SystemInit)
    i.Board_UARTPutChar                      0x140038c0   Section        0  board.o(i.Board_UARTPutChar)
    i.Board_UART_Init                        0x140038e0   Section        0  board.o(i.Board_UART_Init)
    i.Chip_Clock_EnableOpts                  0x14003924   Section        0  clock_18xx_43xx.o(i.Chip_Clock_EnableOpts)
    i.Chip_Clock_FindBaseClock               0x14003960   Section        0  clock_18xx_43xx.o(i.Chip_Clock_FindBaseClock)
    Chip_Clock_FindBaseClock                 0x14003961   Thumb Code    74  clock_18xx_43xx.o(i.Chip_Clock_FindBaseClock)
    i.Chip_Clock_GetBaseClock                0x140039b0   Section        0  clock_18xx_43xx.o(i.Chip_Clock_GetBaseClock)
    i.Chip_Clock_GetBaseClocktHz             0x140039d4   Section        0  clock_18xx_43xx.o(i.Chip_Clock_GetBaseClocktHz)
    i.Chip_Clock_GetClockInputHz             0x140039e8   Section        0  clock_18xx_43xx.o(i.Chip_Clock_GetClockInputHz)
    i.Chip_Clock_GetDivRate                  0x14003abc   Section        0  clock_18xx_43xx.o(i.Chip_Clock_GetDivRate)
    Chip_Clock_GetDivRate                    0x14003abd   Thumb Code    40  clock_18xx_43xx.o(i.Chip_Clock_GetDivRate)
    i.Chip_Clock_GetDividerDivisor           0x14003ae4   Section        0  clock_18xx_43xx.o(i.Chip_Clock_GetDividerDivisor)
    i.Chip_Clock_GetDividerSource            0x14003b04   Section        0  clock_18xx_43xx.o(i.Chip_Clock_GetDividerSource)
    i.Chip_Clock_GetMainPLLHz                0x14003b24   Section        0  clock_18xx_43xx.o(i.Chip_Clock_GetMainPLLHz)
    i.Chip_Clock_GetRate                     0x14003b9c   Section        0  clock_18xx_43xx.o(i.Chip_Clock_GetRate)
    i.Chip_Clock_SetBaseClock                0x14003bf4   Section        0  clock_18xx_43xx.o(i.Chip_Clock_SetBaseClock)
    i.Chip_Clock_SetDivider                  0x14003c3c   Section        0  clock_18xx_43xx.o(i.Chip_Clock_SetDivider)
    i.Chip_SCU_PinMuxSet                     0x14003c8c   Section        0  board.o(i.Chip_SCU_PinMuxSet)
    Chip_SCU_PinMuxSet                       0x14003c8d   Thumb Code    12  board.o(i.Chip_SCU_PinMuxSet)
    i.Chip_SCU_SetPinMuxing                  0x14003c9c   Section        0  board_sysinit.o(i.Chip_SCU_SetPinMuxing)
    Chip_SCU_SetPinMuxing                    0x14003c9d   Thumb Code    44  board_sysinit.o(i.Chip_SCU_SetPinMuxing)
    i.Chip_SetupCoreClock                    0x14003ccc   Section        0  sysinit_18xx_43xx.o(i.Chip_SetupCoreClock)
    i.Chip_UART_DisableDivisorAccess         0x14003cda   Section        0  uart_18xx_43xx.o(i.Chip_UART_DisableDivisorAccess)
    Chip_UART_DisableDivisorAccess           0x14003cdb   Thumb Code    10  uart_18xx_43xx.o(i.Chip_UART_DisableDivisorAccess)
    i.Chip_UART_EnableDivisorAccess          0x14003ce4   Section        0  uart_18xx_43xx.o(i.Chip_UART_EnableDivisorAccess)
    Chip_UART_EnableDivisorAccess            0x14003ce5   Thumb Code    10  uart_18xx_43xx.o(i.Chip_UART_EnableDivisorAccess)
    i.Chip_UART_GetClockIndex                0x14003cf0   Section        0  uart_18xx_43xx.o(i.Chip_UART_GetClockIndex)
    Chip_UART_GetClockIndex                  0x14003cf1   Thumb Code    36  uart_18xx_43xx.o(i.Chip_UART_GetClockIndex)
    i.Chip_UART_Init                         0x14003d20   Section        0  uart_18xx_43xx.o(i.Chip_UART_Init)
    i.Chip_UART_SetBaud                      0x14003d6c   Section        0  uart_18xx_43xx.o(i.Chip_UART_SetBaud)
    i.Chip_UART_SetDivisorLatches            0x14003dae   Section        0  uart_18xx_43xx.o(i.Chip_UART_SetDivisorLatches)
    Chip_UART_SetDivisorLatches              0x14003daf   Thumb Code     6  uart_18xx_43xx.o(i.Chip_UART_SetDivisorLatches)
    i.SystemCoreClockUpdate                  0x14003db4   Section        0  chip_18xx_43xx.o(i.SystemCoreClockUpdate)
    i._sys_exit                              0x14003dc8   Section        0  board.o(i._sys_exit)
    i.clock_init_delay                       0x14003dce   Section        0  sysinit_18xx_43xx.o(i.clock_init_delay)
    clock_init_delay                         0x14003dcf   Thumb Code    36  sysinit_18xx_43xx.o(i.clock_init_delay)
    i.clock_main_init                        0x14003df4   Section        0  sysinit_18xx_43xx.o(i.clock_main_init)
    clock_main_init                          0x14003df5   Thumb Code   168  sysinit_18xx_43xx.o(i.clock_main_init)
    i.ferror                                 0x14003eb0   Section        0  board.o(i.ferror)
    i.fpuInit                                0x14003eb8   Section        0  fpu_init.o(i.fpuInit)
    i.fputc                                  0x14003f08   Section        0  board.o(i.fputc)
    x$fpl$fpinit                             0x14003f1c   Section       10  fpinit.o(x$fpl$fpinit)
    $v0                                      0x14003f1c   Number         0  fpinit.o(x$fpl$fpinit)
    .constdata                               0x14003f28   Section       16  rsh.o(.constdata)
    xHelpCommand                             0x14003f28   Data          16  rsh.o(.constdata)
    .constdata                               0x14003f38   Section       16  task_stack_detect.o(.constdata)
    task_stack_cmd                           0x14003f38   Data          16  task_stack_detect.o(.constdata)
    .constdata                               0x14003f48   Section       64  board.o(.constdata)
    ledports                                 0x14003f48   Data           8  board.o(.constdata)
    ledbits                                  0x14003f50   Data           8  board.o(.constdata)
    .constdata                               0x14003f88   Section      700  board_sysinit.o(.constdata)
    InitClkStates                            0x14003f88   Data          16  board_sysinit.o(.constdata)
    spifipinmuxing                           0x14003f98   Data          24  board_sysinit.o(.constdata)
    pinmuxing                                0x14003fb0   Data         496  board_sysinit.o(.constdata)
    pinclockmuxing                           0x140041a0   Data          16  board_sysinit.o(.constdata)
    MT48LC4M32_config                        0x140041b0   Data         116  board_sysinit.o(.constdata)
    S29GL64N90_config                        0x14004224   Data          32  board_sysinit.o(.constdata)
    .constdata                               0x14004244   Section      108  clock_18xx_43xx.o(.constdata)
    periph_to_base                           0x14004244   Data         108  clock_18xx_43xx.o(.constdata)
    .constdata                               0x140042b0   Section       72  sysinit_18xx_43xx.o(.constdata)
    InitClkStates                            0x140042b0   Data          72  sysinit_18xx_43xx.o(.constdata)
    .conststring                             0x140042f8   Section       49  rsh.o(.conststring)
    .conststring                             0x1400432c   Section      173  rsh.o(.conststring)
    .conststring                             0x140043dc   Section      165  command_example.o(.conststring)
    .conststring                             0x14004484   Section       46  task_stack_detect.o(.conststring)

    Global Symbols

    Symbol Name                              Value     Ov Type        Size  Object(Section)

    BuildAttributes$$THM_ISAv4$E$P$D$K$B$S$7EM$VFPi3$EXTD16$VFPS$VFMA$PE$A:L22UL41UL21$X:L11$S22US41US21$IEEE1$IW$USESV6$~STKCKD$USESV7$~SHL$OSPACE$ROPI$EBA8$UX$STANDARDLIB$REQ8$PRES8$EABIv2 0x00000000   Number         0  anon$$obj.o ABSOLUTE
    __ARM_use_no_argv                        0x00000000   Number         0  main.o ABSOLUTE
    __ARM_exceptions_init                     - Undefined Weak Reference
    __alloca_initialize                       - Undefined Weak Reference
    __arm_preinit_                            - Undefined Weak Reference
    __cpp_initialize__aeabi_                  - Undefined Weak Reference
    __cxa_finalize                            - Undefined Weak Reference
    __rt_locale                               - Undefined Weak Reference
    __sigvec_lookup                           - Undefined Weak Reference
    _atexit_init                              - Undefined Weak Reference
    _call_atexit_fns                          - Undefined Weak Reference
    _clock_init                               - Undefined Weak Reference
    _fp_trap_init                             - Undefined Weak Reference
    _fp_trap_shutdown                         - Undefined Weak Reference
    _get_lc_collate                           - Undefined Weak Reference
    _get_lc_ctype                             - Undefined Weak Reference
    _get_lc_monetary                          - Undefined Weak Reference
    _get_lc_numeric                           - Undefined Weak Reference
    _get_lc_time                              - Undefined Weak Reference
    _getenv_init                              - Undefined Weak Reference
    _handle_redirection                       - Undefined Weak Reference
    _init_alloc                               - Undefined Weak Reference
    _init_user_alloc                          - Undefined Weak Reference
    _initio                                   - Undefined Weak Reference
    _printf_mbtowc                            - Undefined Weak Reference
    _printf_post_padding                      - Undefined Weak Reference
    _printf_pre_padding                       - Undefined Weak Reference
    _printf_truncate_signed                   - Undefined Weak Reference
    _printf_truncate_unsigned                 - Undefined Weak Reference
    _rand_init                                - Undefined Weak Reference
    _signal_finish                            - Undefined Weak Reference
    _signal_init                              - Undefined Weak Reference
    _terminate_alloc                          - Undefined Weak Reference
    _terminate_user_alloc                     - Undefined Weak Reference
    _terminateio                              - Undefined Weak Reference
    raw_os_active                            0x10000000   Data           1  raw-os.o(.data)
    idle_task_exit                           0x10000001   Data           1  raw-os.o(.data)
    raw_sched_lock                           0x10000002   Data           1  raw-os.o(.data)
    raw_int_nesting                          0x10000003   Data           1  raw-os.o(.data)
    mutex_recursion_levels                   0x10000004   Data           1  raw-os.o(.data)
    mutex_recursion_max_levels               0x10000005   Data           1  raw-os.o(.data)
    high_ready_obj                           0x10000008   Data           4  raw-os.o(.data)
    raw_task_active                          0x1000000c   Data           4  raw-os.o(.data)
    raw_tick_count                           0x10000010   Data           4  raw-os.o(.data)
    raw_timer_count                          0x10000014   Data           4  raw-os.o(.data)
    raw_timer_ctrl                           0x10000018   Data           4  raw-os.o(.data)
    raw_idle_count                           0x10000020   Data           8  raw-os.o(.data)
    tick_head                                0x10000028   Data           8  raw-os.o(.data)
    timer_head                               0x10000030   Data           8  raw-os.o(.data)
    raw_task_debug                           0x10000038   Data           8  raw-os.o(.data)
    __stdout                                 0x10000090   Data           4  board.o(.data)
    __stdin                                  0x10000094   Data           4  board.o(.data)
    __stderr                                 0x10000098   Data           4  board.o(.data)
    g_isPenDn                                0x1000009c   Data           4  board.o(.data)
    g_isNewPenDn                             0x100000a0   Data           4  board.o(.data)
    SystemCoreClock                          0x100000a4   Data           4  chip_18xx_43xx.o(.data)
    raw_ready_queue                          0x100000b0   Data         508  raw-os.o(.bss)
    raw_idle_obj                             0x100002ac   Data         112  raw-os.o(.bss)
    idle_stack                               0x1000031c   Data        1024  raw-os.o(.bss)
    raw_timer_obj                            0x1000071c   Data         112  raw-os.o(.bss)
    timer_task_stack                         0x1000078c   Data        1024  raw-os.o(.bss)
    timer_sem                                0x10000b8c   Data          28  raw-os.o(.bss)
    timer_mutex                              0x10000ba8   Data          28  raw-os.o(.bss)
    tick_task_obj                            0x10000bc4   Data         112  raw-os.o(.bss)
    tick_task_stack                          0x10000c34   Data        1024  raw-os.o(.bss)
    tick_semaphore_obj                       0x10001034   Data          28  raw-os.o(.bss)
    shell_task_stack                         0x10001050   Data        1600  main.o(.bss)
    shell_task_obj                           0x10001690   Data         112  main.o(.bss)
    uart_sema                                0x10001700   Data          28  main.o(.bss)
    uart_fifo                                0x1000171c   Data          24  main.o(.bss)
    __libspace_start                         0x100018b4   Data          96  libspace.o(.bss)
    __temporary_stack_top$libspace           0x10001914   Data           0  libspace.o(.bss)
    __Vectors                                0x14000000   Data           4  keil_startup_lpc18xx43xx.o(RESET)
    __main                                   0x14000115   Thumb Code     8  __main.o(!!!main)
    __scatterload                            0x1400011d   Thumb Code     0  __scatter.o(!!!scatter)
    __scatterload_rt2                        0x1400011d   Thumb Code    44  __scatter.o(!!!scatter)
    __scatterload_rt2_thumb_only             0x1400011d   Thumb Code     0  __scatter.o(!!!scatter)
    __scatterload_null                       0x1400012b   Thumb Code     0  __scatter.o(!!!scatter)
    __scatterload_copy                       0x14000151   Thumb Code    26  __scatter_copy.o(!!handler_copy)
    __scatterload_zeroinit                   0x1400016d   Thumb Code    28  __scatter_zi.o(!!handler_zi)
    _printf_d                                0x14000189   Thumb Code     0  _printf_d.o(.ARM.Collect$$_printf_percent$$00000009)
    _printf_percent                          0x14000189   Thumb Code     0  _printf_percent.o(.ARM.Collect$$_printf_percent$$00000000)
    _printf_c                                0x1400018f   Thumb Code     0  _printf_c.o(.ARM.Collect$$_printf_percent$$00000013)
    _printf_s                                0x14000195   Thumb Code     0  _printf_s.o(.ARM.Collect$$_printf_percent$$00000014)
    _printf_percent_end                      0x1400019b   Thumb Code     0  _printf_percent_end.o(.ARM.Collect$$_printf_percent$$00000017)
    __rt_lib_init                            0x1400019f   Thumb Code     0  libinit.o(.ARM.Collect$$libinit$$00000000)
    __rt_lib_init_fp_1                       0x140001a1   Thumb Code     0  libinit2.o(.ARM.Collect$$libinit$$00000001)
    __rt_lib_init_alloca_1                   0x140001a5   Thumb Code     0  libinit2.o(.ARM.Collect$$libinit$$0000002E)
    __rt_lib_init_argv_1                     0x140001a5   Thumb Code     0  libinit2.o(.ARM.Collect$$libinit$$0000002C)
    __rt_lib_init_atexit_1                   0x140001a5   Thumb Code     0  libinit2.o(.ARM.Collect$$libinit$$0000001B)
    __rt_lib_init_clock_1                    0x140001a5   Thumb Code     0  libinit2.o(.ARM.Collect$$libinit$$00000021)
    __rt_lib_init_cpp_1                      0x140001a5   Thumb Code     0  libinit2.o(.ARM.Collect$$libinit$$00000032)
    __rt_lib_init_exceptions_1               0x140001a5   Thumb Code     0  libinit2.o(.ARM.Collect$$libinit$$00000030)
    __rt_lib_init_fp_trap_1                  0x140001a5   Thumb Code     0  libinit2.o(.ARM.Collect$$libinit$$0000001F)
    __rt_lib_init_getenv_1                   0x140001a5   Thumb Code     0  libinit2.o(.ARM.Collect$$libinit$$00000023)
    __rt_lib_init_heap_1                     0x140001a5   Thumb Code     0  libinit2.o(.ARM.Collect$$libinit$$0000000A)
    __rt_lib_init_lc_collate_1               0x140001a5   Thumb Code     0  libinit2.o(.ARM.Collect$$libinit$$00000011)
    __rt_lib_init_lc_ctype_1                 0x140001a5   Thumb Code     0  libinit2.o(.ARM.Collect$$libinit$$00000013)
    __rt_lib_init_lc_monetary_1              0x140001a5   Thumb Code     0  libinit2.o(.ARM.Collect$$libinit$$00000015)
    __rt_lib_init_lc_numeric_1               0x140001a5   Thumb Code     0  libinit2.o(.ARM.Collect$$libinit$$00000017)
    __rt_lib_init_lc_time_1                  0x140001a5   Thumb Code     0  libinit2.o(.ARM.Collect$$libinit$$00000019)
    __rt_lib_init_preinit_1                  0x140001a5   Thumb Code     0  libinit2.o(.ARM.Collect$$libinit$$00000004)
    __rt_lib_init_rand_1                     0x140001a5   Thumb Code     0  libinit2.o(.ARM.Collect$$libinit$$0000000E)
    __rt_lib_init_return                     0x140001a5   Thumb Code     0  libinit2.o(.ARM.Collect$$libinit$$00000033)
    __rt_lib_init_signal_1                   0x140001a5   Thumb Code     0  libinit2.o(.ARM.Collect$$libinit$$0000001D)
    __rt_lib_init_stdio_1                    0x140001a5   Thumb Code     0  libinit2.o(.ARM.Collect$$libinit$$00000025)
    __rt_lib_init_user_alloc_1               0x140001a5   Thumb Code     0  libinit2.o(.ARM.Collect$$libinit$$0000000C)
    __rt_lib_shutdown                        0x140001a7   Thumb Code     0  libshutdown.o(.ARM.Collect$$libshutdown$$00000000)
    __rt_lib_shutdown_cpp_1                  0x140001a9   Thumb Code     0  libshutdown2.o(.ARM.Collect$$libshutdown$$00000002)
    __rt_lib_shutdown_fp_trap_1              0x140001a9   Thumb Code     0  libshutdown2.o(.ARM.Collect$$libshutdown$$00000007)
    __rt_lib_shutdown_heap_1                 0x140001a9   Thumb Code     0  libshutdown2.o(.ARM.Collect$$libshutdown$$0000000F)
    __rt_lib_shutdown_return                 0x140001a9   Thumb Code     0  libshutdown2.o(.ARM.Collect$$libshutdown$$00000010)
    __rt_lib_shutdown_signal_1               0x140001a9   Thumb Code     0  libshutdown2.o(.ARM.Collect$$libshutdown$$0000000A)
    __rt_lib_shutdown_stdio_1                0x140001a9   Thumb Code     0  libshutdown2.o(.ARM.Collect$$libshutdown$$00000004)
    __rt_lib_shutdown_user_alloc_1           0x140001a9   Thumb Code     0  libshutdown2.o(.ARM.Collect$$libshutdown$$0000000C)
    __rt_entry                               0x140001ab   Thumb Code     0  __rtentry.o(.ARM.Collect$$rtentry$$00000000)
    __rt_entry_presh_1                       0x140001ab   Thumb Code     0  __rtentry2.o(.ARM.Collect$$rtentry$$00000002)
    __rt_entry_sh                            0x140001ab   Thumb Code     0  __rtentry4.o(.ARM.Collect$$rtentry$$00000004)
    __rt_entry_li                            0x140001b1   Thumb Code     0  __rtentry2.o(.ARM.Collect$$rtentry$$0000000A)
    __rt_entry_postsh_1                      0x140001b1   Thumb Code     0  __rtentry2.o(.ARM.Collect$$rtentry$$00000009)
    __rt_entry_main                          0x140001b5   Thumb Code     0  __rtentry2.o(.ARM.Collect$$rtentry$$0000000D)
    __rt_entry_postli_1                      0x140001b5   Thumb Code     0  __rtentry2.o(.ARM.Collect$$rtentry$$0000000C)
    __rt_exit                                0x140001bd   Thumb Code     0  rtexit.o(.ARM.Collect$$rtexit$$00000000)
    __rt_exit_ls                             0x140001bf   Thumb Code     0  rtexit2.o(.ARM.Collect$$rtexit$$00000003)
    __rt_exit_prels_1                        0x140001bf   Thumb Code     0  rtexit2.o(.ARM.Collect$$rtexit$$00000002)
    __rt_exit_exit                           0x140001c3   Thumb Code     0  rtexit2.o(.ARM.Collect$$rtexit$$00000004)
    get_ready_task                           0x140001c9   Thumb Code    16  raw-os.o(.text)
    raw_sched                                0x140001d9   Thumb Code    48  raw-os.o(.text)
    raw_semaphore_create                     0x14000209   Thumb Code    38  raw-os.o(.text)
    raw_task_semaphore_create                0x1400022f   Thumb Code    16  raw-os.o(.text)
    tick_list_remove                         0x1400023f   Thumb Code    24  raw-os.o(.text)
    mtx_chg_pri                              0x14000257   Thumb Code    98  raw-os.o(.text)
    change_pend_list_priority                0x140002b9   Thumb Code    32  raw-os.o(.text)
    add_ready_list_end                       0x140002d9   Thumb Code    38  raw-os.o(.text)
    add_ready_list_head                      0x140002ff   Thumb Code    38  raw-os.o(.text)
    bit_search_first_one                     0x14000325   Thumb Code   116  raw-os.o(.text)
    remove_ready_list                        0x14000399   Thumb Code    98  raw-os.o(.text)
    change_internal_task_priority            0x140003fb   Thumb Code    90  raw-os.o(.text)
    mutex_state_change                       0x140004ad   Thumb Code    32  raw-os.o(.text)
    add_ready_list                           0x140004cd   Thumb Code    16  raw-os.o(.text)
    tick_list_update                         0x140004dd   Thumb Code   220  raw-os.o(.text)
    block_state_post_process                 0x140005b9   Thumb Code    64  raw-os.o(.text)
    tick_list_insert                         0x140005f9   Thumb Code    56  raw-os.o(.text)
    raw_pend_object                          0x14000631   Thumb Code    68  raw-os.o(.text)
    raw_semaphore_get                        0x14000675   Thumb Code   120  raw-os.o(.text)
    raw_task_semaphore_get                   0x140006ed   Thumb Code    10  raw-os.o(.text)
    raw_task_create                          0x14000713   Thumb Code   256  raw-os.o(.text)
    tick_task_start                          0x14000813   Thumb Code    54  raw-os.o(.text)
    raw_mutex_create                         0x14000849   Thumb Code    50  raw-os.o(.text)
    raw_wake_object                          0x140008d7   Thumb Code     2  raw-os.o(.text)
    raw_mutex_put                            0x140008d9   Thumb Code   164  raw-os.o(.text)
    raw_mutex_get                            0x1400097d   Thumb Code   302  raw-os.o(.text)
    raw_semaphore_set                        0x14000aab   Thumb Code    78  raw-os.o(.text)
    timer_task                               0x14000af9   Thumb Code   166  raw-os.o(.text)
    raw_timer_init                           0x14000b9f   Thumb Code    66  raw-os.o(.text)
    raw_idle_task                            0x14000be1   Thumb Code    30  raw-os.o(.text)
    tick_list_init                           0x14000bff   Thumb Code    10  raw-os.o(.text)
    run_queue_init                           0x14000c09   Thumb Code    26  raw-os.o(.text)
    raw_os_init                              0x14000c23   Thumb Code    98  raw-os.o(.text)
    raw_os_start                             0x14000c85   Thumb Code    36  raw-os.o(.text)
    move_to_ready_list_end                   0x14000ca9   Thumb Code    30  raw-os.o(.text)
    calculate_time_slice                     0x14000cc7   Thumb Code    76  raw-os.o(.text)
    wake_send_msg                            0x14000d13   Thumb Code     4  raw-os.o(.text)
    wake_send_msg_size                       0x14000d17   Thumb Code     6  raw-os.o(.text)
    delete_pend_obj                          0x14000d1d   Thumb Code    94  raw-os.o(.text)
    raw_task_stack_check                     0x14000d7b   Thumb Code    46  raw-os.o(.text)
    raw_disable_sche                         0x14000da9   Thumb Code    40  raw-os.o(.text)
    raw_enable_sche                          0x14000dd1   Thumb Code    56  raw-os.o(.text)
    raw_sleep                                0x14000e09   Thumb Code    96  raw-os.o(.text)
    raw_time_sleep                           0x14000e69   Thumb Code   160  raw-os.o(.text)
    task_suspend                             0x14000f09   Thumb Code   140  raw-os.o(.text)
    raw_task_suspend                         0x14000f95   Thumb Code    18  raw-os.o(.text)
    task_resume                              0x14000fa7   Thumb Code   140  raw-os.o(.text)
    raw_task_resume                          0x14001033   Thumb Code     8  raw-os.o(.text)
    chg_pri_mutex                            0x1400103b   Thumb Code   114  raw-os.o(.text)
    raw_task_priority_change                 0x140010ad   Thumb Code   110  raw-os.o(.text)
    raw_task_free_mutex                      0x1400111b   Thumb Code    66  raw-os.o(.text)
    raw_task_delete                          0x1400115d   Thumb Code   166  raw-os.o(.text)
    raw_set_task_user_point                  0x14001203   Thumb Code    26  raw-os.o(.text)
    raw_get_task_user_point                  0x1400121d   Thumb Code     8  raw-os.o(.text)
    raw_task_time_slice_change               0x14001225   Thumb Code    48  raw-os.o(.text)
    raw_set_sched_way                        0x14001255   Thumb Code    48  raw-os.o(.text)
    raw_get_sched_way                        0x14001285   Thumb Code    40  raw-os.o(.text)
    raw_task_wait_abort                      0x140012ad   Thumb Code   166  raw-os.o(.text)
    raw_task_identify                        0x14001353   Thumb Code     6  raw-os.o(.text)
    raw_iter_block_task                      0x14001359   Thumb Code    68  raw-os.o(.text)
    raw_get_system_global_space              0x1400139d   Thumb Code     6  raw-os.o(.text)
    raw_block_pool_create                    0x140013a3   Thumb Code    98  raw-os.o(.text)
    raw_block_allocate                       0x14001405   Thumb Code    70  raw-os.o(.text)
    raw_block_release                        0x1400144b   Thumb Code    48  raw-os.o(.text)
    raw_byte_pool_create                     0x1400147b   Thumb Code    78  raw-os.o(.text)
    raw_byte_allocate                        0x140014c9   Thumb Code    90  raw-os.o(.text)
    raw_byte_release                         0x14001523   Thumb Code    60  raw-os.o(.text)
    raw_event_create                         0x1400155f   Thumb Code    26  raw-os.o(.text)
    raw_event_get                            0x14001579   Thumb Code   196  raw-os.o(.text)
    event_set                                0x1400163d   Thumb Code   128  raw-os.o(.text)
    raw_event_set                            0x140016bd   Thumb Code    18  raw-os.o(.text)
    raw_event_delete                         0x140016cf   Thumb Code   100  raw-os.o(.text)
    raw_mutex_delete                         0x14001733   Thumb Code    80  raw-os.o(.text)
    raw_queue_create                         0x14001783   Thumb Code    60  raw-os.o(.text)
    raw_queue_full_register                  0x140017bf   Thumb Code    30  raw-os.o(.text)
    msg_post                                 0x140017dd   Thumb Code   196  raw-os.o(.text)
    raw_queue_front_post                     0x140018a1   Thumb Code    18  raw-os.o(.text)
    raw_queue_end_post                       0x140018b3   Thumb Code    18  raw-os.o(.text)
    raw_queue_post_notify                    0x140018c5   Thumb Code    18  raw-os.o(.text)
    raw_queue_all_post                       0x140018d7   Thumb Code    16  raw-os.o(.text)
    raw_queue_send_notify                    0x140018e7   Thumb Code    50  raw-os.o(.text)
    raw_queue_receive                        0x14001919   Thumb Code   182  raw-os.o(.text)
    raw_queue_full_check                     0x140019cf   Thumb Code    50  raw-os.o(.text)
    raw_queue_flush                          0x14001a01   Thumb Code    56  raw-os.o(.text)
    raw_queue_delete                         0x14001a39   Thumb Code    80  raw-os.o(.text)
    raw_queue_get_information                0x14001a89   Thumb Code    76  raw-os.o(.text)
    raw_queue_buffer_create                  0x14001ad5   Thumb Code    76  raw-os.o(.text)
    queue_buffer_post                        0x14001b21   Thumb Code   194  raw-os.o(.text)
    raw_queue_buffer_end_post                0x14001be3   Thumb Code    24  raw-os.o(.text)
    raw_queue_buffer_receive                 0x14001bfb   Thumb Code   238  raw-os.o(.text)
    raw_queue_buffer_flush                   0x14001ce9   Thumb Code    56  raw-os.o(.text)
    raw_queue_buffer_delete                  0x14001d21   Thumb Code    80  raw-os.o(.text)
    raw_queue_buffer_info_get                0x14001d71   Thumb Code    52  raw-os.o(.text)
    raw_queue_size_create                    0x14001da5   Thumb Code    72  raw-os.o(.text)
    raw_queue_size_full_register             0x14001ded   Thumb Code    30  raw-os.o(.text)
    msg_size_post                            0x14001e0b   Thumb Code   196  raw-os.o(.text)
    raw_queue_size_receive                   0x14001ecf   Thumb Code   234  raw-os.o(.text)
    raw_queue_size_front_post                0x14001fb9   Thumb Code    26  raw-os.o(.text)
    raw_queue_size_end_post                  0x14001fd3   Thumb Code    30  raw-os.o(.text)
    raw_queue_size_all_post                  0x14001ff1   Thumb Code    24  raw-os.o(.text)
    raw_queue_size_full_check                0x14002009   Thumb Code    50  raw-os.o(.text)
    raw_queue_size_flush                     0x1400203b   Thumb Code    68  raw-os.o(.text)
    raw_queue_size_delete                    0x1400207f   Thumb Code    80  raw-os.o(.text)
    raw_queue_size_get_information           0x140020cf   Thumb Code    70  raw-os.o(.text)
    semaphore_put                            0x14002115   Thumb Code   126  raw-os.o(.text)
    raw_semaphore_put                        0x14002193   Thumb Code    10  raw-os.o(.text)
    raw_semaphore_put_notify                 0x1400219d   Thumb Code    10  raw-os.o(.text)
    raw_semaphore_put_all                    0x140021a7   Thumb Code    10  raw-os.o(.text)
    raw_semphore_send_notify                 0x140021b1   Thumb Code    50  raw-os.o(.text)
    raw_semaphore_delete                     0x140021e3   Thumb Code    80  raw-os.o(.text)
    raw_stack_check                          0x14002233   Thumb Code    64  raw-os.o(.text)
    raw_finish_int                           0x14002273   Thumb Code    80  raw-os.o(.text)
    call_timer_task                          0x140022c3   Thumb Code    20  raw-os.o(.text)
    raw_task_semaphore_put                   0x140022d7   Thumb Code     4  raw-os.o(.text)
    raw_time_tick                            0x140022db   Thumb Code    32  raw-os.o(.text)
    raw_enter_interrupt                      0x140022fb   Thumb Code    54  raw-os.o(.text)
    raw_system_time_get                      0x14002331   Thumb Code     6  raw-os.o(.text)
    raw_system_time_set                      0x14002337   Thumb Code    28  raw-os.o(.text)
    raw_task_qsize_create                    0x14002353   Thumb Code    20  raw-os.o(.text)
    raw_task_qsize_receive                   0x14002367   Thumb Code    20  raw-os.o(.text)
    raw_task_qsize_front_post                0x1400237b   Thumb Code     4  raw-os.o(.text)
    raw_task_qsize_end_post                  0x1400237f   Thumb Code     4  raw-os.o(.text)
    raw_task_qsize_flush                     0x14002383   Thumb Code     4  raw-os.o(.text)
    raw_task_qsize_delete                    0x14002387   Thumb Code     4  raw-os.o(.text)
    raw_task_qsize_get_information           0x1400238b   Thumb Code     4  raw-os.o(.text)
    raw_task_semaphore_set                   0x1400238f   Thumb Code     6  raw-os.o(.text)
    raw_task_semaphore_delete                0x14002395   Thumb Code     4  raw-os.o(.text)
    raw_timer_activate                       0x14002399   Thumb Code   122  raw-os.o(.text)
    raw_timer_create                         0x14002413   Thumb Code   106  raw-os.o(.text)
    raw_timer_change                         0x1400247d   Thumb Code    92  raw-os.o(.text)
    raw_timer_deactivate                     0x140024d9   Thumb Code   100  raw-os.o(.text)
    raw_timer_delete                         0x1400253d   Thumb Code   100  raw-os.o(.text)
    fifo_init                                0x140026fd   Thumb Code    68  fifo.o(.text)
    fifo_in                                  0x14002741   Thumb Code    92  fifo.o(.text)
    fifo_out_peek                            0x140027db   Thumb Code    38  fifo.o(.text)
    fifo_out                                 0x14002801   Thumb Code    50  fifo.o(.text)
    fifo_out_all                             0x14002833   Thumb Code    62  fifo.o(.text)
    rsh_register_command                     0x14002871   Thumb Code    60  rsh.o(.text)
    rsh_process_command                      0x140028ad   Thumb Code   270  rsh.o(.text)
    rsh_get_parameter                        0x140029bb   Thumb Code    66  rsh.o(.text)
    raw_memmove                              0x14002a49   Thumb Code    44  string.o(.text)
    raw_memcmp                               0x14002a75   Thumb Code    28  string.o(.text)
    raw_strcpy                               0x14002a91   Thumb Code    18  string.o(.text)
    raw_strncpy                              0x14002aa3   Thumb Code    24  string.o(.text)
    raw_strcat                               0x14002abb   Thumb Code    28  string.o(.text)
    raw_strncat                              0x14002ad7   Thumb Code    44  string.o(.text)
    raw_strlen                               0x14002b03   Thumb Code    16  string.o(.text)
    raw_strncmp                              0x14002b13   Thumb Code    42  string.o(.text)
    raw_strcmp                               0x14002b3d   Thumb Code    34  string.o(.text)
    raw_strtol                               0x14002b5f   Thumb Code   194  string.o(.text)
    search_conf                              0x14002c21   Thumb Code    80  string.o(.text)
    OS_CPU_SR_Save                           0x14002c99   Thumb Code     0  cpu.o(.text)
    OS_CPU_SR_Restore                        0x14002ca1   Thumb Code     0  cpu.o(.text)
    CPU_IntDis                               0x14002ca7   Thumb Code     0  cpu.o(.text)
    CPU_IntEn                                0x14002cab   Thumb Code     0  cpu.o(.text)
    raw_start_first_task                     0x14002caf   Thumb Code     0  cpu.o(.text)
    port_task_switch                         0x14002cd7   Thumb Code     0  cpu.o(.text)
    raw_int_switch                           0x14002ce1   Thumb Code     0  cpu.o(.text)
    PendSV_Handler                           0x14002ceb   Thumb Code     0  cpu.o(.text)
    port_stack_init                          0x14002d3d   Thumb Code   324  port.o(.text)
    port_isr_stack_check                     0x14002e81   Thumb Code     2  port.o(.text)
    raw_os_init_hook                         0x14002e83   Thumb Code     2  port_hook.o(.text)
    raw_task_delete_hook                     0x14002e85   Thumb Code     2  port_hook.o(.text)
    raw_task_abort_hook                      0x14002e87   Thumb Code     2  port_hook.o(.text)
    raw_idle_task_hook                       0x14002e89   Thumb Code     2  port_hook.o(.text)
    raw_task_switch_hook                     0x14002e8b   Thumb Code     2  port_hook.o(.text)
    raw_tick_hook                            0x14002e8d   Thumb Code     2  port_hook.o(.text)
    task_create_hook                         0x14002e8f   Thumb Code     2  port_hook.o(.text)
    raw_idle_coroutine_hook                  0x14002e91   Thumb Code     4  port_hook.o(.text)
    raw_memcpy                               0x14002e95   Thumb Code    74  user_extension.o(.text)
    raw_memset                               0x14002edf   Thumb Code    62  user_extension.o(.text)
    port_system_error_process                0x14002f1d   Thumb Code   106  port_error_process.o(.text)
    Reset_Handler                            0x14002f89   Thumb Code     8  keil_startup_lpc18xx43xx.o(.text)
    NMI_Handler                              0x14002f91   Thumb Code     2  keil_startup_lpc18xx43xx.o(.text)
    HardFault_Handler                        0x14002f93   Thumb Code     2  keil_startup_lpc18xx43xx.o(.text)
    MemManage_Handler                        0x14002f95   Thumb Code     2  keil_startup_lpc18xx43xx.o(.text)
    BusFault_Handler                         0x14002f97   Thumb Code     2  keil_startup_lpc18xx43xx.o(.text)
    UsageFault_Handler                       0x14002f99   Thumb Code     2  keil_startup_lpc18xx43xx.o(.text)
    SVC_Handler                              0x14002f9b   Thumb Code     2  keil_startup_lpc18xx43xx.o(.text)
    DebugMon_Handler                         0x14002f9d   Thumb Code     2  keil_startup_lpc18xx43xx.o(.text)
    UnHandled_Vector                         0x14002fa3   Thumb Code     2  keil_startup_lpc18xx43xx.o(.text)
    ADC0_IRQHandler                          0x14002fa5   Thumb Code     0  keil_startup_lpc18xx43xx.o(.text)
    ADC1_IRQHandler                          0x14002fa5   Thumb Code     0  keil_startup_lpc18xx43xx.o(.text)
    ADCHS_IRQHandler                         0x14002fa5   Thumb Code     0  keil_startup_lpc18xx43xx.o(.text)
    ATIMER_IRQHandler                        0x14002fa5   Thumb Code     0  keil_startup_lpc18xx43xx.o(.text)
    CAN0_IRQHandler                          0x14002fa5   Thumb Code     0  keil_startup_lpc18xx43xx.o(.text)
    CAN1_IRQHandler                          0x14002fa5   Thumb Code     0  keil_startup_lpc18xx43xx.o(.text)
    DAC_IRQHandler                           0x14002fa5   Thumb Code     0  keil_startup_lpc18xx43xx.o(.text)
    DMA_IRQHandler                           0x14002fa5   Thumb Code     0  keil_startup_lpc18xx43xx.o(.text)
    ETH_IRQHandler                           0x14002fa5   Thumb Code     0  keil_startup_lpc18xx43xx.o(.text)
    EVRT_IRQHandler                          0x14002fa5   Thumb Code     0  keil_startup_lpc18xx43xx.o(.text)
    FLASHEEPROM_IRQHandler                   0x14002fa5   Thumb Code     0  keil_startup_lpc18xx43xx.o(.text)
    GINT0_IRQHandler                         0x14002fa5   Thumb Code     0  keil_startup_lpc18xx43xx.o(.text)
    GINT1_IRQHandler                         0x14002fa5   Thumb Code     0  keil_startup_lpc18xx43xx.o(.text)
    GPIO0_IRQHandler                         0x14002fa5   Thumb Code     0  keil_startup_lpc18xx43xx.o(.text)
    GPIO1_IRQHandler                         0x14002fa5   Thumb Code     0  keil_startup_lpc18xx43xx.o(.text)
    GPIO2_IRQHandler                         0x14002fa5   Thumb Code     0  keil_startup_lpc18xx43xx.o(.text)
    GPIO3_IRQHandler                         0x14002fa5   Thumb Code     0  keil_startup_lpc18xx43xx.o(.text)
    GPIO4_IRQHandler                         0x14002fa5   Thumb Code     0  keil_startup_lpc18xx43xx.o(.text)
    GPIO5_IRQHandler                         0x14002fa5   Thumb Code     0  keil_startup_lpc18xx43xx.o(.text)
    GPIO6_IRQHandler                         0x14002fa5   Thumb Code     0  keil_startup_lpc18xx43xx.o(.text)
    GPIO7_IRQHandler                         0x14002fa5   Thumb Code     0  keil_startup_lpc18xx43xx.o(.text)
    I2C0_IRQHandler                          0x14002fa5   Thumb Code     0  keil_startup_lpc18xx43xx.o(.text)
    I2C1_IRQHandler                          0x14002fa5   Thumb Code     0  keil_startup_lpc18xx43xx.o(.text)
    I2S0_IRQHandler                          0x14002fa5   Thumb Code     0  keil_startup_lpc18xx43xx.o(.text)
    I2S1_IRQHandler                          0x14002fa5   Thumb Code     0  keil_startup_lpc18xx43xx.o(.text)
    LCD_IRQHandler                           0x14002fa5   Thumb Code     0  keil_startup_lpc18xx43xx.o(.text)
    MCPWM_IRQHandler                         0x14002fa5   Thumb Code     0  keil_startup_lpc18xx43xx.o(.text)
    MX_CORE_IRQHandler                       0x14002fa5   Thumb Code     0  keil_startup_lpc18xx43xx.o(.text)
    QEI_IRQHandler                           0x14002fa5   Thumb Code     0  keil_startup_lpc18xx43xx.o(.text)
    RIT_IRQHandler                           0x14002fa5   Thumb Code     0  keil_startup_lpc18xx43xx.o(.text)
    RTC_IRQHandler                           0x14002fa5   Thumb Code     0  keil_startup_lpc18xx43xx.o(.text)
    SCT_IRQHandler                           0x14002fa5   Thumb Code     0  keil_startup_lpc18xx43xx.o(.text)
    SDIO_IRQHandler                          0x14002fa5   Thumb Code     0  keil_startup_lpc18xx43xx.o(.text)
    SGPIO_IRQHandler                         0x14002fa5   Thumb Code     0  keil_startup_lpc18xx43xx.o(.text)
    SPIFI_IRQHandler                         0x14002fa5   Thumb Code     0  keil_startup_lpc18xx43xx.o(.text)
    SPI_IRQHandler                           0x14002fa5   Thumb Code     0  keil_startup_lpc18xx43xx.o(.text)
    SSP0_IRQHandler                          0x14002fa5   Thumb Code     0  keil_startup_lpc18xx43xx.o(.text)
    SSP1_IRQHandler                          0x14002fa5   Thumb Code     0  keil_startup_lpc18xx43xx.o(.text)
    TIMER0_IRQHandler                        0x14002fa5   Thumb Code     0  keil_startup_lpc18xx43xx.o(.text)
    TIMER1_IRQHandler                        0x14002fa5   Thumb Code     0  keil_startup_lpc18xx43xx.o(.text)
    TIMER2_IRQHandler                        0x14002fa5   Thumb Code     0  keil_startup_lpc18xx43xx.o(.text)
    TIMER3_IRQHandler                        0x14002fa5   Thumb Code     0  keil_startup_lpc18xx43xx.o(.text)
    UART0_IRQHandler                         0x14002fa5   Thumb Code     0  keil_startup_lpc18xx43xx.o(.text)
    UART1_IRQHandler                         0x14002fa5   Thumb Code     0  keil_startup_lpc18xx43xx.o(.text)
    UART2_IRQHandler                         0x14002fa5   Thumb Code     0  keil_startup_lpc18xx43xx.o(.text)
    USB0_IRQHandler                          0x14002fa5   Thumb Code     0  keil_startup_lpc18xx43xx.o(.text)
    USB1_IRQHandler                          0x14002fa5   Thumb Code     0  keil_startup_lpc18xx43xx.o(.text)
    WDT_IRQHandler                           0x14002fa5   Thumb Code     0  keil_startup_lpc18xx43xx.o(.text)
    __user_initial_stackheap                 0x14002fa9   Thumb Code     0  keil_startup_lpc18xx43xx.o(.text)
    SystemInit                               0x14002fcd   Thumb Code    20  sysinit.o(.text)
    SysTick_Handler                          0x14002fe9   Thumb Code    18  main.o(.text)
    OS_CPU_SysTickInit                       0x14002ffb   Thumb Code    48  main.o(.text)
    uart_3_recv                              0x1400302b   Thumb Code    76  main.o(.text)
    read_cmd                                 0x14003077   Thumb Code   204  main.o(.text)
    UART3_IRQHandler                         0x14003143   Thumb Code    56  main.o(.text)
    shell_task                               0x1400317b   Thumb Code   140  main.o(.text)
    main                                     0x14003207   Thumb Code    56  main.o(.text)
    string_to_int                            0x140032c1   Thumb Code    42  command_example.o(.text)
    three_parameters_cmd_register            0x14003367   Thumb Code    10  command_example.o(.text)
    no_parameters_cmd_register               0x14003371   Thumb Code    12  command_example.o(.text)
    register_task_stack_command              0x14003435   Thumb Code     8  task_stack_detect.o(.text)
    __2printf                                0x1400347d   Thumb Code    20  noretval__2printf.o(.text)
    __printf                                 0x14003495   Thumb Code   104  __printf.o(.text)
    _printf_str                              0x140034fd   Thumb Code    82  _printf_str.o(.text)
    _printf_int_dec                          0x14003551   Thumb Code   104  _printf_dec.o(.text)
    __aeabi_memclr4                          0x140035c9   Thumb Code     0  rt_memclr_w.o(.text)
    __aeabi_memclr8                          0x140035c9   Thumb Code     0  rt_memclr_w.o(.text)
    __rt_memclr_w                            0x140035c9   Thumb Code    78  rt_memclr_w.o(.text)
    _memset_w                                0x140035cd   Thumb Code     0  rt_memclr_w.o(.text)
    __use_two_region_memory                  0x14003617   Thumb Code     2  heapauxi.o(.text)
    __rt_heap_escrow$2region                 0x14003619   Thumb Code     2  heapauxi.o(.text)
    __rt_heap_expand$2region                 0x1400361b   Thumb Code     2  heapauxi.o(.text)
    _printf_int_common                       0x1400361d   Thumb Code   178  _printf_intcommon.o(.text)
    _printf_cs_common                        0x140036cf   Thumb Code    20  _printf_char.o(.text)
    _printf_char                             0x140036e3   Thumb Code    16  _printf_char.o(.text)
    _printf_string                           0x140036f3   Thumb Code     8  _printf_char.o(.text)
    _printf_char_file                        0x140036fd   Thumb Code    32  _printf_char_file.o(.text)
    _printf_char_common                      0x1400372b   Thumb Code    32  _printf_char_common.o(.text)
    __user_setup_stackheap                   0x14003751   Thumb Code    74  sys_stackheap_outer.o(.text)
    exit                                     0x1400379b   Thumb Code    18  exit.o(.text)
    __user_libspace                          0x140037ad   Thumb Code     8  libspace.o(.text)
    __user_perproc_libspace                  0x140037ad   Thumb Code     0  libspace.o(.text)
    __user_perthread_libspace                0x140037ad   Thumb Code     0  libspace.o(.text)
    Board_SetupClocking                      0x140037b5   Thumb Code   158  board_sysinit.o(i.Board_SetupClocking)
    Board_SetupMuxing                        0x14003869   Thumb Code    58  board_sysinit.o(i.Board_SetupMuxing)
    Board_SystemInit                         0x140038b5   Thumb Code    12  board_sysinit.o(i.Board_SystemInit)
    Board_UARTPutChar                        0x140038c1   Thumb Code    26  board.o(i.Board_UARTPutChar)
    Board_UART_Init                          0x140038e1   Thumb Code    60  board.o(i.Board_UART_Init)
    Chip_Clock_EnableOpts                    0x14003925   Thumb Code    52  clock_18xx_43xx.o(i.Chip_Clock_EnableOpts)
    Chip_Clock_GetBaseClock                  0x140039b1   Thumb Code    32  clock_18xx_43xx.o(i.Chip_Clock_GetBaseClock)
    Chip_Clock_GetBaseClocktHz               0x140039d5   Thumb Code    18  clock_18xx_43xx.o(i.Chip_Clock_GetBaseClocktHz)
    Chip_Clock_GetClockInputHz               0x140039e9   Thumb Code   182  clock_18xx_43xx.o(i.Chip_Clock_GetClockInputHz)
    Chip_Clock_GetDividerDivisor             0x14003ae5   Thumb Code    18  clock_18xx_43xx.o(i.Chip_Clock_GetDividerDivisor)
    Chip_Clock_GetDividerSource              0x14003b05   Thumb Code    26  clock_18xx_43xx.o(i.Chip_Clock_GetDividerSource)
    Chip_Clock_GetMainPLLHz                  0x14003b25   Thumb Code   110  clock_18xx_43xx.o(i.Chip_Clock_GetMainPLLHz)
    Chip_Clock_GetRate                       0x14003b9d   Thumb Code    78  clock_18xx_43xx.o(i.Chip_Clock_GetRate)
    Chip_Clock_SetBaseClock                  0x14003bf5   Thumb Code    64  clock_18xx_43xx.o(i.Chip_Clock_SetBaseClock)
    Chip_Clock_SetDivider                    0x14003c3d   Thumb Code    64  clock_18xx_43xx.o(i.Chip_Clock_SetDivider)
    Chip_SetupCoreClock                      0x14003ccd   Thumb Code    14  sysinit_18xx_43xx.o(i.Chip_SetupCoreClock)
    Chip_UART_Init                           0x14003d21   Thumb Code    72  uart_18xx_43xx.o(i.Chip_UART_Init)
    Chip_UART_SetBaud                        0x14003d6d   Thumb Code    66  uart_18xx_43xx.o(i.Chip_UART_SetBaud)
    SystemCoreClockUpdate                    0x14003db5   Thumb Code    14  chip_18xx_43xx.o(i.SystemCoreClockUpdate)
    _sys_exit                                0x14003dc9   Thumb Code     6  board.o(i._sys_exit)
    ferror                                   0x14003eb1   Thumb Code     8  board.o(i.ferror)
    fpuInit                                  0x14003eb9   Thumb Code    62  fpu_init.o(i.fpuInit)
    fputc                                    0x14003f09   Thumb Code    20  board.o(i.fputc)
    _fp_init                                 0x14003f1d   Thumb Code    10  fpinit.o(x$fpl$fpinit)
    __fplib_config_fpu_vfp                   0x14003f25   Thumb Code     0  fpinit.o(x$fpl$fpinit)
    __fplib_config_pureend_doubles           0x14003f25   Thumb Code     0  fpinit.o(x$fpl$fpinit)
    ad_left                                  0x14003f58   Data           4  board.o(.constdata)
    ad_top                                   0x14003f5c   Data           4  board.o(.constdata)
    ad_right                                 0x14003f60   Data           4  board.o(.constdata)
    ad_bottom                                0x14003f64   Data           4  board.o(.constdata)
    MCB4300_LCD                              0x14003f68   Data          22  board.o(.constdata)
    ExtRateIn                                0x14003f80   Data           4  board.o(.constdata)
    OscRateIn                                0x14003f84   Data           4  board.o(.constdata)
    Region$$Table$$Base                      0x140044b4   Number         0  anon$$obj.o(Region$$Table)
    Region$$Table$$Limit                     0x140044d4   Number         0  anon$$obj.o(Region$$Table)



==============================================================================

Memory Map of the image

  Image Entry point : 0x14000115

  Load Region LR_ROM1 (Base: 0x14000000, Size: 0x00004584, Max: 0x00400000, ABSOLUTE)

    Execution Region RW_IRAM1 (Base: 0x10000000, Size: 0x00002018, Max: 0x00008000, ABSOLUTE)

    Base Addr    Size         Type   Attr      Idx    E Section Name        Object

    0x10000000   0x00000040   Data   RW            3    .data               raw-os.o
    0x10000040   0x00000014   Data   RW          234    .data               rsh.o
    0x10000054   0x00000004   Data   RW          562    .data               main.o
    0x10000058   0x00000030   Data   RW          591    .data               command_example.o
    0x10000088   0x00000008   Data   RW          615    .data               task_stack_detect.o
    0x10000090   0x00000014   Data   RW          678    .data               lib_lpc_board_keil_mcb_4357.lib(board.o)
    0x100000a4   0x00000004   Data   RW         1210    .data               lib_lpc_chip_43xx.lib(chip_18xx_43xx.o)
    0x100000a8   0x00000008   Data   RW         1726    .data               lib_lpc_chip_43xx.lib(clock_18xx_43xx.o)
    0x100000b0   0x00000fa0   Zero   RW            2    .bss                raw-os.o
    0x10001050   0x00000864   Zero   RW          560    .bss                main.o
    0x100018b4   0x00000060   Zero   RW         2658    .bss                c_w.l(libspace.o)
    0x10001914   0x00000004   PAD
    0x10001918   0x00000100   Zero   RW          325    HEAP                keil_startup_lpc18xx43xx.o
    0x10001a18   0x00000600   Zero   RW          324    STACK               keil_startup_lpc18xx43xx.o


    Execution Region ER_ROM1 (Base: 0x14000000, Size: 0x000044d4, Max: 0x00400000, ABSOLUTE)

    Base Addr    Size         Type   Attr      Idx    E Section Name        Object

    0x14000000   0x00000114   Data   RO          326    RESET               keil_startup_lpc18xx43xx.o
    0x14000114   0x00000008   Code   RO         2606  * !!!main             c_w.l(__main.o)
    0x1400011c   0x00000034   Code   RO         2784    !!!scatter          c_w.l(__scatter.o)
    0x14000150   0x0000001a   Code   RO         2786    !!handler_copy      c_w.l(__scatter_copy.o)
    0x1400016a   0x00000002   PAD
    0x1400016c   0x0000001c   Code   RO         2788    !!handler_zi        c_w.l(__scatter_zi.o)
    0x14000188   0x00000000   Code   RO         2599    .ARM.Collect$$_printf_percent$$00000000  c_w.l(_printf_percent.o)
    0x14000188   0x00000006   Code   RO         2598    .ARM.Collect$$_printf_percent$$00000009  c_w.l(_printf_d.o)
    0x1400018e   0x00000006   Code   RO         2596    .ARM.Collect$$_printf_percent$$00000013  c_w.l(_printf_c.o)
    0x14000194   0x00000006   Code   RO         2597    .ARM.Collect$$_printf_percent$$00000014  c_w.l(_printf_s.o)
    0x1400019a   0x00000004   Code   RO         2619    .ARM.Collect$$_printf_percent$$00000017  c_w.l(_printf_percent_end.o)
    0x1400019e   0x00000002   Code   RO         2656    .ARM.Collect$$libinit$$00000000  c_w.l(libinit.o)
    0x140001a0   0x00000004   Code   RO         2668    .ARM.Collect$$libinit$$00000001  c_w.l(libinit2.o)
    0x140001a4   0x00000000   Code   RO         2671    .ARM.Collect$$libinit$$00000004  c_w.l(libinit2.o)
    0x140001a4   0x00000000   Code   RO         2674    .ARM.Collect$$libinit$$0000000A  c_w.l(libinit2.o)
    0x140001a4   0x00000000   Code   RO         2676    .ARM.Collect$$libinit$$0000000C  c_w.l(libinit2.o)
    0x140001a4   0x00000000   Code   RO         2678    .ARM.Collect$$libinit$$0000000E  c_w.l(libinit2.o)
    0x140001a4   0x00000000   Code   RO         2681    .ARM.Collect$$libinit$$00000011  c_w.l(libinit2.o)
    0x140001a4   0x00000000   Code   RO         2683    .ARM.Collect$$libinit$$00000013  c_w.l(libinit2.o)
    0x140001a4   0x00000000   Code   RO         2685    .ARM.Collect$$libinit$$00000015  c_w.l(libinit2.o)
    0x140001a4   0x00000000   Code   RO         2687    .ARM.Collect$$libinit$$00000017  c_w.l(libinit2.o)
    0x140001a4   0x00000000   Code   RO         2689    .ARM.Collect$$libinit$$00000019  c_w.l(libinit2.o)
    0x140001a4   0x00000000   Code   RO         2691    .ARM.Collect$$libinit$$0000001B  c_w.l(libinit2.o)
    0x140001a4   0x00000000   Code   RO         2693    .ARM.Collect$$libinit$$0000001D  c_w.l(libinit2.o)
    0x140001a4   0x00000000   Code   RO         2695    .ARM.Collect$$libinit$$0000001F  c_w.l(libinit2.o)
    0x140001a4   0x00000000   Code   RO         2697    .ARM.Collect$$libinit$$00000021  c_w.l(libinit2.o)
    0x140001a4   0x00000000   Code   RO         2699    .ARM.Collect$$libinit$$00000023  c_w.l(libinit2.o)
    0x140001a4   0x00000000   Code   RO         2701    .ARM.Collect$$libinit$$00000025  c_w.l(libinit2.o)
    0x140001a4   0x00000000   Code   RO         2705    .ARM.Collect$$libinit$$0000002C  c_w.l(libinit2.o)
    0x140001a4   0x00000000   Code   RO         2707    .ARM.Collect$$libinit$$0000002E  c_w.l(libinit2.o)
    0x140001a4   0x00000000   Code   RO         2709    .ARM.Collect$$libinit$$00000030  c_w.l(libinit2.o)
    0x140001a4   0x00000000   Code   RO         2711    .ARM.Collect$$libinit$$00000032  c_w.l(libinit2.o)
    0x140001a4   0x00000002   Code   RO         2712    .ARM.Collect$$libinit$$00000033  c_w.l(libinit2.o)
    0x140001a6   0x00000002   Code   RO         2738    .ARM.Collect$$libshutdown$$00000000  c_w.l(libshutdown.o)
    0x140001a8   0x00000000   Code   RO         2767    .ARM.Collect$$libshutdown$$00000002  c_w.l(libshutdown2.o)
    0x140001a8   0x00000000   Code   RO         2769    .ARM.Collect$$libshutdown$$00000004  c_w.l(libshutdown2.o)
    0x140001a8   0x00000000   Code   RO         2772    .ARM.Collect$$libshutdown$$00000007  c_w.l(libshutdown2.o)
    0x140001a8   0x00000000   Code   RO         2775    .ARM.Collect$$libshutdown$$0000000A  c_w.l(libshutdown2.o)
    0x140001a8   0x00000000   Code   RO         2777    .ARM.Collect$$libshutdown$$0000000C  c_w.l(libshutdown2.o)
    0x140001a8   0x00000000   Code   RO         2780    .ARM.Collect$$libshutdown$$0000000F  c_w.l(libshutdown2.o)
    0x140001a8   0x00000002   Code   RO         2781    .ARM.Collect$$libshutdown$$00000010  c_w.l(libshutdown2.o)
    0x140001aa   0x00000000   Code   RO         2608    .ARM.Collect$$rtentry$$00000000  c_w.l(__rtentry.o)
    0x140001aa   0x00000000   Code   RO         2623    .ARM.Collect$$rtentry$$00000002  c_w.l(__rtentry2.o)
    0x140001aa   0x00000006   Code   RO         2635    .ARM.Collect$$rtentry$$00000004  c_w.l(__rtentry4.o)
    0x140001b0   0x00000000   Code   RO         2625    .ARM.Collect$$rtentry$$00000009  c_w.l(__rtentry2.o)
    0x140001b0   0x00000004   Code   RO         2626    .ARM.Collect$$rtentry$$0000000A  c_w.l(__rtentry2.o)
    0x140001b4   0x00000000   Code   RO         2628    .ARM.Collect$$rtentry$$0000000C  c_w.l(__rtentry2.o)
    0x140001b4   0x00000008   Code   RO         2629    .ARM.Collect$$rtentry$$0000000D  c_w.l(__rtentry2.o)
    0x140001bc   0x00000002   Code   RO         2660    .ARM.Collect$$rtexit$$00000000  c_w.l(rtexit.o)
    0x140001be   0x00000000   Code   RO         2714    .ARM.Collect$$rtexit$$00000002  c_w.l(rtexit2.o)
    0x140001be   0x00000004   Code   RO         2715    .ARM.Collect$$rtexit$$00000003  c_w.l(rtexit2.o)
    0x140001c2   0x00000006   Code   RO         2716    .ARM.Collect$$rtexit$$00000004  c_w.l(rtexit2.o)
    0x140001c8   0x00002534   Code   RO            1    .text               raw-os.o
    0x140026fc   0x00000174   Code   RO          175    .text               fifo.o
    0x14002870   0x000001d8   Code   RO          230    .text               rsh.o
    0x14002a48   0x00000250   Code   RO          253    .text               string.o
    0x14002c98   0x000000a4   Code   RO          266    .text               cpu.o
    0x14002d3c   0x00000146   Code   RO          270    .text               port.o
    0x14002e82   0x00000012   Code   RO          282    .text               port_hook.o
    0x14002e94   0x00000088   Code   RO          300    .text               user_extension.o
    0x14002f1c   0x0000006a   Code   RO          312    .text               port_error_process.o
    0x14002f86   0x00000002   PAD
    0x14002f88   0x00000044   Code   RO          327    .text               keil_startup_lpc18xx43xx.o
    0x14002fcc   0x0000001c   Code   RO          333    .text               sysinit.o
    0x14002fe8   0x000002d8   Code   RO          559    .text               main.o
    0x140032c0   0x0000014c   Code   RO          589    .text               command_example.o
    0x1400340c   0x00000070   Code   RO          612    .text               task_stack_detect.o
    0x1400347c   0x00000018   Code   RO         2568    .text               c_w.l(noretval__2printf.o)
    0x14003494   0x00000068   Code   RO         2570    .text               c_w.l(__printf.o)
    0x140034fc   0x00000052   Code   RO         2572    .text               c_w.l(_printf_str.o)
    0x1400354e   0x00000002   PAD
    0x14003550   0x00000078   Code   RO         2574    .text               c_w.l(_printf_dec.o)
    0x140035c8   0x0000004e   Code   RO         2602    .text               c_w.l(rt_memclr_w.o)
    0x14003616   0x00000006   Code   RO         2604    .text               c_w.l(heapauxi.o)
    0x1400361c   0x000000b2   Code   RO         2613    .text               c_w.l(_printf_intcommon.o)
    0x140036ce   0x0000002c   Code   RO         2615    .text               c_w.l(_printf_char.o)
    0x140036fa   0x00000002   PAD
    0x140036fc   0x00000024   Code   RO         2617    .text               c_w.l(_printf_char_file.o)
    0x14003720   0x00000030   Code   RO         2639    .text               c_w.l(_printf_char_common.o)
    0x14003750   0x0000004a   Code   RO         2641    .text               c_w.l(sys_stackheap_outer.o)
    0x1400379a   0x00000012   Code   RO         2645    .text               c_w.l(exit.o)
    0x140037ac   0x00000008   Code   RO         2657    .text               c_w.l(libspace.o)
    0x140037b4   0x000000b4   Code   RO         1130    i.Board_SetupClocking  lib_lpc_board_keil_mcb_4357.lib(board_sysinit.o)
    0x14003868   0x0000004c   Code   RO         1132    i.Board_SetupMuxing  lib_lpc_board_keil_mcb_4357.lib(board_sysinit.o)
    0x140038b4   0x0000000c   Code   RO         1133    i.Board_SystemInit  lib_lpc_board_keil_mcb_4357.lib(board_sysinit.o)
    0x140038c0   0x00000020   Code   RO          653    i.Board_UARTPutChar  lib_lpc_board_keil_mcb_4357.lib(board.o)
    0x140038e0   0x00000044   Code   RO          655    i.Board_UART_Init   lib_lpc_board_keil_mcb_4357.lib(board.o)
    0x14003924   0x0000003c   Code   RO         1700    i.Chip_Clock_EnableOpts  lib_lpc_chip_43xx.lib(clock_18xx_43xx.o)
    0x14003960   0x00000050   Code   RO         1702    i.Chip_Clock_FindBaseClock  lib_lpc_chip_43xx.lib(clock_18xx_43xx.o)
    0x140039b0   0x00000024   Code   RO         1703    i.Chip_Clock_GetBaseClock  lib_lpc_chip_43xx.lib(clock_18xx_43xx.o)
    0x140039d4   0x00000012   Code   RO         1705    i.Chip_Clock_GetBaseClocktHz  lib_lpc_chip_43xx.lib(clock_18xx_43xx.o)
    0x140039e6   0x00000002   PAD
    0x140039e8   0x000000d4   Code   RO         1706    i.Chip_Clock_GetClockInputHz  lib_lpc_chip_43xx.lib(clock_18xx_43xx.o)
    0x14003abc   0x00000028   Code   RO         1707    i.Chip_Clock_GetDivRate  lib_lpc_chip_43xx.lib(clock_18xx_43xx.o)
    0x14003ae4   0x00000020   Code   RO         1708    i.Chip_Clock_GetDividerDivisor  lib_lpc_chip_43xx.lib(clock_18xx_43xx.o)
    0x14003b04   0x00000020   Code   RO         1709    i.Chip_Clock_GetDividerSource  lib_lpc_chip_43xx.lib(clock_18xx_43xx.o)
    0x14003b24   0x00000078   Code   RO         1711    i.Chip_Clock_GetMainPLLHz  lib_lpc_chip_43xx.lib(clock_18xx_43xx.o)
    0x14003b9c   0x00000058   Code   RO         1713    i.Chip_Clock_GetRate  lib_lpc_chip_43xx.lib(clock_18xx_43xx.o)
    0x14003bf4   0x00000048   Code   RO         1717    i.Chip_Clock_SetBaseClock  lib_lpc_chip_43xx.lib(clock_18xx_43xx.o)
    0x14003c3c   0x00000050   Code   RO         1718    i.Chip_Clock_SetDivider  lib_lpc_chip_43xx.lib(clock_18xx_43xx.o)
    0x14003c8c   0x00000010   Code   RO          661    i.Chip_SCU_PinMuxSet  lib_lpc_board_keil_mcb_4357.lib(board.o)
    0x14003c9c   0x00000030   Code   RO         1134    i.Chip_SCU_SetPinMuxing  lib_lpc_board_keil_mcb_4357.lib(board_sysinit.o)
    0x14003ccc   0x0000000e   Code   RO         2454    i.Chip_SetupCoreClock  lib_lpc_chip_43xx.lib(sysinit_18xx_43xx.o)
    0x14003cda   0x0000000a   Code   RO         1432    i.Chip_UART_DisableDivisorAccess  lib_lpc_chip_43xx.lib(uart_18xx_43xx.o)
    0x14003ce4   0x0000000a   Code   RO         1433    i.Chip_UART_EnableDivisorAccess  lib_lpc_chip_43xx.lib(uart_18xx_43xx.o)
    0x14003cee   0x00000002   PAD
    0x14003cf0   0x00000030   Code   RO         1435    i.Chip_UART_GetClockIndex  lib_lpc_chip_43xx.lib(uart_18xx_43xx.o)
    0x14003d20   0x0000004c   Code   RO         1437    i.Chip_UART_Init    lib_lpc_chip_43xx.lib(uart_18xx_43xx.o)
    0x14003d6c   0x00000042   Code   RO         1449    i.Chip_UART_SetBaud  lib_lpc_chip_43xx.lib(uart_18xx_43xx.o)
    0x14003dae   0x00000006   Code   RO         1451    i.Chip_UART_SetDivisorLatches  lib_lpc_chip_43xx.lib(uart_18xx_43xx.o)
    0x14003db4   0x00000014   Code   RO         1208    i.SystemCoreClockUpdate  lib_lpc_chip_43xx.lib(chip_18xx_43xx.o)
    0x14003dc8   0x00000006   Code   RO          663    i._sys_exit         lib_lpc_board_keil_mcb_4357.lib(board.o)
    0x14003dce   0x00000024   Code   RO         2458    i.clock_init_delay  lib_lpc_chip_43xx.lib(sysinit_18xx_43xx.o)
    0x14003df2   0x00000002   PAD
    0x14003df4   0x000000bc   Code   RO         2459    i.clock_main_init   lib_lpc_chip_43xx.lib(sysinit_18xx_43xx.o)
    0x14003eb0   0x00000008   Code   RO          667    i.ferror            lib_lpc_board_keil_mcb_4357.lib(board.o)
    0x14003eb8   0x00000050   Code   RO         1603    i.fpuInit           lib_lpc_chip_43xx.lib(fpu_init.o)
    0x14003f08   0x00000014   Code   RO          669    i.fputc             lib_lpc_board_keil_mcb_4357.lib(board.o)
    0x14003f1c   0x0000000a   Code   RO         2726    x$fpl$fpinit        fz_wm.l(fpinit.o)
    0x14003f26   0x00000002   PAD
    0x14003f28   0x00000010   Data   RO          231    .constdata          rsh.o
    0x14003f38   0x00000010   Data   RO          613    .constdata          task_stack_detect.o
    0x14003f48   0x00000040   Data   RO          677    .constdata          lib_lpc_board_keil_mcb_4357.lib(board.o)
    0x14003f88   0x000002bc   Data   RO         1135    .constdata          lib_lpc_board_keil_mcb_4357.lib(board_sysinit.o)
    0x14004244   0x0000006c   Data   RO         1725    .constdata          lib_lpc_chip_43xx.lib(clock_18xx_43xx.o)
    0x140042b0   0x00000048   Data   RO         2460    .constdata          lib_lpc_chip_43xx.lib(sysinit_18xx_43xx.o)
    0x140042f8   0x00000031   Data   RO          232    .conststring        rsh.o
    0x14004329   0x00000003   PAD
    0x1400432c   0x000000ad   Data   RO          233    .conststring        rsh.o
    0x140043d9   0x00000003   PAD
    0x140043dc   0x000000a5   Data   RO          590    .conststring        command_example.o
    0x14004481   0x00000003   PAD
    0x14004484   0x0000002e   Data   RO          614    .conststring        task_stack_detect.o
    0x140044b2   0x00000002   PAD
    0x140044b4   0x00000020   Data   RO         2782    Region$$Table       anon$$obj.o


==============================================================================

Image component sizes


      Code (inc. data)   RO Data    RW Data    ZI Data      Debug   Object Name

       332        144        165         48          0       4607   command_example.o
       164         16          0          0          0        396   cpu.o
       372          0          0          0          0       8548   fifo.o
        68         28        276          0       1792        948   keil_startup_lpc18xx43xx.o
       728         76          0          4       2148      36627   main.o
       326          0          0          0          0       1691   port.o
       106          0          0          0          0       1416   port_error_process.o
        18          0          0          0          0       1839   port_hook.o
      9524        256          0         64       4000      81804   raw-os.o
       472         14        238         20          0       4937   rsh.o
       592         40          0          0          0       5126   string.o
        28          8          0          0          0       6377   sysinit.o
       112         64         62          8          0       1710   task_stack_detect.o
       136          0          0          0          0       1876   user_extension.o

    ----------------------------------------------------------------------
     12980        646        784        144       7940     157902   Object Totals
         0          0         32          0          0          0   (incl. Generated)
         2          0         11          0          0          0   (incl. Padding)

    ----------------------------------------------------------------------

      Code (inc. data)   RO Data    RW Data    ZI Data      Debug   Library Member Name

         8          0          0          0          0         68   __main.o
       104          0          0          0          0         84   __printf.o
         0          0          0          0          0          0   __rtentry.o
        12          0          0          0          0          0   __rtentry2.o
         6          0          0          0          0          0   __rtentry4.o
        52          8          0          0          0          0   __scatter.o
        26          0          0          0          0          0   __scatter_copy.o
        28          0          0          0          0          0   __scatter_zi.o
         6          0          0          0          0          0   _printf_c.o
        44          0          0          0          0        108   _printf_char.o
        48          6          0          0          0         96   _printf_char_common.o
        36          4          0          0          0         80   _printf_char_file.o
         6          0          0          0          0          0   _printf_d.o
       120         16          0          0          0         92   _printf_dec.o
       178          0          0          0          0         88   _printf_intcommon.o
         0          0          0          0          0          0   _printf_percent.o
         4          0          0          0          0          0   _printf_percent_end.o
         6          0          0          0          0          0   _printf_s.o
        82          0          0          0          0         80   _printf_str.o
        18          0          0          0          0         80   exit.o
         6          0          0          0          0        152   heapauxi.o
         2          0          0          0          0          0   libinit.o
         6          0          0          0          0          0   libinit2.o
         2          0          0          0          0          0   libshutdown.o
         2          0          0          0          0          0   libshutdown2.o
         8          4          0          0         96         68   libspace.o
        24          4          0          0          0         84   noretval__2printf.o
        78          0          0          0          0         80   rt_memclr_w.o
         2          0          0          0          0          0   rtexit.o
        10          0          0          0          0          0   rtexit2.o
        74          0          0          0          0         80   sys_stackheap_outer.o
        10          0          0          0          0        116   fpinit.o
       150         18         64         20          0      34818   board.o
       316         44        700          0          0      11181   board_sysinit.o
        20          6          0          4          0       4114   chip_18xx_43xx.o
       870        130        108          8          0       8770   clock_18xx_43xx.o
        80         18          0          0          0       1234   fpu_init.o
       238         20         72          0          0       2286   sysinit_18xx_43xx.o
       216         16          0          0          0       9189   uart_18xx_43xx.o

    ----------------------------------------------------------------------
      2912        294        944         32        100      72948   Library Totals
        14          0          0          0          4          0   (incl. Padding)

    ----------------------------------------------------------------------

      Code (inc. data)   RO Data    RW Data    ZI Data      Debug   Library Name

       998         42          0          0         96       1240   c_w.l
        10          0          0          0          0        116   fz_wm.l
       466         62        764         20          0      45999   lib_lpc_board_keil_mcb_4357.lib
      1424        190        180         12          0      25593   lib_lpc_chip_43xx.lib

    ----------------------------------------------------------------------
      2912        294        944         32        100      72948   Library Totals

    ----------------------------------------------------------------------

==============================================================================


      Code (inc. data)   RO Data    RW Data    ZI Data      Debug   

     15892        940       1728        176       8040     225830   Grand Totals
     15892        940       1728        176       8040     225830   ELF Image Totals
     15892        940       1728        176          0          0   ROM Totals

==============================================================================

    Total RO  Size (Code + RO Data)                17620 (  17.21kB)
    Total RW  Size (RW Data + ZI Data)              8216 (   8.02kB)
    Total ROM Size (Code + RO Data + RW Data)      17796 (  17.38kB)

==============================================================================

