


ARM Macro Assembler    Page 1 


    1 00000000         ;/******************************************************
                       *****************
    2 00000000         ; * $Id: startup_LPC43xx.s 6473 2011-02-16 17:40:54Z nxp
                       27266 $
    3 00000000         ; *
    4 00000000         ; * Project: LPC43xx CMSIS Package
    5 00000000         ; *
    6 00000000         ; * Description: Cortex-M3 Core Device Startup File for 
                       the NXP LPC43xx 
    7 00000000         ; *              Device Series.
    8 00000000         ; *
    9 00000000         ; * Copyright(C) 2011, NXP Semiconductor
   10 00000000         ; * All rights reserved.
   11 00000000         ; *
   12 00000000         ; *                                                     
                        modified by KEIL
   13 00000000         ; ******************************************************
                       *****************
   14 00000000         ; * Software that is described herein is for illustrativ
                       e purposes only
   15 00000000         ; * which provides customers with programming informatio
                       n regarding the
   16 00000000         ; * products. This software is supplied "AS IS" without 
                       any warranties.
   17 00000000         ; * NXP Semiconductors assumes no responsibility or liab
                       ility for the
   18 00000000         ; * use of the software, conveys no license or title und
                       er any patent,
   19 00000000         ; * copyright, or mask work right to the product. NXP Se
                       miconductors
   20 00000000         ; * reserves the right to make changes in the software w
                       ithout
   21 00000000         ; * notification. NXP Semiconductors also make no repres
                       entation or
   22 00000000         ; * warranty that such application will be suitable for 
                       the specified
   23 00000000         ; * use without further testing or modification.
   24 00000000         ; ******************************************************
                       ****************/
   25 00000000         
   26 00000000         ; <h> Stack Configuration
   27 00000000         ;   <o> Stack Size (in Bytes) <0x0-0xFFFFFFFF:8>
   28 00000000         ; </h>
   29 00000000         
   30 00000000 00000200 
                       Stack_Size
                               EQU              0x00000200
   31 00000000         
   32 00000000                 AREA             STACK, NOINIT, READWRITE, ALIGN
=3
   33 00000000         Stack_Mem
                               SPACE            Stack_Size
   34 00000200         __initial_sp
   35 00000200         
   36 00000200         
   37 00000200         ; <h> Heap Configuration
   38 00000200         ;   <o>  Heap Size (in Bytes) <0x0-0xFFFFFFFF:8>
   39 00000200         ; </h>
   40 00000200         



ARM Macro Assembler    Page 2 


   41 00000200 00000000 
                       Heap_Size
                               EQU              0x00000000
   42 00000200         
   43 00000200                 AREA             HEAP, NOINIT, READWRITE, ALIGN=
3
   44 00000000         __heap_base
   45 00000000         Heap_Mem
                               SPACE            Heap_Size
   46 00000000         __heap_limit
   47 00000000         
   48 00000000                 PRESERVE8
   49 00000000                 THUMB
   50 00000000         
   51 00000000         ; Vector Table Mapped to Address 0 at Reset
   52 00000000         
   53 00000000                 AREA             RESET, DATA, READONLY
   54 00000000                 EXPORT           __Vectors
   55 00000000         
   56 00000000 5A5A5A5A 
                       Sign_Value
                               EQU              0x5A5A5A5A
   57 00000000         
   58 00000000 00000000 
                       __Vectors
                               DCD              __initial_sp ; 0 Top of Stack
   59 00000004 00000000        DCD              Reset_Handler ; 1 Reset Handler
                                                            
   60 00000008 00000000        DCD              NMI_Handler ; 2 NMI Handler
   61 0000000C 00000000        DCD              HardFault_Handler ; 3 Hard Faul
                                                            t Handler
   62 00000010 00000000        DCD              MemManage_Handler ; 4 MPU Fault
                                                             Handler
   63 00000014 00000000        DCD              BusFault_Handler ; 5 Bus Fault 
                                                            Handler
   64 00000018 00000000        DCD              UsageFault_Handler ; 6 Usage Fa
                                                            ult Handler
   65 0000001C 5A5A5A5A        DCD              Sign_Value  ; 7 Reserved
   66 00000020 00000000        DCD              0           ; 8 Reserved
   67 00000024 00000000        DCD              0           ; 9 Reserved
   68 00000028 00000000        DCD              0           ; 10 Reserved
   69 0000002C 00000000        DCD              SVC_Handler ; 11 SVCall Handler
                                                            
   70 00000030 00000000        DCD              DebugMon_Handler ; 12 Debug Mon
                                                            itor Handler
   71 00000034 00000000        DCD              0           ; 13 Reserved
   72 00000038 00000000        DCD              PendSV_Handler 
                                                            ; 14 PendSV Handler
                                                            
   73 0000003C 00000000        DCD              SysTick_Handler ; 15 SysTick Ha
                                                            ndler
   74 00000040         
   75 00000040         ; External Interrupts
   76 00000040 00000000        DCD              DAC_IRQHandler 
                                                            ; 16 D/A Converter
   77 00000044 00000000        DCD              M0CORE_IRQHandler ; 17 M0 Core
   78 00000048 00000000        DCD              DMA_IRQHandler ; 18 General Pur
                                                            pose DMA
   79 0000004C 00000000        DCD              EZH_IRQHandler ; 19 EZH/EDM



ARM Macro Assembler    Page 3 


   80 00000050 00000000        DCD              FLASH_EEPROM_IRQHandler ; 20 Re
                                                            served for Typhoon
   81 00000054 00000000        DCD              ETH_IRQHandler ; 21 Ethernet
   82 00000058 00000000        DCD              SDIO_IRQHandler ; 22 SD/MMC
   83 0000005C 00000000        DCD              LCD_IRQHandler ; 23 LCD
   84 00000060 00000000        DCD              USB0_IRQHandler ; 24 USB0
   85 00000064 00000000        DCD              USB1_IRQHandler ; 25 USB1
   86 00000068 00000000        DCD              SCT_IRQHandler ; 26 State Confi
                                                            gurable Timer
   87 0000006C 00000000        DCD              RIT_IRQHandler ; 27 Repetitive 
                                                            Interrupt Timer
   88 00000070 00000000        DCD              TIMER0_IRQHandler ; 28 Timer0
   89 00000074 00000000        DCD              TIMER1_IRQHandler ; 29 Timer1
   90 00000078 00000000        DCD              TIMER2_IRQHandler ; 30 Timer2
   91 0000007C 00000000        DCD              TIMER3_IRQHandler ; 31 Timer3
   92 00000080 00000000        DCD              MCPWM_IRQHandler ; 32 Motor Con
                                                            trol PWM
   93 00000084 00000000        DCD              ADC0_IRQHandler ; 33 A/D Conver
                                                            ter 0
   94 00000088 00000000        DCD              I2C0_IRQHandler ; 34 I2C0
   95 0000008C 00000000        DCD              I2C1_IRQHandler ; 35 I2C1
   96 00000090 00000000        DCD              SPI_IRQHandler ; 36 SPI
   97 00000094 00000000        DCD              ADC1_IRQHandler ; 37 A/D Conver
                                                            ter 1
   98 00000098 00000000        DCD              SSP0_IRQHandler ; 38 SSP0
   99 0000009C 00000000        DCD              SSP1_IRQHandler ; 39 SSP1
  100 000000A0 00000000        DCD              UART0_IRQHandler ; 40 UART0
  101 000000A4 00000000        DCD              UART1_IRQHandler ; 41 UART1
  102 000000A8 00000000        DCD              UART2_IRQHandler ; 42 UART2
  103 000000AC 00000000        DCD              UART3_IRQHandler ; 43 UART3
  104 000000B0 00000000        DCD              I2S0_IRQHandler ; 44 I2S0
  105 000000B4 00000000        DCD              I2S1_IRQHandler ; 45 I2S1
  106 000000B8 00000000        DCD              SPIFI_IRQHandler ; 46 SPI Flash
                                                             Interface
  107 000000BC 00000000        DCD              SGPIO_IRQHandler ; 47 SGPIO
  108 000000C0 00000000        DCD              GPIO0_IRQHandler ; 48 GPIO0
  109 000000C4 00000000        DCD              GPIO1_IRQHandler ; 49 GPIO1
  110 000000C8 00000000        DCD              GPIO2_IRQHandler ; 50 GPIO2
  111 000000CC 00000000        DCD              GPIO3_IRQHandler ; 51 GPIO3
  112 000000D0 00000000        DCD              GPIO4_IRQHandler ; 52 GPIO4
  113 000000D4 00000000        DCD              GPIO5_IRQHandler ; 53 GPIO5
  114 000000D8 00000000        DCD              GPIO6_IRQHandler ; 54 GPIO6
  115 000000DC 00000000        DCD              GPIO7_IRQHandler ; 55 GPIO7
  116 000000E0 00000000        DCD              GINT0_IRQHandler ; 56 GINT0
  117 000000E4 00000000        DCD              GINT1_IRQHandler ; 57 GINT1
  118 000000E8 00000000        DCD              EVRT_IRQHandler 
                                                            ; 58 Event Router
  119 000000EC 00000000        DCD              CAN1_IRQHandler ; 59 C_CAN1
  120 000000F0 00000000        DCD              0           ; 60 Reserved
  121 000000F4 00000000        DCD              VADC_IRQHandler ; 61 VADC
  122 000000F8 00000000        DCD              ATIMER_IRQHandler ; 62 ATIMER
  123 000000FC 00000000        DCD              RTC_IRQHandler ; 63 RTC
  124 00000100 00000000        DCD              0           ; 64 Reserved
  125 00000104 00000000        DCD              WDT_IRQHandler ; 65 WDT
  126 00000108 00000000        DCD              M0s_IRQHandler ; 66 M0s
  127 0000010C 00000000        DCD              CAN0_IRQHandler ; 67 C_CAN0
  128 00000110 00000000        DCD              QEI_IRQHandler ; 68 QEI
  129 00000114         
  130 00000114         



ARM Macro Assembler    Page 4 


  131 00000114                 IF               :LNOT::DEF:NO_CRP
  134                          ENDIF
  135 00000114         
  136 00000114                 AREA             |.text|, CODE, READONLY
  137 00000000         
  138 00000000         ; Reset Handler
  139 00000000         
  140 00000000         Reset_Handler
                               PROC
  141 00000000                 EXPORT           Reset_Handler           [WEAK]
  142 00000000         ;                IMPORT  SystemInit
  143 00000000                 IMPORT           __main
  144 00000000         ;                LDR     R0, =SystemInit
  145 00000000         ;                BLX     R0
  146 00000000 4808            LDR              R0, =__main
  147 00000002 4700            BX               R0
  148 00000004                 ENDP
  149 00000004         
  150 00000004         ; Dummy Exception Handlers (infinite loops which can be 
                       modified)
  151 00000004         
  152 00000004         NMI_Handler
                               PROC
  153 00000004                 EXPORT           NMI_Handler             [WEAK]
  154 00000004 E7FE            B                .
  155 00000006                 ENDP
  157 00000006         HardFault_Handler
                               PROC
  158 00000006                 EXPORT           HardFault_Handler       [WEAK]
  159 00000006 E7FE            B                .
  160 00000008                 ENDP
  162 00000008         MemManage_Handler
                               PROC
  163 00000008                 EXPORT           MemManage_Handler       [WEAK]
  164 00000008 E7FE            B                .
  165 0000000A                 ENDP
  167 0000000A         BusFault_Handler
                               PROC
  168 0000000A                 EXPORT           BusFault_Handler        [WEAK]
  169 0000000A E7FE            B                .
  170 0000000C                 ENDP
  172 0000000C         UsageFault_Handler
                               PROC
  173 0000000C                 EXPORT           UsageFault_Handler      [WEAK]
  174 0000000C E7FE            B                .
  175 0000000E                 ENDP
  176 0000000E         SVC_Handler
                               PROC
  177 0000000E                 EXPORT           SVC_Handler             [WEAK]
  178 0000000E E7FE            B                .
  179 00000010                 ENDP
  181 00000010         DebugMon_Handler
                               PROC
  182 00000010                 EXPORT           DebugMon_Handler        [WEAK]
  183 00000010 E7FE            B                .
  184 00000012                 ENDP
  185 00000012         PendSV_Handler
                               PROC
  186 00000012                 EXPORT           PendSV_Handler          [WEAK]



ARM Macro Assembler    Page 5 


  187 00000012 E7FE            B                .
  188 00000014                 ENDP
  189 00000014         SysTick_Handler
                               PROC
  190 00000014                 EXPORT           SysTick_Handler         [WEAK]
  191 00000014 E7FE            B                .
  192 00000016                 ENDP
  193 00000016         
  194 00000016         Default_Handler
                               PROC
  195 00000016         
  196 00000016                 EXPORT           DAC_IRQHandler          [WEAK]
  197 00000016                 EXPORT           M0CORE_IRQHandler       [WEAK]
  198 00000016                 EXPORT           DMA_IRQHandler          [WEAK]
  199 00000016                 EXPORT           EZH_IRQHandler          [WEAK]
  200 00000016                 EXPORT           FLASH_EEPROM_IRQHandler [WEAK]
  201 00000016                 EXPORT           ETH_IRQHandler          [WEAK]
  202 00000016                 EXPORT           SDIO_IRQHandler         [WEAK]
  203 00000016                 EXPORT           LCD_IRQHandler          [WEAK]
  204 00000016                 EXPORT           USB0_IRQHandler         [WEAK]
  205 00000016                 EXPORT           USB1_IRQHandler         [WEAK]
  206 00000016                 EXPORT           SCT_IRQHandler          [WEAK]
  207 00000016                 EXPORT           RIT_IRQHandler          [WEAK]
  208 00000016                 EXPORT           TIMER0_IRQHandler       [WEAK]
  209 00000016                 EXPORT           TIMER1_IRQHandler       [WEAK]
  210 00000016                 EXPORT           TIMER2_IRQHandler       [WEAK]
  211 00000016                 EXPORT           TIMER3_IRQHandler       [WEAK]
  212 00000016                 EXPORT           MCPWM_IRQHandler        [WEAK]
  213 00000016                 EXPORT           ADC0_IRQHandler         [WEAK]
  214 00000016                 EXPORT           I2C0_IRQHandler         [WEAK]
  215 00000016                 EXPORT           I2C1_IRQHandler         [WEAK]
  216 00000016                 EXPORT           SPI_IRQHandler          [WEAK]
  217 00000016                 EXPORT           ADC1_IRQHandler         [WEAK]
  218 00000016                 EXPORT           SSP0_IRQHandler         [WEAK]
  219 00000016                 EXPORT           SSP1_IRQHandler         [WEAK]
  220 00000016                 EXPORT           UART0_IRQHandler        [WEAK]
  221 00000016                 EXPORT           UART1_IRQHandler        [WEAK]
  222 00000016                 EXPORT           UART2_IRQHandler        [WEAK]
  223 00000016                 EXPORT           UART3_IRQHandler        [WEAK]
  224 00000016                 EXPORT           I2S0_IRQHandler         [WEAK]
  225 00000016                 EXPORT           I2S1_IRQHandler         [WEAK]
  226 00000016                 EXPORT           SPIFI_IRQHandler        [WEAK]
  227 00000016                 EXPORT           SGPIO_IRQHandler        [WEAK]
  228 00000016                 EXPORT           GPIO0_IRQHandler        [WEAK]
  229 00000016                 EXPORT           GPIO1_IRQHandler        [WEAK]
  230 00000016                 EXPORT           GPIO2_IRQHandler        [WEAK]
  231 00000016                 EXPORT           GPIO3_IRQHandler        [WEAK]
  232 00000016                 EXPORT           GPIO4_IRQHandler        [WEAK]
  233 00000016                 EXPORT           GPIO5_IRQHandler        [WEAK]
  234 00000016                 EXPORT           GPIO6_IRQHandler        [WEAK]
  235 00000016                 EXPORT           GPIO7_IRQHandler        [WEAK]
  236 00000016                 EXPORT           GINT0_IRQHandler        [WEAK]
  237 00000016                 EXPORT           GINT1_IRQHandler        [WEAK]
  238 00000016                 EXPORT           EVRT_IRQHandler         [WEAK]
  239 00000016                 EXPORT           CAN1_IRQHandler         [WEAK]
  240 00000016                 EXPORT           VADC_IRQHandler         [WEAK]
  241 00000016                 EXPORT           ATIMER_IRQHandler       [WEAK]
  242 00000016                 EXPORT           RTC_IRQHandler          [WEAK]
  243 00000016                 EXPORT           WDT_IRQHandler          [WEAK]



ARM Macro Assembler    Page 6 


  244 00000016                 EXPORT           M0s_IRQHandler          [WEAK]
  245 00000016                 EXPORT           CAN0_IRQHandler         [WEAK]
  246 00000016                 EXPORT           QEI_IRQHandler          [WEAK]
  247 00000016         
  248 00000016         DAC_IRQHandler
  249 00000016         M0CORE_IRQHandler
  250 00000016         DMA_IRQHandler
  251 00000016         EZH_IRQHandler
  252 00000016         FLASH_EEPROM_IRQHandler
  253 00000016         ETH_IRQHandler
  254 00000016         SDIO_IRQHandler
  255 00000016         LCD_IRQHandler
  256 00000016         USB0_IRQHandler
  257 00000016         USB1_IRQHandler
  258 00000016         SCT_IRQHandler
  259 00000016         RIT_IRQHandler
  260 00000016         TIMER0_IRQHandler
  261 00000016         TIMER1_IRQHandler
  262 00000016         TIMER2_IRQHandler
  263 00000016         TIMER3_IRQHandler
  264 00000016         MCPWM_IRQHandler
  265 00000016         ADC0_IRQHandler
  266 00000016         I2C0_IRQHandler
  267 00000016         I2C1_IRQHandler
  268 00000016         SPI_IRQHandler
  269 00000016         ADC1_IRQHandler
  270 00000016         SSP0_IRQHandler
  271 00000016         SSP1_IRQHandler
  272 00000016         UART0_IRQHandler
  273 00000016         UART1_IRQHandler
  274 00000016         UART2_IRQHandler
  275 00000016         UART3_IRQHandler
  276 00000016         I2S0_IRQHandler
  277 00000016         I2S1_IRQHandler
  278 00000016         SPIFI_IRQHandler
  279 00000016         SGPIO_IRQHandler
  280 00000016         GPIO0_IRQHandler
  281 00000016         GPIO1_IRQHandler
  282 00000016         GPIO2_IRQHandler
  283 00000016         GPIO3_IRQHandler
  284 00000016         GPIO4_IRQHandler
  285 00000016         GPIO5_IRQHandler
  286 00000016         GPIO6_IRQHandler
  287 00000016         GPIO7_IRQHandler
  288 00000016         GINT0_IRQHandler
  289 00000016         GINT1_IRQHandler
  290 00000016         EVRT_IRQHandler
  291 00000016         CAN1_IRQHandler
  292 00000016         VADC_IRQHandler
  293 00000016         ATIMER_IRQHandler
  294 00000016         RTC_IRQHandler
  295 00000016         WDT_IRQHandler
  296 00000016         M0s_IRQHandler
  297 00000016         CAN0_IRQHandler
  298 00000016         QEI_IRQHandler
  299 00000016         
  300 00000016 E7FE            B                .
  301 00000018         
  302 00000018                 ENDP



ARM Macro Assembler    Page 7 


  303 00000018         
  304 00000018                 ALIGN
  305 00000018         
  306 00000018         ; User Initial Stack & Heap
  307 00000018         
  308 00000018                 IF               :DEF:__MICROLIB
  315 00000018         
  316 00000018                 IMPORT           __use_two_region_memory
  317 00000018                 EXPORT           __user_initial_stackheap
  318 00000018         __user_initial_stackheap
  319 00000018         
  320 00000018 4803            LDR              R0, =  Heap_Mem
  321 0000001A 4904            LDR              R1, =(Stack_Mem + Stack_Size)
  322 0000001C 4A02            LDR              R2, = (Heap_Mem +  Heap_Size)
  323 0000001E 4B04            LDR              R3, = Stack_Mem
  324 00000020 4770            BX               LR
  325 00000022         
  326 00000022 00 00           ALIGN
  327 00000024         
  328 00000024                 ENDIF
  329 00000024         
  330 00000024 00000000 
              00000000 
              00000200 
              00000000         AREA             |.text|,CODE, READONLY
  331 00000034         getPC   PROC
  332 00000034                 EXPORT           getPC
  333 00000034         
  334 00000034 4670            MOV              R0,LR
  335 00000036 4770            BX               LR
  336 00000038         
  337 00000038                 ENDP
  338 00000038         
  339 00000038                 END
Command Line: --debug --xref --cpu=Cortex-M4 --apcs=interwork --depend=.\obj\lp
c43xx_startup.d -o.\obj\lpc43xx_startup.o -IC:\Keil_v5\ARM\RV31\INC -IC:\Keil_v
5\ARM\PACK\ARM\CMSIS\4.1.0\CMSIS\Include -IC:\Keil_v5\ARM\Inc\NXP\LPC43xx --pre
define="NO_CRP SETA 1" --list=.\obj\lpc43xx_startup.lst src\target\lpc43xx_star
tup.s



ARM Macro Assembler    Page 1 Alphabetic symbol ordering
Relocatable symbols

STACK 00000000

Symbol: STACK
   Definitions
      At line 32 in file src\target\lpc43xx_startup.s
   Uses
      None
Comment: STACK unused
Stack_Mem 00000000

Symbol: Stack_Mem
   Definitions
      At line 33 in file src\target\lpc43xx_startup.s
   Uses
      At line 321 in file src\target\lpc43xx_startup.s
      At line 323 in file src\target\lpc43xx_startup.s

__initial_sp 00000200

Symbol: __initial_sp
   Definitions
      At line 34 in file src\target\lpc43xx_startup.s
   Uses
      At line 58 in file src\target\lpc43xx_startup.s
Comment: __initial_sp used once
3 symbols



ARM Macro Assembler    Page 1 Alphabetic symbol ordering
Relocatable symbols

HEAP 00000000

Symbol: HEAP
   Definitions
      At line 43 in file src\target\lpc43xx_startup.s
   Uses
      None
Comment: HEAP unused
Heap_Mem 00000000

Symbol: Heap_Mem
   Definitions
      At line 45 in file src\target\lpc43xx_startup.s
   Uses
      At line 320 in file src\target\lpc43xx_startup.s
      At line 322 in file src\target\lpc43xx_startup.s

__heap_base 00000000

Symbol: __heap_base
   Definitions
      At line 44 in file src\target\lpc43xx_startup.s
   Uses
      None
Comment: __heap_base unused
__heap_limit 00000000

Symbol: __heap_limit
   Definitions
      At line 46 in file src\target\lpc43xx_startup.s
   Uses
      None
Comment: __heap_limit unused
4 symbols



ARM Macro Assembler    Page 1 Alphabetic symbol ordering
Relocatable symbols

RESET 00000000

Symbol: RESET
   Definitions
      At line 53 in file src\target\lpc43xx_startup.s
   Uses
      None
Comment: RESET unused
__Vectors 00000000

Symbol: __Vectors
   Definitions
      At line 58 in file src\target\lpc43xx_startup.s
   Uses
      At line 54 in file src\target\lpc43xx_startup.s
Comment: __Vectors used once
2 symbols



ARM Macro Assembler    Page 1 Alphabetic symbol ordering
Relocatable symbols

.text 00000000

Symbol: .text
   Definitions
      At line 136 in file src\target\lpc43xx_startup.s
   Uses
      None
Comment: .text unused
ADC0_IRQHandler 00000016

Symbol: ADC0_IRQHandler
   Definitions
      At line 265 in file src\target\lpc43xx_startup.s
   Uses
      At line 93 in file src\target\lpc43xx_startup.s
      At line 213 in file src\target\lpc43xx_startup.s

ADC1_IRQHandler 00000016

Symbol: ADC1_IRQHandler
   Definitions
      At line 269 in file src\target\lpc43xx_startup.s
   Uses
      At line 97 in file src\target\lpc43xx_startup.s
      At line 217 in file src\target\lpc43xx_startup.s

ATIMER_IRQHandler 00000016

Symbol: ATIMER_IRQHandler
   Definitions
      At line 293 in file src\target\lpc43xx_startup.s
   Uses
      At line 122 in file src\target\lpc43xx_startup.s
      At line 241 in file src\target\lpc43xx_startup.s

BusFault_Handler 0000000A

Symbol: BusFault_Handler
   Definitions
      At line 167 in file src\target\lpc43xx_startup.s
   Uses
      At line 63 in file src\target\lpc43xx_startup.s
      At line 168 in file src\target\lpc43xx_startup.s

CAN0_IRQHandler 00000016

Symbol: CAN0_IRQHandler
   Definitions
      At line 297 in file src\target\lpc43xx_startup.s
   Uses
      At line 127 in file src\target\lpc43xx_startup.s
      At line 245 in file src\target\lpc43xx_startup.s

CAN1_IRQHandler 00000016

Symbol: CAN1_IRQHandler
   Definitions
      At line 291 in file src\target\lpc43xx_startup.s
   Uses



ARM Macro Assembler    Page 2 Alphabetic symbol ordering
Relocatable symbols

      At line 119 in file src\target\lpc43xx_startup.s
      At line 239 in file src\target\lpc43xx_startup.s

DAC_IRQHandler 00000016

Symbol: DAC_IRQHandler
   Definitions
      At line 248 in file src\target\lpc43xx_startup.s
   Uses
      At line 76 in file src\target\lpc43xx_startup.s
      At line 196 in file src\target\lpc43xx_startup.s

DMA_IRQHandler 00000016

Symbol: DMA_IRQHandler
   Definitions
      At line 250 in file src\target\lpc43xx_startup.s
   Uses
      At line 78 in file src\target\lpc43xx_startup.s
      At line 198 in file src\target\lpc43xx_startup.s

DebugMon_Handler 00000010

Symbol: DebugMon_Handler
   Definitions
      At line 181 in file src\target\lpc43xx_startup.s
   Uses
      At line 70 in file src\target\lpc43xx_startup.s
      At line 182 in file src\target\lpc43xx_startup.s

Default_Handler 00000016

Symbol: Default_Handler
   Definitions
      At line 194 in file src\target\lpc43xx_startup.s
   Uses
      None
Comment: Default_Handler unused
ETH_IRQHandler 00000016

Symbol: ETH_IRQHandler
   Definitions
      At line 253 in file src\target\lpc43xx_startup.s
   Uses
      At line 81 in file src\target\lpc43xx_startup.s
      At line 201 in file src\target\lpc43xx_startup.s

EVRT_IRQHandler 00000016

Symbol: EVRT_IRQHandler
   Definitions
      At line 290 in file src\target\lpc43xx_startup.s
   Uses
      At line 118 in file src\target\lpc43xx_startup.s
      At line 238 in file src\target\lpc43xx_startup.s

EZH_IRQHandler 00000016

Symbol: EZH_IRQHandler



ARM Macro Assembler    Page 3 Alphabetic symbol ordering
Relocatable symbols

   Definitions
      At line 251 in file src\target\lpc43xx_startup.s
   Uses
      At line 79 in file src\target\lpc43xx_startup.s
      At line 199 in file src\target\lpc43xx_startup.s

FLASH_EEPROM_IRQHandler 00000016

Symbol: FLASH_EEPROM_IRQHandler
   Definitions
      At line 252 in file src\target\lpc43xx_startup.s
   Uses
      At line 80 in file src\target\lpc43xx_startup.s
      At line 200 in file src\target\lpc43xx_startup.s

GINT0_IRQHandler 00000016

Symbol: GINT0_IRQHandler
   Definitions
      At line 288 in file src\target\lpc43xx_startup.s
   Uses
      At line 116 in file src\target\lpc43xx_startup.s
      At line 236 in file src\target\lpc43xx_startup.s

GINT1_IRQHandler 00000016

Symbol: GINT1_IRQHandler
   Definitions
      At line 289 in file src\target\lpc43xx_startup.s
   Uses
      At line 117 in file src\target\lpc43xx_startup.s
      At line 237 in file src\target\lpc43xx_startup.s

GPIO0_IRQHandler 00000016

Symbol: GPIO0_IRQHandler
   Definitions
      At line 280 in file src\target\lpc43xx_startup.s
   Uses
      At line 108 in file src\target\lpc43xx_startup.s
      At line 228 in file src\target\lpc43xx_startup.s

GPIO1_IRQHandler 00000016

Symbol: GPIO1_IRQHandler
   Definitions
      At line 281 in file src\target\lpc43xx_startup.s
   Uses
      At line 109 in file src\target\lpc43xx_startup.s
      At line 229 in file src\target\lpc43xx_startup.s

GPIO2_IRQHandler 00000016

Symbol: GPIO2_IRQHandler
   Definitions
      At line 282 in file src\target\lpc43xx_startup.s
   Uses
      At line 110 in file src\target\lpc43xx_startup.s
      At line 230 in file src\target\lpc43xx_startup.s



ARM Macro Assembler    Page 4 Alphabetic symbol ordering
Relocatable symbols


GPIO3_IRQHandler 00000016

Symbol: GPIO3_IRQHandler
   Definitions
      At line 283 in file src\target\lpc43xx_startup.s
   Uses
      At line 111 in file src\target\lpc43xx_startup.s
      At line 231 in file src\target\lpc43xx_startup.s

GPIO4_IRQHandler 00000016

Symbol: GPIO4_IRQHandler
   Definitions
      At line 284 in file src\target\lpc43xx_startup.s
   Uses
      At line 112 in file src\target\lpc43xx_startup.s
      At line 232 in file src\target\lpc43xx_startup.s

GPIO5_IRQHandler 00000016

Symbol: GPIO5_IRQHandler
   Definitions
      At line 285 in file src\target\lpc43xx_startup.s
   Uses
      At line 113 in file src\target\lpc43xx_startup.s
      At line 233 in file src\target\lpc43xx_startup.s

GPIO6_IRQHandler 00000016

Symbol: GPIO6_IRQHandler
   Definitions
      At line 286 in file src\target\lpc43xx_startup.s
   Uses
      At line 114 in file src\target\lpc43xx_startup.s
      At line 234 in file src\target\lpc43xx_startup.s

GPIO7_IRQHandler 00000016

Symbol: GPIO7_IRQHandler
   Definitions
      At line 287 in file src\target\lpc43xx_startup.s
   Uses
      At line 115 in file src\target\lpc43xx_startup.s
      At line 235 in file src\target\lpc43xx_startup.s

HardFault_Handler 00000006

Symbol: HardFault_Handler
   Definitions
      At line 157 in file src\target\lpc43xx_startup.s
   Uses
      At line 61 in file src\target\lpc43xx_startup.s
      At line 158 in file src\target\lpc43xx_startup.s

I2C0_IRQHandler 00000016

Symbol: I2C0_IRQHandler
   Definitions



ARM Macro Assembler    Page 5 Alphabetic symbol ordering
Relocatable symbols

      At line 266 in file src\target\lpc43xx_startup.s
   Uses
      At line 94 in file src\target\lpc43xx_startup.s
      At line 214 in file src\target\lpc43xx_startup.s

I2C1_IRQHandler 00000016

Symbol: I2C1_IRQHandler
   Definitions
      At line 267 in file src\target\lpc43xx_startup.s
   Uses
      At line 95 in file src\target\lpc43xx_startup.s
      At line 215 in file src\target\lpc43xx_startup.s

I2S0_IRQHandler 00000016

Symbol: I2S0_IRQHandler
   Definitions
      At line 276 in file src\target\lpc43xx_startup.s
   Uses
      At line 104 in file src\target\lpc43xx_startup.s
      At line 224 in file src\target\lpc43xx_startup.s

I2S1_IRQHandler 00000016

Symbol: I2S1_IRQHandler
   Definitions
      At line 277 in file src\target\lpc43xx_startup.s
   Uses
      At line 105 in file src\target\lpc43xx_startup.s
      At line 225 in file src\target\lpc43xx_startup.s

LCD_IRQHandler 00000016

Symbol: LCD_IRQHandler
   Definitions
      At line 255 in file src\target\lpc43xx_startup.s
   Uses
      At line 83 in file src\target\lpc43xx_startup.s
      At line 203 in file src\target\lpc43xx_startup.s

M0CORE_IRQHandler 00000016

Symbol: M0CORE_IRQHandler
   Definitions
      At line 249 in file src\target\lpc43xx_startup.s
   Uses
      At line 77 in file src\target\lpc43xx_startup.s
      At line 197 in file src\target\lpc43xx_startup.s

M0s_IRQHandler 00000016

Symbol: M0s_IRQHandler
   Definitions
      At line 296 in file src\target\lpc43xx_startup.s
   Uses
      At line 126 in file src\target\lpc43xx_startup.s
      At line 244 in file src\target\lpc43xx_startup.s




ARM Macro Assembler    Page 6 Alphabetic symbol ordering
Relocatable symbols

MCPWM_IRQHandler 00000016

Symbol: MCPWM_IRQHandler
   Definitions
      At line 264 in file src\target\lpc43xx_startup.s
   Uses
      At line 92 in file src\target\lpc43xx_startup.s
      At line 212 in file src\target\lpc43xx_startup.s

MemManage_Handler 00000008

Symbol: MemManage_Handler
   Definitions
      At line 162 in file src\target\lpc43xx_startup.s
   Uses
      At line 62 in file src\target\lpc43xx_startup.s
      At line 163 in file src\target\lpc43xx_startup.s

NMI_Handler 00000004

Symbol: NMI_Handler
   Definitions
      At line 152 in file src\target\lpc43xx_startup.s
   Uses
      At line 60 in file src\target\lpc43xx_startup.s
      At line 153 in file src\target\lpc43xx_startup.s

PendSV_Handler 00000012

Symbol: PendSV_Handler
   Definitions
      At line 185 in file src\target\lpc43xx_startup.s
   Uses
      At line 72 in file src\target\lpc43xx_startup.s
      At line 186 in file src\target\lpc43xx_startup.s

QEI_IRQHandler 00000016

Symbol: QEI_IRQHandler
   Definitions
      At line 298 in file src\target\lpc43xx_startup.s
   Uses
      At line 128 in file src\target\lpc43xx_startup.s
      At line 246 in file src\target\lpc43xx_startup.s

RIT_IRQHandler 00000016

Symbol: RIT_IRQHandler
   Definitions
      At line 259 in file src\target\lpc43xx_startup.s
   Uses
      At line 87 in file src\target\lpc43xx_startup.s
      At line 207 in file src\target\lpc43xx_startup.s

RTC_IRQHandler 00000016

Symbol: RTC_IRQHandler
   Definitions
      At line 294 in file src\target\lpc43xx_startup.s



ARM Macro Assembler    Page 7 Alphabetic symbol ordering
Relocatable symbols

   Uses
      At line 123 in file src\target\lpc43xx_startup.s
      At line 242 in file src\target\lpc43xx_startup.s

Reset_Handler 00000000

Symbol: Reset_Handler
   Definitions
      At line 140 in file src\target\lpc43xx_startup.s
   Uses
      At line 59 in file src\target\lpc43xx_startup.s
      At line 141 in file src\target\lpc43xx_startup.s

SCT_IRQHandler 00000016

Symbol: SCT_IRQHandler
   Definitions
      At line 258 in file src\target\lpc43xx_startup.s
   Uses
      At line 86 in file src\target\lpc43xx_startup.s
      At line 206 in file src\target\lpc43xx_startup.s

SDIO_IRQHandler 00000016

Symbol: SDIO_IRQHandler
   Definitions
      At line 254 in file src\target\lpc43xx_startup.s
   Uses
      At line 82 in file src\target\lpc43xx_startup.s
      At line 202 in file src\target\lpc43xx_startup.s

SGPIO_IRQHandler 00000016

Symbol: SGPIO_IRQHandler
   Definitions
      At line 279 in file src\target\lpc43xx_startup.s
   Uses
      At line 107 in file src\target\lpc43xx_startup.s
      At line 227 in file src\target\lpc43xx_startup.s

SPIFI_IRQHandler 00000016

Symbol: SPIFI_IRQHandler
   Definitions
      At line 278 in file src\target\lpc43xx_startup.s
   Uses
      At line 106 in file src\target\lpc43xx_startup.s
      At line 226 in file src\target\lpc43xx_startup.s

SPI_IRQHandler 00000016

Symbol: SPI_IRQHandler
   Definitions
      At line 268 in file src\target\lpc43xx_startup.s
   Uses
      At line 96 in file src\target\lpc43xx_startup.s
      At line 216 in file src\target\lpc43xx_startup.s

SSP0_IRQHandler 00000016



ARM Macro Assembler    Page 8 Alphabetic symbol ordering
Relocatable symbols


Symbol: SSP0_IRQHandler
   Definitions
      At line 270 in file src\target\lpc43xx_startup.s
   Uses
      At line 98 in file src\target\lpc43xx_startup.s
      At line 218 in file src\target\lpc43xx_startup.s

SSP1_IRQHandler 00000016

Symbol: SSP1_IRQHandler
   Definitions
      At line 271 in file src\target\lpc43xx_startup.s
   Uses
      At line 99 in file src\target\lpc43xx_startup.s
      At line 219 in file src\target\lpc43xx_startup.s

SVC_Handler 0000000E

Symbol: SVC_Handler
   Definitions
      At line 176 in file src\target\lpc43xx_startup.s
   Uses
      At line 69 in file src\target\lpc43xx_startup.s
      At line 177 in file src\target\lpc43xx_startup.s

SysTick_Handler 00000014

Symbol: SysTick_Handler
   Definitions
      At line 189 in file src\target\lpc43xx_startup.s
   Uses
      At line 73 in file src\target\lpc43xx_startup.s
      At line 190 in file src\target\lpc43xx_startup.s

TIMER0_IRQHandler 00000016

Symbol: TIMER0_IRQHandler
   Definitions
      At line 260 in file src\target\lpc43xx_startup.s
   Uses
      At line 88 in file src\target\lpc43xx_startup.s
      At line 208 in file src\target\lpc43xx_startup.s

TIMER1_IRQHandler 00000016

Symbol: TIMER1_IRQHandler
   Definitions
      At line 261 in file src\target\lpc43xx_startup.s
   Uses
      At line 89 in file src\target\lpc43xx_startup.s
      At line 209 in file src\target\lpc43xx_startup.s

TIMER2_IRQHandler 00000016

Symbol: TIMER2_IRQHandler
   Definitions
      At line 262 in file src\target\lpc43xx_startup.s
   Uses



ARM Macro Assembler    Page 9 Alphabetic symbol ordering
Relocatable symbols

      At line 90 in file src\target\lpc43xx_startup.s
      At line 210 in file src\target\lpc43xx_startup.s

TIMER3_IRQHandler 00000016

Symbol: TIMER3_IRQHandler
   Definitions
      At line 263 in file src\target\lpc43xx_startup.s
   Uses
      At line 91 in file src\target\lpc43xx_startup.s
      At line 211 in file src\target\lpc43xx_startup.s

UART0_IRQHandler 00000016

Symbol: UART0_IRQHandler
   Definitions
      At line 272 in file src\target\lpc43xx_startup.s
   Uses
      At line 100 in file src\target\lpc43xx_startup.s
      At line 220 in file src\target\lpc43xx_startup.s

UART1_IRQHandler 00000016

Symbol: UART1_IRQHandler
   Definitions
      At line 273 in file src\target\lpc43xx_startup.s
   Uses
      At line 101 in file src\target\lpc43xx_startup.s
      At line 221 in file src\target\lpc43xx_startup.s

UART2_IRQHandler 00000016

Symbol: UART2_IRQHandler
   Definitions
      At line 274 in file src\target\lpc43xx_startup.s
   Uses
      At line 102 in file src\target\lpc43xx_startup.s
      At line 222 in file src\target\lpc43xx_startup.s

UART3_IRQHandler 00000016

Symbol: UART3_IRQHandler
   Definitions
      At line 275 in file src\target\lpc43xx_startup.s
   Uses
      At line 103 in file src\target\lpc43xx_startup.s
      At line 223 in file src\target\lpc43xx_startup.s

USB0_IRQHandler 00000016

Symbol: USB0_IRQHandler
   Definitions
      At line 256 in file src\target\lpc43xx_startup.s
   Uses
      At line 84 in file src\target\lpc43xx_startup.s
      At line 204 in file src\target\lpc43xx_startup.s

USB1_IRQHandler 00000016




ARM Macro Assembler    Page 10 Alphabetic symbol ordering
Relocatable symbols

Symbol: USB1_IRQHandler
   Definitions
      At line 257 in file src\target\lpc43xx_startup.s
   Uses
      At line 85 in file src\target\lpc43xx_startup.s
      At line 205 in file src\target\lpc43xx_startup.s

UsageFault_Handler 0000000C

Symbol: UsageFault_Handler
   Definitions
      At line 172 in file src\target\lpc43xx_startup.s
   Uses
      At line 64 in file src\target\lpc43xx_startup.s
      At line 173 in file src\target\lpc43xx_startup.s

VADC_IRQHandler 00000016

Symbol: VADC_IRQHandler
   Definitions
      At line 292 in file src\target\lpc43xx_startup.s
   Uses
      At line 121 in file src\target\lpc43xx_startup.s
      At line 240 in file src\target\lpc43xx_startup.s

WDT_IRQHandler 00000016

Symbol: WDT_IRQHandler
   Definitions
      At line 295 in file src\target\lpc43xx_startup.s
   Uses
      At line 125 in file src\target\lpc43xx_startup.s
      At line 243 in file src\target\lpc43xx_startup.s

__user_initial_stackheap 00000018

Symbol: __user_initial_stackheap
   Definitions
      At line 318 in file src\target\lpc43xx_startup.s
   Uses
      At line 317 in file src\target\lpc43xx_startup.s
Comment: __user_initial_stackheap used once
getPC 00000034

Symbol: getPC
   Definitions
      At line 331 in file src\target\lpc43xx_startup.s
   Uses
      At line 332 in file src\target\lpc43xx_startup.s
Comment: getPC used once
65 symbols



ARM Macro Assembler    Page 1 Alphabetic symbol ordering
Absolute symbols

Heap_Size 00000000

Symbol: Heap_Size
   Definitions
      At line 41 in file src\target\lpc43xx_startup.s
   Uses
      At line 45 in file src\target\lpc43xx_startup.s
      At line 322 in file src\target\lpc43xx_startup.s

Sign_Value 5A5A5A5A

Symbol: Sign_Value
   Definitions
      At line 56 in file src\target\lpc43xx_startup.s
   Uses
      At line 65 in file src\target\lpc43xx_startup.s
Comment: Sign_Value used once
Stack_Size 00000200

Symbol: Stack_Size
   Definitions
      At line 30 in file src\target\lpc43xx_startup.s
   Uses
      At line 33 in file src\target\lpc43xx_startup.s
      At line 321 in file src\target\lpc43xx_startup.s

3 symbols



ARM Macro Assembler    Page 1 Alphabetic symbol ordering
External symbols

__main 00000000

Symbol: __main
   Definitions
      At line 143 in file src\target\lpc43xx_startup.s
   Uses
      At line 146 in file src\target\lpc43xx_startup.s
Comment: __main used once
__use_two_region_memory 00000000

Symbol: __use_two_region_memory
   Definitions
      At line 316 in file src\target\lpc43xx_startup.s
   Uses
      None
Comment: __use_two_region_memory unused
2 symbols
414 symbols in table
