Component: ARM Compiler 5.06 (build 20) Tool: armlink [4d35a3]

==============================================================================

Section Cross References

    raw-os.o(.text) refers to cpu.o(.text) for OS_CPU_SR_Save
    raw-os.o(.text) refers to port_error_process.o(.text) for port_system_error_process
    raw-os.o(.text) refers to raw-os.o(.data) for high_ready_obj
    raw-os.o(.text) refers to raw-os.o(.bss) for raw_ready_queue
    raw-os.o(.text) refers to user_extension.o(.text) for raw_memset
    raw-os.o(.text) refers to port.o(.text) for port_stack_init
    raw-os.o(.text) refers to port_hook.o(.text) for task_create_hook
    raw-os.o(.text) refers to lludivv7m.o(.text) for __aeabi_uldivmod
    fifo.o(.text) refers to cpu.o(.text) for OS_CPU_SR_Save
    fifo.o(.text) refers to user_extension.o(.text) for raw_memcpy
    rsh.o(.text) refers to cpu.o(.text) for OS_CPU_SR_Save
    rsh.o(.text) refers to string.o(.text) for raw_strncmp
    rsh.o(.text) refers to user_extension.o(.text) for raw_memset
    rsh.o(.text) refers to rsh.o(.data) for current_command_list_point
    rsh.o(.text) refers to rsh.o(.conststring) for .conststring
    rsh.o(.constdata) refers to rsh.o(.conststring) for .conststring
    rsh.o(.constdata) refers to rsh.o(.text) for rsh_help_command
    rsh.o(.data) refers to rsh.o(.constdata) for xHelpCommand
==============================================================================

Removing Unused input sections from the image.

    Removing rsh.o(.text), (608 bytes).
    Removing rsh.o(.constdata), (16 bytes).
    Removing rsh.o(.conststring), (225 bytes).
    Removing rsh.o(.data), (20 bytes).
    Removing string.o(.text), (700 bytes).
    Removing sysinit.o(.rev16_text), (4 bytes).
    Removing sysinit.o(.revsh_text), (4 bytes).
    Removing lpc43xx_scu.o(.rev16_text), (4 bytes).
    Removing lpc43xx_scu.o(.revsh_text), (4 bytes).
    Removing lpc43xx_sdram.o(.rev16_text), (4 bytes).
    Removing lpc43xx_sdram.o(.revsh_text), (4 bytes).
    Removing main.o(.rev16_text), (4 bytes).
    Removing main.o(.revsh_text), (4 bytes).
    Removing lpc43xx_gpio.o(.rev16_text), (4 bytes).
    Removing lpc43xx_gpio.o(.revsh_text), (4 bytes).
    Removing k9f1g08.o(.rev16_text), (4 bytes).
    Removing k9f1g08.o(.revsh_text), (4 bytes).
    Removing board.o(.rev16_text), (4 bytes).
==============================================================================

Image Symbol Table

    Local Symbols

    Symbol Name                              Value     Ov Type        Size  Object(Section)

    ../clib/angel/boardlib.s                 0x00000000   Number         0  boardinit3.o ABSOLUTE
    ../clib/angel/boardlib.s                 0x00000000   Number         0  boardinit1.o ABSOLUTE
    ../clib/angel/boardlib.s                 0x00000000   Number         0  boardinit2.o ABSOLUTE
    ../clib/angel/boardlib.s                 0x00000000   Number         0  boardshut.o ABSOLUTE
    ../clib/angel/handlers.s                 0x00000000   Number         0  __scatter_copy.o ABSOLUTE
    ../clib/angel/handlers.s                 0x00000000   Number         0  __scatter_zi.o ABSOLUTE
    ../clib/angel/kernel.s                   0x00000000   Number         0  __rtentry.o ABSOLUTE
    ../clib/angel/kernel.s                   0x00000000   Number         0  rtexit.o ABSOLUTE
    ../clib/angel/kernel.s                   0x00000000   Number         0  __rtentry2.o ABSOLUTE
    ../clib/angel/kernel.s                   0x00000000   Number         0  __rtentry4.o ABSOLUTE
    ../clib/angel/kernel.s                   0x00000000   Number         0  rtexit2.o ABSOLUTE
    ../clib/angel/rt.s                       0x00000000   Number         0  rt_raise.o ABSOLUTE
    ../clib/angel/rt.s                       0x00000000   Number         0  aeabi_ldiv0.o ABSOLUTE
    ../clib/angel/rt.s                       0x00000000   Number         0  aeabi_ldiv0_sigfpe.o ABSOLUTE
    ../clib/angel/rt.s                       0x00000000   Number         0  rt_div0.o ABSOLUTE
    ../clib/angel/scatter.s                  0x00000000   Number         0  __scatter.o ABSOLUTE
    ../clib/angel/startup.s                  0x00000000   Number         0  __main.o ABSOLUTE
    ../clib/angel/sys.s                      0x00000000   Number         0  use_no_semi.o ABSOLUTE
    ../clib/angel/sys.s                      0x00000000   Number         0  sys_stackheap_outer.o ABSOLUTE
    ../clib/angel/sys.s                      0x00000000   Number         0  libspace.o ABSOLUTE
    ../clib/angel/sys.s                      0x00000000   Number         0  indicate_semi.o ABSOLUTE
    ../clib/angel/sysapp.c                   0x00000000   Number         0  sys_command.o ABSOLUTE
    ../clib/angel/sysapp.c                   0x00000000   Number         0  sys_wrch.o ABSOLUTE
    ../clib/armsys.c                         0x00000000   Number         0  no_argv.o ABSOLUTE
    ../clib/armsys.c                         0x00000000   Number         0  argv_veneer.o ABSOLUTE
    ../clib/armsys.c                         0x00000000   Number         0  _get_argv_nomalloc.o ABSOLUTE
    ../clib/armsys.c                         0x00000000   Number         0  argv_veneer.o ABSOLUTE
    ../clib/heapalloc.c                      0x00000000   Number         0  hrguard.o ABSOLUTE
    ../clib/heapaux.c                        0x00000000   Number         0  heapauxi.o ABSOLUTE
    ../clib/libinit.s                        0x00000000   Number         0  libinit2.o ABSOLUTE
    ../clib/libinit.s                        0x00000000   Number         0  libinit.o ABSOLUTE
    ../clib/libinit.s                        0x00000000   Number         0  libshutdown.o ABSOLUTE
    ../clib/libinit.s                        0x00000000   Number         0  libshutdown2.o ABSOLUTE
    ../clib/longlong.s                       0x00000000   Number         0  lludivv7m.o ABSOLUTE
    ../clib/memcpset.s                       0x00000000   Number         0  rt_memclr_w.o ABSOLUTE
    ../clib/memcpset.s                       0x00000000   Number         0  rt_memcpy_v6.o ABSOLUTE
    ../clib/memcpset.s                       0x00000000   Number         0  rt_memcpy_w.o ABSOLUTE
    ../clib/printf.c                         0x00000000   Number         0  __printf_ss_wp.o ABSOLUTE
    ../clib/printf.c                         0x00000000   Number         0  _printf_hex_int_ll.o ABSOLUTE
    ../clib/printf.c                         0x00000000   Number         0  _printf_hex_int.o ABSOLUTE
    ../clib/printf.c                         0x00000000   Number         0  _printf_hex_ll.o ABSOLUTE
    ../clib/printf.c                         0x00000000   Number         0  _printf_dec.o ABSOLUTE
    ../clib/printf.c                         0x00000000   Number         0  __printf.o ABSOLUTE
    ../clib/printf.c                         0x00000000   Number         0  noretval__2printf.o ABSOLUTE
    ../clib/printf.c                         0x00000000   Number         0  __2printf.o ABSOLUTE
    ../clib/printf.c                         0x00000000   Number         0  __printf_flags_wp.o ABSOLUTE
    ../clib/printf.c                         0x00000000   Number         0  __printf_wp.o ABSOLUTE
    ../clib/printf.c                         0x00000000   Number         0  __printf_flags_ss.o ABSOLUTE
    ../clib/printf.c                         0x00000000   Number         0  __printf_ss.o ABSOLUTE
    ../clib/printf.c                         0x00000000   Number         0  __printf_flags.o ABSOLUTE
    ../clib/printf.c                         0x00000000   Number         0  _printf_hex_int_ll_ptr.o ABSOLUTE
    ../clib/printf.c                         0x00000000   Number         0  _printf_hex_ll_ptr.o ABSOLUTE
    ../clib/printf.c                         0x00000000   Number         0  _printf_hex_int_ptr.o ABSOLUTE
    ../clib/printf.c                         0x00000000   Number         0  _printf_hex_ptr.o ABSOLUTE
    ../clib/printf.c                         0x00000000   Number         0  __printf_flags_ss_wp.o ABSOLUTE
    ../clib/printf.c                         0x00000000   Number         0  __printf_nopercent.o ABSOLUTE
    ../clib/printf.c                         0x00000000   Number         0  _printf_char_common.o ABSOLUTE
    ../clib/printf.c                         0x00000000   Number         0  _printf_char_file.o ABSOLUTE
    ../clib/printf.c                         0x00000000   Number         0  _printf_intcommon.o ABSOLUTE
    ../clib/printf_percent.s                 0x00000000   Number         0  _printf_percent_end.o ABSOLUTE
    ../clib/printf_percent.s                 0x00000000   Number         0  _printf_x.o ABSOLUTE
    ../clib/printf_percent.s                 0x00000000   Number         0  _printf_d.o ABSOLUTE
    ../clib/printf_percent.s                 0x00000000   Number         0  _printf_percent.o ABSOLUTE
    ../clib/signal.c                         0x00000000   Number         0  defsig_fpe_formal.o ABSOLUTE
    ../clib/signal.c                         0x00000000   Number         0  defsig_fpe_outer.o ABSOLUTE
    ../clib/signal.c                         0x00000000   Number         0  defsig_rtmem_formal.o ABSOLUTE
    ../clib/signal.c                         0x00000000   Number         0  defsig_rtmem_outer.o ABSOLUTE
    ../clib/signal.c                         0x00000000   Number         0  defsig_abrt_inner.o ABSOLUTE
    ../clib/signal.c                         0x00000000   Number         0  defsig_rtmem_inner.o ABSOLUTE
    ../clib/signal.c                         0x00000000   Number         0  defsig_exit.o ABSOLUTE
    ../clib/signal.c                         0x00000000   Number         0  defsig_fpe_inner.o ABSOLUTE
    ../clib/signal.c                         0x00000000   Number         0  __raise.o ABSOLUTE
    ../clib/signal.c                         0x00000000   Number         0  defsig_segv_inner.o ABSOLUTE
    ../clib/signal.c                         0x00000000   Number         0  defsig_other.o ABSOLUTE
    ../clib/signal.c                         0x00000000   Number         0  defsig_general.o ABSOLUTE
    ../clib/signal.c                         0x00000000   Number         0  defsig_cppl_inner.o ABSOLUTE
    ../clib/signal.c                         0x00000000   Number         0  defsig_pvfn_inner.o ABSOLUTE
    ../clib/signal.c                         0x00000000   Number         0  defsig_stak_inner.o ABSOLUTE
    ../clib/signal.c                         0x00000000   Number         0  defsig_rtred_inner.o ABSOLUTE
    ../clib/signal.s                         0x00000000   Number         0  defsig.o ABSOLUTE
    ../clib/stdlib.c                         0x00000000   Number         0  exit.o ABSOLUTE
    ../clib/string.c                         0x00000000   Number         0  memcmp.o ABSOLUTE
    ../fplib/fpinit.s                        0x00000000   Number         0  fpinit.o ABSOLUTE
    ..\..\..\..\software\common\k9f1g08.c    0x00000000   Number         0  k9f1g08.o ABSOLUTE
    ..\..\..\..\software\common\lpc43xx_gpio.c 0x00000000   Number         0  lpc43xx_gpio.o ABSOLUTE
    ..\..\..\..\software\common\lpc43xx_scu.c 0x00000000   Number         0  lpc43xx_scu.o ABSOLUTE
    ..\..\..\..\software\common\lpc43xx_sdram.c 0x00000000   Number         0  lpc43xx_sdram.o ABSOLUTE
    ..\..\..\..\software\kernel\port\cpu.asm 0x00000000   Number         0  cpu.o ABSOLUTE
    ..\..\..\..\software\kernel\port\port.c  0x00000000   Number         0  port.o ABSOLUTE
    ..\..\..\..\software\kernel\port\port_error_process.c 0x00000000   Number         0  port_error_process.o ABSOLUTE
    ..\..\..\..\software\kernel\port\port_hook.c 0x00000000   Number         0  port_hook.o ABSOLUTE
    ..\..\..\..\software\kernel\port\raw_trace_port.c 0x00000000   Number         0  raw_trace_port.o ABSOLUTE
    ..\..\..\..\software\kernel\port\user_extension.c 0x00000000   Number         0  user_extension.o ABSOLUTE
    ..\..\..\..\software\kernel\raw-os\extension\lib\fifo.c 0x00000000   Number         0  fifo.o ABSOLUTE
    ..\..\..\..\software\kernel\raw-os\extension\lib\string.c 0x00000000   Number         0  string.o ABSOLUTE
    ..\..\..\..\software\kernel\raw-os\extension\shell\rsh.c 0x00000000   Number         0  rsh.o ABSOLUTE
    ..\..\..\..\software\kernel\raw-os\raw-os.c 0x00000000   Number         0  raw-os.o ABSOLUTE
    ..\..\board_common\uda1380.c             0x00000000   Number         0  uda1380.o ABSOLUTE
    ..\..\examples\nand\main.c               0x00000000   Number         0  main.o ABSOLUTE
    ..\..\startup_code\keil_startup_lpc18xx43xx.s 0x00000000   Number         0  keil_startup_lpc18xx43xx.o ABSOLUTE
    ..\..\startup_code\sysinit.c             0x00000000   Number         0  sysinit.o ABSOLUTE
    ..\\..\\..\\..\\software\\common\\k9f1g08.c 0x00000000   Number         0  k9f1g08.o ABSOLUTE
    ..\\..\\..\\..\\software\\common\\lpc43xx_gpio.c 0x00000000   Number         0  lpc43xx_gpio.o ABSOLUTE
    ..\\..\\..\\..\\software\\common\\lpc43xx_scu.c 0x00000000   Number         0  lpc43xx_scu.o ABSOLUTE
    ..\\..\\..\\..\\software\\common\\lpc43xx_sdram.c 0x00000000   Number         0  lpc43xx_sdram.o ABSOLUTE
    ..\\..\\board_common\\uda1380.c          0x00000000   Number         0  uda1380.o ABSOLUTE
    ..\\..\\examples\\nand\\main.c           0x00000000   Number         0  main.o ABSOLUTE
    ..\\..\\startup_code\\sysinit.c          0x00000000   Number         0  sysinit.o ABSOLUTE
    ..\\chip_common\\fpu_init.c              0x00000000   Number         0  fpu_init.o ABSOLUTE
    ..\chip_common\fpu_init.c                0x00000000   Number         0  fpu_init.o ABSOLUTE
    ..\chip_common\ring_buffer.c             0x00000000   Number         0  ring_buffer.o ABSOLUTE
    board.c                                  0x00000000   Number         0  board.o ABSOLUTE
    board.c                                  0x00000000   Number         0  board.o ABSOLUTE
    board_sysinit.c                          0x00000000   Number         0  board_sysinit.o ABSOLUTE
    board_sysinit.c                          0x00000000   Number         0  board_sysinit.o ABSOLUTE
    chip_18xx_43xx.c                         0x00000000   Number         0  chip_18xx_43xx.o ABSOLUTE
    chip_18xx_43xx.c                         0x00000000   Number         0  chip_18xx_43xx.o ABSOLUTE
    clock_18xx_43xx.c                        0x00000000   Number         0  clock_18xx_43xx.o ABSOLUTE
    clock_18xx_43xx.c                        0x00000000   Number         0  clock_18xx_43xx.o ABSOLUTE
    dc.s                                     0x00000000   Number         0  dc.o ABSOLUTE
    emc_18xx_43xx.c                          0x00000000   Number         0  emc_18xx_43xx.o ABSOLUTE
    emc_18xx_43xx.c                          0x00000000   Number         0  emc_18xx_43xx.o ABSOLUTE
    gpio_18xx_43xx.c                         0x00000000   Number         0  gpio_18xx_43xx.o ABSOLUTE
    gpio_18xx_43xx.c                         0x00000000   Number         0  gpio_18xx_43xx.o ABSOLUTE
    i2c_18xx_43xx.c                          0x00000000   Number         0  i2c_18xx_43xx.o ABSOLUTE
    i2c_18xx_43xx.c                          0x00000000   Number         0  i2c_18xx_43xx.o ABSOLUTE
    i2s_18xx_43xx.c                          0x00000000   Number         0  i2s_18xx_43xx.o ABSOLUTE
    i2s_18xx_43xx.c                          0x00000000   Number         0  i2s_18xx_43xx.o ABSOLUTE
    rgu_18xx_43xx.c                          0x00000000   Number         0  rgu_18xx_43xx.o ABSOLUTE
    rgu_18xx_43xx.c                          0x00000000   Number         0  rgu_18xx_43xx.o ABSOLUTE
    ssp_18xx_43xx.c                          0x00000000   Number         0  ssp_18xx_43xx.o ABSOLUTE
    ssp_18xx_43xx.c                          0x00000000   Number         0  ssp_18xx_43xx.o ABSOLUTE
    sysinit_18xx_43xx.c                      0x00000000   Number         0  sysinit_18xx_43xx.o ABSOLUTE
    sysinit_18xx_43xx.c                      0x00000000   Number         0  sysinit_18xx_43xx.o ABSOLUTE
    uart_18xx_43xx.c                         0x00000000   Number         0  uart_18xx_43xx.o ABSOLUTE
    uart_18xx_43xx.c                         0x00000000   Number         0  uart_18xx_43xx.o ABSOLUTE
    .data                                    0x10000000   Section       56  raw-os.o(.data)
    .data                                    0x10000038   Section       16  main.o(.data)
    test_data                                0x1000003c   Data           4  main.o(.data)
    .data                                    0x10000048   Section       12  k9f1g08.o(.data)
    .data                                    0x10000054   Section       20  board.o(.data)
    .data                                    0x10000068   Section        4  chip_18xx_43xx.o(.data)
    .data                                    0x1000006c   Section        8  clock_18xx_43xx.o(.data)
    audio_usb_pll_freq                       0x1000006c   Data           8  clock_18xx_43xx.o(.data)
    .bss                                     0x10000074   Section     4148  raw-os.o(.bss)
    .bss                                     0x100010a8   Section     5996  main.o(.bss)
    fifo_buffer                              0x10001794   Data         128  main.o(.bss)
    test_data2                               0x10001814   Data        2048  main.o(.bss)
    test_data3                               0x10002014   Data        2048  main.o(.bss)
    .bss                                     0x10002814   Section       96  libspace.o(.bss)
    HEAP                                     0x10002878   Section      256  keil_startup_lpc18xx43xx.o(HEAP)
    Heap_Mem                                 0x10002878   Data         256  keil_startup_lpc18xx43xx.o(HEAP)
    STACK                                    0x10002978   Section     1536  keil_startup_lpc18xx43xx.o(STACK)
    Stack_Mem                                0x10002978   Data        1536  keil_startup_lpc18xx43xx.o(STACK)
    __initial_sp                             0x10002f78   Data           0  keil_startup_lpc18xx43xx.o(STACK)
    RESET                                    0x1a000000   Section      276  keil_startup_lpc18xx43xx.o(RESET)
    !!!main                                  0x1a000114   Section        8  __main.o(!!!main)
    !!!scatter                               0x1a00011c   Section       52  __scatter.o(!!!scatter)
    !!handler_copy                           0x1a000150   Section       26  __scatter_copy.o(!!handler_copy)
    !!handler_zi                             0x1a00016c   Section       28  __scatter_zi.o(!!handler_zi)
    .ARM.Collect$$_printf_percent$$00000000  0x1a000188   Section        0  _printf_percent.o(.ARM.Collect$$_printf_percent$$00000000)
    .ARM.Collect$$_printf_percent$$00000009  0x1a000188   Section        6  _printf_d.o(.ARM.Collect$$_printf_percent$$00000009)
    .ARM.Collect$$_printf_percent$$0000000C  0x1a00018e   Section        6  _printf_x.o(.ARM.Collect$$_printf_percent$$0000000C)
    .ARM.Collect$$_printf_percent$$00000017  0x1a000194   Section        4  _printf_percent_end.o(.ARM.Collect$$_printf_percent$$00000017)
    .ARM.Collect$$libinit$$00000000          0x1a000198   Section        2  libinit.o(.ARM.Collect$$libinit$$00000000)
    .ARM.Collect$$libinit$$00000001          0x1a00019a   Section        4  libinit2.o(.ARM.Collect$$libinit$$00000001)
    .ARM.Collect$$libinit$$00000004          0x1a00019e   Section        0  libinit2.o(.ARM.Collect$$libinit$$00000004)
    .ARM.Collect$$libinit$$0000000A          0x1a00019e   Section        0  libinit2.o(.ARM.Collect$$libinit$$0000000A)
    .ARM.Collect$$libinit$$0000000C          0x1a00019e   Section        0  libinit2.o(.ARM.Collect$$libinit$$0000000C)
    .ARM.Collect$$libinit$$0000000E          0x1a00019e   Section        0  libinit2.o(.ARM.Collect$$libinit$$0000000E)
    .ARM.Collect$$libinit$$00000011          0x1a00019e   Section        0  libinit2.o(.ARM.Collect$$libinit$$00000011)
    .ARM.Collect$$libinit$$00000013          0x1a00019e   Section        0  libinit2.o(.ARM.Collect$$libinit$$00000013)
    .ARM.Collect$$libinit$$00000015          0x1a00019e   Section        0  libinit2.o(.ARM.Collect$$libinit$$00000015)
    .ARM.Collect$$libinit$$00000017          0x1a00019e   Section        0  libinit2.o(.ARM.Collect$$libinit$$00000017)
    .ARM.Collect$$libinit$$00000019          0x1a00019e   Section        0  libinit2.o(.ARM.Collect$$libinit$$00000019)
    .ARM.Collect$$libinit$$0000001B          0x1a00019e   Section        0  libinit2.o(.ARM.Collect$$libinit$$0000001B)
    .ARM.Collect$$libinit$$0000001D          0x1a00019e   Section        0  libinit2.o(.ARM.Collect$$libinit$$0000001D)
    .ARM.Collect$$libinit$$0000001F          0x1a00019e   Section        0  libinit2.o(.ARM.Collect$$libinit$$0000001F)
    .ARM.Collect$$libinit$$00000021          0x1a00019e   Section        0  libinit2.o(.ARM.Collect$$libinit$$00000021)
    .ARM.Collect$$libinit$$00000023          0x1a00019e   Section        0  libinit2.o(.ARM.Collect$$libinit$$00000023)
    .ARM.Collect$$libinit$$00000025          0x1a00019e   Section        0  libinit2.o(.ARM.Collect$$libinit$$00000025)
    .ARM.Collect$$libinit$$0000002C          0x1a00019e   Section        0  libinit2.o(.ARM.Collect$$libinit$$0000002C)
    .ARM.Collect$$libinit$$0000002E          0x1a00019e   Section        0  libinit2.o(.ARM.Collect$$libinit$$0000002E)
    .ARM.Collect$$libinit$$00000030          0x1a00019e   Section        0  libinit2.o(.ARM.Collect$$libinit$$00000030)
    .ARM.Collect$$libinit$$00000032          0x1a00019e   Section        0  libinit2.o(.ARM.Collect$$libinit$$00000032)
    .ARM.Collect$$libinit$$00000033          0x1a00019e   Section        2  libinit2.o(.ARM.Collect$$libinit$$00000033)
    .ARM.Collect$$libshutdown$$00000000      0x1a0001a0   Section        2  libshutdown.o(.ARM.Collect$$libshutdown$$00000000)
    .ARM.Collect$$libshutdown$$00000002      0x1a0001a2   Section        0  libshutdown2.o(.ARM.Collect$$libshutdown$$00000002)
    .ARM.Collect$$libshutdown$$00000004      0x1a0001a2   Section        0  libshutdown2.o(.ARM.Collect$$libshutdown$$00000004)
    .ARM.Collect$$libshutdown$$00000007      0x1a0001a2   Section        0  libshutdown2.o(.ARM.Collect$$libshutdown$$00000007)
    .ARM.Collect$$libshutdown$$0000000A      0x1a0001a2   Section        0  libshutdown2.o(.ARM.Collect$$libshutdown$$0000000A)
    .ARM.Collect$$libshutdown$$0000000C      0x1a0001a2   Section        0  libshutdown2.o(.ARM.Collect$$libshutdown$$0000000C)
    .ARM.Collect$$libshutdown$$0000000F      0x1a0001a2   Section        0  libshutdown2.o(.ARM.Collect$$libshutdown$$0000000F)
    .ARM.Collect$$libshutdown$$00000010      0x1a0001a2   Section        2  libshutdown2.o(.ARM.Collect$$libshutdown$$00000010)
    .ARM.Collect$$rtentry$$00000000          0x1a0001a4   Section        0  __rtentry.o(.ARM.Collect$$rtentry$$00000000)
    .ARM.Collect$$rtentry$$00000002          0x1a0001a4   Section        0  __rtentry2.o(.ARM.Collect$$rtentry$$00000002)
    .ARM.Collect$$rtentry$$00000004          0x1a0001a4   Section        6  __rtentry4.o(.ARM.Collect$$rtentry$$00000004)
    .ARM.Collect$$rtentry$$00000009          0x1a0001aa   Section        0  __rtentry2.o(.ARM.Collect$$rtentry$$00000009)
    .ARM.Collect$$rtentry$$0000000A          0x1a0001aa   Section        4  __rtentry2.o(.ARM.Collect$$rtentry$$0000000A)
    .ARM.Collect$$rtentry$$0000000C          0x1a0001ae   Section        0  __rtentry2.o(.ARM.Collect$$rtentry$$0000000C)
    .ARM.Collect$$rtentry$$0000000D          0x1a0001ae   Section        8  __rtentry2.o(.ARM.Collect$$rtentry$$0000000D)
    .ARM.Collect$$rtexit$$00000000           0x1a0001b6   Section        2  rtexit.o(.ARM.Collect$$rtexit$$00000000)
    .ARM.Collect$$rtexit$$00000002           0x1a0001b8   Section        0  rtexit2.o(.ARM.Collect$$rtexit$$00000002)
    .ARM.Collect$$rtexit$$00000003           0x1a0001b8   Section        4  rtexit2.o(.ARM.Collect$$rtexit$$00000003)
    .ARM.Collect$$rtexit$$00000004           0x1a0001bc   Section        6  rtexit2.o(.ARM.Collect$$rtexit$$00000004)
    .text                                    0x1a0001c4   Section        0  raw-os.o(.text)
    list_insert                              0x1a0001c5   Thumb Code    14  raw-os.o(.text)
    debug_head_list_init                     0x1a000233   Thumb Code    58  raw-os.o(.text)
    add_to_priority_list                     0x1a00033f   Thumb Code    50  raw-os.o(.text)
    bit_set                                  0x1a00038b   Thumb Code    26  raw-os.o(.text)
    release_mutex                            0x1a0005e5   Thumb Code    32  raw-os.o(.text)
    tick_task_process                        0x1a00091b   Thumb Code    28  raw-os.o(.text)
    pend_task_wake_up                        0x1a000b1f   Thumb Code   108  raw-os.o(.text)
    timer_list_remove                        0x1a000c69   Thumb Code    20  raw-os.o(.text)
    timer_list_priority_insert               0x1a000c7d   Thumb Code    60  raw-os.o(.text)
    timer_list_init                          0x1a000f9f   Thumb Code    10  raw-os.o(.text)
    raw_byte_pool_search                     0x1a001c61   Thumb Code   254  raw-os.o(.text)
    msg_to_end_buffer                        0x1a0026e3   Thumb Code   104  raw-os.o(.text)
    buffer_to_msg                            0x1a00274b   Thumb Code   108  raw-os.o(.text)
    list_init                                0x1a003611   Thumb Code     6  raw-os.o(.text)
    is_list_empty                            0x1a003617   Thumb Code    16  raw-os.o(.text)
    list_delete                              0x1a003627   Thumb Code    14  raw-os.o(.text)
    .text                                    0x1a00363c   Section        0  fifo.o(.text)
    fifo_unused                              0x1a00363d   Thumb Code    16  fifo.o(.text)
    is_power_of_2                            0x1a00364d   Thumb Code    18  fifo.o(.text)
    fifo_copy_in                             0x1a0036a1   Thumb Code    68  fifo.o(.text)
    kfifo_copy_out                           0x1a003733   Thumb Code    70  fifo.o(.text)
    internal_fifo_out_peek                   0x1a003779   Thumb Code    40  fifo.o(.text)
    .text                                    0x1a003864   Section      164  cpu.o(.text)
    $v0                                      0x1a003864   Number         0  cpu.o(.text)
    .text                                    0x1a003908   Section        0  port.o(.text)
    .text                                    0x1a003ac2   Section        0  port_hook.o(.text)
    .text                                    0x1a003ad4   Section        0  user_extension.o(.text)
    .text                                    0x1a003b74   Section        0  port_error_process.o(.text)
    .text                                    0x1a003bec   Section       68  keil_startup_lpc18xx43xx.o(.text)
    $v0                                      0x1a003bec   Number         0  keil_startup_lpc18xx43xx.o(.text)
    .text                                    0x1a003c30   Section        0  sysinit.o(.text)
    .text                                    0x1a003c4c   Section        0  lpc43xx_scu.o(.text)
    .text                                    0x1a003c70   Section        0  lpc43xx_sdram.o(.text)
    .text                                    0x1a004120   Section        0  main.o(.text)
    NVIC_SetPriority                         0x1a004121   Thumb Code    32  main.o(.text)
    uart_3_irq                               0x1a0041d9   Thumb Code    58  main.o(.text)
    uart3_int_init                           0x1a004223   Thumb Code    32  main.o(.text)
    NVIC_EnableIRQ                           0x1a00464f   Thumb Code    22  main.o(.text)
    .text                                    0x1a004670   Section        0  lpc43xx_gpio.o(.text)
    .text                                    0x1a0046bc   Section        0  k9f1g08.o(.text)
    k9f_busy_wait                            0x1a0046bd   Thumb Code    34  k9f1g08.o(.text)
    k9f_state_read                           0x1a004779   Thumb Code    58  k9f1g08.o(.text)
    .text                                    0x1a004b9c   Section      238  lludivv7m.o(.text)
    .text                                    0x1a004c8c   Section        0  noretval__2printf.o(.text)
    .text                                    0x1a004ca4   Section        0  __printf.o(.text)
    .text                                    0x1a004d0c   Section        0  _printf_dec.o(.text)
    .text                                    0x1a004d84   Section        0  _printf_hex_int.o(.text)
    .text                                    0x1a004ddc   Section        0  memcmp.o(.text)
    .text                                    0x1a004e34   Section        0  heapauxi.o(.text)
    .text                                    0x1a004e3a   Section        0  _printf_intcommon.o(.text)
    .text                                    0x1a004eec   Section        0  _printf_char_file.o(.text)
    .text                                    0x1a004f10   Section        0  _printf_char_common.o(.text)
    _printf_input_char                       0x1a004f11   Thumb Code    10  _printf_char_common.o(.text)
    .text                                    0x1a004f40   Section       74  sys_stackheap_outer.o(.text)
    .text                                    0x1a004f8a   Section        0  exit.o(.text)
    .text                                    0x1a004f9c   Section        8  libspace.o(.text)
    i.Board_SetupClocking                    0x1a004fa4   Section        0  board_sysinit.o(i.Board_SetupClocking)
    i.Board_SetupMuxing                      0x1a005058   Section        0  board_sysinit.o(i.Board_SetupMuxing)
    i.Board_SystemInit                       0x1a0050a4   Section        0  board_sysinit.o(i.Board_SystemInit)
    i.Board_UARTPutChar                      0x1a0050b0   Section        0  board.o(i.Board_UARTPutChar)
    i.Board_UART_Init                        0x1a0050d0   Section        0  board.o(i.Board_UART_Init)
    i.Chip_Clock_EnableOpts                  0x1a005114   Section        0  clock_18xx_43xx.o(i.Chip_Clock_EnableOpts)
    i.Chip_Clock_FindBaseClock               0x1a005150   Section        0  clock_18xx_43xx.o(i.Chip_Clock_FindBaseClock)
    Chip_Clock_FindBaseClock                 0x1a005151   Thumb Code    74  clock_18xx_43xx.o(i.Chip_Clock_FindBaseClock)
    i.Chip_Clock_GetBaseClock                0x1a0051a0   Section        0  clock_18xx_43xx.o(i.Chip_Clock_GetBaseClock)
    i.Chip_Clock_GetBaseClocktHz             0x1a0051c4   Section        0  clock_18xx_43xx.o(i.Chip_Clock_GetBaseClocktHz)
    i.Chip_Clock_GetClockInputHz             0x1a0051d8   Section        0  clock_18xx_43xx.o(i.Chip_Clock_GetClockInputHz)
    i.Chip_Clock_GetDivRate                  0x1a0052ac   Section        0  clock_18xx_43xx.o(i.Chip_Clock_GetDivRate)
    Chip_Clock_GetDivRate                    0x1a0052ad   Thumb Code    40  clock_18xx_43xx.o(i.Chip_Clock_GetDivRate)
    i.Chip_Clock_GetDividerDivisor           0x1a0052d4   Section        0  clock_18xx_43xx.o(i.Chip_Clock_GetDividerDivisor)
    i.Chip_Clock_GetDividerSource            0x1a0052f4   Section        0  clock_18xx_43xx.o(i.Chip_Clock_GetDividerSource)
    i.Chip_Clock_GetMainPLLHz                0x1a005314   Section        0  clock_18xx_43xx.o(i.Chip_Clock_GetMainPLLHz)
    i.Chip_Clock_GetRate                     0x1a00538c   Section        0  clock_18xx_43xx.o(i.Chip_Clock_GetRate)
    i.Chip_Clock_SetBaseClock                0x1a0053e4   Section        0  clock_18xx_43xx.o(i.Chip_Clock_SetBaseClock)
    i.Chip_Clock_SetDivider                  0x1a00542c   Section        0  clock_18xx_43xx.o(i.Chip_Clock_SetDivider)
    i.Chip_SCU_PinMuxSet                     0x1a00547c   Section        0  board.o(i.Chip_SCU_PinMuxSet)
    Chip_SCU_PinMuxSet                       0x1a00547d   Thumb Code    12  board.o(i.Chip_SCU_PinMuxSet)
    i.Chip_SCU_SetPinMuxing                  0x1a00548c   Section        0  board_sysinit.o(i.Chip_SCU_SetPinMuxing)
    Chip_SCU_SetPinMuxing                    0x1a00548d   Thumb Code    44  board_sysinit.o(i.Chip_SCU_SetPinMuxing)
    i.Chip_SetupCoreClock                    0x1a0054bc   Section        0  sysinit_18xx_43xx.o(i.Chip_SetupCoreClock)
    i.Chip_UART_DisableDivisorAccess         0x1a0054ca   Section        0  uart_18xx_43xx.o(i.Chip_UART_DisableDivisorAccess)
    Chip_UART_DisableDivisorAccess           0x1a0054cb   Thumb Code    10  uart_18xx_43xx.o(i.Chip_UART_DisableDivisorAccess)
    i.Chip_UART_EnableDivisorAccess          0x1a0054d4   Section        0  uart_18xx_43xx.o(i.Chip_UART_EnableDivisorAccess)
    Chip_UART_EnableDivisorAccess            0x1a0054d5   Thumb Code    10  uart_18xx_43xx.o(i.Chip_UART_EnableDivisorAccess)
    i.Chip_UART_GetClockIndex                0x1a0054e0   Section        0  uart_18xx_43xx.o(i.Chip_UART_GetClockIndex)
    Chip_UART_GetClockIndex                  0x1a0054e1   Thumb Code    36  uart_18xx_43xx.o(i.Chip_UART_GetClockIndex)
    i.Chip_UART_Init                         0x1a005510   Section        0  uart_18xx_43xx.o(i.Chip_UART_Init)
    i.Chip_UART_SetBaud                      0x1a00555c   Section        0  uart_18xx_43xx.o(i.Chip_UART_SetBaud)
    i.Chip_UART_SetDivisorLatches            0x1a00559e   Section        0  uart_18xx_43xx.o(i.Chip_UART_SetDivisorLatches)
    Chip_UART_SetDivisorLatches              0x1a00559f   Thumb Code     6  uart_18xx_43xx.o(i.Chip_UART_SetDivisorLatches)
    i.SystemCoreClockUpdate                  0x1a0055a4   Section        0  chip_18xx_43xx.o(i.SystemCoreClockUpdate)
    i._sys_exit                              0x1a0055b8   Section        0  board.o(i._sys_exit)
    i.clock_init_delay                       0x1a0055be   Section        0  sysinit_18xx_43xx.o(i.clock_init_delay)
    clock_init_delay                         0x1a0055bf   Thumb Code    36  sysinit_18xx_43xx.o(i.clock_init_delay)
    i.clock_main_init                        0x1a0055e4   Section        0  sysinit_18xx_43xx.o(i.clock_main_init)
    clock_main_init                          0x1a0055e5   Thumb Code   168  sysinit_18xx_43xx.o(i.clock_main_init)
    i.ferror                                 0x1a0056a0   Section        0  board.o(i.ferror)
    i.fpuInit                                0x1a0056a8   Section        0  fpu_init.o(i.fpuInit)
    i.fputc                                  0x1a0056f8   Section        0  board.o(i.fputc)
    x$fpl$fpinit                             0x1a00570c   Section       10  fpinit.o(x$fpl$fpinit)
    $v0                                      0x1a00570c   Number         0  fpinit.o(x$fpl$fpinit)
    .constdata                               0x1a005718   Section       64  board.o(.constdata)
    ledports                                 0x1a005718   Data           8  board.o(.constdata)
    ledbits                                  0x1a005720   Data           8  board.o(.constdata)
    .constdata                               0x1a005758   Section      700  board_sysinit.o(.constdata)
    InitClkStates                            0x1a005758   Data          16  board_sysinit.o(.constdata)
    spifipinmuxing                           0x1a005768   Data          24  board_sysinit.o(.constdata)
    pinmuxing                                0x1a005780   Data         496  board_sysinit.o(.constdata)
    pinclockmuxing                           0x1a005970   Data          16  board_sysinit.o(.constdata)
    MT48LC4M32_config                        0x1a005980   Data         116  board_sysinit.o(.constdata)
    S29GL64N90_config                        0x1a0059f4   Data          32  board_sysinit.o(.constdata)
    .constdata                               0x1a005a14   Section      108  clock_18xx_43xx.o(.constdata)
    periph_to_base                           0x1a005a14   Data         108  clock_18xx_43xx.o(.constdata)
    .constdata                               0x1a005a80   Section       72  sysinit_18xx_43xx.o(.constdata)
    InitClkStates                            0x1a005a80   Data          72  sysinit_18xx_43xx.o(.constdata)
    .constdata                               0x1a005ac8   Section       40  _printf_hex_int.o(.constdata)
    uc_hextab                                0x1a005ac8   Data          20  _printf_hex_int.o(.constdata)
    lc_hextab                                0x1a005adc   Data          20  _printf_hex_int.o(.constdata)

    Global Symbols

    Symbol Name                              Value     Ov Type        Size  Object(Section)

    BuildAttributes$$THM_ISAv4$E$P$D$K$B$S$7EM$VFPi3$EXTD16$VFPS$VFMA$PE$A:L22UL41UL21$X:L11$S22US41US21$IEEE1$IW$USESV6$~STKCKD$USESV7$~SHL$OSPACE$ROPI$EBA8$UX$STANDARDLIB$REQ8$PRES8$EABIv2 0x00000000   Number         0  anon$$obj.o ABSOLUTE
    __ARM_use_no_argv                        0x00000000   Number         0  main.o ABSOLUTE
    __ARM_exceptions_init                     - Undefined Weak Reference
    __alloca_initialize                       - Undefined Weak Reference
    __arm_preinit_                            - Undefined Weak Reference
    __cpp_initialize__aeabi_                  - Undefined Weak Reference
    __cxa_finalize                            - Undefined Weak Reference
    __rt_locale                               - Undefined Weak Reference
    __sigvec_lookup                           - Undefined Weak Reference
    _atexit_init                              - Undefined Weak Reference
    _call_atexit_fns                          - Undefined Weak Reference
    _clock_init                               - Undefined Weak Reference
    _fp_trap_init                             - Undefined Weak Reference
    _fp_trap_shutdown                         - Undefined Weak Reference
    _get_lc_collate                           - Undefined Weak Reference
    _get_lc_ctype                             - Undefined Weak Reference
    _get_lc_monetary                          - Undefined Weak Reference
    _get_lc_numeric                           - Undefined Weak Reference
    _get_lc_time                              - Undefined Weak Reference
    _getenv_init                              - Undefined Weak Reference
    _handle_redirection                       - Undefined Weak Reference
    _init_alloc                               - Undefined Weak Reference
    _init_user_alloc                          - Undefined Weak Reference
    _initio                                   - Undefined Weak Reference
    _printf_post_padding                      - Undefined Weak Reference
    _printf_pre_padding                       - Undefined Weak Reference
    _printf_truncate_signed                   - Undefined Weak Reference
    _printf_truncate_unsigned                 - Undefined Weak Reference
    _rand_init                                - Undefined Weak Reference
    _signal_finish                            - Undefined Weak Reference
    _signal_init                              - Undefined Weak Reference
    _terminate_alloc                          - Undefined Weak Reference
    _terminate_user_alloc                     - Undefined Weak Reference
    _terminateio                              - Undefined Weak Reference
    raw_os_active                            0x10000000   Data           2  raw-os.o(.data)
    idle_task_exit                           0x10000002   Data           1  raw-os.o(.data)
    raw_sched_lock                           0x10000003   Data           1  raw-os.o(.data)
    raw_int_nesting                          0x10000004   Data           1  raw-os.o(.data)
    high_ready_obj                           0x10000008   Data           4  raw-os.o(.data)
    raw_task_active                          0x1000000c   Data           4  raw-os.o(.data)
    raw_idle_count                           0x10000010   Data           8  raw-os.o(.data)
    raw_tick_count                           0x10000018   Data           4  raw-os.o(.data)
    timer_head                               0x1000001c   Data           8  raw-os.o(.data)
    raw_timer_count                          0x10000024   Data           4  raw-os.o(.data)
    raw_timer_ctrl                           0x10000028   Data           4  raw-os.o(.data)
    sys_time_tick                            0x10000030   Data           8  raw-os.o(.data)
    test_count                               0x10000038   Data           4  main.o(.data)
    res                                      0x10000040   Data           1  main.o(.data)
    nand_id                                  0x10000044   Data           4  main.o(.data)
    K9F_NF_CLE                               0x10000048   Data           4  k9f1g08.o(.data)
    K9F_NF_ALE                               0x1000004c   Data           4  k9f1g08.o(.data)
    K9F_NF_DATA                              0x10000050   Data           4  k9f1g08.o(.data)
    __stdout                                 0x10000054   Data           4  board.o(.data)
    __stdin                                  0x10000058   Data           4  board.o(.data)
    __stderr                                 0x1000005c   Data           4  board.o(.data)
    g_isPenDn                                0x10000060   Data           4  board.o(.data)
    g_isNewPenDn                             0x10000064   Data           4  board.o(.data)
    SystemCoreClock                          0x10000068   Data           4  chip_18xx_43xx.o(.data)
    raw_ready_queue                          0x10000074   Data         508  raw-os.o(.bss)
    raw_idle_obj                             0x10000270   Data         112  raw-os.o(.bss)
    idle_stack                               0x100002e0   Data        1024  raw-os.o(.bss)
    tick_head                                0x100006e0   Data          64  raw-os.o(.bss)
    raw_timer_obj                            0x10000720   Data         112  raw-os.o(.bss)
    timer_task_stack                         0x10000790   Data        1024  raw-os.o(.bss)
    timer_sem                                0x10000b90   Data          36  raw-os.o(.bss)
    timer_mutex                              0x10000bb4   Data          40  raw-os.o(.bss)
    raw_task_debug                           0x10000bdc   Data          56  raw-os.o(.bss)
    tick_task_obj                            0x10000c14   Data         112  raw-os.o(.bss)
    tick_task_stack                          0x10000c84   Data        1024  raw-os.o(.bss)
    tick_semaphore_obj                       0x10001084   Data          36  raw-os.o(.bss)
    shell_task_stack                         0x100010a8   Data        1600  main.o(.bss)
    shell_task_obj                           0x100016e8   Data         112  main.o(.bss)
    uart_sema                                0x10001758   Data          36  main.o(.bss)
    uart_fifo                                0x1000177c   Data          24  main.o(.bss)
    __libspace_start                         0x10002814   Data          96  libspace.o(.bss)
    __temporary_stack_top$libspace           0x10002874   Data           0  libspace.o(.bss)
    __Vectors                                0x1a000000   Data           4  keil_startup_lpc18xx43xx.o(RESET)
    __main                                   0x1a000115   Thumb Code     8  __main.o(!!!main)
    __scatterload                            0x1a00011d   Thumb Code     0  __scatter.o(!!!scatter)
    __scatterload_rt2                        0x1a00011d   Thumb Code    44  __scatter.o(!!!scatter)
    __scatterload_rt2_thumb_only             0x1a00011d   Thumb Code     0  __scatter.o(!!!scatter)
    __scatterload_null                       0x1a00012b   Thumb Code     0  __scatter.o(!!!scatter)
    __scatterload_copy                       0x1a000151   Thumb Code    26  __scatter_copy.o(!!handler_copy)
    __scatterload_zeroinit                   0x1a00016d   Thumb Code    28  __scatter_zi.o(!!handler_zi)
    _printf_d                                0x1a000189   Thumb Code     0  _printf_d.o(.ARM.Collect$$_printf_percent$$00000009)
    _printf_percent                          0x1a000189   Thumb Code     0  _printf_percent.o(.ARM.Collect$$_printf_percent$$00000000)
    _printf_x                                0x1a00018f   Thumb Code     0  _printf_x.o(.ARM.Collect$$_printf_percent$$0000000C)
    _printf_percent_end                      0x1a000195   Thumb Code     0  _printf_percent_end.o(.ARM.Collect$$_printf_percent$$00000017)
    __rt_lib_init                            0x1a000199   Thumb Code     0  libinit.o(.ARM.Collect$$libinit$$00000000)
    __rt_lib_init_fp_1                       0x1a00019b   Thumb Code     0  libinit2.o(.ARM.Collect$$libinit$$00000001)
    __rt_lib_init_alloca_1                   0x1a00019f   Thumb Code     0  libinit2.o(.ARM.Collect$$libinit$$0000002E)
    __rt_lib_init_argv_1                     0x1a00019f   Thumb Code     0  libinit2.o(.ARM.Collect$$libinit$$0000002C)
    __rt_lib_init_atexit_1                   0x1a00019f   Thumb Code     0  libinit2.o(.ARM.Collect$$libinit$$0000001B)
    __rt_lib_init_clock_1                    0x1a00019f   Thumb Code     0  libinit2.o(.ARM.Collect$$libinit$$00000021)
    __rt_lib_init_cpp_1                      0x1a00019f   Thumb Code     0  libinit2.o(.ARM.Collect$$libinit$$00000032)
    __rt_lib_init_exceptions_1               0x1a00019f   Thumb Code     0  libinit2.o(.ARM.Collect$$libinit$$00000030)
    __rt_lib_init_fp_trap_1                  0x1a00019f   Thumb Code     0  libinit2.o(.ARM.Collect$$libinit$$0000001F)
    __rt_lib_init_getenv_1                   0x1a00019f   Thumb Code     0  libinit2.o(.ARM.Collect$$libinit$$00000023)
    __rt_lib_init_heap_1                     0x1a00019f   Thumb Code     0  libinit2.o(.ARM.Collect$$libinit$$0000000A)
    __rt_lib_init_lc_collate_1               0x1a00019f   Thumb Code     0  libinit2.o(.ARM.Collect$$libinit$$00000011)
    __rt_lib_init_lc_ctype_1                 0x1a00019f   Thumb Code     0  libinit2.o(.ARM.Collect$$libinit$$00000013)
    __rt_lib_init_lc_monetary_1              0x1a00019f   Thumb Code     0  libinit2.o(.ARM.Collect$$libinit$$00000015)
    __rt_lib_init_lc_numeric_1               0x1a00019f   Thumb Code     0  libinit2.o(.ARM.Collect$$libinit$$00000017)
    __rt_lib_init_lc_time_1                  0x1a00019f   Thumb Code     0  libinit2.o(.ARM.Collect$$libinit$$00000019)
    __rt_lib_init_preinit_1                  0x1a00019f   Thumb Code     0  libinit2.o(.ARM.Collect$$libinit$$00000004)
    __rt_lib_init_rand_1                     0x1a00019f   Thumb Code     0  libinit2.o(.ARM.Collect$$libinit$$0000000E)
    __rt_lib_init_return                     0x1a00019f   Thumb Code     0  libinit2.o(.ARM.Collect$$libinit$$00000033)
    __rt_lib_init_signal_1                   0x1a00019f   Thumb Code     0  libinit2.o(.ARM.Collect$$libinit$$0000001D)
    __rt_lib_init_stdio_1                    0x1a00019f   Thumb Code     0  libinit2.o(.ARM.Collect$$libinit$$00000025)
    __rt_lib_init_user_alloc_1               0x1a00019f   Thumb Code     0  libinit2.o(.ARM.Collect$$libinit$$0000000C)
    __rt_lib_shutdown                        0x1a0001a1   Thumb Code     0  libshutdown.o(.ARM.Collect$$libshutdown$$00000000)
    __rt_lib_shutdown_cpp_1                  0x1a0001a3   Thumb Code     0  libshutdown2.o(.ARM.Collect$$libshutdown$$00000002)
    __rt_lib_shutdown_fp_trap_1              0x1a0001a3   Thumb Code     0  libshutdown2.o(.ARM.Collect$$libshutdown$$00000007)
    __rt_lib_shutdown_heap_1                 0x1a0001a3   Thumb Code     0  libshutdown2.o(.ARM.Collect$$libshutdown$$0000000F)
    __rt_lib_shutdown_return                 0x1a0001a3   Thumb Code     0  libshutdown2.o(.ARM.Collect$$libshutdown$$00000010)
    __rt_lib_shutdown_signal_1               0x1a0001a3   Thumb Code     0  libshutdown2.o(.ARM.Collect$$libshutdown$$0000000A)
    __rt_lib_shutdown_stdio_1                0x1a0001a3   Thumb Code     0  libshutdown2.o(.ARM.Collect$$libshutdown$$00000004)
    __rt_lib_shutdown_user_alloc_1           0x1a0001a3   Thumb Code     0  libshutdown2.o(.ARM.Collect$$libshutdown$$0000000C)
    __rt_entry                               0x1a0001a5   Thumb Code     0  __rtentry.o(.ARM.Collect$$rtentry$$00000000)
    __rt_entry_presh_1                       0x1a0001a5   Thumb Code     0  __rtentry2.o(.ARM.Collect$$rtentry$$00000002)
    __rt_entry_sh                            0x1a0001a5   Thumb Code     0  __rtentry4.o(.ARM.Collect$$rtentry$$00000004)
    __rt_entry_li                            0x1a0001ab   Thumb Code     0  __rtentry2.o(.ARM.Collect$$rtentry$$0000000A)
    __rt_entry_postsh_1                      0x1a0001ab   Thumb Code     0  __rtentry2.o(.ARM.Collect$$rtentry$$00000009)
    __rt_entry_main                          0x1a0001af   Thumb Code     0  __rtentry2.o(.ARM.Collect$$rtentry$$0000000D)
    __rt_entry_postli_1                      0x1a0001af   Thumb Code     0  __rtentry2.o(.ARM.Collect$$rtentry$$0000000C)
    __rt_exit                                0x1a0001b7   Thumb Code     0  rtexit.o(.ARM.Collect$$rtexit$$00000000)
    __rt_exit_ls                             0x1a0001b9   Thumb Code     0  rtexit2.o(.ARM.Collect$$rtexit$$00000003)
    __rt_exit_prels_1                        0x1a0001b9   Thumb Code     0  rtexit2.o(.ARM.Collect$$rtexit$$00000002)
    __rt_exit_exit                           0x1a0001bd   Thumb Code     0  rtexit2.o(.ARM.Collect$$rtexit$$00000004)
    get_ready_task                           0x1a0001d3   Thumb Code    18  raw-os.o(.text)
    raw_sched                                0x1a0001e5   Thumb Code    78  raw-os.o(.text)
    raw_semaphore_create                     0x1a00026d   Thumb Code    62  raw-os.o(.text)
    raw_task_semaphore_create                0x1a0002ab   Thumb Code    28  raw-os.o(.text)
    tick_list_remove                         0x1a0002c7   Thumb Code    22  raw-os.o(.text)
    mutex_priority_look                      0x1a0002dd   Thumb Code    98  raw-os.o(.text)
    change_pend_list_priority                0x1a000371   Thumb Code    26  raw-os.o(.text)
    add_ready_list_end                       0x1a0003a5   Thumb Code    40  raw-os.o(.text)
    add_ready_list_head                      0x1a0003cd   Thumb Code    40  raw-os.o(.text)
    bit_search_first_one                     0x1a0003f5   Thumb Code   146  raw-os.o(.text)
    remove_ready_list                        0x1a000487   Thumb Code   118  raw-os.o(.text)
    change_internal_task_priority            0x1a0004fd   Thumb Code   232  raw-os.o(.text)
    mutex_state_change                       0x1a000605   Thumb Code    40  raw-os.o(.text)
    add_ready_list                           0x1a00062d   Thumb Code    38  raw-os.o(.text)
    tick_list_update                         0x1a000653   Thumb Code   268  raw-os.o(.text)
    block_state_post_process                 0x1a00075f   Thumb Code    70  raw-os.o(.text)
    tick_list_insert                         0x1a0007a5   Thumb Code   106  raw-os.o(.text)
    raw_pend_object                          0x1a00080f   Thumb Code    70  raw-os.o(.text)
    raw_semaphore_get                        0x1a000855   Thumb Code   180  raw-os.o(.text)
    raw_task_semaphore_get                   0x1a000909   Thumb Code    18  raw-os.o(.text)
    raw_task_create                          0x1a000937   Thumb Code   358  raw-os.o(.text)
    tick_task_start                          0x1a000a9d   Thumb Code    52  raw-os.o(.text)
    raw_mutex_create                         0x1a000ad1   Thumb Code    78  raw-os.o(.text)
    raw_wake_object                          0x1a000b8b   Thumb Code    12  raw-os.o(.text)
    raw_mutex_put                            0x1a000b97   Thumb Code   210  raw-os.o(.text)
    raw_mutex_get                            0x1a000cb9   Thumb Code   348  raw-os.o(.text)
    raw_semaphore_set                        0x1a000e15   Thumb Code   200  raw-os.o(.text)
    timer_task                               0x1a000edd   Thumb Code   194  raw-os.o(.text)
    raw_timer_init                           0x1a000fa9   Thumb Code    62  raw-os.o(.text)
    raw_idle_task                            0x1a000fe7   Thumb Code    42  raw-os.o(.text)
    tick_list_init                           0x1a001011   Thumb Code    26  raw-os.o(.text)
    run_queue_init                           0x1a00102b   Thumb Code    32  raw-os.o(.text)
    raw_os_init                              0x1a00104b   Thumb Code    88  raw-os.o(.text)
    raw_os_start                             0x1a0010a3   Thumb Code    44  raw-os.o(.text)
    move_to_ready_list_end                   0x1a0010cf   Thumb Code    30  raw-os.o(.text)
    calculate_time_slice                     0x1a0010ed   Thumb Code   142  raw-os.o(.text)
    wake_send_msg                            0x1a00117b   Thumb Code    16  raw-os.o(.text)
    wake_send_msg_size                       0x1a00118b   Thumb Code    20  raw-os.o(.text)
    delete_pend_obj                          0x1a00119f   Thumb Code   110  raw-os.o(.text)
    raw_task_stack_check                     0x1a00120d   Thumb Code    56  raw-os.o(.text)
    raw_disable_sche                         0x1a001245   Thumb Code    62  raw-os.o(.text)
    raw_enable_sche                          0x1a001283   Thumb Code   208  raw-os.o(.text)
    raw_sleep                                0x1a001353   Thumb Code   128  raw-os.o(.text)
    raw_task_yield                           0x1a0013d3   Thumb Code    44  raw-os.o(.text)
    raw_time_sleep                           0x1a0013ff   Thumb Code   110  raw-os.o(.text)
    task_suspend                             0x1a00146d   Thumb Code   194  raw-os.o(.text)
    raw_task_suspend                         0x1a00152f   Thumb Code    32  raw-os.o(.text)
    task_resume                              0x1a00154f   Thumb Code   172  raw-os.o(.text)
    raw_task_resume                          0x1a0015fb   Thumb Code    20  raw-os.o(.text)
    chg_pri_mutex                            0x1a00160f   Thumb Code   134  raw-os.o(.text)
    raw_task_priority_change                 0x1a001695   Thumb Code   188  raw-os.o(.text)
    raw_task_free_mutex                      0x1a001751   Thumb Code    82  raw-os.o(.text)
    raw_task_delete                          0x1a0017a3   Thumb Code   228  raw-os.o(.text)
    raw_set_task_user_point                  0x1a001887   Thumb Code    44  raw-os.o(.text)
    raw_get_task_user_point                  0x1a0018b3   Thumb Code    12  raw-os.o(.text)
    raw_task_time_slice_change               0x1a0018bf   Thumb Code    66  raw-os.o(.text)
    raw_set_sched_way                        0x1a001901   Thumb Code    68  raw-os.o(.text)
    raw_get_sched_way                        0x1a001945   Thumb Code    64  raw-os.o(.text)
    raw_task_wait_abort                      0x1a001985   Thumb Code   192  raw-os.o(.text)
    raw_task_identify                        0x1a001a45   Thumb Code     6  raw-os.o(.text)
    raw_iter_block_task                      0x1a001a4b   Thumb Code    86  raw-os.o(.text)
    raw_get_system_global_space              0x1a001aa1   Thumb Code    16  raw-os.o(.text)
    raw_block_pool_create                    0x1a001ab1   Thumb Code   138  raw-os.o(.text)
    raw_block_allocate                       0x1a001b3b   Thumb Code   110  raw-os.o(.text)
    raw_block_release                        0x1a001ba9   Thumb Code    78  raw-os.o(.text)
    raw_byte_pool_create                     0x1a001bf7   Thumb Code   106  raw-os.o(.text)
    raw_byte_allocate                        0x1a001d5f   Thumb Code   146  raw-os.o(.text)
    raw_byte_release                         0x1a001df1   Thumb Code    90  raw-os.o(.text)
    raw_event_create                         0x1a001e4b   Thumb Code    48  raw-os.o(.text)
    raw_event_get                            0x1a001e7b   Thumb Code   282  raw-os.o(.text)
    event_set                                0x1a001f95   Thumb Code   234  raw-os.o(.text)
    raw_event_set                            0x1a00207f   Thumb Code    40  raw-os.o(.text)
    raw_event_delete                         0x1a0020a7   Thumb Code   114  raw-os.o(.text)
    raw_mutex_delete                         0x1a002119   Thumb Code   110  raw-os.o(.text)
    raw_queue_create                         0x1a002187   Thumb Code    92  raw-os.o(.text)
    raw_queue_full_register                  0x1a0021e3   Thumb Code    46  raw-os.o(.text)
    msg_post                                 0x1a002211   Thumb Code   244  raw-os.o(.text)
    raw_queue_front_post                     0x1a002305   Thumb Code    36  raw-os.o(.text)
    raw_queue_end_post                       0x1a002329   Thumb Code    36  raw-os.o(.text)
    raw_queue_post_notify                    0x1a00234d   Thumb Code    36  raw-os.o(.text)
    raw_queue_all_post                       0x1a002371   Thumb Code    38  raw-os.o(.text)
    raw_queue_send_notify                    0x1a002397   Thumb Code    76  raw-os.o(.text)
    raw_queue_receive                        0x1a0023e3   Thumb Code   268  raw-os.o(.text)
    raw_queue_full_check                     0x1a0024ef   Thumb Code    78  raw-os.o(.text)
    raw_queue_flush                          0x1a00253d   Thumb Code    84  raw-os.o(.text)
    raw_queue_delete                         0x1a002591   Thumb Code   110  raw-os.o(.text)
    raw_queue_get_information                0x1a0025ff   Thumb Code   108  raw-os.o(.text)
    raw_queue_buffer_create                  0x1a00266b   Thumb Code   120  raw-os.o(.text)
    queue_buffer_post                        0x1a0027b7   Thumb Code   156  raw-os.o(.text)
    raw_queue_buffer_end_post                0x1a002853   Thumb Code    48  raw-os.o(.text)
    raw_queue_buffer_receive                 0x1a002883   Thumb Code   258  raw-os.o(.text)
    raw_queue_buffer_flush                   0x1a002985   Thumb Code    82  raw-os.o(.text)
    raw_queue_buffer_delete                  0x1a0029d7   Thumb Code   110  raw-os.o(.text)
    raw_queue_buffer_info_get                0x1a002a45   Thumb Code    92  raw-os.o(.text)
    raw_queue_size_create                    0x1a002aa1   Thumb Code   118  raw-os.o(.text)
    raw_queue_size_full_register             0x1a002b17   Thumb Code    46  raw-os.o(.text)
    msg_size_post                            0x1a002b45   Thumb Code   244  raw-os.o(.text)
    raw_queue_size_receive                   0x1a002c39   Thumb Code   308  raw-os.o(.text)
    raw_queue_size_front_post                0x1a002d6d   Thumb Code    42  raw-os.o(.text)
    raw_queue_size_end_post                  0x1a002d97   Thumb Code    42  raw-os.o(.text)
    raw_queue_size_all_post                  0x1a002dc1   Thumb Code    44  raw-os.o(.text)
    raw_queue_size_full_check                0x1a002ded   Thumb Code    78  raw-os.o(.text)
    raw_queue_size_flush                     0x1a002e3b   Thumb Code    94  raw-os.o(.text)
    raw_queue_size_delete                    0x1a002e99   Thumb Code   110  raw-os.o(.text)
    raw_queue_size_get_information           0x1a002f07   Thumb Code   104  raw-os.o(.text)
    semaphore_put                            0x1a002f6f   Thumb Code   166  raw-os.o(.text)
    raw_semaphore_put                        0x1a003015   Thumb Code    22  raw-os.o(.text)
    raw_semaphore_put_notify                 0x1a00302b   Thumb Code    22  raw-os.o(.text)
    raw_semaphore_put_all                    0x1a003041   Thumb Code    22  raw-os.o(.text)
    raw_semphore_send_notify                 0x1a003057   Thumb Code    76  raw-os.o(.text)
    raw_semaphore_delete                     0x1a0030a3   Thumb Code   118  raw-os.o(.text)
    raw_stack_check                          0x1a003119   Thumb Code    72  raw-os.o(.text)
    raw_finish_int                           0x1a003161   Thumb Code   118  raw-os.o(.text)
    call_timer_task                          0x1a0031d7   Thumb Code    30  raw-os.o(.text)
    raw_task_semaphore_put                   0x1a0031f5   Thumb Code    12  raw-os.o(.text)
    raw_time_tick                            0x1a003201   Thumb Code    46  raw-os.o(.text)
    raw_enter_interrupt                      0x1a00322f   Thumb Code    84  raw-os.o(.text)
    raw_system_time_get                      0x1a003283   Thumb Code    50  raw-os.o(.text)
    raw_os_version_get                       0x1a0032b5   Thumb Code     6  raw-os.o(.text)
    raw_task_qsize_create                    0x1a0032bb   Thumb Code    34  raw-os.o(.text)
    raw_task_qsize_receive                   0x1a0032dd   Thumb Code    26  raw-os.o(.text)
    raw_task_qsize_front_post                0x1a0032f7   Thumb Code    20  raw-os.o(.text)
    raw_task_qsize_end_post                  0x1a00330b   Thumb Code    20  raw-os.o(.text)
    raw_task_qsize_flush                     0x1a00331f   Thumb Code    12  raw-os.o(.text)
    raw_task_qsize_delete                    0x1a00332b   Thumb Code    12  raw-os.o(.text)
    raw_task_qsize_get_information           0x1a003337   Thumb Code    28  raw-os.o(.text)
    raw_task_semaphore_set                   0x1a003353   Thumb Code    16  raw-os.o(.text)
    raw_task_semaphore_delete                0x1a003363   Thumb Code    12  raw-os.o(.text)
    raw_timer_activate                       0x1a00336f   Thumb Code   144  raw-os.o(.text)
    raw_timer_create                         0x1a0033ff   Thumb Code   122  raw-os.o(.text)
    raw_timer_change                         0x1a003479   Thumb Code   118  raw-os.o(.text)
    raw_timer_deactivate                     0x1a0034ef   Thumb Code   176  raw-os.o(.text)
    raw_timer_delete                         0x1a00359f   Thumb Code   114  raw-os.o(.text)
    fifo_init                                0x1a00365f   Thumb Code    66  fifo.o(.text)
    fifo_in                                  0x1a0036e5   Thumb Code    78  fifo.o(.text)
    fifo_out_peek                            0x1a0037a1   Thumb Code    50  fifo.o(.text)
    fifo_out                                 0x1a0037d3   Thumb Code    62  fifo.o(.text)
    fifo_out_all                             0x1a003811   Thumb Code    82  fifo.o(.text)
    OS_CPU_SR_Save                           0x1a003865   Thumb Code     0  cpu.o(.text)
    OS_CPU_SR_Restore                        0x1a00386d   Thumb Code     0  cpu.o(.text)
    CPU_IntDis                               0x1a003873   Thumb Code     0  cpu.o(.text)
    CPU_IntEn                                0x1a003877   Thumb Code     0  cpu.o(.text)
    raw_start_first_task                     0x1a00387b   Thumb Code     0  cpu.o(.text)
    port_task_switch                         0x1a0038a3   Thumb Code     0  cpu.o(.text)
    raw_int_switch                           0x1a0038ad   Thumb Code     0  cpu.o(.text)
    PendSV_Handler                           0x1a0038b7   Thumb Code     0  cpu.o(.text)
    port_stack_init                          0x1a003909   Thumb Code   440  port.o(.text)
    port_isr_stack_check                     0x1a003ac1   Thumb Code     2  port.o(.text)
    raw_os_init_hook                         0x1a003ac3   Thumb Code     2  port_hook.o(.text)
    raw_task_delete_hook                     0x1a003ac5   Thumb Code     2  port_hook.o(.text)
    raw_task_abort_hook                      0x1a003ac7   Thumb Code     2  port_hook.o(.text)
    raw_idle_task_hook                       0x1a003ac9   Thumb Code     2  port_hook.o(.text)
    raw_task_switch_hook                     0x1a003acb   Thumb Code     2  port_hook.o(.text)
    raw_tick_hook                            0x1a003acd   Thumb Code     2  port_hook.o(.text)
    task_create_hook                         0x1a003acf   Thumb Code     2  port_hook.o(.text)
    raw_idle_coroutine_hook                  0x1a003ad1   Thumb Code     4  port_hook.o(.text)
    raw_memcpy                               0x1a003ad5   Thumb Code    90  user_extension.o(.text)
    raw_memset                               0x1a003b2f   Thumb Code    70  user_extension.o(.text)
    port_system_error_process                0x1a003b75   Thumb Code   118  port_error_process.o(.text)
    Reset_Handler                            0x1a003bed   Thumb Code     8  keil_startup_lpc18xx43xx.o(.text)
    NMI_Handler                              0x1a003bf5   Thumb Code     2  keil_startup_lpc18xx43xx.o(.text)
    HardFault_Handler                        0x1a003bf7   Thumb Code     2  keil_startup_lpc18xx43xx.o(.text)
    MemManage_Handler                        0x1a003bf9   Thumb Code     2  keil_startup_lpc18xx43xx.o(.text)
    BusFault_Handler                         0x1a003bfb   Thumb Code     2  keil_startup_lpc18xx43xx.o(.text)
    UsageFault_Handler                       0x1a003bfd   Thumb Code     2  keil_startup_lpc18xx43xx.o(.text)
    SVC_Handler                              0x1a003bff   Thumb Code     2  keil_startup_lpc18xx43xx.o(.text)
    DebugMon_Handler                         0x1a003c01   Thumb Code     2  keil_startup_lpc18xx43xx.o(.text)
    UnHandled_Vector                         0x1a003c07   Thumb Code     2  keil_startup_lpc18xx43xx.o(.text)
    ADC0_IRQHandler                          0x1a003c09   Thumb Code     0  keil_startup_lpc18xx43xx.o(.text)
    ADC1_IRQHandler                          0x1a003c09   Thumb Code     0  keil_startup_lpc18xx43xx.o(.text)
    ADCHS_IRQHandler                         0x1a003c09   Thumb Code     0  keil_startup_lpc18xx43xx.o(.text)
    ATIMER_IRQHandler                        0x1a003c09   Thumb Code     0  keil_startup_lpc18xx43xx.o(.text)
    CAN0_IRQHandler                          0x1a003c09   Thumb Code     0  keil_startup_lpc18xx43xx.o(.text)
    CAN1_IRQHandler                          0x1a003c09   Thumb Code     0  keil_startup_lpc18xx43xx.o(.text)
    DAC_IRQHandler                           0x1a003c09   Thumb Code     0  keil_startup_lpc18xx43xx.o(.text)
    DMA_IRQHandler                           0x1a003c09   Thumb Code     0  keil_startup_lpc18xx43xx.o(.text)
    ETH_IRQHandler                           0x1a003c09   Thumb Code     0  keil_startup_lpc18xx43xx.o(.text)
    EVRT_IRQHandler                          0x1a003c09   Thumb Code     0  keil_startup_lpc18xx43xx.o(.text)
    FLASHEEPROM_IRQHandler                   0x1a003c09   Thumb Code     0  keil_startup_lpc18xx43xx.o(.text)
    GINT0_IRQHandler                         0x1a003c09   Thumb Code     0  keil_startup_lpc18xx43xx.o(.text)
    GINT1_IRQHandler                         0x1a003c09   Thumb Code     0  keil_startup_lpc18xx43xx.o(.text)
    GPIO0_IRQHandler                         0x1a003c09   Thumb Code     0  keil_startup_lpc18xx43xx.o(.text)
    GPIO1_IRQHandler                         0x1a003c09   Thumb Code     0  keil_startup_lpc18xx43xx.o(.text)
    GPIO2_IRQHandler                         0x1a003c09   Thumb Code     0  keil_startup_lpc18xx43xx.o(.text)
    GPIO3_IRQHandler                         0x1a003c09   Thumb Code     0  keil_startup_lpc18xx43xx.o(.text)
    GPIO4_IRQHandler                         0x1a003c09   Thumb Code     0  keil_startup_lpc18xx43xx.o(.text)
    GPIO5_IRQHandler                         0x1a003c09   Thumb Code     0  keil_startup_lpc18xx43xx.o(.text)
    GPIO6_IRQHandler                         0x1a003c09   Thumb Code     0  keil_startup_lpc18xx43xx.o(.text)
    GPIO7_IRQHandler                         0x1a003c09   Thumb Code     0  keil_startup_lpc18xx43xx.o(.text)
    I2C0_IRQHandler                          0x1a003c09   Thumb Code     0  keil_startup_lpc18xx43xx.o(.text)
    I2C1_IRQHandler                          0x1a003c09   Thumb Code     0  keil_startup_lpc18xx43xx.o(.text)
    I2S0_IRQHandler                          0x1a003c09   Thumb Code     0  keil_startup_lpc18xx43xx.o(.text)
    I2S1_IRQHandler                          0x1a003c09   Thumb Code     0  keil_startup_lpc18xx43xx.o(.text)
    LCD_IRQHandler                           0x1a003c09   Thumb Code     0  keil_startup_lpc18xx43xx.o(.text)
    MCPWM_IRQHandler                         0x1a003c09   Thumb Code     0  keil_startup_lpc18xx43xx.o(.text)
    MX_CORE_IRQHandler                       0x1a003c09   Thumb Code     0  keil_startup_lpc18xx43xx.o(.text)
    QEI_IRQHandler                           0x1a003c09   Thumb Code     0  keil_startup_lpc18xx43xx.o(.text)
    RIT_IRQHandler                           0x1a003c09   Thumb Code     0  keil_startup_lpc18xx43xx.o(.text)
    RTC_IRQHandler                           0x1a003c09   Thumb Code     0  keil_startup_lpc18xx43xx.o(.text)
    SCT_IRQHandler                           0x1a003c09   Thumb Code     0  keil_startup_lpc18xx43xx.o(.text)
    SDIO_IRQHandler                          0x1a003c09   Thumb Code     0  keil_startup_lpc18xx43xx.o(.text)
    SGPIO_IRQHandler                         0x1a003c09   Thumb Code     0  keil_startup_lpc18xx43xx.o(.text)
    SPIFI_IRQHandler                         0x1a003c09   Thumb Code     0  keil_startup_lpc18xx43xx.o(.text)
    SPI_IRQHandler                           0x1a003c09   Thumb Code     0  keil_startup_lpc18xx43xx.o(.text)
    SSP0_IRQHandler                          0x1a003c09   Thumb Code     0  keil_startup_lpc18xx43xx.o(.text)
    SSP1_IRQHandler                          0x1a003c09   Thumb Code     0  keil_startup_lpc18xx43xx.o(.text)
    TIMER0_IRQHandler                        0x1a003c09   Thumb Code     0  keil_startup_lpc18xx43xx.o(.text)
    TIMER1_IRQHandler                        0x1a003c09   Thumb Code     0  keil_startup_lpc18xx43xx.o(.text)
    TIMER2_IRQHandler                        0x1a003c09   Thumb Code     0  keil_startup_lpc18xx43xx.o(.text)
    TIMER3_IRQHandler                        0x1a003c09   Thumb Code     0  keil_startup_lpc18xx43xx.o(.text)
    UART0_IRQHandler                         0x1a003c09   Thumb Code     0  keil_startup_lpc18xx43xx.o(.text)
    UART1_IRQHandler                         0x1a003c09   Thumb Code     0  keil_startup_lpc18xx43xx.o(.text)
    UART2_IRQHandler                         0x1a003c09   Thumb Code     0  keil_startup_lpc18xx43xx.o(.text)
    USB0_IRQHandler                          0x1a003c09   Thumb Code     0  keil_startup_lpc18xx43xx.o(.text)
    USB1_IRQHandler                          0x1a003c09   Thumb Code     0  keil_startup_lpc18xx43xx.o(.text)
    WDT_IRQHandler                           0x1a003c09   Thumb Code     0  keil_startup_lpc18xx43xx.o(.text)
    __user_initial_stackheap                 0x1a003c0d   Thumb Code     0  keil_startup_lpc18xx43xx.o(.text)
    SystemInit                               0x1a003c31   Thumb Code    18  sysinit.o(.text)
    scu_pinmux                               0x1a003c4d   Thumb Code    30  lpc43xx_scu.o(.text)
    emc_init                                 0x1a003c71   Thumb Code   980  lpc43xx_sdram.o(.text)
    sdram_init                               0x1a004045   Thumb Code   184  lpc43xx_sdram.o(.text)
    SysTick_Handler                          0x1a004141   Thumb Code    16  main.o(.text)
    OS_CPU_SysTickInit                       0x1a004151   Thumb Code    60  main.o(.text)
    uart_3_recv                              0x1a00418d   Thumb Code    76  main.o(.text)
    UART3_IRQHandler                         0x1a004213   Thumb Code    16  main.o(.text)
    shell_task                               0x1a004243   Thumb Code   704  main.o(.text)
    main                                     0x1a004503   Thumb Code   332  main.o(.text)
    GPIO_SetDir                              0x1a004671   Thumb Code    36  lpc43xx_gpio.o(.text)
    GPIO_SetValue                            0x1a004695   Thumb Code     8  lpc43xx_gpio.o(.text)
    GPIO_ClearValue                          0x1a00469d   Thumb Code    10  lpc43xx_gpio.o(.text)
    GPIO_ReadValue                           0x1a0046a7   Thumb Code    10  lpc43xx_gpio.o(.text)
    k9f_init                                 0x1a0046df   Thumb Code    90  k9f1g08.o(.text)
    k9f_id_read                              0x1a004739   Thumb Code    64  k9f1g08.o(.text)
    k9f_bad_block_check_product              0x1a0047b3   Thumb Code   136  k9f1g08.o(.text)
    k9f_block_erase                          0x1a00483b   Thumb Code    52  k9f1g08.o(.text)
    k9f_page_read                            0x1a00486f   Thumb Code    84  k9f1g08.o(.text)
    k9f_block_read                           0x1a0048c3   Thumb Code   106  k9f1g08.o(.text)
    k9f_page_write                           0x1a00492d   Thumb Code    96  k9f1g08.o(.text)
    k9f_block_write                          0x1a00498d   Thumb Code   144  k9f1g08.o(.text)
    k9f_random_read                          0x1a004a1d   Thumb Code    64  k9f1g08.o(.text)
    k9f_random_continue_read                 0x1a004a5d   Thumb Code   100  k9f1g08.o(.text)
    k9f_random_write                         0x1a004ac1   Thumb Code    94  k9f1g08.o(.text)
    k9f_random_continue_write                0x1a004b1f   Thumb Code   112  k9f1g08.o(.text)
    __aeabi_uldivmod                         0x1a004b9d   Thumb Code     0  lludivv7m.o(.text)
    _ll_udiv                                 0x1a004b9d   Thumb Code   238  lludivv7m.o(.text)
    __2printf                                0x1a004c8d   Thumb Code    20  noretval__2printf.o(.text)
    __printf                                 0x1a004ca5   Thumb Code   104  __printf.o(.text)
    _printf_int_dec                          0x1a004d0d   Thumb Code   104  _printf_dec.o(.text)
    _printf_int_hex                          0x1a004d85   Thumb Code    84  _printf_hex_int.o(.text)
    _printf_longlong_hex                     0x1a004d85   Thumb Code     0  _printf_hex_int.o(.text)
    memcmp                                   0x1a004ddd   Thumb Code    88  memcmp.o(.text)
    __use_two_region_memory                  0x1a004e35   Thumb Code     2  heapauxi.o(.text)
    __rt_heap_escrow$2region                 0x1a004e37   Thumb Code     2  heapauxi.o(.text)
    __rt_heap_expand$2region                 0x1a004e39   Thumb Code     2  heapauxi.o(.text)
    _printf_int_common                       0x1a004e3b   Thumb Code   178  _printf_intcommon.o(.text)
    _printf_char_file                        0x1a004eed   Thumb Code    32  _printf_char_file.o(.text)
    _printf_char_common                      0x1a004f1b   Thumb Code    32  _printf_char_common.o(.text)
    __user_setup_stackheap                   0x1a004f41   Thumb Code    74  sys_stackheap_outer.o(.text)
    exit                                     0x1a004f8b   Thumb Code    18  exit.o(.text)
    __user_libspace                          0x1a004f9d   Thumb Code     8  libspace.o(.text)
    __user_perproc_libspace                  0x1a004f9d   Thumb Code     0  libspace.o(.text)
    __user_perthread_libspace                0x1a004f9d   Thumb Code     0  libspace.o(.text)
    Board_SetupClocking                      0x1a004fa5   Thumb Code   158  board_sysinit.o(i.Board_SetupClocking)
    Board_SetupMuxing                        0x1a005059   Thumb Code    58  board_sysinit.o(i.Board_SetupMuxing)
    Board_SystemInit                         0x1a0050a5   Thumb Code    12  board_sysinit.o(i.Board_SystemInit)
    Board_UARTPutChar                        0x1a0050b1   Thumb Code    26  board.o(i.Board_UARTPutChar)
    Board_UART_Init                          0x1a0050d1   Thumb Code    60  board.o(i.Board_UART_Init)
    Chip_Clock_EnableOpts                    0x1a005115   Thumb Code    52  clock_18xx_43xx.o(i.Chip_Clock_EnableOpts)
    Chip_Clock_GetBaseClock                  0x1a0051a1   Thumb Code    32  clock_18xx_43xx.o(i.Chip_Clock_GetBaseClock)
    Chip_Clock_GetBaseClocktHz               0x1a0051c5   Thumb Code    18  clock_18xx_43xx.o(i.Chip_Clock_GetBaseClocktHz)
    Chip_Clock_GetClockInputHz               0x1a0051d9   Thumb Code   182  clock_18xx_43xx.o(i.Chip_Clock_GetClockInputHz)
    Chip_Clock_GetDividerDivisor             0x1a0052d5   Thumb Code    18  clock_18xx_43xx.o(i.Chip_Clock_GetDividerDivisor)
    Chip_Clock_GetDividerSource              0x1a0052f5   Thumb Code    26  clock_18xx_43xx.o(i.Chip_Clock_GetDividerSource)
    Chip_Clock_GetMainPLLHz                  0x1a005315   Thumb Code   110  clock_18xx_43xx.o(i.Chip_Clock_GetMainPLLHz)
    Chip_Clock_GetRate                       0x1a00538d   Thumb Code    78  clock_18xx_43xx.o(i.Chip_Clock_GetRate)
    Chip_Clock_SetBaseClock                  0x1a0053e5   Thumb Code    64  clock_18xx_43xx.o(i.Chip_Clock_SetBaseClock)
    Chip_Clock_SetDivider                    0x1a00542d   Thumb Code    64  clock_18xx_43xx.o(i.Chip_Clock_SetDivider)
    Chip_SetupCoreClock                      0x1a0054bd   Thumb Code    14  sysinit_18xx_43xx.o(i.Chip_SetupCoreClock)
    Chip_UART_Init                           0x1a005511   Thumb Code    72  uart_18xx_43xx.o(i.Chip_UART_Init)
    Chip_UART_SetBaud                        0x1a00555d   Thumb Code    66  uart_18xx_43xx.o(i.Chip_UART_SetBaud)
    SystemCoreClockUpdate                    0x1a0055a5   Thumb Code    14  chip_18xx_43xx.o(i.SystemCoreClockUpdate)
    _sys_exit                                0x1a0055b9   Thumb Code     6  board.o(i._sys_exit)
    ferror                                   0x1a0056a1   Thumb Code     8  board.o(i.ferror)
    fpuInit                                  0x1a0056a9   Thumb Code    62  fpu_init.o(i.fpuInit)
    fputc                                    0x1a0056f9   Thumb Code    20  board.o(i.fputc)
    _fp_init                                 0x1a00570d   Thumb Code    10  fpinit.o(x$fpl$fpinit)
    __fplib_config_fpu_vfp                   0x1a005715   Thumb Code     0  fpinit.o(x$fpl$fpinit)
    __fplib_config_pureend_doubles           0x1a005715   Thumb Code     0  fpinit.o(x$fpl$fpinit)
    ad_left                                  0x1a005728   Data           4  board.o(.constdata)
    ad_top                                   0x1a00572c   Data           4  board.o(.constdata)
    ad_right                                 0x1a005730   Data           4  board.o(.constdata)
    ad_bottom                                0x1a005734   Data           4  board.o(.constdata)
    MCB4300_LCD                              0x1a005738   Data          22  board.o(.constdata)
    ExtRateIn                                0x1a005750   Data           4  board.o(.constdata)
    OscRateIn                                0x1a005754   Data           4  board.o(.constdata)
    Region$$Table$$Base                      0x1a005af0   Number         0  anon$$obj.o(Region$$Table)
    Region$$Table$$Limit                     0x1a005b10   Number         0  anon$$obj.o(Region$$Table)



==============================================================================

Memory Map of the image

  Image Entry point : 0x1a000115

  Load Region LR_IROM1 (Base: 0x1a000000, Size: 0x00005b84, Max: 0x00080000, ABSOLUTE)

    Execution Region RW_IRAM1 (Base: 0x10000000, Size: 0x00002f78, Max: 0x00008000, ABSOLUTE)

    Base Addr    Size         Type   Attr      Idx    E Section Name        Object

    0x10000000   0x00000038   Data   RW            3    .data               raw-os.o
    0x10000038   0x00000010   Data   RW          608    .data               main.o
    0x10000048   0x0000000c   Data   RW          664    .data               k9f1g08.o
    0x10000054   0x00000014   Data   RW          734    .data               lib_lpc_board_keil_mcb_4357.lib(board.o)
    0x10000068   0x00000004   Data   RW         1266    .data               lib_lpc_chip_43xx.lib(chip_18xx_43xx.o)
    0x1000006c   0x00000008   Data   RW         1782    .data               lib_lpc_chip_43xx.lib(clock_18xx_43xx.o)
    0x10000074   0x00001034   Zero   RW            2    .bss                raw-os.o
    0x100010a8   0x0000176c   Zero   RW          607    .bss                main.o
    0x10002814   0x00000060   Zero   RW         2732    .bss                c_w.l(libspace.o)
    0x10002874   0x00000004   PAD
    0x10002878   0x00000100   Zero   RW          316    HEAP                keil_startup_lpc18xx43xx.o
    0x10002978   0x00000600   Zero   RW          315    STACK               keil_startup_lpc18xx43xx.o


    Execution Region ER_IROM1 (Base: 0x1a000000, Size: 0x00005b10, Max: 0x00080000, ABSOLUTE)

    Base Addr    Size         Type   Attr      Idx    E Section Name        Object

    0x1a000000   0x00000114   Data   RO          317    RESET               keil_startup_lpc18xx43xx.o
    0x1a000114   0x00000008   Code   RO         2682  * !!!main             c_w.l(__main.o)
    0x1a00011c   0x00000034   Code   RO         2858    !!!scatter          c_w.l(__scatter.o)
    0x1a000150   0x0000001a   Code   RO         2860    !!handler_copy      c_w.l(__scatter_copy.o)
    0x1a00016a   0x00000002   PAD
    0x1a00016c   0x0000001c   Code   RO         2862    !!handler_zi        c_w.l(__scatter_zi.o)
    0x1a000188   0x00000000   Code   RO         2673    .ARM.Collect$$_printf_percent$$00000000  c_w.l(_printf_percent.o)
    0x1a000188   0x00000006   Code   RO         2672    .ARM.Collect$$_printf_percent$$00000009  c_w.l(_printf_d.o)
    0x1a00018e   0x00000006   Code   RO         2671    .ARM.Collect$$_printf_percent$$0000000C  c_w.l(_printf_x.o)
    0x1a000194   0x00000004   Code   RO         2693    .ARM.Collect$$_printf_percent$$00000017  c_w.l(_printf_percent_end.o)
    0x1a000198   0x00000002   Code   RO         2730    .ARM.Collect$$libinit$$00000000  c_w.l(libinit.o)
    0x1a00019a   0x00000004   Code   RO         2742    .ARM.Collect$$libinit$$00000001  c_w.l(libinit2.o)
    0x1a00019e   0x00000000   Code   RO         2745    .ARM.Collect$$libinit$$00000004  c_w.l(libinit2.o)
    0x1a00019e   0x00000000   Code   RO         2748    .ARM.Collect$$libinit$$0000000A  c_w.l(libinit2.o)
    0x1a00019e   0x00000000   Code   RO         2750    .ARM.Collect$$libinit$$0000000C  c_w.l(libinit2.o)
    0x1a00019e   0x00000000   Code   RO         2752    .ARM.Collect$$libinit$$0000000E  c_w.l(libinit2.o)
    0x1a00019e   0x00000000   Code   RO         2755    .ARM.Collect$$libinit$$00000011  c_w.l(libinit2.o)
    0x1a00019e   0x00000000   Code   RO         2757    .ARM.Collect$$libinit$$00000013  c_w.l(libinit2.o)
    0x1a00019e   0x00000000   Code   RO         2759    .ARM.Collect$$libinit$$00000015  c_w.l(libinit2.o)
    0x1a00019e   0x00000000   Code   RO         2761    .ARM.Collect$$libinit$$00000017  c_w.l(libinit2.o)
    0x1a00019e   0x00000000   Code   RO         2763    .ARM.Collect$$libinit$$00000019  c_w.l(libinit2.o)
    0x1a00019e   0x00000000   Code   RO         2765    .ARM.Collect$$libinit$$0000001B  c_w.l(libinit2.o)
    0x1a00019e   0x00000000   Code   RO         2767    .ARM.Collect$$libinit$$0000001D  c_w.l(libinit2.o)
    0x1a00019e   0x00000000   Code   RO         2769    .ARM.Collect$$libinit$$0000001F  c_w.l(libinit2.o)
    0x1a00019e   0x00000000   Code   RO         2771    .ARM.Collect$$libinit$$00000021  c_w.l(libinit2.o)
    0x1a00019e   0x00000000   Code   RO         2773    .ARM.Collect$$libinit$$00000023  c_w.l(libinit2.o)
    0x1a00019e   0x00000000   Code   RO         2775    .ARM.Collect$$libinit$$00000025  c_w.l(libinit2.o)
    0x1a00019e   0x00000000   Code   RO         2779    .ARM.Collect$$libinit$$0000002C  c_w.l(libinit2.o)
    0x1a00019e   0x00000000   Code   RO         2781    .ARM.Collect$$libinit$$0000002E  c_w.l(libinit2.o)
    0x1a00019e   0x00000000   Code   RO         2783    .ARM.Collect$$libinit$$00000030  c_w.l(libinit2.o)
    0x1a00019e   0x00000000   Code   RO         2785    .ARM.Collect$$libinit$$00000032  c_w.l(libinit2.o)
    0x1a00019e   0x00000002   Code   RO         2786    .ARM.Collect$$libinit$$00000033  c_w.l(libinit2.o)
    0x1a0001a0   0x00000002   Code   RO         2812    .ARM.Collect$$libshutdown$$00000000  c_w.l(libshutdown.o)
    0x1a0001a2   0x00000000   Code   RO         2841    .ARM.Collect$$libshutdown$$00000002  c_w.l(libshutdown2.o)
    0x1a0001a2   0x00000000   Code   RO         2843    .ARM.Collect$$libshutdown$$00000004  c_w.l(libshutdown2.o)
    0x1a0001a2   0x00000000   Code   RO         2846    .ARM.Collect$$libshutdown$$00000007  c_w.l(libshutdown2.o)
    0x1a0001a2   0x00000000   Code   RO         2849    .ARM.Collect$$libshutdown$$0000000A  c_w.l(libshutdown2.o)
    0x1a0001a2   0x00000000   Code   RO         2851    .ARM.Collect$$libshutdown$$0000000C  c_w.l(libshutdown2.o)
    0x1a0001a2   0x00000000   Code   RO         2854    .ARM.Collect$$libshutdown$$0000000F  c_w.l(libshutdown2.o)
    0x1a0001a2   0x00000002   Code   RO         2855    .ARM.Collect$$libshutdown$$00000010  c_w.l(libshutdown2.o)
    0x1a0001a4   0x00000000   Code   RO         2684    .ARM.Collect$$rtentry$$00000000  c_w.l(__rtentry.o)
    0x1a0001a4   0x00000000   Code   RO         2697    .ARM.Collect$$rtentry$$00000002  c_w.l(__rtentry2.o)
    0x1a0001a4   0x00000006   Code   RO         2709    .ARM.Collect$$rtentry$$00000004  c_w.l(__rtentry4.o)
    0x1a0001aa   0x00000000   Code   RO         2699    .ARM.Collect$$rtentry$$00000009  c_w.l(__rtentry2.o)
    0x1a0001aa   0x00000004   Code   RO         2700    .ARM.Collect$$rtentry$$0000000A  c_w.l(__rtentry2.o)
    0x1a0001ae   0x00000000   Code   RO         2702    .ARM.Collect$$rtentry$$0000000C  c_w.l(__rtentry2.o)
    0x1a0001ae   0x00000008   Code   RO         2703    .ARM.Collect$$rtentry$$0000000D  c_w.l(__rtentry2.o)
    0x1a0001b6   0x00000002   Code   RO         2734    .ARM.Collect$$rtexit$$00000000  c_w.l(rtexit.o)
    0x1a0001b8   0x00000000   Code   RO         2788    .ARM.Collect$$rtexit$$00000002  c_w.l(rtexit2.o)
    0x1a0001b8   0x00000004   Code   RO         2789    .ARM.Collect$$rtexit$$00000003  c_w.l(rtexit2.o)
    0x1a0001bc   0x00000006   Code   RO         2790    .ARM.Collect$$rtexit$$00000004  c_w.l(rtexit2.o)
    0x1a0001c2   0x00000002   PAD
    0x1a0001c4   0x00003478   Code   RO            1    .text               raw-os.o
    0x1a00363c   0x00000226   Code   RO          168    .text               fifo.o
    0x1a003862   0x00000002   PAD
    0x1a003864   0x000000a4   Code   RO          257    .text               cpu.o
    0x1a003908   0x000001ba   Code   RO          261    .text               port.o
    0x1a003ac2   0x00000012   Code   RO          273    .text               port_hook.o
    0x1a003ad4   0x000000a0   Code   RO          291    .text               user_extension.o
    0x1a003b74   0x00000076   Code   RO          303    .text               port_error_process.o
    0x1a003bea   0x00000002   PAD
    0x1a003bec   0x00000044   Code   RO          318    .text               keil_startup_lpc18xx43xx.o
    0x1a003c30   0x0000001c   Code   RO          324    .text               sysinit.o
    0x1a003c4c   0x00000024   Code   RO          550    .text               lpc43xx_scu.o
    0x1a003c70   0x000004b0   Code   RO          583    .text               lpc43xx_sdram.o
    0x1a004120   0x00000550   Code   RO          606    .text               main.o
    0x1a004670   0x0000004c   Code   RO          640    .text               lpc43xx_gpio.o
    0x1a0046bc   0x000004e0   Code   RO          663    .text               k9f1g08.o
    0x1a004b9c   0x000000ee   Code   RO         2620    .text               c_w.l(lludivv7m.o)
    0x1a004c8a   0x00000002   PAD
    0x1a004c8c   0x00000018   Code   RO         2624    .text               c_w.l(noretval__2printf.o)
    0x1a004ca4   0x00000068   Code   RO         2626    .text               c_w.l(__printf.o)
    0x1a004d0c   0x00000078   Code   RO         2628    .text               c_w.l(_printf_dec.o)
    0x1a004d84   0x00000058   Code   RO         2633    .text               c_w.l(_printf_hex_int.o)
    0x1a004ddc   0x00000058   Code   RO         2674    .text               c_w.l(memcmp.o)
    0x1a004e34   0x00000006   Code   RO         2680    .text               c_w.l(heapauxi.o)
    0x1a004e3a   0x000000b2   Code   RO         2689    .text               c_w.l(_printf_intcommon.o)
    0x1a004eec   0x00000024   Code   RO         2691    .text               c_w.l(_printf_char_file.o)
    0x1a004f10   0x00000030   Code   RO         2713    .text               c_w.l(_printf_char_common.o)
    0x1a004f40   0x0000004a   Code   RO         2715    .text               c_w.l(sys_stackheap_outer.o)
    0x1a004f8a   0x00000012   Code   RO         2719    .text               c_w.l(exit.o)
    0x1a004f9c   0x00000008   Code   RO         2731    .text               c_w.l(libspace.o)
    0x1a004fa4   0x000000b4   Code   RO         1186    i.Board_SetupClocking  lib_lpc_board_keil_mcb_4357.lib(board_sysinit.o)
    0x1a005058   0x0000004c   Code   RO         1188    i.Board_SetupMuxing  lib_lpc_board_keil_mcb_4357.lib(board_sysinit.o)
    0x1a0050a4   0x0000000c   Code   RO         1189    i.Board_SystemInit  lib_lpc_board_keil_mcb_4357.lib(board_sysinit.o)
    0x1a0050b0   0x00000020   Code   RO          709    i.Board_UARTPutChar  lib_lpc_board_keil_mcb_4357.lib(board.o)
    0x1a0050d0   0x00000044   Code   RO          711    i.Board_UART_Init   lib_lpc_board_keil_mcb_4357.lib(board.o)
    0x1a005114   0x0000003c   Code   RO         1756    i.Chip_Clock_EnableOpts  lib_lpc_chip_43xx.lib(clock_18xx_43xx.o)
    0x1a005150   0x00000050   Code   RO         1758    i.Chip_Clock_FindBaseClock  lib_lpc_chip_43xx.lib(clock_18xx_43xx.o)
    0x1a0051a0   0x00000024   Code   RO         1759    i.Chip_Clock_GetBaseClock  lib_lpc_chip_43xx.lib(clock_18xx_43xx.o)
    0x1a0051c4   0x00000012   Code   RO         1761    i.Chip_Clock_GetBaseClocktHz  lib_lpc_chip_43xx.lib(clock_18xx_43xx.o)
    0x1a0051d6   0x00000002   PAD
    0x1a0051d8   0x000000d4   Code   RO         1762    i.Chip_Clock_GetClockInputHz  lib_lpc_chip_43xx.lib(clock_18xx_43xx.o)
    0x1a0052ac   0x00000028   Code   RO         1763    i.Chip_Clock_GetDivRate  lib_lpc_chip_43xx.lib(clock_18xx_43xx.o)
    0x1a0052d4   0x00000020   Code   RO         1764    i.Chip_Clock_GetDividerDivisor  lib_lpc_chip_43xx.lib(clock_18xx_43xx.o)
    0x1a0052f4   0x00000020   Code   RO         1765    i.Chip_Clock_GetDividerSource  lib_lpc_chip_43xx.lib(clock_18xx_43xx.o)
    0x1a005314   0x00000078   Code   RO         1767    i.Chip_Clock_GetMainPLLHz  lib_lpc_chip_43xx.lib(clock_18xx_43xx.o)
    0x1a00538c   0x00000058   Code   RO         1769    i.Chip_Clock_GetRate  lib_lpc_chip_43xx.lib(clock_18xx_43xx.o)
    0x1a0053e4   0x00000048   Code   RO         1773    i.Chip_Clock_SetBaseClock  lib_lpc_chip_43xx.lib(clock_18xx_43xx.o)
    0x1a00542c   0x00000050   Code   RO         1774    i.Chip_Clock_SetDivider  lib_lpc_chip_43xx.lib(clock_18xx_43xx.o)
    0x1a00547c   0x00000010   Code   RO          717    i.Chip_SCU_PinMuxSet  lib_lpc_board_keil_mcb_4357.lib(board.o)
    0x1a00548c   0x00000030   Code   RO         1190    i.Chip_SCU_SetPinMuxing  lib_lpc_board_keil_mcb_4357.lib(board_sysinit.o)
    0x1a0054bc   0x0000000e   Code   RO         2510    i.Chip_SetupCoreClock  lib_lpc_chip_43xx.lib(sysinit_18xx_43xx.o)
    0x1a0054ca   0x0000000a   Code   RO         1488    i.Chip_UART_DisableDivisorAccess  lib_lpc_chip_43xx.lib(uart_18xx_43xx.o)
    0x1a0054d4   0x0000000a   Code   RO         1489    i.Chip_UART_EnableDivisorAccess  lib_lpc_chip_43xx.lib(uart_18xx_43xx.o)
    0x1a0054de   0x00000002   PAD
    0x1a0054e0   0x00000030   Code   RO         1491    i.Chip_UART_GetClockIndex  lib_lpc_chip_43xx.lib(uart_18xx_43xx.o)
    0x1a005510   0x0000004c   Code   RO         1493    i.Chip_UART_Init    lib_lpc_chip_43xx.lib(uart_18xx_43xx.o)
    0x1a00555c   0x00000042   Code   RO         1505    i.Chip_UART_SetBaud  lib_lpc_chip_43xx.lib(uart_18xx_43xx.o)
    0x1a00559e   0x00000006   Code   RO         1507    i.Chip_UART_SetDivisorLatches  lib_lpc_chip_43xx.lib(uart_18xx_43xx.o)
    0x1a0055a4   0x00000014   Code   RO         1264    i.SystemCoreClockUpdate  lib_lpc_chip_43xx.lib(chip_18xx_43xx.o)
    0x1a0055b8   0x00000006   Code   RO          719    i._sys_exit         lib_lpc_board_keil_mcb_4357.lib(board.o)
    0x1a0055be   0x00000024   Code   RO         2514    i.clock_init_delay  lib_lpc_chip_43xx.lib(sysinit_18xx_43xx.o)
    0x1a0055e2   0x00000002   PAD
    0x1a0055e4   0x000000bc   Code   RO         2515    i.clock_main_init   lib_lpc_chip_43xx.lib(sysinit_18xx_43xx.o)
    0x1a0056a0   0x00000008   Code   RO          723    i.ferror            lib_lpc_board_keil_mcb_4357.lib(board.o)
    0x1a0056a8   0x00000050   Code   RO         1659    i.fpuInit           lib_lpc_chip_43xx.lib(fpu_init.o)
    0x1a0056f8   0x00000014   Code   RO          725    i.fputc             lib_lpc_board_keil_mcb_4357.lib(board.o)
    0x1a00570c   0x0000000a   Code   RO         2800    x$fpl$fpinit        fz_wm.l(fpinit.o)
    0x1a005716   0x00000002   PAD
    0x1a005718   0x00000040   Data   RO          733    .constdata          lib_lpc_board_keil_mcb_4357.lib(board.o)
    0x1a005758   0x000002bc   Data   RO         1191    .constdata          lib_lpc_board_keil_mcb_4357.lib(board_sysinit.o)
    0x1a005a14   0x0000006c   Data   RO         1781    .constdata          lib_lpc_chip_43xx.lib(clock_18xx_43xx.o)
    0x1a005a80   0x00000048   Data   RO         2516    .constdata          lib_lpc_chip_43xx.lib(sysinit_18xx_43xx.o)
    0x1a005ac8   0x00000028   Data   RO         2634    .constdata          c_w.l(_printf_hex_int.o)
    0x1a005af0   0x00000020   Data   RO         2856    Region$$Table       anon$$obj.o


==============================================================================

Image component sizes


      Code (inc. data)   RO Data    RW Data    ZI Data      Debug   Object Name

       164         16          0          0          0        384   cpu.o
       550          0          0          0          0       8940   fifo.o
      1248         30          0         12          0       7087   k9f1g08.o
        68         28        276          0       1792        936   keil_startup_lpc18xx43xx.o
        76         12          0          0          0       1371   lpc43xx_gpio.o
        36          6          0          0          0       1057   lpc43xx_scu.o
      1200         36          0          0          0       2170   lpc43xx_sdram.o
      1360        288          0         16       5996      36966   main.o
       442          0          0          0          0       1735   port.o
       118          0          0          0          0       1444   port_error_process.o
        18          0          0          0          0       1807   port_hook.o
     13432        492          0         56       4148      79892   raw-os.o
        28         10          0          0          0      13013   sysinit.o
       160          0          0          0          0       1672   user_extension.o

    ----------------------------------------------------------------------
     18904        918        308         84      11936     158474   Object Totals
         0          0         32          0          0          0   (incl. Generated)
         4          0          0          0          0          0   (incl. Padding)

    ----------------------------------------------------------------------

      Code (inc. data)   RO Data    RW Data    ZI Data      Debug   Library Member Name

         8          0          0          0          0         68   __main.o
       104          0          0          0          0         84   __printf.o
         0          0          0          0          0          0   __rtentry.o
        12          0          0          0          0          0   __rtentry2.o
         6          0          0          0          0          0   __rtentry4.o
        52          8          0          0          0          0   __scatter.o
        26          0          0          0          0          0   __scatter_copy.o
        28          0          0          0          0          0   __scatter_zi.o
        48          6          0          0          0         96   _printf_char_common.o
        36          4          0          0          0         80   _printf_char_file.o
         6          0          0          0          0          0   _printf_d.o
       120         16          0          0          0         92   _printf_dec.o
        88          4         40          0          0         88   _printf_hex_int.o
       178          0          0          0          0         88   _printf_intcommon.o
         0          0          0          0          0          0   _printf_percent.o
         4          0          0          0          0          0   _printf_percent_end.o
         6          0          0          0          0          0   _printf_x.o
        18          0          0          0          0         80   exit.o
         6          0          0          0          0        152   heapauxi.o
         2          0          0          0          0          0   libinit.o
         6          0          0          0          0          0   libinit2.o
         2          0          0          0          0          0   libshutdown.o
         2          0          0          0          0          0   libshutdown2.o
         8          4          0          0         96         68   libspace.o
       238          0          0          0          0        100   lludivv7m.o
        88          0          0          0          0         76   memcmp.o
        24          4          0          0          0         84   noretval__2printf.o
         2          0          0          0          0          0   rtexit.o
        10          0          0          0          0          0   rtexit2.o
        74          0          0          0          0         80   sys_stackheap_outer.o
        10          0          0          0          0        116   fpinit.o
       150         18         64         20          0      34818   board.o
       316         44        700          0          0      11181   board_sysinit.o
        20          6          0          4          0       4114   chip_18xx_43xx.o
       870        130        108          8          0       8770   clock_18xx_43xx.o
        80         18          0          0          0       1234   fpu_init.o
       238         20         72          0          0       2286   sysinit_18xx_43xx.o
       216         16          0          0          0       9189   uart_18xx_43xx.o

    ----------------------------------------------------------------------
      3116        298        984         32        100      72944   Library Totals
        14          0          0          0          4          0   (incl. Padding)

    ----------------------------------------------------------------------

      Code (inc. data)   RO Data    RW Data    ZI Data      Debug   Library Name

      1202         46         40          0         96       1236   c_w.l
        10          0          0          0          0        116   fz_wm.l
       466         62        764         20          0      45999   lib_lpc_board_keil_mcb_4357.lib
      1424        190        180         12          0      25593   lib_lpc_chip_43xx.lib

    ----------------------------------------------------------------------
      3116        298        984         32        100      72944   Library Totals

    ----------------------------------------------------------------------

==============================================================================


      Code (inc. data)   RO Data    RW Data    ZI Data      Debug   

     22020       1216       1292        116      12036     225998   Grand Totals
     22020       1216       1292        116      12036     225998   ELF Image Totals
     22020       1216       1292        116          0          0   ROM Totals

==============================================================================

    Total RO  Size (Code + RO Data)                23312 (  22.77kB)
    Total RW  Size (RW Data + ZI Data)             12152 (  11.87kB)
    Total ROM Size (Code + RO Data + RW Data)      23428 (  22.88kB)

==============================================================================

