Product: MDK-ARM Standard 5.10
Component: ARM Compiler 5.04 update 1 (build 49)
Tool: armlink [5040049]

==============================================================================

Section Cross References

    raw-os.o(.text) refers to cpu.o(.text) for OS_CPU_SR_Save
    raw-os.o(.text) refers to raw-os.o(.data) for .data
    raw-os.o(.text) refers to raw-os.o(.bss) for .bss
    raw-os.o(.text) refers to user_extension.o(.text) for raw_memset
    raw-os.o(.text) refers to port_hook.o(.text) for task_create_hook
    raw-os.o(.text) refers to port.o(.text) for port_stack_init
    fifo.o(.text) refers to cpu.o(.text) for OS_CPU_SR_Save
    fifo.o(.text) refers to user_extension.o(.text) for raw_memcpy
    rsh.o(.text) refers to cpu.o(.text) for OS_CPU_SR_Save
    rsh.o(.text) refers to string.o(.text) for raw_strncmp
    rsh.o(.text) refers to user_extension.o(.text) for raw_memset
    rsh.o(.text) refers to rsh.o(.data) for .data
    rsh.o(.text) refers to rsh.o(.conststring) for .conststring
    rsh.o(.constdata) refers to rsh.o(.conststring) for .conststring
    rsh.o(.constdata) refers to rsh.o(.text) for rsh_help_command
    rsh.o(.data) refers to rsh.o(.constdata) for xHelpCommand
    cpu.o(.text) refers to raw-os.o(.text) for raw_stack_check
    cpu.o(.text) refers to raw-os.o(.data) for raw_task_active
==============================================================================

Removing Unused input sections from the image.

    Removing rsh.o(.text), (472 bytes).
    Removing rsh.o(.constdata), (16 bytes).
    Removing rsh.o(.conststring), (50 bytes).
    Removing rsh.o(.conststring), (173 bytes).
    Removing rsh.o(.data), (20 bytes).
    Removing string.o(.text), (592 bytes).
    Removing sysinit.o(.rev16_text), (4 bytes).
    Removing sysinit.o(.revsh_text), (4 bytes).
    Removing lpc43xx_scu.o(.rev16_text), (4 bytes).
    Removing lpc43xx_scu.o(.revsh_text), (4 bytes).
    Removing lpc43xx_sdram.o(.rev16_text), (4 bytes).
    Removing lpc43xx_sdram.o(.revsh_text), (4 bytes).
    Removing lpc43xx_gpio.o(.rev16_text), (4 bytes).
    Removing lpc43xx_gpio.o(.revsh_text), (4 bytes).
    Removing lpc43xx_lcd.o(.rev16_text), (4 bytes).
    Removing lpc43xx_lcd.o(.revsh_text), (4 bytes).
    Removing main.o(.rev16_text), (4 bytes).
    Removing main.o(.revsh_text), (4 bytes).
==============================================================================

Image Symbol Table

    Local Symbols

    Symbol Name                              Value     Ov Type        Size  Object(Section)

    ../clib/angel/boardlib.s                 0x00000000   Number         0  boardinit2.o ABSOLUTE
    ../clib/angel/boardlib.s                 0x00000000   Number         0  boardshut.o ABSOLUTE
    ../clib/angel/boardlib.s                 0x00000000   Number         0  boardinit1.o ABSOLUTE
    ../clib/angel/boardlib.s                 0x00000000   Number         0  boardinit3.o ABSOLUTE
    ../clib/angel/handlers.s                 0x00000000   Number         0  __scatter_zi.o ABSOLUTE
    ../clib/angel/handlers.s                 0x00000000   Number         0  __scatter_copy.o ABSOLUTE
    ../clib/angel/kernel.s                   0x00000000   Number         0  rtexit2.o ABSOLUTE
    ../clib/angel/kernel.s                   0x00000000   Number         0  rtentry.o ABSOLUTE
    ../clib/angel/kernel.s                   0x00000000   Number         0  rtentry2.o ABSOLUTE
    ../clib/angel/kernel.s                   0x00000000   Number         0  rtentry4.o ABSOLUTE
    ../clib/angel/kernel.s                   0x00000000   Number         0  rtexit.o ABSOLUTE
    ../clib/angel/rt.s                       0x00000000   Number         0  aeabi_ldiv0.o ABSOLUTE
    ../clib/angel/rt.s                       0x00000000   Number         0  aeabi_ldiv0_sigfpe.o ABSOLUTE
    ../clib/angel/rt.s                       0x00000000   Number         0  rt_raise.o ABSOLUTE
    ../clib/angel/rt.s                       0x00000000   Number         0  rt_div0.o ABSOLUTE
    ../clib/angel/scatter.s                  0x00000000   Number         0  __scatter.o ABSOLUTE
    ../clib/angel/startup.s                  0x00000000   Number         0  __main.o ABSOLUTE
    ../clib/angel/sys.s                      0x00000000   Number         0  indicate_semi.o ABSOLUTE
    ../clib/angel/sys.s                      0x00000000   Number         0  use_no_semi.o ABSOLUTE
    ../clib/angel/sys.s                      0x00000000   Number         0  sys_stackheap_outer.o ABSOLUTE
    ../clib/angel/sys.s                      0x00000000   Number         0  libspace.o ABSOLUTE
    ../clib/angel/sysapp.c                   0x00000000   Number         0  sys_command.o ABSOLUTE
    ../clib/angel/sysapp.c                   0x00000000   Number         0  sys_wrch.o ABSOLUTE
    ../clib/armsys.c                         0x00000000   Number         0  _get_argv_nomalloc.o ABSOLUTE
    ../clib/armsys.c                         0x00000000   Number         0  no_argv.o ABSOLUTE
    ../clib/armsys.c                         0x00000000   Number         0  argv_veneer.o ABSOLUTE
    ../clib/armsys.c                         0x00000000   Number         0  argv_veneer.o ABSOLUTE
    ../clib/heapalloc.c                      0x00000000   Number         0  hrguard.o ABSOLUTE
    ../clib/heapaux.c                        0x00000000   Number         0  heapauxi.o ABSOLUTE
    ../clib/libinit.s                        0x00000000   Number         0  libshutdown2.o ABSOLUTE
    ../clib/libinit.s                        0x00000000   Number         0  libshutdown.o ABSOLUTE
    ../clib/libinit.s                        0x00000000   Number         0  libinit.o ABSOLUTE
    ../clib/libinit.s                        0x00000000   Number         0  libinit2.o ABSOLUTE
    ../clib/longlong.s                       0x00000000   Number         0  lludivv7m.o ABSOLUTE
    ../clib/memcpset.s                       0x00000000   Number         0  rt_memclr_w.o ABSOLUTE
    ../clib/memcpset.s                       0x00000000   Number         0  rt_memcpy_w.o ABSOLUTE
    ../clib/memcpset.s                       0x00000000   Number         0  rt_memcpy_v6.o ABSOLUTE
    ../clib/printf.c                         0x00000000   Number         0  __printf_ss.o ABSOLUTE
    ../clib/printf.c                         0x00000000   Number         0  __printf_flags_ss.o ABSOLUTE
    ../clib/printf.c                         0x00000000   Number         0  _printf_char_common.o ABSOLUTE
    ../clib/printf.c                         0x00000000   Number         0  _printf_dec.o ABSOLUTE
    ../clib/printf.c                         0x00000000   Number         0  __printf.o ABSOLUTE
    ../clib/printf.c                         0x00000000   Number         0  noretval__2printf.o ABSOLUTE
    ../clib/printf.c                         0x00000000   Number         0  __2printf.o ABSOLUTE
    ../clib/printf.c                         0x00000000   Number         0  _printf_char_file.o ABSOLUTE
    ../clib/printf.c                         0x00000000   Number         0  _printf_intcommon.o ABSOLUTE
    ../clib/printf.c                         0x00000000   Number         0  __printf_wp.o ABSOLUTE
    ../clib/printf.c                         0x00000000   Number         0  __printf_flags_ss_wp.o ABSOLUTE
    ../clib/printf.c                         0x00000000   Number         0  __printf_ss_wp.o ABSOLUTE
    ../clib/printf.c                         0x00000000   Number         0  __printf_flags_wp.o ABSOLUTE
    ../clib/printf.c                         0x00000000   Number         0  __printf_nopercent.o ABSOLUTE
    ../clib/printf.c                         0x00000000   Number         0  __printf_flags.o ABSOLUTE
    ../clib/printf_percent.s                 0x00000000   Number         0  _printf_percent_end.o ABSOLUTE
    ../clib/printf_percent.s                 0x00000000   Number         0  _printf_d.o ABSOLUTE
    ../clib/printf_percent.s                 0x00000000   Number         0  _printf_percent.o ABSOLUTE
    ../clib/signal.c                         0x00000000   Number         0  defsig_rtmem_outer.o ABSOLUTE
    ../clib/signal.c                         0x00000000   Number         0  __raise.o ABSOLUTE
    ../clib/signal.c                         0x00000000   Number         0  defsig_rtmem_inner.o ABSOLUTE
    ../clib/signal.c                         0x00000000   Number         0  defsig_rtred_inner.o ABSOLUTE
    ../clib/signal.c                         0x00000000   Number         0  defsig_abrt_inner.o ABSOLUTE
    ../clib/signal.c                         0x00000000   Number         0  defsig_stak_inner.o ABSOLUTE
    ../clib/signal.c                         0x00000000   Number         0  defsig_fpe_formal.o ABSOLUTE
    ../clib/signal.c                         0x00000000   Number         0  defsig_fpe_outer.o ABSOLUTE
    ../clib/signal.c                         0x00000000   Number         0  defsig_rtmem_formal.o ABSOLUTE
    ../clib/signal.c                         0x00000000   Number         0  defsig_cppl_inner.o ABSOLUTE
    ../clib/signal.c                         0x00000000   Number         0  defsig_segv_inner.o ABSOLUTE
    ../clib/signal.c                         0x00000000   Number         0  defsig_exit.o ABSOLUTE
    ../clib/signal.c                         0x00000000   Number         0  defsig_pvfn_inner.o ABSOLUTE
    ../clib/signal.c                         0x00000000   Number         0  defsig_fpe_inner.o ABSOLUTE
    ../clib/signal.c                         0x00000000   Number         0  defsig_general.o ABSOLUTE
    ../clib/signal.c                         0x00000000   Number         0  defsig_other.o ABSOLUTE
    ../clib/signal.s                         0x00000000   Number         0  defsig.o ABSOLUTE
    ../clib/stdlib.c                         0x00000000   Number         0  exit.o ABSOLUTE
    ../fplib/fpinit.s                        0x00000000   Number         0  fpinit.o ABSOLUTE
    ..\..\..\..\software\common\SCT_RGB_Color.c 0x00000000   Number         0  sct_rgb_color.o ABSOLUTE
    ..\..\..\..\software\common\SCT_RGB_Gray.c 0x00000000   Number         0  sct_rgb_gray.o ABSOLUTE
    ..\..\..\..\software\common\YACB21Common.c 0x00000000   Number         0  yacb21common.o ABSOLUTE
    ..\..\..\..\software\common\lpc43xx_gpio.c 0x00000000   Number         0  lpc43xx_gpio.o ABSOLUTE
    ..\..\..\..\software\common\lpc43xx_i2c0.c 0x00000000   Number         0  lpc43xx_i2c0.o ABSOLUTE
    ..\..\..\..\software\common\lpc43xx_lcd.c 0x00000000   Number         0  lpc43xx_lcd.o ABSOLUTE
    ..\..\..\..\software\common\lpc43xx_scu.c 0x00000000   Number         0  lpc43xx_scu.o ABSOLUTE
    ..\..\..\..\software\common\lpc43xx_sdram.c 0x00000000   Number         0  lpc43xx_sdram.o ABSOLUTE
    ..\..\..\..\software\kernel\port\cpu.asm 0x00000000   Number         0  cpu.o ABSOLUTE
    ..\..\..\..\software\kernel\port\port.c  0x00000000   Number         0  port.o ABSOLUTE
    ..\..\..\..\software\kernel\port\port_hook.c 0x00000000   Number         0  port_hook.o ABSOLUTE
    ..\..\..\..\software\kernel\port\raw_trace_port.c 0x00000000   Number         0  raw_trace_port.o ABSOLUTE
    ..\..\..\..\software\kernel\port\user_extension.c 0x00000000   Number         0  user_extension.o ABSOLUTE
    ..\..\..\..\software\kernel\raw-os\extension\lib\fifo.c 0x00000000   Number         0  fifo.o ABSOLUTE
    ..\..\..\..\software\kernel\raw-os\extension\lib\string.c 0x00000000   Number         0  string.o ABSOLUTE
    ..\..\..\..\software\kernel\raw-os\extension\shell\rsh.c 0x00000000   Number         0  rsh.o ABSOLUTE
    ..\..\..\..\software\kernel\raw-os\raw-os.c 0x00000000   Number         0  raw-os.o ABSOLUTE
    ..\..\board_common\uda1380.c             0x00000000   Number         0  uda1380.o ABSOLUTE
    ..\..\examples\camera\main.c             0x00000000   Number         0  main.o ABSOLUTE
    ..\..\startup_code\keil_startup_lpc18xx43xx.s 0x00000000   Number         0  keil_startup_lpc18xx43xx.o ABSOLUTE
    ..\..\startup_code\sysinit.c             0x00000000   Number         0  sysinit.o ABSOLUTE
    ..\\..\\..\\..\\software\\common\\SCT_RGB_Color.c 0x00000000   Number         0  sct_rgb_color.o ABSOLUTE
    ..\\..\\..\\..\\software\\common\\SCT_RGB_Gray.c 0x00000000   Number         0  sct_rgb_gray.o ABSOLUTE
    ..\\..\\..\\..\\software\\common\\YACB21Common.c 0x00000000   Number         0  yacb21common.o ABSOLUTE
    ..\\..\\..\\..\\software\\common\\lpc43xx_gpio.c 0x00000000   Number         0  lpc43xx_gpio.o ABSOLUTE
    ..\\..\\..\\..\\software\\common\\lpc43xx_i2c0.c 0x00000000   Number         0  lpc43xx_i2c0.o ABSOLUTE
    ..\\..\\..\\..\\software\\common\\lpc43xx_lcd.c 0x00000000   Number         0  lpc43xx_lcd.o ABSOLUTE
    ..\\..\\..\\..\\software\\common\\lpc43xx_scu.c 0x00000000   Number         0  lpc43xx_scu.o ABSOLUTE
    ..\\..\\..\\..\\software\\common\\lpc43xx_sdram.c 0x00000000   Number         0  lpc43xx_sdram.o ABSOLUTE
    ..\\..\\board_common\\uda1380.c          0x00000000   Number         0  uda1380.o ABSOLUTE
    ..\\..\\examples\\camera\\main.c         0x00000000   Number         0  main.o ABSOLUTE
    ..\\..\\startup_code\\sysinit.c          0x00000000   Number         0  sysinit.o ABSOLUTE
    ..\\chip_common\\fpu_init.c              0x00000000   Number         0  fpu_init.o ABSOLUTE
    ..\chip_common\fpu_init.c                0x00000000   Number         0  fpu_init.o ABSOLUTE
    ..\chip_common\ring_buffer.c             0x00000000   Number         0  ring_buffer.o ABSOLUTE
    board.c                                  0x00000000   Number         0  board.o ABSOLUTE
    board.c                                  0x00000000   Number         0  board.o ABSOLUTE
    board_sysinit.c                          0x00000000   Number         0  board_sysinit.o ABSOLUTE
    board_sysinit.c                          0x00000000   Number         0  board_sysinit.o ABSOLUTE
    chip_18xx_43xx.c                         0x00000000   Number         0  chip_18xx_43xx.o ABSOLUTE
    chip_18xx_43xx.c                         0x00000000   Number         0  chip_18xx_43xx.o ABSOLUTE
    clock_18xx_43xx.c                        0x00000000   Number         0  clock_18xx_43xx.o ABSOLUTE
    clock_18xx_43xx.c                        0x00000000   Number         0  clock_18xx_43xx.o ABSOLUTE
    dc.s                                     0x00000000   Number         0  dc.o ABSOLUTE
    emc_18xx_43xx.c                          0x00000000   Number         0  emc_18xx_43xx.o ABSOLUTE
    emc_18xx_43xx.c                          0x00000000   Number         0  emc_18xx_43xx.o ABSOLUTE
    gpio_18xx_43xx.c                         0x00000000   Number         0  gpio_18xx_43xx.o ABSOLUTE
    gpio_18xx_43xx.c                         0x00000000   Number         0  gpio_18xx_43xx.o ABSOLUTE
    i2c_18xx_43xx.c                          0x00000000   Number         0  i2c_18xx_43xx.o ABSOLUTE
    i2c_18xx_43xx.c                          0x00000000   Number         0  i2c_18xx_43xx.o ABSOLUTE
    i2s_18xx_43xx.c                          0x00000000   Number         0  i2s_18xx_43xx.o ABSOLUTE
    i2s_18xx_43xx.c                          0x00000000   Number         0  i2s_18xx_43xx.o ABSOLUTE
    rgu_18xx_43xx.c                          0x00000000   Number         0  rgu_18xx_43xx.o ABSOLUTE
    rgu_18xx_43xx.c                          0x00000000   Number         0  rgu_18xx_43xx.o ABSOLUTE
    ssp_18xx_43xx.c                          0x00000000   Number         0  ssp_18xx_43xx.o ABSOLUTE
    ssp_18xx_43xx.c                          0x00000000   Number         0  ssp_18xx_43xx.o ABSOLUTE
    sysinit_18xx_43xx.c                      0x00000000   Number         0  sysinit_18xx_43xx.o ABSOLUTE
    sysinit_18xx_43xx.c                      0x00000000   Number         0  sysinit_18xx_43xx.o ABSOLUTE
    uart_18xx_43xx.c                         0x00000000   Number         0  uart_18xx_43xx.o ABSOLUTE
    uart_18xx_43xx.c                         0x00000000   Number         0  uart_18xx_43xx.o ABSOLUTE
    .data                                    0x10000000   Section       88  raw-os.o(.data)
    .data                                    0x10000058   Section       12  lpc43xx_lcd.o(.data)
    g_lcdHSize                               0x10000058   Data           4  lpc43xx_lcd.o(.data)
    g_lcdVSize                               0x1000005c   Data           4  lpc43xx_lcd.o(.data)
    lcd_frame_buffer                         0x10000060   Data           4  lpc43xx_lcd.o(.data)
    .data                                    0x10000064   Section       12  main.o(.data)
    .data                                    0x10000070   Section        4  main.o(.data)
    .data                                    0x10000074   Section       20  lpc43xx_i2c0.o(.data)
    .data                                    0x10000088   Section       20  board.o(.data)
    .data                                    0x1000009c   Section        4  chip_18xx_43xx.o(.data)
    .data                                    0x100000a0   Section        8  clock_18xx_43xx.o(.data)
    audio_usb_pll_freq                       0x100000a0   Data           8  clock_18xx_43xx.o(.data)
    .bss                                     0x100000a8   Section     4840  raw-os.o(.bss)
    .bss                                     0x10001390   Section     1868  main.o(.bss)
    fifo_buffer                              0x10001a5c   Data         128  main.o(.bss)
    .bss                                     0x10001adc   Section       40  lpc43xx_i2c0.o(.bss)
    .bss                                     0x10001b04   Section       96  libspace.o(.bss)
    HEAP                                     0x10001b68   Section      256  keil_startup_lpc18xx43xx.o(HEAP)
    Heap_Mem                                 0x10001b68   Data         256  keil_startup_lpc18xx43xx.o(HEAP)
    SECT_IRAM1                               0x10001c68   Section     1292  sct_rgb_color.o(SECT_IRAM1)
    STACK                                    0x10002178   Section     1536  keil_startup_lpc18xx43xx.o(STACK)
    Stack_Mem                                0x10002178   Data        1536  keil_startup_lpc18xx43xx.o(STACK)
    __initial_sp                             0x10002778   Data           0  keil_startup_lpc18xx43xx.o(STACK)
    RESET                                    0x1a000000   Section      276  keil_startup_lpc18xx43xx.o(RESET)
    !!!main                                  0x1a000114   Section        8  __main.o(!!!main)
    !!!scatter                               0x1a00011c   Section       52  __scatter.o(!!!scatter)
    !!handler_copy                           0x1a000150   Section       26  __scatter_copy.o(!!handler_copy)
    !!handler_zi                             0x1a00016c   Section       28  __scatter_zi.o(!!handler_zi)
    .ARM.Collect$$_printf_percent$$00000000  0x1a000188   Section        0  _printf_percent.o(.ARM.Collect$$_printf_percent$$00000000)
    .ARM.Collect$$_printf_percent$$00000009  0x1a000188   Section        6  _printf_d.o(.ARM.Collect$$_printf_percent$$00000009)
    .ARM.Collect$$_printf_percent$$00000017  0x1a00018e   Section        4  _printf_percent_end.o(.ARM.Collect$$_printf_percent$$00000017)
    .ARM.Collect$$libinit$$00000000          0x1a000192   Section        2  libinit.o(.ARM.Collect$$libinit$$00000000)
    .ARM.Collect$$libinit$$00000001          0x1a000194   Section        4  libinit2.o(.ARM.Collect$$libinit$$00000001)
    .ARM.Collect$$libinit$$00000008          0x1a000198   Section        0  libinit2.o(.ARM.Collect$$libinit$$00000008)
    .ARM.Collect$$libinit$$0000000A          0x1a000198   Section        0  libinit2.o(.ARM.Collect$$libinit$$0000000A)
    .ARM.Collect$$libinit$$0000000C          0x1a000198   Section        0  libinit2.o(.ARM.Collect$$libinit$$0000000C)
    .ARM.Collect$$libinit$$0000000F          0x1a000198   Section        0  libinit2.o(.ARM.Collect$$libinit$$0000000F)
    .ARM.Collect$$libinit$$00000011          0x1a000198   Section        0  libinit2.o(.ARM.Collect$$libinit$$00000011)
    .ARM.Collect$$libinit$$00000013          0x1a000198   Section        0  libinit2.o(.ARM.Collect$$libinit$$00000013)
    .ARM.Collect$$libinit$$00000015          0x1a000198   Section        0  libinit2.o(.ARM.Collect$$libinit$$00000015)
    .ARM.Collect$$libinit$$00000017          0x1a000198   Section        0  libinit2.o(.ARM.Collect$$libinit$$00000017)
    .ARM.Collect$$libinit$$00000019          0x1a000198   Section        0  libinit2.o(.ARM.Collect$$libinit$$00000019)
    .ARM.Collect$$libinit$$0000001B          0x1a000198   Section        0  libinit2.o(.ARM.Collect$$libinit$$0000001B)
    .ARM.Collect$$libinit$$0000001D          0x1a000198   Section        0  libinit2.o(.ARM.Collect$$libinit$$0000001D)
    .ARM.Collect$$libinit$$0000001F          0x1a000198   Section        0  libinit2.o(.ARM.Collect$$libinit$$0000001F)
    .ARM.Collect$$libinit$$00000021          0x1a000198   Section        0  libinit2.o(.ARM.Collect$$libinit$$00000021)
    .ARM.Collect$$libinit$$00000023          0x1a000198   Section        0  libinit2.o(.ARM.Collect$$libinit$$00000023)
    .ARM.Collect$$libinit$$0000002A          0x1a000198   Section        0  libinit2.o(.ARM.Collect$$libinit$$0000002A)
    .ARM.Collect$$libinit$$0000002C          0x1a000198   Section        0  libinit2.o(.ARM.Collect$$libinit$$0000002C)
    .ARM.Collect$$libinit$$0000002E          0x1a000198   Section        0  libinit2.o(.ARM.Collect$$libinit$$0000002E)
    .ARM.Collect$$libinit$$00000030          0x1a000198   Section        0  libinit2.o(.ARM.Collect$$libinit$$00000030)
    .ARM.Collect$$libinit$$00000031          0x1a000198   Section        2  libinit2.o(.ARM.Collect$$libinit$$00000031)
    .ARM.Collect$$libshutdown$$00000000      0x1a00019a   Section        2  libshutdown.o(.ARM.Collect$$libshutdown$$00000000)
    .ARM.Collect$$libshutdown$$00000003      0x1a00019c   Section        0  libshutdown2.o(.ARM.Collect$$libshutdown$$00000003)
    .ARM.Collect$$libshutdown$$00000006      0x1a00019c   Section        0  libshutdown2.o(.ARM.Collect$$libshutdown$$00000006)
    .ARM.Collect$$libshutdown$$00000009      0x1a00019c   Section        0  libshutdown2.o(.ARM.Collect$$libshutdown$$00000009)
    .ARM.Collect$$libshutdown$$0000000B      0x1a00019c   Section        0  libshutdown2.o(.ARM.Collect$$libshutdown$$0000000B)
    .ARM.Collect$$libshutdown$$0000000E      0x1a00019c   Section        0  libshutdown2.o(.ARM.Collect$$libshutdown$$0000000E)
    .ARM.Collect$$libshutdown$$0000000F      0x1a00019c   Section        2  libshutdown2.o(.ARM.Collect$$libshutdown$$0000000F)
    .ARM.Collect$$rtentry$$00000000          0x1a00019e   Section        0  rtentry.o(.ARM.Collect$$rtentry$$00000000)
    .ARM.Collect$$rtentry$$00000002          0x1a00019e   Section        0  rtentry2.o(.ARM.Collect$$rtentry$$00000002)
    .ARM.Collect$$rtentry$$00000004          0x1a00019e   Section        6  rtentry4.o(.ARM.Collect$$rtentry$$00000004)
    .ARM.Collect$$rtentry$$00000009          0x1a0001a4   Section        0  rtentry2.o(.ARM.Collect$$rtentry$$00000009)
    .ARM.Collect$$rtentry$$0000000A          0x1a0001a4   Section        4  rtentry2.o(.ARM.Collect$$rtentry$$0000000A)
    .ARM.Collect$$rtentry$$0000000C          0x1a0001a8   Section        0  rtentry2.o(.ARM.Collect$$rtentry$$0000000C)
    .ARM.Collect$$rtentry$$0000000D          0x1a0001a8   Section        8  rtentry2.o(.ARM.Collect$$rtentry$$0000000D)
    .ARM.Collect$$rtexit$$00000000           0x1a0001b0   Section        2  rtexit.o(.ARM.Collect$$rtexit$$00000000)
    .ARM.Collect$$rtexit$$00000002           0x1a0001b2   Section        0  rtexit2.o(.ARM.Collect$$rtexit$$00000002)
    .ARM.Collect$$rtexit$$00000003           0x1a0001b2   Section        4  rtexit2.o(.ARM.Collect$$rtexit$$00000003)
    .ARM.Collect$$rtexit$$00000004           0x1a0001b6   Section        6  rtexit2.o(.ARM.Collect$$rtexit$$00000004)
    .text                                    0x1a0001bc   Section        0  raw-os.o(.text)
    release_mutex                            0x1a0004bd   Thumb Code    88  raw-os.o(.text)
    tick_task_process                        0x1a0007f5   Thumb Code    28  raw-os.o(.text)
    pend_task_wake_up                        0x1a0009f9   Thumb Code    92  raw-os.o(.text)
    int_msg_handler                          0x1a000e2b   Thumb Code   138  raw-os.o(.text)
    task_0_post                              0x1a000eb5   Thumb Code   120  raw-os.o(.text)
    task_0_tick_handler                      0x1a001053   Thumb Code    28  raw-os.o(.text)
    task_0_process                           0x1a00106f   Thumb Code   124  raw-os.o(.text)
    internal_raw_mq_send                     0x1a001f61   Thumb Code   214  raw-os.o(.text)
    is_list_empty                            0x1a002ba7   Thumb Code    14  raw-os.o(.text)
    list_insert                              0x1a002bb5   Thumb Code    14  raw-os.o(.text)
    list_delete                              0x1a002bc3   Thumb Code    12  raw-os.o(.text)
    add_to_priority_list                     0x1a002bcf   Thumb Code    28  raw-os.o(.text)
    bit_set                                  0x1a002beb   Thumb Code    20  raw-os.o(.text)
    timer_list_remove                        0x1a002bff   Thumb Code    22  raw-os.o(.text)
    timer_list_priority_insert               0x1a002c15   Thumb Code    32  raw-os.o(.text)
    raw_byte_pool_search                     0x1a002c35   Thumb Code   190  raw-os.o(.text)
    .text                                    0x1a002d04   Section        0  fifo.o(.text)
    internal_fifo_out_peek                   0x1a002da3   Thumb Code    62  fifo.o(.text)
    .text                                    0x1a002e78   Section      164  cpu.o(.text)
    $v0                                      0x1a002e78   Number         0  cpu.o(.text)
    .text                                    0x1a002f1c   Section        0  port.o(.text)
    .text                                    0x1a003060   Section        0  port_hook.o(.text)
    .text                                    0x1a003070   Section        0  user_extension.o(.text)
    .text                                    0x1a0030f8   Section       68  keil_startup_lpc18xx43xx.o(.text)
    $v0                                      0x1a0030f8   Number         0  keil_startup_lpc18xx43xx.o(.text)
    .text                                    0x1a00313c   Section        0  sysinit.o(.text)
    .text                                    0x1a003158   Section        0  lpc43xx_scu.o(.text)
    .text                                    0x1a00316c   Section        0  lpc43xx_sdram.o(.text)
    .text                                    0x1a003594   Section        0  lpc43xx_gpio.o(.text)
    .text                                    0x1a0035d4   Section        0  lpc43xx_lcd.o(.text)
    .text                                    0x1a003904   Section        0  main.o(.text)
    NVIC_EnableIRQ                           0x1a003b1f   Thumb Code    22  main.o(.text)
    NVIC_SetPriority                         0x1a003b35   Thumb Code    32  main.o(.text)
    .text                                    0x1a003b84   Section        0  yacb21common.o(.text)
    .text                                    0x1a0040ac   Section        0  sct_rgb_color.o(.text)
    .text                                    0x1a004188   Section        0  lpc43xx_i2c0.o(.text)
    .text                                    0x1a0043a8   Section        0  noretval__2printf.o(.text)
    .text                                    0x1a0043c0   Section        0  __printf.o(.text)
    .text                                    0x1a004428   Section        0  _printf_dec.o(.text)
    .text                                    0x1a00449c   Section       78  rt_memclr_w.o(.text)
    .text                                    0x1a0044ea   Section        0  heapauxi.o(.text)
    .text                                    0x1a0044f0   Section        0  _printf_intcommon.o(.text)
    .text                                    0x1a0045a4   Section        0  _printf_char_file.o(.text)
    .text                                    0x1a0045c8   Section        0  _printf_char_common.o(.text)
    _printf_input_char                       0x1a0045c9   Thumb Code    10  _printf_char_common.o(.text)
    .text                                    0x1a0045f8   Section       74  sys_stackheap_outer.o(.text)
    .text                                    0x1a004642   Section        0  exit.o(.text)
    .text                                    0x1a004650   Section        8  libspace.o(.text)
    SECT_RAMCODE                             0x1a004658   Section        0  yacb21common.o(SECT_RAMCODE)
    i.Board_SetupClocking                    0x1a0046a0   Section        0  board_sysinit.o(i.Board_SetupClocking)
    i.Board_SetupExtMemory                   0x1a004754   Section        0  board_sysinit.o(i.Board_SetupExtMemory)
    i.Board_SetupMuxing                      0x1a0047c0   Section        0  board_sysinit.o(i.Board_SetupMuxing)
    i.Board_SystemInit                       0x1a00480c   Section        0  board_sysinit.o(i.Board_SystemInit)
    i.Board_UARTPutChar                      0x1a00481c   Section        0  board.o(i.Board_UARTPutChar)
    i.Board_UART_Init                        0x1a00483c   Section        0  board.o(i.Board_UART_Init)
    i.Chip_Clock_DisableMainPLL              0x1a004880   Section        0  clock_18xx_43xx.o(i.Chip_Clock_DisableMainPLL)
    i.Chip_Clock_Enable                      0x1a004894   Section        0  clock_18xx_43xx.o(i.Chip_Clock_Enable)
    i.Chip_Clock_EnableCrystal               0x1a0048cc   Section        0  clock_18xx_43xx.o(i.Chip_Clock_EnableCrystal)
    i.Chip_Clock_EnableOpts                  0x1a004918   Section        0  clock_18xx_43xx.o(i.Chip_Clock_EnableOpts)
    i.Chip_Clock_FindBaseClock               0x1a004954   Section        0  clock_18xx_43xx.o(i.Chip_Clock_FindBaseClock)
    Chip_Clock_FindBaseClock                 0x1a004955   Thumb Code    74  clock_18xx_43xx.o(i.Chip_Clock_FindBaseClock)
    i.Chip_Clock_GetBaseClock                0x1a0049a4   Section        0  clock_18xx_43xx.o(i.Chip_Clock_GetBaseClock)
    i.Chip_Clock_GetBaseClocktHz             0x1a0049c8   Section        0  clock_18xx_43xx.o(i.Chip_Clock_GetBaseClocktHz)
    i.Chip_Clock_GetClockInputHz             0x1a0049dc   Section        0  clock_18xx_43xx.o(i.Chip_Clock_GetClockInputHz)
    i.Chip_Clock_GetDivRate                  0x1a004ab0   Section        0  clock_18xx_43xx.o(i.Chip_Clock_GetDivRate)
    Chip_Clock_GetDivRate                    0x1a004ab1   Thumb Code    40  clock_18xx_43xx.o(i.Chip_Clock_GetDivRate)
    i.Chip_Clock_GetDividerDivisor           0x1a004ad8   Section        0  clock_18xx_43xx.o(i.Chip_Clock_GetDividerDivisor)
    i.Chip_Clock_GetDividerSource            0x1a004af8   Section        0  clock_18xx_43xx.o(i.Chip_Clock_GetDividerSource)
    i.Chip_Clock_GetEMCRate                  0x1a004b18   Section        0  clock_18xx_43xx.o(i.Chip_Clock_GetEMCRate)
    i.Chip_Clock_GetMainPLLHz                0x1a004b48   Section        0  clock_18xx_43xx.o(i.Chip_Clock_GetMainPLLHz)
    i.Chip_Clock_GetRate                     0x1a004bc0   Section        0  clock_18xx_43xx.o(i.Chip_Clock_GetRate)
    i.Chip_Clock_SetBaseClock                0x1a004c18   Section        0  clock_18xx_43xx.o(i.Chip_Clock_SetBaseClock)
    i.Chip_Clock_SetDivider                  0x1a004c60   Section        0  clock_18xx_43xx.o(i.Chip_Clock_SetDivider)
    i.Chip_Clock_SetupMainPLLHz              0x1a004cb0   Section        0  clock_18xx_43xx.o(i.Chip_Clock_SetupMainPLLHz)
    i.Chip_Clock_SetupMainPLLMult            0x1a004d70   Section        0  clock_18xx_43xx.o(i.Chip_Clock_SetupMainPLLMult)
    i.Chip_Clock_TestMainPLLMultiplier       0x1a004e20   Section        0  clock_18xx_43xx.o(i.Chip_Clock_TestMainPLLMultiplier)
    Chip_Clock_TestMainPLLMultiplier         0x1a004e21   Thumb Code    26  clock_18xx_43xx.o(i.Chip_Clock_TestMainPLLMultiplier)
    i.Chip_EMC_Dynamic_Init                  0x1a004e40   Section        0  emc_18xx_43xx.o(i.Chip_EMC_Dynamic_Init)
    i.Chip_EMC_Init                          0x1a004e5c   Section        0  emc_18xx_43xx.o(i.Chip_EMC_Init)
    i.Chip_EMC_Static_Init                   0x1a004e88   Section        0  emc_18xx_43xx.o(i.Chip_EMC_Static_Init)
    i.Chip_SCU_PinMuxSet                     0x1a004ea4   Section        0  board.o(i.Chip_SCU_PinMuxSet)
    Chip_SCU_PinMuxSet                       0x1a004ea5   Thumb Code    12  board.o(i.Chip_SCU_PinMuxSet)
    i.Chip_SCU_SetPinMuxing                  0x1a004eb4   Section        0  board_sysinit.o(i.Chip_SCU_SetPinMuxing)
    Chip_SCU_SetPinMuxing                    0x1a004eb5   Thumb Code    44  board_sysinit.o(i.Chip_SCU_SetPinMuxing)
    i.Chip_SetupCoreClock                    0x1a004ee4   Section        0  sysinit_18xx_43xx.o(i.Chip_SetupCoreClock)
    i.Chip_UART_DisableDivisorAccess         0x1a004f80   Section        0  uart_18xx_43xx.o(i.Chip_UART_DisableDivisorAccess)
    Chip_UART_DisableDivisorAccess           0x1a004f81   Thumb Code    10  uart_18xx_43xx.o(i.Chip_UART_DisableDivisorAccess)
    i.Chip_UART_EnableDivisorAccess          0x1a004f8a   Section        0  uart_18xx_43xx.o(i.Chip_UART_EnableDivisorAccess)
    Chip_UART_EnableDivisorAccess            0x1a004f8b   Thumb Code    10  uart_18xx_43xx.o(i.Chip_UART_EnableDivisorAccess)
    i.Chip_UART_GetClockIndex                0x1a004f94   Section        0  uart_18xx_43xx.o(i.Chip_UART_GetClockIndex)
    Chip_UART_GetClockIndex                  0x1a004f95   Thumb Code    36  uart_18xx_43xx.o(i.Chip_UART_GetClockIndex)
    i.Chip_UART_Init                         0x1a004fc4   Section        0  uart_18xx_43xx.o(i.Chip_UART_Init)
    i.Chip_UART_SetBaud                      0x1a005010   Section        0  uart_18xx_43xx.o(i.Chip_UART_SetBaud)
    i.Chip_UART_SetDivisorLatches            0x1a005052   Section        0  uart_18xx_43xx.o(i.Chip_UART_SetDivisorLatches)
    Chip_UART_SetDivisorLatches              0x1a005053   Thumb Code     6  uart_18xx_43xx.o(i.Chip_UART_SetDivisorLatches)
    i.SystemCoreClockUpdate                  0x1a005058   Section        0  chip_18xx_43xx.o(i.SystemCoreClockUpdate)
    i._sys_exit                              0x1a00506c   Section        0  board.o(i._sys_exit)
    i.convertTimmingParam                    0x1a005074   Section        0  emc_18xx_43xx.o(i.convertTimmingParam)
    convertTimmingParam                      0x1a005075   Thumb Code    50  emc_18xx_43xx.o(i.convertTimmingParam)
    i.ferror                                 0x1a0050ac   Section        0  board.o(i.ferror)
    i.fpuInit                                0x1a0050b4   Section        0  fpu_init.o(i.fpuInit)
    i.fputc                                  0x1a005104   Section        0  board.o(i.fputc)
    i.getColsLen                             0x1a005118   Section        0  emc_18xx_43xx.o(i.getColsLen)
    getColsLen                               0x1a005119   Thumb Code    40  emc_18xx_43xx.o(i.getColsLen)
    i.initDynMem                             0x1a005140   Section        0  emc_18xx_43xx.o(i.initDynMem)
    i.initStaticMem                          0x1a005328   Section        0  emc_18xx_43xx.o(i.initStaticMem)
    x$fpl$fpinit                             0x1a005390   Section       10  fpinit.o(x$fpl$fpinit)
    $v0                                      0x1a005390   Number         0  fpinit.o(x$fpl$fpinit)
    .constdata                               0x1a00539c   Section       64  board.o(.constdata)
    ledports                                 0x1a00539c   Data           8  board.o(.constdata)
    ledbits                                  0x1a0053a4   Data           8  board.o(.constdata)
    .constdata                               0x1a0053dc   Section      700  board_sysinit.o(.constdata)
    InitClkStates                            0x1a0053dc   Data          16  board_sysinit.o(.constdata)
    spifipinmuxing                           0x1a0053ec   Data          24  board_sysinit.o(.constdata)
    pinmuxing                                0x1a005404   Data         496  board_sysinit.o(.constdata)
    pinclockmuxing                           0x1a0055f4   Data          16  board_sysinit.o(.constdata)
    MT48LC4M32_config                        0x1a005604   Data         116  board_sysinit.o(.constdata)
    S29GL64N90_config                        0x1a005678   Data          32  board_sysinit.o(.constdata)
    .constdata                               0x1a005698   Section      108  clock_18xx_43xx.o(.constdata)
    periph_to_base                           0x1a005698   Data         108  clock_18xx_43xx.o(.constdata)
    .constdata                               0x1a005704   Section       72  sysinit_18xx_43xx.o(.constdata)
    InitClkStates                            0x1a005704   Data          72  sysinit_18xx_43xx.o(.constdata)

    Global Symbols

    Symbol Name                              Value     Ov Type        Size  Object(Section)

    BuildAttributes$$THM_ISAv4$E$P$D$K$B$S$7EM$VFPi3$EXTD16$VFPS$VFMA$PE$A:L22UL41UL21$X:L11$S22US41US21$IEEE1$IW$USESV6$~STKCKD$USESV7$~SHL$OSPACE$ROPI$EBA8$UX$STANDARDLIB$REQ8$PRES8$EABIv2 0x00000000   Number         0  anon$$obj.o ABSOLUTE
    __ARM_use_no_argv                        0x00000000   Number         0  main.o ABSOLUTE
    __ARM_exceptions_init                     - Undefined Weak Reference
    __alloca_initialize                       - Undefined Weak Reference
    __cpp_initialize__aeabi_                  - Undefined Weak Reference
    __cxa_finalize                            - Undefined Weak Reference
    __rt_locale                               - Undefined Weak Reference
    __sigvec_lookup                           - Undefined Weak Reference
    _atexit_init                              - Undefined Weak Reference
    _call_atexit_fns                          - Undefined Weak Reference
    _clock_init                               - Undefined Weak Reference
    _fp_trap_init                             - Undefined Weak Reference
    _fp_trap_shutdown                         - Undefined Weak Reference
    _get_lc_collate                           - Undefined Weak Reference
    _get_lc_ctype                             - Undefined Weak Reference
    _get_lc_monetary                          - Undefined Weak Reference
    _get_lc_numeric                           - Undefined Weak Reference
    _get_lc_time                              - Undefined Weak Reference
    _getenv_init                              - Undefined Weak Reference
    _handle_redirection                       - Undefined Weak Reference
    _init_alloc                               - Undefined Weak Reference
    _init_user_alloc                          - Undefined Weak Reference
    _initio                                   - Undefined Weak Reference
    _printf_post_padding                      - Undefined Weak Reference
    _printf_pre_padding                       - Undefined Weak Reference
    _printf_truncate_signed                   - Undefined Weak Reference
    _printf_truncate_unsigned                 - Undefined Weak Reference
    _rand_init                                - Undefined Weak Reference
    _signal_finish                            - Undefined Weak Reference
    _signal_init                              - Undefined Weak Reference
    _terminate_alloc                          - Undefined Weak Reference
    _terminate_user_alloc                     - Undefined Weak Reference
    _terminateio                              - Undefined Weak Reference
    raw_os_active                            0x10000000   Data           1  raw-os.o(.data)
    idle_task_exit                           0x10000001   Data           1  raw-os.o(.data)
    raw_sched_lock                           0x10000002   Data           1  raw-os.o(.data)
    raw_int_nesting                          0x10000003   Data           1  raw-os.o(.data)
    mutex_recursion_levels                   0x10000004   Data           1  raw-os.o(.data)
    mutex_recursion_max_levels               0x10000005   Data           1  raw-os.o(.data)
    task_0_exit                              0x10000006   Data           1  raw-os.o(.data)
    task_0_event_head                        0x10000008   Data           2  raw-os.o(.data)
    task_0_event_end                         0x1000000a   Data           2  raw-os.o(.data)
    task_0_events                            0x1000000c   Data           2  raw-os.o(.data)
    peak_events                              0x1000000e   Data           2  raw-os.o(.data)
    high_ready_obj                           0x10000010   Data           4  raw-os.o(.data)
    raw_task_active                          0x10000014   Data           4  raw-os.o(.data)
    raw_tick_count                           0x10000018   Data           4  raw-os.o(.data)
    raw_timer_count                          0x1000001c   Data           4  raw-os.o(.data)
    raw_timer_ctrl                           0x10000020   Data           4  raw-os.o(.data)
    task_0_event_handler                     0x10000024   Data           4  raw-os.o(.data)
    free_object_int_msg                      0x10000028   Data           4  raw-os.o(.data)
    int_msg_full                             0x1000002c   Data           4  raw-os.o(.data)
    msg_event_handler                        0x10000030   Data           4  raw-os.o(.data)
    raw_idle_count                           0x10000038   Data           8  raw-os.o(.data)
    tick_head                                0x10000040   Data           8  raw-os.o(.data)
    timer_head                               0x10000048   Data           8  raw-os.o(.data)
    raw_task_debug                           0x10000050   Data           8  raw-os.o(.data)
    g_cameraFrameIndex                       0x10000064   Data           1  main.o(.data)
    g_lcdFrameBufffer0                       0x10000068   Data           4  main.o(.data)
    g_lcdFrameBufffer1                       0x1000006c   Data           4  main.o(.data)
    g_250usTick                              0x10000070   Data           4  main.o(.data)
    I2CMasterState                           0x10000074   Data           4  lpc43xx_i2c0.o(.data)
    RdIndex                                  0x10000078   Data           4  lpc43xx_i2c0.o(.data)
    WrIndex                                  0x1000007c   Data           4  lpc43xx_i2c0.o(.data)
    I2CReadLength                            0x10000080   Data           4  lpc43xx_i2c0.o(.data)
    I2CWriteLength                           0x10000084   Data           4  lpc43xx_i2c0.o(.data)
    __stdout                                 0x10000088   Data           4  board.o(.data)
    __stdin                                  0x1000008c   Data           4  board.o(.data)
    __stderr                                 0x10000090   Data           4  board.o(.data)
    g_isPenDn                                0x10000094   Data           4  board.o(.data)
    g_isNewPenDn                             0x10000098   Data           4  board.o(.data)
    SystemCoreClock                          0x1000009c   Data           4  chip_18xx_43xx.o(.data)
    raw_ready_queue                          0x100000a8   Data         508  raw-os.o(.bss)
    raw_idle_obj                             0x100002a4   Data          92  raw-os.o(.bss)
    idle_stack                               0x10000300   Data         400  raw-os.o(.bss)
    raw_timer_obj                            0x10000490   Data          92  raw-os.o(.bss)
    timer_task_stack                         0x100004ec   Data         800  raw-os.o(.bss)
    timer_sem                                0x1000080c   Data          24  raw-os.o(.bss)
    timer_mutex                              0x10000824   Data          28  raw-os.o(.bss)
    task_0_events_queue                      0x10000840   Data         384  raw-os.o(.bss)
    raw_task_0_obj                           0x100009c0   Data          92  raw-os.o(.bss)
    task_0_stack                             0x10000a1c   Data        1024  raw-os.o(.bss)
    object_int_msg                           0x10000e1c   Data         480  raw-os.o(.bss)
    tick_task_obj                            0x10000ffc   Data          92  raw-os.o(.bss)
    tick_task_stack                          0x10001058   Data         800  raw-os.o(.bss)
    tick_semaphore_obj                       0x10001378   Data          24  raw-os.o(.bss)
    shell_task_stack                         0x10001390   Data        1600  main.o(.bss)
    shell_task_obj                           0x100019d0   Data          92  main.o(.bss)
    uart_sema                                0x10001a2c   Data          24  main.o(.bss)
    uart_fifo                                0x10001a44   Data          24  main.o(.bss)
    I2CMasterBuffer                          0x10001adc   Data          20  lpc43xx_i2c0.o(.bss)
    I2CSlaveBuffer                           0x10001af0   Data          20  lpc43xx_i2c0.o(.bss)
    __libspace_start                         0x10001b04   Data          96  libspace.o(.bss)
    __temporary_stack_top$libspace           0x10001b64   Data           0  libspace.o(.bss)
    s_ccb                                    0x10001c68   Data        1292  sct_rgb_color.o(SECT_IRAM1)
    __Vectors                                0x1a000000   Data           4  keil_startup_lpc18xx43xx.o(RESET)
    __main                                   0x1a000115   Thumb Code     8  __main.o(!!!main)
    __scatterload                            0x1a00011d   Thumb Code     0  __scatter.o(!!!scatter)
    __scatterload_rt2                        0x1a00011d   Thumb Code    44  __scatter.o(!!!scatter)
    __scatterload_rt2_thumb_only             0x1a00011d   Thumb Code     0  __scatter.o(!!!scatter)
    __scatterload_null                       0x1a00012b   Thumb Code     0  __scatter.o(!!!scatter)
    __scatterload_copy                       0x1a000151   Thumb Code    26  __scatter_copy.o(!!handler_copy)
    __scatterload_zeroinit                   0x1a00016d   Thumb Code    28  __scatter_zi.o(!!handler_zi)
    _printf_d                                0x1a000189   Thumb Code     0  _printf_d.o(.ARM.Collect$$_printf_percent$$00000009)
    _printf_percent                          0x1a000189   Thumb Code     0  _printf_percent.o(.ARM.Collect$$_printf_percent$$00000000)
    _printf_percent_end                      0x1a00018f   Thumb Code     0  _printf_percent_end.o(.ARM.Collect$$_printf_percent$$00000017)
    __rt_lib_init                            0x1a000193   Thumb Code     0  libinit.o(.ARM.Collect$$libinit$$00000000)
    __rt_lib_init_fp_1                       0x1a000195   Thumb Code     0  libinit2.o(.ARM.Collect$$libinit$$00000001)
    __rt_lib_init_alloca_1                   0x1a000199   Thumb Code     0  libinit2.o(.ARM.Collect$$libinit$$0000002C)
    __rt_lib_init_argv_1                     0x1a000199   Thumb Code     0  libinit2.o(.ARM.Collect$$libinit$$0000002A)
    __rt_lib_init_atexit_1                   0x1a000199   Thumb Code     0  libinit2.o(.ARM.Collect$$libinit$$00000019)
    __rt_lib_init_clock_1                    0x1a000199   Thumb Code     0  libinit2.o(.ARM.Collect$$libinit$$0000001F)
    __rt_lib_init_cpp_1                      0x1a000199   Thumb Code     0  libinit2.o(.ARM.Collect$$libinit$$00000030)
    __rt_lib_init_exceptions_1               0x1a000199   Thumb Code     0  libinit2.o(.ARM.Collect$$libinit$$0000002E)
    __rt_lib_init_fp_trap_1                  0x1a000199   Thumb Code     0  libinit2.o(.ARM.Collect$$libinit$$0000001D)
    __rt_lib_init_getenv_1                   0x1a000199   Thumb Code     0  libinit2.o(.ARM.Collect$$libinit$$00000021)
    __rt_lib_init_heap_1                     0x1a000199   Thumb Code     0  libinit2.o(.ARM.Collect$$libinit$$00000008)
    __rt_lib_init_lc_collate_1               0x1a000199   Thumb Code     0  libinit2.o(.ARM.Collect$$libinit$$0000000F)
    __rt_lib_init_lc_ctype_1                 0x1a000199   Thumb Code     0  libinit2.o(.ARM.Collect$$libinit$$00000011)
    __rt_lib_init_lc_monetary_1              0x1a000199   Thumb Code     0  libinit2.o(.ARM.Collect$$libinit$$00000013)
    __rt_lib_init_lc_numeric_1               0x1a000199   Thumb Code     0  libinit2.o(.ARM.Collect$$libinit$$00000015)
    __rt_lib_init_lc_time_1                  0x1a000199   Thumb Code     0  libinit2.o(.ARM.Collect$$libinit$$00000017)
    __rt_lib_init_rand_1                     0x1a000199   Thumb Code     0  libinit2.o(.ARM.Collect$$libinit$$0000000C)
    __rt_lib_init_return                     0x1a000199   Thumb Code     0  libinit2.o(.ARM.Collect$$libinit$$00000031)
    __rt_lib_init_signal_1                   0x1a000199   Thumb Code     0  libinit2.o(.ARM.Collect$$libinit$$0000001B)
    __rt_lib_init_stdio_1                    0x1a000199   Thumb Code     0  libinit2.o(.ARM.Collect$$libinit$$00000023)
    __rt_lib_init_user_alloc_1               0x1a000199   Thumb Code     0  libinit2.o(.ARM.Collect$$libinit$$0000000A)
    __rt_lib_shutdown                        0x1a00019b   Thumb Code     0  libshutdown.o(.ARM.Collect$$libshutdown$$00000000)
    __rt_lib_shutdown_fp_trap_1              0x1a00019d   Thumb Code     0  libshutdown2.o(.ARM.Collect$$libshutdown$$00000006)
    __rt_lib_shutdown_heap_1                 0x1a00019d   Thumb Code     0  libshutdown2.o(.ARM.Collect$$libshutdown$$0000000E)
    __rt_lib_shutdown_return                 0x1a00019d   Thumb Code     0  libshutdown2.o(.ARM.Collect$$libshutdown$$0000000F)
    __rt_lib_shutdown_signal_1               0x1a00019d   Thumb Code     0  libshutdown2.o(.ARM.Collect$$libshutdown$$00000009)
    __rt_lib_shutdown_stdio_1                0x1a00019d   Thumb Code     0  libshutdown2.o(.ARM.Collect$$libshutdown$$00000003)
    __rt_lib_shutdown_user_alloc_1           0x1a00019d   Thumb Code     0  libshutdown2.o(.ARM.Collect$$libshutdown$$0000000B)
    __rt_entry                               0x1a00019f   Thumb Code     0  rtentry.o(.ARM.Collect$$rtentry$$00000000)
    __rt_entry_presh_1                       0x1a00019f   Thumb Code     0  rtentry2.o(.ARM.Collect$$rtentry$$00000002)
    __rt_entry_sh                            0x1a00019f   Thumb Code     0  rtentry4.o(.ARM.Collect$$rtentry$$00000004)
    __rt_entry_li                            0x1a0001a5   Thumb Code     0  rtentry2.o(.ARM.Collect$$rtentry$$0000000A)
    __rt_entry_postsh_1                      0x1a0001a5   Thumb Code     0  rtentry2.o(.ARM.Collect$$rtentry$$00000009)
    __rt_entry_main                          0x1a0001a9   Thumb Code     0  rtentry2.o(.ARM.Collect$$rtentry$$0000000D)
    __rt_entry_postli_1                      0x1a0001a9   Thumb Code     0  rtentry2.o(.ARM.Collect$$rtentry$$0000000C)
    __rt_exit                                0x1a0001b1   Thumb Code     0  rtexit.o(.ARM.Collect$$rtexit$$00000000)
    __rt_exit_ls                             0x1a0001b3   Thumb Code     0  rtexit2.o(.ARM.Collect$$rtexit$$00000003)
    __rt_exit_prels_1                        0x1a0001b3   Thumb Code     0  rtexit2.o(.ARM.Collect$$rtexit$$00000002)
    __rt_exit_exit                           0x1a0001b7   Thumb Code     0  rtexit2.o(.ARM.Collect$$rtexit$$00000004)
    get_ready_task                           0x1a0001bd   Thumb Code    24  raw-os.o(.text)
    raw_sched                                0x1a0001d5   Thumb Code    48  raw-os.o(.text)
    raw_semaphore_create                     0x1a000205   Thumb Code    36  raw-os.o(.text)
    raw_task_semaphore_create                0x1a000229   Thumb Code    16  raw-os.o(.text)
    hybrid_int_process                       0x1a000239   Thumb Code   134  raw-os.o(.text)
    tick_list_remove                         0x1a0002bf   Thumb Code    24  raw-os.o(.text)
    mtx_chg_pri                              0x1a0002d7   Thumb Code    76  raw-os.o(.text)
    change_pend_list_priority                0x1a000323   Thumb Code    32  raw-os.o(.text)
    add_ready_list_end                       0x1a000343   Thumb Code    38  raw-os.o(.text)
    add_ready_list_head                      0x1a000369   Thumb Code    38  raw-os.o(.text)
    bit_search_first_one                     0x1a00038f   Thumb Code   116  raw-os.o(.text)
    remove_ready_list                        0x1a000403   Thumb Code    96  raw-os.o(.text)
    change_internal_task_priority            0x1a000463   Thumb Code    90  raw-os.o(.text)
    mutex_state_change                       0x1a000515   Thumb Code    32  raw-os.o(.text)
    add_ready_list                           0x1a000535   Thumb Code    16  raw-os.o(.text)
    tick_list_update                         0x1a000545   Thumb Code   254  raw-os.o(.text)
    block_state_post_process                 0x1a000643   Thumb Code    66  raw-os.o(.text)
    tick_list_insert                         0x1a000685   Thumb Code    56  raw-os.o(.text)
    raw_pend_object                          0x1a0006bd   Thumb Code    88  raw-os.o(.text)
    raw_semaphore_get                        0x1a000715   Thumb Code   214  raw-os.o(.text)
    raw_task_semaphore_get                   0x1a0007eb   Thumb Code    10  raw-os.o(.text)
    raw_task_create                          0x1a000811   Thumb Code   434  raw-os.o(.text)
    tick_task_start                          0x1a0009c3   Thumb Code    54  raw-os.o(.text)
    wake_send_msg                            0x1a000a55   Thumb Code     4  raw-os.o(.text)
    msg_post                                 0x1a000a59   Thumb Code   278  raw-os.o(.text)
    raw_wake_object                          0x1a000b6f   Thumb Code     2  raw-os.o(.text)
    semaphore_put                            0x1a000b71   Thumb Code   208  raw-os.o(.text)
    task_resume                              0x1a000c41   Thumb Code   210  raw-os.o(.text)
    task_suspend                             0x1a000d13   Thumb Code   280  raw-os.o(.text)
    raw_task_0_post                          0x1a000f2d   Thumb Code     4  raw-os.o(.text)
    int_msg_post                             0x1a000f31   Thumb Code    80  raw-os.o(.text)
    raw_semaphore_put                        0x1a000f81   Thumb Code    46  raw-os.o(.text)
    call_timer_task                          0x1a000faf   Thumb Code    22  raw-os.o(.text)
    move_to_ready_list_end                   0x1a000fc5   Thumb Code    30  raw-os.o(.text)
    calculate_time_slice                     0x1a000fe3   Thumb Code   108  raw-os.o(.text)
    raw_task_semaphore_put                   0x1a00104f   Thumb Code     4  raw-os.o(.text)
    raw_task_0_init                          0x1a0010eb   Thumb Code    92  raw-os.o(.text)
    raw_mutex_create                         0x1a001147   Thumb Code    60  raw-os.o(.text)
    raw_mutex_put                            0x1a001183   Thumb Code   324  raw-os.o(.text)
    raw_mutex_get                            0x1a0012c7   Thumb Code   350  raw-os.o(.text)
    raw_semaphore_set                        0x1a001425   Thumb Code   146  raw-os.o(.text)
    timer_task                               0x1a0014b7   Thumb Code   166  raw-os.o(.text)
    raw_timer_init                           0x1a00155d   Thumb Code    66  raw-os.o(.text)
    raw_idle_task                            0x1a00159f   Thumb Code    30  raw-os.o(.text)
    tick_list_init                           0x1a0015bd   Thumb Code    10  raw-os.o(.text)
    run_queue_init                           0x1a0015c7   Thumb Code    26  raw-os.o(.text)
    raw_os_init                              0x1a0015e1   Thumb Code   102  raw-os.o(.text)
    raw_os_start                             0x1a001647   Thumb Code    36  raw-os.o(.text)
    wake_send_msg_size                       0x1a00166b   Thumb Code     8  raw-os.o(.text)
    delete_pend_obj                          0x1a001673   Thumb Code   168  raw-os.o(.text)
    raw_task_stack_check                     0x1a00171b   Thumb Code    32  raw-os.o(.text)
    raw_disable_sche                         0x1a00173b   Thumb Code    40  raw-os.o(.text)
    raw_enable_sche                          0x1a001763   Thumb Code    54  raw-os.o(.text)
    raw_sleep                                0x1a001799   Thumb Code   134  raw-os.o(.text)
    raw_time_sleep                           0x1a00181f   Thumb Code    78  raw-os.o(.text)
    raw_task_suspend                         0x1a00186d   Thumb Code    54  raw-os.o(.text)
    raw_task_resume                          0x1a0018a3   Thumb Code    46  raw-os.o(.text)
    chg_pri_mutex                            0x1a0018d1   Thumb Code   114  raw-os.o(.text)
    raw_task_priority_change                 0x1a001943   Thumb Code   162  raw-os.o(.text)
    raw_task_free_mutex                      0x1a0019e5   Thumb Code    66  raw-os.o(.text)
    raw_task_delete                          0x1a001a27   Thumb Code   234  raw-os.o(.text)
    raw_set_task_user_point                  0x1a001b11   Thumb Code    26  raw-os.o(.text)
    raw_get_task_user_point                  0x1a001b2b   Thumb Code     8  raw-os.o(.text)
    raw_task_time_slice_change               0x1a001b33   Thumb Code    80  raw-os.o(.text)
    raw_set_sched_way                        0x1a001b83   Thumb Code    80  raw-os.o(.text)
    raw_get_sched_way                        0x1a001bd3   Thumb Code    72  raw-os.o(.text)
    raw_task_wait_abort                      0x1a001c1b   Thumb Code   206  raw-os.o(.text)
    raw_task_identify                        0x1a001ce9   Thumb Code     6  raw-os.o(.text)
    raw_iter_block_task                      0x1a001cef   Thumb Code   102  raw-os.o(.text)
    raw_get_system_global_space              0x1a001d55   Thumb Code     6  raw-os.o(.text)
    task_0_tick_post                         0x1a001d5b   Thumb Code    16  raw-os.o(.text)
    raw_task_0_front_post                    0x1a001d6b   Thumb Code     6  raw-os.o(.text)
    raw_block_pool_create                    0x1a001d71   Thumb Code    98  raw-os.o(.text)
    raw_block_allocate                       0x1a001dd3   Thumb Code    70  raw-os.o(.text)
    raw_block_release                        0x1a001e19   Thumb Code    48  raw-os.o(.text)
    raw_byte_pool_create                     0x1a001e49   Thumb Code    78  raw-os.o(.text)
    raw_byte_allocate                        0x1a001e97   Thumb Code    90  raw-os.o(.text)
    raw_byte_release                         0x1a001ef1   Thumb Code    76  raw-os.o(.text)
    raw_mq_init                              0x1a001f3d   Thumb Code    36  raw-os.o(.text)
    raw_mq_send                              0x1a002037   Thumb Code     2  raw-os.o(.text)
    raw_mq_receive                           0x1a002039   Thumb Code   298  raw-os.o(.text)
    raw_mqueue_flush                         0x1a002163   Thumb Code    78  raw-os.o(.text)
    raw_mqueue_delete                        0x1a0021b1   Thumb Code   102  raw-os.o(.text)
    raw_mqueue_get_information               0x1a002217   Thumb Code    52  raw-os.o(.text)
    raw_mutex_delete                         0x1a00224b   Thumb Code   130  raw-os.o(.text)
    raw_queue_create                         0x1a0022cd   Thumb Code    58  raw-os.o(.text)
    raw_queue_front_post                     0x1a002307   Thumb Code    58  raw-os.o(.text)
    raw_queue_end_post                       0x1a002341   Thumb Code    62  raw-os.o(.text)
    raw_queue_post_notify                    0x1a00237f   Thumb Code    54  raw-os.o(.text)
    raw_queue_all_post                       0x1a0023b5   Thumb Code    50  raw-os.o(.text)
    raw_queue_send_notify                    0x1a0023e7   Thumb Code   104  raw-os.o(.text)
    raw_queue_receive                        0x1a00244f   Thumb Code   270  raw-os.o(.text)
    raw_queue_full_check                     0x1a00255d   Thumb Code   114  raw-os.o(.text)
    raw_queue_flush                          0x1a0025cf   Thumb Code   110  raw-os.o(.text)
    raw_queue_delete                         0x1a00263d   Thumb Code   128  raw-os.o(.text)
    raw_queue_get_information                0x1a0026bd   Thumb Code   140  raw-os.o(.text)
    raw_semaphore_put_notify                 0x1a002749   Thumb Code    52  raw-os.o(.text)
    raw_semaphore_put_all                    0x1a00277d   Thumb Code    44  raw-os.o(.text)
    raw_semphore_send_notify                 0x1a0027a9   Thumb Code   104  raw-os.o(.text)
    raw_semaphore_delete                     0x1a002811   Thumb Code   128  raw-os.o(.text)
    raw_stack_check                          0x1a002891   Thumb Code    56  raw-os.o(.text)
    raw_finish_int                           0x1a0028c9   Thumb Code    56  raw-os.o(.text)
    raw_time_tick                            0x1a002901   Thumb Code    54  raw-os.o(.text)
    raw_enter_interrupt                      0x1a002937   Thumb Code    32  raw-os.o(.text)
    raw_system_time_get                      0x1a002957   Thumb Code     6  raw-os.o(.text)
    raw_system_time_set                      0x1a00295d   Thumb Code    60  raw-os.o(.text)
    raw_task_semaphore_set                   0x1a002999   Thumb Code     6  raw-os.o(.text)
    raw_task_semaphore_delete                0x1a00299f   Thumb Code     4  raw-os.o(.text)
    raw_timer_activate                       0x1a0029a3   Thumb Code   118  raw-os.o(.text)
    raw_timer_create                         0x1a002a19   Thumb Code    88  raw-os.o(.text)
    raw_timer_change                         0x1a002a71   Thumb Code    92  raw-os.o(.text)
    raw_timer_deactivate                     0x1a002acd   Thumb Code   100  raw-os.o(.text)
    raw_timer_delete                         0x1a002b31   Thumb Code   118  raw-os.o(.text)
    fifo_init                                0x1a002d05   Thumb Code    66  fifo.o(.text)
    fifo_in                                  0x1a002d47   Thumb Code    92  fifo.o(.text)
    fifo_out_peek                            0x1a002de1   Thumb Code    38  fifo.o(.text)
    fifo_out                                 0x1a002e07   Thumb Code    50  fifo.o(.text)
    fifo_out_all                             0x1a002e39   Thumb Code    62  fifo.o(.text)
    OS_CPU_SR_Save                           0x1a002e79   Thumb Code     0  cpu.o(.text)
    OS_CPU_SR_Restore                        0x1a002e81   Thumb Code     0  cpu.o(.text)
    CPU_IntDis                               0x1a002e87   Thumb Code     0  cpu.o(.text)
    CPU_IntEn                                0x1a002e8b   Thumb Code     0  cpu.o(.text)
    raw_start_first_task                     0x1a002e8f   Thumb Code     0  cpu.o(.text)
    port_task_switch                         0x1a002eb7   Thumb Code     0  cpu.o(.text)
    raw_int_switch                           0x1a002ec1   Thumb Code     0  cpu.o(.text)
    PendSV_Handler                           0x1a002ecb   Thumb Code     0  cpu.o(.text)
    port_stack_init                          0x1a002f1d   Thumb Code   324  port.o(.text)
    raw_os_init_hook                         0x1a003061   Thumb Code     2  port_hook.o(.text)
    raw_task_delete_hook                     0x1a003063   Thumb Code     2  port_hook.o(.text)
    raw_task_abort_hook                      0x1a003065   Thumb Code     2  port_hook.o(.text)
    raw_idle_task_hook                       0x1a003067   Thumb Code     2  port_hook.o(.text)
    raw_task_switch_hook                     0x1a003069   Thumb Code     2  port_hook.o(.text)
    raw_tick_hook                            0x1a00306b   Thumb Code     2  port_hook.o(.text)
    task_create_hook                         0x1a00306d   Thumb Code     2  port_hook.o(.text)
    raw_idle_coroutine_hook                  0x1a00306f   Thumb Code     2  port_hook.o(.text)
    raw_memcpy                               0x1a003071   Thumb Code    74  user_extension.o(.text)
    raw_memset                               0x1a0030bb   Thumb Code    62  user_extension.o(.text)
    Reset_Handler                            0x1a0030f9   Thumb Code     8  keil_startup_lpc18xx43xx.o(.text)
    NMI_Handler                              0x1a003101   Thumb Code     2  keil_startup_lpc18xx43xx.o(.text)
    HardFault_Handler                        0x1a003103   Thumb Code     2  keil_startup_lpc18xx43xx.o(.text)
    MemManage_Handler                        0x1a003105   Thumb Code     2  keil_startup_lpc18xx43xx.o(.text)
    BusFault_Handler                         0x1a003107   Thumb Code     2  keil_startup_lpc18xx43xx.o(.text)
    UsageFault_Handler                       0x1a003109   Thumb Code     2  keil_startup_lpc18xx43xx.o(.text)
    SVC_Handler                              0x1a00310b   Thumb Code     2  keil_startup_lpc18xx43xx.o(.text)
    DebugMon_Handler                         0x1a00310d   Thumb Code     2  keil_startup_lpc18xx43xx.o(.text)
    UnHandled_Vector                         0x1a003113   Thumb Code     2  keil_startup_lpc18xx43xx.o(.text)
    ADC0_IRQHandler                          0x1a003115   Thumb Code     0  keil_startup_lpc18xx43xx.o(.text)
    ADC1_IRQHandler                          0x1a003115   Thumb Code     0  keil_startup_lpc18xx43xx.o(.text)
    ADCHS_IRQHandler                         0x1a003115   Thumb Code     0  keil_startup_lpc18xx43xx.o(.text)
    ATIMER_IRQHandler                        0x1a003115   Thumb Code     0  keil_startup_lpc18xx43xx.o(.text)
    CAN0_IRQHandler                          0x1a003115   Thumb Code     0  keil_startup_lpc18xx43xx.o(.text)
    CAN1_IRQHandler                          0x1a003115   Thumb Code     0  keil_startup_lpc18xx43xx.o(.text)
    DAC_IRQHandler                           0x1a003115   Thumb Code     0  keil_startup_lpc18xx43xx.o(.text)
    DMA_IRQHandler                           0x1a003115   Thumb Code     0  keil_startup_lpc18xx43xx.o(.text)
    ETH_IRQHandler                           0x1a003115   Thumb Code     0  keil_startup_lpc18xx43xx.o(.text)
    EVRT_IRQHandler                          0x1a003115   Thumb Code     0  keil_startup_lpc18xx43xx.o(.text)
    FLASHEEPROM_IRQHandler                   0x1a003115   Thumb Code     0  keil_startup_lpc18xx43xx.o(.text)
    GINT0_IRQHandler                         0x1a003115   Thumb Code     0  keil_startup_lpc18xx43xx.o(.text)
    GINT1_IRQHandler                         0x1a003115   Thumb Code     0  keil_startup_lpc18xx43xx.o(.text)
    GPIO0_IRQHandler                         0x1a003115   Thumb Code     0  keil_startup_lpc18xx43xx.o(.text)
    GPIO1_IRQHandler                         0x1a003115   Thumb Code     0  keil_startup_lpc18xx43xx.o(.text)
    GPIO2_IRQHandler                         0x1a003115   Thumb Code     0  keil_startup_lpc18xx43xx.o(.text)
    GPIO3_IRQHandler                         0x1a003115   Thumb Code     0  keil_startup_lpc18xx43xx.o(.text)
    GPIO4_IRQHandler                         0x1a003115   Thumb Code     0  keil_startup_lpc18xx43xx.o(.text)
    GPIO5_IRQHandler                         0x1a003115   Thumb Code     0  keil_startup_lpc18xx43xx.o(.text)
    GPIO6_IRQHandler                         0x1a003115   Thumb Code     0  keil_startup_lpc18xx43xx.o(.text)
    GPIO7_IRQHandler                         0x1a003115   Thumb Code     0  keil_startup_lpc18xx43xx.o(.text)
    I2C1_IRQHandler                          0x1a003115   Thumb Code     0  keil_startup_lpc18xx43xx.o(.text)
    I2S0_IRQHandler                          0x1a003115   Thumb Code     0  keil_startup_lpc18xx43xx.o(.text)
    I2S1_IRQHandler                          0x1a003115   Thumb Code     0  keil_startup_lpc18xx43xx.o(.text)
    LCD_IRQHandler                           0x1a003115   Thumb Code     0  keil_startup_lpc18xx43xx.o(.text)
    MCPWM_IRQHandler                         0x1a003115   Thumb Code     0  keil_startup_lpc18xx43xx.o(.text)
    MX_CORE_IRQHandler                       0x1a003115   Thumb Code     0  keil_startup_lpc18xx43xx.o(.text)
    QEI_IRQHandler                           0x1a003115   Thumb Code     0  keil_startup_lpc18xx43xx.o(.text)
    RIT_IRQHandler                           0x1a003115   Thumb Code     0  keil_startup_lpc18xx43xx.o(.text)
    RTC_IRQHandler                           0x1a003115   Thumb Code     0  keil_startup_lpc18xx43xx.o(.text)
    SDIO_IRQHandler                          0x1a003115   Thumb Code     0  keil_startup_lpc18xx43xx.o(.text)
    SGPIO_IRQHandler                         0x1a003115   Thumb Code     0  keil_startup_lpc18xx43xx.o(.text)
    SPIFI_IRQHandler                         0x1a003115   Thumb Code     0  keil_startup_lpc18xx43xx.o(.text)
    SPI_IRQHandler                           0x1a003115   Thumb Code     0  keil_startup_lpc18xx43xx.o(.text)
    SSP0_IRQHandler                          0x1a003115   Thumb Code     0  keil_startup_lpc18xx43xx.o(.text)
    SSP1_IRQHandler                          0x1a003115   Thumb Code     0  keil_startup_lpc18xx43xx.o(.text)
    TIMER0_IRQHandler                        0x1a003115   Thumb Code     0  keil_startup_lpc18xx43xx.o(.text)
    TIMER1_IRQHandler                        0x1a003115   Thumb Code     0  keil_startup_lpc18xx43xx.o(.text)
    TIMER2_IRQHandler                        0x1a003115   Thumb Code     0  keil_startup_lpc18xx43xx.o(.text)
    TIMER3_IRQHandler                        0x1a003115   Thumb Code     0  keil_startup_lpc18xx43xx.o(.text)
    UART0_IRQHandler                         0x1a003115   Thumb Code     0  keil_startup_lpc18xx43xx.o(.text)
    UART1_IRQHandler                         0x1a003115   Thumb Code     0  keil_startup_lpc18xx43xx.o(.text)
    UART2_IRQHandler                         0x1a003115   Thumb Code     0  keil_startup_lpc18xx43xx.o(.text)
    USB0_IRQHandler                          0x1a003115   Thumb Code     0  keil_startup_lpc18xx43xx.o(.text)
    USB1_IRQHandler                          0x1a003115   Thumb Code     0  keil_startup_lpc18xx43xx.o(.text)
    WDT_IRQHandler                           0x1a003115   Thumb Code     0  keil_startup_lpc18xx43xx.o(.text)
    __user_initial_stackheap                 0x1a003119   Thumb Code     0  keil_startup_lpc18xx43xx.o(.text)
    SystemInit                               0x1a00313d   Thumb Code    20  sysinit.o(.text)
    scu_pinmux                               0x1a003159   Thumb Code    16  lpc43xx_scu.o(.text)
    emc_init                                 0x1a00316d   Thumb Code   894  lpc43xx_sdram.o(.text)
    sdram_init                               0x1a0034eb   Thumb Code   142  lpc43xx_sdram.o(.text)
    GPIO_SetDir                              0x1a003595   Thumb Code    22  lpc43xx_gpio.o(.text)
    GPIO_SetValue                            0x1a0035ab   Thumb Code    12  lpc43xx_gpio.o(.text)
    GPIO_ClearValue                          0x1a0035b7   Thumb Code    12  lpc43xx_gpio.o(.text)
    GPIO_ReadValue                           0x1a0035c3   Thumb Code    12  lpc43xx_gpio.o(.text)
    MCPMW_Init                               0x1a0035d5   Thumb Code    48  lpc43xx_lcd.o(.text)
    MCPWM_Set_Ratio                          0x1a003605   Thumb Code    12  lpc43xx_lcd.o(.text)
    LCD_init                                 0x1a003611   Thumb Code   638  lpc43xx_lcd.o(.text)
    LCD_enable                               0x1a00388f   Thumb Code    28  lpc43xx_lcd.o(.text)
    LCD_displayMemorySet                     0x1a0038ab   Thumb Code    10  lpc43xx_lcd.o(.text)
    LCD_backLightCtl                         0x1a0038b5   Thumb Code    10  lpc43xx_lcd.o(.text)
    LCD_one_pixel_write                      0x1a0038bf   Thumb Code    18  lpc43xx_lcd.o(.text)
    LCD_one_pixel_read                       0x1a0038d1   Thumb Code    16  lpc43xx_lcd.o(.text)
    SysTick_Handler                          0x1a003905   Thumb Code    18  main.o(.text)
    OS_CPU_SysTickInit                       0x1a003917   Thumb Code    48  main.o(.text)
    uart_3_recv                              0x1a003947   Thumb Code    76  main.o(.text)
    UART3_IRQHandler                         0x1a003993   Thumb Code    56  main.o(.text)
    CAMERA_lineData                          0x1a0039cb   Thumb Code    62  main.o(.text)
    CAMERA_frameComplete                     0x1a003a09   Thumb Code    30  main.o(.text)
    shell_task                               0x1a003a27   Thumb Code   192  main.o(.text)
    main                                     0x1a003ae7   Thumb Code    56  main.o(.text)
    DelayTicks                               0x1a003b85   Thumb Code    14  yacb21common.o(.text)
    ov7670_read_reg                          0x1a003b93   Thumb Code    48  yacb21common.o(.text)
    ov7670_write_reg                         0x1a003bc3   Thumb Code    32  yacb21common.o(.text)
    YACBprm_MCLKCtl                          0x1a003be3   Thumb Code    22  yacb21common.o(.text)
    YACBprm_PwrDnSeq                         0x1a003bf9   Thumb Code    48  yacb21common.o(.text)
    YACBprm_PwrOnSeq                         0x1a003c29   Thumb Code    60  yacb21common.o(.text)
    YACBprm_MCUCfg                           0x1a003c65   Thumb Code   158  yacb21common.o(.text)
    ov7670_init                              0x1a003d03   Thumb Code   788  yacb21common.o(.text)
    YACB_Init                                0x1a004017   Thumb Code    90  yacb21common.o(.text)
    _prvInitCamDMAXferDir                    0x1a004071   Thumb Code    44  yacb21common.o(.text)
    CAMERA_init                              0x1a00409d   Thumb Code     2  yacb21common.o(.text)
    YACBprm_Tim                              0x1a0040ad   Thumb Code   188  sct_rgb_color.o(.text)
    I2C0_IRQHandler                          0x1a004189   Thumb Code   230  lpc43xx_i2c0.o(.text)
    I2CStart                                 0x1a00426f   Thumb Code    36  lpc43xx_i2c0.o(.text)
    I2CStop                                  0x1a004293   Thumb Code    20  lpc43xx_i2c0.o(.text)
    I2CInit                                  0x1a0042a7   Thumb Code    80  lpc43xx_i2c0.o(.text)
    I2CEngine                                0x1a0042f7   Thumb Code    42  lpc43xx_i2c0.o(.text)
    I2CXfer                                  0x1a004321   Thumb Code   104  lpc43xx_i2c0.o(.text)
    __2printf                                0x1a0043a9   Thumb Code    20  noretval__2printf.o(.text)
    __printf                                 0x1a0043c1   Thumb Code   104  __printf.o(.text)
    _printf_int_dec                          0x1a004429   Thumb Code   100  _printf_dec.o(.text)
    __aeabi_memclr4                          0x1a00449d   Thumb Code     0  rt_memclr_w.o(.text)
    __aeabi_memclr8                          0x1a00449d   Thumb Code     0  rt_memclr_w.o(.text)
    __rt_memclr_w                            0x1a00449d   Thumb Code    78  rt_memclr_w.o(.text)
    _memset_w                                0x1a0044a1   Thumb Code     0  rt_memclr_w.o(.text)
    __use_two_region_memory                  0x1a0044eb   Thumb Code     2  heapauxi.o(.text)
    __rt_heap_escrow$2region                 0x1a0044ed   Thumb Code     2  heapauxi.o(.text)
    __rt_heap_expand$2region                 0x1a0044ef   Thumb Code     2  heapauxi.o(.text)
    _printf_int_common                       0x1a0044f1   Thumb Code   178  _printf_intcommon.o(.text)
    _printf_char_file                        0x1a0045a5   Thumb Code    32  _printf_char_file.o(.text)
    _printf_char_common                      0x1a0045d3   Thumb Code    32  _printf_char_common.o(.text)
    __user_setup_stackheap                   0x1a0045f9   Thumb Code    74  sys_stackheap_outer.o(.text)
    exit                                     0x1a004643   Thumb Code    12  exit.o(.text)
    __user_libspace                          0x1a004651   Thumb Code     8  libspace.o(.text)
    __user_perproc_libspace                  0x1a004651   Thumb Code     0  libspace.o(.text)
    __user_perthread_libspace                0x1a004651   Thumb Code     0  libspace.o(.text)
    SCT_IRQHandler                           0x1a004659   Thumb Code    66  yacb21common.o(SECT_RAMCODE)
    Board_SetupClocking                      0x1a0046a1   Thumb Code   158  board_sysinit.o(i.Board_SetupClocking)
    Board_SetupExtMemory                     0x1a004755   Thumb Code    82  board_sysinit.o(i.Board_SetupExtMemory)
    Board_SetupMuxing                        0x1a0047c1   Thumb Code    58  board_sysinit.o(i.Board_SetupMuxing)
    Board_SystemInit                         0x1a00480d   Thumb Code    16  board_sysinit.o(i.Board_SystemInit)
    Board_UARTPutChar                        0x1a00481d   Thumb Code    26  board.o(i.Board_UARTPutChar)
    Board_UART_Init                          0x1a00483d   Thumb Code    60  board.o(i.Board_UART_Init)
    Chip_Clock_DisableMainPLL                0x1a004881   Thumb Code    14  clock_18xx_43xx.o(i.Chip_Clock_DisableMainPLL)
    Chip_Clock_Enable                        0x1a004895   Thumb Code    46  clock_18xx_43xx.o(i.Chip_Clock_Enable)
    Chip_Clock_EnableCrystal                 0x1a0048cd   Thumb Code    62  clock_18xx_43xx.o(i.Chip_Clock_EnableCrystal)
    Chip_Clock_EnableOpts                    0x1a004919   Thumb Code    52  clock_18xx_43xx.o(i.Chip_Clock_EnableOpts)
    Chip_Clock_GetBaseClock                  0x1a0049a5   Thumb Code    32  clock_18xx_43xx.o(i.Chip_Clock_GetBaseClock)
    Chip_Clock_GetBaseClocktHz               0x1a0049c9   Thumb Code    18  clock_18xx_43xx.o(i.Chip_Clock_GetBaseClocktHz)
    Chip_Clock_GetClockInputHz               0x1a0049dd   Thumb Code   182  clock_18xx_43xx.o(i.Chip_Clock_GetClockInputHz)
    Chip_Clock_GetDividerDivisor             0x1a004ad9   Thumb Code    18  clock_18xx_43xx.o(i.Chip_Clock_GetDividerDivisor)
    Chip_Clock_GetDividerSource              0x1a004af9   Thumb Code    26  clock_18xx_43xx.o(i.Chip_Clock_GetDividerSource)
    Chip_Clock_GetEMCRate                    0x1a004b19   Thumb Code    38  clock_18xx_43xx.o(i.Chip_Clock_GetEMCRate)
    Chip_Clock_GetMainPLLHz                  0x1a004b49   Thumb Code   110  clock_18xx_43xx.o(i.Chip_Clock_GetMainPLLHz)
    Chip_Clock_GetRate                       0x1a004bc1   Thumb Code    78  clock_18xx_43xx.o(i.Chip_Clock_GetRate)
    Chip_Clock_SetBaseClock                  0x1a004c19   Thumb Code    64  clock_18xx_43xx.o(i.Chip_Clock_SetBaseClock)
    Chip_Clock_SetDivider                    0x1a004c61   Thumb Code    64  clock_18xx_43xx.o(i.Chip_Clock_SetDivider)
    Chip_Clock_SetupMainPLLHz                0x1a004cb1   Thumb Code   190  clock_18xx_43xx.o(i.Chip_Clock_SetupMainPLLHz)
    Chip_Clock_SetupMainPLLMult              0x1a004d71   Thumb Code   160  clock_18xx_43xx.o(i.Chip_Clock_SetupMainPLLMult)
    Chip_EMC_Dynamic_Init                    0x1a004e41   Thumb Code    22  emc_18xx_43xx.o(i.Chip_EMC_Dynamic_Init)
    Chip_EMC_Init                            0x1a004e5d   Thumb Code    40  emc_18xx_43xx.o(i.Chip_EMC_Init)
    Chip_EMC_Static_Init                     0x1a004e89   Thumb Code    22  emc_18xx_43xx.o(i.Chip_EMC_Static_Init)
    Chip_SetupCoreClock                      0x1a004ee5   Thumb Code   138  sysinit_18xx_43xx.o(i.Chip_SetupCoreClock)
    Chip_UART_Init                           0x1a004fc5   Thumb Code    72  uart_18xx_43xx.o(i.Chip_UART_Init)
    Chip_UART_SetBaud                        0x1a005011   Thumb Code    66  uart_18xx_43xx.o(i.Chip_UART_SetBaud)
    SystemCoreClockUpdate                    0x1a005059   Thumb Code    14  chip_18xx_43xx.o(i.SystemCoreClockUpdate)
    _sys_exit                                0x1a00506d   Thumb Code     6  board.o(i._sys_exit)
    ferror                                   0x1a0050ad   Thumb Code     8  board.o(i.ferror)
    fpuInit                                  0x1a0050b5   Thumb Code    62  fpu_init.o(i.fpuInit)
    fputc                                    0x1a005105   Thumb Code    20  board.o(i.fputc)
    initDynMem                               0x1a005141   Thumb Code   488  emc_18xx_43xx.o(i.initDynMem)
    initStaticMem                            0x1a005329   Thumb Code   104  emc_18xx_43xx.o(i.initStaticMem)
    _fp_init                                 0x1a005391   Thumb Code    10  fpinit.o(x$fpl$fpinit)
    __fplib_config_fpu_vfp                   0x1a005399   Thumb Code     0  fpinit.o(x$fpl$fpinit)
    __fplib_config_pureend_doubles           0x1a005399   Thumb Code     0  fpinit.o(x$fpl$fpinit)
    ad_left                                  0x1a0053ac   Data           4  board.o(.constdata)
    ad_top                                   0x1a0053b0   Data           4  board.o(.constdata)
    ad_right                                 0x1a0053b4   Data           4  board.o(.constdata)
    ad_bottom                                0x1a0053b8   Data           4  board.o(.constdata)
    MCB4300_LCD                              0x1a0053bc   Data          22  board.o(.constdata)
    ExtRateIn                                0x1a0053d4   Data           4  board.o(.constdata)
    OscRateIn                                0x1a0053d8   Data           4  board.o(.constdata)
    Region$$Table$$Base                      0x1a00574c   Number         0  anon$$obj.o(Region$$Table)
    Region$$Table$$Limit                     0x1a00576c   Number         0  anon$$obj.o(Region$$Table)



==============================================================================

Memory Map of the image

  Image Entry point : 0x1a000115

  Load Region LR_IROM1 (Base: 0x1a000000, Size: 0x00005814, Max: 0x00080000, ABSOLUTE)

    Execution Region RW_IRAM1 (Base: 0x10000000, Size: 0x00002778, Max: 0x00008000, ABSOLUTE)

    Base Addr    Size         Type   Attr      Idx    E Section Name        Object

    0x10000000   0x00000058   Data   RW            3    .data               raw-os.o
    0x10000058   0x0000000c   Data   RW          639    .data               lpc43xx_lcd.o
    0x10000064   0x0000000c   Data   RW          667    .data               main.o
    0x10000070   0x00000004   Data   RW          668    .data               main.o
    0x10000074   0x00000014   Data   RW          807    .data               lpc43xx_i2c0.o
    0x10000088   0x00000014   Data   RW          884    .data               lib_lpc_board_keil_mcb_4357.lib(board.o)
    0x1000009c   0x00000004   Data   RW         1403    .data               lib_lpc_chip_43xx.lib(chip_18xx_43xx.o)
    0x100000a0   0x00000008   Data   RW         1909    .data               lib_lpc_chip_43xx.lib(clock_18xx_43xx.o)
    0x100000a8   0x000012e8   Zero   RW            2    .bss                raw-os.o
    0x10001390   0x0000074c   Zero   RW          665    .bss                main.o
    0x10001adc   0x00000028   Zero   RW          806    .bss                lpc43xx_i2c0.o
    0x10001b04   0x00000060   Zero   RW         2818    .bss                c_w.l(libspace.o)
    0x10001b64   0x00000004   PAD
    0x10001b68   0x00000100   Zero   RW          324    HEAP                keil_startup_lpc18xx43xx.o
    0x10001c68   0x0000050c   Zero   RW          776    SECT_IRAM1          sct_rgb_color.o
    0x10002174   0x00000004   PAD
    0x10002178   0x00000600   Zero   RW          323    STACK               keil_startup_lpc18xx43xx.o


    Execution Region ER_IROM1 (Base: 0x1a000000, Size: 0x0000576c, Max: 0x00080000, ABSOLUTE)

    Base Addr    Size         Type   Attr      Idx    E Section Name        Object

    0x1a000000   0x00000114   Data   RO          325    RESET               keil_startup_lpc18xx43xx.o
    0x1a000114   0x00000008   Code   RO         2768  * !!!main             c_w.l(__main.o)
    0x1a00011c   0x00000034   Code   RO         2941    !!!scatter          c_w.l(__scatter.o)
    0x1a000150   0x0000001a   Code   RO         2943    !!handler_copy      c_w.l(__scatter_copy.o)
    0x1a00016a   0x00000002   PAD
    0x1a00016c   0x0000001c   Code   RO         2945    !!handler_zi        c_w.l(__scatter_zi.o)
    0x1a000188   0x00000000   Code   RO         2761    .ARM.Collect$$_printf_percent$$00000000  c_w.l(_printf_percent.o)
    0x1a000188   0x00000006   Code   RO         2760    .ARM.Collect$$_printf_percent$$00000009  c_w.l(_printf_d.o)
    0x1a00018e   0x00000004   Code   RO         2779    .ARM.Collect$$_printf_percent$$00000017  c_w.l(_printf_percent_end.o)
    0x1a000192   0x00000002   Code   RO         2816    .ARM.Collect$$libinit$$00000000  c_w.l(libinit.o)
    0x1a000194   0x00000004   Code   RO         2828    .ARM.Collect$$libinit$$00000001  c_w.l(libinit2.o)
    0x1a000198   0x00000000   Code   RO         2832    .ARM.Collect$$libinit$$00000008  c_w.l(libinit2.o)
    0x1a000198   0x00000000   Code   RO         2834    .ARM.Collect$$libinit$$0000000A  c_w.l(libinit2.o)
    0x1a000198   0x00000000   Code   RO         2836    .ARM.Collect$$libinit$$0000000C  c_w.l(libinit2.o)
    0x1a000198   0x00000000   Code   RO         2839    .ARM.Collect$$libinit$$0000000F  c_w.l(libinit2.o)
    0x1a000198   0x00000000   Code   RO         2841    .ARM.Collect$$libinit$$00000011  c_w.l(libinit2.o)
    0x1a000198   0x00000000   Code   RO         2843    .ARM.Collect$$libinit$$00000013  c_w.l(libinit2.o)
    0x1a000198   0x00000000   Code   RO         2845    .ARM.Collect$$libinit$$00000015  c_w.l(libinit2.o)
    0x1a000198   0x00000000   Code   RO         2847    .ARM.Collect$$libinit$$00000017  c_w.l(libinit2.o)
    0x1a000198   0x00000000   Code   RO         2849    .ARM.Collect$$libinit$$00000019  c_w.l(libinit2.o)
    0x1a000198   0x00000000   Code   RO         2851    .ARM.Collect$$libinit$$0000001B  c_w.l(libinit2.o)
    0x1a000198   0x00000000   Code   RO         2853    .ARM.Collect$$libinit$$0000001D  c_w.l(libinit2.o)
    0x1a000198   0x00000000   Code   RO         2855    .ARM.Collect$$libinit$$0000001F  c_w.l(libinit2.o)
    0x1a000198   0x00000000   Code   RO         2857    .ARM.Collect$$libinit$$00000021  c_w.l(libinit2.o)
    0x1a000198   0x00000000   Code   RO         2859    .ARM.Collect$$libinit$$00000023  c_w.l(libinit2.o)
    0x1a000198   0x00000000   Code   RO         2863    .ARM.Collect$$libinit$$0000002A  c_w.l(libinit2.o)
    0x1a000198   0x00000000   Code   RO         2865    .ARM.Collect$$libinit$$0000002C  c_w.l(libinit2.o)
    0x1a000198   0x00000000   Code   RO         2867    .ARM.Collect$$libinit$$0000002E  c_w.l(libinit2.o)
    0x1a000198   0x00000000   Code   RO         2869    .ARM.Collect$$libinit$$00000030  c_w.l(libinit2.o)
    0x1a000198   0x00000002   Code   RO         2870    .ARM.Collect$$libinit$$00000031  c_w.l(libinit2.o)
    0x1a00019a   0x00000002   Code   RO         2896    .ARM.Collect$$libshutdown$$00000000  c_w.l(libshutdown.o)
    0x1a00019c   0x00000000   Code   RO         2926    .ARM.Collect$$libshutdown$$00000003  c_w.l(libshutdown2.o)
    0x1a00019c   0x00000000   Code   RO         2929    .ARM.Collect$$libshutdown$$00000006  c_w.l(libshutdown2.o)
    0x1a00019c   0x00000000   Code   RO         2932    .ARM.Collect$$libshutdown$$00000009  c_w.l(libshutdown2.o)
    0x1a00019c   0x00000000   Code   RO         2934    .ARM.Collect$$libshutdown$$0000000B  c_w.l(libshutdown2.o)
    0x1a00019c   0x00000000   Code   RO         2937    .ARM.Collect$$libshutdown$$0000000E  c_w.l(libshutdown2.o)
    0x1a00019c   0x00000002   Code   RO         2938    .ARM.Collect$$libshutdown$$0000000F  c_w.l(libshutdown2.o)
    0x1a00019e   0x00000000   Code   RO         2770    .ARM.Collect$$rtentry$$00000000  c_w.l(rtentry.o)
    0x1a00019e   0x00000000   Code   RO         2783    .ARM.Collect$$rtentry$$00000002  c_w.l(rtentry2.o)
    0x1a00019e   0x00000006   Code   RO         2795    .ARM.Collect$$rtentry$$00000004  c_w.l(rtentry4.o)
    0x1a0001a4   0x00000000   Code   RO         2785    .ARM.Collect$$rtentry$$00000009  c_w.l(rtentry2.o)
    0x1a0001a4   0x00000004   Code   RO         2786    .ARM.Collect$$rtentry$$0000000A  c_w.l(rtentry2.o)
    0x1a0001a8   0x00000000   Code   RO         2788    .ARM.Collect$$rtentry$$0000000C  c_w.l(rtentry2.o)
    0x1a0001a8   0x00000008   Code   RO         2789    .ARM.Collect$$rtentry$$0000000D  c_w.l(rtentry2.o)
    0x1a0001b0   0x00000002   Code   RO         2820    .ARM.Collect$$rtexit$$00000000  c_w.l(rtexit.o)
    0x1a0001b2   0x00000000   Code   RO         2872    .ARM.Collect$$rtexit$$00000002  c_w.l(rtexit2.o)
    0x1a0001b2   0x00000004   Code   RO         2873    .ARM.Collect$$rtexit$$00000003  c_w.l(rtexit2.o)
    0x1a0001b6   0x00000006   Code   RO         2874    .ARM.Collect$$rtexit$$00000004  c_w.l(rtexit2.o)
    0x1a0001bc   0x00002b48   Code   RO            1    .text               raw-os.o
    0x1a002d04   0x00000172   Code   RO          183    .text               fifo.o
    0x1a002e76   0x00000002   PAD
    0x1a002e78   0x000000a4   Code   RO          277    .text               cpu.o
    0x1a002f1c   0x00000144   Code   RO          281    .text               port.o
    0x1a003060   0x00000010   Code   RO          293    .text               port_hook.o
    0x1a003070   0x00000088   Code   RO          311    .text               user_extension.o
    0x1a0030f8   0x00000044   Code   RO          326    .text               keil_startup_lpc18xx43xx.o
    0x1a00313c   0x0000001c   Code   RO          332    .text               sysinit.o
    0x1a003158   0x00000014   Code   RO          558    .text               lpc43xx_scu.o
    0x1a00316c   0x00000428   Code   RO          592    .text               lpc43xx_sdram.o
    0x1a003594   0x00000040   Code   RO          615    .text               lpc43xx_gpio.o
    0x1a0035d4   0x00000330   Code   RO          638    .text               lpc43xx_lcd.o
    0x1a003904   0x00000280   Code   RO          664    .text               main.o
    0x1a003b84   0x00000528   Code   RO          705    .text               yacb21common.o
    0x1a0040ac   0x000000dc   Code   RO          774    .text               sct_rgb_color.o
    0x1a004188   0x00000220   Code   RO          805    .text               lpc43xx_i2c0.o
    0x1a0043a8   0x00000018   Code   RO         2734    .text               c_w.l(noretval__2printf.o)
    0x1a0043c0   0x00000068   Code   RO         2736    .text               c_w.l(__printf.o)
    0x1a004428   0x00000074   Code   RO         2738    .text               c_w.l(_printf_dec.o)
    0x1a00449c   0x0000004e   Code   RO         2764    .text               c_w.l(rt_memclr_w.o)
    0x1a0044ea   0x00000006   Code   RO         2766    .text               c_w.l(heapauxi.o)
    0x1a0044f0   0x000000b2   Code   RO         2775    .text               c_w.l(_printf_intcommon.o)
    0x1a0045a2   0x00000002   PAD
    0x1a0045a4   0x00000024   Code   RO         2777    .text               c_w.l(_printf_char_file.o)
    0x1a0045c8   0x00000030   Code   RO         2799    .text               c_w.l(_printf_char_common.o)
    0x1a0045f8   0x0000004a   Code   RO         2801    .text               c_w.l(sys_stackheap_outer.o)
    0x1a004642   0x0000000c   Code   RO         2805    .text               c_w.l(exit.o)
    0x1a00464e   0x00000002   PAD
    0x1a004650   0x00000008   Code   RO         2817    .text               c_w.l(libspace.o)
    0x1a004658   0x00000048   Code   RO          706    SECT_RAMCODE        yacb21common.o
    0x1a0046a0   0x000000b4   Code   RO         1327    i.Board_SetupClocking  lib_lpc_board_keil_mcb_4357.lib(board_sysinit.o)
    0x1a004754   0x0000006c   Code   RO         1328    i.Board_SetupExtMemory  lib_lpc_board_keil_mcb_4357.lib(board_sysinit.o)
    0x1a0047c0   0x0000004c   Code   RO         1329    i.Board_SetupMuxing  lib_lpc_board_keil_mcb_4357.lib(board_sysinit.o)
    0x1a00480c   0x00000010   Code   RO         1330    i.Board_SystemInit  lib_lpc_board_keil_mcb_4357.lib(board_sysinit.o)
    0x1a00481c   0x00000020   Code   RO          859    i.Board_UARTPutChar  lib_lpc_board_keil_mcb_4357.lib(board.o)
    0x1a00483c   0x00000044   Code   RO          861    i.Board_UART_Init   lib_lpc_board_keil_mcb_4357.lib(board.o)
    0x1a004880   0x00000014   Code   RO         1878    i.Chip_Clock_DisableMainPLL  lib_lpc_chip_43xx.lib(clock_18xx_43xx.o)
    0x1a004894   0x00000038   Code   RO         1880    i.Chip_Clock_Enable  lib_lpc_chip_43xx.lib(clock_18xx_43xx.o)
    0x1a0048cc   0x0000004c   Code   RO         1882    i.Chip_Clock_EnableCrystal  lib_lpc_chip_43xx.lib(clock_18xx_43xx.o)
    0x1a004918   0x0000003c   Code   RO         1884    i.Chip_Clock_EnableOpts  lib_lpc_chip_43xx.lib(clock_18xx_43xx.o)
    0x1a004954   0x00000050   Code   RO         1886    i.Chip_Clock_FindBaseClock  lib_lpc_chip_43xx.lib(clock_18xx_43xx.o)
    0x1a0049a4   0x00000024   Code   RO         1887    i.Chip_Clock_GetBaseClock  lib_lpc_chip_43xx.lib(clock_18xx_43xx.o)
    0x1a0049c8   0x00000012   Code   RO         1889    i.Chip_Clock_GetBaseClocktHz  lib_lpc_chip_43xx.lib(clock_18xx_43xx.o)
    0x1a0049da   0x00000002   PAD
    0x1a0049dc   0x000000d4   Code   RO         1890    i.Chip_Clock_GetClockInputHz  lib_lpc_chip_43xx.lib(clock_18xx_43xx.o)
    0x1a004ab0   0x00000028   Code   RO         1891    i.Chip_Clock_GetDivRate  lib_lpc_chip_43xx.lib(clock_18xx_43xx.o)
    0x1a004ad8   0x00000020   Code   RO         1892    i.Chip_Clock_GetDividerDivisor  lib_lpc_chip_43xx.lib(clock_18xx_43xx.o)
    0x1a004af8   0x00000020   Code   RO         1893    i.Chip_Clock_GetDividerSource  lib_lpc_chip_43xx.lib(clock_18xx_43xx.o)
    0x1a004b18   0x00000030   Code   RO         1894    i.Chip_Clock_GetEMCRate  lib_lpc_chip_43xx.lib(clock_18xx_43xx.o)
    0x1a004b48   0x00000078   Code   RO         1895    i.Chip_Clock_GetMainPLLHz  lib_lpc_chip_43xx.lib(clock_18xx_43xx.o)
    0x1a004bc0   0x00000058   Code   RO         1897    i.Chip_Clock_GetRate  lib_lpc_chip_43xx.lib(clock_18xx_43xx.o)
    0x1a004c18   0x00000048   Code   RO         1901    i.Chip_Clock_SetBaseClock  lib_lpc_chip_43xx.lib(clock_18xx_43xx.o)
    0x1a004c60   0x00000050   Code   RO         1902    i.Chip_Clock_SetDivider  lib_lpc_chip_43xx.lib(clock_18xx_43xx.o)
    0x1a004cb0   0x000000be   Code   RO         1903    i.Chip_Clock_SetupMainPLLHz  lib_lpc_chip_43xx.lib(clock_18xx_43xx.o)
    0x1a004d6e   0x00000002   PAD
    0x1a004d70   0x000000b0   Code   RO         1904    i.Chip_Clock_SetupMainPLLMult  lib_lpc_chip_43xx.lib(clock_18xx_43xx.o)
    0x1a004e20   0x00000020   Code   RO         1907    i.Chip_Clock_TestMainPLLMultiplier  lib_lpc_chip_43xx.lib(clock_18xx_43xx.o)
    0x1a004e40   0x0000001c   Code   RO         2093    i.Chip_EMC_Dynamic_Init  lib_lpc_chip_43xx.lib(emc_18xx_43xx.o)
    0x1a004e5c   0x0000002c   Code   RO         2095    i.Chip_EMC_Init     lib_lpc_chip_43xx.lib(emc_18xx_43xx.o)
    0x1a004e88   0x0000001c   Code   RO         2098    i.Chip_EMC_Static_Init  lib_lpc_chip_43xx.lib(emc_18xx_43xx.o)
    0x1a004ea4   0x00000010   Code   RO          867    i.Chip_SCU_PinMuxSet  lib_lpc_board_keil_mcb_4357.lib(board.o)
    0x1a004eb4   0x00000030   Code   RO         1331    i.Chip_SCU_SetPinMuxing  lib_lpc_board_keil_mcb_4357.lib(board_sysinit.o)
    0x1a004ee4   0x0000009c   Code   RO         2633    i.Chip_SetupCoreClock  lib_lpc_chip_43xx.lib(sysinit_18xx_43xx.o)
    0x1a004f80   0x0000000a   Code   RO         1616    i.Chip_UART_DisableDivisorAccess  lib_lpc_chip_43xx.lib(uart_18xx_43xx.o)
    0x1a004f8a   0x0000000a   Code   RO         1617    i.Chip_UART_EnableDivisorAccess  lib_lpc_chip_43xx.lib(uart_18xx_43xx.o)
    0x1a004f94   0x00000030   Code   RO         1619    i.Chip_UART_GetClockIndex  lib_lpc_chip_43xx.lib(uart_18xx_43xx.o)
    0x1a004fc4   0x0000004c   Code   RO         1621    i.Chip_UART_Init    lib_lpc_chip_43xx.lib(uart_18xx_43xx.o)
    0x1a005010   0x00000042   Code   RO         1633    i.Chip_UART_SetBaud  lib_lpc_chip_43xx.lib(uart_18xx_43xx.o)
    0x1a005052   0x00000006   Code   RO         1635    i.Chip_UART_SetDivisorLatches  lib_lpc_chip_43xx.lib(uart_18xx_43xx.o)
    0x1a005058   0x00000014   Code   RO         1401    i.SystemCoreClockUpdate  lib_lpc_chip_43xx.lib(chip_18xx_43xx.o)
    0x1a00506c   0x00000006   Code   RO          869    i._sys_exit         lib_lpc_board_keil_mcb_4357.lib(board.o)
    0x1a005072   0x00000002   PAD
    0x1a005074   0x00000038   Code   RO         2099    i.convertTimmingParam  lib_lpc_chip_43xx.lib(emc_18xx_43xx.o)
    0x1a0050ac   0x00000008   Code   RO          873    i.ferror            lib_lpc_board_keil_mcb_4357.lib(board.o)
    0x1a0050b4   0x00000050   Code   RO         1787    i.fpuInit           lib_lpc_chip_43xx.lib(fpu_init.o)
    0x1a005104   0x00000014   Code   RO          875    i.fputc             lib_lpc_board_keil_mcb_4357.lib(board.o)
    0x1a005118   0x00000028   Code   RO         2100    i.getColsLen        lib_lpc_chip_43xx.lib(emc_18xx_43xx.o)
    0x1a005140   0x000001e8   Code   RO         2101    i.initDynMem        lib_lpc_chip_43xx.lib(emc_18xx_43xx.o)
    0x1a005328   0x00000068   Code   RO         2102    i.initStaticMem     lib_lpc_chip_43xx.lib(emc_18xx_43xx.o)
    0x1a005390   0x0000000a   Code   RO         2884    x$fpl$fpinit        fz_wm.l(fpinit.o)
    0x1a00539a   0x00000002   PAD
    0x1a00539c   0x00000040   Data   RO          883    .constdata          lib_lpc_board_keil_mcb_4357.lib(board.o)
    0x1a0053dc   0x000002bc   Data   RO         1332    .constdata          lib_lpc_board_keil_mcb_4357.lib(board_sysinit.o)
    0x1a005698   0x0000006c   Data   RO         1908    .constdata          lib_lpc_chip_43xx.lib(clock_18xx_43xx.o)
    0x1a005704   0x00000048   Data   RO         2637    .constdata          lib_lpc_chip_43xx.lib(sysinit_18xx_43xx.o)
    0x1a00574c   0x00000020   Data   RO         2939    Region$$Table       anon$$obj.o


==============================================================================

Image component sizes


      Code (inc. data)   RO Data    RW Data    ZI Data      Debug   Object Name

       164         16          0          0          0        396   cpu.o
       370          0          0          0          0       6776   fifo.o
        68         28        276          0       1792        948   keil_startup_lpc18xx43xx.o
        64          6          0          0          0       1187   lpc43xx_gpio.o
       544         44          0         20         40      30177   lpc43xx_i2c0.o
       816         36          0         12          0       3324   lpc43xx_lcd.o
        20          4          0          0          0       1017   lpc43xx_scu.o
      1064         28          0          0          0       2070   lpc43xx_sdram.o
       640         48          0         16       1868      37219   main.o
       324          0          0          0          0       1398   port.o
        16          0          0          0          0       1767   port_hook.o
     11080        330          0         88       4840      62411   raw-os.o
       220         32          0          0       1292      31068   sct_rgb_color.o
        28          8          0          0          0      26937   sysinit.o
       136          0          0          0          0       1484   user_extension.o
      1392         60          0          0          0      14563   yacb21common.o

    ----------------------------------------------------------------------
     16948        640        308        136       9836     222742   Object Totals
         0          0         32          0          0          0   (incl. Generated)
         2          0          0          0          4          0   (incl. Padding)

    ----------------------------------------------------------------------

      Code (inc. data)   RO Data    RW Data    ZI Data      Debug   Library Member Name

         8          0          0          0          0         68   __main.o
       104          0          0          0          0         84   __printf.o
        52          8          0          0          0          0   __scatter.o
        26          0          0          0          0          0   __scatter_copy.o
        28          0          0          0          0          0   __scatter_zi.o
        48          6          0          0          0         96   _printf_char_common.o
        36          4          0          0          0         80   _printf_char_file.o
         6          0          0          0          0          0   _printf_d.o
       116         16          0          0          0         92   _printf_dec.o
       178          0          0          0          0         88   _printf_intcommon.o
         0          0          0          0          0          0   _printf_percent.o
         4          0          0          0          0          0   _printf_percent_end.o
        12          0          0          0          0         72   exit.o
         6          0          0          0          0        152   heapauxi.o
         2          0          0          0          0          0   libinit.o
         6          0          0          0          0          0   libinit2.o
         2          0          0          0          0          0   libshutdown.o
         2          0          0          0          0          0   libshutdown2.o
         8          4          0          0         96         68   libspace.o
        24          4          0          0          0         84   noretval__2printf.o
        78          0          0          0          0         80   rt_memclr_w.o
         0          0          0          0          0          0   rtentry.o
        12          0          0          0          0          0   rtentry2.o
         6          0          0          0          0          0   rtentry4.o
         2          0          0          0          0          0   rtexit.o
        10          0          0          0          0          0   rtexit2.o
        74          0          0          0          0         80   sys_stackheap_outer.o
        10          0          0          0          0        116   fpinit.o
       150         18         64         20          0      31758   board.o
       428         70        700          0          0      11716   board_sysinit.o
        20          6          0          4          0      11910   chip_18xx_43xx.o
      1468        192        108          8          0      13691   clock_18xx_43xx.o
       788         22          0          0          0       5204   emc_18xx_43xx.o
        80         18          0          0          0       1234   fpu_init.o
       156         18         72          0          0       1282   sysinit_18xx_43xx.o
       216         16          0          0          0       9189   uart_18xx_43xx.o

    ----------------------------------------------------------------------
      4180        402        944         32        100      87144   Library Totals
        14          0          0          0          4          0   (incl. Padding)

    ----------------------------------------------------------------------

      Code (inc. data)   RO Data    RW Data    ZI Data      Debug   Library Name

       850         42          0          0         96       1044   c_w.l
        10          0          0          0          0        116   fz_wm.l
       578         88        764         20          0      43474   lib_lpc_board_keil_mcb_4357.lib
      2728        272        180         12          0      42510   lib_lpc_chip_43xx.lib

    ----------------------------------------------------------------------
      4180        402        944         32        100      87144   Library Totals

    ----------------------------------------------------------------------

==============================================================================


      Code (inc. data)   RO Data    RW Data    ZI Data      Debug   

     21128       1042       1252        168       9936     302870   Grand Totals
     21128       1042       1252        168       9936     302870   ELF Image Totals
     21128       1042       1252        168          0          0   ROM Totals

==============================================================================

    Total RO  Size (Code + RO Data)                22380 (  21.86kB)
    Total RW  Size (RW Data + ZI Data)             10104 (   9.87kB)
    Total ROM Size (Code + RO Data + RW Data)      22548 (  22.02kB)

==============================================================================

