


ARM Macro Assembler    Page 1 


    1 00000000         
    2 00000000                 EXTERN           raw_task_active
    3 00000000                 EXTERN           high_ready_obj
    4 00000000         
    5 00000000                 IMPORT           raw_stack_check
    6 00000000         
    7 00000000         
    8 00000000                 EXPORT           OS_CPU_SR_Save
    9 00000000                 EXPORT           OS_CPU_SR_Restore
   10 00000000         
   11 00000000                 EXPORT           CPU_IntDis
   12 00000000                 EXPORT           CPU_IntEn
   13 00000000         
   14 00000000         
   15 00000000         
   16 00000000                 EXPORT           raw_start_first_task
   17 00000000         
   18 00000000                 EXPORT           port_task_switch
   19 00000000                 EXPORT           raw_int_switch
   20 00000000         
   21 00000000                 EXPORT           PendSV_Handler
   22 00000000         
   23 00000000         
   24 00000000         ;*******************************************************
                       *************************************************
   25 00000000         ;                                                EQUATES
                       
   26 00000000         ;*******************************************************
                       *************************************************
   27 00000000         
   28 00000000 E000ED04 
                       NVIC_INT_CTRL
                               EQU              0xE000ED04  ; Interrupt control
                                                             state register.
   29 00000000 E000ED22 
                       NVIC_SYSPRI14
                               EQU              0xE000ED22  ; System priority r
                                                            egister (priority 1
                                                            4).
   30 00000000 000000FF 
                       NVIC_PENDSV_PRI
                               EQU              0xFF        ; PendSV priority v
                                                            alue (lowest).
   31 00000000 10000000 
                       NVIC_PENDSVSET
                               EQU              0x10000000  ; Value to trigger 
                                                            PendSV exception.
   32 00000000         
   33 00000000         ;*******************************************************
                       *************************************************
   34 00000000         ;                                      CODE GENERATION D
                       IRECTIVES
   35 00000000         ;*******************************************************
                       *************************************************
   36 00000000         
   37 00000000                 AREA             |.text|, CODE, READONLY, ALIGN=
2
   38 00000000                 THUMB
   39 00000000                 REQUIRE8



ARM Macro Assembler    Page 2 


   40 00000000                 PRESERVE8
   41 00000000         
   42 00000000         OS_CPU_SR_Save
   43 00000000 F3EF 8010       MRS              R0, PRIMASK
   44 00000004 B672            CPSID            I
   45 00000006 4770            BX               LR
   46 00000008         
   47 00000008         OS_CPU_SR_Restore
   48 00000008 F380 8810       MSR              PRIMASK, R0
   49 0000000C 4770            BX               LR
   50 0000000E         
   51 0000000E         
   52 0000000E         
   53 0000000E         
   54 0000000E         
   55 0000000E         CPU_IntDis
   56 0000000E B672            CPSID            I
   57 00000010 4770            BX               LR
   58 00000012         
   59 00000012         
   60 00000012         CPU_IntEn
   61 00000012 B662            CPSIE            I
   62 00000014 4770            BX               LR
   63 00000016         
   64 00000016         raw_start_first_task
   65 00000016 481C            LDR              R0, =NVIC_SYSPRI14
   66 00000018 491C            LDR              R1, =NVIC_PENDSV_PRI
   67 0000001A 7001            STRB             R1, [R0]
   68 0000001C         
   69 0000001C 2000            MOVS             R0, #0
   70 0000001E F380 8809       MSR              PSP, R0
   71 00000022         
   72 00000022         ;align msp to 8 byte
   73 00000022 F3EF 8008       MRS              R0, MSP
   74 00000026 08C0            LSRS             R0, R0, #3
   75 00000028 00C0            LSLS             R0, R0, #3
   76 0000002A F380 8808       MSR              MSP, R0
   77 0000002E         
   78 0000002E 4818            LDR              R0, =NVIC_INT_CTRL
   79 00000030 4918            LDR              R1, =NVIC_PENDSVSET
   80 00000032 6001            STR              R1, [R0]
   81 00000034         
   82 00000034 B662            CPSIE            I
   83 00000036         
   84 00000036         OSStartHang
   85 00000036 E7FE            B                OSStartHang
   86 00000038 BF00            nop
   87 0000003A         
   88 0000003A         
   89 0000003A         
   90 0000003A         port_task_switch
   91 0000003A 4815            LDR              R0, =NVIC_INT_CTRL
   92 0000003C 4915            LDR              R1, =NVIC_PENDSVSET
   93 0000003E 6001            STR              R1, [R0]
   94 00000040 4770            BX               LR
   95 00000042         
   96 00000042         
   97 00000042         raw_int_switch
   98 00000042 4813            LDR              R0, =NVIC_INT_CTRL



ARM Macro Assembler    Page 3 


   99 00000044 4913            LDR              R1, =NVIC_PENDSVSET
  100 00000046 6001            STR              R1, [R0]
  101 00000048 4770            BX               LR
  102 0000004A         
  103 0000004A         
  104 0000004A         PendSV_Handler
  105 0000004A         
  106 0000004A B672            CPSID            I
  107 0000004C F3EF 8009       MRS              R0, PSP
  108 00000050 2800            CMP              R0, #0
  109 00000052 D00A            BEQ              OS_CPU_PendSVHandler_nosave
  110 00000054         
  111 00000054 3810            SUBS             R0, R0, #0x10
  112 00000056 C0F0            STM              R0!, {R4-R7}
  113 00000058 3810            SUBS             R0, R0, #0x10
  114 0000005A         
  115 0000005A 490F            LDR              R1, =raw_task_active
  116 0000005C 6809            LDR              R1, [R1]
  117 0000005E 6008            STR              R0, [R1]
  118 00000060         
  119 00000060         
  120 00000060 B500            PUSH             {R14}       ; Save LR exc_retur
                                                            n value
  121 00000062 480E            LDR              R0, =raw_stack_check 
                                                            ; OSTaskSwHook();
  122 00000064 4780            BLX              R0
  123 00000066 BC01            POP              {R0}
  124 00000068 4686            MOV              R14, R0
  125 0000006A         
  126 0000006A         
  127 0000006A         
  128 0000006A         OS_CPU_PendSVHandler_nosave
  129 0000006A         
  130 0000006A 480B            LDR              R0, =raw_task_active
  131 0000006C 490C            LDR              R1, =high_ready_obj
  132 0000006E 680A            LDR              R2, [R1]
  133 00000070 6002            STR              R2, [R0]
  134 00000072         
  135 00000072 6810            LDR              R0, [R2]    ; R0 is new process
                                                             SP; SP = OSTCBHigh
                                                            Rdy->OSTCBStkPtr;
  136 00000074         
  137 00000074 C8F0            LDM              R0!, {R4-R7} ; Restore R4-R7 fr
                                                            om new process stac
                                                            k
  138 00000076         
  139 00000076 F380 8809       MSR              PSP, R0     ; Load PSP with new
                                                             process SP
  140 0000007A         
  141 0000007A 4670            MOV              R0,  R14
  142 0000007C 2104            MOVS             R1,  #0x04  ; Immediate move to
                                                             register
  143 0000007E 4308            ORRS             R0,  R1     ; Ensure exception 
                                                            return uses process
                                                             stack
  144 00000080 4686            MOV              R14, R0
  145 00000082 B662            CPSIE            I
  146 00000084 4770            BX               LR
  147 00000086         



ARM Macro Assembler    Page 4 


  148 00000086 00 00           ALIGN
  149 00000088         
  150 00000088                 END
              E000ED22 
              000000FF 
              E000ED04 
              10000000 
              00000000 
              00000000 
              00000000 
Command Line: --debug --xref --diag_suppress=9931 --cpu=Cortex-M0 --apcs=interw
ork --depend=.\output\cpu_m0.d -o.\output\cpu_m0.o -ID:\Keil_v5\ARM\RV31\INC -I
D:\Keil_v5\ARM\CMSIS\Include -ID:\Keil_v5\ARM\Inc\NXP\LPC43xx --predefine="__UV
ISION_VERSION SETA 516" --list=.\output\cpu_m0.lst ..\..\..\..\software\kernel\
port_m0\cpu_m0.asm



ARM Macro Assembler    Page 1 Alphabetic symbol ordering
Relocatable symbols

.text 00000000

Symbol: .text
   Definitions
      At line 37 in file ..\..\..\..\software\kernel\port_m0\cpu_m0.asm
   Uses
      None
Comment: .text unused
CPU_IntDis 0000000E

Symbol: CPU_IntDis
   Definitions
      At line 55 in file ..\..\..\..\software\kernel\port_m0\cpu_m0.asm
   Uses
      At line 11 in file ..\..\..\..\software\kernel\port_m0\cpu_m0.asm
Comment: CPU_IntDis used once
CPU_IntEn 00000012

Symbol: CPU_IntEn
   Definitions
      At line 60 in file ..\..\..\..\software\kernel\port_m0\cpu_m0.asm
   Uses
      At line 12 in file ..\..\..\..\software\kernel\port_m0\cpu_m0.asm
Comment: CPU_IntEn used once
OSStartHang 00000036

Symbol: OSStartHang
   Definitions
      At line 84 in file ..\..\..\..\software\kernel\port_m0\cpu_m0.asm
   Uses
      At line 85 in file ..\..\..\..\software\kernel\port_m0\cpu_m0.asm
Comment: OSStartHang used once
OS_CPU_PendSVHandler_nosave 0000006A

Symbol: OS_CPU_PendSVHandler_nosave
   Definitions
      At line 128 in file ..\..\..\..\software\kernel\port_m0\cpu_m0.asm
   Uses
      At line 109 in file ..\..\..\..\software\kernel\port_m0\cpu_m0.asm
Comment: OS_CPU_PendSVHandler_nosave used once
OS_CPU_SR_Restore 00000008

Symbol: OS_CPU_SR_Restore
   Definitions
      At line 47 in file ..\..\..\..\software\kernel\port_m0\cpu_m0.asm
   Uses
      At line 9 in file ..\..\..\..\software\kernel\port_m0\cpu_m0.asm
Comment: OS_CPU_SR_Restore used once
OS_CPU_SR_Save 00000000

Symbol: OS_CPU_SR_Save
   Definitions
      At line 42 in file ..\..\..\..\software\kernel\port_m0\cpu_m0.asm
   Uses
      At line 8 in file ..\..\..\..\software\kernel\port_m0\cpu_m0.asm
Comment: OS_CPU_SR_Save used once
PendSV_Handler 0000004A

Symbol: PendSV_Handler



ARM Macro Assembler    Page 2 Alphabetic symbol ordering
Relocatable symbols

   Definitions
      At line 104 in file ..\..\..\..\software\kernel\port_m0\cpu_m0.asm
   Uses
      At line 21 in file ..\..\..\..\software\kernel\port_m0\cpu_m0.asm
Comment: PendSV_Handler used once
port_task_switch 0000003A

Symbol: port_task_switch
   Definitions
      At line 90 in file ..\..\..\..\software\kernel\port_m0\cpu_m0.asm
   Uses
      At line 18 in file ..\..\..\..\software\kernel\port_m0\cpu_m0.asm
Comment: port_task_switch used once
raw_int_switch 00000042

Symbol: raw_int_switch
   Definitions
      At line 97 in file ..\..\..\..\software\kernel\port_m0\cpu_m0.asm
   Uses
      At line 19 in file ..\..\..\..\software\kernel\port_m0\cpu_m0.asm
Comment: raw_int_switch used once
raw_start_first_task 00000016

Symbol: raw_start_first_task
   Definitions
      At line 64 in file ..\..\..\..\software\kernel\port_m0\cpu_m0.asm
   Uses
      At line 16 in file ..\..\..\..\software\kernel\port_m0\cpu_m0.asm
Comment: raw_start_first_task used once
11 symbols



ARM Macro Assembler    Page 1 Alphabetic symbol ordering
Absolute symbols

NVIC_INT_CTRL E000ED04

Symbol: NVIC_INT_CTRL
   Definitions
      At line 28 in file ..\..\..\..\software\kernel\port_m0\cpu_m0.asm
   Uses
      At line 78 in file ..\..\..\..\software\kernel\port_m0\cpu_m0.asm
      At line 91 in file ..\..\..\..\software\kernel\port_m0\cpu_m0.asm
      At line 98 in file ..\..\..\..\software\kernel\port_m0\cpu_m0.asm

NVIC_PENDSVSET 10000000

Symbol: NVIC_PENDSVSET
   Definitions
      At line 31 in file ..\..\..\..\software\kernel\port_m0\cpu_m0.asm
   Uses
      At line 79 in file ..\..\..\..\software\kernel\port_m0\cpu_m0.asm
      At line 92 in file ..\..\..\..\software\kernel\port_m0\cpu_m0.asm
      At line 99 in file ..\..\..\..\software\kernel\port_m0\cpu_m0.asm

NVIC_PENDSV_PRI 000000FF

Symbol: NVIC_PENDSV_PRI
   Definitions
      At line 30 in file ..\..\..\..\software\kernel\port_m0\cpu_m0.asm
   Uses
      At line 66 in file ..\..\..\..\software\kernel\port_m0\cpu_m0.asm
Comment: NVIC_PENDSV_PRI used once
NVIC_SYSPRI14 E000ED22

Symbol: NVIC_SYSPRI14
   Definitions
      At line 29 in file ..\..\..\..\software\kernel\port_m0\cpu_m0.asm
   Uses
      At line 65 in file ..\..\..\..\software\kernel\port_m0\cpu_m0.asm
Comment: NVIC_SYSPRI14 used once
4 symbols



ARM Macro Assembler    Page 1 Alphabetic symbol ordering
External symbols

high_ready_obj 00000000

Symbol: high_ready_obj
   Definitions
      At line 3 in file ..\..\..\..\software\kernel\port_m0\cpu_m0.asm
   Uses
      At line 131 in file ..\..\..\..\software\kernel\port_m0\cpu_m0.asm
Comment: high_ready_obj used once
raw_stack_check 00000000

Symbol: raw_stack_check
   Definitions
      At line 5 in file ..\..\..\..\software\kernel\port_m0\cpu_m0.asm
   Uses
      At line 121 in file ..\..\..\..\software\kernel\port_m0\cpu_m0.asm
Comment: raw_stack_check used once
raw_task_active 00000000

Symbol: raw_task_active
   Definitions
      At line 2 in file ..\..\..\..\software\kernel\port_m0\cpu_m0.asm
   Uses
      At line 115 in file ..\..\..\..\software\kernel\port_m0\cpu_m0.asm
      At line 130 in file ..\..\..\..\software\kernel\port_m0\cpu_m0.asm

3 symbols
351 symbols in table
