Component: ARM Compiler 5.06 (build 20) Tool: armlink [4d35a3]

==============================================================================

Section Cross References

    raw-os.o(.text) refers to cpu_m0.o(.text) for OS_CPU_SR_Save
    raw-os.o(.text) refers to port_error_process.o(.text) for port_system_error_process
    raw-os.o(.text) refers to raw-os.o(i.__ARM_common_switch8) for __ARM_common_switch8
    raw-os.o(.text) refers to raw-os.o(.data) for .data
    raw-os.o(.text) refers to raw-os.o(.bss) for .bss
    raw-os.o(.text) refers to user_extension.o(.text) for raw_memset
    raw-os.o(.text) refers to port_m0.o(.text) for port_stack_init
    raw-os.o(.text) refers to port_hook_m0.o(.text) for task_create_hook
    raw-os.o(.text) refers to aeabi_sdiv.o(.text) for __aeabi_uidivmod
    raw-os.o(.text) refers to llmul.o(.text) for __aeabi_lmul
    raw-os.o(.text) refers to lludiv.o(.text) for __aeabi_uldivmod
    cpu_m0.o(.text) refers to raw-os.o(.data) for raw_task_active
    cpu_m0.o(.text) refers to raw-os.o(.text) for raw_stack_check
    port_m0.o(.text) refers to keil_startup_lpc43xx_m0.o(STACK) for Stack_Mem
    port_error_process.o(.text) refers to cpu_m0.o(.text) for OS_CPU_SR_Save
    main.o(.text) refers to _printf_percent.o(.ARM.Collect$$_printf_percent$$00000000) for _printf_percent
    main.o(.text) refers to _printf_d.o(.ARM.Collect$$_printf_percent$$00000009) for _printf_d
    main.o(.text) refers to _printf_dec.o(.text) for _printf_int_dec
==============================================================================

Removing Unused input sections from the image.

    Removing port_extension.o(.text), (48 bytes).
    Removing main.o(.rev16_text), (4 bytes).
    Removing main.o(.revsh_text), (4 bytes).
    Removing m0_img_ldr.o(.rev16_text), (4 bytes).
    Removing m0_img_ldr.o(.revsh_text), (4 bytes).
    Removing board.o(.rev16_text), (4 bytes).
    Removing board.o(.revsh_text), (4 bytes).
    Removing board.o(i.Board_ADC_Init), (2 bytes).
    Removing board.o(i.Board_Audio_Init), (68 bytes).
    Removing board.o(i.Board_Buttons_Init), (28 bytes).
    Removing board.o(i.Board_DAC_Init), (16 bytes).
    Removing board.o(i.Board_Debug_Init), (40 bytes).
    Removing board.o(i.Board_ENET_GetMacADDR), (28 bytes).
    Removing board.o(i.Board_GetTouchPos), (56 bytes).
    Removing board.o(i.Board_I2C_GetTouchPos), (160 bytes).
    Removing board.o(i.Board_I2C_Init), (44 bytes).
    Removing board.o(i.Board_Init), (92 bytes).
    Removing board.o(i.Board_InitLCDController), (600 bytes).
==============================================================================

Image Symbol Table

    Local Symbols

    Symbol Name                              Value     Ov Type        Size  Object(Section)

    ../clib/angel/boardlib.s                 0x00000000   Number         0  boardinit3.o ABSOLUTE
    ../clib/angel/boardlib.s                 0x00000000   Number         0  boardshut.o ABSOLUTE
    ../clib/angel/boardlib.s                 0x00000000   Number         0  boardinit2.o ABSOLUTE
    ../clib/angel/boardlib.s                 0x00000000   Number         0  boardinit1.o ABSOLUTE
    ../clib/angel/handlers.s                 0x00000000   Number         0  __scatter_copy.o ABSOLUTE
    ../clib/angel/handlers.s                 0x00000000   Number         0  __scatter_zi.o ABSOLUTE
    ../clib/angel/kernel.s                   0x00000000   Number         0  __rtentry.o ABSOLUTE
    ../clib/angel/kernel.s                   0x00000000   Number         0  rtexit2.o ABSOLUTE
    ../clib/angel/kernel.s                   0x00000000   Number         0  __rtentry2.o ABSOLUTE
    ../clib/angel/kernel.s                   0x00000000   Number         0  rtexit.o ABSOLUTE
    ../clib/angel/kernel.s                   0x00000000   Number         0  __rtentry4.o ABSOLUTE
    ../clib/angel/rt.s                       0x00000000   Number         0  aeabi_idiv0.o ABSOLUTE
    ../clib/angel/rt.s                       0x00000000   Number         0  aeabi_ldiv0.o ABSOLUTE
    ../clib/angel/rt.s                       0x00000000   Number         0  aeabi_ldiv0_sigfpe.o ABSOLUTE
    ../clib/angel/rt.s                       0x00000000   Number         0  aeabi_idiv0_sigfpe.o ABSOLUTE
    ../clib/angel/rt.s                       0x00000000   Number         0  rt_div0.o ABSOLUTE
    ../clib/angel/rt.s                       0x00000000   Number         0  rt_raise.o ABSOLUTE
    ../clib/angel/scatterp.s                 0x00000000   Number         0  __scatter.o ABSOLUTE
    ../clib/angel/startup.s                  0x00000000   Number         0  __main.o ABSOLUTE
    ../clib/angel/sys.s                      0x00000000   Number         0  use_no_semi.o ABSOLUTE
    ../clib/angel/sys.s                      0x00000000   Number         0  libspace.o ABSOLUTE
    ../clib/angel/sys.s                      0x00000000   Number         0  tempstk.o ABSOLUTE
    ../clib/angel/sys.s                      0x00000000   Number         0  sys_stackheap_outer.o ABSOLUTE
    ../clib/angel/sys.s                      0x00000000   Number         0  indicate_semi.o ABSOLUTE
    ../clib/angel/sysapp.c                   0x00000000   Number         0  sys_wrch.o ABSOLUTE
    ../clib/angel/sysapp.c                   0x00000000   Number         0  sys_command.o ABSOLUTE
    ../clib/armsys.c                         0x00000000   Number         0  _get_argv_nomalloc.o ABSOLUTE
    ../clib/armsys.c                         0x00000000   Number         0  no_argv.o ABSOLUTE
    ../clib/armsys.c                         0x00000000   Number         0  argv_veneer.o ABSOLUTE
    ../clib/division.c                       0x00000000   Number         0  rtudiv10.o ABSOLUTE
    ../clib/division.c                       0x00000000   Number         0  lludiv.o ABSOLUTE
    ../clib/division.s                       0x00000000   Number         0  aeabi_sdiv.o ABSOLUTE
    ../clib/division.s                       0x00000000   Number         0  aeabi_sdiv_div0.o ABSOLUTE
    ../clib/heapalloc.c                      0x00000000   Number         0  hrguard.o ABSOLUTE
    ../clib/heapaux.c                        0x00000000   Number         0  heapauxi.o ABSOLUTE
    ../clib/libinit.s                        0x00000000   Number         0  libinit.o ABSOLUTE
    ../clib/libinit.s                        0x00000000   Number         0  libinit2.o ABSOLUTE
    ../clib/libinit.s                        0x00000000   Number         0  libshutdown2.o ABSOLUTE
    ../clib/libinit.s                        0x00000000   Number         0  libshutdown.o ABSOLUTE
    ../clib/longlong.c                       0x00000000   Number         0  llmul.o ABSOLUTE
    ../clib/memcpset.c                       0x00000000   Number         0  rt_memcpy.o ABSOLUTE
    ../clib/memcpset.c                       0x00000000   Number         0  rt_memclr.o ABSOLUTE
    ../clib/memcpset.c                       0x00000000   Number         0  rt_memcpy.o ABSOLUTE
    ../clib/printf.c                         0x00000000   Number         0  __printf_flags_ss.o ABSOLUTE
    ../clib/printf.c                         0x00000000   Number         0  __printf_wp.o ABSOLUTE
    ../clib/printf.c                         0x00000000   Number         0  __printf_flags_wp.o ABSOLUTE
    ../clib/printf.c                         0x00000000   Number         0  __printf_flags_ss_wp.o ABSOLUTE
    ../clib/printf.c                         0x00000000   Number         0  __printf_ss_wp.o ABSOLUTE
    ../clib/printf.c                         0x00000000   Number         0  __printf_nopercent.o ABSOLUTE
    ../clib/printf.c                         0x00000000   Number         0  _printf_char_common.o ABSOLUTE
    ../clib/printf.c                         0x00000000   Number         0  __printf.o ABSOLUTE
    ../clib/printf.c                         0x00000000   Number         0  _printf_char_file.o ABSOLUTE
    ../clib/printf.c                         0x00000000   Number         0  _printf_dec.o ABSOLUTE
    ../clib/printf.c                         0x00000000   Number         0  _printf_intcommon.o ABSOLUTE
    ../clib/printf.c                         0x00000000   Number         0  __printf_flags.o ABSOLUTE
    ../clib/printf.c                         0x00000000   Number         0  __printf_ss.o ABSOLUTE
    ../clib/printf.c                         0x00000000   Number         0  __2printf.o ABSOLUTE
    ../clib/printf.c                         0x00000000   Number         0  noretval__2printf.o ABSOLUTE
    ../clib/printf_percent.s                 0x00000000   Number         0  _printf_percent.o ABSOLUTE
    ../clib/printf_percent.s                 0x00000000   Number         0  _printf_d.o ABSOLUTE
    ../clib/printf_percent.s                 0x00000000   Number         0  _printf_percent_end.o ABSOLUTE
    ../clib/signal.c                         0x00000000   Number         0  defsig_fpe_formal.o ABSOLUTE
    ../clib/signal.c                         0x00000000   Number         0  defsig_cppl_inner.o ABSOLUTE
    ../clib/signal.c                         0x00000000   Number         0  defsig_general.o ABSOLUTE
    ../clib/signal.c                         0x00000000   Number         0  __raise.o ABSOLUTE
    ../clib/signal.c                         0x00000000   Number         0  defsig_segv_inner.o ABSOLUTE
    ../clib/signal.c                         0x00000000   Number         0  defsig_other.o ABSOLUTE
    ../clib/signal.c                         0x00000000   Number         0  defsig_fpe_inner.o ABSOLUTE
    ../clib/signal.c                         0x00000000   Number         0  defsig_exit.o ABSOLUTE
    ../clib/signal.c                         0x00000000   Number         0  defsig_fpe_outer.o ABSOLUTE
    ../clib/signal.c                         0x00000000   Number         0  defsig_rtred_inner.o ABSOLUTE
    ../clib/signal.c                         0x00000000   Number         0  defsig_rtmem_inner.o ABSOLUTE
    ../clib/signal.c                         0x00000000   Number         0  defsig_abrt_inner.o ABSOLUTE
    ../clib/signal.c                         0x00000000   Number         0  defsig_rtmem_outer.o ABSOLUTE
    ../clib/signal.c                         0x00000000   Number         0  defsig_rtmem_formal.o ABSOLUTE
    ../clib/signal.c                         0x00000000   Number         0  defsig_stak_inner.o ABSOLUTE
    ../clib/signal.c                         0x00000000   Number         0  defsig_pvfn_inner.o ABSOLUTE
    ../clib/signal.s                         0x00000000   Number         0  defsig.o ABSOLUTE
    ../clib/stdlib.c                         0x00000000   Number         0  exit.o ABSOLUTE
    ../fplib/cfplib/fpinit.c                 0x00000000   Number         0  fpinit.o ABSOLUTE
    ..\..\..\..\software\kernel\port\port_error_process.c 0x00000000   Number         0  port_error_process.o ABSOLUTE
    ..\..\..\..\software\kernel\port\port_extension.c 0x00000000   Number         0  port_extension.o ABSOLUTE
    ..\..\..\..\software\kernel\port\raw_trace_port.c 0x00000000   Number         0  raw_trace_port.o ABSOLUTE
    ..\..\..\..\software\kernel\port\user_extension.c 0x00000000   Number         0  user_extension.o ABSOLUTE
    ..\..\..\..\software\kernel\port_m0\cpu_m0.asm 0x00000000   Number         0  cpu_m0.o ABSOLUTE
    ..\..\..\..\software\kernel\port_m0\port_hook_m0.c 0x00000000   Number         0  port_hook_m0.o ABSOLUTE
    ..\..\..\..\software\kernel\port_m0\port_m0.c 0x00000000   Number         0  port_m0.o ABSOLUTE
    ..\..\..\..\software\kernel\raw-os\raw-os.c 0x00000000   Number         0  raw-os.o ABSOLUTE
    ..\..\board_common\uda1380.c             0x00000000   Number         0  uda1380.o ABSOLUTE
    ..\..\examples\dual_m0\m0_img_ldr.c      0x00000000   Number         0  m0_img_ldr.o ABSOLUTE
    ..\..\examples\dual_m0\main.c            0x00000000   Number         0  main.o ABSOLUTE
    ..\..\startup_code\keil_startup_lpc43xx_m0.S 0x00000000   Number         0  keil_startup_lpc43xx_m0.o ABSOLUTE
    ..\\..\\board_common\\uda1380.c          0x00000000   Number         0  uda1380.o ABSOLUTE
    ..\\..\\examples\\dual_m0\\m0_img_ldr.c  0x00000000   Number         0  m0_img_ldr.o ABSOLUTE
    ..\\..\\examples\\dual_m0\\main.c        0x00000000   Number         0  main.o ABSOLUTE
    ..\chip_common\ring_buffer.c             0x00000000   Number         0  ring_buffer.o ABSOLUTE
    board.c                                  0x00000000   Number         0  board.o ABSOLUTE
    board.c                                  0x00000000   Number         0  board.o ABSOLUTE
    clock_18xx_43xx.c                        0x00000000   Number         0  clock_18xx_43xx.o ABSOLUTE
    clock_18xx_43xx.c                        0x00000000   Number         0  clock_18xx_43xx.o ABSOLUTE
    dc.s                                     0x00000000   Number         0  dc.o ABSOLUTE
    gpio_18xx_43xx.c                         0x00000000   Number         0  gpio_18xx_43xx.o ABSOLUTE
    gpio_18xx_43xx.c                         0x00000000   Number         0  gpio_18xx_43xx.o ABSOLUTE
    i2c_18xx_43xx.c                          0x00000000   Number         0  i2c_18xx_43xx.o ABSOLUTE
    i2c_18xx_43xx.c                          0x00000000   Number         0  i2c_18xx_43xx.o ABSOLUTE
    i2s_18xx_43xx.c                          0x00000000   Number         0  i2s_18xx_43xx.o ABSOLUTE
    i2s_18xx_43xx.c                          0x00000000   Number         0  i2s_18xx_43xx.o ABSOLUTE
    rgu_18xx_43xx.c                          0x00000000   Number         0  rgu_18xx_43xx.o ABSOLUTE
    rgu_18xx_43xx.c                          0x00000000   Number         0  rgu_18xx_43xx.o ABSOLUTE
    ritimer_18xx_43xx.c                      0x00000000   Number         0  ritimer_18xx_43xx.o ABSOLUTE
    ritimer_18xx_43xx.c                      0x00000000   Number         0  ritimer_18xx_43xx.o ABSOLUTE
    ssp_18xx_43xx.c                          0x00000000   Number         0  ssp_18xx_43xx.o ABSOLUTE
    ssp_18xx_43xx.c                          0x00000000   Number         0  ssp_18xx_43xx.o ABSOLUTE
    uart_18xx_43xx.c                         0x00000000   Number         0  uart_18xx_43xx.o ABSOLUTE
    uart_18xx_43xx.c                         0x00000000   Number         0  uart_18xx_43xx.o ABSOLUTE
    .data                                    0x10080000   Section       56  raw-os.o(.data)
    .data                                    0x10080038   Section        4  main.o(.data)
    .data                                    0x1008003c   Section        4  board.o(.data)
    .data                                    0x10080040   Section        8  clock_18xx_43xx.o(.data)
    audio_usb_pll_freq                       0x10080040   Data           8  clock_18xx_43xx.o(.data)
    .bss                                     0x10080048   Section     3444  raw-os.o(.bss)
    .bss                                     0x10080dbc   Section     1172  main.o(.bss)
    .bss                                     0x10081250   Section       96  libspace.o(.bss)
    HEAP                                     0x100812b0   Section      512  keil_startup_lpc43xx_m0.o(HEAP)
    Heap_Mem                                 0x100812b0   Data         512  keil_startup_lpc43xx_m0.o(HEAP)
    STACK                                    0x100814b0   Section     2048  keil_startup_lpc43xx_m0.o(STACK)
    __initial_sp                             0x10081cb0   Data           0  keil_startup_lpc43xx_m0.o(STACK)
    RESET                                    0x1b000000   Section      192  keil_startup_lpc43xx_m0.o(RESET)
    !!!main                                  0x1b0000c0   Section        8  __main.o(!!!main)
    !!!scatter                               0x1b0000c8   Section       60  __scatter.o(!!!scatter)
    !!handler_copy                           0x1b000104   Section       26  __scatter_copy.o(!!handler_copy)
    !!handler_zi                             0x1b000120   Section       28  __scatter_zi.o(!!handler_zi)
    .ARM.Collect$$_printf_percent$$00000000  0x1b00013c   Section        2  _printf_percent.o(.ARM.Collect$$_printf_percent$$00000000)
    .ARM.Collect$$_printf_percent$$00000009  0x1b00013e   Section       10  _printf_d.o(.ARM.Collect$$_printf_percent$$00000009)
    .ARM.Collect$$_printf_percent$$00000017  0x1b000148   Section        4  _printf_percent_end.o(.ARM.Collect$$_printf_percent$$00000017)
    .ARM.Collect$$libinit$$00000000          0x1b00014c   Section        2  libinit.o(.ARM.Collect$$libinit$$00000000)
    .ARM.Collect$$libinit$$00000002          0x1b00014e   Section        0  libinit2.o(.ARM.Collect$$libinit$$00000002)
    .ARM.Collect$$libinit$$00000004          0x1b00014e   Section        0  libinit2.o(.ARM.Collect$$libinit$$00000004)
    .ARM.Collect$$libinit$$0000000A          0x1b00014e   Section        0  libinit2.o(.ARM.Collect$$libinit$$0000000A)
    .ARM.Collect$$libinit$$0000000C          0x1b00014e   Section        0  libinit2.o(.ARM.Collect$$libinit$$0000000C)
    .ARM.Collect$$libinit$$0000000E          0x1b00014e   Section        0  libinit2.o(.ARM.Collect$$libinit$$0000000E)
    .ARM.Collect$$libinit$$00000011          0x1b00014e   Section        0  libinit2.o(.ARM.Collect$$libinit$$00000011)
    .ARM.Collect$$libinit$$00000013          0x1b00014e   Section        0  libinit2.o(.ARM.Collect$$libinit$$00000013)
    .ARM.Collect$$libinit$$00000015          0x1b00014e   Section        0  libinit2.o(.ARM.Collect$$libinit$$00000015)
    .ARM.Collect$$libinit$$00000017          0x1b00014e   Section        0  libinit2.o(.ARM.Collect$$libinit$$00000017)
    .ARM.Collect$$libinit$$00000019          0x1b00014e   Section        0  libinit2.o(.ARM.Collect$$libinit$$00000019)
    .ARM.Collect$$libinit$$0000001B          0x1b00014e   Section        0  libinit2.o(.ARM.Collect$$libinit$$0000001B)
    .ARM.Collect$$libinit$$0000001D          0x1b00014e   Section        0  libinit2.o(.ARM.Collect$$libinit$$0000001D)
    .ARM.Collect$$libinit$$0000001F          0x1b00014e   Section        0  libinit2.o(.ARM.Collect$$libinit$$0000001F)
    .ARM.Collect$$libinit$$00000021          0x1b00014e   Section        0  libinit2.o(.ARM.Collect$$libinit$$00000021)
    .ARM.Collect$$libinit$$00000023          0x1b00014e   Section        0  libinit2.o(.ARM.Collect$$libinit$$00000023)
    .ARM.Collect$$libinit$$00000025          0x1b00014e   Section        0  libinit2.o(.ARM.Collect$$libinit$$00000025)
    .ARM.Collect$$libinit$$0000002C          0x1b00014e   Section        0  libinit2.o(.ARM.Collect$$libinit$$0000002C)
    .ARM.Collect$$libinit$$0000002E          0x1b00014e   Section        0  libinit2.o(.ARM.Collect$$libinit$$0000002E)
    .ARM.Collect$$libinit$$00000030          0x1b00014e   Section        0  libinit2.o(.ARM.Collect$$libinit$$00000030)
    .ARM.Collect$$libinit$$00000032          0x1b00014e   Section        0  libinit2.o(.ARM.Collect$$libinit$$00000032)
    .ARM.Collect$$libinit$$00000033          0x1b00014e   Section        2  libinit2.o(.ARM.Collect$$libinit$$00000033)
    .ARM.Collect$$libshutdown$$00000000      0x1b000150   Section        2  libshutdown.o(.ARM.Collect$$libshutdown$$00000000)
    .ARM.Collect$$libshutdown$$00000002      0x1b000152   Section        0  libshutdown2.o(.ARM.Collect$$libshutdown$$00000002)
    .ARM.Collect$$libshutdown$$00000004      0x1b000152   Section        0  libshutdown2.o(.ARM.Collect$$libshutdown$$00000004)
    .ARM.Collect$$libshutdown$$00000007      0x1b000152   Section        0  libshutdown2.o(.ARM.Collect$$libshutdown$$00000007)
    .ARM.Collect$$libshutdown$$0000000A      0x1b000152   Section        0  libshutdown2.o(.ARM.Collect$$libshutdown$$0000000A)
    .ARM.Collect$$libshutdown$$0000000C      0x1b000152   Section        0  libshutdown2.o(.ARM.Collect$$libshutdown$$0000000C)
    .ARM.Collect$$libshutdown$$0000000F      0x1b000152   Section        0  libshutdown2.o(.ARM.Collect$$libshutdown$$0000000F)
    .ARM.Collect$$libshutdown$$00000010      0x1b000152   Section        2  libshutdown2.o(.ARM.Collect$$libshutdown$$00000010)
    .ARM.Collect$$rtentry$$00000000          0x1b000154   Section        0  __rtentry.o(.ARM.Collect$$rtentry$$00000000)
    .ARM.Collect$$rtentry$$00000002          0x1b000154   Section        0  __rtentry2.o(.ARM.Collect$$rtentry$$00000002)
    .ARM.Collect$$rtentry$$00000004          0x1b000154   Section        6  __rtentry4.o(.ARM.Collect$$rtentry$$00000004)
    .ARM.Collect$$rtentry$$00000009          0x1b00015a   Section        0  __rtentry2.o(.ARM.Collect$$rtentry$$00000009)
    .ARM.Collect$$rtentry$$0000000A          0x1b00015a   Section        4  __rtentry2.o(.ARM.Collect$$rtentry$$0000000A)
    .ARM.Collect$$rtentry$$0000000C          0x1b00015e   Section        0  __rtentry2.o(.ARM.Collect$$rtentry$$0000000C)
    .ARM.Collect$$rtentry$$0000000D          0x1b00015e   Section        8  __rtentry2.o(.ARM.Collect$$rtentry$$0000000D)
    .ARM.Collect$$rtexit$$00000000           0x1b000166   Section        2  rtexit.o(.ARM.Collect$$rtexit$$00000000)
    .ARM.Collect$$rtexit$$00000002           0x1b000168   Section        0  rtexit2.o(.ARM.Collect$$rtexit$$00000002)
    .ARM.Collect$$rtexit$$00000003           0x1b000168   Section        4  rtexit2.o(.ARM.Collect$$rtexit$$00000003)
    .ARM.Collect$$rtexit$$00000004           0x1b00016c   Section        6  rtexit2.o(.ARM.Collect$$rtexit$$00000004)
    .text                                    0x1b000174   Section        0  raw-os.o(.text)
    tick_task_process                        0x1b0006d3   Thumb Code    28  raw-os.o(.text)
    pend_task_wake_up                        0x1b000871   Thumb Code    88  raw-os.o(.text)
    is_list_empty                            0x1b0029d7   Thumb Code    14  raw-os.o(.text)
    list_insert                              0x1b0029e5   Thumb Code    14  raw-os.o(.text)
    list_delete                              0x1b0029f3   Thumb Code    12  raw-os.o(.text)
    add_to_priority_list                     0x1b0029ff   Thumb Code    30  raw-os.o(.text)
    bit_set                                  0x1b002a1d   Thumb Code    20  raw-os.o(.text)
    release_mutex                            0x1b002a31   Thumb Code    26  raw-os.o(.text)
    timer_list_remove                        0x1b002a4b   Thumb Code    22  raw-os.o(.text)
    timer_list_priority_insert               0x1b002a61   Thumb Code    34  raw-os.o(.text)
    raw_byte_pool_search                     0x1b002a83   Thumb Code   196  raw-os.o(.text)
    .text                                    0x1b002b58   Section        0  user_extension.o(.text)
    .text                                    0x1b002bdc   Section      164  cpu_m0.o(.text)
    .text                                    0x1b002c80   Section        0  port_m0.o(.text)
    .text                                    0x1b002d08   Section        0  port_error_process.o(.text)
    .text                                    0x1b002d64   Section        0  port_hook_m0.o(.text)
    .text                                    0x1b002d78   Section        0  main.o(.text)
    .text                                    0x1b002eb0   Section       60  keil_startup_lpc43xx_m0.o(.text)
    .text                                    0x1b002eec   Section        0  llmul.o(.text)
    .text                                    0x1b002f1c   Section        0  lludiv.o(.text)
    .text                                    0x1b003020   Section        0  noretval__2printf.o(.text)
    .text                                    0x1b00303c   Section        0  __printf.o(.text)
    .text                                    0x1b0030a8   Section        0  _printf_dec.o(.text)
    .text                                    0x1b003114   Section      346  aeabi_sdiv.o(.text)
    .text                                    0x1b00326e   Section        0  heapauxi.o(.text)
    .text                                    0x1b003274   Section        0  _printf_intcommon.o(.text)
    .text                                    0x1b003324   Section        0  _printf_char_file.o(.text)
    .text                                    0x1b00334c   Section        0  rtudiv10.o(.text)
    .text                                    0x1b003374   Section        0  _printf_char_common.o(.text)
    _printf_input_char                       0x1b003375   Thumb Code    10  _printf_char_common.o(.text)
    .text                                    0x1b0033a4   Section       62  sys_stackheap_outer.o(.text)
    .text                                    0x1b0033e2   Section        0  exit.o(.text)
    .text                                    0x1b0033f4   Section        8  libspace.o(.text)
    i.Board_UARTPutChar                      0x1b0033fc   Section        0  board.o(i.Board_UARTPutChar)
    i.Board_UARTPutSTR                       0x1b00340c   Section        0  board.o(i.Board_UARTPutSTR)
    i.Chip_Clock_EnableOpts                  0x1b003420   Section        0  clock_18xx_43xx.o(i.Chip_Clock_EnableOpts)
    i.Chip_Clock_GetBaseClock                0x1b00345c   Section        0  clock_18xx_43xx.o(i.Chip_Clock_GetBaseClock)
    i.Chip_Clock_GetBaseClocktHz             0x1b00347c   Section        0  clock_18xx_43xx.o(i.Chip_Clock_GetBaseClocktHz)
    i.Chip_Clock_GetClockInputHz             0x1b003488   Section        0  clock_18xx_43xx.o(i.Chip_Clock_GetClockInputHz)
    i.Chip_Clock_GetDivRate                  0x1b003524   Section        0  clock_18xx_43xx.o(i.Chip_Clock_GetDivRate)
    Chip_Clock_GetDivRate                    0x1b003525   Thumb Code    34  clock_18xx_43xx.o(i.Chip_Clock_GetDivRate)
    i.Chip_Clock_GetDividerDivisor           0x1b003548   Section        0  clock_18xx_43xx.o(i.Chip_Clock_GetDividerDivisor)
    i.Chip_Clock_GetDividerSource            0x1b003568   Section        0  clock_18xx_43xx.o(i.Chip_Clock_GetDividerSource)
    i.Chip_Clock_GetMainPLLHz                0x1b003584   Section        0  clock_18xx_43xx.o(i.Chip_Clock_GetMainPLLHz)
    i.Chip_Clock_GetRate                     0x1b0035ec   Section        0  clock_18xx_43xx.o(i.Chip_Clock_GetRate)
    i.Chip_RIT_Init                          0x1b003660   Section        0  ritimer_18xx_43xx.o(i.Chip_RIT_Init)
    i.Chip_RIT_SetTimerInterval              0x1b003682   Section        0  ritimer_18xx_43xx.o(i.Chip_RIT_SetTimerInterval)
    i.__ARM_common_switch8                   0x1b0036a4   Section        0  raw-os.o(i.__ARM_common_switch8)
    i._sys_exit                              0x1b0036be   Section        0  board.o(i._sys_exit)
    i.ferror                                 0x1b0036c2   Section        0  board.o(i.ferror)
    i.fputc                                  0x1b0036c8   Section        0  board.o(i.fputc)
    .constdata                               0x1b0036d4   Section       76  m0_img_ldr.o(.constdata)
    .constdata                               0x1b003720   Section        4  board.o(.constdata)
    .constdata                               0x1b003724   Section        4  board.o(.constdata)
    .constdata                               0x1b003728   Section      108  clock_18xx_43xx.o(.constdata)
    periph_to_base                           0x1b003728   Data         108  clock_18xx_43xx.o(.constdata)

    Global Symbols

    Symbol Name                              Value     Ov Type        Size  Object(Section)

    BuildAttributes$$THM_ISAv3M$S$PE$A:L22$X:L11$S22$IEEE1$IW$USESV6$~STKCKD$USESV7$~SHL$OSPACE$ROPI$EBA8$UX$STANDARDLIB$REQ8$PRES8$EABIv2 0x00000000   Number         0  anon$$obj.o ABSOLUTE
    __ARM_use_no_argv                        0x00000000   Number         0  main.o ABSOLUTE
    __ARM_exceptions_init                     - Undefined Weak Reference
    __alloca_initialize                       - Undefined Weak Reference
    __arm_preinit_                            - Undefined Weak Reference
    __cpp_initialize__aeabi_                  - Undefined Weak Reference
    __cxa_finalize                            - Undefined Weak Reference
    __rt_locale                               - Undefined Weak Reference
    __sigvec_lookup                           - Undefined Weak Reference
    _atexit_init                              - Undefined Weak Reference
    _call_atexit_fns                          - Undefined Weak Reference
    _clock_init                               - Undefined Weak Reference
    _fp_trap_init                             - Undefined Weak Reference
    _fp_trap_shutdown                         - Undefined Weak Reference
    _get_lc_collate                           - Undefined Weak Reference
    _get_lc_ctype                             - Undefined Weak Reference
    _get_lc_monetary                          - Undefined Weak Reference
    _get_lc_numeric                           - Undefined Weak Reference
    _get_lc_time                              - Undefined Weak Reference
    _getenv_init                              - Undefined Weak Reference
    _handle_redirection                       - Undefined Weak Reference
    _init_alloc                               - Undefined Weak Reference
    _init_user_alloc                          - Undefined Weak Reference
    _initio                                   - Undefined Weak Reference
    _printf_post_padding                      - Undefined Weak Reference
    _printf_pre_padding                       - Undefined Weak Reference
    _printf_truncate_signed                   - Undefined Weak Reference
    _printf_truncate_unsigned                 - Undefined Weak Reference
    _rand_init                                - Undefined Weak Reference
    _signal_finish                            - Undefined Weak Reference
    _signal_init                              - Undefined Weak Reference
    _terminate_alloc                          - Undefined Weak Reference
    _terminate_user_alloc                     - Undefined Weak Reference
    _terminateio                              - Undefined Weak Reference
    idle_task_exit                           0x10080000   Data           1  raw-os.o(.data)
    raw_sched_lock                           0x10080001   Data           1  raw-os.o(.data)
    raw_int_nesting                          0x10080002   Data           1  raw-os.o(.data)
    raw_os_active                            0x10080004   Data           2  raw-os.o(.data)
    high_ready_obj                           0x10080008   Data           4  raw-os.o(.data)
    raw_task_active                          0x1008000c   Data           4  raw-os.o(.data)
    raw_tick_count                           0x10080010   Data           4  raw-os.o(.data)
    raw_timer_count                          0x10080014   Data           4  raw-os.o(.data)
    raw_timer_ctrl                           0x10080018   Data           4  raw-os.o(.data)
    raw_idle_count                           0x10080020   Data           8  raw-os.o(.data)
    timer_head                               0x10080028   Data           8  raw-os.o(.data)
    sys_time_tick                            0x10080030   Data           8  raw-os.o(.data)
    test_count                               0x10080038   Data           4  main.o(.data)
    __stdout                                 0x1008003c   Data           4  board.o(.data)
    raw_ready_queue                          0x10080048   Data         508  raw-os.o(.bss)
    raw_idle_obj                             0x10080244   Data         112  raw-os.o(.bss)
    idle_stack                               0x100802b4   Data         320  raw-os.o(.bss)
    tick_head                                0x100803f4   Data          64  raw-os.o(.bss)
    raw_timer_obj                            0x10080434   Data         112  raw-os.o(.bss)
    timer_task_stack                         0x100804a4   Data        1024  raw-os.o(.bss)
    timer_sem                                0x100808a4   Data          36  raw-os.o(.bss)
    timer_mutex                              0x100808c8   Data          40  raw-os.o(.bss)
    raw_task_debug                           0x100808f0   Data          56  raw-os.o(.bss)
    tick_task_obj                            0x10080928   Data         112  raw-os.o(.bss)
    tick_task_stack                          0x10080998   Data        1024  raw-os.o(.bss)
    tick_semaphore_obj                       0x10080d98   Data          36  raw-os.o(.bss)
    shell_task_stack                         0x10080dbc   Data        1024  main.o(.bss)
    shell_task_obj                           0x100811bc   Data         112  main.o(.bss)
    m0_sema                                  0x1008122c   Data          36  main.o(.bss)
    __libspace_start                         0x10081250   Data          96  libspace.o(.bss)
    __temporary_stack_top$libspace           0x100812b0   Data           0  libspace.o(.bss)
    Stack_Mem                                0x100814b0   Data        2048  keil_startup_lpc43xx_m0.o(STACK)
    __Vectors                                0x1b000000   Data           4  keil_startup_lpc43xx_m0.o(RESET)
    __main                                   0x1b0000c1   Thumb Code     8  __main.o(!!!main)
    __scatterload                            0x1b0000c9   Thumb Code     0  __scatter.o(!!!scatter)
    __scatterload_rt2                        0x1b0000c9   Thumb Code    52  __scatter.o(!!!scatter)
    __scatterload_rt2_thumb_only             0x1b0000c9   Thumb Code     0  __scatter.o(!!!scatter)
    __scatterload_null                       0x1b0000d9   Thumb Code     0  __scatter.o(!!!scatter)
    __scatterload_copy                       0x1b000105   Thumb Code    26  __scatter_copy.o(!!handler_copy)
    __scatterload_zeroinit                   0x1b000121   Thumb Code    28  __scatter_zi.o(!!handler_zi)
    _printf_percent                          0x1b00013d   Thumb Code     0  _printf_percent.o(.ARM.Collect$$_printf_percent$$00000000)
    _printf_d                                0x1b00013f   Thumb Code     0  _printf_d.o(.ARM.Collect$$_printf_percent$$00000009)
    _printf_percent_end                      0x1b000149   Thumb Code     0  _printf_percent_end.o(.ARM.Collect$$_printf_percent$$00000017)
    __rt_lib_init                            0x1b00014d   Thumb Code     0  libinit.o(.ARM.Collect$$libinit$$00000000)
    __rt_lib_init_alloca_1                   0x1b00014f   Thumb Code     0  libinit2.o(.ARM.Collect$$libinit$$0000002E)
    __rt_lib_init_argv_1                     0x1b00014f   Thumb Code     0  libinit2.o(.ARM.Collect$$libinit$$0000002C)
    __rt_lib_init_atexit_1                   0x1b00014f   Thumb Code     0  libinit2.o(.ARM.Collect$$libinit$$0000001B)
    __rt_lib_init_clock_1                    0x1b00014f   Thumb Code     0  libinit2.o(.ARM.Collect$$libinit$$00000021)
    __rt_lib_init_cpp_1                      0x1b00014f   Thumb Code     0  libinit2.o(.ARM.Collect$$libinit$$00000032)
    __rt_lib_init_exceptions_1               0x1b00014f   Thumb Code     0  libinit2.o(.ARM.Collect$$libinit$$00000030)
    __rt_lib_init_fp_1                       0x1b00014f   Thumb Code     0  libinit2.o(.ARM.Collect$$libinit$$00000002)
    __rt_lib_init_fp_trap_1                  0x1b00014f   Thumb Code     0  libinit2.o(.ARM.Collect$$libinit$$0000001F)
    __rt_lib_init_getenv_1                   0x1b00014f   Thumb Code     0  libinit2.o(.ARM.Collect$$libinit$$00000023)
    __rt_lib_init_heap_1                     0x1b00014f   Thumb Code     0  libinit2.o(.ARM.Collect$$libinit$$0000000A)
    __rt_lib_init_lc_collate_1               0x1b00014f   Thumb Code     0  libinit2.o(.ARM.Collect$$libinit$$00000011)
    __rt_lib_init_lc_ctype_1                 0x1b00014f   Thumb Code     0  libinit2.o(.ARM.Collect$$libinit$$00000013)
    __rt_lib_init_lc_monetary_1              0x1b00014f   Thumb Code     0  libinit2.o(.ARM.Collect$$libinit$$00000015)
    __rt_lib_init_lc_numeric_1               0x1b00014f   Thumb Code     0  libinit2.o(.ARM.Collect$$libinit$$00000017)
    __rt_lib_init_lc_time_1                  0x1b00014f   Thumb Code     0  libinit2.o(.ARM.Collect$$libinit$$00000019)
    __rt_lib_init_preinit_1                  0x1b00014f   Thumb Code     0  libinit2.o(.ARM.Collect$$libinit$$00000004)
    __rt_lib_init_rand_1                     0x1b00014f   Thumb Code     0  libinit2.o(.ARM.Collect$$libinit$$0000000E)
    __rt_lib_init_return                     0x1b00014f   Thumb Code     0  libinit2.o(.ARM.Collect$$libinit$$00000033)
    __rt_lib_init_signal_1                   0x1b00014f   Thumb Code     0  libinit2.o(.ARM.Collect$$libinit$$0000001D)
    __rt_lib_init_stdio_1                    0x1b00014f   Thumb Code     0  libinit2.o(.ARM.Collect$$libinit$$00000025)
    __rt_lib_init_user_alloc_1               0x1b00014f   Thumb Code     0  libinit2.o(.ARM.Collect$$libinit$$0000000C)
    __rt_lib_shutdown                        0x1b000151   Thumb Code     0  libshutdown.o(.ARM.Collect$$libshutdown$$00000000)
    __rt_lib_shutdown_cpp_1                  0x1b000153   Thumb Code     0  libshutdown2.o(.ARM.Collect$$libshutdown$$00000002)
    __rt_lib_shutdown_fp_trap_1              0x1b000153   Thumb Code     0  libshutdown2.o(.ARM.Collect$$libshutdown$$00000007)
    __rt_lib_shutdown_heap_1                 0x1b000153   Thumb Code     0  libshutdown2.o(.ARM.Collect$$libshutdown$$0000000F)
    __rt_lib_shutdown_return                 0x1b000153   Thumb Code     0  libshutdown2.o(.ARM.Collect$$libshutdown$$00000010)
    __rt_lib_shutdown_signal_1               0x1b000153   Thumb Code     0  libshutdown2.o(.ARM.Collect$$libshutdown$$0000000A)
    __rt_lib_shutdown_stdio_1                0x1b000153   Thumb Code     0  libshutdown2.o(.ARM.Collect$$libshutdown$$00000004)
    __rt_lib_shutdown_user_alloc_1           0x1b000153   Thumb Code     0  libshutdown2.o(.ARM.Collect$$libshutdown$$0000000C)
    __rt_entry                               0x1b000155   Thumb Code     0  __rtentry.o(.ARM.Collect$$rtentry$$00000000)
    __rt_entry_presh_1                       0x1b000155   Thumb Code     0  __rtentry2.o(.ARM.Collect$$rtentry$$00000002)
    __rt_entry_sh                            0x1b000155   Thumb Code     0  __rtentry4.o(.ARM.Collect$$rtentry$$00000004)
    __rt_entry_li                            0x1b00015b   Thumb Code     0  __rtentry2.o(.ARM.Collect$$rtentry$$0000000A)
    __rt_entry_postsh_1                      0x1b00015b   Thumb Code     0  __rtentry2.o(.ARM.Collect$$rtentry$$00000009)
    __rt_entry_main                          0x1b00015f   Thumb Code     0  __rtentry2.o(.ARM.Collect$$rtentry$$0000000D)
    __rt_entry_postli_1                      0x1b00015f   Thumb Code     0  __rtentry2.o(.ARM.Collect$$rtentry$$0000000C)
    __rt_exit                                0x1b000167   Thumb Code     0  rtexit.o(.ARM.Collect$$rtexit$$00000000)
    __rt_exit_ls                             0x1b000169   Thumb Code     0  rtexit2.o(.ARM.Collect$$rtexit$$00000003)
    __rt_exit_prels_1                        0x1b000169   Thumb Code     0  rtexit2.o(.ARM.Collect$$rtexit$$00000002)
    __rt_exit_exit                           0x1b00016d   Thumb Code     0  rtexit2.o(.ARM.Collect$$rtexit$$00000004)
    get_ready_task                           0x1b000175   Thumb Code    16  raw-os.o(.text)
    raw_sched                                0x1b000185   Thumb Code    48  raw-os.o(.text)
    raw_semaphore_create                     0x1b0001b5   Thumb Code    54  raw-os.o(.text)
    raw_task_semaphore_create                0x1b0001eb   Thumb Code    16  raw-os.o(.text)
    tick_list_remove                         0x1b0001fb   Thumb Code    24  raw-os.o(.text)
    mutex_priority_look                      0x1b000213   Thumb Code    72  raw-os.o(.text)
    change_pend_list_priority                0x1b00025b   Thumb Code    30  raw-os.o(.text)
    add_ready_list_end                       0x1b000279   Thumb Code    42  raw-os.o(.text)
    add_ready_list_head                      0x1b0002a3   Thumb Code    42  raw-os.o(.text)
    bit_search_first_one                     0x1b0002cd   Thumb Code   124  raw-os.o(.text)
    remove_ready_list                        0x1b000349   Thumb Code   104  raw-os.o(.text)
    change_internal_task_priority            0x1b0003b1   Thumb Code   170  raw-os.o(.text)
    mutex_state_change                       0x1b00045b   Thumb Code    40  raw-os.o(.text)
    add_ready_list                           0x1b000483   Thumb Code    20  raw-os.o(.text)
    tick_list_update                         0x1b000497   Thumb Code   226  raw-os.o(.text)
    block_state_post_process                 0x1b000579   Thumb Code    60  raw-os.o(.text)
    tick_list_insert                         0x1b0005b5   Thumb Code    60  raw-os.o(.text)
    raw_pend_object                          0x1b0005f1   Thumb Code    70  raw-os.o(.text)
    raw_semaphore_get                        0x1b000637   Thumb Code   146  raw-os.o(.text)
    raw_task_semaphore_get                   0x1b0006c9   Thumb Code    10  raw-os.o(.text)
    raw_task_create                          0x1b0006ef   Thumb Code   264  raw-os.o(.text)
    tick_task_start                          0x1b0007f7   Thumb Code    56  raw-os.o(.text)
    raw_mutex_create                         0x1b00082f   Thumb Code    66  raw-os.o(.text)
    raw_wake_object                          0x1b0008c9   Thumb Code     2  raw-os.o(.text)
    raw_mutex_put                            0x1b0008cb   Thumb Code   246  raw-os.o(.text)
    raw_mutex_get                            0x1b0009c1   Thumb Code   284  raw-os.o(.text)
    raw_semaphore_set                        0x1b000add   Thumb Code    90  raw-os.o(.text)
    timer_task                               0x1b000b37   Thumb Code   172  raw-os.o(.text)
    raw_timer_init                           0x1b000be3   Thumb Code    60  raw-os.o(.text)
    raw_idle_task                            0x1b000c1f   Thumb Code    30  raw-os.o(.text)
    tick_list_init                           0x1b000c3d   Thumb Code    24  raw-os.o(.text)
    run_queue_init                           0x1b000c55   Thumb Code    26  raw-os.o(.text)
    raw_os_init                              0x1b000c6f   Thumb Code   126  raw-os.o(.text)
    raw_os_start                             0x1b000ced   Thumb Code    40  raw-os.o(.text)
    move_to_ready_list_end                   0x1b000d15   Thumb Code    32  raw-os.o(.text)
    calculate_time_slice                     0x1b000d35   Thumb Code    78  raw-os.o(.text)
    wake_send_msg                            0x1b000d83   Thumb Code    10  raw-os.o(.text)
    wake_send_msg_size                       0x1b000d8d   Thumb Code    12  raw-os.o(.text)
    delete_pend_obj                          0x1b000d99   Thumb Code   174  raw-os.o(.text)
    raw_task_stack_check                     0x1b000e47   Thumb Code    54  raw-os.o(.text)
    raw_isr_stack_check                      0x1b000e7d   Thumb Code    14  raw-os.o(.text)
    raw_disable_sche                         0x1b000e8b   Thumb Code    44  raw-os.o(.text)
    raw_enable_sche                          0x1b000eb7   Thumb Code    62  raw-os.o(.text)
    raw_sleep                                0x1b000ef5   Thumb Code   104  raw-os.o(.text)
    raw_task_yield                           0x1b000f5d   Thumb Code    38  raw-os.o(.text)
    raw_time_sleep                           0x1b000f83   Thumb Code    94  raw-os.o(.text)
    task_suspend                             0x1b000fe1   Thumb Code   144  raw-os.o(.text)
    raw_task_suspend                         0x1b001071   Thumb Code    26  raw-os.o(.text)
    task_resume                              0x1b00108b   Thumb Code   146  raw-os.o(.text)
    raw_task_resume                          0x1b00111d   Thumb Code    12  raw-os.o(.text)
    chg_pri_mutex                            0x1b001129   Thumb Code   112  raw-os.o(.text)
    raw_task_priority_change                 0x1b001199   Thumb Code   162  raw-os.o(.text)
    raw_task_free_mutex                      0x1b00123b   Thumb Code    70  raw-os.o(.text)
    raw_task_delete                          0x1b001281   Thumb Code   180  raw-os.o(.text)
    raw_set_task_user_point                  0x1b001335   Thumb Code    24  raw-os.o(.text)
    raw_get_task_user_point                  0x1b00134d   Thumb Code     8  raw-os.o(.text)
    raw_task_time_slice_change               0x1b001355   Thumb Code    56  raw-os.o(.text)
    raw_set_sched_way                        0x1b00138d   Thumb Code    58  raw-os.o(.text)
    raw_get_sched_way                        0x1b0013c7   Thumb Code    46  raw-os.o(.text)
    raw_task_wait_abort                      0x1b0013f5   Thumb Code   154  raw-os.o(.text)
    raw_task_identify                        0x1b00148f   Thumb Code     6  raw-os.o(.text)
    raw_iter_block_task                      0x1b001495   Thumb Code    74  raw-os.o(.text)
    raw_get_system_global_space              0x1b0014df   Thumb Code     4  raw-os.o(.text)
    raw_block_pool_create                    0x1b0014e3   Thumb Code   104  raw-os.o(.text)
    raw_block_allocate                       0x1b00154b   Thumb Code    78  raw-os.o(.text)
    raw_block_release                        0x1b001599   Thumb Code    50  raw-os.o(.text)
    raw_byte_pool_create                     0x1b0015cb   Thumb Code    90  raw-os.o(.text)
    raw_byte_allocate                        0x1b001625   Thumb Code   128  raw-os.o(.text)
    raw_byte_release                         0x1b0016a5   Thumb Code    62  raw-os.o(.text)
    raw_event_create                         0x1b0016e3   Thumb Code    42  raw-os.o(.text)
    raw_event_get                            0x1b00170d   Thumb Code   218  raw-os.o(.text)
    event_set                                0x1b0017e7   Thumb Code   134  raw-os.o(.text)
    raw_event_set                            0x1b00186d   Thumb Code    26  raw-os.o(.text)
    raw_event_delete                         0x1b001887   Thumb Code    98  raw-os.o(.text)
    raw_mutex_delete                         0x1b0018e9   Thumb Code   108  raw-os.o(.text)
    raw_queue_create                         0x1b001955   Thumb Code    82  raw-os.o(.text)
    raw_queue_block_way_set                  0x1b0019a7   Thumb Code    16  raw-os.o(.text)
    raw_queue_full_register                  0x1b0019b7   Thumb Code    34  raw-os.o(.text)
    msg_post                                 0x1b0019d9   Thumb Code   222  raw-os.o(.text)
    raw_queue_front_post                     0x1b001ab7   Thumb Code    26  raw-os.o(.text)
    raw_queue_end_post                       0x1b001ad1   Thumb Code    26  raw-os.o(.text)
    raw_queue_post_notify                    0x1b001aeb   Thumb Code    26  raw-os.o(.text)
    raw_queue_all_post                       0x1b001b05   Thumb Code    24  raw-os.o(.text)
    raw_queue_send_notify                    0x1b001b1d   Thumb Code    58  raw-os.o(.text)
    raw_queue_receive                        0x1b001b57   Thumb Code   214  raw-os.o(.text)
    raw_queue_full_check                     0x1b001c2d   Thumb Code    56  raw-os.o(.text)
    raw_queue_flush                          0x1b001c65   Thumb Code    64  raw-os.o(.text)
    raw_queue_delete                         0x1b001ca5   Thumb Code    96  raw-os.o(.text)
    raw_queue_get_information                0x1b001d05   Thumb Code    84  raw-os.o(.text)
    raw_queue_buffer_create                  0x1b001d59   Thumb Code   100  raw-os.o(.text)
    queue_buffer_post                        0x1b001dbd   Thumb Code   198  raw-os.o(.text)
    raw_queue_buffer_end_post                0x1b001e83   Thumb Code    34  raw-os.o(.text)
    raw_queue_buffer_receive                 0x1b001ea5   Thumb Code   302  raw-os.o(.text)
    raw_queue_buffer_flush                   0x1b001fd3   Thumb Code    66  raw-os.o(.text)
    raw_queue_buffer_delete                  0x1b002015   Thumb Code    96  raw-os.o(.text)
    raw_queue_buffer_info_get                0x1b002075   Thumb Code    56  raw-os.o(.text)
    raw_queue_size_create                    0x1b0020ad   Thumb Code    94  raw-os.o(.text)
    raw_queue_size_full_register             0x1b00210b   Thumb Code    34  raw-os.o(.text)
    msg_size_post                            0x1b00212d   Thumb Code   200  raw-os.o(.text)
    raw_queue_size_receive                   0x1b0021f5   Thumb Code   244  raw-os.o(.text)
    raw_queue_size_front_post                0x1b0022e9   Thumb Code    32  raw-os.o(.text)
    raw_queue_size_end_post                  0x1b002309   Thumb Code    32  raw-os.o(.text)
    raw_queue_size_all_post                  0x1b002329   Thumb Code    30  raw-os.o(.text)
    raw_queue_size_full_check                0x1b002347   Thumb Code    54  raw-os.o(.text)
    raw_queue_size_flush                     0x1b00237d   Thumb Code    92  raw-os.o(.text)
    raw_queue_size_delete                    0x1b0023d9   Thumb Code    96  raw-os.o(.text)
    raw_queue_size_get_information           0x1b002439   Thumb Code    74  raw-os.o(.text)
    raw_semaphore_block_way_set              0x1b002483   Thumb Code    28  raw-os.o(.text)
    semaphore_put                            0x1b00249f   Thumb Code   134  raw-os.o(.text)
    raw_semaphore_put                        0x1b002525   Thumb Code    14  raw-os.o(.text)
    raw_semaphore_put_notify                 0x1b002533   Thumb Code    14  raw-os.o(.text)
    raw_semaphore_put_all                    0x1b002541   Thumb Code    14  raw-os.o(.text)
    raw_semphore_send_notify                 0x1b00254f   Thumb Code    58  raw-os.o(.text)
    raw_semaphore_delete                     0x1b002589   Thumb Code    96  raw-os.o(.text)
    raw_stack_check                          0x1b0025e9   Thumb Code    66  raw-os.o(.text)
    raw_finish_int                           0x1b00262b   Thumb Code    80  raw-os.o(.text)
    call_timer_task                          0x1b00267b   Thumb Code    20  raw-os.o(.text)
    raw_task_semaphore_put                   0x1b00268f   Thumb Code     4  raw-os.o(.text)
    raw_time_tick                            0x1b002693   Thumb Code    48  raw-os.o(.text)
    raw_enter_interrupt                      0x1b0026c3   Thumb Code    62  raw-os.o(.text)
    raw_system_time_get                      0x1b002701   Thumb Code    28  raw-os.o(.text)
    raw_system_tick_get                      0x1b00271d   Thumb Code     8  raw-os.o(.text)
    raw_os_version_get                       0x1b002725   Thumb Code     4  raw-os.o(.text)
    raw_task_qsize_create                    0x1b002729   Thumb Code    22  raw-os.o(.text)
    raw_task_qsize_receive                   0x1b00273f   Thumb Code    22  raw-os.o(.text)
    raw_task_qsize_front_post                0x1b002755   Thumb Code    10  raw-os.o(.text)
    raw_task_qsize_end_post                  0x1b00275f   Thumb Code    10  raw-os.o(.text)
    raw_task_qsize_flush                     0x1b002769   Thumb Code    10  raw-os.o(.text)
    raw_task_qsize_delete                    0x1b002773   Thumb Code     4  raw-os.o(.text)
    raw_task_qsize_get_information           0x1b002777   Thumb Code     4  raw-os.o(.text)
    raw_task_semaphore_set                   0x1b00277b   Thumb Code    10  raw-os.o(.text)
    raw_task_semaphore_delete                0x1b002785   Thumb Code     4  raw-os.o(.text)
    raw_timer_activate                       0x1b002789   Thumb Code   156  raw-os.o(.text)
    raw_timer_create                         0x1b002825   Thumb Code   104  raw-os.o(.text)
    raw_timer_change                         0x1b00288d   Thumb Code   106  raw-os.o(.text)
    raw_timer_deactivate                     0x1b0028f7   Thumb Code   114  raw-os.o(.text)
    raw_timer_delete                         0x1b002969   Thumb Code   110  raw-os.o(.text)
    raw_memcpy                               0x1b002b59   Thumb Code    70  user_extension.o(.text)
    raw_memset                               0x1b002b9f   Thumb Code    60  user_extension.o(.text)
    OS_CPU_SR_Save                           0x1b002bdd   Thumb Code     0  cpu_m0.o(.text)
    OS_CPU_SR_Restore                        0x1b002be5   Thumb Code     0  cpu_m0.o(.text)
    CPU_IntDis                               0x1b002beb   Thumb Code     0  cpu_m0.o(.text)
    CPU_IntEn                                0x1b002bef   Thumb Code     0  cpu_m0.o(.text)
    raw_start_first_task                     0x1b002bf3   Thumb Code     0  cpu_m0.o(.text)
    port_task_switch                         0x1b002c17   Thumb Code     0  cpu_m0.o(.text)
    raw_int_switch                           0x1b002c1f   Thumb Code     0  cpu_m0.o(.text)
    PendSV_Handler                           0x1b002c27   Thumb Code     0  cpu_m0.o(.text)
    port_stack_init                          0x1b002c81   Thumb Code    82  port_m0.o(.text)
    port_isr_stack_check                     0x1b002cd3   Thumb Code     2  port_m0.o(.text)
    port_isr_stack_free_check                0x1b002cd5   Thumb Code    20  port_m0.o(.text)
    port_system_error_process                0x1b002d09   Thumb Code    88  port_error_process.o(.text)
    raw_os_init_hook                         0x1b002d65   Thumb Code     2  port_hook_m0.o(.text)
    raw_os_start_hook                        0x1b002d67   Thumb Code     2  port_hook_m0.o(.text)
    raw_task_delete_hook                     0x1b002d69   Thumb Code     2  port_hook_m0.o(.text)
    raw_task_abort_hook                      0x1b002d6b   Thumb Code     2  port_hook_m0.o(.text)
    raw_idle_task_hook                       0x1b002d6d   Thumb Code     2  port_hook_m0.o(.text)
    raw_task_switch_hook                     0x1b002d6f   Thumb Code     2  port_hook_m0.o(.text)
    raw_tick_hook                            0x1b002d71   Thumb Code     2  port_hook_m0.o(.text)
    task_create_hook                         0x1b002d73   Thumb Code     2  port_hook_m0.o(.text)
    raw_idle_coroutine_hook                  0x1b002d75   Thumb Code     4  port_hook_m0.o(.text)
    RIT_IRQHandler                           0x1b002d79   Thumb Code    26  main.o(.text)
    ritimer_setup                            0x1b002d93   Thumb Code    28  main.o(.text)
    M4_IRQHandler                            0x1b002daf   Thumb Code    24  main.o(.text)
    shell_task                               0x1b002dc7   Thumb Code    72  main.o(.text)
    main                                     0x1b002e0f   Thumb Code    62  main.o(.text)
    Reset_Handler                            0x1b002eb1   Thumb Code     4  keil_startup_lpc43xx_m0.o(.text)
    NMI_Handler                              0x1b002eb5   Thumb Code     2  keil_startup_lpc43xx_m0.o(.text)
    HardFault_Handler                        0x1b002eb7   Thumb Code     2  keil_startup_lpc43xx_m0.o(.text)
    MemManage_Handler                        0x1b002eb9   Thumb Code     2  keil_startup_lpc43xx_m0.o(.text)
    BusFault_Handler                         0x1b002ebb   Thumb Code     2  keil_startup_lpc43xx_m0.o(.text)
    UsageFault_Handler                       0x1b002ebd   Thumb Code     2  keil_startup_lpc43xx_m0.o(.text)
    SVC_Handler                              0x1b002ebf   Thumb Code     2  keil_startup_lpc43xx_m0.o(.text)
    DebugMon_Handler                         0x1b002ec1   Thumb Code     2  keil_startup_lpc43xx_m0.o(.text)
    SysTick_Handler                          0x1b002ec5   Thumb Code     2  keil_startup_lpc43xx_m0.o(.text)
    UnHandled_Vector                         0x1b002ec7   Thumb Code     2  keil_startup_lpc43xx_m0.o(.text)
    ADC0_IRQHandler                          0x1b002ec9   Thumb Code     0  keil_startup_lpc43xx_m0.o(.text)
    ADC1_IRQHandler                          0x1b002ec9   Thumb Code     0  keil_startup_lpc43xx_m0.o(.text)
    CAN0_IRQHandler                          0x1b002ec9   Thumb Code     0  keil_startup_lpc43xx_m0.o(.text)
    DMA_IRQHandler                           0x1b002ec9   Thumb Code     0  keil_startup_lpc43xx_m0.o(.text)
    ETH_IRQHandler                           0x1b002ec9   Thumb Code     0  keil_startup_lpc43xx_m0.o(.text)
    EVRT_IRQHandler                          0x1b002ec9   Thumb Code     0  keil_startup_lpc43xx_m0.o(.text)
    FLASHEEPROM_IRQHandler                   0x1b002ec9   Thumb Code     0  keil_startup_lpc43xx_m0.o(.text)
    GINT1_IRQHandler                         0x1b002ec9   Thumb Code     0  keil_startup_lpc43xx_m0.o(.text)
    GPIO4_IRQHandler                         0x1b002ec9   Thumb Code     0  keil_startup_lpc43xx_m0.o(.text)
    I2C0_IRQHandler                          0x1b002ec9   Thumb Code     0  keil_startup_lpc43xx_m0.o(.text)
    I2S0_IRQHandler                          0x1b002ec9   Thumb Code     0  keil_startup_lpc43xx_m0.o(.text)
    LCD_IRQHandler                           0x1b002ec9   Thumb Code     0  keil_startup_lpc43xx_m0.o(.text)
    MCPWM_IRQHandler                         0x1b002ec9   Thumb Code     0  keil_startup_lpc43xx_m0.o(.text)
    RTC_IRQHandler                           0x1b002ec9   Thumb Code     0  keil_startup_lpc43xx_m0.o(.text)
    SCT_IRQHandler                           0x1b002ec9   Thumb Code     0  keil_startup_lpc43xx_m0.o(.text)
    SDIO_IRQHandler                          0x1b002ec9   Thumb Code     0  keil_startup_lpc43xx_m0.o(.text)
    SGPIO_IRQHandler                         0x1b002ec9   Thumb Code     0  keil_startup_lpc43xx_m0.o(.text)
    SPI_IRQHandler                           0x1b002ec9   Thumb Code     0  keil_startup_lpc43xx_m0.o(.text)
    SSP0_IRQHandler                          0x1b002ec9   Thumb Code     0  keil_startup_lpc43xx_m0.o(.text)
    TIMER0_IRQHandler                        0x1b002ec9   Thumb Code     0  keil_startup_lpc43xx_m0.o(.text)
    TIMER3_IRQHandler                        0x1b002ec9   Thumb Code     0  keil_startup_lpc43xx_m0.o(.text)
    UART0_IRQHandler                         0x1b002ec9   Thumb Code     0  keil_startup_lpc43xx_m0.o(.text)
    UART1_IRQHandler                         0x1b002ec9   Thumb Code     0  keil_startup_lpc43xx_m0.o(.text)
    UART2_IRQHandler                         0x1b002ec9   Thumb Code     0  keil_startup_lpc43xx_m0.o(.text)
    UART3_IRQHandler                         0x1b002ec9   Thumb Code     0  keil_startup_lpc43xx_m0.o(.text)
    USB0_IRQHandler                          0x1b002ec9   Thumb Code     0  keil_startup_lpc43xx_m0.o(.text)
    USB1_IRQHandler                          0x1b002ec9   Thumb Code     0  keil_startup_lpc43xx_m0.o(.text)
    __user_initial_stackheap                 0x1b002ecd   Thumb Code     0  keil_startup_lpc43xx_m0.o(.text)
    __aeabi_lmul                             0x1b002eed   Thumb Code    48  llmul.o(.text)
    _ll_mul                                  0x1b002eed   Thumb Code     0  llmul.o(.text)
    __aeabi_uldivmod                         0x1b002f1d   Thumb Code   258  lludiv.o(.text)
    _ll_udiv                                 0x1b002f1d   Thumb Code     0  lludiv.o(.text)
    __2printf                                0x1b003021   Thumb Code    22  noretval__2printf.o(.text)
    __printf                                 0x1b00303d   Thumb Code   108  __printf.o(.text)
    _printf_int_dec                          0x1b0030a9   Thumb Code    90  _printf_dec.o(.text)
    __aeabi_uidiv                            0x1b003115   Thumb Code     0  aeabi_sdiv.o(.text)
    __aeabi_uidivmod                         0x1b003115   Thumb Code    20  aeabi_sdiv.o(.text)
    __aeabi_idiv                             0x1b003129   Thumb Code     0  aeabi_sdiv.o(.text)
    __aeabi_idivmod                          0x1b003129   Thumb Code   326  aeabi_sdiv.o(.text)
    __use_two_region_memory                  0x1b00326f   Thumb Code     2  heapauxi.o(.text)
    __rt_heap_escrow$2region                 0x1b003271   Thumb Code     2  heapauxi.o(.text)
    __rt_heap_expand$2region                 0x1b003273   Thumb Code     2  heapauxi.o(.text)
    _printf_int_common                       0x1b003275   Thumb Code   176  _printf_intcommon.o(.text)
    _printf_char_file                        0x1b003325   Thumb Code    34  _printf_char_file.o(.text)
    __rt_udiv10                              0x1b00334d   Thumb Code    40  rtudiv10.o(.text)
    _printf_char_common                      0x1b00337f   Thumb Code    32  _printf_char_common.o(.text)
    __user_setup_stackheap                   0x1b0033a5   Thumb Code    62  sys_stackheap_outer.o(.text)
    exit                                     0x1b0033e3   Thumb Code    16  exit.o(.text)
    __user_libspace                          0x1b0033f5   Thumb Code     8  libspace.o(.text)
    __user_perproc_libspace                  0x1b0033f5   Thumb Code     0  libspace.o(.text)
    __user_perthread_libspace                0x1b0033f5   Thumb Code     0  libspace.o(.text)
    Board_UARTPutChar                        0x1b0033fd   Thumb Code    12  board.o(i.Board_UARTPutChar)
    Board_UARTPutSTR                         0x1b00340d   Thumb Code    20  board.o(i.Board_UARTPutSTR)
    Chip_Clock_EnableOpts                    0x1b003421   Thumb Code    52  clock_18xx_43xx.o(i.Chip_Clock_EnableOpts)
    Chip_Clock_GetBaseClock                  0x1b00345d   Thumb Code    26  clock_18xx_43xx.o(i.Chip_Clock_GetBaseClock)
    Chip_Clock_GetBaseClocktHz               0x1b00347d   Thumb Code    12  clock_18xx_43xx.o(i.Chip_Clock_GetBaseClocktHz)
    Chip_Clock_GetClockInputHz               0x1b003489   Thumb Code   126  clock_18xx_43xx.o(i.Chip_Clock_GetClockInputHz)
    Chip_Clock_GetDividerDivisor             0x1b003549   Thumb Code    18  clock_18xx_43xx.o(i.Chip_Clock_GetDividerDivisor)
    Chip_Clock_GetDividerSource              0x1b003569   Thumb Code    22  clock_18xx_43xx.o(i.Chip_Clock_GetDividerSource)
    Chip_Clock_GetMainPLLHz                  0x1b003585   Thumb Code    94  clock_18xx_43xx.o(i.Chip_Clock_GetMainPLLHz)
    Chip_Clock_GetRate                       0x1b0035ed   Thumb Code   102  clock_18xx_43xx.o(i.Chip_Clock_GetRate)
    Chip_RIT_Init                            0x1b003661   Thumb Code    34  ritimer_18xx_43xx.o(i.Chip_RIT_Init)
    Chip_RIT_SetTimerInterval                0x1b003683   Thumb Code    34  ritimer_18xx_43xx.o(i.Chip_RIT_SetTimerInterval)
    __ARM_common_switch8                     0x1b0036a5   Thumb Code    26  raw-os.o(i.__ARM_common_switch8)
    _sys_exit                                0x1b0036bf   Thumb Code     4  board.o(i._sys_exit)
    ferror                                   0x1b0036c3   Thumb Code     6  board.o(i.ferror)
    fputc                                    0x1b0036c9   Thumb Code    12  board.o(i.fputc)
    __M0Signature                            0x1b0036d4   Data          76  m0_img_ldr.o(.constdata)
    ExtRateIn                                0x1b003720   Data           4  board.o(.constdata)
    OscRateIn                                0x1b003724   Data           4  board.o(.constdata)
    Region$$Table$$Base                      0x1b003794   Number         0  anon$$obj.o(Region$$Table)
    Region$$Table$$Limit                     0x1b0037b4   Number         0  anon$$obj.o(Region$$Table)



==============================================================================

Memory Map of the image

  Image Entry point : 0x1b0000c1

  Load Region LR_IROM1 (Base: 0x1b000000, Size: 0x000037fc, Max: 0x00040000, ABSOLUTE)

    Execution Region RW_IRAM1 (Base: 0x10080000, Size: 0x00001cb0, Max: 0x00008000, ABSOLUTE)

    Base Addr    Size         Type   Attr      Idx    E Section Name        Object

    0x10080000   0x00000038   Data   RW            3    .data               raw-os.o
    0x10080038   0x00000004   Data   RW          292    .data               main.o
    0x1008003c   0x00000004   Data   RW          624    .data               lib_lpc_board_keil_mcb_4357_m0.lib(board.o)
    0x10080040   0x00000008   Data   RW         1369    .data               lib_lpc_chip_43xx_m0.lib(clock_18xx_43xx.o)
    0x10080048   0x00000d74   Zero   RW            2    .bss                raw-os.o
    0x10080dbc   0x00000494   Zero   RW          291    .bss                main.o
    0x10081250   0x00000060   Zero   RW         2263    .bss                c_p.l(libspace.o)
    0x100812b0   0x00000200   Zero   RW          512    HEAP                keil_startup_lpc43xx_m0.o
    0x100814b0   0x00000800   Zero   RW          511    STACK               keil_startup_lpc43xx_m0.o


    Execution Region ER_IROM1 (Base: 0x1b000000, Size: 0x000037b4, Max: 0x00040000, ABSOLUTE)

    Base Addr    Size         Type   Attr      Idx    E Section Name        Object

    0x1b000000   0x000000c0   Data   RO          513    RESET               keil_startup_lpc43xx_m0.o
    0x1b0000c0   0x00000008   Code   RO         2208  * !!!main             c_p.l(__main.o)
    0x1b0000c8   0x0000003c   Code   RO         2390    !!!scatter          c_p.l(__scatter.o)
    0x1b000104   0x0000001a   Code   RO         2392    !!handler_copy      c_p.l(__scatter_copy.o)
    0x1b00011e   0x00000002   PAD
    0x1b000120   0x0000001c   Code   RO         2394    !!handler_zi        c_p.l(__scatter_zi.o)
    0x1b00013c   0x00000002   Code   RO         2195    .ARM.Collect$$_printf_percent$$00000000  c_p.l(_printf_percent.o)
    0x1b00013e   0x0000000a   Code   RO         2194    .ARM.Collect$$_printf_percent$$00000009  c_p.l(_printf_d.o)
    0x1b000148   0x00000004   Code   RO         2223    .ARM.Collect$$_printf_percent$$00000017  c_p.l(_printf_percent_end.o)
    0x1b00014c   0x00000002   Code   RO         2261    .ARM.Collect$$libinit$$00000000  c_p.l(libinit.o)
    0x1b00014e   0x00000000   Code   RO         2275    .ARM.Collect$$libinit$$00000002  c_p.l(libinit2.o)
    0x1b00014e   0x00000000   Code   RO         2277    .ARM.Collect$$libinit$$00000004  c_p.l(libinit2.o)
    0x1b00014e   0x00000000   Code   RO         2280    .ARM.Collect$$libinit$$0000000A  c_p.l(libinit2.o)
    0x1b00014e   0x00000000   Code   RO         2282    .ARM.Collect$$libinit$$0000000C  c_p.l(libinit2.o)
    0x1b00014e   0x00000000   Code   RO         2284    .ARM.Collect$$libinit$$0000000E  c_p.l(libinit2.o)
    0x1b00014e   0x00000000   Code   RO         2287    .ARM.Collect$$libinit$$00000011  c_p.l(libinit2.o)
    0x1b00014e   0x00000000   Code   RO         2289    .ARM.Collect$$libinit$$00000013  c_p.l(libinit2.o)
    0x1b00014e   0x00000000   Code   RO         2291    .ARM.Collect$$libinit$$00000015  c_p.l(libinit2.o)
    0x1b00014e   0x00000000   Code   RO         2293    .ARM.Collect$$libinit$$00000017  c_p.l(libinit2.o)
    0x1b00014e   0x00000000   Code   RO         2295    .ARM.Collect$$libinit$$00000019  c_p.l(libinit2.o)
    0x1b00014e   0x00000000   Code   RO         2297    .ARM.Collect$$libinit$$0000001B  c_p.l(libinit2.o)
    0x1b00014e   0x00000000   Code   RO         2299    .ARM.Collect$$libinit$$0000001D  c_p.l(libinit2.o)
    0x1b00014e   0x00000000   Code   RO         2301    .ARM.Collect$$libinit$$0000001F  c_p.l(libinit2.o)
    0x1b00014e   0x00000000   Code   RO         2303    .ARM.Collect$$libinit$$00000021  c_p.l(libinit2.o)
    0x1b00014e   0x00000000   Code   RO         2305    .ARM.Collect$$libinit$$00000023  c_p.l(libinit2.o)
    0x1b00014e   0x00000000   Code   RO         2307    .ARM.Collect$$libinit$$00000025  c_p.l(libinit2.o)
    0x1b00014e   0x00000000   Code   RO         2311    .ARM.Collect$$libinit$$0000002C  c_p.l(libinit2.o)
    0x1b00014e   0x00000000   Code   RO         2313    .ARM.Collect$$libinit$$0000002E  c_p.l(libinit2.o)
    0x1b00014e   0x00000000   Code   RO         2315    .ARM.Collect$$libinit$$00000030  c_p.l(libinit2.o)
    0x1b00014e   0x00000000   Code   RO         2317    .ARM.Collect$$libinit$$00000032  c_p.l(libinit2.o)
    0x1b00014e   0x00000002   Code   RO         2318    .ARM.Collect$$libinit$$00000033  c_p.l(libinit2.o)
    0x1b000150   0x00000002   Code   RO         2344    .ARM.Collect$$libshutdown$$00000000  c_p.l(libshutdown.o)
    0x1b000152   0x00000000   Code   RO         2373    .ARM.Collect$$libshutdown$$00000002  c_p.l(libshutdown2.o)
    0x1b000152   0x00000000   Code   RO         2375    .ARM.Collect$$libshutdown$$00000004  c_p.l(libshutdown2.o)
    0x1b000152   0x00000000   Code   RO         2378    .ARM.Collect$$libshutdown$$00000007  c_p.l(libshutdown2.o)
    0x1b000152   0x00000000   Code   RO         2381    .ARM.Collect$$libshutdown$$0000000A  c_p.l(libshutdown2.o)
    0x1b000152   0x00000000   Code   RO         2383    .ARM.Collect$$libshutdown$$0000000C  c_p.l(libshutdown2.o)
    0x1b000152   0x00000000   Code   RO         2386    .ARM.Collect$$libshutdown$$0000000F  c_p.l(libshutdown2.o)
    0x1b000152   0x00000002   Code   RO         2387    .ARM.Collect$$libshutdown$$00000010  c_p.l(libshutdown2.o)
    0x1b000154   0x00000000   Code   RO         2210    .ARM.Collect$$rtentry$$00000000  c_p.l(__rtentry.o)
    0x1b000154   0x00000000   Code   RO         2227    .ARM.Collect$$rtentry$$00000002  c_p.l(__rtentry2.o)
    0x1b000154   0x00000006   Code   RO         2239    .ARM.Collect$$rtentry$$00000004  c_p.l(__rtentry4.o)
    0x1b00015a   0x00000000   Code   RO         2229    .ARM.Collect$$rtentry$$00000009  c_p.l(__rtentry2.o)
    0x1b00015a   0x00000004   Code   RO         2230    .ARM.Collect$$rtentry$$0000000A  c_p.l(__rtentry2.o)
    0x1b00015e   0x00000000   Code   RO         2232    .ARM.Collect$$rtentry$$0000000C  c_p.l(__rtentry2.o)
    0x1b00015e   0x00000008   Code   RO         2233    .ARM.Collect$$rtentry$$0000000D  c_p.l(__rtentry2.o)
    0x1b000166   0x00000002   Code   RO         2266    .ARM.Collect$$rtexit$$00000000  c_p.l(rtexit.o)
    0x1b000168   0x00000000   Code   RO         2320    .ARM.Collect$$rtexit$$00000002  c_p.l(rtexit2.o)
    0x1b000168   0x00000004   Code   RO         2321    .ARM.Collect$$rtexit$$00000003  c_p.l(rtexit2.o)
    0x1b00016c   0x00000006   Code   RO         2322    .ARM.Collect$$rtexit$$00000004  c_p.l(rtexit2.o)
    0x1b000172   0x00000002   PAD
    0x1b000174   0x000029e4   Code   RO            1    .text               raw-os.o
    0x1b002b58   0x00000082   Code   RO          223    .text               user_extension.o
    0x1b002bda   0x00000002   PAD
    0x1b002bdc   0x000000a4   Code   RO          235    .text               cpu_m0.o
    0x1b002c80   0x00000088   Code   RO          239    .text               port_m0.o
    0x1b002d08   0x0000005c   Code   RO          252    .text               port_error_process.o
    0x1b002d64   0x00000014   Code   RO          276    .text               port_hook_m0.o
    0x1b002d78   0x00000138   Code   RO          290    .text               main.o
    0x1b002eb0   0x0000003c   Code   RO          514    .text               keil_startup_lpc43xx_m0.o
    0x1b002eec   0x00000030   Code   RO         2162    .text               c_p.l(llmul.o)
    0x1b002f1c   0x00000102   Code   RO         2164    .text               c_p.l(lludiv.o)
    0x1b00301e   0x00000002   PAD
    0x1b003020   0x0000001c   Code   RO         2168    .text               c_p.l(noretval__2printf.o)
    0x1b00303c   0x0000006c   Code   RO         2170    .text               c_p.l(__printf.o)
    0x1b0030a8   0x0000006c   Code   RO         2172    .text               c_p.l(_printf_dec.o)
    0x1b003114   0x0000015a   Code   RO         2202    .text               c_p.l(aeabi_sdiv.o)
    0x1b00326e   0x00000006   Code   RO         2206    .text               c_p.l(heapauxi.o)
    0x1b003274   0x000000b0   Code   RO         2219    .text               c_p.l(_printf_intcommon.o)
    0x1b003324   0x00000028   Code   RO         2221    .text               c_p.l(_printf_char_file.o)
    0x1b00334c   0x00000028   Code   RO         2224    .text               c_p.l(rtudiv10.o)
    0x1b003374   0x00000030   Code   RO         2243    .text               c_p.l(_printf_char_common.o)
    0x1b0033a4   0x0000003e   Code   RO         2245    .text               c_p.l(sys_stackheap_outer.o)
    0x1b0033e2   0x00000010   Code   RO         2250    .text               c_p.l(exit.o)
    0x1b0033f2   0x00000002   PAD
    0x1b0033f4   0x00000008   Code   RO         2262    .text               c_p.l(libspace.o)
    0x1b0033fc   0x00000010   Code   RO          598    i.Board_UARTPutChar  lib_lpc_board_keil_mcb_4357_m0.lib(board.o)
    0x1b00340c   0x00000014   Code   RO          599    i.Board_UARTPutSTR  lib_lpc_board_keil_mcb_4357_m0.lib(board.o)
    0x1b003420   0x0000003c   Code   RO         1345    i.Chip_Clock_EnableOpts  lib_lpc_chip_43xx_m0.lib(clock_18xx_43xx.o)
    0x1b00345c   0x00000020   Code   RO         1347    i.Chip_Clock_GetBaseClock  lib_lpc_chip_43xx_m0.lib(clock_18xx_43xx.o)
    0x1b00347c   0x0000000c   Code   RO         1349    i.Chip_Clock_GetBaseClocktHz  lib_lpc_chip_43xx_m0.lib(clock_18xx_43xx.o)
    0x1b003488   0x0000009c   Code   RO         1350    i.Chip_Clock_GetClockInputHz  lib_lpc_chip_43xx_m0.lib(clock_18xx_43xx.o)
    0x1b003524   0x00000022   Code   RO         1351    i.Chip_Clock_GetDivRate  lib_lpc_chip_43xx_m0.lib(clock_18xx_43xx.o)
    0x1b003546   0x00000002   PAD
    0x1b003548   0x00000020   Code   RO         1352    i.Chip_Clock_GetDividerDivisor  lib_lpc_chip_43xx_m0.lib(clock_18xx_43xx.o)
    0x1b003568   0x0000001c   Code   RO         1353    i.Chip_Clock_GetDividerSource  lib_lpc_chip_43xx_m0.lib(clock_18xx_43xx.o)
    0x1b003584   0x00000068   Code   RO         1355    i.Chip_Clock_GetMainPLLHz  lib_lpc_chip_43xx_m0.lib(clock_18xx_43xx.o)
    0x1b0035ec   0x00000074   Code   RO         1357    i.Chip_Clock_GetRate  lib_lpc_chip_43xx_m0.lib(clock_18xx_43xx.o)
    0x1b003660   0x00000022   Code   RO         1037    i.Chip_RIT_Init     lib_lpc_chip_43xx_m0.lib(ritimer_18xx_43xx.o)
    0x1b003682   0x00000022   Code   RO         1038    i.Chip_RIT_SetTimerInterval  lib_lpc_chip_43xx_m0.lib(ritimer_18xx_43xx.o)
    0x1b0036a4   0x0000001a   Code   RO           15    i.__ARM_common_switch8  raw-os.o
    0x1b0036be   0x00000004   Code   RO          607    i._sys_exit         lib_lpc_board_keil_mcb_4357_m0.lib(board.o)
    0x1b0036c2   0x00000006   Code   RO          609    i.ferror            lib_lpc_board_keil_mcb_4357_m0.lib(board.o)
    0x1b0036c8   0x0000000c   Code   RO          611    i.fputc             lib_lpc_board_keil_mcb_4357_m0.lib(board.o)
    0x1b0036d4   0x0000004c   Data   RO          520    .constdata          m0_img_ldr.o
    0x1b003720   0x00000004   Data   RO          622    .constdata          lib_lpc_board_keil_mcb_4357_m0.lib(board.o)
    0x1b003724   0x00000004   Data   RO          623    .constdata          lib_lpc_board_keil_mcb_4357_m0.lib(board.o)
    0x1b003728   0x0000006c   Data   RO         1368    .constdata          lib_lpc_chip_43xx_m0.lib(clock_18xx_43xx.o)
    0x1b003794   0x00000020   Data   RO         2388    Region$$Table       anon$$obj.o


==============================================================================

Image component sizes


      Code (inc. data)   RO Data    RW Data    ZI Data      Debug   Object Name

       164         30          0          0          0        408   cpu_m0.o
        60         24        192          0       2560        888   keil_startup_lpc43xx_m0.o
         0          0         76          0          0       1344   m0_img_ldr.o
       312        100          0          4       1172      15148   main.o
        92          4          0          0          0       1308   port_error_process.o
        20          0          0          0          0       1833   port_hook_m0.o
       136         32          0          0          0       1781   port_m0.o
     10750        384          0         56       3444      84562   raw-os.o
         0          0          0          0          0       4436   raw_trace_port.o
       130          0          0          0          0       1808   user_extension.o

    ----------------------------------------------------------------------
     11666        574        300         60       7176     113516   Object Totals
         0          0         32          0          0          0   (incl. Generated)
         2          0          0          0          0          0   (incl. Padding)

    ----------------------------------------------------------------------

      Code (inc. data)   RO Data    RW Data    ZI Data      Debug   Library Member Name

         8          0          0          0          0         68   __main.o
       108          0          0          0          0         76   __printf.o
         0          0          0          0          0          0   __rtentry.o
        12          0          0          0          0          0   __rtentry2.o
         6          0          0          0          0          0   __rtentry4.o
        60          8          0          0          0          0   __scatter.o
        26          0          0          0          0          0   __scatter_copy.o
        28          0          0          0          0          0   __scatter_zi.o
        48          6          0          0          0         88   _printf_char_common.o
        40          6          0          0          0         72   _printf_char_file.o
        10          0          0          0          0          0   _printf_d.o
       108         18          0          0          0         76   _printf_dec.o
       176          0          0          0          0         84   _printf_intcommon.o
         2          0          0          0          0          0   _printf_percent.o
         4          0          0          0          0          0   _printf_percent_end.o
       346          0          0          0          0         92   aeabi_sdiv.o
        16          0          0          0          0         68   exit.o
         6          0          0          0          0        136   heapauxi.o
         2          0          0          0          0          0   libinit.o
         2          0          0          0          0          0   libinit2.o
         2          0          0          0          0          0   libshutdown.o
         2          0          0          0          0          0   libshutdown2.o
         8          4          0          0         96         68   libspace.o
        48          0          0          0          0         72   llmul.o
       258          0          0          0          0         88   lludiv.o
        28          6          0          0          0         84   noretval__2printf.o
         2          0          0          0          0          0   rtexit.o
        10          0          0          0          0          0   rtexit2.o
        40          0          0          0          0         60   rtudiv10.o
        62          0          0          0          0         80   sys_stackheap_outer.o
        58          4          8          4          0      21002   board.o
       574        108        108          8          0       6336   clock_18xx_43xx.o
        68          0          0          0          0       8164   ritimer_18xx_43xx.o

    ----------------------------------------------------------------------
      2178        160        116         12         96      36714   Library Totals
        10          0          0          0          0          0   (incl. Padding)

    ----------------------------------------------------------------------

      Code (inc. data)   RO Data    RW Data    ZI Data      Debug   Library Name

      1468         48          0          0         96       1212   c_p.l
        58          4          8          4          0      21002   lib_lpc_board_keil_mcb_4357_m0.lib
       642        108        108          8          0      14500   lib_lpc_chip_43xx_m0.lib

    ----------------------------------------------------------------------
      2178        160        116         12         96      36714   Library Totals

    ----------------------------------------------------------------------

==============================================================================


      Code (inc. data)   RO Data    RW Data    ZI Data      Debug   

     13844        734        416         72       7272     148686   Grand Totals
     13844        734        416         72       7272     148686   ELF Image Totals
     13844        734        416         72          0          0   ROM Totals

==============================================================================

    Total RO  Size (Code + RO Data)                14260 (  13.93kB)
    Total RW  Size (RW Data + ZI Data)              7344 (   7.17kB)
    Total ROM Size (Code + RO Data + RW Data)      14332 (  14.00kB)

==============================================================================

