Product: MDK-ARM Standard 5.10
Component: ARM Compiler 5.04 update 1 (build 49)
Tool: armlink [5040049]

==============================================================================

Section Cross References

    raw-os.o(.text) refers to cpu.o(.text) for OS_CPU_SR_Save
    raw-os.o(.text) refers to raw-os.o(.data) for .data
    raw-os.o(.text) refers to raw-os.o(.bss) for .bss
    raw-os.o(.text) refers to port_hook.o(.text) for raw_tick_hook
    raw-os.o(.text) refers to user_extension.o(.text) for raw_memset
    raw-os.o(.text) refers to port.o(.text) for port_stack_init
    fifo.o(.text) refers to cpu.o(.text) for OS_CPU_SR_Save
    fifo.o(.text) refers to user_extension.o(.text) for raw_memcpy
    rsh.o(.text) refers to cpu.o(.text) for OS_CPU_SR_Save
    rsh.o(.text) refers to string.o(.text) for raw_strncmp
    rsh.o(.text) refers to user_extension.o(.text) for raw_memset
    rsh.o(.text) refers to rsh.o(.data) for .data
    rsh.o(.text) refers to rsh.o(.conststring) for .conststring
    rsh.o(.constdata) refers to rsh.o(.conststring) for .conststring
    rsh.o(.constdata) refers to rsh.o(.text) for rsh_help_command
    rsh.o(.data) refers to rsh.o(.constdata) for xHelpCommand
    cpu.o(.text) refers to raw-os.o(.text) for raw_stack_check
    cpu.o(.text) refers to raw-os.o(.data) for raw_task_active
==============================================================================

Removing Unused input sections from the image.

    Removing rsh.o(.text), (472 bytes).
    Removing rsh.o(.constdata), (16 bytes).
    Removing rsh.o(.conststring), (50 bytes).
    Removing rsh.o(.conststring), (173 bytes).
    Removing rsh.o(.data), (20 bytes).
    Removing string.o(.text), (592 bytes).
    Removing sysinit.o(.rev16_text), (4 bytes).
    Removing sysinit.o(.revsh_text), (4 bytes).
    Removing lpc43xx_scu.o(.rev16_text), (4 bytes).
    Removing lpc43xx_scu.o(.revsh_text), (4 bytes).
    Removing lpc43xx_sdram.o(.rev16_text), (4 bytes).
    Removing lpc43xx_sdram.o(.revsh_text), (4 bytes).
    Removing main.o(.rev16_text), (4 bytes).
    Removing main.o(.revsh_text), (4 bytes).
    Removing main.o(.data), (4 bytes).
    Removing lpc43xx_can0.o(.rev16_text), (4 bytes).
    Removing lpc43xx_can0.o(.revsh_text), (4 bytes).
    Removing lpc43xx_can0.o(.bss), (512 bytes).
==============================================================================

Image Symbol Table

    Local Symbols

    Symbol Name                              Value     Ov Type        Size  Object(Section)

    ../clib/angel/boardlib.s                 0x00000000   Number         0  boardshut.o ABSOLUTE
    ../clib/angel/boardlib.s                 0x00000000   Number         0  boardinit1.o ABSOLUTE
    ../clib/angel/boardlib.s                 0x00000000   Number         0  boardinit3.o ABSOLUTE
    ../clib/angel/boardlib.s                 0x00000000   Number         0  boardinit2.o ABSOLUTE
    ../clib/angel/handlers.s                 0x00000000   Number         0  __scatter_copy.o ABSOLUTE
    ../clib/angel/handlers.s                 0x00000000   Number         0  __scatter_zi.o ABSOLUTE
    ../clib/angel/kernel.s                   0x00000000   Number         0  rtexit2.o ABSOLUTE
    ../clib/angel/kernel.s                   0x00000000   Number         0  rtexit.o ABSOLUTE
    ../clib/angel/kernel.s                   0x00000000   Number         0  rtentry2.o ABSOLUTE
    ../clib/angel/kernel.s                   0x00000000   Number         0  rtentry4.o ABSOLUTE
    ../clib/angel/kernel.s                   0x00000000   Number         0  rtentry.o ABSOLUTE
    ../clib/angel/rt.s                       0x00000000   Number         0  rt_raise.o ABSOLUTE
    ../clib/angel/rt.s                       0x00000000   Number         0  rt_div0.o ABSOLUTE
    ../clib/angel/rt.s                       0x00000000   Number         0  aeabi_ldiv0.o ABSOLUTE
    ../clib/angel/rt.s                       0x00000000   Number         0  aeabi_ldiv0_sigfpe.o ABSOLUTE
    ../clib/angel/scatter.s                  0x00000000   Number         0  __scatter.o ABSOLUTE
    ../clib/angel/startup.s                  0x00000000   Number         0  __main.o ABSOLUTE
    ../clib/angel/sys.s                      0x00000000   Number         0  use_no_semi.o ABSOLUTE
    ../clib/angel/sys.s                      0x00000000   Number         0  sys_stackheap_outer.o ABSOLUTE
    ../clib/angel/sys.s                      0x00000000   Number         0  libspace.o ABSOLUTE
    ../clib/angel/sys.s                      0x00000000   Number         0  indicate_semi.o ABSOLUTE
    ../clib/angel/sysapp.c                   0x00000000   Number         0  sys_wrch.o ABSOLUTE
    ../clib/angel/sysapp.c                   0x00000000   Number         0  sys_command.o ABSOLUTE
    ../clib/armsys.c                         0x00000000   Number         0  argv_veneer.o ABSOLUTE
    ../clib/armsys.c                         0x00000000   Number         0  argv_veneer.o ABSOLUTE
    ../clib/armsys.c                         0x00000000   Number         0  _get_argv_nomalloc.o ABSOLUTE
    ../clib/armsys.c                         0x00000000   Number         0  no_argv.o ABSOLUTE
    ../clib/heapalloc.c                      0x00000000   Number         0  hrguard.o ABSOLUTE
    ../clib/heapaux.c                        0x00000000   Number         0  heapauxi.o ABSOLUTE
    ../clib/libinit.s                        0x00000000   Number         0  libinit.o ABSOLUTE
    ../clib/libinit.s                        0x00000000   Number         0  libshutdown2.o ABSOLUTE
    ../clib/libinit.s                        0x00000000   Number         0  libinit2.o ABSOLUTE
    ../clib/libinit.s                        0x00000000   Number         0  libshutdown.o ABSOLUTE
    ../clib/longlong.s                       0x00000000   Number         0  lludivv7m.o ABSOLUTE
    ../clib/memcpset.s                       0x00000000   Number         0  rt_memclr_w.o ABSOLUTE
    ../clib/memcpset.s                       0x00000000   Number         0  rt_memcpy_v6.o ABSOLUTE
    ../clib/memcpset.s                       0x00000000   Number         0  rt_memcpy_w.o ABSOLUTE
    ../clib/printf.c                         0x00000000   Number         0  _printf_intcommon.o ABSOLUTE
    ../clib/printf.c                         0x00000000   Number         0  __printf_flags_ss_wp.o ABSOLUTE
    ../clib/printf.c                         0x00000000   Number         0  __printf_ss_wp.o ABSOLUTE
    ../clib/printf.c                         0x00000000   Number         0  __printf_wp.o ABSOLUTE
    ../clib/printf.c                         0x00000000   Number         0  __printf_flags_ss.o ABSOLUTE
    ../clib/printf.c                         0x00000000   Number         0  __printf_ss.o ABSOLUTE
    ../clib/printf.c                         0x00000000   Number         0  __printf_flags.o ABSOLUTE
    ../clib/printf.c                         0x00000000   Number         0  _printf_hex_int_ll_ptr.o ABSOLUTE
    ../clib/printf.c                         0x00000000   Number         0  _printf_hex_ll_ptr.o ABSOLUTE
    ../clib/printf.c                         0x00000000   Number         0  _printf_hex_int_ptr.o ABSOLUTE
    ../clib/printf.c                         0x00000000   Number         0  _printf_hex_ptr.o ABSOLUTE
    ../clib/printf.c                         0x00000000   Number         0  _printf_hex_int_ll.o ABSOLUTE
    ../clib/printf.c                         0x00000000   Number         0  _printf_hex_int.o ABSOLUTE
    ../clib/printf.c                         0x00000000   Number         0  _printf_hex_ll.o ABSOLUTE
    ../clib/printf.c                         0x00000000   Number         0  __printf.o ABSOLUTE
    ../clib/printf.c                         0x00000000   Number         0  noretval__2printf.o ABSOLUTE
    ../clib/printf.c                         0x00000000   Number         0  __2printf.o ABSOLUTE
    ../clib/printf.c                         0x00000000   Number         0  __printf_flags_wp.o ABSOLUTE
    ../clib/printf.c                         0x00000000   Number         0  __printf_nopercent.o ABSOLUTE
    ../clib/printf.c                         0x00000000   Number         0  _printf_char_common.o ABSOLUTE
    ../clib/printf.c                         0x00000000   Number         0  _printf_char_file.o ABSOLUTE
    ../clib/printf_percent.s                 0x00000000   Number         0  _printf_percent_end.o ABSOLUTE
    ../clib/printf_percent.s                 0x00000000   Number         0  _printf_x.o ABSOLUTE
    ../clib/printf_percent.s                 0x00000000   Number         0  _printf_percent.o ABSOLUTE
    ../clib/signal.c                         0x00000000   Number         0  defsig_rtmem_inner.o ABSOLUTE
    ../clib/signal.c                         0x00000000   Number         0  defsig_other.o ABSOLUTE
    ../clib/signal.c                         0x00000000   Number         0  defsig_segv_inner.o ABSOLUTE
    ../clib/signal.c                         0x00000000   Number         0  defsig_cppl_inner.o ABSOLUTE
    ../clib/signal.c                         0x00000000   Number         0  defsig_pvfn_inner.o ABSOLUTE
    ../clib/signal.c                         0x00000000   Number         0  defsig_stak_inner.o ABSOLUTE
    ../clib/signal.c                         0x00000000   Number         0  defsig_rtmem_formal.o ABSOLUTE
    ../clib/signal.c                         0x00000000   Number         0  defsig_rtmem_outer.o ABSOLUTE
    ../clib/signal.c                         0x00000000   Number         0  defsig_fpe_formal.o ABSOLUTE
    ../clib/signal.c                         0x00000000   Number         0  defsig_rtred_inner.o ABSOLUTE
    ../clib/signal.c                         0x00000000   Number         0  defsig_general.o ABSOLUTE
    ../clib/signal.c                         0x00000000   Number         0  defsig_fpe_outer.o ABSOLUTE
    ../clib/signal.c                         0x00000000   Number         0  defsig_abrt_inner.o ABSOLUTE
    ../clib/signal.c                         0x00000000   Number         0  defsig_exit.o ABSOLUTE
    ../clib/signal.c                         0x00000000   Number         0  defsig_fpe_inner.o ABSOLUTE
    ../clib/signal.c                         0x00000000   Number         0  __raise.o ABSOLUTE
    ../clib/signal.s                         0x00000000   Number         0  defsig.o ABSOLUTE
    ../clib/stdlib.c                         0x00000000   Number         0  exit.o ABSOLUTE
    ../fplib/fpinit.s                        0x00000000   Number         0  fpinit.o ABSOLUTE
    ..\..\..\..\software\common\lpc43xx_can0.c 0x00000000   Number         0  lpc43xx_can0.o ABSOLUTE
    ..\..\..\..\software\common\lpc43xx_scu.c 0x00000000   Number         0  lpc43xx_scu.o ABSOLUTE
    ..\..\..\..\software\common\lpc43xx_sdram.c 0x00000000   Number         0  lpc43xx_sdram.o ABSOLUTE
    ..\..\..\..\software\kernel\port\cpu.asm 0x00000000   Number         0  cpu.o ABSOLUTE
    ..\..\..\..\software\kernel\port\port.c  0x00000000   Number         0  port.o ABSOLUTE
    ..\..\..\..\software\kernel\port\port_hook.c 0x00000000   Number         0  port_hook.o ABSOLUTE
    ..\..\..\..\software\kernel\port\raw_trace_port.c 0x00000000   Number         0  raw_trace_port.o ABSOLUTE
    ..\..\..\..\software\kernel\port\user_extension.c 0x00000000   Number         0  user_extension.o ABSOLUTE
    ..\..\..\..\software\kernel\raw-os\extension\lib\fifo.c 0x00000000   Number         0  fifo.o ABSOLUTE
    ..\..\..\..\software\kernel\raw-os\extension\lib\string.c 0x00000000   Number         0  string.o ABSOLUTE
    ..\..\..\..\software\kernel\raw-os\extension\shell\rsh.c 0x00000000   Number         0  rsh.o ABSOLUTE
    ..\..\..\..\software\kernel\raw-os\raw-os.c 0x00000000   Number         0  raw-os.o ABSOLUTE
    ..\..\board_common\uda1380.c             0x00000000   Number         0  uda1380.o ABSOLUTE
    ..\..\examples\can\main.c                0x00000000   Number         0  main.o ABSOLUTE
    ..\..\startup_code\keil_startup_lpc18xx43xx.s 0x00000000   Number         0  keil_startup_lpc18xx43xx.o ABSOLUTE
    ..\..\startup_code\sysinit.c             0x00000000   Number         0  sysinit.o ABSOLUTE
    ..\\..\\..\\..\\software\\common\\lpc43xx_can0.c 0x00000000   Number         0  lpc43xx_can0.o ABSOLUTE
    ..\\..\\..\\..\\software\\common\\lpc43xx_scu.c 0x00000000   Number         0  lpc43xx_scu.o ABSOLUTE
    ..\\..\\..\\..\\software\\common\\lpc43xx_sdram.c 0x00000000   Number         0  lpc43xx_sdram.o ABSOLUTE
    ..\\..\\board_common\\uda1380.c          0x00000000   Number         0  uda1380.o ABSOLUTE
    ..\\..\\examples\\can\\main.c            0x00000000   Number         0  main.o ABSOLUTE
    ..\\..\\startup_code\\sysinit.c          0x00000000   Number         0  sysinit.o ABSOLUTE
    ..\\chip_common\\fpu_init.c              0x00000000   Number         0  fpu_init.o ABSOLUTE
    ..\chip_common\fpu_init.c                0x00000000   Number         0  fpu_init.o ABSOLUTE
    ..\chip_common\ring_buffer.c             0x00000000   Number         0  ring_buffer.o ABSOLUTE
    board.c                                  0x00000000   Number         0  board.o ABSOLUTE
    board.c                                  0x00000000   Number         0  board.o ABSOLUTE
    board_sysinit.c                          0x00000000   Number         0  board_sysinit.o ABSOLUTE
    board_sysinit.c                          0x00000000   Number         0  board_sysinit.o ABSOLUTE
    chip_18xx_43xx.c                         0x00000000   Number         0  chip_18xx_43xx.o ABSOLUTE
    chip_18xx_43xx.c                         0x00000000   Number         0  chip_18xx_43xx.o ABSOLUTE
    clock_18xx_43xx.c                        0x00000000   Number         0  clock_18xx_43xx.o ABSOLUTE
    clock_18xx_43xx.c                        0x00000000   Number         0  clock_18xx_43xx.o ABSOLUTE
    dc.s                                     0x00000000   Number         0  dc.o ABSOLUTE
    emc_18xx_43xx.c                          0x00000000   Number         0  emc_18xx_43xx.o ABSOLUTE
    emc_18xx_43xx.c                          0x00000000   Number         0  emc_18xx_43xx.o ABSOLUTE
    gpio_18xx_43xx.c                         0x00000000   Number         0  gpio_18xx_43xx.o ABSOLUTE
    gpio_18xx_43xx.c                         0x00000000   Number         0  gpio_18xx_43xx.o ABSOLUTE
    i2c_18xx_43xx.c                          0x00000000   Number         0  i2c_18xx_43xx.o ABSOLUTE
    i2c_18xx_43xx.c                          0x00000000   Number         0  i2c_18xx_43xx.o ABSOLUTE
    i2s_18xx_43xx.c                          0x00000000   Number         0  i2s_18xx_43xx.o ABSOLUTE
    i2s_18xx_43xx.c                          0x00000000   Number         0  i2s_18xx_43xx.o ABSOLUTE
    rgu_18xx_43xx.c                          0x00000000   Number         0  rgu_18xx_43xx.o ABSOLUTE
    rgu_18xx_43xx.c                          0x00000000   Number         0  rgu_18xx_43xx.o ABSOLUTE
    ssp_18xx_43xx.c                          0x00000000   Number         0  ssp_18xx_43xx.o ABSOLUTE
    ssp_18xx_43xx.c                          0x00000000   Number         0  ssp_18xx_43xx.o ABSOLUTE
    sysinit_18xx_43xx.c                      0x00000000   Number         0  sysinit_18xx_43xx.o ABSOLUTE
    sysinit_18xx_43xx.c                      0x00000000   Number         0  sysinit_18xx_43xx.o ABSOLUTE
    uart_18xx_43xx.c                         0x00000000   Number         0  uart_18xx_43xx.o ABSOLUTE
    uart_18xx_43xx.c                         0x00000000   Number         0  uart_18xx_43xx.o ABSOLUTE
    .data                                    0x10000000   Section       72  raw-os.o(.data)
    .data                                    0x10000048   Section       44  lpc43xx_can0.o(.data)
    .data                                    0x10000074   Section        4  board.o(.data)
    .data                                    0x10000078   Section        4  chip_18xx_43xx.o(.data)
    .data                                    0x1000007c   Section        8  clock_18xx_43xx.o(.data)
    audio_usb_pll_freq                       0x1000007c   Data           8  clock_18xx_43xx.o(.data)
    .bss                                     0x10000084   Section     2988  raw-os.o(.bss)
    .bss                                     0x10000c30   Section     1888  main.o(.bss)
    fifo_buffer                              0x10001310   Data         128  main.o(.bss)
    .bss                                     0x10001390   Section       16  lpc43xx_can0.o(.bss)
    .bss                                     0x100013a0   Section       96  libspace.o(.bss)
    HEAP                                     0x10001400   Section      256  keil_startup_lpc18xx43xx.o(HEAP)
    Heap_Mem                                 0x10001400   Data         256  keil_startup_lpc18xx43xx.o(HEAP)
    STACK                                    0x10001500   Section     1536  keil_startup_lpc18xx43xx.o(STACK)
    Stack_Mem                                0x10001500   Data        1536  keil_startup_lpc18xx43xx.o(STACK)
    __initial_sp                             0x10001b00   Data           0  keil_startup_lpc18xx43xx.o(STACK)
    RESET                                    0x1a000000   Section      276  keil_startup_lpc18xx43xx.o(RESET)
    !!!main                                  0x1a000114   Section        8  __main.o(!!!main)
    !!!scatter                               0x1a00011c   Section       52  __scatter.o(!!!scatter)
    !!handler_copy                           0x1a000150   Section       26  __scatter_copy.o(!!handler_copy)
    !!handler_zi                             0x1a00016c   Section       28  __scatter_zi.o(!!handler_zi)
    .ARM.Collect$$_printf_percent$$00000000  0x1a000188   Section        0  _printf_percent.o(.ARM.Collect$$_printf_percent$$00000000)
    .ARM.Collect$$_printf_percent$$0000000C  0x1a000188   Section        6  _printf_x.o(.ARM.Collect$$_printf_percent$$0000000C)
    .ARM.Collect$$_printf_percent$$00000017  0x1a00018e   Section        4  _printf_percent_end.o(.ARM.Collect$$_printf_percent$$00000017)
    .ARM.Collect$$libinit$$00000000          0x1a000192   Section        2  libinit.o(.ARM.Collect$$libinit$$00000000)
    .ARM.Collect$$libinit$$00000001          0x1a000194   Section        4  libinit2.o(.ARM.Collect$$libinit$$00000001)
    .ARM.Collect$$libinit$$00000008          0x1a000198   Section        0  libinit2.o(.ARM.Collect$$libinit$$00000008)
    .ARM.Collect$$libinit$$0000000A          0x1a000198   Section        0  libinit2.o(.ARM.Collect$$libinit$$0000000A)
    .ARM.Collect$$libinit$$0000000C          0x1a000198   Section        0  libinit2.o(.ARM.Collect$$libinit$$0000000C)
    .ARM.Collect$$libinit$$0000000F          0x1a000198   Section        0  libinit2.o(.ARM.Collect$$libinit$$0000000F)
    .ARM.Collect$$libinit$$00000011          0x1a000198   Section        0  libinit2.o(.ARM.Collect$$libinit$$00000011)
    .ARM.Collect$$libinit$$00000013          0x1a000198   Section        0  libinit2.o(.ARM.Collect$$libinit$$00000013)
    .ARM.Collect$$libinit$$00000015          0x1a000198   Section        0  libinit2.o(.ARM.Collect$$libinit$$00000015)
    .ARM.Collect$$libinit$$00000017          0x1a000198   Section        0  libinit2.o(.ARM.Collect$$libinit$$00000017)
    .ARM.Collect$$libinit$$00000019          0x1a000198   Section        0  libinit2.o(.ARM.Collect$$libinit$$00000019)
    .ARM.Collect$$libinit$$0000001B          0x1a000198   Section        0  libinit2.o(.ARM.Collect$$libinit$$0000001B)
    .ARM.Collect$$libinit$$0000001D          0x1a000198   Section        0  libinit2.o(.ARM.Collect$$libinit$$0000001D)
    .ARM.Collect$$libinit$$0000001F          0x1a000198   Section        0  libinit2.o(.ARM.Collect$$libinit$$0000001F)
    .ARM.Collect$$libinit$$00000021          0x1a000198   Section        0  libinit2.o(.ARM.Collect$$libinit$$00000021)
    .ARM.Collect$$libinit$$00000023          0x1a000198   Section        0  libinit2.o(.ARM.Collect$$libinit$$00000023)
    .ARM.Collect$$libinit$$0000002A          0x1a000198   Section        0  libinit2.o(.ARM.Collect$$libinit$$0000002A)
    .ARM.Collect$$libinit$$0000002C          0x1a000198   Section        0  libinit2.o(.ARM.Collect$$libinit$$0000002C)
    .ARM.Collect$$libinit$$0000002E          0x1a000198   Section        0  libinit2.o(.ARM.Collect$$libinit$$0000002E)
    .ARM.Collect$$libinit$$00000030          0x1a000198   Section        0  libinit2.o(.ARM.Collect$$libinit$$00000030)
    .ARM.Collect$$libinit$$00000031          0x1a000198   Section        2  libinit2.o(.ARM.Collect$$libinit$$00000031)
    .ARM.Collect$$libshutdown$$00000000      0x1a00019a   Section        2  libshutdown.o(.ARM.Collect$$libshutdown$$00000000)
    .ARM.Collect$$libshutdown$$00000003      0x1a00019c   Section        0  libshutdown2.o(.ARM.Collect$$libshutdown$$00000003)
    .ARM.Collect$$libshutdown$$00000006      0x1a00019c   Section        0  libshutdown2.o(.ARM.Collect$$libshutdown$$00000006)
    .ARM.Collect$$libshutdown$$00000009      0x1a00019c   Section        0  libshutdown2.o(.ARM.Collect$$libshutdown$$00000009)
    .ARM.Collect$$libshutdown$$0000000B      0x1a00019c   Section        0  libshutdown2.o(.ARM.Collect$$libshutdown$$0000000B)
    .ARM.Collect$$libshutdown$$0000000E      0x1a00019c   Section        0  libshutdown2.o(.ARM.Collect$$libshutdown$$0000000E)
    .ARM.Collect$$libshutdown$$0000000F      0x1a00019c   Section        2  libshutdown2.o(.ARM.Collect$$libshutdown$$0000000F)
    .ARM.Collect$$rtentry$$00000000          0x1a00019e   Section        0  rtentry.o(.ARM.Collect$$rtentry$$00000000)
    .ARM.Collect$$rtentry$$00000002          0x1a00019e   Section        0  rtentry2.o(.ARM.Collect$$rtentry$$00000002)
    .ARM.Collect$$rtentry$$00000004          0x1a00019e   Section        6  rtentry4.o(.ARM.Collect$$rtentry$$00000004)
    .ARM.Collect$$rtentry$$00000009          0x1a0001a4   Section        0  rtentry2.o(.ARM.Collect$$rtentry$$00000009)
    .ARM.Collect$$rtentry$$0000000A          0x1a0001a4   Section        4  rtentry2.o(.ARM.Collect$$rtentry$$0000000A)
    .ARM.Collect$$rtentry$$0000000C          0x1a0001a8   Section        0  rtentry2.o(.ARM.Collect$$rtentry$$0000000C)
    .ARM.Collect$$rtentry$$0000000D          0x1a0001a8   Section        8  rtentry2.o(.ARM.Collect$$rtentry$$0000000D)
    .ARM.Collect$$rtexit$$00000000           0x1a0001b0   Section        2  rtexit.o(.ARM.Collect$$rtexit$$00000000)
    .ARM.Collect$$rtexit$$00000002           0x1a0001b2   Section        0  rtexit2.o(.ARM.Collect$$rtexit$$00000002)
    .ARM.Collect$$rtexit$$00000003           0x1a0001b2   Section        4  rtexit2.o(.ARM.Collect$$rtexit$$00000003)
    .ARM.Collect$$rtexit$$00000004           0x1a0001b6   Section        6  rtexit2.o(.ARM.Collect$$rtexit$$00000004)
    .text                                    0x1a0001bc   Section        0  raw-os.o(.text)
    pend_task_wake_up                        0x1a0002ff   Thumb Code    92  raw-os.o(.text)
    int_msg_handler                          0x1a0008f7   Thumb Code   172  raw-os.o(.text)
    release_mutex                            0x1a000afd   Thumb Code    86  raw-os.o(.text)
    task_0_tick_handler                      0x1a000c63   Thumb Code    20  raw-os.o(.text)
    task_0_process                           0x1a000c77   Thumb Code   124  raw-os.o(.text)
    task_0_post                              0x1a00124f   Thumb Code   182  raw-os.o(.text)
    is_list_empty                            0x1a002969   Thumb Code    14  raw-os.o(.text)
    list_insert                              0x1a002977   Thumb Code    14  raw-os.o(.text)
    list_delete                              0x1a002985   Thumb Code    12  raw-os.o(.text)
    bit_set                                  0x1a002991   Thumb Code    20  raw-os.o(.text)
    add_to_priority_list                     0x1a0029a5   Thumb Code    28  raw-os.o(.text)
    .text                                    0x1a0029c8   Section        0  fifo.o(.text)
    internal_fifo_out_peek                   0x1a002a67   Thumb Code    62  fifo.o(.text)
    .text                                    0x1a002b3c   Section      164  cpu.o(.text)
    $v0                                      0x1a002b3c   Number         0  cpu.o(.text)
    .text                                    0x1a002be0   Section        0  port.o(.text)
    .text                                    0x1a002d24   Section        0  port_hook.o(.text)
    .text                                    0x1a002d34   Section        0  user_extension.o(.text)
    .text                                    0x1a002dbc   Section       68  keil_startup_lpc18xx43xx.o(.text)
    $v0                                      0x1a002dbc   Number         0  keil_startup_lpc18xx43xx.o(.text)
    .text                                    0x1a002e00   Section        0  sysinit.o(.text)
    .text                                    0x1a002e1c   Section        0  lpc43xx_scu.o(.text)
    .text                                    0x1a002e30   Section        0  lpc43xx_sdram.o(.text)
    .text                                    0x1a003258   Section        0  main.o(.text)
    NVIC_EnableIRQ                           0x1a00347d   Thumb Code    22  main.o(.text)
    NVIC_SetPriority                         0x1a003493   Thumb Code    32  main.o(.text)
    .text                                    0x1a0034f4   Section        0  lpc43xx_can0.o(.text)
    .text                                    0x1a003864   Section        0  noretval__2printf.o(.text)
    .text                                    0x1a00387c   Section        0  __printf.o(.text)
    .text                                    0x1a0038e4   Section        0  _printf_hex_int.o(.text)
    .text                                    0x1a00393c   Section        0  heapauxi.o(.text)
    .text                                    0x1a003942   Section        0  _printf_intcommon.o(.text)
    .text                                    0x1a0039f4   Section        0  _printf_char_file.o(.text)
    .text                                    0x1a003a18   Section        0  _printf_char_common.o(.text)
    _printf_input_char                       0x1a003a19   Thumb Code    10  _printf_char_common.o(.text)
    .text                                    0x1a003a48   Section       74  sys_stackheap_outer.o(.text)
    .text                                    0x1a003a92   Section        0  exit.o(.text)
    .text                                    0x1a003aa0   Section        8  libspace.o(.text)
    i.Board_SetupClocking                    0x1a003aa8   Section        0  board_sysinit.o(i.Board_SetupClocking)
    i.Board_SetupExtMemory                   0x1a003b34   Section        0  board_sysinit.o(i.Board_SetupExtMemory)
    i.Board_SetupMuxing                      0x1a003b98   Section        0  board_sysinit.o(i.Board_SetupMuxing)
    i.Board_SystemInit                       0x1a003bd8   Section        0  board_sysinit.o(i.Board_SystemInit)
    i.Board_UARTPutChar                      0x1a003bec   Section        0  board.o(i.Board_UARTPutChar)
    i.Board_UART_Init                        0x1a003bfc   Section        0  board.o(i.Board_UART_Init)
    i.Chip_Clock_DisableMainPLL              0x1a003c30   Section        0  clock_18xx_43xx.o(i.Chip_Clock_DisableMainPLL)
    i.Chip_Clock_Enable                      0x1a003c40   Section        0  clock_18xx_43xx.o(i.Chip_Clock_Enable)
    i.Chip_Clock_EnableCrystal               0x1a003c6c   Section        0  clock_18xx_43xx.o(i.Chip_Clock_EnableCrystal)
    i.Chip_Clock_EnableOpts                  0x1a003cb0   Section        0  clock_18xx_43xx.o(i.Chip_Clock_EnableOpts)
    i.Chip_Clock_GetBaseClock                0x1a003ce4   Section        0  clock_18xx_43xx.o(i.Chip_Clock_GetBaseClock)
    i.Chip_Clock_GetBaseClocktHz             0x1a003d04   Section        0  clock_18xx_43xx.o(i.Chip_Clock_GetBaseClocktHz)
    i.Chip_Clock_GetClockInputHz             0x1a003d14   Section        0  clock_18xx_43xx.o(i.Chip_Clock_GetClockInputHz)
    i.Chip_Clock_GetDivRate                  0x1a003db4   Section        0  clock_18xx_43xx.o(i.Chip_Clock_GetDivRate)
    Chip_Clock_GetDivRate                    0x1a003db5   Thumb Code    34  clock_18xx_43xx.o(i.Chip_Clock_GetDivRate)
    i.Chip_Clock_GetDividerDivisor           0x1a003dd8   Section        0  clock_18xx_43xx.o(i.Chip_Clock_GetDividerDivisor)
    i.Chip_Clock_GetDividerSource            0x1a003df8   Section        0  clock_18xx_43xx.o(i.Chip_Clock_GetDividerSource)
    i.Chip_Clock_GetEMCRate                  0x1a003e14   Section        0  clock_18xx_43xx.o(i.Chip_Clock_GetEMCRate)
    i.Chip_Clock_GetMainPLLHz                0x1a003e40   Section        0  clock_18xx_43xx.o(i.Chip_Clock_GetMainPLLHz)
    i.Chip_Clock_GetRate                     0x1a003e9c   Section        0  clock_18xx_43xx.o(i.Chip_Clock_GetRate)
    i.Chip_Clock_SetBaseClock                0x1a003f14   Section        0  clock_18xx_43xx.o(i.Chip_Clock_SetBaseClock)
    i.Chip_Clock_SetDivider                  0x1a003f4c   Section        0  clock_18xx_43xx.o(i.Chip_Clock_SetDivider)
    i.Chip_Clock_SetupMainPLLHz              0x1a003f90   Section        0  clock_18xx_43xx.o(i.Chip_Clock_SetupMainPLLHz)
    i.Chip_Clock_SetupMainPLLMult            0x1a004014   Section        0  clock_18xx_43xx.o(i.Chip_Clock_SetupMainPLLMult)
    i.Chip_Clock_TestMainPLLMultiplier       0x1a00409c   Section        0  clock_18xx_43xx.o(i.Chip_Clock_TestMainPLLMultiplier)
    Chip_Clock_TestMainPLLMultiplier         0x1a00409d   Thumb Code    20  clock_18xx_43xx.o(i.Chip_Clock_TestMainPLLMultiplier)
    i.Chip_EMC_Dynamic_Init                  0x1a0040b4   Section        0  emc_18xx_43xx.o(i.Chip_EMC_Dynamic_Init)
    i.Chip_EMC_Init                          0x1a0040d0   Section        0  emc_18xx_43xx.o(i.Chip_EMC_Init)
    i.Chip_EMC_Static_Init                   0x1a0040ec   Section        0  emc_18xx_43xx.o(i.Chip_EMC_Static_Init)
    i.Chip_SCU_SetPinMuxing                  0x1a004108   Section        0  board_sysinit.o(i.Chip_SCU_SetPinMuxing)
    Chip_SCU_SetPinMuxing                    0x1a004109   Thumb Code    36  board_sysinit.o(i.Chip_SCU_SetPinMuxing)
    i.Chip_SetupCoreClock                    0x1a004130   Section        0  sysinit_18xx_43xx.o(i.Chip_SetupCoreClock)
    i.Chip_UART_GetClockIndex                0x1a0041ac   Section        0  uart_18xx_43xx.o(i.Chip_UART_GetClockIndex)
    Chip_UART_GetClockIndex                  0x1a0041ad   Thumb Code    34  uart_18xx_43xx.o(i.Chip_UART_GetClockIndex)
    i.Chip_UART_Init                         0x1a0041dc   Section        0  uart_18xx_43xx.o(i.Chip_UART_Init)
    i.Chip_UART_SetBaud                      0x1a00421c   Section        0  uart_18xx_43xx.o(i.Chip_UART_SetBaud)
    i.SystemCoreClockUpdate                  0x1a004258   Section        0  chip_18xx_43xx.o(i.SystemCoreClockUpdate)
    i._sys_exit                              0x1a00426c   Section        0  board.o(i._sys_exit)
    i.convertTimmingParam                    0x1a004270   Section        0  emc_18xx_43xx.o(i.convertTimmingParam)
    convertTimmingParam                      0x1a004271   Thumb Code    42  emc_18xx_43xx.o(i.convertTimmingParam)
    i.ferror                                 0x1a0042a0   Section        0  board.o(i.ferror)
    i.fpuInit                                0x1a0042a8   Section        0  fpu_init.o(i.fpuInit)
    i.fputc                                  0x1a0042e4   Section        0  board.o(i.fputc)
    i.initDynMem                             0x1a0042f0   Section        0  emc_18xx_43xx.o(i.initDynMem)
    i.initStaticMem                          0x1a00448a   Section        0  emc_18xx_43xx.o(i.initStaticMem)
    x$fpl$fpinit                             0x1a0044ea   Section       10  fpinit.o(x$fpl$fpinit)
    $v0                                      0x1a0044ea   Number         0  fpinit.o(x$fpl$fpinit)
    .constdata                               0x1a0044f4   Section        4  board.o(.constdata)
    .constdata                               0x1a0044f8   Section        4  board.o(.constdata)
    .constdata                               0x1a0044fc   Section      700  board_sysinit.o(.constdata)
    InitClkStates                            0x1a0044fc   Data          16  board_sysinit.o(.constdata)
    spifipinmuxing                           0x1a00450c   Data          24  board_sysinit.o(.constdata)
    pinmuxing                                0x1a004524   Data         496  board_sysinit.o(.constdata)
    pinclockmuxing                           0x1a004714   Data          16  board_sysinit.o(.constdata)
    MT48LC4M32_config                        0x1a004724   Data         116  board_sysinit.o(.constdata)
    S29GL64N90_config                        0x1a004798   Data          32  board_sysinit.o(.constdata)
    .constdata                               0x1a0047b8   Section      108  clock_18xx_43xx.o(.constdata)
    periph_to_base                           0x1a0047b8   Data         108  clock_18xx_43xx.o(.constdata)
    .constdata                               0x1a004824   Section       72  sysinit_18xx_43xx.o(.constdata)
    InitClkStates                            0x1a004824   Data          72  sysinit_18xx_43xx.o(.constdata)
    .constdata                               0x1a00486c   Section       40  _printf_hex_int.o(.constdata)
    uc_hextab                                0x1a00486c   Data          20  _printf_hex_int.o(.constdata)
    lc_hextab                                0x1a004880   Data          20  _printf_hex_int.o(.constdata)

    Global Symbols

    Symbol Name                              Value     Ov Type        Size  Object(Section)

    BuildAttributes$$THM_ISAv4$E$P$D$K$B$S$7EM$VFPi3$EXTD16$VFPS$VFMA$PE$A:L22UL41UL21$X:L11$S22US41US21$IEEE1$IW$USESV6$~STKCKD$USESV7$~SHL$OSPACE$ROPI$EBA8$UX$STANDARDLIB$REQ8$PRES8$EABIv2 0x00000000   Number         0  anon$$obj.o ABSOLUTE
    __ARM_use_no_argv                        0x00000000   Number         0  main.o ABSOLUTE
    __ARM_exceptions_init                     - Undefined Weak Reference
    __alloca_initialize                       - Undefined Weak Reference
    __cpp_initialize__aeabi_                  - Undefined Weak Reference
    __cxa_finalize                            - Undefined Weak Reference
    __rt_locale                               - Undefined Weak Reference
    __sigvec_lookup                           - Undefined Weak Reference
    _atexit_init                              - Undefined Weak Reference
    _call_atexit_fns                          - Undefined Weak Reference
    _clock_init                               - Undefined Weak Reference
    _fp_trap_init                             - Undefined Weak Reference
    _fp_trap_shutdown                         - Undefined Weak Reference
    _get_lc_collate                           - Undefined Weak Reference
    _get_lc_ctype                             - Undefined Weak Reference
    _get_lc_monetary                          - Undefined Weak Reference
    _get_lc_numeric                           - Undefined Weak Reference
    _get_lc_time                              - Undefined Weak Reference
    _getenv_init                              - Undefined Weak Reference
    _handle_redirection                       - Undefined Weak Reference
    _init_alloc                               - Undefined Weak Reference
    _init_user_alloc                          - Undefined Weak Reference
    _initio                                   - Undefined Weak Reference
    _printf_post_padding                      - Undefined Weak Reference
    _printf_pre_padding                       - Undefined Weak Reference
    _printf_truncate_unsigned                 - Undefined Weak Reference
    _rand_init                                - Undefined Weak Reference
    _signal_finish                            - Undefined Weak Reference
    _signal_init                              - Undefined Weak Reference
    _terminate_alloc                          - Undefined Weak Reference
    _terminate_user_alloc                     - Undefined Weak Reference
    _terminateio                              - Undefined Weak Reference
    raw_os_active                            0x10000000   Data           1  raw-os.o(.data)
    idle_task_exit                           0x10000001   Data           1  raw-os.o(.data)
    raw_sched_lock                           0x10000002   Data           1  raw-os.o(.data)
    raw_int_nesting                          0x10000003   Data           1  raw-os.o(.data)
    mutex_recursion_levels                   0x10000004   Data           1  raw-os.o(.data)
    mutex_recursion_max_levels               0x10000005   Data           1  raw-os.o(.data)
    task_0_exit                              0x10000006   Data           1  raw-os.o(.data)
    task_0_event_head                        0x10000008   Data           2  raw-os.o(.data)
    task_0_event_end                         0x1000000a   Data           2  raw-os.o(.data)
    task_0_events                            0x1000000c   Data           2  raw-os.o(.data)
    peak_events                              0x1000000e   Data           2  raw-os.o(.data)
    high_ready_obj                           0x10000010   Data           4  raw-os.o(.data)
    raw_task_active                          0x10000014   Data           4  raw-os.o(.data)
    raw_tick_count                           0x10000018   Data           4  raw-os.o(.data)
    task_0_event_handler                     0x1000001c   Data           4  raw-os.o(.data)
    free_object_int_msg                      0x10000020   Data           4  raw-os.o(.data)
    int_msg_full                             0x10000024   Data           4  raw-os.o(.data)
    msg_event_handler                        0x10000028   Data           4  raw-os.o(.data)
    raw_idle_count                           0x10000030   Data           8  raw-os.o(.data)
    tick_head                                0x10000038   Data           8  raw-os.o(.data)
    raw_task_debug                           0x10000040   Data           8  raw-os.o(.data)
    BOffCnt                                  0x10000048   Data           4  lpc43xx_can0.o(.data)
    EWarnCnt                                 0x1000004c   Data           4  lpc43xx_can0.o(.data)
    StuffErrCnt                              0x10000050   Data           4  lpc43xx_can0.o(.data)
    FormErrCnt                               0x10000054   Data           4  lpc43xx_can0.o(.data)
    AckErrCnt                                0x10000058   Data           4  lpc43xx_can0.o(.data)
    Bit1ErrCnt                               0x1000005c   Data           4  lpc43xx_can0.o(.data)
    Bit0ErrCnt                               0x10000060   Data           4  lpc43xx_can0.o(.data)
    CRCErrCnt                                0x10000064   Data           4  lpc43xx_can0.o(.data)
    ND1ErrCnt                                0x10000068   Data           4  lpc43xx_can0.o(.data)
    TX_cb                                    0x1000006c   Data           4  lpc43xx_can0.o(.data)
    RX_cb                                    0x10000070   Data           4  lpc43xx_can0.o(.data)
    __stdout                                 0x10000074   Data           4  board.o(.data)
    SystemCoreClock                          0x10000078   Data           4  chip_18xx_43xx.o(.data)
    raw_ready_queue                          0x10000084   Data         508  raw-os.o(.bss)
    raw_idle_obj                             0x10000280   Data          96  raw-os.o(.bss)
    idle_stack                               0x100002e0   Data         400  raw-os.o(.bss)
    task_0_events_queue                      0x10000470   Data         384  raw-os.o(.bss)
    raw_task_0_obj                           0x100005f0   Data          96  raw-os.o(.bss)
    task_0_stack                             0x10000650   Data        1024  raw-os.o(.bss)
    object_int_msg                           0x10000a50   Data         480  raw-os.o(.bss)
    shell_task_stack                         0x10000c30   Data        1600  main.o(.bss)
    shell_task_obj                           0x10001270   Data          96  main.o(.bss)
    uart_sema                                0x100012d0   Data          24  main.o(.bss)
    uart_fifo                                0x100012e8   Data          24  main.o(.bss)
    recv_obj                                 0x10001300   Data          16  main.o(.bss)
    recv_buff                                0x10001390   Data          16  lpc43xx_can0.o(.bss)
    __libspace_start                         0x100013a0   Data          96  libspace.o(.bss)
    __temporary_stack_top$libspace           0x10001400   Data           0  libspace.o(.bss)
    __Vectors                                0x1a000000   Data           4  keil_startup_lpc18xx43xx.o(RESET)
    __main                                   0x1a000115   Thumb Code     8  __main.o(!!!main)
    __scatterload                            0x1a00011d   Thumb Code     0  __scatter.o(!!!scatter)
    __scatterload_rt2                        0x1a00011d   Thumb Code    44  __scatter.o(!!!scatter)
    __scatterload_rt2_thumb_only             0x1a00011d   Thumb Code     0  __scatter.o(!!!scatter)
    __scatterload_null                       0x1a00012b   Thumb Code     0  __scatter.o(!!!scatter)
    __scatterload_copy                       0x1a000151   Thumb Code    26  __scatter_copy.o(!!handler_copy)
    __scatterload_zeroinit                   0x1a00016d   Thumb Code    28  __scatter_zi.o(!!handler_zi)
    _printf_percent                          0x1a000189   Thumb Code     0  _printf_percent.o(.ARM.Collect$$_printf_percent$$00000000)
    _printf_x                                0x1a000189   Thumb Code     0  _printf_x.o(.ARM.Collect$$_printf_percent$$0000000C)
    _printf_percent_end                      0x1a00018f   Thumb Code     0  _printf_percent_end.o(.ARM.Collect$$_printf_percent$$00000017)
    __rt_lib_init                            0x1a000193   Thumb Code     0  libinit.o(.ARM.Collect$$libinit$$00000000)
    __rt_lib_init_fp_1                       0x1a000195   Thumb Code     0  libinit2.o(.ARM.Collect$$libinit$$00000001)
    __rt_lib_init_alloca_1                   0x1a000199   Thumb Code     0  libinit2.o(.ARM.Collect$$libinit$$0000002C)
    __rt_lib_init_argv_1                     0x1a000199   Thumb Code     0  libinit2.o(.ARM.Collect$$libinit$$0000002A)
    __rt_lib_init_atexit_1                   0x1a000199   Thumb Code     0  libinit2.o(.ARM.Collect$$libinit$$00000019)
    __rt_lib_init_clock_1                    0x1a000199   Thumb Code     0  libinit2.o(.ARM.Collect$$libinit$$0000001F)
    __rt_lib_init_cpp_1                      0x1a000199   Thumb Code     0  libinit2.o(.ARM.Collect$$libinit$$00000030)
    __rt_lib_init_exceptions_1               0x1a000199   Thumb Code     0  libinit2.o(.ARM.Collect$$libinit$$0000002E)
    __rt_lib_init_fp_trap_1                  0x1a000199   Thumb Code     0  libinit2.o(.ARM.Collect$$libinit$$0000001D)
    __rt_lib_init_getenv_1                   0x1a000199   Thumb Code     0  libinit2.o(.ARM.Collect$$libinit$$00000021)
    __rt_lib_init_heap_1                     0x1a000199   Thumb Code     0  libinit2.o(.ARM.Collect$$libinit$$00000008)
    __rt_lib_init_lc_collate_1               0x1a000199   Thumb Code     0  libinit2.o(.ARM.Collect$$libinit$$0000000F)
    __rt_lib_init_lc_ctype_1                 0x1a000199   Thumb Code     0  libinit2.o(.ARM.Collect$$libinit$$00000011)
    __rt_lib_init_lc_monetary_1              0x1a000199   Thumb Code     0  libinit2.o(.ARM.Collect$$libinit$$00000013)
    __rt_lib_init_lc_numeric_1               0x1a000199   Thumb Code     0  libinit2.o(.ARM.Collect$$libinit$$00000015)
    __rt_lib_init_lc_time_1                  0x1a000199   Thumb Code     0  libinit2.o(.ARM.Collect$$libinit$$00000017)
    __rt_lib_init_rand_1                     0x1a000199   Thumb Code     0  libinit2.o(.ARM.Collect$$libinit$$0000000C)
    __rt_lib_init_return                     0x1a000199   Thumb Code     0  libinit2.o(.ARM.Collect$$libinit$$00000031)
    __rt_lib_init_signal_1                   0x1a000199   Thumb Code     0  libinit2.o(.ARM.Collect$$libinit$$0000001B)
    __rt_lib_init_stdio_1                    0x1a000199   Thumb Code     0  libinit2.o(.ARM.Collect$$libinit$$00000023)
    __rt_lib_init_user_alloc_1               0x1a000199   Thumb Code     0  libinit2.o(.ARM.Collect$$libinit$$0000000A)
    __rt_lib_shutdown                        0x1a00019b   Thumb Code     0  libshutdown.o(.ARM.Collect$$libshutdown$$00000000)
    __rt_lib_shutdown_fp_trap_1              0x1a00019d   Thumb Code     0  libshutdown2.o(.ARM.Collect$$libshutdown$$00000006)
    __rt_lib_shutdown_heap_1                 0x1a00019d   Thumb Code     0  libshutdown2.o(.ARM.Collect$$libshutdown$$0000000E)
    __rt_lib_shutdown_return                 0x1a00019d   Thumb Code     0  libshutdown2.o(.ARM.Collect$$libshutdown$$0000000F)
    __rt_lib_shutdown_signal_1               0x1a00019d   Thumb Code     0  libshutdown2.o(.ARM.Collect$$libshutdown$$00000009)
    __rt_lib_shutdown_stdio_1                0x1a00019d   Thumb Code     0  libshutdown2.o(.ARM.Collect$$libshutdown$$00000003)
    __rt_lib_shutdown_user_alloc_1           0x1a00019d   Thumb Code     0  libshutdown2.o(.ARM.Collect$$libshutdown$$0000000B)
    __rt_entry                               0x1a00019f   Thumb Code     0  rtentry.o(.ARM.Collect$$rtentry$$00000000)
    __rt_entry_presh_1                       0x1a00019f   Thumb Code     0  rtentry2.o(.ARM.Collect$$rtentry$$00000002)
    __rt_entry_sh                            0x1a00019f   Thumb Code     0  rtentry4.o(.ARM.Collect$$rtentry$$00000004)
    __rt_entry_li                            0x1a0001a5   Thumb Code     0  rtentry2.o(.ARM.Collect$$rtentry$$0000000A)
    __rt_entry_postsh_1                      0x1a0001a5   Thumb Code     0  rtentry2.o(.ARM.Collect$$rtentry$$00000009)
    __rt_entry_main                          0x1a0001a9   Thumb Code     0  rtentry2.o(.ARM.Collect$$rtentry$$0000000D)
    __rt_entry_postli_1                      0x1a0001a9   Thumb Code     0  rtentry2.o(.ARM.Collect$$rtentry$$0000000C)
    __rt_exit                                0x1a0001b1   Thumb Code     0  rtexit.o(.ARM.Collect$$rtexit$$00000000)
    __rt_exit_ls                             0x1a0001b3   Thumb Code     0  rtexit2.o(.ARM.Collect$$rtexit$$00000003)
    __rt_exit_prels_1                        0x1a0001b3   Thumb Code     0  rtexit2.o(.ARM.Collect$$rtexit$$00000002)
    __rt_exit_exit                           0x1a0001b7   Thumb Code     0  rtexit2.o(.ARM.Collect$$rtexit$$00000004)
    get_ready_task                           0x1a0001bd   Thumb Code    24  raw-os.o(.text)
    raw_sched                                0x1a0001d5   Thumb Code    48  raw-os.o(.text)
    hybrid_int_process                       0x1a000205   Thumb Code   134  raw-os.o(.text)
    tick_list_remove                         0x1a00028b   Thumb Code    24  raw-os.o(.text)
    add_ready_list_head                      0x1a0002a3   Thumb Code    38  raw-os.o(.text)
    add_ready_list_end                       0x1a0002c9   Thumb Code    38  raw-os.o(.text)
    add_ready_list                           0x1a0002ef   Thumb Code    16  raw-os.o(.text)
    wake_send_msg_size                       0x1a00035b   Thumb Code     6  raw-os.o(.text)
    msg_size_post                            0x1a000361   Thumb Code   276  raw-os.o(.text)
    wake_send_msg                            0x1a000475   Thumb Code     4  raw-os.o(.text)
    msg_post                                 0x1a000479   Thumb Code   280  raw-os.o(.text)
    raw_wake_object                          0x1a000591   Thumb Code     2  raw-os.o(.text)
    semaphore_put                            0x1a000593   Thumb Code   228  raw-os.o(.text)
    task_resume                              0x1a000677   Thumb Code   210  raw-os.o(.text)
    bit_search_first_one                     0x1a000749   Thumb Code   116  raw-os.o(.text)
    remove_ready_list                        0x1a0007bd   Thumb Code    96  raw-os.o(.text)
    task_suspend                             0x1a00081d   Thumb Code   218  raw-os.o(.text)
    move_to_ready_list_end                   0x1a0009a3   Thumb Code    30  raw-os.o(.text)
    calculate_time_slice                     0x1a0009c1   Thumb Code   108  raw-os.o(.text)
    mtx_chg_pri                              0x1a000a2d   Thumb Code    86  raw-os.o(.text)
    change_pend_list_priority                0x1a000a83   Thumb Code    32  raw-os.o(.text)
    change_internal_task_priority            0x1a000aa3   Thumb Code    90  raw-os.o(.text)
    mutex_state_change                       0x1a000b53   Thumb Code    32  raw-os.o(.text)
    tick_list_update                         0x1a000b73   Thumb Code   240  raw-os.o(.text)
    raw_task_create                          0x1a000cf3   Thumb Code   442  raw-os.o(.text)
    raw_task_0_init                          0x1a000ead   Thumb Code    92  raw-os.o(.text)
    raw_idle_task                            0x1a000f09   Thumb Code    32  raw-os.o(.text)
    tick_list_init                           0x1a000f29   Thumb Code    10  raw-os.o(.text)
    run_queue_init                           0x1a000f33   Thumb Code    26  raw-os.o(.text)
    raw_os_init                              0x1a000f4d   Thumb Code    82  raw-os.o(.text)
    raw_os_start                             0x1a000f9f   Thumb Code    38  raw-os.o(.text)
    tick_list_insert                         0x1a000fc5   Thumb Code    58  raw-os.o(.text)
    raw_pend_object                          0x1a000fff   Thumb Code    88  raw-os.o(.text)
    delete_pend_obj                          0x1a001057   Thumb Code    94  raw-os.o(.text)
    raw_task_stack_check                     0x1a0010b5   Thumb Code    32  raw-os.o(.text)
    raw_disable_sche                         0x1a0010d5   Thumb Code    42  raw-os.o(.text)
    raw_enable_sche                          0x1a0010ff   Thumb Code    56  raw-os.o(.text)
    block_state_post_process                 0x1a001137   Thumb Code    66  raw-os.o(.text)
    raw_sleep                                0x1a001179   Thumb Code   134  raw-os.o(.text)
    raw_time_sleep                           0x1a0011ff   Thumb Code    80  raw-os.o(.text)
    raw_task_0_post                          0x1a001305   Thumb Code     4  raw-os.o(.text)
    int_msg_post                             0x1a001309   Thumb Code    80  raw-os.o(.text)
    raw_task_suspend                         0x1a001359   Thumb Code    54  raw-os.o(.text)
    raw_task_resume                          0x1a00138f   Thumb Code    46  raw-os.o(.text)
    chg_pri_mutex                            0x1a0013bd   Thumb Code   112  raw-os.o(.text)
    raw_task_priority_change                 0x1a00142d   Thumb Code   162  raw-os.o(.text)
    raw_task_free_mutex                      0x1a0014cf   Thumb Code    66  raw-os.o(.text)
    raw_task_delete                          0x1a001511   Thumb Code   226  raw-os.o(.text)
    raw_set_task_user_point                  0x1a0015f3   Thumb Code    26  raw-os.o(.text)
    raw_get_task_user_point                  0x1a00160d   Thumb Code     8  raw-os.o(.text)
    raw_task_time_slice_change               0x1a001615   Thumb Code    80  raw-os.o(.text)
    raw_set_sched_way                        0x1a001665   Thumb Code    80  raw-os.o(.text)
    raw_get_sched_way                        0x1a0016b5   Thumb Code    84  raw-os.o(.text)
    raw_task_wait_abort                      0x1a001709   Thumb Code   204  raw-os.o(.text)
    raw_task_identify                        0x1a0017d5   Thumb Code     6  raw-os.o(.text)
    raw_iter_block_task                      0x1a0017db   Thumb Code   102  raw-os.o(.text)
    raw_get_system_global_space              0x1a001841   Thumb Code     6  raw-os.o(.text)
    task_0_tick_post                         0x1a001847   Thumb Code    14  raw-os.o(.text)
    raw_task_0_front_post                    0x1a001855   Thumb Code     4  raw-os.o(.text)
    raw_block_pool_create                    0x1a001859   Thumb Code    98  raw-os.o(.text)
    raw_block_allocate                       0x1a0018bb   Thumb Code    70  raw-os.o(.text)
    raw_block_release                        0x1a001901   Thumb Code    48  raw-os.o(.text)
    raw_mutex_create                         0x1a001931   Thumb Code    60  raw-os.o(.text)
    raw_mutex_get                            0x1a00196d   Thumb Code   350  raw-os.o(.text)
    raw_mutex_put                            0x1a001acb   Thumb Code   282  raw-os.o(.text)
    raw_mutex_delete                         0x1a001be5   Thumb Code   130  raw-os.o(.text)
    raw_queue_create                         0x1a001c67   Thumb Code    58  raw-os.o(.text)
    raw_queue_front_post                     0x1a001ca1   Thumb Code    58  raw-os.o(.text)
    raw_queue_end_post                       0x1a001cdb   Thumb Code    58  raw-os.o(.text)
    raw_queue_post_notify                    0x1a001d15   Thumb Code    54  raw-os.o(.text)
    raw_queue_all_post                       0x1a001d4b   Thumb Code    50  raw-os.o(.text)
    raw_queue_send_notify                    0x1a001d7d   Thumb Code   104  raw-os.o(.text)
    raw_queue_receive                        0x1a001de5   Thumb Code   270  raw-os.o(.text)
    raw_queue_full_check                     0x1a001ef3   Thumb Code   114  raw-os.o(.text)
    raw_queue_flush                          0x1a001f65   Thumb Code   114  raw-os.o(.text)
    raw_queue_delete                         0x1a001fd7   Thumb Code   128  raw-os.o(.text)
    raw_queue_get_information                0x1a002057   Thumb Code   140  raw-os.o(.text)
    raw_queue_size_create                    0x1a0020e3   Thumb Code    70  raw-os.o(.text)
    raw_queue_size_receive                   0x1a002129   Thumb Code   320  raw-os.o(.text)
    raw_queue_size_front_post                0x1a002269   Thumb Code    54  raw-os.o(.text)
    raw_queue_size_end_post                  0x1a00229f   Thumb Code    54  raw-os.o(.text)
    raw_queue_size_all_post                  0x1a0022d5   Thumb Code    50  raw-os.o(.text)
    raw_queue_size_full_check                0x1a002307   Thumb Code   114  raw-os.o(.text)
    raw_queue_size_flush                     0x1a002379   Thumb Code   128  raw-os.o(.text)
    raw_queue_size_delete                    0x1a0023f9   Thumb Code   128  raw-os.o(.text)
    raw_queue_size_get_information           0x1a002479   Thumb Code   134  raw-os.o(.text)
    raw_semaphore_create                     0x1a0024ff   Thumb Code    36  raw-os.o(.text)
    raw_semaphore_put                        0x1a002523   Thumb Code    48  raw-os.o(.text)
    raw_semaphore_put_notify                 0x1a002553   Thumb Code    46  raw-os.o(.text)
    raw_semaphore_put_all                    0x1a002581   Thumb Code    44  raw-os.o(.text)
    raw_semphore_send_notify                 0x1a0025ad   Thumb Code   104  raw-os.o(.text)
    raw_semaphore_get                        0x1a002615   Thumb Code   216  raw-os.o(.text)
    raw_semaphore_set                        0x1a0026ed   Thumb Code   146  raw-os.o(.text)
    raw_semaphore_delete                     0x1a00277f   Thumb Code   132  raw-os.o(.text)
    raw_stack_check                          0x1a002803   Thumb Code    56  raw-os.o(.text)
    raw_finish_int                           0x1a00283b   Thumb Code    56  raw-os.o(.text)
    raw_time_tick                            0x1a002873   Thumb Code    46  raw-os.o(.text)
    raw_enter_interrupt                      0x1a0028a1   Thumb Code    32  raw-os.o(.text)
    raw_system_time_get                      0x1a0028c1   Thumb Code     6  raw-os.o(.text)
    raw_system_time_set                      0x1a0028c7   Thumb Code    60  raw-os.o(.text)
    raw_task_qsize_create                    0x1a002903   Thumb Code    22  raw-os.o(.text)
    raw_task_qsize_receive                   0x1a002919   Thumb Code    22  raw-os.o(.text)
    raw_task_qsize_front_post                0x1a00292f   Thumb Code     4  raw-os.o(.text)
    raw_task_qsize_end_post                  0x1a002933   Thumb Code     4  raw-os.o(.text)
    raw_task_qsize_flush                     0x1a002937   Thumb Code     4  raw-os.o(.text)
    raw_task_qsize_delete                    0x1a00293b   Thumb Code     4  raw-os.o(.text)
    raw_task_qsize_get_information           0x1a00293f   Thumb Code     4  raw-os.o(.text)
    raw_task_semaphore_create                0x1a002943   Thumb Code    16  raw-os.o(.text)
    raw_task_semaphore_put                   0x1a002953   Thumb Code     4  raw-os.o(.text)
    raw_task_semaphore_get                   0x1a002957   Thumb Code    10  raw-os.o(.text)
    raw_task_semaphore_set                   0x1a002961   Thumb Code     4  raw-os.o(.text)
    raw_task_semaphore_delete                0x1a002965   Thumb Code     4  raw-os.o(.text)
    fifo_init                                0x1a0029c9   Thumb Code    66  fifo.o(.text)
    fifo_in                                  0x1a002a0b   Thumb Code    92  fifo.o(.text)
    fifo_out_peek                            0x1a002aa5   Thumb Code    38  fifo.o(.text)
    fifo_out                                 0x1a002acb   Thumb Code    50  fifo.o(.text)
    fifo_out_all                             0x1a002afd   Thumb Code    62  fifo.o(.text)
    OS_CPU_SR_Save                           0x1a002b3d   Thumb Code     0  cpu.o(.text)
    OS_CPU_SR_Restore                        0x1a002b45   Thumb Code     0  cpu.o(.text)
    CPU_IntDis                               0x1a002b4b   Thumb Code     0  cpu.o(.text)
    CPU_IntEn                                0x1a002b4f   Thumb Code     0  cpu.o(.text)
    raw_start_first_task                     0x1a002b53   Thumb Code     0  cpu.o(.text)
    port_task_switch                         0x1a002b7b   Thumb Code     0  cpu.o(.text)
    raw_int_switch                           0x1a002b85   Thumb Code     0  cpu.o(.text)
    PendSV_Handler                           0x1a002b8f   Thumb Code     0  cpu.o(.text)
    port_stack_init                          0x1a002be1   Thumb Code   324  port.o(.text)
    raw_os_init_hook                         0x1a002d25   Thumb Code     2  port_hook.o(.text)
    raw_task_delete_hook                     0x1a002d27   Thumb Code     2  port_hook.o(.text)
    raw_task_abort_hook                      0x1a002d29   Thumb Code     2  port_hook.o(.text)
    raw_idle_task_hook                       0x1a002d2b   Thumb Code     2  port_hook.o(.text)
    raw_task_switch_hook                     0x1a002d2d   Thumb Code     2  port_hook.o(.text)
    raw_tick_hook                            0x1a002d2f   Thumb Code     2  port_hook.o(.text)
    task_create_hook                         0x1a002d31   Thumb Code     2  port_hook.o(.text)
    raw_idle_coroutine_hook                  0x1a002d33   Thumb Code     2  port_hook.o(.text)
    raw_memcpy                               0x1a002d35   Thumb Code    74  user_extension.o(.text)
    raw_memset                               0x1a002d7f   Thumb Code    62  user_extension.o(.text)
    Reset_Handler                            0x1a002dbd   Thumb Code     8  keil_startup_lpc18xx43xx.o(.text)
    NMI_Handler                              0x1a002dc5   Thumb Code     2  keil_startup_lpc18xx43xx.o(.text)
    HardFault_Handler                        0x1a002dc7   Thumb Code     2  keil_startup_lpc18xx43xx.o(.text)
    MemManage_Handler                        0x1a002dc9   Thumb Code     2  keil_startup_lpc18xx43xx.o(.text)
    BusFault_Handler                         0x1a002dcb   Thumb Code     2  keil_startup_lpc18xx43xx.o(.text)
    UsageFault_Handler                       0x1a002dcd   Thumb Code     2  keil_startup_lpc18xx43xx.o(.text)
    SVC_Handler                              0x1a002dcf   Thumb Code     2  keil_startup_lpc18xx43xx.o(.text)
    DebugMon_Handler                         0x1a002dd1   Thumb Code     2  keil_startup_lpc18xx43xx.o(.text)
    UnHandled_Vector                         0x1a002dd7   Thumb Code     2  keil_startup_lpc18xx43xx.o(.text)
    ADC0_IRQHandler                          0x1a002dd9   Thumb Code     0  keil_startup_lpc18xx43xx.o(.text)
    ADC1_IRQHandler                          0x1a002dd9   Thumb Code     0  keil_startup_lpc18xx43xx.o(.text)
    ADCHS_IRQHandler                         0x1a002dd9   Thumb Code     0  keil_startup_lpc18xx43xx.o(.text)
    ATIMER_IRQHandler                        0x1a002dd9   Thumb Code     0  keil_startup_lpc18xx43xx.o(.text)
    CAN1_IRQHandler                          0x1a002dd9   Thumb Code     0  keil_startup_lpc18xx43xx.o(.text)
    DAC_IRQHandler                           0x1a002dd9   Thumb Code     0  keil_startup_lpc18xx43xx.o(.text)
    DMA_IRQHandler                           0x1a002dd9   Thumb Code     0  keil_startup_lpc18xx43xx.o(.text)
    ETH_IRQHandler                           0x1a002dd9   Thumb Code     0  keil_startup_lpc18xx43xx.o(.text)
    EVRT_IRQHandler                          0x1a002dd9   Thumb Code     0  keil_startup_lpc18xx43xx.o(.text)
    FLASHEEPROM_IRQHandler                   0x1a002dd9   Thumb Code     0  keil_startup_lpc18xx43xx.o(.text)
    GINT0_IRQHandler                         0x1a002dd9   Thumb Code     0  keil_startup_lpc18xx43xx.o(.text)
    GINT1_IRQHandler                         0x1a002dd9   Thumb Code     0  keil_startup_lpc18xx43xx.o(.text)
    GPIO0_IRQHandler                         0x1a002dd9   Thumb Code     0  keil_startup_lpc18xx43xx.o(.text)
    GPIO1_IRQHandler                         0x1a002dd9   Thumb Code     0  keil_startup_lpc18xx43xx.o(.text)
    GPIO2_IRQHandler                         0x1a002dd9   Thumb Code     0  keil_startup_lpc18xx43xx.o(.text)
    GPIO3_IRQHandler                         0x1a002dd9   Thumb Code     0  keil_startup_lpc18xx43xx.o(.text)
    GPIO4_IRQHandler                         0x1a002dd9   Thumb Code     0  keil_startup_lpc18xx43xx.o(.text)
    GPIO5_IRQHandler                         0x1a002dd9   Thumb Code     0  keil_startup_lpc18xx43xx.o(.text)
    GPIO6_IRQHandler                         0x1a002dd9   Thumb Code     0  keil_startup_lpc18xx43xx.o(.text)
    GPIO7_IRQHandler                         0x1a002dd9   Thumb Code     0  keil_startup_lpc18xx43xx.o(.text)
    I2C0_IRQHandler                          0x1a002dd9   Thumb Code     0  keil_startup_lpc18xx43xx.o(.text)
    I2C1_IRQHandler                          0x1a002dd9   Thumb Code     0  keil_startup_lpc18xx43xx.o(.text)
    I2S0_IRQHandler                          0x1a002dd9   Thumb Code     0  keil_startup_lpc18xx43xx.o(.text)
    I2S1_IRQHandler                          0x1a002dd9   Thumb Code     0  keil_startup_lpc18xx43xx.o(.text)
    LCD_IRQHandler                           0x1a002dd9   Thumb Code     0  keil_startup_lpc18xx43xx.o(.text)
    MCPWM_IRQHandler                         0x1a002dd9   Thumb Code     0  keil_startup_lpc18xx43xx.o(.text)
    MX_CORE_IRQHandler                       0x1a002dd9   Thumb Code     0  keil_startup_lpc18xx43xx.o(.text)
    QEI_IRQHandler                           0x1a002dd9   Thumb Code     0  keil_startup_lpc18xx43xx.o(.text)
    RIT_IRQHandler                           0x1a002dd9   Thumb Code     0  keil_startup_lpc18xx43xx.o(.text)
    RTC_IRQHandler                           0x1a002dd9   Thumb Code     0  keil_startup_lpc18xx43xx.o(.text)
    SCT_IRQHandler                           0x1a002dd9   Thumb Code     0  keil_startup_lpc18xx43xx.o(.text)
    SDIO_IRQHandler                          0x1a002dd9   Thumb Code     0  keil_startup_lpc18xx43xx.o(.text)
    SGPIO_IRQHandler                         0x1a002dd9   Thumb Code     0  keil_startup_lpc18xx43xx.o(.text)
    SPIFI_IRQHandler                         0x1a002dd9   Thumb Code     0  keil_startup_lpc18xx43xx.o(.text)
    SPI_IRQHandler                           0x1a002dd9   Thumb Code     0  keil_startup_lpc18xx43xx.o(.text)
    SSP0_IRQHandler                          0x1a002dd9   Thumb Code     0  keil_startup_lpc18xx43xx.o(.text)
    SSP1_IRQHandler                          0x1a002dd9   Thumb Code     0  keil_startup_lpc18xx43xx.o(.text)
    TIMER0_IRQHandler                        0x1a002dd9   Thumb Code     0  keil_startup_lpc18xx43xx.o(.text)
    TIMER1_IRQHandler                        0x1a002dd9   Thumb Code     0  keil_startup_lpc18xx43xx.o(.text)
    TIMER2_IRQHandler                        0x1a002dd9   Thumb Code     0  keil_startup_lpc18xx43xx.o(.text)
    TIMER3_IRQHandler                        0x1a002dd9   Thumb Code     0  keil_startup_lpc18xx43xx.o(.text)
    UART0_IRQHandler                         0x1a002dd9   Thumb Code     0  keil_startup_lpc18xx43xx.o(.text)
    UART1_IRQHandler                         0x1a002dd9   Thumb Code     0  keil_startup_lpc18xx43xx.o(.text)
    UART2_IRQHandler                         0x1a002dd9   Thumb Code     0  keil_startup_lpc18xx43xx.o(.text)
    USB0_IRQHandler                          0x1a002dd9   Thumb Code     0  keil_startup_lpc18xx43xx.o(.text)
    USB1_IRQHandler                          0x1a002dd9   Thumb Code     0  keil_startup_lpc18xx43xx.o(.text)
    WDT_IRQHandler                           0x1a002dd9   Thumb Code     0  keil_startup_lpc18xx43xx.o(.text)
    __user_initial_stackheap                 0x1a002ddd   Thumb Code     0  keil_startup_lpc18xx43xx.o(.text)
    SystemInit                               0x1a002e01   Thumb Code    20  sysinit.o(.text)
    scu_pinmux                               0x1a002e1d   Thumb Code    16  lpc43xx_scu.o(.text)
    emc_init                                 0x1a002e31   Thumb Code   894  lpc43xx_sdram.o(.text)
    sdram_init                               0x1a0031af   Thumb Code   142  lpc43xx_sdram.o(.text)
    RX_callback                              0x1a003259   Thumb Code    26  main.o(.text)
    TX_callback                              0x1a003273   Thumb Code     2  main.o(.text)
    SysTick_Handler                          0x1a003275   Thumb Code    18  main.o(.text)
    OS_CPU_SysTickInit                       0x1a003287   Thumb Code    48  main.o(.text)
    uart_3_recv                              0x1a0032b7   Thumb Code    78  main.o(.text)
    UART3_IRQHandler                         0x1a003305   Thumb Code    58  main.o(.text)
    shell_task                               0x1a00333f   Thumb Code   262  main.o(.text)
    main                                     0x1a003445   Thumb Code    56  main.o(.text)
    CAN_RxInt_MessageProcess                 0x1a0034f5   Thumb Code   122  lpc43xx_can0.o(.text)
    CAN_TxInt_MessageProcess                 0x1a00356f   Thumb Code    22  lpc43xx_can0.o(.text)
    CAN0_IRQHandler                          0x1a003585   Thumb Code   196  lpc43xx_can0.o(.text)
    messageObjectInit                        0x1a003649   Thumb Code    50  lpc43xx_can0.o(.text)
    CAN_Init                                 0x1a00367b   Thumb Code   102  lpc43xx_can0.o(.text)
    CAN_Send                                 0x1a0036e1   Thumb Code   114  lpc43xx_can0.o(.text)
    CAN_Recv                                 0x1a003753   Thumb Code   176  lpc43xx_can0.o(.text)
    CAN_ReadMsg                              0x1a003803   Thumb Code    44  lpc43xx_can0.o(.text)
    __2printf                                0x1a003865   Thumb Code    20  noretval__2printf.o(.text)
    __printf                                 0x1a00387d   Thumb Code   104  __printf.o(.text)
    _printf_int_hex                          0x1a0038e5   Thumb Code    84  _printf_hex_int.o(.text)
    _printf_longlong_hex                     0x1a0038e5   Thumb Code     0  _printf_hex_int.o(.text)
    __use_two_region_memory                  0x1a00393d   Thumb Code     2  heapauxi.o(.text)
    __rt_heap_escrow$2region                 0x1a00393f   Thumb Code     2  heapauxi.o(.text)
    __rt_heap_expand$2region                 0x1a003941   Thumb Code     2  heapauxi.o(.text)
    _printf_int_common                       0x1a003943   Thumb Code   178  _printf_intcommon.o(.text)
    _printf_char_file                        0x1a0039f5   Thumb Code    32  _printf_char_file.o(.text)
    _printf_char_common                      0x1a003a23   Thumb Code    32  _printf_char_common.o(.text)
    __user_setup_stackheap                   0x1a003a49   Thumb Code    74  sys_stackheap_outer.o(.text)
    exit                                     0x1a003a93   Thumb Code    12  exit.o(.text)
    __user_libspace                          0x1a003aa1   Thumb Code     8  libspace.o(.text)
    __user_perproc_libspace                  0x1a003aa1   Thumb Code     0  libspace.o(.text)
    __user_perthread_libspace                0x1a003aa1   Thumb Code     0  libspace.o(.text)
    Board_SetupClocking                      0x1a003aa9   Thumb Code   128  board_sysinit.o(i.Board_SetupClocking)
    Board_SetupExtMemory                     0x1a003b35   Thumb Code    82  board_sysinit.o(i.Board_SetupExtMemory)
    Board_SetupMuxing                        0x1a003b99   Thumb Code    52  board_sysinit.o(i.Board_SetupMuxing)
    Board_SystemInit                         0x1a003bd9   Thumb Code    18  board_sysinit.o(i.Board_SystemInit)
    Board_UARTPutChar                        0x1a003bed   Thumb Code    12  board.o(i.Board_UARTPutChar)
    Board_UART_Init                          0x1a003bfd   Thumb Code    40  board.o(i.Board_UART_Init)
    Chip_Clock_DisableMainPLL                0x1a003c31   Thumb Code    12  clock_18xx_43xx.o(i.Chip_Clock_DisableMainPLL)
    Chip_Clock_Enable                        0x1a003c41   Thumb Code    40  clock_18xx_43xx.o(i.Chip_Clock_Enable)
    Chip_Clock_EnableCrystal                 0x1a003c6d   Thumb Code    54  clock_18xx_43xx.o(i.Chip_Clock_EnableCrystal)
    Chip_Clock_EnableOpts                    0x1a003cb1   Thumb Code    46  clock_18xx_43xx.o(i.Chip_Clock_EnableOpts)
    Chip_Clock_GetBaseClock                  0x1a003ce5   Thumb Code    26  clock_18xx_43xx.o(i.Chip_Clock_GetBaseClock)
    Chip_Clock_GetBaseClocktHz               0x1a003d05   Thumb Code    14  clock_18xx_43xx.o(i.Chip_Clock_GetBaseClocktHz)
    Chip_Clock_GetClockInputHz               0x1a003d15   Thumb Code   132  clock_18xx_43xx.o(i.Chip_Clock_GetClockInputHz)
    Chip_Clock_GetDividerDivisor             0x1a003dd9   Thumb Code    18  clock_18xx_43xx.o(i.Chip_Clock_GetDividerDivisor)
    Chip_Clock_GetDividerSource              0x1a003df9   Thumb Code    22  clock_18xx_43xx.o(i.Chip_Clock_GetDividerSource)
    Chip_Clock_GetEMCRate                    0x1a003e15   Thumb Code    34  clock_18xx_43xx.o(i.Chip_Clock_GetEMCRate)
    Chip_Clock_GetMainPLLHz                  0x1a003e41   Thumb Code    84  clock_18xx_43xx.o(i.Chip_Clock_GetMainPLLHz)
    Chip_Clock_GetRate                       0x1a003e9d   Thumb Code   112  clock_18xx_43xx.o(i.Chip_Clock_GetRate)
    Chip_Clock_SetBaseClock                  0x1a003f15   Thumb Code    48  clock_18xx_43xx.o(i.Chip_Clock_SetBaseClock)
    Chip_Clock_SetDivider                    0x1a003f4d   Thumb Code    50  clock_18xx_43xx.o(i.Chip_Clock_SetDivider)
    Chip_Clock_SetupMainPLLHz                0x1a003f91   Thumb Code   130  clock_18xx_43xx.o(i.Chip_Clock_SetupMainPLLHz)
    Chip_Clock_SetupMainPLLMult              0x1a004015   Thumb Code   118  clock_18xx_43xx.o(i.Chip_Clock_SetupMainPLLMult)
    Chip_EMC_Dynamic_Init                    0x1a0040b5   Thumb Code    22  emc_18xx_43xx.o(i.Chip_EMC_Dynamic_Init)
    Chip_EMC_Init                            0x1a0040d1   Thumb Code    24  emc_18xx_43xx.o(i.Chip_EMC_Init)
    Chip_EMC_Static_Init                     0x1a0040ed   Thumb Code    22  emc_18xx_43xx.o(i.Chip_EMC_Static_Init)
    Chip_SetupCoreClock                      0x1a004131   Thumb Code   106  sysinit_18xx_43xx.o(i.Chip_SetupCoreClock)
    Chip_UART_Init                           0x1a0041dd   Thumb Code    58  uart_18xx_43xx.o(i.Chip_UART_Init)
    Chip_UART_SetBaud                        0x1a00421d   Thumb Code    58  uart_18xx_43xx.o(i.Chip_UART_SetBaud)
    SystemCoreClockUpdate                    0x1a004259   Thumb Code    14  chip_18xx_43xx.o(i.SystemCoreClockUpdate)
    _sys_exit                                0x1a00426d   Thumb Code     4  board.o(i._sys_exit)
    ferror                                   0x1a0042a1   Thumb Code     6  board.o(i.ferror)
    fpuInit                                  0x1a0042a9   Thumb Code    46  fpu_init.o(i.fpuInit)
    fputc                                    0x1a0042e5   Thumb Code    12  board.o(i.fputc)
    initDynMem                               0x1a0042f1   Thumb Code   410  emc_18xx_43xx.o(i.initDynMem)
    initStaticMem                            0x1a00448b   Thumb Code    96  emc_18xx_43xx.o(i.initStaticMem)
    _fp_init                                 0x1a0044eb   Thumb Code    10  fpinit.o(x$fpl$fpinit)
    __fplib_config_fpu_vfp                   0x1a0044f3   Thumb Code     0  fpinit.o(x$fpl$fpinit)
    __fplib_config_pureend_doubles           0x1a0044f3   Thumb Code     0  fpinit.o(x$fpl$fpinit)
    ExtRateIn                                0x1a0044f4   Data           4  board.o(.constdata)
    OscRateIn                                0x1a0044f8   Data           4  board.o(.constdata)
    Region$$Table$$Base                      0x1a004894   Number         0  anon$$obj.o(Region$$Table)
    Region$$Table$$Limit                     0x1a0048b4   Number         0  anon$$obj.o(Region$$Table)



==============================================================================

Memory Map of the image

  Image Entry point : 0x1a000115

  Load Region LR_IROM1 (Base: 0x1a000000, Size: 0x00004938, Max: 0x00080000, ABSOLUTE)

    Execution Region RW_IRAM1 (Base: 0x10000000, Size: 0x00001b00, Max: 0x00008000, ABSOLUTE)

    Base Addr    Size         Type   Attr      Idx    E Section Name        Object

    0x10000000   0x00000048   Data   RW            3    .data               raw-os.o
    0x10000048   0x0000002c   Data   RW          650    .data               lpc43xx_can0.o
    0x10000074   0x00000004   Data   RW          721    .data               lib_lpc_board_keil_mcb_4357.lib(board.o)
    0x10000078   0x00000004   Data   RW         1206    .data               lib_lpc_chip_43xx.lib(chip_18xx_43xx.o)
    0x1000007c   0x00000008   Data   RW         1666    .data               lib_lpc_chip_43xx.lib(clock_18xx_43xx.o)
    0x10000084   0x00000bac   Zero   RW            2    .bss                raw-os.o
    0x10000c30   0x00000760   Zero   RW          614    .bss                main.o
    0x10001390   0x00000010   Zero   RW          649    .bss                lpc43xx_can0.o
    0x100013a0   0x00000060   Zero   RW         2543    .bss                c_w.l(libspace.o)
    0x10001400   0x00000100   Zero   RW          322    HEAP                keil_startup_lpc18xx43xx.o
    0x10001500   0x00000600   Zero   RW          321    STACK               keil_startup_lpc18xx43xx.o


    Execution Region ER_IROM1 (Base: 0x1a000000, Size: 0x000048b4, Max: 0x00080000, ABSOLUTE)

    Base Addr    Size         Type   Attr      Idx    E Section Name        Object

    0x1a000000   0x00000114   Data   RO          323    RESET               keil_startup_lpc18xx43xx.o
    0x1a000114   0x00000008   Code   RO         2493  * !!!main             c_w.l(__main.o)
    0x1a00011c   0x00000034   Code   RO         2666    !!!scatter          c_w.l(__scatter.o)
    0x1a000150   0x0000001a   Code   RO         2668    !!handler_copy      c_w.l(__scatter_copy.o)
    0x1a00016a   0x00000002   PAD
    0x1a00016c   0x0000001c   Code   RO         2670    !!handler_zi        c_w.l(__scatter_zi.o)
    0x1a000188   0x00000000   Code   RO         2486    .ARM.Collect$$_printf_percent$$00000000  c_w.l(_printf_percent.o)
    0x1a000188   0x00000006   Code   RO         2485    .ARM.Collect$$_printf_percent$$0000000C  c_w.l(_printf_x.o)
    0x1a00018e   0x00000004   Code   RO         2504    .ARM.Collect$$_printf_percent$$00000017  c_w.l(_printf_percent_end.o)
    0x1a000192   0x00000002   Code   RO         2541    .ARM.Collect$$libinit$$00000000  c_w.l(libinit.o)
    0x1a000194   0x00000004   Code   RO         2553    .ARM.Collect$$libinit$$00000001  c_w.l(libinit2.o)
    0x1a000198   0x00000000   Code   RO         2557    .ARM.Collect$$libinit$$00000008  c_w.l(libinit2.o)
    0x1a000198   0x00000000   Code   RO         2559    .ARM.Collect$$libinit$$0000000A  c_w.l(libinit2.o)
    0x1a000198   0x00000000   Code   RO         2561    .ARM.Collect$$libinit$$0000000C  c_w.l(libinit2.o)
    0x1a000198   0x00000000   Code   RO         2564    .ARM.Collect$$libinit$$0000000F  c_w.l(libinit2.o)
    0x1a000198   0x00000000   Code   RO         2566    .ARM.Collect$$libinit$$00000011  c_w.l(libinit2.o)
    0x1a000198   0x00000000   Code   RO         2568    .ARM.Collect$$libinit$$00000013  c_w.l(libinit2.o)
    0x1a000198   0x00000000   Code   RO         2570    .ARM.Collect$$libinit$$00000015  c_w.l(libinit2.o)
    0x1a000198   0x00000000   Code   RO         2572    .ARM.Collect$$libinit$$00000017  c_w.l(libinit2.o)
    0x1a000198   0x00000000   Code   RO         2574    .ARM.Collect$$libinit$$00000019  c_w.l(libinit2.o)
    0x1a000198   0x00000000   Code   RO         2576    .ARM.Collect$$libinit$$0000001B  c_w.l(libinit2.o)
    0x1a000198   0x00000000   Code   RO         2578    .ARM.Collect$$libinit$$0000001D  c_w.l(libinit2.o)
    0x1a000198   0x00000000   Code   RO         2580    .ARM.Collect$$libinit$$0000001F  c_w.l(libinit2.o)
    0x1a000198   0x00000000   Code   RO         2582    .ARM.Collect$$libinit$$00000021  c_w.l(libinit2.o)
    0x1a000198   0x00000000   Code   RO         2584    .ARM.Collect$$libinit$$00000023  c_w.l(libinit2.o)
    0x1a000198   0x00000000   Code   RO         2588    .ARM.Collect$$libinit$$0000002A  c_w.l(libinit2.o)
    0x1a000198   0x00000000   Code   RO         2590    .ARM.Collect$$libinit$$0000002C  c_w.l(libinit2.o)
    0x1a000198   0x00000000   Code   RO         2592    .ARM.Collect$$libinit$$0000002E  c_w.l(libinit2.o)
    0x1a000198   0x00000000   Code   RO         2594    .ARM.Collect$$libinit$$00000030  c_w.l(libinit2.o)
    0x1a000198   0x00000002   Code   RO         2595    .ARM.Collect$$libinit$$00000031  c_w.l(libinit2.o)
    0x1a00019a   0x00000002   Code   RO         2621    .ARM.Collect$$libshutdown$$00000000  c_w.l(libshutdown.o)
    0x1a00019c   0x00000000   Code   RO         2651    .ARM.Collect$$libshutdown$$00000003  c_w.l(libshutdown2.o)
    0x1a00019c   0x00000000   Code   RO         2654    .ARM.Collect$$libshutdown$$00000006  c_w.l(libshutdown2.o)
    0x1a00019c   0x00000000   Code   RO         2657    .ARM.Collect$$libshutdown$$00000009  c_w.l(libshutdown2.o)
    0x1a00019c   0x00000000   Code   RO         2659    .ARM.Collect$$libshutdown$$0000000B  c_w.l(libshutdown2.o)
    0x1a00019c   0x00000000   Code   RO         2662    .ARM.Collect$$libshutdown$$0000000E  c_w.l(libshutdown2.o)
    0x1a00019c   0x00000002   Code   RO         2663    .ARM.Collect$$libshutdown$$0000000F  c_w.l(libshutdown2.o)
    0x1a00019e   0x00000000   Code   RO         2495    .ARM.Collect$$rtentry$$00000000  c_w.l(rtentry.o)
    0x1a00019e   0x00000000   Code   RO         2508    .ARM.Collect$$rtentry$$00000002  c_w.l(rtentry2.o)
    0x1a00019e   0x00000006   Code   RO         2520    .ARM.Collect$$rtentry$$00000004  c_w.l(rtentry4.o)
    0x1a0001a4   0x00000000   Code   RO         2510    .ARM.Collect$$rtentry$$00000009  c_w.l(rtentry2.o)
    0x1a0001a4   0x00000004   Code   RO         2511    .ARM.Collect$$rtentry$$0000000A  c_w.l(rtentry2.o)
    0x1a0001a8   0x00000000   Code   RO         2513    .ARM.Collect$$rtentry$$0000000C  c_w.l(rtentry2.o)
    0x1a0001a8   0x00000008   Code   RO         2514    .ARM.Collect$$rtentry$$0000000D  c_w.l(rtentry2.o)
    0x1a0001b0   0x00000002   Code   RO         2545    .ARM.Collect$$rtexit$$00000000  c_w.l(rtexit.o)
    0x1a0001b2   0x00000000   Code   RO         2597    .ARM.Collect$$rtexit$$00000002  c_w.l(rtexit2.o)
    0x1a0001b2   0x00000004   Code   RO         2598    .ARM.Collect$$rtexit$$00000003  c_w.l(rtexit2.o)
    0x1a0001b6   0x00000006   Code   RO         2599    .ARM.Collect$$rtexit$$00000004  c_w.l(rtexit2.o)
    0x1a0001bc   0x0000280c   Code   RO            1    .text               raw-os.o
    0x1a0029c8   0x00000172   Code   RO          181    .text               fifo.o
    0x1a002b3a   0x00000002   PAD
    0x1a002b3c   0x000000a4   Code   RO          275    .text               cpu.o
    0x1a002be0   0x00000144   Code   RO          279    .text               port.o
    0x1a002d24   0x00000010   Code   RO          291    .text               port_hook.o
    0x1a002d34   0x00000088   Code   RO          309    .text               user_extension.o
    0x1a002dbc   0x00000044   Code   RO          324    .text               keil_startup_lpc18xx43xx.o
    0x1a002e00   0x0000001c   Code   RO          330    .text               sysinit.o
    0x1a002e1c   0x00000014   Code   RO          556    .text               lpc43xx_scu.o
    0x1a002e30   0x00000428   Code   RO          590    .text               lpc43xx_sdram.o
    0x1a003258   0x0000029c   Code   RO          613    .text               main.o
    0x1a0034f4   0x00000370   Code   RO          647    .text               lpc43xx_can0.o
    0x1a003864   0x00000018   Code   RO         2440    .text               c_w.l(noretval__2printf.o)
    0x1a00387c   0x00000068   Code   RO         2442    .text               c_w.l(__printf.o)
    0x1a0038e4   0x00000058   Code   RO         2447    .text               c_w.l(_printf_hex_int.o)
    0x1a00393c   0x00000006   Code   RO         2491    .text               c_w.l(heapauxi.o)
    0x1a003942   0x000000b2   Code   RO         2500    .text               c_w.l(_printf_intcommon.o)
    0x1a0039f4   0x00000024   Code   RO         2502    .text               c_w.l(_printf_char_file.o)
    0x1a003a18   0x00000030   Code   RO         2524    .text               c_w.l(_printf_char_common.o)
    0x1a003a48   0x0000004a   Code   RO         2526    .text               c_w.l(sys_stackheap_outer.o)
    0x1a003a92   0x0000000c   Code   RO         2530    .text               c_w.l(exit.o)
    0x1a003a9e   0x00000002   PAD
    0x1a003aa0   0x00000008   Code   RO         2542    .text               c_w.l(libspace.o)
    0x1a003aa8   0x0000008c   Code   RO         1130    i.Board_SetupClocking  lib_lpc_board_keil_mcb_4357.lib(board_sysinit.o)
    0x1a003b34   0x00000064   Code   RO         1131    i.Board_SetupExtMemory  lib_lpc_board_keil_mcb_4357.lib(board_sysinit.o)
    0x1a003b98   0x00000040   Code   RO         1132    i.Board_SetupMuxing  lib_lpc_board_keil_mcb_4357.lib(board_sysinit.o)
    0x1a003bd8   0x00000012   Code   RO         1133    i.Board_SystemInit  lib_lpc_board_keil_mcb_4357.lib(board_sysinit.o)
    0x1a003bea   0x00000002   PAD
    0x1a003bec   0x00000010   Code   RO          696    i.Board_UARTPutChar  lib_lpc_board_keil_mcb_4357.lib(board.o)
    0x1a003bfc   0x00000034   Code   RO          698    i.Board_UART_Init   lib_lpc_board_keil_mcb_4357.lib(board.o)
    0x1a003c30   0x00000010   Code   RO         1636    i.Chip_Clock_DisableMainPLL  lib_lpc_chip_43xx.lib(clock_18xx_43xx.o)
    0x1a003c40   0x0000002c   Code   RO         1638    i.Chip_Clock_Enable  lib_lpc_chip_43xx.lib(clock_18xx_43xx.o)
    0x1a003c6c   0x00000044   Code   RO         1640    i.Chip_Clock_EnableCrystal  lib_lpc_chip_43xx.lib(clock_18xx_43xx.o)
    0x1a003cb0   0x00000034   Code   RO         1642    i.Chip_Clock_EnableOpts  lib_lpc_chip_43xx.lib(clock_18xx_43xx.o)
    0x1a003ce4   0x00000020   Code   RO         1644    i.Chip_Clock_GetBaseClock  lib_lpc_chip_43xx.lib(clock_18xx_43xx.o)
    0x1a003d04   0x0000000e   Code   RO         1646    i.Chip_Clock_GetBaseClocktHz  lib_lpc_chip_43xx.lib(clock_18xx_43xx.o)
    0x1a003d12   0x00000002   PAD
    0x1a003d14   0x000000a0   Code   RO         1647    i.Chip_Clock_GetClockInputHz  lib_lpc_chip_43xx.lib(clock_18xx_43xx.o)
    0x1a003db4   0x00000022   Code   RO         1648    i.Chip_Clock_GetDivRate  lib_lpc_chip_43xx.lib(clock_18xx_43xx.o)
    0x1a003dd6   0x00000002   PAD
    0x1a003dd8   0x00000020   Code   RO         1649    i.Chip_Clock_GetDividerDivisor  lib_lpc_chip_43xx.lib(clock_18xx_43xx.o)
    0x1a003df8   0x0000001c   Code   RO         1650    i.Chip_Clock_GetDividerSource  lib_lpc_chip_43xx.lib(clock_18xx_43xx.o)
    0x1a003e14   0x0000002c   Code   RO         1651    i.Chip_Clock_GetEMCRate  lib_lpc_chip_43xx.lib(clock_18xx_43xx.o)
    0x1a003e40   0x0000005c   Code   RO         1652    i.Chip_Clock_GetMainPLLHz  lib_lpc_chip_43xx.lib(clock_18xx_43xx.o)
    0x1a003e9c   0x00000078   Code   RO         1654    i.Chip_Clock_GetRate  lib_lpc_chip_43xx.lib(clock_18xx_43xx.o)
    0x1a003f14   0x00000038   Code   RO         1658    i.Chip_Clock_SetBaseClock  lib_lpc_chip_43xx.lib(clock_18xx_43xx.o)
    0x1a003f4c   0x00000044   Code   RO         1659    i.Chip_Clock_SetDivider  lib_lpc_chip_43xx.lib(clock_18xx_43xx.o)
    0x1a003f90   0x00000082   Code   RO         1660    i.Chip_Clock_SetupMainPLLHz  lib_lpc_chip_43xx.lib(clock_18xx_43xx.o)
    0x1a004012   0x00000002   PAD
    0x1a004014   0x00000088   Code   RO         1661    i.Chip_Clock_SetupMainPLLMult  lib_lpc_chip_43xx.lib(clock_18xx_43xx.o)
    0x1a00409c   0x00000018   Code   RO         1664    i.Chip_Clock_TestMainPLLMultiplier  lib_lpc_chip_43xx.lib(clock_18xx_43xx.o)
    0x1a0040b4   0x0000001c   Code   RO         1842    i.Chip_EMC_Dynamic_Init  lib_lpc_chip_43xx.lib(emc_18xx_43xx.o)
    0x1a0040d0   0x0000001c   Code   RO         1844    i.Chip_EMC_Init     lib_lpc_chip_43xx.lib(emc_18xx_43xx.o)
    0x1a0040ec   0x0000001c   Code   RO         1847    i.Chip_EMC_Static_Init  lib_lpc_chip_43xx.lib(emc_18xx_43xx.o)
    0x1a004108   0x00000028   Code   RO         1134    i.Chip_SCU_SetPinMuxing  lib_lpc_board_keil_mcb_4357.lib(board_sysinit.o)
    0x1a004130   0x0000007c   Code   RO         2341    i.Chip_SetupCoreClock  lib_lpc_chip_43xx.lib(sysinit_18xx_43xx.o)
    0x1a0041ac   0x00000030   Code   RO         1419    i.Chip_UART_GetClockIndex  lib_lpc_chip_43xx.lib(uart_18xx_43xx.o)
    0x1a0041dc   0x00000040   Code   RO         1421    i.Chip_UART_Init    lib_lpc_chip_43xx.lib(uart_18xx_43xx.o)
    0x1a00421c   0x0000003a   Code   RO         1429    i.Chip_UART_SetBaud  lib_lpc_chip_43xx.lib(uart_18xx_43xx.o)
    0x1a004256   0x00000002   PAD
    0x1a004258   0x00000014   Code   RO         1204    i.SystemCoreClockUpdate  lib_lpc_chip_43xx.lib(chip_18xx_43xx.o)
    0x1a00426c   0x00000004   Code   RO          704    i._sys_exit         lib_lpc_board_keil_mcb_4357.lib(board.o)
    0x1a004270   0x00000030   Code   RO         1848    i.convertTimmingParam  lib_lpc_chip_43xx.lib(emc_18xx_43xx.o)
    0x1a0042a0   0x00000006   Code   RO          706    i.ferror            lib_lpc_board_keil_mcb_4357.lib(board.o)
    0x1a0042a6   0x00000002   PAD
    0x1a0042a8   0x0000003c   Code   RO         1548    i.fpuInit           lib_lpc_chip_43xx.lib(fpu_init.o)
    0x1a0042e4   0x0000000c   Code   RO          708    i.fputc             lib_lpc_board_keil_mcb_4357.lib(board.o)
    0x1a0042f0   0x0000019a   Code   RO         1849    i.initDynMem        lib_lpc_chip_43xx.lib(emc_18xx_43xx.o)
    0x1a00448a   0x00000060   Code   RO         1850    i.initStaticMem     lib_lpc_chip_43xx.lib(emc_18xx_43xx.o)
    0x1a0044ea   0x0000000a   Code   RO         2609    x$fpl$fpinit        fz_wm.l(fpinit.o)
    0x1a0044f4   0x00000004   Data   RO          719    .constdata          lib_lpc_board_keil_mcb_4357.lib(board.o)
    0x1a0044f8   0x00000004   Data   RO          720    .constdata          lib_lpc_board_keil_mcb_4357.lib(board.o)
    0x1a0044fc   0x000002bc   Data   RO         1135    .constdata          lib_lpc_board_keil_mcb_4357.lib(board_sysinit.o)
    0x1a0047b8   0x0000006c   Data   RO         1665    .constdata          lib_lpc_chip_43xx.lib(clock_18xx_43xx.o)
    0x1a004824   0x00000048   Data   RO         2345    .constdata          lib_lpc_chip_43xx.lib(sysinit_18xx_43xx.o)
    0x1a00486c   0x00000028   Data   RO         2448    .constdata          c_w.l(_printf_hex_int.o)
    0x1a004894   0x00000020   Data   RO         2664    Region$$Table       anon$$obj.o


==============================================================================

Image component sizes


      Code (inc. data)   RO Data    RW Data    ZI Data      Debug   Object Name

       164         16          0          0          0        392   cpu.o
       370          0          0          0          0       7444   fifo.o
        68         28        276          0       1792        944   keil_startup_lpc18xx43xx.o
       880         62          0         44         16       5343   lpc43xx_can0.o
        20          4          0          0          0       1009   lpc43xx_scu.o
      1064         28          0          0          0       2066   lpc43xx_sdram.o
       668         66          0          0       1888      37739   main.o
       324          0          0          0          0       1390   port.o
        16          0          0          0          0       1759   port_hook.o
     10252        202          0         72       2988      57275   raw-os.o
        28          8          0          0          0       4913   sysinit.o
       136          0          0          0          0       1480   user_extension.o

    ----------------------------------------------------------------------
     13992        414        308        116       6684     121754   Object Totals
         0          0         32          0          0          0   (incl. Generated)
         2          0          0          0          0          0   (incl. Padding)

    ----------------------------------------------------------------------

      Code (inc. data)   RO Data    RW Data    ZI Data      Debug   Library Member Name

         8          0          0          0          0         68   __main.o
       104          0          0          0          0         84   __printf.o
        52          8          0          0          0          0   __scatter.o
        26          0          0          0          0          0   __scatter_copy.o
        28          0          0          0          0          0   __scatter_zi.o
        48          6          0          0          0         96   _printf_char_common.o
        36          4          0          0          0         80   _printf_char_file.o
        88          4         40          0          0         88   _printf_hex_int.o
       178          0          0          0          0         88   _printf_intcommon.o
         0          0          0          0          0          0   _printf_percent.o
         4          0          0          0          0          0   _printf_percent_end.o
         6          0          0          0          0          0   _printf_x.o
        12          0          0          0          0         72   exit.o
         6          0          0          0          0        152   heapauxi.o
         2          0          0          0          0          0   libinit.o
         6          0          0          0          0          0   libinit2.o
         2          0          0          0          0          0   libshutdown.o
         2          0          0          0          0          0   libshutdown2.o
         8          4          0          0         96         68   libspace.o
        24          4          0          0          0         84   noretval__2printf.o
         0          0          0          0          0          0   rtentry.o
        12          0          0          0          0          0   rtentry2.o
         6          0          0          0          0          0   rtentry4.o
         2          0          0          0          0          0   rtexit.o
        10          0          0          0          0          0   rtexit2.o
        74          0          0          0          0         80   sys_stackheap_outer.o
        10          0          0          0          0        116   fpinit.o
        90         16          8          4          0      29621   board.o
       362         46        700          0          0       8012   board_sysinit.o
        20          6          0          4          0      11786   chip_18xx_43xx.o
      1150        174        108          8          0      12407   clock_18xx_43xx.o
       638         22          0          0          0       4312   emc_18xx_43xx.o
        60         14          0          0          0       1146   fpu_init.o
       124         18         72          0          0       1282   sysinit_18xx_43xx.o
       170         20          0          0          0       9406   uart_18xx_43xx.o

    ----------------------------------------------------------------------
      3384        346        928         16         96      79048   Library Totals
        16          0          0          0          0          0   (incl. Padding)

    ----------------------------------------------------------------------

      Code (inc. data)   RO Data    RW Data    ZI Data      Debug   Library Name

       744         30         40          0         96        960   c_w.l
        10          0          0          0          0        116   fz_wm.l
       452         62        708          4          0      37633   lib_lpc_board_keil_mcb_4357.lib
      2162        254        180         12          0      40339   lib_lpc_chip_43xx.lib

    ----------------------------------------------------------------------
      3384        346        928         16         96      79048   Library Totals

    ----------------------------------------------------------------------

==============================================================================


      Code (inc. data)   RO Data    RW Data    ZI Data      Debug   

     17376        760       1236        132       6780     195238   Grand Totals
     17376        760       1236        132       6780     195238   ELF Image Totals
     17376        760       1236        132          0          0   ROM Totals

==============================================================================

    Total RO  Size (Code + RO Data)                18612 (  18.18kB)
    Total RW  Size (RW Data + ZI Data)              6912 (   6.75kB)
    Total ROM Size (Code + RO Data + RW Data)      18744 (  18.30kB)

==============================================================================

